:100000000C94C8010C94F9010C94F9010C94F901B9
:100010000C94F9010C94F9010C94F9010C94F90178
:100020000C94F9010C94F9010C94F9010C94F90168
:100030000C94F9010C94DD1E0C94F9010C94F90157
:100040000C94F9010C94DA1F0C94F9010C94F90149
:100050000C94F9010C94F9010C94F9010C94931E81
:100060000C94F9010C94A41F0C947A1F0C94F901C0
:100070000C94F9010C94F9010C94F9010C94F90118
:100080000C94F9010C94F9010C94F9010C94F90108
:100090000C94F9010C94F9010C94F9010C946F1D66
:1000A0000C94F9010C94F9010C94F9010C94F901E8
:1000B0000C94F9010C94F9010C94F9010C94F901D8
:1000C0000C94F9010C94F9010C94F9010C94F901C8
:1000D0000C94F9010C94F9010C94F9010C94F901B8
:1000E0000C94F90105A84CCDB2D44EB93836A9020A
:1000F0000C50B9918688083CA6AAAA2ABE00000026
:10010000803F0C9498080C94A9170C941E0A0C9428
:1001100016180C94E5260C9482200C9476080C9406
:10012000370A0C94B42A0C9421030C94140A0C94EE
:100130009E2A0C94A72A0C94D2090C9404040C94C3
:100140008E2B0C94550A0C94F8020C94FF030C941B
:10015000CA030C944B0A0C94000A0C94ED030C9403
:10016000C4130C9441260C94E9030C94BC090C9420
:1001700005040C940A0A0C9420030C94F7020C94C6
:10018000F1030C9443030C9437080C94D2030C94A1
:1001900059260C9430030C948A080C940A130C947E
:1001A00012270C9407270C94A22A0C9477030C9422
:1001B00067080C94E3030C94C4030C94F8090C94A2
:1001C000E6090C94D9030C941D090C94D0080C94E6
:1001D0006C260C94410A0C9402270C94CE030C94C8
:1001E000B60B0C94D6030C94B6130C94DA170C943B
:1001F0002D0A0C9419260C94C4250C94F0090C9427
:100200004A030C94DF030C9409040C94CD090C945C
:10021000D9250C940C140C948D260C94FB030C948F
:10022000DC090C94D7260C945F0A0C94FC260C94E1
:10023000F7030C940D270C946408CDCCCC3D0AD761
:10024000233C17B7D13877CC2B329595E6241FB1D4
:100250004F0A000020410000C84200401C4620BC5C
:10026000BE4CCA1B0E5AAEC59D740200002100246C
:100270000027002A002D0030003300010100000497
:100280000107010A0100002200250028002B002E92
:10029000003100340002010000050108010B0100DB
:1002A0000020002300260029002C002F003200002F
:1002B0000100000301060109010505050507050800
:1002C000080808020202020A0A08080404040401D9
:1002D00001010101010101030303030303030304FB
:1002E0000707070C0C0C0C0C0C0C0C02020202068B
:1002F000060606060606060B0B0B0B0B0B0B0B017B
:100300000210202008081020401020408002010226
:1003100001080402010102040810204080804020EE
:100320001008040201800402018040201008040229
:1003300001080402010102040810204080010204A7
:10034000081020408000000A0B02090C0D0E08075F
:100350000304010000000000000000000000000095
:10036000000000000000000000000000000000008D
:10037000001211100000000000000000000000004A
:1003800000000000000000000000000082208E2B12
:1003900011241FBECFEFD1E2DEBFCDBF00E00CBF06
:1003A00012E0A0E0B2E0EEE8F2E600E00BBF02C02F
:1003B00007900D92A23FB107D9F725E0A2EFB2E076
:1003C00001C01D92AC36B207E1F711E0C7ECD1E0F5
:1003D00000E006C021970109802FFE010E94102D28
:1003E000C63CD10780E00807A9F70E942E220C9492
:1003F00035310C940000CF93DF93CFECD4E0288507
:1004000039854A855B856C857D858E859F850E94B3
:10041000362E288139814A815B810E94022C2C81F1
:100420003D814E815F810E94222DDF91CF91089501
:100430008F929F92AF92BF92CF92DF92EF92FF92F4
:10044000CF93DF93CFEED4E0C880D980EA80FB80E1
:10045000A70196016C817D818E819F810E94212D53
:100460004B015C016A857B85072E000C880B990B7C
:100470000E94A32B9B01AC01C501B4010E94022C78
:1004800020E030EC4FE754E40E948E2DA701960146
:100490000E94222D6B017C0168857985072E000C56
:1004A000880B990B0E94A32B9B01AC01C701B601DD
:1004B0000E94212DDF91CF91FF90EF90DF90CF90A0
:1004C000BF90AF909F908F9008954F925F926F92E0
:1004D0007F928F929F92AF92BF92CF92DF92EF92D4
:1004E000FF92CF93DF93CFEED4E0C880D980EA802B
:1004F000FB80A70196016C817D818E819F810E9486
:10050000212D4B015C016A857B85072E000C880B31
:10051000990B0E94A32BA50194010E94022C20E0BC
:1005200030EC4FE754E40E948E2DA70196010E9403
:10053000222D2B013C016C857D85072E000C880B3C
:10054000990B0E94A32BA50194010E94022C20E08C
:1005500030EC4FE754E40E948E2DA70196010E94D3
:10056000222D9B01AC01C301B2010E94212DDF911C
:10057000CF91FF90EF90DF90CF90BF90AF909F9082
:100580008F907F906F905F904F900895CF93DF93FF
:10059000EC0188819981DC01ED91FC910190F08161
:1005A000E02D64E270E01995009741F02FE1FC0125
:1005B000238321E02283DF91CF91089521E02A83D4
:1005C000FACF80917B00877F80937B0087E48093C4
:1005D0007C0080917A00806480937A0080917A0018
:1005E00086FDFCCF80917800909179000895089560
:1005F000089520914A03260F3327331F21323105F6
:10060000ECF42091B903FC0190E080E0243069F023
:1006100082E00895A0914A032191AC01465D5C4FB0
:10062000A40FB52FB11D2C930196861798F38091D6
:100630004A03680F60934A0380E0089581E00895BB
:100640000895E091920380919103E81730F4F0E06F
:10065000E359FC4F808190E008958FEF9FEF08955C
:1006600090919203809191032FEF3FEF981748F4F8
:10067000E92FF0E0E359FC4F208130E09F5F909339
:100680009203C90108958091910390919203891B6F
:10069000990B0895CF92DF92EF92FF920F931F93E1
:1006A000CF93DF937C01CB018A012091BF032223EA
:1006B00089F0EB016B01C40ED51ECC15DD0569F088
:1006C0006991D701ED91FC910190F081E02DC70176
:1006D0001995F3CF642F0E94F902C801DF91CF91E1
:1006E0001F910F91FF90EF90DF90CF900895CF93DF
:1006F000DF931F92CDB7DEB769832091BF0322231A
:10070000F9F02091E203203258F021E030E0FC01C2
:100710003383228390E080E00F90DF91CF910895A2
:100720008091C003E82FF0E0EF53FC4F9981908354
:100730008F5F8093C0038093E20381E090E0ECCF71
:1007400061E0CE0101960E94F902F7CF815082311B
:1007500008F05AC0E82FF0E08827EE54FC4F8F4F86
:100760000C94102DD203D603C403CA03CE03040491
:10077000D903DF03E303E903ED03F103F703FB030D
:100780000404FF0305040904809180008F7780939F
:1007900080000895809180008F7DF9CF8091800046
:1007A000877FF5CF84B58F7784BD089584B58F7D1D
:1007B000FBCF8091B0008F778093B0000895809137
:1007C000B0008F7DF9CF809190008F77809390005B
:1007D0000895809190008F7DF9CF80919000877F60
:1007E000F5CF8091A0008F778093A000089580912D
:1007F000A0008F7DF9CF8091A000877FF5CF8091F9
:1008000020018F77809320010895809120018F7DB2
:10081000F9CF80912001877FF5CFCF93DF93282FE9
:1008200030E0F901EB5BFC4F8491F901E150FD4FA1
:10083000D491F901E754FD4FC491CC23A1F081116B
:100840000E94A603EC2FF0E0EE0FFF1FE156FD4FD4
:10085000A591B491EC91ED2381E090E009F480E062
:10086000DF91CF91089580E090E0FACF1F93CF936E
:10087000DF93282F30E0F901EB5BFC4F8491F90105
:10088000E150FD4FD491F901E754FD4FC491CC23C1
:10089000A9F0162F81110E94A603EC2FF0E0EE0FB5
:1008A000FF1FEB57FD4FA591B4918FB7F894EC91D2
:1008B000111108C0D095DE23DC938FBFDF91CF915B
:1008C0001F910895DE2BF8CFFC0183858F3F19F02F
:1008D00061E00C9436040895FC0180819181892B9C
:1008E00039F0A281B3819C9111968C919CBD8DBDF4
:1008F00083858F3F19F060E00C94360408951092C0
:10090000B90381E08093B8031092930361E084E11E
:100910000E94360461E085E10E943604E9EBF0E0D4
:1009200080818E7F808380818D7F808388E4809327
:10093000B80085E48093BC000895CF93DF9391E0E5
:10094000909329038823B9F0C091B800D091BA00E0
:100950008091BC008A7B8093BC0060E084E10E94AF
:10096000360460E085E10E9436040E947F04D09343
:10097000BA00C093B800DF91CF910895CF93DF9371
:1009800090E0FC01E150FD4F249187549D4FFC0104
:1009900084918823D1F090E0880F991FFC01E559DC
:1009A000FD4FA591B491FC01EB57FD4FC591D4913A
:1009B00061110EC09FB7F8948C91E22FE0958E23C1
:1009C0008C932881E223E8839FBFDF91CF91089524
:1009D0008FB7F894EC91E22BEC938FBFF6CF823077
:1009E000910538F0880F991F880F991F0597019777
:1009F000F1F70895AF92BF92CF92DF92EF92FF92FC
:100A00000F931F93CF93DF93EC0188819981892BFA
:100A100089F06EBD0DB407FEFDCFBEB48B2DDF9106
:100A2000CF911F910F91FF90EF90DF90CF90BF90EB
:100A3000AF9008958885998511E0892B09F010E819
:100A4000AA24A394862F812309F0A12C062F2C81A0
:100A50003D814E815F8160E271EA87E090E00E9413
:100A6000CB2CF22EB02EE12CC22ED12CFF2019F06F
:100A7000C6010E94EF048A85877F09F042C08D85F8
:100A80008F3F89F0902F912381E009F480E08A154F
:100A900051F0EF85F8898F89992369F19081892B2D
:100AA0008083AA24A394E989FA898081998D892B6E
:100AB0008083FF2019F0C6010E94EF048E858F3FCE
:100AC00039F0EB89FC898081988D892309F0E12A2E
:100AD000E989FA899081898D8095892380838E8523
:100AE0008F3F09F0BE2C88859985892BB9F5110FA8
:100AF0001111BCCF93CF9081809589238083A12C45
:100B0000D2CFE989FA898081998D892B8083FF2052
:100B100019F0C6010E94EF048D858F3F49F0EF85E3
:100B2000F8898F89902F9123A9F09081892B808358
:100B3000E989FA899081898D8095892380838E85C2
:100B40008F3F69F2EB89FC898081988D892339F286
:100B5000E12AC5CF908180958923E9CF1695C8CF2A
:100B60008F929F92AF92BF92CF92DF92EF92FF92BD
:100B70000F931F93CF93DF937C014B016A01B22E39
:100B8000A32E0E946C04E401C80CD91CCC15DD0511
:100B900069F4CB2DDA2D0C0F1D1FC017D10759F0AA
:100BA0006FEFC7010E94FA048993F7CF6991C701DB
:100BB0000E94FA04EBCFC7010E94640481E0DF9138
:100BC000CF911F910F91FF90EF90DF90CF90BF904A
:100BD000AF909F908F9008958F929F92AF92BF9207
:100BE000CF92DF92EF92FF920F931F93CF93DF93F9
:100BF0007C01B62EA72E6A0149010E946C04E40113
:100C0000080D191DC017D10761F4CB2DDA2DCC0EBC
:100C1000DD1ECC15DD0551F06991C7010E94FA0473
:100C2000F8CF6991C7010E94FA04ECCFC7010E9476
:100C3000640481E0DF91CF911F910F91FF90EF90BD
:100C4000DF90CF90BF90AF909F908F9008953FB767
:100C5000F8948091250390912603A0912703B091E9
:100C6000280326B5A89B05C02F3F19F00196A11DAA
:100C7000B11D3FBFBA2FA92F982F8827BC01CD01E6
:100C8000620F711D811D911D42E0660F771F881F45
:100C9000991F4A95D1F708958F929F92AF92BF9274
:100CA000CF92DF92EF92FF920F931F93CF93DF9338
:100CB000D091E203D13208F0D7C0182FC091E103E0
:100CC0000E9427066B017C018091B90381116BC0E2
:100CD00082E08093B9031093B8038FEF8093B7033A
:100CE0001092B603D093B503A1ECB3E0E5E9F3E0CD
:100CF00080E0D81391C01092940380919403CC0F9C
:100D0000C82BC093940380919303813009F088C06D
:100D1000109293030E9427066B017C01809194033B
:100D20008093BB008091BB039091BC03A091BD0355
:100D3000B091BE03892B8A2B8B2BA1F00E94270632
:100D40000091BB031091BC032091BD033091BE0301
:100D50006C197D098E099F0906171707280739079F
:100D600008F442C08091BC0083FDD8CF85EC80930D
:100D7000BC000E9427066B017C018091B903823080
:100D800009F450C08091B7038F3F09F46FC0809180
:100D9000B703803209F46CC08091B703803309F443
:100DA00069C084E026C08091BB039091BC03A091F0
:100DB000BD03B091BE03892B8A2B8B2B09F484CF02
:100DC0000E9427068090BB039090BC03A090BD03B7
:100DD000B090BE036C197D098E099F09861697068F
:100DE000A806B90608F070CF8091BA030E949D044E
:100DF00085E01092C0031092E2031092BF03DF91CE
:100E0000CF911F910F91FF90EF90DF90CF90BF9007
:100E1000AF909F908F9008959D9191938F5F69CF30
:100E200085EEA5CF8091BB039091BC03A091BD033B
:100E3000B091BE03892B8A2B8B2B09F49ECF0E9485
:100E400027060091BB031091BC032091BD03309194
:100E5000BE036C197D098E099F090617170728071D
:100E6000390708F08ACFC0CF81E0C3CF80E0C1CF7F
:100E700082E0BFCF83E0BDCF1F93CF93DF93EA0122
:100E8000122FDC0111968D919C91DC01ED91FC916A
:100E90000280F381E02D1995C817D90729F4812F15
:100EA0000E944C0691E0811190E0892FDF91CF9153
:100EB0001F910895CF92DF92EF92FF920F931F93AD
:100EC000CF93DF931F921F92CDB7DEB7FC01478708
:100ED000508B618B728B8285882371F14487452FFB
:100EE000562F672F7727882349F143877F018BE0AF
:100EF000E80EF11C9681878199838A83C080D18016
:100F0000C114D10409F443C0018510E098012E5F9B
:100F10003F4FD60114968D919C918217930780F4D0
:100F200080E00F900F90DF91CF911F910F91FF9074
:100F3000EF90DF90CF9008954387D1CF4487D6CFED
:100F4000F60181819281208131E03093BF032093AB
:100F5000E1031092C0031092E2030115110541F460
:100F600021E042E050E0B701C6010E943C07D9CF22
:100F7000DC01ED91FC910280F381E02DA801BE011E
:100F80006F5F7F4F19950817190751F6E9CFA281B6
:100F9000B381109729F224813581018510E0233037
:100FA000310579F48E7F89839A830F5F1F4F9E01ED
:100FB0002F5F3F4F42E050E0B701CD010E94EC05AA
:100FC000B0CF2115310519F49F779983F0CF2230E6
:100FD000310511F49068F9CF2130310541F79F7741
:100FE0009064F3CFCF93DF93EC018B818823A1F042
:100FF000888191E09093BF038093E1031092C00336
:101000001092E20381E00E944C0691E0811190E091
:10101000892FDF91CF91089510929203109291033E
:101020001092C0031092E2030E947F0487EF92E0C7
:1010300090938E0380938D0388EF92E090939003BA
:1010400080938F0381E08B83CE010E94F207982F5B
:101050008111CECFDDCF2FB7F8946091210370912D
:10106000220380912303909124032FBF0895AF9210
:10107000BF92CF92DF92EF92FF920F931F93CF9385
:10108000DF936C017B018B01040F151FEB015E01E7
:10109000AE18BF08C017D10759F06991D601ED917C
:1010A000FC910190F081E02DC6011995892B79F70B
:1010B000C501DF91CF911F910F91FF90EF90DF90CD
:1010C000CF90BF90AF90089590E080E00895FC012C
:1010D000538D448D252F30E0842F90E0821B930B9D
:1010E000541710F0CF96089501970895FC01918D43
:1010F000828D981761F0A28DAE0FBF2FB11D5D9646
:101100008C91928D9F5F9F73928F90E008958FEFE7
:101110009FEF0895FC01918D828D981731F0828D9B
:10112000E80FF11D858D90E008958FEF9FEF0895F2
:10113000FC01918D228D892F90E0805C9F4F821B56
:1011400091098F73992708958FEE93E00E94980874
:1011500021E0892B09F420E0822F0895FC01A48D61
:10116000A80FB92FB11DA35ABF4F2C91848D90E0C9
:1011700001968F739927848FA689B7892C93A089AC
:10118000B1898C91837080648C93938D848D981336
:1011900006C00288F389E02D80818F7D80830895C9
:1011A000EF92FF920F931F93CF93DF93EC0181E0B7
:1011B000888F9B8D8C8D98131AC0E889F98980815E
:1011C00085FF15C09FB7F894EE89FF896083E88991
:1011D000F98980818370806480839FBF81E090E083
:1011E000DF91CF911F910F91FF90EF900895F62E10
:1011F0000B8D10E00F5F1F4F0F731127E02E8C8DAA
:101200008E110CC00FB607FCFACFE889F9898081EE
:1012100085FFF5CFCE010E94AE08F1CFEB8DEC0F2C
:10122000FD2FF11DE35AFF4FF0829FB7F8940B8F0B
:10123000EA89FB8980818062CFCFCF93DF93EC0175
:10124000888D8823B9F0AA89BB89E889F9898C91AE
:1012500085FD03C0808186FD0DC00FB607FCF7CF6A
:101260008C9185FFF2CF808185FFEDCFCE010E946A
:10127000AE08E9CFDF91CF9108958F929F92AF9200
:10128000BF92CF92DF92EF92FF920F931F93CF9373
:10129000DF93EC016A017B0120E030E04FE753E48B
:1012A000CB01B6010E94022C4B015C0120E030E032
:1012B000A9010E948A2E18168CF5C501B4010E945E
:1012C000002E8B01B98020E030E0A901C701B601F2
:1012D0000E948A2E60E018160CF061E08B2D0E94AF
:1012E00036040F3F110509F0ECF41127C88161E0C5
:1012F0008C2F0E94BE0401151105B9F460E08C2FFB
:10130000DF91CF911F910F91FF90EF90DF90CF90E1
:10131000BF90AF909F908F900C943604C501B4019C
:101320009058CDCF0FEF10E0E1CF0F3F110511F432
:1013300061E0E5CFEC2FF0E0EB5BFC4FE491E15096
:10134000E23108F0BCC0F0E08827E655F64F8F4F39
:101350000C94102DBC09CD09D209DC09E6095F0AFD
:10136000F009F809000A0A0A140A1E0A2D0A370AA7
:101370005F0A410A4B0A550A84B5806884BD07BDDF
:10138000DF91CF911F910F91FF90EF90DF90CF9061
:10139000BF90AF909F908F90089584B5806284BD78
:1013A00008BDEECF8091800080688093800010930C
:1013B000890000938800E4CF809180008062809350
:1013C000800010938B0000938A00DACF8091800018
:1013D00088608093800010938D0000938C00D0CFA4
:1013E0008091B00080688093B0000093B300C8CFB4
:1013F0008091B00080628093B0000093B400C0CFB1
:1014000080919000806880939000109399000093E1
:101410009800B6CF809190008062809390001093E6
:101420009B0000939A00ACCF8091900088608093DD
:10143000900010939D0000939C00A2CF8091A0008B
:1014400080688093A0008091A0008F7B8093A00093
:101450001093A9000093A80093CF8091A000806210
:101460008093A0001093AB000093AA0089CF8091D5
:10147000A00088608093A0001093AD000093AC00A2
:101480007FCF8091200180688093200110932901F3
:101490000093280175CF8091200180628093200104
:1014A00010932B0100932A016BCF8091200188605B
:1014B0008093200110932D0100932C0161CF0038FF
:1014C00011050CF035CF1ACF8EBD00000DB407FE0C
:1014D000FDCF8EB50895CF93DF93EC0160E0888156
:1014E0000E94360488E90E94640A80E00E94640A2F
:1014F00080E00E94640A80E00E94640A80E00E940A
:10150000640A61E088810E9436048BE891E00197CB
:10151000F1F760E088810E94360480EE0E94640A40
:1015200061E08881DF91CF910C9436046F3FB1F078
:10153000E62FE295EF7044E0E49F90011124DC0176
:10154000ED91FC91E20FF31F6F70B8E06B9FC0014B
:10155000112462817381860F971F089590E080E0C7
:101560000895CF93DF93EC0188819981DC01ED919F
:10157000FC910190F081E02D19952A813B81820F29
:10158000931F9B838A83DF91CF910895982F803397
:101590006CF08A3324F08F3524F08B3724F481E00B
:1015A000089581341CF081E09B350CF080E00895B3
:1015B000CF93DF93EC0188819981DC01ED91FC915F
:1015C0000280F381E02D19952A813B81820F931FC0
:1015D0009B838A83DF91CF9108958F929F92AF92E0
:1015E000BF92CF92DF92EF92FF920F931F93CF9310
:1015F000DF93CDB7DEB766970FB6F894DEBF0FBEA8
:10160000CDBF6C018E01095E1F4F78018AE0882EE4
:10161000912CA12CB12CCB01BA01A50194010E94FF
:10162000CB2C942F852F605DF80162938F01A90167
:10163000692F782F411551056105710561F7A701E3
:101640004E1B5F0BBF01C6010E94D80A66960FB6FB
:10165000F894DEBF0FBECDBFDF91CF911F910F91E8
:10166000FF90EF90DF90CF90BF90AF909F908F90C2
:101670000895FC018485811114C0A781B0858185FE
:1016800092852FEF3FEFA817B90730F4CD010196EF
:10169000908787832C9130E037FD20E0238781E01D
:1016A0008487838508951F93CF93DF93EC01162FD2
:1016B0000E94390B811306C01C8681E0DF91CF9117
:1016C0001F91089580E0FACF0F931F93CF93DF937C
:1016D0008C01EB018991882369F0C8010E94390BC4
:1016E000882379F0FE013197908198130DC0F8019D
:1016F0001486F0CF90E080E0DF91CF911F910F91A1
:10170000089582E090E0F8CF83E090E0F5CFCF93AA
:10171000DF93EC01CE010E94390B8B304CF4893001
:101720005CF4882359F081E08E8390E080E00BC068
:101730008D3011F08032B9F71C86ECCF8E8181118B
:1017400005C081E090E0DF91CF91089582E090E0C4
:10175000FACFDC01ED91FC91309731F094819F77C5
:1017600081E019F080E0089581E00895AF92BF9282
:10177000CF92DF92EF92FF920F931F93CF93DF935D
:10178000CFECD4E0288539854A855B856C857D85DD
:101790008E859F85A888B988CA88DB88EC88FD88F3
:1017A0000E891F890E94182D0E94362E28813981AA
:1017B0004A815B810E94022CDF91CF911F910F9192
:1017C000FF90EF90DF90CF90BF90AF9008954F9231
:1017D0005F926F927F928F929F92AF92BF92CF92C1
:1017E000DF92EF92FF920F931F93CF93DF93EB0162
:1017F000DC012C912B32D9F12D32D1F50196FF2449
:10180000F394FC01208130ED320F3A3018F02E3283
:1018100009F042C18C0160E070E0CB01F801219138
:1018200030ED832E820E39E0381520F16A3949E90E
:101830007407840749E1940738F5AAE0B0E09B01FA
:10184000AC010E94C02C912CB12CA12C240135019B
:101850004094509460947094461657066806790632
:1018600098F0680D791D8A1D9B1D8F01D7CF0196B9
:10187000F12CC7CF211108C0FF20E9F161307105BB
:10188000810550E89507A0F0E12CBAE08B2E912C51
:10189000A12CB12C6115710530E883079105B0F1D9
:1018A000A50194010E94CB2CCA01B901E394F2CFA7
:1018B0002C8120782A602C839B01AC0188279927F2
:1018C000DC01821B930BA40BB50B88839983AA833D
:1018D000BB838F2DDF91CF911F910F91FF90EF90E0
:1018E000DF90CF90BF90AF909F908F907F906F9040
:1018F0005F904F9008952C81207828602C83688316
:1019000079838A839B83FF24F394E3CFF801D80182
:101910002D918D0130ED320F3A3010F4E394F6CF73
:101920002E3201F58F010F5F1F4FF8010F5F1F4F20
:101930002081A0EDDA2ED20EB9E0BD1598F06C3CF6
:10194000ECEC7E07ECE08E07910578F7AAE0B0E0BA
:101950009B01AC010E94C02C6D0D711D811D911D5C
:10196000EA94E3CF20812F7D10E000E0253409F0D8
:101970005BC021812D32D1F53296CC24C394DF0196
:1019800010E000E02E2D0E2C000C330B5AE0B52E8B
:10199000FD01DD9040ED4D0D4A3008F040C0B09E95
:1019A000A001B19E500D11240D2DDD0C110B005323
:1019B0001109040F151FA801420F531F473251058B
:1019C0003CF38C81CC20C9F040E050E060E070E84E
:1019D000F11003C040E050E0BA0180788C608C8345
:1019E000488359836A837B83FC2C73CF2B3219F095
:1019F0003196C12CC4CF3296FCCF40E050E060E875
:101A00007FEFF11004C040E050E060E87FE78078AD
:101A10008C608C83488359836A837B8374CFCC200A
:101A200019F01195019511092081211135C00E0D74
:101A3000111DE7FC1A950E94A12B32E5C32E32E05E
:101A4000D32E101611063CF01195019511094AE3A9
:101A5000C42E42E0D42EE12C0115110591F000FFB7
:101A60000CC024E0E29EF0011124EC0DFD1D259137
:101A70003591459154910E94022C15950795E39458
:101A8000EBCFF11090582C8120782C602C83688348
:101A900079838A839B8337CFF12C1BCFCF92DF9240
:101AA000EF92FF92CF93DF9300D01F921F92CDB79A
:101AB000DEB7FC0184818F778630D9F040F4843022
:101AC000A9F1853009F43FC090E080E014C08A306D
:101AD000F1F08C3009F43FC08830B1F780819181FA
:101AE000A281B381811520E89207A105B10560F7B5
:101AF00002C0808190E00F900F900F900F900F9098
:101B0000DF91CF91FF90EF90DF90CF90089580818B
:101B10009181A281B381AC01BD0150586F4F7F4FBD
:101B2000411551056140710578F6E5CF80819181BD
:101B30001D82BE016F5F7F4F0E94E70BCE010196B1
:101B40000E944E0DD8CF808191811D82BE016F5FB2
:101B50007F4F0496F1CFC080D180E280F38020E0F7
:101B600030E040E057ECC701B6010E948A2E87FDA5
:101B7000ABCF20E03EEF4FEF56E4C701B6010E9425
:101B80009C2B18160CF4A0CFC701B6010E94002EA2
:101B9000CB01B1CFCF92DF92EF92FF92CF93DF9341
:101BA00000D01F921F92CDB7DEB7FC0184818F77E2
:101BB0008630C1F038F4843019F1853071F190E04D
:101BC00080E012C08A3021F08C3079F18830B9F78A
:101BD00080819181A281B381009721E0A207B105A4
:101BE00018F0EDCF808190E00F900F900F900F9044
:101BF0000F90DF91CF91FF90EF90DF90CF900895FD
:101C0000808191811D82BE016F5F7F4F0E94E70B33
:101C1000CE0101960E94CA0DE7CF808191811D827D
:101C2000BE016F5F7F4F0496F1CFC080D180E2800C
:101C3000F38020E030E0A901C701B6010E948A2E9E
:101C400087FDBDCF20E03FEF4FE757E4C701B60166
:101C50000E949C2B18160CF4B2CFC701B6010E944B
:101C6000072ECB01C1CFCF93DF9300D01F921F92DD
:101C7000CDB7DEB7FC0194819F77963091F030F4B8
:101C8000943020F560E070E0CB0111C09A30B9F0DB
:101C90009C3051F19830B1F76081718182819381DC
:101CA00004C0608170E090E080E00E94A12B0F9062
:101CB0000F900F900F900F90DF91CF91089560815A
:101CC0007181828193810E94A32BF1CF80819181C8
:101CD0001D82BE016F5F7F4F04960E94E70BCE010D
:101CE00001960E94330EE3CF6081718182819381DE
:101CF000DECFFC019289915084E0989F90011124DD
:101D0000A089B189A20FB31F1296ED91FC91139790
:101D10003097E9F011962C9111978C912817B8F40F
:101D200081E0820F11968C9388E0289FA0011124F6
:101D3000E40FF51F309759F014828FEF85831782D7
:101D40001682BF01892F8295807F820F089560E0FF
:101D500070E08FEF0895DF92EF92FF920F931F9341
:101D6000CF93DF93EC017B01D12C688979898A8933
:101D7000D816E0F484E0D89E80011124060F171FC6
:101D8000D80112966D917C916115710541F0D701D2
:101D9000ED91FC910280F381E02DC7011995F801C6
:101DA0001382128210821182D394DFCF1A8A8FEFAE
:101DB0008C8BC617D70761F0D701ED91FC9102809B
:101DC000F381E02DC7011995D98BC88B84E08B8BEB
:101DD000DF91CF911F910F91FF90EF90DF900895C9
:101DE000DB01ED91FC9111970280F381E02DBC01A4
:101DF000CD0119940F931F93CF93DF93EC010881CA
:101E000019818B819C81009749F0FC0120813181EF
:101E10003C832B83B8010E94F00EF3CF6881798157
:101E2000CE010596DF91CF911F910F910C94AB0ECF
:101E3000CF93DF93EC01E881F981B0E0A0E0309727
:101E4000F9F09F012C5F3F4F62177307A1F4928155
:101E500091509283911114C080819181109741F02B
:101E60008D939C93BA01CF01DF91CF910C94F00E2A
:101E700099838883F7CFDF010190F081E02DDFCFD8
:101E8000DF91CF9108958F929F92AF92BF92CF92A0
:101E9000DF92EF92FF920F931F93CF93DF938C010A
:101EA000EB01FC01848180FF0AC048815981608177
:101EB00071816C5F7F4FCE0103960E94180FF8016D
:101EC0008481807681F10115110569F1D0805E0170
:101ED000F5E1AF0EB11C4E0183E0880E911CEFEFCF
:101EE000DE16F1F06D2DC5010E94960A7C01FC0101
:101EF000C580848187FF07C04881598166817781C9
:101F0000C4010E94180FBE01C7010E94430FF701D0
:101F1000848180788483898D8583D98EDC2CDFCF82
:101F2000F801D082D182DF91CF911F910F91FF9064
:101F3000EF90DF90CF90BF90AF909F908F900895DB
:101F4000EF92FF920F931F93CF93DF937C018B014E
:101F5000EA016F3F710509F0B0F4E881F98104806E
:101F6000F581E02DAB014B5F5F4FBC01CE011995B0
:101F7000009749F0FC010383DF91CF911F910F91EE
:101F8000FF90EF900895E881F9810280F381E02DC0
:101F9000B701CE01199590E080E0EECFFF920F934C
:101FA0001F93CF93DF93EC01F62E8A819B810097DC
:101FB000C9F06C817D81FC0123812617170691F4FD
:101FC00008811981F80140815181660F771F6F5F89
:101FD0007F4F0E94A00F009719F421E0F80122839F
:101FE0009B838A838A819B81009759F02C813D8154
:101FF000A9014F5F5F4F5D834C83820F931FFC01EC
:10200000F482DF91CF911F910F91FF9008959F92DD
:10201000AF92BF92CF92DF92EF92FF920F931F93F6
:10202000CF93DF9300D01F921F92CDB7DEB78C0104
:102030000E94390BD82EF8011486F12CE12C60EFA8
:10204000C62EC8010E94390BF8011486D81609F46F
:10205000B3C0811113C082E090E00F900F900F90F9
:102060000F900F90DF91CF911F910F91FF90EF9004
:10207000DF90CF90BF90AF909F9008958C3509F07E
:1020800099C0C8010E94390B882329F3EDE4F2E0DE
:10209000853709F083C0F801148654E0952EB12CE1
:1020A000A12CC8010E94390B8823A9F2813434F491
:1020B0008053803130F083E090E0CFCF8F7D875325
:1020C000F8CF44E0AA0CBB1C4A95E1F7A82AF80116
:1020D00014869A949110E5CFC501985D81159440BE
:1020E00020F47501F3E0FF22ACCFC5019C5D8115A2
:1020F0009440A8F483E0B822B701762F6627770FC3
:10210000770F6A297B2990E080E00196603871059D
:102110008105910540F4C8010E94CE0F92CFB50110
:1021200090E080E0F3CF1982262F2F7320682A8356
:1021300026E096958795779567952A95D1F7603231
:10214000710580F4606C6B835E01E4E0AE0EB11C3F
:10215000F50162915F01662309F473CFC8010E9403
:10216000CE0FF6CF262F2F7320682B8386E076952F
:1021700067958A95E1F76031710538F4606E6C837C
:102180005E01F5E0AF0EB11CE3CF60686C83CD82D9
:102190005E0126E0A20EB11CDBCF3296908199231E
:1021A00009F489CF8913F9CF8181882309F483CF7A
:1021B000F8011486682FAFCF82819381892B19F49F
:1021C00084E090E04ACF90E080E047CFAF92BF92AA
:1021D000CF92DF92EF92FF920F931F93CF93DF93F3
:1021E000DC011296ED91FC91139714968D919C91C0
:1021F0001597E80FF91F14820D911C9111971496F1
:102200006D917C91159712968D919C9113979C01DD
:102210002C5F3F4FE801EB81FC817B01E20EF31E56
:102220003097B9F043814617170679F45901AF0189
:102230004C5F5F4FEA14FB0499F1E501C9905E0120
:10224000EA01D990AE01CD14A9F30190F081E02DFF
:10225000E7CFED01F801408151810E94A00FFC0100
:10226000892B21F481E0D80112968C93A881B98141
:1022700013968D919C911497918380831496FC936F
:10228000EE9313971B821A82CF01DF91CF911F919A
:102290000F91FF90EF90DF90CF90BF90AF90089597
:1022A00082818F5F8283F0CF2F923F924F925F9215
:1022B0006F927F928F929F92AF92BF92CF92DF9256
:1022C000EF92FF920F931F93CF93DF9300D000D034
:1022D000CDB7DEB77C017C836B830B969E838D83A9
:1022E000D70116969C91169717968C9117979983FC
:1022F0008A836D907C9011976114710409F44CC12C
:1023000019964C9150E0F3018481958184179507CB
:10231000A8F0808191E09093BF038093E103109235
:10232000C0031092E20320E0BE016F5F7F4FC30144
:102330000E943C07D12CC12C81111AC080E0269646
:102340000FB6F894DEBF0FBECDBFDF91CF911F91C6
:102350000F91FF90EF90DF90CF90BF90AF909F9044
:102360008F907F906F905F904F903F902F90089547
:10237000D30114968D919C9102E010E00C191D0977
:102380008017910708F48C01F30150800E94270602
:102390004B015C018091B903811176C0B02EF0E24F
:1023A000F01710F440E2B42E81E08093B90321E0ED
:1023B00082E090E0801B910BC816D90608F420E05B
:1023C0002093B8039FEF9093B7031092B6038FEF5B
:1023D0008B0D8093B503A1E0A093940380919403A7
:1023E000550C582A5092940380919303813009F040
:1023F00093C0109293030E9427061B012C01809129
:1024000094038093BB008091BB039091BC03A09187
:10241000BD03B091BE03892B8A2B8B2BA1F00E94A8
:1024200027062091BB033091BC034091BD0350911E
:10243000BE036219730984099509261737074807EF
:10244000590708F442C08091BC0083FDD8CFB5EC99
:10245000B093BC000E9427061B012C018091B90398
:10246000813009F45DC08091B6038B1510F4B090F3
:10247000B603A5E9B3E0EDE6F3E080E08B1551F19A
:102480009D9191938F5FFACF8091BB039091BC0394
:10249000A091BD03B091BE03892B8A2B8B2B09F42D
:1024A00079CF0E9427062091BB033091BC03409155
:1024B000BD035091BE03681979098A099B09261743
:1024C00037074807590708F065CF8091BA030E9483
:1024D0009D04B12C10929203B0929103B016110694
:1024E00009F02CCF8D809E808C0C9D1C5401C50161
:1024F0008819990980179107A8F5D30111968D9134
:102500009C91DC01ED91FC910284F385E02D1995FD
:10251000F50181935F01EBCFE5EEE093BC009ACF2C
:102520008091BB039091BC03A091BD03B091BE0309
:10253000892B8A2B8B2B09F491CF0E94270620919F
:10254000BB033091BC034091BD035091BE0362199F
:10255000730984099509261737074807590708F0B2
:102560007DCFB3CFC00ED11EF2E0CF16D10408F458
:10257000FFCEF7018285811142C0848590E0982FBB
:102580008827AB81BC8111969C938E932385822BE7
:102590008D939C9381E0D3CE1296ED91FC9113978D
:1025A000309709F4CBCE14962D913C91159719963E
:1025B0004C9150E02330310591F4816089839A83F6
:1025C0004F5F5F4F02E010E02D813E81BE016F5FE3
:1025D0007F4FCF010E94B0058111CBCFB0CE211526
:1025E000310519F490689983EDCF2230310511F44B
:1025F0009F77F9CF2130310529F7906CF4CF83858F
:1026000090E0982F8827AB81BC8111969C938E9384
:102610002485BDCFAB01BC01705886E595E00C94D4
:102620003D09FC0101900020E9F73197AF01481BFB
:10263000590BBC018FEE93E00C943708AF92BF9218
:10264000CF92DF92EF92FF920F931F93CF93DF937E
:10265000CDB7DEB7A1970FB6F894DEBF0FBECDBFE2
:102660005C018EE592E00E94111365010B2C000CB9
:10267000EE08FF08F7FE49C06DE28FEE93E00E947E
:10268000D00822273327A9012C193D094E095F09DB
:1026900019A28E010F5D1F4F9AE0C92ED12CE12C9B
:1026A000F12CCA01B901A70196010E94CB2C605DF3
:1026B000F80162938F01211531054105510589F714
:1026C0000115110519F0C8010E94111388E692E066
:1026D0000E94111380911A0390911B03099781F5B1
:1026E000A114B10409F498C0A1960FB6F894DEBF06
:1026F0000FBECDBFDF91CF911F910F91FF90EF9053
:10270000DF90CF90BF90AF900895A701960119A2D6
:102710008E010F5D1F4F8AE0C82ED12CE12CF12CC9
:10272000CA01B901A70196010E94CB2C605DF80196
:1027300062938F01211531054105510589F7C0CFFD
:10274000FAE0AF16B10408F058C0F5018827E45547
:10275000FC4E8F4F0C94102D0C14C4130C140C143D
:10276000B613C4130C140C140C140C148FEF9FEF3D
:1027700090930402809303021092150310921403A5
:1027800010921303109212038091090590910A058B
:10279000892B99F180910B0590910C05892B69F19A
:1027A00081E0809313050E942B0800911905109178
:1027B0001A0520911B0530911C05DC01CB01800F0F
:1027C000911FA21FB31F8093210590932205A09310
:1027D0002305B09324051092140510923105109230
:1027E000320510923305109234051092350510927F
:1027F00036051092370510923805B0921B03A0924F
:102800001A030E942B08609316037093170380939A
:1028100018039093190368CF10921305EECFDF923F
:10282000EF92FF920F931F93CF93DF936115710582
:1028300061F460E070E08FEF9D2DDF91CF911F91EB
:102840000F91FF90EF90DF9008958A01EB01DC017A
:10285000FC900B5E1F4F6F2DC8010E94960A0097D7
:1028600041F3FC01E580009721F30680F781E02D1C
:10287000DE010D900020E9F79D01215031092C1B4C
:102880003D0BB0E0A0E0309739F0DF010D90002063
:10289000E9F71197AE1BBF0B2A173B0751F4DE0176
:1028A0002C0F3D1FA217B30769F05D91419154179A
:1028B000C9F36E2DC8010E94960A009709F4B9CF9A
:1028C000FE2CCFCFBC018F2DDE2CB6CFCF93DF9364
:1028D000FC01C081D18162817381CE014A9661F091
:1028E0002E8D25FF09C0AE010E940F149B01B90176
:1028F000CE01DF91CF91089530E020E0F8CFFB01C9
:1029000001900020E9F73197AF01461B570B0C945B
:10291000D80A1F93CF93DF93EDE4F2E012811123E5
:1029200079F0329621816213F9CFEC016CE50E94B7
:10293000B10A612FCE01DF91CF911F910C94B10AA2
:102940006111F9CF6BE672E0DF91CF911F910C948A
:102950007F14CF92DF92EF92FF920F931F93CF934A
:10296000DF938C016B017A0162E20E94B10AE601F9
:10297000EC0CFD1CCE15DF0529F06991C8010E9401
:102980008914F8CF62E2C801DF91CF911F910F91B6
:10299000FF90EF90DF90CF900C94B10A2F923F926E
:1029A0004F925F926F927F928F929F92AF92BF925F
:1029B000CF92DF92EF92FF920F931F93CF93DF930B
:1029C000CDB7DEB76C970FB6F894DEBF0FBECDBFA4
:1029D0008C011B01DC0114968C9114978F77883041
:1029E00009F4B2C2E8F4843009F469C248F48330CF
:1029F00009F49FC262E772E0C1010E947F141CC209
:102A0000853009F470C28630A9F78C9167E772E0CF
:102A1000811102C06CE772E0C1010E947F146DC297
:102A20008C30F1F1C8F48A3029F7CD90DD90ED902B
:102A3000FC90B701A601F7FE0BC06DE2C1010E9438
:102A4000B10A44275527BA014C195D096E097F095F
:102A5000C1010E94ED0A51C2803209F4F7C18034ED
:102A600049F66BE5C1010E94B10AF80110811F3FD0
:102A700009F4E7C1D10114968D919C91612F45967F
:102A80000E94960A8C01B1010E94CE14F8011581B2
:102A90001F3F09F4D6C16CE2C1010E94B10AE7CF21
:102AA000F801C080D180E280F380A7019601C701C0
:102AB000B6010E949C2B81119DCF20E030E0A9013E
:102AC000C701B6010E949C2B882379F0A7019601CB
:102AD000C701B6010E94222D9B01AC01C701B601BE
:102AE0000E949C2B882309F485CF20E030E0A901C7
:102AF000C701B6010E949C2B87FF08C06DE2C1018F
:102B00000E94B10AF7FAF094F7F8F09420E836E959
:102B100048E15BE4C701B6010E948A2E87FD88C0A8
:102B200074E1A72EB12C00E210E0188E1F8AF50187
:102B3000EE5AFD4F2591359145915491C701B6014B
:102B40000E948A2E87FD13C0F501E65CFD4F25919A
:102B5000359145915491C701B6010E94022C6B0139
:102B60007C012F89388D200F311F388F2F8B1595C1
:102B7000079534E0A31AB1088CEFA8168FEFB806BA
:102B8000B1F655245A9420E030E0A901C701B601FE
:102B90000E948A2E18160CF052C02CEA35EC47E23F
:102BA00057E3C701B6010E949C2B18160CF447C0CE
:102BB000A52DB4E0AB02C0011124B12CA12CFC0165
:102BC000E65CFD4F3F019C012E5A3D4F49013FEF0E
:102BD000531609F434C0F301EA0DFB1D659175919C
:102BE0008591949120E030E040E251E40E94022C73
:102BF000A70196010E948A2E18169CF4F401EA0D92
:102C0000FB1D2591359145915491C701B6010E9454
:102C1000022C6B017C018F89988D801B910B988F02
:102C20008F8B159507955A9494E0A91AB108CFCFC8
:102C300000E210E055E0552E188E1F8AA4CFC70180
:102C4000B6010E94072E4B015C012B013C0106E0FE
:102C500080E492E4AFE0B0E0898F9A8FAB8FBC8FB5
:102C6000102F01509AE04916510461047104C8F014
:102C7000698D7A8D8B8D9C8D2AE030E040E050E0AC
:102C80000E94CB2C298F3A8F4B8F5C8FC301B201EE
:102C90002AE030E040E050E00E94CB2C29013A01CC
:102CA000DFCFC501B4010E94A12B9B01AC01C7017C
:102CB000B6010E94212D6B017C01698D7A8D8B8D6F
:102CC0009C8D0E94A12B9B01AC01C701B6010E9403
:102CD000022C2B013C010E94072E6B017C010E94FB
:102CE000A12B9B01AC01C301B2010E94212D9B01CC
:102CF000AC010E94222D0E94072EC60ED71EE81E90
:102D0000F91E898D9A8DAB8DBC8DC816D906EA0641
:102D1000FB06D8F09FEF891A990AA90AB90AAF8968
:102D2000B88DAB2B39F1BAE08B169104A104B10434
:102D300008F1EF89F88D3196F88FEF8BC12CD12CEB
:102D40007601812C912C540183942AE0422E512C3F
:102D5000612C712CC701B601A30192010E94CB2CFA
:102D6000672B682B692B51F4111644F469017A0121
:102D70001150F0CFC12CD12C7601E7CFB501A401C1
:102D8000C1010E94ED0A112371F14E01F1E18F0E94
:102D9000911C012F54019AE0492E512C612C712C69
:102DA000015068F0C701B601A30192010E94CB2C2B
:102DB000605DD4016E934D0169017A01F1CF812FDD
:102DC00090E0BC0160957095F501E81BF90B319717
:102DD0008EE2808344275527461B570B6A0D7B1DC7
:102DE000C1010E94D80AEF89F88DEF2B29F165E621
:102DF000C1010E94B10A0F89188D17FF07C06DE24B
:102E0000C1010E94B10A119501951109FE01779641
:102E10009F018AE0E82EF12CC801B7010E94FC2C2A
:102E2000805D82938B01672BB9F7A9014E1B5F0B65
:102E3000BF01C1010E94D80AD10112968D919C91C7
:102E40005FC06DE5C1010E94B10AF6CF6BE7C10119
:102E50000E94B10AF80110811F3F79F1D101149647
:102E60008D919C91612F45960E94960A8C01FC01E0
:102E7000C680D78062E2C1010E94B10A7601D70103
:102E80006D917D01662321F0C1010E948914F7CF65
:102E900062E2C1010E94B10A6AE3C1010E94B10A63
:102EA000B101C8010E94CE14F80115811F3F29F01D
:102EB0006CE2C1010E94B10ACFCF6DE7C3CFF80128
:102EC0006081718150E040E06115710541F0FB01C6
:102ED00001900020E9F73197AF01461B570BC10164
:102EE0000E94A914A9CFED91FC91438150E0BF014C
:102EF0006C5F7F4FC1010E94A914F101828193810F
:102F00006C960FB6F894DEBF0FBECDBFDF91CF91A8
:102F10001F910F91FF90EF90DF90CF90BF90AF90F7
:102F20009F908F907F906F905F904F903F902F90E9
:102F30000895ED91FC91438150E0BF016C5F7F4F9C
:102F4000C1010E94D80AD9CF4D915D916D917C91BC
:102F50007FCDCB010C94BB2FCF93DF93EC018091FD
:102F6000C9049091CA04009759F02091CB04309184
:102F7000CC042C173D0720F081E0DF91CF9108951C
:102F8000BE016F5F7F4F0E944430009789F090939D
:102F9000CA048093C904D093CC04C093CB0420917D
:102FA000CD043091CE04232B39F7FC011082E4CFFD
:102FB00080E0E3CFCB01BA010C94443085ED8093DF
:102FC000BC008091BB039091BC03A091BD03B09164
:102FD000BE030796A11DB11D23E0B695A795979551
:102FE00087952A95D1F72091BC0024FD03C010924B
:102FF000B90308954091BB035091BC036091BD0398
:103000007091BE03452B462B472B69F30097A10512
:10301000B10541F02AE22A95F1F700C00197A10914
:10302000B109E1CF8091BA030C949D04CB010C94BB
:103030001F2F8F929F92AF92BF92CF92DF92EF920B
:10304000FF920F931F93CF93DF936C018B01DB01F2
:103050005996FC90BFEFFB1621F16F2DC8014596E4
:103060000E94960AEC018D81F801818F209709F466
:1030700096C01C828FEF8D831F821E82D60111960F
:103080006C916F3F09F49FC0C80145960E94960A53
:10309000FC01F582D6011196FC92BE018F2D9D8018
:1030A00084C05B01F5E0AF0EB11CDB01ED90FC903C
:1030B000119757968C91882349F0C5010E94790E8B
:1030C000C62FD72F209711F0F82ED8CFF801C78937
:1030D000908DC91325C0C03109F461C0CC0F65893A
:1030E0007689D701ED91FC91B4E0CB9FA00111242A
:1030F000A616B70609F04BC00190F081E02DBA0189
:10310000C7011995009709F44AC020E1F501DC01D7
:1031100001900D922A95E1F7F801968B858BC08F6F
:10312000D8015596CD91DC91569757968C9157972B
:1031300021E0280F57962C93B4E08B9FC0011124F7
:10314000C80FD91F90E1892E203111F48FE0882E0D
:10315000E8E08E9EB0011124D701ED91FC91019021
:10316000F081E02DC70119959B838A83892B09F48F
:10317000812C88821982CD2B91F0C5010E94790E95
:10318000C62FD72FF82E209709F078CF08C00480DB
:10319000F581E02DC7011995009709F0BDCF81E0B9
:1031A000F801828360E070E08FEF992DDF91CF917D
:1031B0001F910F91FF90EF90DF90CF90BF90AF9055
:1031C0009F908F900895F601F082F18266CF8F92E2
:1031D0009F92AF92BF92CF92DF92EF92FF920F93A6
:1031E0001F93CF93DF93EC018B01D42E0E94870BAA
:1031F0007C01892B09F047C0CE010E94390B86362D
:1032000009F452C124F5873229F08B3561F18232FD
:1032100009F053C11D821C828A819B81892B31F464
:10322000888199810E94C6029B838A83CE010E9475
:1032300007107C01892B39F5CE010E94E610F801B8
:103240002481207825602483918380831CC0843767
:1032500009F412C18B3709F45BC08E3609F02DC119
:1032600062E772E012C1F80184818078806484830F
:103270000115110519F08FEF80838183D11011C0E2
:1032800025E0E22EF12CC701DF91CF911F910F9124
:10329000FF90EF90DF90CF90BF90AF909F908F9076
:1032A00008951C86CE010E94870B009709F085C007
:1032B0006DE5CE010E94530B8111E5CFDA946D8547
:1032C0007E85C8010E9419186115710521F484E0FA
:1032D000E82EF12CD8CF4D2DCE010E94E718009793
:1032E00009F06BC0CE010E94870B009709F065C002
:1032F0006DE5CE010E94530B8111C5CF6CE2CE016A
:103300000E94530B8111DBCF93E0E92EF12CBBCF50
:10331000F80184818078806284830115110519F099
:103320008FEF80838183DD2009F4AACF1C86CE0134
:103330000E94870B009709F040C06DE7CE010E9404
:10334000530B8111A0CFBB24BA94BD0C1D821C82EB
:103350008A819B81892B31F4888199810E94C602E0
:103360009B838A83CE010E94390B8732E1F082323F
:10337000D1F0CE010E94390BD82E0E94C60A8823B4
:1033800019F21C866D2DCE010E94CE0FCE010E9437
:10339000390BD82E0E94C60A8111F3CF8A819B81F6
:1033A000892B31F494CFCE010E940710009729F4A5
:1033B000CE010E94870B009711F07C0164CF6AE375
:1033C000CE010E94530B882309F49ECFEA81FB8132
:1033D0008C819D81E80FF91F14824D855E856A817D
:1033E0007B816C5F7F4FC8010E940F14CB016B0182
:1033F000672BC9F5CE010E94E6104C016D857E85D4
:10340000C8010E9419186B016115710509F45FCF9D
:10341000FB01848180688483F4E08F0E911CF601A7
:10342000978286824B2DB601CE010E94E718009745
:1034300021F6CE010E94870B009709F0BECF6DE701
:10344000CE010E94530B81111ECF6CE2CE010E946F
:10345000530B882309F458CFCE010E94870B0097A5
:1034600009F474CFAACF6D857E850E94430FF601C3
:10347000848180788483D6CFF801848180788660C7
:10348000848381E0808367E772E0CE01DF91CF9192
:103490001F910F91FF90EF90DF90CF90BF90AF9072
:1034A0009F908F900C94640BF801848180788660E3
:1034B000848310826CE772E0E8CFCE010E94390B62
:1034C0005E01FFE0AF0EB11CD12C9A2CCB2C8033C7
:1034D00074F08A3374F49FE3D91699F01C86D39460
:1034E000F50181935F01CE010E94390BF0CF8B3241
:1034F00091F393ED980F923070F3982F9F7D953450
:1035000051F3CD0DD11D1F86B801892D9C2D0E9430
:10351000E70B8111B8CEF8CE2F923F924F925F9277
:103520006F927F928F929F92AF92BF92CF92DF92D3
:10353000EF92FF920F931F93CF93DF93CDB7DEB738
:10354000C357D1090FB6F894DEBF0FBECDBF8E01B1
:10355000005B1F4F380125E0620E711C58018AE1A3
:10356000A80EB11C29E9222E22E0322E3CE9432E7E
:1035700032E0532E8FEE93E00E949808892B09F4D5
:10358000F1C18FEE93E00E947608D82E89831A82CB
:10359000E090CD04F090CE049FEFE91AF90AC7013C
:1035A0000E94AC17882399F02091C9043091CA0475
:1035B0008091CD049091CE04BE016F5F7F4F820F4A
:1035C000931F0E942E31F092CE04E092CD04EAE0E7
:1035D000DE12D0CF81E092E0F801918380831282E5
:1035E00014821382768A658A178A84E0808F8FEF2F
:1035F000818F168EE1961FAE1EAEE197E3961FAE49
:103600001EAEE397C090CD04D090CE04E090C904E4
:10361000F090CA0461E072E0C3010E94AB0EF801B1
:10362000128280809180F80183819481009751F00B
:10363000FC0120813181F80134832383B4010E948D
:10364000F00EF1CF168E1A8309831C821B821E8214
:103650001D821F82F986E886EC0CFD1CFB86EA863B
:103660001D861F870E874AE0B501CE0101960E9494
:10367000E7187C01892B51F48C85882339F0F801F7
:10368000868D83FF03C093E0E92EF12C8B819C8112
:10369000009731F0E981FA81608171810E94F00E1A
:1036A00090E080E00E94AC172091C9043091CA04D8
:1036B00081112CC02115310519F0C9010E94BB2FC1
:1036C0001092CA041092C9041092CE041092CD0434
:1036D0001092CC041092CB04E114F10409F182E8B9
:1036E00092E00E941113F701EE0FFF1FE35EFD4F02
:1036F00080819181009711F00E94111388E692E079
:103700000E941113C8010E94FA0E34CF1092CE0409
:103710001092CD046DE572E0C9010E942E31DCCF1C
:103720001A8309833C822B82CE0101960E94661483
:10373000E3966CAF7DAF8EAF9FAFE397CE0181591B
:103740009F4F0E94A90B811111C0E1968EAD9FADD4
:10375000E197009709F4C3C00E94330E6093FD0403
:103760007093FE048093FF04909300051A830983ED
:103770005C824B82CE0101960E946614E3966CAF88
:103780007DAF8EAF9FAFE397CE0181599F4F0E94CF
:10379000A90B811111C0E1968EAD9FADE197009705
:1037A00009F4A1C00E94330E6093010570930205D5
:1037B00080930305909304051A8309838FE992E0AF
:1037C0009C838B83CE0101960E946614E3966CAFB6
:1037D0007DAF8EAF9FAFE397CE0181599F4F0E947F
:1037E000A90B811111C0E1968EAD9FADE1970097B5
:1037F00009F47DC00E94330E6093050570930605A1
:1038000080930705909308051A83098382EA92E062
:103810009C838B83CE0101960E946614E3966CAF65
:103820007DAF8EAF9FAFE397CE0181599F4F0E942E
:10383000A90B811108C0E1968EAD9FADE19700976D
:1038400011F00E94CA0D1A83098384EA92E09C83D6
:103850008B83CE0101960E946614E3966CAF7DAF18
:103860008EAF9FAFE397CE0181599F4F0E94A90B66
:10387000811158C0F12CE12C6701E3968CAD9DAD10
:10388000AEADBFADE397FC01892B09F443C02481A1
:1038900026FF40C04D0125E1820E911C6081C401CC
:1038A0000E94960A0097B1F1FC01F581E496FFAF02
:1038B000E497009779F1C114D10451F1E4966FAD0A
:1038C000E497C4010E94960A009729F0FC01F58153
:1038D000E496FFAFE49721E0C21AD108EACF60E096
:1038E00070E0CB013BCF60E070E0CB015DCF60E0EA
:1038F00070E0CB0181CFA80166EA72E0C5010E94A9
:103900000F146115710549F1CB010E944E0D27C0BE
:103910000E94330E8FEFE81AF80A9AE0E916F104D4
:1039200009F0AACF1A83098386EA92E09C838B83ED
:10393000CE0101960E946614E3966CAF7DAF8EAF08
:103940009FAFE397CE0181599F4F0E94A90B811130
:10395000D9CEF801868D85FDCECF90E080E00E9423
:103960001E13D0CECD58DF4F0FB6F894DEBF0FBE7A
:10397000CDBFDF91CF911F910F91FF90EF90DF901E
:10398000CF90BF90AF909F908F907F906F905F90FF
:103990004F903F902F9008950E94A40881110E949B
:1039A0008C1A80E090E0892B49F080E090E0892B30
:1039B00029F00E94000081110E94000080E090E048
:1039C000892B49F080E090E0892B29F00E940000CB
:1039D00081110E94000080E090E0892B49F080E096
:1039E00090E0892B29F00E94000081110C940000C6
:1039F0000895EF92FF920F931F93CF93DF93FC01F3
:103A0000E080F1808701065E1F4F21F1C281D381E2
:103A1000209751F1F701868D982F9F7719F58078BF
:103A20008062868F8FEF828F838FA701BE01C801CE
:103A30000E940F14FB01309761F4B701C8010E9486
:103A40001918FB01309729F084818F778483D783FD
:103A5000C6838F01C801DF91CF911F910F91FF9015
:103A6000EF90089585FDE1CF10E000E0F3CFAF9235
:103A7000BF92CF92DF92EF92FF920F931F93CF935B
:103A8000DF938C017B01DC01AD90BC900E94F91C9E
:103A9000EC01009781F0F701C080D180E280F380D3
:103AA000B5010E94430F8C8180788C608C83C88222
:103AB000D982EA82FB82D801ED91FC9180E03097B7
:103AC00019F0828191E08927DF91CF911F910F91A9
:103AD000FF90EF90DF90CF90BF90AF9008951F922E
:103AE0000F920FB60F9211240BB60F922F933F93A4
:103AF0004F935F936F937F938F939F93AF93BF93F6
:103B0000EF93FF938091B900887F803609F44DC010
:103B100008F040C0883209F4A9C028F5803109F4C2
:103B20009DC0C8F4882309F4FBC0883009F496C00E
:103B3000FF91EF91BF91AF919F918F917F916F9185
:103B40005F914F913F912F910F900BBE0F900FBE41
:103B50000F901F901895883109F488C0803241F782
:103B60008093B70314C0803409F49DC040F48033BF
:103B7000B9F38833E9F68093B70385ECB0C080359C
:103B800009F485C0883509F496C0883489F60E9406
:103B9000DE17CECF883909F48CC038F5883729F084
:103BA00050F4883611F0803719F683E08093B9031A
:103BB00010926C0357C0883809F47BC0803919F023
:103BC000803809F0B5CF80916C03803208F071C065
:103BD000E0916C0381E08E0F80936C038091BB00B9
:103BE000F0E0E45BFC4F80833DC0803B39F0E0F4C3
:103BF000803A09F479C0883A09F09ACF84E080933A
:103C0000B90310924B0310924A03E0918D03F09197
:103C10008E03199580914A0381110FC081E0809332
:103C20004A0310922A0309C0803C09F4A6CF883CBD
:103C300009F4A3CF883B09F07BCFE0914B0381E0EF
:103C40008E0F80934B03F0E0E65DFC4F8081809304
:103C5000BB0090914B0380914A0329C0809194034B
:103C60008093BB0085EC8093BC0062CF9091B6033B
:103C70008091B503981758F5E091B60381E08E0F57
:103C80008093B603F0E0EB56FC4F8081E9CFE091E2
:103C9000B60381E08E0F8093B6038091BB00F0E005
:103CA000EB56FC4F80839091B6038091B503981733
:103CB000C8F285E8D8CFE091B60381E08E0F8093FB
:103CC000B6038091BB00F0E0EB56FC4F80838091FF
:103CD000B80381115CCF81E08093930384EA8093E1
:103CE000BC001092B90324CF85EC8093BC001092E5
:103CF000B90380916C03803230F4E0916C03F0E002
:103D0000E45BFC4F108260916C0370E0E0918F03E4
:103D1000F09190038CE493E0199510926C0308CF16
:103D20001092B70334CF1F920F920FB60F92112447
:103D30002F933F938F939F93AF93BF9380912103D2
:103D400090912203A0912303B0912403309120038A
:103D500023E0230F2D3758F50196A11DB11D2093A7
:103D600020038093210390932203A0932303B09315
:103D700024038091250390912603A0912703B091FD
:103D800028030196A11DB11D80932503909326035E
:103D9000A0932703B0932803BF91AF919F918F9178
:103DA0003F912F910F900FBE0F901F90189526E80E
:103DB000230F0296A11DB11DD2CF1F920F920FB6F5
:103DC0000F9211240BB60F922F933F934F935F9353
:103DD0006F937F938F939F93AF93BF93EF93FF93D3
:103DE00080910D0390910E03A0910F03B0911003E9
:103DF000892B8A2B8B2BD1F190910C0380910000A1
:103E000089278093000080910D0390910E03A0916B
:103E10000F03B0911003181619061A061B069CF41E
:103E200080910D0390910E03A0910F03B0911003A8
:103E30000197A109B10980930D0390930E03A093FC
:103E40000F03B0931003FF91EF91BF91AF919F913A
:103E50008F917F916F915F914F913F912F910F9033
:103E60000BBE0F900FBE0F901F901895809100020F
:103E7000EAE6F2E0E4919FEF90930002E230E9F08D
:103E800040F4EE2389F0E13091F060E00E943604C6
:103E9000DACFE43049F110F1E530B9F790917300D1
:103EA0009D7F90937300F1CF10926E00EECF9091B2
:103EB0006F009D7F90936F00E8CF909170009D7F81
:103EC0009093700091E09093B0009091B100987F32
:103ED00094609093B1001092B300D7CF909171008D
:103EE0009D7F90937100D1CF909172009D7F9093B0
:103EF0007200CBCF1F920F920FB60F9211240BB608
:103F00000F922F933F934F935F936F937F938F9372
:103F10009F93AF93BF93EF93FF938FEE93E00E9435
:103F2000AE08FF91EF91BF91AF919F918F917F91DB
:103F30006F915F914F913F912F910F900BBE0F901A
:103F40000FBE0F901F9018951F920F920FB60F92F1
:103F500011240BB60F922F938F939F93EF93FF93A0
:103F6000E091FF03F09100048081E0910504F0915D
:103F7000060482FD1DC09081809108048F5F8F73BD
:103F800020910904821741F0E0910804F0E0E1512A
:103F9000FC4F958F80930804FF91EF919F918F9133
:103FA0002F910F900BBE0F900FBE0F901F90189582
:103FB0008081F2CF1F920F920FB60F9211240BB691
:103FC0000F922F933F934F935F936F937F938F93B2
:103FD0009F93AF93BF93CF93DF93EF93FF93809122
:103FE0000B03C091C804D0E087FF23C01092850066
:103FF0001092840080910B038F5F80930B0380915C
:104000000B03082E000C990B8C179D0724F480914C
:104010000B038C3074F1809184009091850084347E
:104020009C4908F465C080918400909185000496B5
:1040300061C080910B03082E000C990B8C179D0713
:10404000CCF630910B0325E03203F0011124E45744
:10405000FB4F808186FFCECF30910B033203F001FE
:104060001124E457FB4F808160E08F730E94360477
:10407000C1CF809184009091850030910B0325E0A1
:104080003203F0011124E457FB4F41815281840F28
:10409000951F909389008093880030910B03320321
:1040A000F0011124E457FB4F808186FF0CC0309152
:1040B0000B033203F0011124E457FB4F808161E0D0
:1040C0008F730E943604FF91EF91DF91CF91BF91E2
:1040D000AF919F918F917F916F915F914F913F91A0
:1040E0002F910F900BBE0F900FBE0F901F90189541
:1040F00080E49CE990938900809388008FEF8093FF
:104100000B03E1CF1092E6031092E50388EE93E0F3
:10411000A0E0B0E08093E7039093E803A093E90365
:10412000B093EA032DE232E03093E4032093E303FB
:104130001092F2031092F1038093F3039093F4032F
:10414000A093F503B093F6038FE392E09093F0030E
:104150008093EF0385EC90E09093FC038093FB0346
:1041600084EC90E09093FE038093FD0380EC90E05C
:10417000909300048093FF0381EC90E090930204FD
:104180008093010482EC90E09093040480930304F4
:1041900086EC90E090930604809305041092080446
:1041A0001092090410920A0410920B048CE0809380
:1041B0003A0584E280933B0585E080933C0596E0D8
:1041C00090933D059EE190933E059FE190933F05BE
:1041D00092E29093400593E29093410594E490938A
:1041E000420595E4909343051092450510924405CD
:1041F00090E49093470510924C0510924D05109253
:104200004E0510924F0510925005109251051092D4
:1042100052051092530598E0EBE0F2E0ACE5B5E012
:1042200001900D929A95E1F740E050E060EA70E469
:104230004093640550936505609366057093670528
:10424000E091C804EC3008F0FCC091E09E0F909320
:10425000C804E09339058E9FF0011124E457FB4F09
:1042600088EB9BE0928381831092FD041092FE0400
:104270001092FF04109200051092010510920205A1
:104280001092030510920405109205051092060580
:10429000109207051092080510920A051092090560
:1042A00010920C0510920B0510920E0510920D0540
:1042B00010920F0510921005109211051092120520
:1042C00010921305109214051092210510922205E8
:1042D00010922305109224051092250510922605B0
:1042E000109227051092280580E090E0A0EAB0E443
:1042F0008093290590932A05A0932B05B0932C0554
:1043000080E090E0A8ECB2E480932D0590932E0518
:10431000A0932F05B093300510923105109232050D
:10432000109233051092340510923505109236051F
:10433000109237051092380584EE9BECA6E1B0ECA4
:104340008093EF049093F004A093F104B093F204EF
:1043500084EE9BECA6E1B0E48093F3049093F40424
:10436000A093F504B093F60483E591E0A2EDB8E3E1
:104370008093CF049093D004A093D104B093D2043F
:104380001092D3041092D4041092D5041092D60443
:104390001092D7041092D8041092D9041092DA0423
:1043A0001092DB041092DC041092DD041092DE0403
:1043B0001092DF041092E0041092E1041092E204E3
:1043C0001092E3041092E4041092E5041092E604C3
:1043D0001092E7041092E8041092E9041092EA04A3
:1043E0001092EB041092EC041092ED041092EE0483
:1043F0001092CA041092C9041092CC041092CB04FB
:104400001092CE041092CD0490E080E00E94AC1790
:104410002091C9043091CA04811117C021153105BA
:1044200019F0C9010E94BB2F1092CA041092C9044E
:104430001092CE041092CD041092CC041092CB04B2
:1044400008958FEF809339050FCF1092CE0410920C
:10445000CD046DE572E0C9010C942E31CF93DF934A
:10446000CDB7DEB7CE54D1090FB6F894DEBF0FBE7C
:10447000CDBF789484B5826084BD84B5816084BDED
:1044800085B5826085BD85B5816085BD80916E00F2
:10449000816080936E001092810080918100826023
:1044A0008093810080918100816080938100809160
:1044B00080008160809380008091B100846080934F
:1044C000B1008091B00081608093B0008091910034
:1044D000826080939100809191008160809391002F
:1044E000809190008160809390008091A100826013
:1044F0008093A1008091A10081608093A1008091B0
:10450000A00081608093A00080912101826080934F
:1045100021018091210181608093210180912001FE
:1045200081608093200180917A00846080937A007A
:1045300080917A00826080937A0080917A00816015
:1045400080937A0080917A00806880937A0010923C
:10455000C100E091FF03F091000482E08083E091CC
:10456000FB03F091FC031082E091FD03F091FE0348
:1045700080E1808310920704E0910304F091040429
:1045800086E08083E0910104F091020480818061E3
:104590008083E0910104F09102048081886080832F
:1045A000E0910104F0910204808180688083E091B1
:1045B0000104F091020480818F7D808361E080910D
:1045C0003B050E94BE0460E080913B050E943604DA
:1045D00060E080913A050E94BE048091440590916C
:1045E0004505892BA9F486E090E00E941F2FFC016D
:1045F00080914705808383EE93E0928381831382C9
:1046000080E290E095838483F0934505E093440530
:10461000E0904405F09045051092920310929103AA
:104620001092C0031092E2030E947F0487EF92E091
:1046300090938E0380938D0388EF92E09093900384
:1046400080938F0311E0D70113961C93C7010E943A
:10465000F207882309F45BC080E090E1A0E0B0E0BD
:104660008093480590934905A0934A05B0934B0564
:104670008AE090E0A0E0B0E080934C0590934D0577
:10468000A0934E05B0934F0580E090E0A0E0B0E429
:104690008093500590935105A0935205B093530514
:1046A00080914405909145051FA618AA19AA1AAA37
:1046B00099A388A31BA21AA219A785E090E09FA343
:1046C0008EA31AA702E008A740E050E160E070E086
:1046D000CE0180960E945A0780914405909145052D
:1046E000188A198A1A8A1B8A9A8389831C821B82D8
:1046F0001A8718861F821B8709874FE959E360E0F4
:1047000070E0CE0101960E945A07809346055CE353
:10471000E52E55E0F52E0AE315E06EEE662E62E01A
:10472000762E74E3872E73E0972EEBECCE2EE7E027
:10473000DE2EF7019281D7018D917D01F801828FE4
:10474000938F61E00E94BE0461E0D8015B968C917A
:104750000E94BE045801BEE1AB0EB11CF701958169
:104760008381D8015E968C935E975F969C9361E0FF
:104770000E94BE0460E0F801878D0E94BE0461E0E3
:10478000D8015E968C910E9436045FB6F8948091B1
:104790001103811125C0F3018491F4019491E82F54
:1047A000F0E0EE0FFF1FE559FD4FA591B4918C91FC
:1047B000982321F461E085E30E94360461E085E3FB
:1047C0000E94BE048CB580618CBD8CB580648CBDAC
:1047D00061E084E30E94BE0461E083E30E94BE04C2
:1047E000809111038F5F809311035FBEC601019713
:1047F000F1F760E0D8015E968C910E94360488E85B
:104800000E94640A83E00E94640A61E0F801868DD8
:104810000E943604C6010197F1F7C5010E946B0A98
:104820000E5F1F4FF5E00E331F0709F082CF60E0E7
:104830008DE30E94BE0460E080E10E94BE0460E05F
:104840008EE00E94BE0460E081E10E94BE0460E050
:104850008FE00E94BE0461E080E20E94BE040E94DC
:10486000E1028C01C090EF04D090F004E090F104DC
:10487000F090F204A70196016091F3047091F404A2
:104880008091F5049091F6040E94212D4B015C016A
:10489000B801110F880B990B0E94A32B9B01AC014F
:1048A000C501B4010E94022C20E030EC4FE754E433
:1048B0000E948E2DA70196010E94222D0E94002E9B
:1048C0007093F8046093F70480E090E0A0E8B0E40F
:1048D0008093FD049093FE04A093FF04B093000521
:1048E00080E090E0A0E0B0E48093010590930205A1
:1048F000A0930305B09304058DEC9CECACECBDE3F8
:104900008093050590930605A0930705B0930805CD
:104910001092290510922A0510922B0510922C0551
:1049200089E190E0A0E0B0E08093190590931A052A
:10493000A0931B05B0931C058DEC9CECACECBCE388
:104940008093150590931605A0931705B09318054D
:1049500086EB9BE090930A05809309058AE093E13A
:1049600090930C0580930B05CE0141962A969FAF3C
:104970008EAF2A970E94E1022091F9043091FA0447
:104980003093FC042093FB049093FA048093F90481
:1049900060E080915A050E94360480E60E94640A15
:1049A0008E010F5F1F4F7801480180E00E94640A6A
:1049B00090E0B0E0A0E0F70181939193A193B193CF
:1049C0007F012A968EAD9FAD2A978E179F0769F7B4
:1049D00061E080915A050E943604412C512C32012D
:1049E000F80181919191A191B1918F01762C652C63
:1049F000542C4424480E591E6A1E7B1EEE16FF06D8
:104A000079F72090D7043090D804B091D904A091C0
:104A1000DA04F091DB04E091DC042091DD042B96B4
:104A20002FAF2B978091DE042F968FAF2F97910198
:104A30004B2F5A2F6F2F7E2F2B968FAD2B972F96A4
:104A40009FAD2F97A090DF04B090E004C090E104E8
:104A5000D090E204E090E304F090E4040091E504D7
:104A60001091E6040E94182D2093E7043093E80487
:104A70004093E9045093EA046093EB047093EC04D0
:104A80008093ED049093EE042092DF043092E004D2
:104A9000B093E104A093E204F093E304E093E40410
:104AA0002B96AFAD2B97A093E5042F96BFAD2F9714
:104AB000B093E6047094609450944094411C511C4F
:104AC000611C711CD301C201BB0F880B982FDC0144
:104AD0004092D7045092D8046092D9047092DA04BC
:104AE0008093DB048093DC048093DD048093DE04F8
:104AF0000E942B0800911C0310911D0320911E039E
:104B000030911F03601B710B820B930B6931710590
:104B10008105910508F40DC58EE00E940D04892BD6
:104B200021F088E090E00E941E1380E10E940D04B5
:104B3000892B21F087E090E00E941E1381E10E9402
:104B40000D04892BD9F089E090E00E941E13E091BA
:104B50001A03F0911B033197E830F10508F00FC1FB
:104B60008827EA54FA4D8F4F0C94102DC42519262E
:104B700059268D26D726E5260727FC268FE00E949A
:104B80000D04892B01F7E3CF0E9465026B017C01C4
:104B900020E030E0A9010E948A2E1816DCF42AE0F9
:104BA00037ED43EA5BE3C701B6010E949C2B87FD0A
:104BB0001BC00E9418022DEC3CEC4CEC5DE30E9403
:104BC000022C60930F05709310058093110590934C
:104BD000120594C12AE037ED43EA5BEBC701B60149
:104BE0000E948A2E18162CF70E9418026B017C0175
:104BF00020E030E0A9010E948A2E18167CF42DECEA
:104C00003CEC4CE45DE3C701B6010E949C2B87FF9E
:104C1000D0CF86E090E00E941E13B1C02DEC3CEC9A
:104C20004CE45DEBC701B6010E948A2E18168CF386
:104C3000C0CF0E94FB012FEF3FEF4FEB5EE30E94DE
:104C4000212D6B017C0120E030E0A9010E948A2E19
:104C500018166CF42AE037ED43E25CE3C701B601B5
:104C60000E949C2B87FF0DC090E080E0D4CF2AE00B
:104C700037ED43E25CEBC701B6010E948A2E18169D
:104C80009CF30E94FB012FEF3FEF4FEB5EE30E948E
:104C90009C2B4DEC5CEC6CEC7DE387FD04C04DEC93
:104CA0005CEC6CEC7DEB705886E595E00E943D096C
:104CB00025C10E942B080091160310911703209123
:104CC000180330911903601B710B820B930B693E23
:104CD00073408105910540F640E050E060E070E8E7
:104CE00086E595E00E943D090E942B08009116037D
:104CF000109117032091180330911903601B710B59
:104D0000820B930B643F71408105910508F014C438
:104D100060E080E20E943604F1C0E0900302F0906F
:104D2000040200911403109115030E9418020E153D
:104D30001F0564F02AE939E949E95EE30E948A2EF9
:104D4000181624F485E090E00E941E130E941802B9
:104D50002AE939E949E95FE30E948A2E18167CF4B2
:104D60008091030290910402019649F4809114030A
:104D70009091150302969093040280930302E091B0
:104D80001A03F0911B03EA30F10508F0B7C0882739
:104D9000E353F94D8F4F0C94102DA22AD9254126AB
:104DA0006C261227A72A9E2A0D270227B42A0E94C2
:104DB000FB0120E030E040E85FE30E948A2E1816F5
:104DC0000CF0C5C381E090E026CF0E942B08009133
:104DD0001603109117032091180330911903601BDB
:104DE000710B820B930B693C71058105910508F4E9
:104DF000A5C382E090E00FCF8EE00E940D04892BC6
:104E000009F432CF4DEC5CEC6CEC7DE34DCF80E1EE
:104E10000E940D04892B09F427CF4DEC5CEC6CEC5F
:104E20007DEB42CF0E942B080091160310911703CF
:104E30002091180330911903601B710B820B930BA7
:104E40000E94A12B20E030E04AE754E40E948E2D1E
:104E50006B017C0128EB3EE145E850E40E94022C06
:104E60000E948F2E9B01AC01C701B6010E94022C4B
:104E700020E030E048EC52E40E948E2D6B017C0172
:104E800020E030E0A9010E949C2B0FEF1FEF87FD6F
:104E900002C001E010E0809112039091130380178B
:104EA000910769F010931303009312038091140388
:104EB00090911503019690931503809314030E941B
:104EC000FB0129E939E949ED5EE30E948A2E1816B3
:104ED0006CF40F3F1F4F51F42FE832EC45EF5CE3C9
:104EE000C701B6010E94212D6B017C01C0920F0504
:104EF000D0921005E0921105F09212050E942B0845
:104F0000009121051091220520912305309124055F
:104F1000601771078207930708F45BC0809113053F
:104F2000882309F456C00E942B080091190510919E
:104F30001A0520911B0530911C05DC01CB01800F67
:104F4000911FA21FB31F8093210590932205A09368
:104F50002305B0932405C0900F05D0901005E09074
:104F60001105F0901205E0910905F0910A051995D7
:104F70009B01AC01C701B6010E94212D6B017C0190
:104F80009F772091290530912A0540912B0550915A
:104F90002C050E949C2B87FFF4C281E080931405AE
:104FA00010921305E0910D05F0910E05309709F070
:104FB00019958091210590912205A0912305B0912A
:104FC00024058093250590932605A0932705B0938B
:104FD000280581E092E09A8389831B821D821C82CE
:104FE000A6E0B0E0AC0FBD1FBF8BAE8B188E84E087
:104FF000898F8FEF8A8F1F8E0E942B086B017C0197
:1050000088A299A2EEEDF2E0FBA3EAA3CE0180967E
:105010000E94F91C8C01009781F0B4010E94430F9B
:10502000D80114968C9114978078886014968C938C
:10503000F801C082D182E282F382E0901A03F090FC
:105040001B0388A299A286EA92E09BA38AA3CE01C1
:1050500080960E94F91C8C010097A1F0B4010E9477
:10506000430FD80114968C91149780788A60149617
:105070008C93C701FF0CAA0BBB0BF80180839183B3
:10508000A283B3838091FD049091FE04A091FF045C
:10509000B091000588A399A3AAA3BBA38BAA9CAA3D
:1050A00089E992E09EAB8DABBE01605E7F4FCE0181
:1050B000C3960E94371D8091010590910205A09131
:1050C0000305B091040588A399A3AAA3BBA38BAA47
:1050D0009CAA8CE992E09EAB8DABBE01605E7F4FD7
:1050E000CE01C3960E94371D80910505909106055B
:1050F000A0910705B091080588A399A3AAA3BBA313
:105100008BAA9CAA8FE992E09EAB8DABBE01605E3C
:105110007F4FCE01C3960E94371D80910F0590915D
:105120001005A0911105B091120588A399A3AAA317
:10513000BBA38BAA9CAA88EA92E09EAB8DABBE0172
:10514000605E7F4FCE01C3960E94371D0E94FB0117
:1051500068A379A38AA39BA38BAA9CAA8CEA92E05A
:105160009EAB8DABBE01605E7F4FCE01C3960E94A9
:10517000371D2091D7043091D8044091D904509123
:10518000DA046091DB047091DC048091DD0490917D
:10519000DE04A090DF04B090E004C090E104D09061
:1051A000E204E090E304F090E4040091E50410913F
:1051B000E6040E94182D0E94362E2091CF043091D3
:1051C000D0044091D1045091D2040E94022C68A3D3
:1051D00079A38AA39BA38BAA9CAA8BEA92E09EAB9D
:1051E0008DABBE01605E7F4FCE01C3960E94371D1E
:1051F0002091D7043091D8044091D9045091DA0419
:105200006091DB047091DC048091DD049091DE04F8
:10521000A090DF04B090E004C090E104D090E204DC
:10522000E090E304F090E4040091E5041091E604BA
:105230000E94182DA090E704B090E804C090E90403
:10524000D090EA04E090EB04F090EC040091ED04BF
:105250001091EE040E94182D0E94362E2091CF044A
:105260003091D0044091D1045091D2040E94022C7C
:1052700068A379A38AA39BA38BAA9CAA8AEA92E03B
:105280009EAB8DABBE01605E7F4FCE01C3960E9488
:10529000371D0E94180268A379A38AA39BA38BAA37
:1052A0009CAA8FEA92E09EAB8DABBE01605E7F4F01
:1052B000CE01C3960E94371D0E94650268A379A3A0
:1052C0008AA39BA38BAA9CAA8EEA92E09EAB8DAB8D
:1052D000BE01605E7F4FCE01C3960E94371DF090E5
:1052E000140588A299A286EB92E09BA38AA3CE0123
:1052F00080960E94F91C8C01009769F0B4010E940D
:10530000430FD80114968C91149780788660149678
:105310008C931497FC9280914405909145051FA6AB
:1053200018AA19AA1AAA99A388A31BA21AA211E063
:1053300019A782E090E09FA38EA31AA702E008A716
:10534000BE016D5C7F4FCE0180960E945411809308
:105350004605EBA8FCA883E0F694E7948A95E1F76C
:10536000EE0CFF1CEE0CFF1C80914405909145054E
:105370001FA618AA19AA1AAA99A388A31BA21AA23F
:1053800019A781E090E09FA38EA31AA708A7BE01EA
:105390006D5C7F4FCE0180960E945411809346052C
:1053A0006BA97CA9072E000C880B990B0E94A32BDC
:1053B0002AE037ED43E25CE30E94022C20E030E07B
:1053C0004AE754E40E948E2D2B013C01B701FF0CEB
:1053D000880B990B0E94A32B2FE632E143E85AE396
:1053E0000E94022C9B01AC01C301B2010E94222D3C
:1053F00068A379A38AA39BA38BAA9CAA81EB92E0C2
:105400009EAB8DABBE01605E7F4FCE01C3960E9406
:10541000371D809144059091450526961CAE1DAE22
:105420001EAE1FAE26979CAB8BAB1EAA1DAA1CAF4F
:1054300085E090E09AAF89AF1DAF0BAF4091480572
:105440005091490560914A0570914B05CE01C39674
:105450000E945A0780914405909145051FA618AAFD
:1054600019AA1AAA99A388A31BA21AA219A784E0B1
:1054700090E09FA38EA31AA708A7BE016A5B7F4F87
:10548000CE0180960E9454118093460528966EADF9
:105490007FAD2897072E000C880B990B0E94A32B39
:1054A0006B017C0160914C0570914D0580914E051A
:1054B00090914F050E94A12B9B01AC01C701B60141
:1054C0000E948E2D20E030E04AE754E40E948E2DA9
:1054D00068A379A38AA39BA38BAA9CAA83EB92E0DF
:1054E0009EAB8DABBE01605E7F4FCE01C3960E9426
:1054F000371D8FEE93E099A388A31BA21AA28CA25A
:105500009DA2BE01605E7F4FCE014B960E94CE14DD
:1055100088E692E00E941113C4010E94FA0E0E94D4
:105520002B0860931C0370931D0380931E039093BC
:105530001F030E94CC1C1ECA61E0EBCB60E080E23E
:105540000E94360440E050E060E070E8ADCB8DECA6
:105550009CECACE4BEE380930F0590931005A09300
:105560001105B0931205CACC40E050E060E070E84D
:1055700086E595E00E943D098AE595E00E946B0A68
:10558000BDCC00910B0510910C050E942B0840909A
:105590002505509026056090270570902805641910
:1055A00075098609970960931D0570931E05809300
:1055B0001F059093200520913105309132054091CF
:1055C000330550913405C701B6010E94222D609326
:1055D00031057093320580933305909334054090E4
:1055E0002D0550902E0560902F0570903005A30179
:1055F00092010E948A2E181644F44092310550926E
:105600003205609233057092340577FA709477F81A
:105610007094A301920160913105709132058091DF
:105620003305909134050E949C2B87FF08C040925F
:1056300031055092320560923305709234054090E6
:10564000150550901605609017057090180520916B
:105650003105309132054091330550913405609108
:1056600001057091020580910305909104050E9447
:10567000022CA30192010E94022C2E966CAF7DAFEA
:105680008EAF9FAF2E972091FD043091FE04409184
:10569000FF0450910005C701B6010E94022C9B0136
:1056A000AC012E966CAD7DAD8EAD9FAD2E970E9458
:1056B000222D2E966CAF7DAF8EAF9FAF2E9720918F
:1056C0003505309136054091370550913805C701B1
:1056D000B6010E94212D20910505309106054091CB
:1056E0000705509108050E94022CA30192010E9417
:1056F0008E2D9B01AC012E966CAD7DAD8EAD9FAD18
:105700002E970E94222DC0923505D0923605E09248
:105710003705F0923805F80119954BCC8091C904F2
:105720009091CA04009711F00E94BB2F809144050C
:10573000909145050C94BB2F0E94DE2B08F481E06C
:105740000895E89409C097FB3EF490958095709574
:1057500061957F4F8F4F9F4F9923A9F0F92F96E9BD
:10576000BB279395F695879577956795B795F11132
:10577000F8CFFAF4BB0F11F460FF1BC06F5F7F4FCF
:105780008F4F9F4F16C0882311F096E911C07723E1
:1057900021F09EE8872F762F05C0662371F096E8EA
:1057A000862F70E060E02AF09A95660F771F881FB9
:1057B000DAF7880F9695879597F90895990F00085D
:1057C000550FAA0BE0E8FEEF16161706E807F907D3
:1057D000C0F012161306E407F50798F0621B730B6E
:1057E000840B950B39F40A2661F0232B242B252BEF
:1057F00021F408950A2609F4A140A6958FEF811D92
:10580000811D08950E94152C0C94862C0E94782CE2
:1058100038F00E947F2C20F0952311F00C946F2C0F
:105820000C94752C11240C94BA2C0E94972C70F3B4
:10583000959FC1F3950F50E0551F629FF001729F35
:10584000BB27F00DB11D639FAA27F00DB11DAA1F44
:10585000649F6627B00DA11D661F829F2227B00D91
:10586000A11D621F739FB00DA11D621F839FA00D1C
:10587000611D221F749F3327A00D611D231F849F6C
:10588000600D211D822F762F6A2F11249F575040C3
:105890009AF0F1F088234AF0EE0FFF1FBB1F661F3E
:1058A000771F881F91505040A9F79E3F510580F007
:1058B0000C946F2C0C94BA2C5F3FE4F3983ED4F315
:1058C000869577956795B795F795E7959F5FC1F7AB
:1058D000FE2B880F911D9695879597F9089597F956
:1058E0009F6780E870E060E008959FEF80EC089586
:1058F00000240A94161617061806090608950024AF
:105900000A9412161306140605060895092E039428
:10591000000C11F4882352F0BB0F40F4BF2B11F49C
:1059200060FF04C06F5F7F4F8F4F9F4F089557FDFB
:105930009058440F551F59F05F3F71F04795880FFD
:1059400097FB991F61F09F3F79F087950895121694
:1059500013061406551FF2CF4695F1DF08C0161640
:1059600017061806991FF1CF8695710561050894F1
:105970000895E894BB2766277727CB0197F9089508
:105980000E94ED2CA59F900DB49F900DA49F800DBB
:10599000911D11240895A1E21A2EAA1BBB1BFD0123
:1059A0000DC0AA1FBB1FEE1FFF1FA217B307E407FE
:1059B000F50720F0A21BB30BE40BF50B661F771F56
:1059C000881F991F1A9469F7609570958095909536
:1059D0009B01AC01BD01CF010895A29FB001B39F0F
:1059E000C001A39F700D811D1124911DB29F700DE8
:1059F000811D1124911D0895AA1BBB1B51E107C0F5
:105A0000AA1FBB1FA617B70710F0A61BB70B881F4E
:105A1000991F5A95A9F780959095BC01CD010895DD
:105A2000EE0FFF1F881F8BBF0790F691E02D199492
:105A30002A193B094C095D096E097F09800B910BFE
:105A400008955058BB27AA270E94392D0C94862C04
:105A50000E94782C38F00E947F2C20F039F49F3F70
:105A600019F426F40C94752C0EF4E095E7FB0C94D5
:105A70006F2CE92F0E94972C58F3BA17620773070F
:105A80008407950720F079F4A6F50C94B92C0EF450
:105A9000E0950B2EBA2FA02D0B01B90190010C013E
:105AA000CA01A0011124FF27591B99F0593F50F456
:105AB000503E68F11A16F040A22F232F342F4427AE
:105AC000585FF3CF469537952795A795F0405395A6
:105AD000C9F77EF41F16BA0B620B730B840BBAF076
