:100000000C9494010C94C5010C94C5010C94C50189
:100010000C94C5010C94C5010C94C5010C94C50148
:100020000C94C5010C94C5010C94C5010C94C50138
:100030000C94C5010C94341E0C94C5010C94C5019C
:100040000C94C5010C94311F0C94C5010C94C5018E
:100050000C94C5010C94C5010C94C5010C94EA1DC7
:100060000C94C5010C94FB1E0C94D11E0C94C5017C
:100070000C94C5010C94C5010C94C5010C94C501E8
:100080000C94C5010C94C5010C94C5010C94C501D8
:100090000C94C5010C94C5010C94C5010C94C61CAC
:1000A0000C94C5010C94C5010C94C5010C94C501B8
:1000B0000C94C5010C94C5010C94C5010C94C501A8
:1000C0000C94C5010C94C5010C94C5010C94C50198
:1000D0000C94C5010C94C5010C94C5010C94C50188
:1000E0000C94C5010C9474090C9405030C949A03A8
:1000F0000C948A080C94EF080C949E030C94B6029E
:100100000C94B7280C9485290C94290A0C94AC0AF9
:100110000C94B2280C94D8020C946B0A0C944F0ADD
:100120000C947F030C948A030C943D0A0C94470AA8
:100130000C9483030C948E0A0C94FF260C94722862
:100140000C94BB080C94B6030C94570A0C94BC286E
:100150000C94A2030C94AC030C94980A0C947B03AB
:100160000C9474170C949E280C948C020C946403C9
:100170000C9471170C94BE080C94750A0C94B5027B
:100180000C94A8030C94BA030C9471130C94840A75
:100190000C943F280C9427090C94D91F0C941D0231
:1001A0000C94130A0C94E1080C9494030C948F287B
:1001B0000C94CD080C94C21C0C9469030C94330A63
:1001C0000C94B0030C94B60A0C948D020C94240A7F
:1001D0000C94A20A0C94C5020C9487030C94610A37
:1001E0000C948E080C9490030C94A628CDCCCC3D96
:1001F0000AD7233C17B7D13877CC2B329595E62414
:100200001FB14F0A000020410000C84200401C46B8
:1002100020BCBE4CCA1B0E5AAEC59D740200002104
:1002200000240027002A002D0030003300010100C7
:1002300000040107010A0100002200250028002B0C
:10024000002E003100340002010000050108010BFE
:100250000105050505070508080808020202020A4B
:100260000A08080404040401010101010101010359
:1002700003030303030303040707070C0C0C0C0C14
:100280000C0C0C0202020206060606060606060B07
:100290000B0B0B0B0B0B0B0102102020080810207E
:1002A0004010204080020102010804020101020402
:1002B00008102040808040201008040201800402C1
:1002C0000180402010080402010804020101020418
:1002D0000810204080010204081020408000000A1D
:1002E0000B02090C0D0E08070304010000000000BA
:1002F00000000000000000000000000000000000FE
:1003000000000000000000000012111000000000BA
:1003100000000000000000000000000000000000DD
:1003200000000000D91F852911241FBECFEFD1E2A4
:10033000DEBFCDBF00E00CBF13E0A0E0B2E0E8EC10
:10034000FDE500E00BBF02C007900D92AA33B10794
:10035000D9F725E0AAE3B3E001C01D92A83CB2079B
:10036000E1F711E0C3E9D1E000E006C021970109FF
:10037000802FFE010E94322BC239D10780E008078E
:10038000A9F70E9450210C94D22E0C940000CF9219
:10039000DF92EF92FF920F931F93CF93DF93EC01C5
:1003A0000DE315E0F80160817181828193810E94E3
:1003B000302C6B017C01F801648175818681978105
:1003C0000E94302C9B01AC012C193D094E095F099C
:1003D000DE010E94D92A2FEF33E040E050E00E9476
:1003E000AF2ACA01B9016C0D7D1D8E1D9F1D0E9493
:1003F0009229DF91CF911F910F91FF90EF90DF90A5
:10040000CF900895CF93DF93EC0188819981DC012F
:10041000ED91FC910190F081E02D64E270E019957E
:10042000009741F02FE1FC01238321E02283DF913B
:10043000CF91089521E02A83FACF8091D70390913C
:10044000D803891B990B089580917B00877F809347
:100450007B0087E480937C0080917A0080648093A5
:100460007A0080917A0086FDFCCF8091780090918F
:1004700079000895CF92DF92EF92FF92CF93DF93AE
:10048000C0914905CC3008F040C025E0C29FE00192
:100490001124CE50DB4F2B8138E8C32ED12CC21A49
:1004A000D10827FDD394CC0CDD1CCC0CDD1C0D2C0D
:1004B000000CEE08FF084C8128E532E0241B3109CE
:1004C00047FD3395220F331F220F331F032E000CDD
:1004D000440B550B2C193D094E095F09DC010E94A4
:1004E000D92A24EB30E040E050E00E94AF2AC20E4F
:1004F000D31EE41EF51E8FB7F89496E0C91AD108F2
:10050000CC0CDD1CDA82C9828FBFDF91CF91FF90C6
:10051000EF90DF90CF900895089508952091B00353
:10052000260F3327331F21323105ECF420911F04AD
:10053000FC0190E080E0243069F082E00895A09111
:10054000B0032191AC0140575C4FA40FB52FB11DF2
:100550002C930196861798F38091B003680F6093EF
:10056000B00380E0089581E008950895E091D803F4
:100570008091D703E81730F4F0E0E752FC4F808118
:1005800090E008958FEF9FEF08959091D8038091A8
:10059000D7032FEF3FEF981748F4E92FF0E0E75229
:1005A000FC4F208130E09F5F9093D803C9010895EC
:1005B000CF92DF92EF92FF920F931F93CF93DF932F
:1005C0007C01CB018A0120912504222389F0EB01D3
:1005D0006B01C40ED51ECC15DD0569F06991D701FC
:1005E000ED91FC910190F081E02DC7011995F3CFB9
:1005F000642F0E948E02C801DF91CF911F910F914D
:10060000FF90EF90DF90CF900895CF93DF931F92EC
:10061000CDB7DEB76983209125042223F9F020911C
:100620004804203258F021E030E0FC01338322837B
:1006300090E080E00F90DF91CF91089580912604A3
:10064000E82FF0E0E95DFB4F998190838F5F809305
:1006500026048093480481E090E0ECCF61E0CE0175
:1006600001960E948E02F7CF282F30E0F901E35265
:10067000FD4F9491F901E956FD4F44912F5A3D4F9A
:10068000F9012491222309F435C0992311F19150E5
:100690009231F8F4E92FF0E08827EE5AFC4F8F4FA3
:1006A0000C94322B8303870364037B037F0369036A
:1006B0008A03900394039A039E03A203A803AC0346
:1006C0006903B003B603BA03809180008F778093EB
:1006D0008000E22FF0E0EE0FFF1FE95CFD4FA591D7
:1006E000B4918FB7F894EC91611148C040954E23B6
:1006F0004C938FBF0895809180008F7DE8CF8091CB
:100700008000877FE4CF84B58F7784BDE2CF84B546
:100710008F7DFBCF8091B0008F778093B000D9CFD1
:100720008091B0008F7DF9CF809190008F7780937A
:100730009000CFCF809190008F7DF9CF8091900075
:10074000877FF5CF8091A0008F778093A000C1CFE5
:100750008091A0008F7DF9CF8091A000877FF5CF99
:10076000809120018F7780932001B3CF8091200169
:100770008F7DF9CF80912001877FF5CF4E2BB8CFA9
:10078000FC0183858F3F19F061E00C9434030895D8
:10079000FC0180819181892B39F0A281B3819C91E8
:1007A00011968C919CBD8DBD83858F3F19F060E0C3
:1007B0000C943403089510921F0481E080931E046A
:1007C0001092F90361E084E10E94340361E085E165
:1007D0000E943403E9EBF0E080818E7F808380818A
:1007E0008D7F808388E48093B80085E48093BC008B
:1007F0000895CF93DF9391E090938F038823B9F00E
:10080000C091B800D091BA008091BC008A7B8093DF
:10081000BC0060E084E10E94340360E085E10E9456
:1008200034030E94DB03D093BA00C093B800DF9179
:10083000CF910895CF93DF9390E0FC01E956FD4FEF
:1008400024918F5A9D4FFC0184918823D1F090E030
:10085000880F991FFC01E35EFD4FA591B491FC0147
:10086000E95CFD4FC591D49161110EC09FB7F8941A
:100870008C91E22FE0958E238C932881E223E883EC
:100880009FBFDF91CF9108958FB7F894EC91E22B41
:10089000EC938FBFF6CF8230910538F0880F991F07
:1008A000880F991F05970197F1F70895AF92BF92AE
:1008B000CF92DF92EF92FF920F931F93CF93DF932C
:1008C000EC0188819981892B89F06EBD0DB407FEFA
:1008D000FDCFBEB48B2DDF91CF911F910F91FF9073
:1008E000EF90DF90CF90BF90AF9008958885998565
:1008F00011E0892B09F010E8AA24A394862F812304
:1009000009F0A12C062F2C813D814E815F8160E290
:1009100071EA87E090E00E94E12AF22EB02EE12CED
:10092000C22ED12CFF2019F0C6010E944B048A85EB
:10093000877F09F042C08D858F3F89F0902F9123EA
:1009400081E009F480E08A1551F0EF85F8898F89FC
:10095000992369F19081892B8083AA24A394E98942
:10096000FA898081998D892B8083FF2019F0C60137
:100970000E944B048E858F3F39F0EB89FC89808182
:10098000988D892309F0E12AE989FA899081898D76
:100990008095892380838E858F3F09F0BE2C8885C2
:1009A0009985892BB9F5110F1111BCCF93CF908187
:1009B000809589238083A12CD2CFE989FA8980810F
:1009C000998D892B8083FF2019F0C6010E944B046A
:1009D0008D858F3F49F0EF85F8898F89902F91237E
:1009E000A9F09081892B8083E989FA899081898D8A
:1009F0008095892380838E858F3F69F2EB89FC89FE
:100A00008081988D892339F2E12AC5CF9081809524
:100A10008923E9CF1695C8CF8F929F92AF92BF924C
:100A2000CF92DF92EF92FF920F931F93CF93DF93BA
:100A30007C014B016A01B22EA32E0E94C803E4017F
:100A4000C80CD91CCC15DD0569F4CB2DDA2D0C0FA3
:100A50001D1FC017D10759F06FEFC7010E94560440
:100A60008993F7CF6991C7010E945604EBCFC70164
:100A70000E94C00381E0DF91CF911F910F91FF9001
:100A8000EF90DF90CF90BF90AF909F908F900895A0
:100A90008F929F92AF92BF92CF92DF92EF92FF928E
:100AA0000F931F93CF93DF937C01B62EA72E6A017D
:100AB00049010E94C803E401080D191DC017D107A0
:100AC00061F4CB2DDA2DCC0EDD1ECC15DD0551F0F9
:100AD0006991C7010E945604F8CF6991C7010E942D
:100AE0005604ECCFC7010E94C00381E0DF91CF9193
:100AF0001F910F91FF90EF90DF90CF90BF90AF903C
:100B00009F908F9008953FB7F89480918B039091B8
:100B10008C03A0918D03B0918E0326B5A89B05C0D0
:100B20002F3F19F00196A11DB11D3FBFBA2FA92F6C
:100B3000982F8827BC01CD01620F711D811D911D69
:100B400042E0660F771F881F991F4A95D1F70895D5
:100B50008F929F92AF92BF92CF92DF92EF92FF92CD
:100B60000F931F93CF93DF93D0914804D13208F0B5
:100B7000D7C0182FC09147040E9483056B017C01E8
:100B800080911F0481116BC082E080931F04109339
:100B90001E048FEF80931D0410921C04D0931B043D
:100BA000A7E2B4E0EBEFF3E080E0D81391C010923D
:100BB000FA038091FA03CC0FC82BC093FA038091FB
:100BC000F903813009F088C01092F9030E9483056F
:100BD0006B017C018091FA038093BB00809121041A
:100BE00090912204A0912304B0912404892B8A2B94
:100BF0008B2BA1F00E948305009121041091220407
:100C000020912304309124046C197D098E099F09D9
:100C1000061717072807390708F442C08091BC005F
:100C200083FDD8CF85EC8093BC000E9483056B01C7
:100C30007C0180911F04823009F450C080911D0412
:100C40008F3F09F46FC080911D04803209F46CC09D
:100C500080911D04803309F469C084E026C080912E
:100C6000210490912204A0912304B0912404892BA3
:100C70008A2B8B2B09F484CF0E948305809021045A
:100C800090902204A0902304B09024046C197D0954
:100C90008E099F0986169706A806B90608F070CF38
:100CA000809120040E94F90385E01092260410929E
:100CB000480410922504DF91CF911F910F91FF906E
:100CC000EF90DF90CF90BF90AF909F908F9008955E
:100CD0009D9191938F5F69CF85EEA5CF809121047F
:100CE00090912204A0912304B0912404892B8A2B93
:100CF0008B2B09F49ECF0E94830500912104109153
:100D0000220420912304309124046C197D098E095A
:100D10009F09061717072807390708F08ACFC0CFA1
:100D200081E0C3CF80E0C1CF82E0BFCF83E0BDCF01
:100D3000CF93DF93EC018B818823A1F0888191E030
:100D4000909325048093470410922604109248043F
:100D500081E00E94A80591E0811190E0892FDF9148
:100D6000CF9108951092D8031092D70310922604C1
:100D7000109248040E94DB038CE892E09093D40325
:100D80008093D3038DE892E09093D6038093D503AC
:100D900081E08B83CE010E949806982F8111CECFDF
:100DA000DDCFCF93DF93EA0191E090932504809308
:100DB0004704109226041092480489E494E00E94AB
:100DC0000503688189E494E00E94050381E00E94A4
:100DD000A80591E0811190E0892FDF91CF910895CE
:100DE0001F93CF93DF93EA01122FDC0111968D91AF
:100DF0009C91DC01ED91FC910280F381E02D19952D
:100E0000C817D90729F4812F0E94A80591E0811104
:100E100090E0892FDF91CF911F910895CF92DF92BB
:100E2000EF92FF920F931F93CF93DF931F921F9226
:100E3000CDB7DEB7FC014787508B618B728B828503
:100E4000882371F14487452F562F672F77278823F2
:100E500049F143877F018BE0E80EF11C9681878181
:100E600099838A83C080D180C114D10409F443C01E
:100E7000018510E098012E5F3F4FD60114968D91A9
:100E80009C918217930780F480E00F900F90DF9180
:100E9000CF911F910F91FF90EF90DF90CF90089529
:100EA0004387D1CF4487D6CFF601818192812081BB
:100EB00031E03093250420934704109226041092C9
:100EC00048040115110541F421E042E050E0B7016A
:100ED000C6010E94F006D9CFDC01ED91FC910280A1
:100EE000F381E02DA801BE016F5F7F4F19950817B0
:100EF000190751F6E9CFA281B381109729F2248115
:100F00003581018510E02330310579F48E7F8983A6
:100F10009A830F5F1F4F9E012F5F3F4F42E050E0CB
:100F2000B701CD010E944805B0CF2115310519F454
:100F30009F779983F0CF2230310511F49068F9CF73
:100F40002130310541F79F779064F3CF8F929F92C4
:100F5000AF92BF92CF92DF92EF92FF920F931F93C7
:100F6000CF93DF93D82FC62F142F613208F09CC087
:100F70000E9483056B017C0180911F0481116FC069
:100F800081E080931F0410931E049FEF90931D0433
:100F900010921C049C0F90931B048093FA03809181
:100FA000FA03DD0FD82BD093FA038091F903813037
:100FB00009F07CC01092F9030E9483056B017C014B
:100FC0008091FA038093BB008091210490912204C8
:100FD000A0912304B0912404892B8A2B8B2BA1F0A0
:100FE0000E94830500912104109122042091230482
:100FF000309124046C197D098E099F090617170783
:101000002807390708F44CC08091BC0083FDD8CF75
:1010100085EC8093BC000E9483056B017C0180916C
:101020001F04813009F444C080911C048C1710F413
:10103000C0911C04EBEFF3E0A9EDB3E080E08C136A
:1010400059C08C2FDF91CF911F910F91FF90EF909E
:10105000DF90CF90BF90AF909F908F900895809138
:10106000210490912204A0912304B0912404892B9F
:101070008A2B8B2B09F480CF0E948305809021045A
:1010800090902204A0902304B09024046C197D0950
:101090008E099F0986169706A806B90608F06CCF38
:1010A000809120040E94F903C0E0CBCF85EEB1CF40
:1010B0008091210490912204A0912304B0912404F2
:1010C000892B8A2B8B2B09F4AACF0E9483050091D0
:1010D00021041091220420912304309124046C19DE
:1010E0007D098E099F09061717072807390708F099
:1010F00096CFD6CF91919D938F5FA1CF2FB7F894C4
:1011000060918703709188038091890390918A038D
:101110002FBF089560E070E0CB010895AF92BF92B9
:10112000CF92DF92EF92FF920F931F93CF93DF93B3
:101130006C017B018B01040F151FEB015E01AE18E2
:10114000BF08C017D10759F06991D601ED91FC9104
:101150000190F081E02DC6011995892B79F7C50121
:10116000DF91CF911F910F91FF90EF90DF90CF9083
:10117000BF90AF90089590E080E00895FC01538DFA
:10118000448D252F30E0842F90E0821B930B541761
:1011900010F0CF96089501970895FC01918D828DEE
:1011A000981761F0A28DAE0FBF2FB11D5D968C9187
:1011B000928D9F5F9F73928F90E008958FEF9FEFC6
:1011C0000895FC01918D828D981731F0828DE80F82
:1011D000F11D858D90E008958FEF9FEF0895FC013C
:1011E000918D228D892F90E0805C9F4F821B910909
:1011F0008F739927089585E594E00E94EF0821E018
:10120000892B09F420E0822F0895FC01A48DA80FFA
:10121000B92FB11DA35ABF4F2C91848D90E0019638
:101220008F739927848FA689B7892C93A089B18958
:101230008C91837080648C93938D848D981306C0F9
:101240000288F389E02D80818F7D80830895EF925D
:10125000FF920F931F93CF93DF93EC0181E0888F70
:101260009B8D8C8D98131AC0E889F989808185FF40
:1012700015C09FB7F894EE89FF896083E889F989E2
:1012800080818370806480839FBF81E090E0DF91E4
:10129000CF911F910F91FF90EF900895F62E0B8D37
:1012A00010E00F5F1F4F0F731127E02E8C8D8E11F2
:1012B0000CC00FB607FCFACFE889F989808185FF59
:1012C000F5CFCE010E940509F1CFEB8DEC0FFD2F7C
:1012D000F11DE35AFF4FF0829FB7F8940B8FEA8914
:1012E000FB8980818062CFCFCF93DF93EC01888D23
:1012F0008823B9F0AA89BB89E889F9898C9185FD91
:1013000003C0808186FD0DC00FB607FCF7CF8C911E
:1013100085FFF2CF808185FFEDCFCE010E940509C8
:10132000E9CFDF91CF9108958F929F92AF92BF92B4
:10133000CF92DF92EF92FF920F931F93CF93DF93A1
:10134000EC016A017B0120E030E04FE753E4CB0180
:10135000B6010E94F1294B015C0120E030E0A901B7
:101360000E94BE2C18168CF5C501B4010E94302CC9
:101370008B01B98020E030E0A901C701B6010E94CD
:10138000BE2C60E018160CF061E08B2D0E94340337
:101390000F3F110509F0ECF41127C88161E08C2F93
:1013A0000E941A0401151105B9F460E08C2FDF9139
:1013B000CF911F910F91FF90EF90DF90CF90BF9052
:1013C000AF909F908F900C943403C501B401905856
:1013D000CDCF0FEF10E0E1CF0F3F110511F461E029
:1013E000E5CFEC2FF0E0E352FD4FE491E150E23124
:1013F00008F0BCC0F0E08827EF5FF54F8F4F0C94EA
:10140000322B130A240A290A330A3D0AB60A470A6C
:101410004F0A570A610A6B0A750A840A8E0AB60ACD
:10142000980AA20AAC0A84B5806884BD07BDDF9122
:10143000CF911F910F91FF90EF90DF90CF90BF90D1
:10144000AF909F908F90089584B5806284BD08BD51
:10145000EECF809180008068809380001093890097
:1014600000938800E4CF80918000806280938000A8
:1014700010938B0000938A00DACF809180008860FF
:101480008093800010938D0000938C00D0CF8091CA
:10149000B00080688093B0000093B300C8CF809103
:1014A000B00080628093B0000093B400C0CF809100
:1014B00090008068809390001093990000939800AA
:1014C000B6CF8091900080628093900010939B0033
:1014D00000939A00ACCF8091900088608093900038
:1014E00010939D0000939C00A2CF8091A000806883
:1014F0008093A0008091A0008F7B8093A000109328
:10150000A9000093A80093CF8091A00080628093EF
:10151000A0001093AB000093AA0089CF8091A00097
:1015200088608093A0001093AD000093AC007FCF43
:1015300080912001806880932001109329010093FD
:10154000280175CF80912001806280932001109343
:101550002B0100932A016BCF80912001886080933A
:10156000200110932D0100932C0161CF003811054B
:101570000CF035CF1ACF8EBD00000DB407FEFDCFA5
:101580008EB508956F3FB1F0E62FE295EF7044E01D
:10159000E49F90011124DC01ED91FC91E20FF31F17
:1015A0006F70B8E06B9FC001112462817381860F58
:1015B000971F089590E080E00895CF93DF93EC01AA
:1015C00088819981DC01ED91FC910190F081E02D01
:1015D00019952A813B81820F931F9B838A83DF9118
:1015E000CF910895982F80336CF08A3324F08F3593
:1015F00024F08B3724F481E0089581341CF081E0DD
:101600009B350CF080E00895CF93DF93EC01888147
:101610009981DC01ED91FC910280F381E02D199517
:101620002A813B81820F931F9B838A83DF91CF9115
:1016300008958F929F92AF92BF92CF92DF92EF92D6
:10164000FF920F931F93CF93DF93CDB7DEB76697CB
:101650000FB6F894DEBF0FBECDBF6C018E01095EE0
:101660001F4F78018AE0882E912CA12CB12CCB0140
:10167000BA01A50194010E94E12A942F852F605D93
:10168000F80162938F01A901692F782F4115510547
:101690006105710561F7A7014E1B5F0BBF01C60114
:1016A0000E94040B66960FB6F894DEBF0FBECDBF46
:1016B000DF91CF911F910F91FF90EF90DF90CF902E
:1016C000BF90AF909F908F900895CF92DF92EF924E
:1016D000FF920F931F93CF93DF93EC018A858111C3
:1016E00030C00F8118850E947E08D80118966D932E
:1016F0007D938D939C931B97D801ED91FC9102846F
:10170000F385E02DC801199597FF25C00E947E083A
:10171000F801C084D184E284F3846C197D098E09B8
:101720009F09C480D580E680F7806C157D058E0505
:101730009F0510F38FEF9FEF97FD80E0898781E091
:101740008A878985DF91CF911F910F91FF90EF904C
:10175000DF90CF9008959927EFCF1F93CF93DF931A
:10176000EC01162F0E94650B811306C01A8681E0DA
:10177000DF91CF911F91089580E0FACF0F931F93CF
:10178000CF93DF938C01EB018991882369F0C80125
:101790000E94650B882379F0FE01319790819813A0
:1017A0000DC0F8011286F0CF90E080E0DF91CF917C
:1017B0001F910F91089582E090E0F8CF83E090E0D0
:1017C000F5CFCF93DF93EC01CE010E94650B8B30F8
:1017D0004CF489305CF4882359F081E08E8390E0EA
:1017E00080E00BC08D3011F08032B9F71A86ECCF53
:1017F0008E81811105C081E090E0DF91CF91089545
:1018000082E090E0FACFDC01ED91FC91309731F06D
:1018100094819F7781E019F080E0089581E0089538
:101820004F925F926F927F928F929F92AF92BF92F0
:10183000CF92DF92EF92FF920F931F93CF93DF939C
:10184000EB01DC012C912B32D9F12D32D1F501962F
:10185000FF24F394FC01208130ED320F3A3018F070
:101860002E3209F042C18C0160E070E0CB01F8013A
:10187000219130ED832E820E39E0381520F16A393E
:1018800049E97407840749E1940738F5AAE0B0E014
:101890009B01AC010E94CE2A912CB12CA12C2401D9
:1018A000350140945094609470944616570668062B
:1018B000790698F0680D791D8A1D9B1D8F01D7CF81
:1018C0000196F12CC7CF211108C0FF20E9F161304A
:1018D0007105810550E89507A0F0E12CBAE08B2E48
:1018E000912CA12CB12C6115710530E8830791056D
:1018F000B0F1A50194010E94E12ACA01B901E39463
:10190000F2CF2C8120782A602C839B01AC018827A0
:101910009927DC01821B930BA40BB50B8883998359
:10192000AA83BB838F2DDF91CF911F910F91FF90E1
:10193000EF90DF90CF90BF90AF909F908F907F906F
:101940006F905F904F9008952C81207828602C83B1
:10195000688379838A839B83FF24F394E3CFF80120
:10196000D8012D918D0130ED320F3A3010F4E3940F
:10197000F6CF2E3201F58F010F5F1F4FF8010F5F79
:101980001F4F2081A0EDDA2ED20EB9E0BD1598F0E0
:101990006C3CECEC7E07ECE08E07910578F7AAE052
:1019A000B0E09B01AC010E94CE2A6D0D711D811D1E
:1019B000911DEA94E3CF20812F7D10E000E02534D3
:1019C00009F05BC021812D32D1F53296CC24C3942D
:1019D000DF0110E000E02E2D0E2C000C330B5AE03E
:1019E000B52EFD01DD9040ED4D0D4A3008F040C0B0
:1019F000B09EA001B19E500D11240D2DDD0C110BD8
:101A000000531109040F151FA801420F531F47323D
:101A100051053CF38C81CC20C9F040E050E060E0FF
:101A200070E8F11003C040E050E0BA0180788C60AB
:101A30008C83488359836A837B83FC2C73CF2B323E
:101A400019F03196C12CC4CF3296FCCF40E050E063
:101A500060E87FEFF11004C040E050E060E87FE70D
:101A600080788C608C83488359836A837B8374CFAE
:101A7000CC2019F01195019511092081211135C053
:101A80000E0D111DE7FC1A950E94902934E0C32E1B
:101A900032E0D32E101611063CF011950195110974
:101AA0004CEEC42E41E0D42EE12C0115110591F02D
:101AB00000FF0CC024E0E29EF0011124EC0DFD1D9E
:101AC00025913591459154910E94F12915950795DD
:101AD000E394EBCFF11090582C8120782C602C836C
:101AE000688379838A839B8337CFF12C1BCFCF9375
:101AF000DF9300D01F921F92CDB7DEB7FC01948117
:101B00009F77963091F030F4943020F560E070E0EB
:101B1000CB0111C09A30B9F09C3051F19830B1F737
:101B2000608171818281938104C0608170E090E066
:101B300080E00E9490290F900F900F900F900F90CF
:101B4000DF91CF91089560817181828193810E949C
:101B50009229F1CF808191811D82BE016F5F7F4FFD
:101B600004960E94100CCE0101960E94770DE3CFDF
:101B70006081718182819381DECFFF920F931F93E9
:101B8000CF93DF93FC01C381D4810581168101804D
:101B9000F281E02D3097D9F0848186FF18C06596D8
:101BA0006081CE010E94C20A009789F0FC01F58095
:101BB00001151105A9F06F2DCE010E94C20A0097F0
:101BC00011F0FC01F58001501109009789F760E0E0
:101BD00070E0CB01DF91CF911F910F91FF9008959D
:101BE000DF91CF911F910F91FF900C94770DCF92C1
:101BF000DF92EF92FF92CF93DF9300D01F921F925C
:101C0000CDB7DEB7FC0184818F778630D9F040F400
:101C10008430A9F1853009F43FC090E080E014C021
:101C20008A30F1F08C3009F43FC08830B1F7808100
:101C30009181A281B381811520E89207A105B105A8
:101C400060F702C0808190E00F900F900F900F908E
:101C50000F90DF91CF91FF90EF90DF90CF9008959C
:101C600080819181A281B381AC01BD0150586F4F39
:101C70007F4F411551056140710578F6E5CF8081B0
:101C800091811D82BE016F5F7F4F0E94100CCE01BB
:101C900001960E94F70DD8CF808191811D82BE01EF
:101CA0006F5F7F4F0496F1CFC080D180E280F380D8
:101CB00020E030E040E057ECC701B6010E94BE2CA6
:101CC00087FDABCF20E03EEF4FEF56E4C701B601F2
:101CD0000E948B2918160CF4A0CFC701B6010E94F0
:101CE000302CCB01B1CFCF92DF92EF92FF92CF9306
:101CF000DF9300D01F921F92CDB7DEB7FC01848125
:101D00008F778630C1F038F4843019F1853071F165
:101D100090E080E012C08A3021F08C3079F1883078
:101D2000B9F780819181A281B381009721E0A20758
:101D3000B10518F0EDCF808190E00F900F900F90DB
:101D40000F900F90DF91CF91FF90EF90DF90CF90A9
:101D50000895808191811D82BE016F5F7F4F0E9437
:101D6000100CCE0101960E94730EE7CF8081918105
:101D70001D82BE016F5F7F4F0496F1CFC080D1807E
:101D8000E280F38020E030E0A901C701B6010E94A3
:101D9000BE2C87FDBDCF20E03FEF4FE757E4C701E2
:101DA000B6010E948B2918160CF4B2CFC701B601F8
:101DB0000E94372CCB01C1CFFC019289915084E065
:101DC000989F90011124A089B189A20FB31F129688
:101DD000ED91FC9113973097E9F011962C911197A2
:101DE0008C912817B8F481E0820F11968C9388E0CB
:101DF000289FA0011124E40FF51F309759F0148299
:101E00008FEF858317821682BF01892F8295807F8D
:101E1000820F089560E070E08FEF0895DF92EF92F7
:101E2000FF920F931F93CF93DF93EC017B01D12C93
:101E3000688979898A89D816E0F484E0D89E80017F
:101E40001124060F171FD80112966D917C91611510
:101E5000710541F0D701ED91FC910280F381E02DF5
:101E6000C7011995F8011382128210821182D3944E
:101E7000DFCF1A8A8FEF8C8BC617D70761F0D70197
:101E8000ED91FC910280F381E02DC7011995D98B6A
:101E9000C88B84E08B8BDF91CF911F910F91FF90C6
:101EA000EF90DF900895DB01ED91FC911197028096
:101EB000F381E02DBC01CD0119940F931F93CF93B3
:101EC000DF93EC01088119818B819C81009749F097
:101ED000FC01208131813C832B83B8010E94530F88
:101EE000F3CF68817981CE010596DF91CF911F9163
:101EF0000F910C940E0FCF93DF93EC01E881F981E1
:101F0000B0E0A0E03097F9F09F012C5F3F4F6217DF
:101F10007307A1F4928191509283911114C0808132
:101F20009181109741F08D939C93BA01CF01DF917D
:101F3000CF910C94530F99838883F7CFDF010190E1
:101F4000F081E02DDFCFDF91CF9108958F929F92A6
:101F5000AF92BF92CF92DF92EF92FF920F931F93B7
:101F6000CF93DF938C01EB01FC01848180FF0AC0D9
:101F700048815981608171816C5F7F4FCE010396EA
:101F80000E947B0FF8018481807681F10115110593
:101F900069F1D0805E01F5E1AF0EB11C4E0183E026
:101FA000880E911CEFEFDE16F1F06D2DC5010E9439
:101FB000C20A7C01FC01C580848187FF07C048817B
:101FC000598166817781C4010E947B0FBE01C701E0
:101FD0000E94A60FF701848180788483898D858390
:101FE000D98EDC2CDFCFF801D082D182DF91CF9166
:101FF0001F910F91FF90EF90DF90CF90BF90AF9027
:102000009F908F900895EF92FF920F931F93CF931D
:10201000DF937C018B01EA016F3F710509F0B0F499
:10202000E881F9810480F581E02DAB014B5F5F4FC2
:10203000BC01CE011995009749F0FC010383DF91A3
:10204000CF911F910F91FF90EF900895E881F98152
:102050000280F381E02DB701CE01199590E080E078
:10206000EECFFF920F931F93CF93DF93EC01F62EE9
:102070008A819B810097C9F06C817D81FC0123815D
:102080002617170691F408811981F80140815181C2
:10209000660F771F6F5F7F4F0E940310009719F440
:1020A00021E0F80122839B838A838A819B810097A8
:1020B00059F02C813D81A9014F5F5F4F5D834C83B7
:1020C000820F931FFC01F482DF91CF911F910F913A
:1020D000FF9008959F92AF92BF92CF92DF92EF92BE
:1020E000FF920F931F93CF93DF9300D01F921F9205
:1020F000CDB7DEB78C010E94650BD82EF801128691
:10210000F12CE12C60EFC62EC8010E94650BF8018E
:102110001286D81609F4B3C0811113C082E090E092
:102120000F900F900F900F900F90DF91CF911F9114
:102130000F91FF90EF90DF90CF90BF90AF909F9066
:1021400008958C3509F099C0C8010E94650B882359
:1021500029F3EDE4F2E0853709F083C0F801128637
:1021600054E0952EB12CA12CC8010E94650B882348
:10217000A9F2813434F48053803130F083E090E070
:10218000CFCF8F7D8753F8CF44E0AA0CBB1C4A9574
:10219000E1F7A82AF80112869A949110E5CFC501BB
:1021A000985D8115944020F47501F3E0FF22ACCFD7
:1021B000C5019C5D81159440A8F483E0B822B70165
:1021C000762F6627770F770F6A297B2990E080E0CA
:1021D0000196603871058105910540F4C8010E949F
:1021E000311092CFB50190E080E0F3CF1982262F15
:1021F0002F7320682A8326E09695879577956795B3
:102200002A95D1F76032710580F4606C6B835E01B2
:10221000E4E0AE0EB11CF50162915F01662309F4A2
:1022200073CFC8010E943110F6CF262F2F7320687C
:102230002B8386E0769567958A95E1F76031710585
:1022400038F4606E6C835E01F5E0AF0EB11CE3CF35
:1022500060686C83CD825E0126E0A20EB11CDBCFEC
:1022600032969081992309F489CF8913F9CF81811E
:10227000882309F483CFF8011286682FAFCF8281BB
:102280009381892B19F484E090E04ACF90E080E0BC
:1022900047CFAF92BF92CF92DF92EF92FF920F9310
:1022A0001F93CF93DF93DC011296ED91FC9113976E
:1022B00014968D919C911597E80FF91F14820D913A
:1022C0001C91119714966D917C91159712968D9192
:1022D0009C9113979C012C5F3F4FE801EB81FC819F
:1022E0007B01E20EF31E3097B9F0438146171706C3
:1022F00079F45901AF014C5F5F4FEA14FB0499F187
:10230000E501C9905E01EA01D990AE01CD14A9F3AF
:102310000190F081E02DE7CFED01F801408151817E
:102320000E940310FC01892B21F481E0D801129650
:102330008C93A881B98113968D919C911497918368
:1023400080831496FC93EE9313971B821A82CF011D
:10235000DF91CF911F910F91FF90EF90DF90CF9081
:10236000BF90AF90089582818F5F8283F0CF4F92AC
:102370005F926F927F92AF92BF92CF92DF92EF9275
:10238000FF920F931F93CF93DF93C82F762E5A019E
:1023900089010E947E086B017C01D1E0D093250465
:1023A000C09347041092260410924804672D89E4D4
:1023B00094E00E94050381E00E94A805D0932504C3
:1023C000109226041092480441E061E08C2F0E9494
:1023D000A607D82F1092D8038093D703C0E0280116
:1023E000712C612C8091D803D817D1F001151105FB
:1023F00061F489E494E00E94C502F501EC0FF11D3F
:10240000C7FDFA958083CF5FEDCF0E947E086C19DF
:102410007D098E099F09641575058605970548F3A2
:1024200081E00E94A8050115110591F00E947E0827
:10243000AB01BC014C195D096E097F0930E020E059
:10244000401751076207730718F01C160CF0CFEF06
:102450008C2FDF91CF911F910F91FF90EF90DF9024
:10246000CF90BF90AF907F906F905F904F90089506
:10247000DF92EF92FF920F931F93CF93DF931F9200
:102480001F92CDB7DEB7F82EE62E142FD22E28EEEF
:1024900033E0AE014E5F5F4F0E94B711882381F198
:1024A000812F8D19990BAC014F5F5F4F81E090E058
:1024B00002C0880F991FDA94E2F70197042E01C039
:1024C000880F0A94EAF701C0000F4A95EAF7982F9F
:1024D00090952A8192238023892B8A838983AE0158
:1024E0004F5F5F4F6E2D8F2D0E94D1060F900F9082
:1024F000DF91CF911F910F91FF90EF90DF900895A2
:1025000080E0F4CF2F923F924F925F926F927F9232
:102510008F929F92AF92BF92CF92DF92EF92FF92F3
:102520000F931F93CF93DF931F921F92CDB7DEB708
:102530007C013B014C018BE0880E911CD701169663
:102540009C91169717968C91179799838A83CD90B3
:10255000DC901197C114D10409F487C019964C91ED
:1025600050E0F6018481958184179507A8F0808159
:1025700091E09093250480934704109226041092D2
:10258000480420E0BE016F5F7F4FC6010E94F00645
:10259000B12CA12C811116C080E00F900F90DF911B
:1025A000CF911F910F91FF90EF90DF90CF90BF9050
:1025B000AF909F908F907F906F905F904F903F90E3
:1025C0002F900895D60114968D919C9102E010E011
:1025D0000A191B098017910708F48C0141E082E079
:1025E00090E0801B910BA816B90608F440E0602F1C
:1025F000F60180810E94A6071092D8038093D7032A
:102600008017110649F624014A0C5B1C1201C10116
:10261000841995098017910778F4D60111968D9148
:102620009C91DC01ED91FC910284F385E02D1995DC
:10263000F10181931F01EBCFA00EB11EF2E0AF16A6
:10264000B10408F4BFCFF7018285811140C08485B1
:1026500090E0982F8827D30111969C938E93238521
:10266000822B8D939C9381E098CF1296ED91FC91F3
:102670001397309709F490CF14962D913C911597AC
:1026800019964C9150E02330310589F4816089839B
:102690009A834F5F5F4F02E010E09401BE016F5FCD
:1026A0007F4FCF010E940C058111CDCF76CF211530
:1026B000310519F490689983EECF2230310511F479
:1026C0009F77F9CF2130310531F7906CF4CF8385B6
:1026D00090E0982F8827D30111969C938E932485A0
:1026E000BFCFAB01BC0180EB95E00C949409FC01D9
:1026F00001900020E9F73197AF01481B590BBC014D
:1027000085E594E00C948E08DF92EF92FF920F9390
:102710001F93CF93DF936115710561F460E070E062
:102720008FEF9D2DDF91CF911F910F91FF90EF9033
:10273000DF9008958A01EB01DC01FC900B5E1F4FD6
:102740006F2DC8010E94C20A009741F3FC01E58089
:10275000009721F30680F781E02DDE010D90002027
:10276000E9F79D01215031092C1B3D0BB0E0A0E0A1
:10277000309739F0DF010D900020E9F71197AE1B7B
:10278000BF0B2A173B0751F4DE012C0F3D1FA21788
:10279000B30769F05D9141915417C9F36E2DC801DB
:1027A0000E94C20A009709F4B9CFFE2CCFCFBC011A
:1027B0008F2DDE2CB6CFFC01408151816281738167
:1027C000CA014A9641F0FA01268D25FF04C00E94F5
:1027D0008413CB01089590E080E008950F931F9338
:1027E000CF93DF93FC01C181D281058116810196CF
:1027F0000E94DB13009781F0FC01248125FF0CC0AF
:10280000AE01B8010E9484139B01B901CE01DF9192
:10281000CF911F910F91089530E020E0F6CFFB019A
:1028200001900020E9F73197AF01461B570B0C943C
:10283000040B1F93CF93DF93EDE4F2E01281112399
:1028400079F0329621816213F9CFEC016CE50E9498
:10285000DD0A612FCE01DF91CF911F910C94DD0A2B
:102860006111F9CF6EE572E0DF91CF911F910C9469
:102870000F14CF92DF92EF92FF920F931F93CF939B
:10288000DF938C016B017A0162E20E94DD0AE601AE
:10289000EC0CFD1CCE15DF0529F06991C8010E94E2
:1028A0001914F8CF62E2C801DF91CF911F910F9107
:1028B000FF90EF90DF90CF900C94DD0A2F923F9223
:1028C0004F925F926F927F928F929F92AF92BF9240
:1028D000CF92DF92EF92FF920F931F93CF93DF93EC
:1028E000CDB7DEB76C970FB6F894DEBF0FBECDBF85
:1028F0008C011B01DC0114968C9114978F77883022
:1029000009F4B2C2E8F4843009F469C248F48330AF
:1029100009F49FC265E672E0C1010E940F141CC257
:10292000853009F470C28630A9F78C916AE672E0AE
:10293000811102C06FE672E0C1010E940F146DC2E6
:102940008C30F1F1C8F48A3029F7CD90DD90ED900C
:10295000FC90B701A601F7FE0BC06DE2C1010E9419
:10296000DD0A44275527BA014C195D096E097F0914
:10297000C1010E94190B51C2803209F4F7C18034A1
:1029800049F66BE5C1010E94DD0AF80110811F3F85
:1029900009F4E7C1D10114968D919C91612F459660
:1029A0000E94C20A8C01B1010E945E14F8011581D7
:1029B0001F3F09F4D6C16CE2C1010E94DD0AE7CFD6
:1029C000F801C080D180E280F380A7019601C701A1
:1029D000B6010E948B2981119DCF20E030E0A90132
:1029E000C701B6010E948B29882379F0A7019601BF
:1029F000C701B6010E943B2B9B01AC01C701B60188
:102A00000E948B29882309F485CF20E030E0A901BA
:102A1000C701B6010E948B2987FF08C06DE2C10182
:102A20000E94DD0AF7FAF094F7F8F09420E836E90E
:102A300048E15BE4C701B6010E94BE2C87FD88C057
:102A400074E1A72EB12C00E210E0188E1F8AF50168
:102A5000EC5FFD4F2591359145915491C701B60129
:102A60000E94BE2C87FD13C0F501E451FE4F259155
:102A7000359145915491C701B6010E94F1296B012E
:102A80007C012F89388D200F311F388F2F8B1595A2
:102A9000079534E0A31AB1088CEFA8168FEFB8069B
:102AA000B1F655245A9420E030E0A901C701B601DF
:102AB0000E94BE2C18160CF052C02CEA35EC47E2EE
:102AC00057E3C701B6010E948B2918160CF447C0C2
:102AD000A52DB4E0AB02C0011124B12CA12CFC0146
:102AE000E451FE4F3F019C012C5F3D4F49013FEFF8
:102AF000531609F434C0F301EA0DFB1D659175917D
:102B00008591949120E030E040E251E40E94F12967
:102B1000A70196010E94BE2C18169CF4F401EA0D40
:102B2000FB1D2591359145915491C701B6010E9435
:102B3000F1296B017C018F89988D801B910B988FF7
:102B40008F8B159507955A9494E0A91AB108CFCFA9
:102B500000E210E055E0552E188E1F8AA4CFC70161
:102B6000B6010E94372C4B015C012B013C0106E0B1
:102B700080E492E4AFE0B0E0898F9A8FAB8FBC8F96
:102B8000102F01509AE04916510461047104C8F0F5
:102B9000698D7A8D8B8D9C8D2AE030E040E050E08D
:102BA0000E94E12A298F3A8F4B8F5C8FC301B201BB
:102BB0002AE030E040E050E00E94E12A29013A0199
:102BC000DFCFC501B4010E9490299B01AC01C70170
:102BD000B6010E943A2B6B017C01698D7A8D8B8D39
:102BE0009C8D0E9490299B01AC01C701B6010E94F7
:102BF000F1292B013C010E94372C6B017C010E94C2
:102C000090299B01AC01C301B2010E943A2B9B01A8
:102C1000AC010E943B2B0E94372CC60ED71EE81E2B
:102C2000F91E898D9A8DAB8DBC8DC816D906EA0622
:102C3000FB06D8F09FEF891A990AA90AB90AAF8949
:102C4000B88DAB2B39F1BAE08B169104A104B10415
:102C500008F1EF89F88D3196F88FEF8BC12CD12CCC
:102C60007601812C912C540183942AE0422E512C20
:102C7000612C712CC701B601A30192010E94E12AC7
:102C8000672B682B692B51F4111644F469017A0102
:102C90001150F0CFC12CD12C7601E7CFB501A401A2
:102CA000C1010E94190B112371F14E01F1E18F0E48
:102CB000911C012F54019AE0492E512C612C712C4A
:102CC000015068F0C701B601A30192010E94E12AF8
:102CD000605DD4016E934D0169017A01F1CF812FBE
:102CE00090E0BC0160957095F501E81BF90B3197F8
:102CF0008EE2808344275527461B570B6A0D7B1DA8
:102D0000C1010E94040BEF89F88DEF2B29F165E6D4
:102D1000C1010E94DD0A0F89188D17FF07C06DE2FF
:102D2000C1010E94DD0A119501951109FE017796F6
:102D30009F018AE0E82EF12CC801B7010E941E2BEA
:102D4000805D82938B01672BB9F7A9014E1B5F0B46
:102D5000BF01C1010E94040BD10112968D919C917B
:102D60005FC06DE5C1010E94DD0AF6CF6BE7C101CE
:102D70000E94DD0AF80110811F3F79F1D1011496FC
:102D80008D919C91612F45960E94C20A8C01FC0195
:102D9000C680D78062E2C1010E94DD0A7601D701B8
:102DA0006D917D01662321F0C1010E941914F7CFB6
:102DB00062E2C1010E94DD0A6AE3C1010E94DD0AEC
:102DC000B101C8010E945E14F80115811F3F29F06E
:102DD0006CE2C1010E94DD0ACFCF6DE7C3CFF801DD
:102DE0006081718150E040E06115710541F0FB01A7
:102DF00001900020E9F73197AF01461B570BC10145
:102E00000E943914A9CFED91FC91438150E0BF019C
:102E10006C5F7F4FC1010E943914F101828193815F
:102E20006C960FB6F894DEBF0FBECDBFDF91CF9189
:102E30001F910F91FF90EF90DF90CF90BF90AF90D8
:102E40009F908F907F906F905F904F903F902F90CA
:102E50000895ED91FC91438150E0BF016C5F7F4F7D
:102E6000C1010E94040BD9CF4D915D916D917C9170
:102E70007FCD85ED8093BC00809121049091220448
:102E8000A0912304B09124040796A11DB11D23E055
:102E9000B695A795979587952A95D1F72091BC006F
:102EA00024FD03C010921F04089540912104509105
:102EB00022046091230470912404452B462B472B58
:102EC00069F30097A105B10541F02AE22A95F1F7CF
:102ED00000C00197A109B109E1CF809120040C94B1
:102EE000F903CB010C94C32CCB010C945F2D8F9272
:102EF0009F92AF92BF92CF92DF92EF92FF920F9389
:102F00001F93CF93DF936C018B01DB015996FC90EB
:102F1000BFEFFB1621F16F2DC80145960E94C20A32
:102F2000EC018D81F801818F209709F496C01C82F5
:102F30008FEF8D831F821E82D60111966C916F3F99
:102F400009F49FC0C80145960E94C20AFC01F5829F
:102F5000D6011196FC92BE018F2D9D8084C05B012D
:102F6000F5E0AF0EB11CDB01ED90FC901197579688
:102F70008C91882349F0C5010E94DC0EC62FD72F03
:102F8000209711F0F82ED8CFF801C789908DC9137A
:102F900025C0C03109F461C0CC0F65897689D7019D
:102FA000ED91FC91B4E0CB9FA0011124A616B706C9
:102FB00009F04BC00190F081E02DBA01C7011995CD
:102FC000009709F44AC020E1F501DC0101900D925F
:102FD0002A95E1F7F801968B858BC08FD80155961D
:102FE000CD91DC91569757968C91579721E0280FF9
:102FF00057962C93B4E08B9FC0011124C80FD91FA2
:1030000090E1892E203111F48FE0882EE8E08E9E29
:10301000B0011124D701ED91FC910190F081E02DD8
:10302000C70119959B838A83892B09F4812C888297
:103030001982CD2B91F0C5010E94DC0EC62FD72F2F
:10304000F82E209709F078CF08C00480F581E02D94
:10305000C7011995009709F0BDCF81E0F80182837F
:1030600060E070E08FEF992DDF91CF911F910F916C
:10307000FF90EF90DF90CF90BF90AF909F908F9098
:103080000895F601F082F18266CF8F929F92AF92FF
:10309000BF92CF92DF92EF92FF920F931F93CF9345
:1030A000DF93EC018B01D42E0E94E10B7C01892B74
:1030B00009F047C0CE010E94650B863609F452C163
:1030C00024F5873229F08B3561F1823209F053C142
:1030D0001D821C828A819B81892B31F48881998190
:1030E0000E9402029B838A83CE010E946A107C01A7
:1030F000892B39F5CE010E944911F80124812078ED
:1031000025602483918380831CC0843709F412C115
:103110008B3709F45BC08E3609F02DC165E672E08D
:1031200012C1F801848180788064848301151105BF
:1031300019F08FEF80838183D11011C025E0E22E3A
:10314000F12CC701DF91CF911F910F91FF90EF906C
:10315000DF90CF90BF90AF909F908F9008951A8688
:10316000CE010E94E10B009709F085C06DE5CE010C
:103170000E94AD0B8111E5CFDA946B857C85C80187
:103180000E9477176115710521F484E0E82EF12C77
:10319000D8CF4D2DCE010E944518009709F06BC085
:1031A000CE010E94E10B009709F065C06DE5CE01EC
:1031B0000E94AD0B8111C5CF6CE2CE010E94AD0B18
:1031C0008111DBCF93E0E92EF12CBBCFF801848194
:1031D0008078806284830115110519F08FEF808358
:1031E0008183DD2009F4AACF1A86CE010E94E10B6B
:1031F000009709F040C06DE7CE010E94AD0B811130
:10320000A0CFBB24BA94BD0C1D821C828A819B81F5
:10321000892B31F4888199810E9402029B838A83E1
:10322000CE010E94650B8732E1F08232D1F0CE01EF
:103230000E94650BD82E0E94F20A882319F21A8682
:103240006D2DCE010E943110CE010E94650BD82E4B
:103250000E94F20A8111F3CF8A819B81892B31F47C
:1032600094CFCE010E946A10009729F4CE010E94EB
:10327000E10B009711F07C0164CF6AE3CE010E945C
:10328000AD0B882309F49ECFEA81FB818C819D815F
:10329000E80FF91F14824B855C856A817B816C5F26
:1032A0007F4FC8010E948413CB016B01672BC9F5C6
:1032B000CE010E9449114C016B857C85C8010E949A
:1032C00077176B016115710509F45FCFFB018481EC
:1032D00080688483F4E08F0E911CF60197828682C9
:1032E0004B2DB601CE010E944518009721F6CE0164
:1032F0000E94E10B009709F0BECF6DE7CE010E945E
:10330000AD0B81111ECF6CE2CE010E94AD0B882364
:1033100009F458CFCE010E94E10B009709F474CF55
:10332000AACF6B857C850E94A60FF60184818078E8
:103330008483D6CFF801848180788660848381E09D
:1033400080836AE672E0CE01DF91CF911F910F91E9
:10335000FF90EF90DF90CF90BF90AF909F908F90B5
:103360000C94BE0BF801848180788660848310827F
:103370006FE672E0E8CFCE010E94650B5E01FDE0D2
:10338000AF0EB11CD12C9A2CCB2C803374F08A3325
:1033900074F49FE3D91699F01A86D394F5018193BA
:1033A0005F01CE010E94650BF0CF8B3291F393ED5C
:1033B000980F923070F3982F9F7D953451F3CD0D77
:1033C000D11D1D86B801892D9C2D0E94100C8111E4
:1033D000B8CEF8CE8F929F92AF92BF92CF92DF92EB
:1033E000EF92FF920F931F93CF93DF93CDB7DEB78A
:1033F000CE57D1090FB6F894DEBF0FBECDBF8E01F8
:10340000025B1F4F81E092E0F8019183808312827A
:1034100014821382C8010596968B858B178A24E047
:10342000208F2FEF218F168EED961FAE1EAEED97DB
:10343000EF961FAE1EAEEF9761E072E00E940E0F96
:10344000F8011282E080F180F80183819481009775
:1034500051F0FC0120813181F80134832383B701CD
:103460000E94530FF1CF168E1A8309831C821B8290
:103470001E821D821F8285E594E0998788871B86BE
:103480001D870C874AE0B801665E7F4FCE0101962A
:103490000E9445187C01892B51F48A85882339F0D4
:1034A000F801868D83FF03C043E0E42EF12C8B816D
:1034B0009C81009731F0E981FA81608171810E94DD
:1034C000530FE114F10451F185E792E00E94771364
:1034D000F701EE0FFF1FE35EFD4F808191810097A2
:1034E00011F00E9477138CE892E00E947713C801D4
:1034F0000E945D0FC258DF4F0FB6F894DEBF0FBEBB
:10350000CDBFDF91CF911F910F91FF90EF90DF9092
:10351000CF90BF90AF909F908F9008951A830983AA
:103520008FE892E09C838B83CE0101960E94DB138F
:10353000ED969FAF8EAFED97EF961FAF0EAFEF9763
:10354000CE0185589F4F0E94030C811195C01092A7
:103550006005EF968CAD9DADAEADBFADEF97E99632
:103560008CAF9DAFAEAFBFAFE99782E090E0EB9636
:103570009FAF8EAFEB97CE018C589F4F0E94BD0D31
:103580006B017C01EF968CAD9DADAEADBFADEF97FD
:10359000E2968CAF9DAFAEAFBFAFE29781E090E017
:1035A000E4969FAF8EAFE497CE0183599F4F0E9460
:1035B000BD0D4B015C01EF968CAD9DADAEADBFADC9
:1035C000EF978A839B83AC83BD831F821E82CE01CB
:1035D00001960E94BD0D60934A0570934B05809340
:1035E0004C0590934D0580924E0590924F05A09208
:1035F0005005B0925105C0925205D0925305E09209
:103600005405F09255058091560590915705892BE8
:1036100099F18091580590915905892B69F181E0C4
:10362000809360050E947E08C0906605D090670573
:10363000E0906805F0906905DC01CB018C0D9D1DC3
:10364000AE1DBF1D80936E0590936F05A09370050E
:10365000B09371051092610510927E0510927F055E
:1036600010928005109281051092820510928305B8
:1036700010928405109285051A83098328E9E22EA9
:1036800022E0F22EFC82EB82CE0101960E94DB1337
:10369000ED969FAF8EAFED97CE0185589F4F0E945C
:1036A000030C811164C01B830A83FD82EC8280EAD3
:1036B00092E09F838E83CE0101960E94EE13EF96D7
:1036C0006CAF7DAF8EAF9FAFEF97CE0185589F4F08
:1036D0000E94030C81110BCFED968EAD9FADED973F
:1036E000009709F470C00E94730E90935B0380935F
:1036F0005A031B830A8388E992E09D838C838AEABC
:1037000092E09F838E83CE0101960E94EE13EF9686
:103710006CAF7DAF8EAF9FAFEF97CE0185589F4FB7
:103720000E94030C8111E3CE9CE5C92E93E0D92EB3
:10373000F12CE12CEF968CAD9DADAEADBFADEF970A
:103740008A839B83AC83BD83FF82EE82CE01019688
:103750000E94BD0DF60161937193819391936F0166
:10376000FFEFEF1AFF0A8AE0E816F10419F71A834F
:10377000098381EBE82E82E0F82EFC82EB82CE01F9
:1037800001960E94DB13ED969FAF8EAFED97EF96FB
:103790001FAF0EAFEF97CE0185589F4F0E94030CCD
:1037A0008111A5CE1A830983FC82EB82CE0101969A
:1037B0000E94DB13009751F00E94F70D90930402D2
:1037C0008093030294CE90E080E08FCF90E080E081
:1037D000F5CF0E94FB0881110E94EA1980E090E079
:1037E000892B49F080E090E0892B29F00E940000AD
:1037F00081110E94000080E090E0892B49F080E078
:1038000090E0892B29F00E94000081110E940000A5
:1038100080E090E0892B49F080E090E0892B29F04E
:103820000E94000081110C9400000895EF92FF9215
:103830000F931F93CF93DF93FC01E080F18087010A
:10384000065E1F4F21F1C281D381209751F1F7010C
:10385000868D982F9F7719F580788062868F8FEFFD
:10386000828F838FA701BE01C8010E948413FB01D0
:10387000309761F4B701C8010E947717FB013097B8
:1038800029F084818F778483D783C6838F01C80111
:10389000DF91CF911F910F91FF90EF90089585FDDB
:1038A000E1CF10E000E0F3CFAF92BF92CF92DF9272
:1038B000EF92FF920F931F93CF93DF938C017B01C5
:1038C000DC01AD90BC900E94161CEC01009781F0C9
:1038D000F701C080D180E280F380B5010E94A60F7D
:1038E0008C8180788C608C83C882D982EA82FB824A
:1038F000D801ED91FC9180E0309719F0828191E040
:103900008927DF91CF911F910F91FF90EF90DF906A
:10391000CF90BF90AF900895CF92DF92EF92FF9239
:103920000F931F93CF93DF938C017B01DC01CD902C
:10393000DC900E94161CEC01009791F0F701E080EA
:10394000F180B6010E94A60F8C8180788A608C83FA
:10395000C701FF0CAA0BBB0B88839983AA83BB8387
:10396000D801ED91FC9180E0309719F0828191E0CF
:103970008927DF91CF911F910F91FF90EF90DF90FA
:10398000CF900895CB01BA010C94E82D1F920F92AD
:103990000FB60F9211240BB60F922F933F934F93B4
:1039A0005F936F937F938F939F93AF93BF93EF93A7
:1039B000FF938091B900887F803609F44DC008F0EC
:1039C00040C0883209F4A9C028F5803109F49DC0AF
:1039D000C8F4882309F4FBC0883009F496C0FF912D
:1039E000EF91BF91AF919F918F917F916F915F9177
:1039F0004F913F912F910F900BBE0F900FBE0F90E4
:103A00001F901895883109F488C0803241F780935F
:103A10001D0414C0803409F49DC040F48033B9F310
:103A20008833E9F680931D0485ECB0C0803509F435
:103A300085C0883509F496C0883489F60E94391704
:103A4000CECF883909F48CC038F5883729F050F486
:103A5000883611F0803719F683E080931F041092A6
:103A6000D20357C0883809F47BC0803919F08038F8
:103A700009F0B5CF8091D203803208F071C0E09197
:103A8000D20381E08E0F8093D2038091BB00F0E0DF
:103A9000EE54FC4F80833DC0803B39F0E0F4803A27
:103AA00009F479C0883A09F09ACF84E080931F0422
:103AB0001092B1031092B003E091D303F091D403BC
:103AC00019958091B00381110FC081E08093B003FC
:103AD0001092900309C0803C09F4A6CF883C09F4F9
:103AE000A3CF883B09F07BCFE091B10381E08E0F3B
:103AF0008093B103F0E0E057FC4F80818093BB00DE
:103B00009091B1038091B00329C08091FA03809312
:103B1000BB0085EC8093BC0062CF90911C04809127
:103B20001B04981758F5E0911C0481E08E0F8093D8
:103B30001C04F0E0E550FC4F8081E9CFE0911C04CB
:103B400081E08E0F80931C048091BB00F0E0E55073
:103B5000FC4F808390911C0480911B049817C8F23D
:103B600085E8D8CFE0911C0481E08E0F80931C047F
:103B70008091BB00F0E0E550FC4F808380911E04F3
:103B800081115CCF81E08093F90384EA8093BC00CB
:103B900010921F0424CF85EC8093BC0010921F0468
:103BA0008091D203803230F4E091D203F0E0EE5401
:103BB000FC4F10826091D20370E0E091D503F09148
:103BC000D60382EB93E019951092D20308CF10929E
:103BD0001D0434CF1F920F920FB60F9211242F9312
:103BE0003F938F939F93AF93BF938091870390915F
:103BF0008803A0918903B0918A033091860323E062
:103C0000230F2D3758F50196A11DB11D2093860372
:103C10008093870390938803A0938903B0938A03CA
:103C200080918B0390918C03A0918D03B0918E03B2
:103C30000196A11DB11D80938B0390938C03A093DB
:103C40008D03B0938E03BF91AF919F918F913F9160
:103C50002F910F900FBE0F901F90189526E8230FFD
:103C60000296A11DB11DD2CF1F920F920FB60F92D7
:103C700011240BB60F922F933F934F935F936F9343
:103C80007F938F939F93AF93BF93EF93FF93809115
:103C9000550390915603A0915703B0915803892B77
:103CA0008A2B8B2BD1F190915403809100008927AE
:103CB000809300008091550390915603A091570383
:103CC000B0915803181619061A061B069CF4809129
:103CD000550390915603A0915703B0915803019753
:103CE000A109B1098093550390935603A0935703FC
:103CF000B0935803FF91EF91BF91AF919F918F9136
:103D00007F916F915F914F913F912F910F900BBEDB
:103D10000F900FBE0F901F90189580910002ECE15C
:103D2000F2E0E4919FEF90930002E230E9F040F47A
:103D3000EE2389F0E13091F060E00E943403DACFA5
:103D4000E43049F110F1E530B9F7909173009D7FAF
:103D500090937300F1CF10926E00EECF90916F00B0
:103D60009D7F90936F00E8CF909170009D7F90931E
:103D7000700091E09093B0009091B100987F9460B2
:103D80009093B1001092B300D7CF909171009D7FB6
:103D900090937100D1CF909172009D7F90937200AB
:103DA000CBCF1F920F920FB60F9211240BB60F922A
:103DB0002F933F934F935F936F937F938F939F9333
:103DC000AF93BF93EF93FF9385E594E00E940509BD
:103DD000FF91EF91BF91AF919F918F917F916F91E3
:103DE0005F914F913F912F910F900BBE0F900FBE9F
:103DF0000F901F9018951F920F920FB60F921124DB
:103E00000BB60F922F938F939F93EF93FF93E091B5
:103E10006504F09166048081E0916B04F0916C047C
:103E200082FD1DC0908180916E048F5F8F73209101
:103E30006F04821741F0E0916E04F0E0EB5AFB4F03
:103E4000958F80936E04FF91EF919F918F912F91A9
:103E50000F900BBE0F900FBE0F901F901895808192
:103E6000F2CF1F920F920FB60F9211240BB60F9242
:103E70002F933F934F935F936F937F938F939F9372
:103E8000AF93BF93CF93DF93EF93FF93809153034F
:103E9000C0912E05D0E087FF23C0109285001092BC
:103EA0008400809153038F5F809353038091530369
:103EB000082E000C990B8C179D0724F48091530356
:103EC0008C3074F1809184009091850084349C49F9
:103ED00008F465C08091840090918500049661C0CB
:103EE00080915303082E000C990B8C179D07CCF67C
:103EF0003091530325E03203F0011124EE50FB4FC3
:103F0000808186FFCECF309153033203F00111241C
:103F1000EE50FB4F808160E08F730E943403C1CF6D
:103F200080918400909185003091530325E0320305
:103F3000F0011124EE50FB4F41815281840F951FF7
:103F40009093890080938800309153033203F001ED
:103F50001124EE50FB4F808186FF0CC0309153033B
:103F60003203F0011124EE50FB4F808161E08F732A
:103F70000E943403FF91EF91DF91CF91BF91AF91F8
:103F80009F918F917F916F915F914F913F912F9171
:103F90000F900BBE0F900FBE0F901F90189580E4EE
:103FA0009CE990938900809388008FEF809353035E
:103FB000E1CF10924C0410924B0488EE93E0A0E005
:103FC000B0E080934D0490934E04A0934F04B093BF
:103FD00050042DE232E030934A04209349041092B9
:103FE0005804109257048093590490935A04A09354
:103FF0005B04B0935C048FE392E09093560480934B
:10400000550485EC90E0909362048093610484EC05
:1040100090E0909364048093630480EC90E090932C
:1040200066048093650481EC90E09093680480932B
:10403000670482EC90E090936A048093690486ECB4
:1040400090E090936C0480936B0410926E04109235
:104050006F0410927004109271048CE080939605A6
:1040600084E28093970585E08093980596E090938D
:1040700099059EE190939A059FE190939B0592E2AA
:1040800090939C0593E290939D0594E490939E05F4
:1040900095E490939F051092A1051092A00590E4DD
:1040A0009093A3051092A8051092A9051092AA0555
:1040B0001092AB051092AC051092AD051092AE05B2
:1040C0001092AF0598E0EBE0F2E0A8EBB5E00190CC
:1040D0000D929A95E1F740E050E060EA70E4409379
:1040E000C0055093C1056093C2057093C305E0916C
:1040F0002E05EC3008F0CCC091E09E0F90932E0579
:10410000E09395058E9FF0011124EE50FB4F88EB54
:104110009BE09283818388E68093860510924A050E
:1041200010924B0510924C0510924D0510924E05C1
:1041300010924F05109250051092510510925205A1
:104140001092530510925405109255051092570580
:1041500010925605109259051092580510925B0561
:1041600010925A0510925C0510925D0510925E0542
:1041700010925F05109260051092610510926E0515
:1041800010926F05109270051092710510927205D1
:1041900010927305109274051092750580E090E0FE
:1041A000A0EAB0E48093760590937705A093780514
:1041B000B093790580E090E0A8ECB2E480937A05B2
:1041C00090937B05A0937C05B0937D0510927E05AE
:1041D00010927F0510928005109281051092820541
:1041E000109283051092840510928505E0912E05AA
:1041F000EC3008F051C081E08E0F80932E05E093E3
:10420000490585E0E89FF0011124EE50FB4F88EB53
:104210009BE09283818384EE9BECA6E1B0EC8093DB
:104220003D0590933E05A0933F05B093400584EE75
:104230009BECA6E1B0E48093410590934205A093E6
:104240004305B093440589EB99EAA8E2B3E3809370
:104250002F0590933005A0933105B093320580E08F
:1042600090E0A0E0BFE38093330590933405A093E2
:104270003505B09336051092380510923705109227
:104280003A051092390510923C0510923B050895AD
:104290008FEF809395053FCF8FEF80934905BBCF7C
:1042A000CF93DF93CDB7DEB7CA54D1090FB6F894D8
:1042B000DEBF0FBECDBF789484B5826084BD84B567
:1042C000816084BD85B5826085BD85B5816085BD11
:1042D00080916E00816080936E00109281008091C9
:1042E0008100826080938100809181008160809351
:1042F0008100809180008160809380008091B10076
:1043000084608093B1008091B00081608093B000A0
:1043100080919100826080939100809191008160F2
:1043200080939100809190008160809390008091B3
:10433000A10082608093A1008091A10081608093A0
:10434000A1008091A00081608093A0008091210154
:1043500082608093210180912101816080932101FD
:104360008091200181608093200180917A00846097
:1043700080937A0080917A00826080937A008091A5
:104380007A00816080937A0080917A0080688093BF
:104390007A001092C100E0916504F091660482E019
:1043A0008083E0916104F09162041082E0916304E3
:1043B000F091640480E1808310926D04E0916904BF
:1043C000F0916A0486E08083E0916704F0916804CC
:1043D000808180618083E0916704F091680480812E
:1043E00088608083E0916704F09168048081806830
:1043F0008083E0916704F091680480818F7D8083E1
:1044000061E0809197050E941A0460E08091970511
:104410000E94340360E0809196050E941A04809106
:10442000A0059091A105892BA9F486E090E00E9457
:10443000C32CFC018091A305808389E494E09283DE
:104440008183138280E290E095838483F093A105B9
:10445000E093A005E090A005F090A1051092D8038C
:104460001092D70310922604109248040E94DB0396
:104470008CE892E09093D4038093D3038DE892E08C
:104480009093D6038093D50311E0D70113961C9324
:10449000C7010E949806882309F45BC080E090E180
:1044A000A0E0B0E08093A4059093A505A093A60595
:1044B000B093A7058AE090E0A0E0B0E08093A80563
:1044C0009093A905A093AA05B093AB0580E090E076
:1044D000A0E0B0E48093AC059093AD05A093AE0549
:1044E000B093AF058091A0059091A1051FA618AAD1
:1044F00019AA1AAA99A388A31BA21AA219A785E030
:1045000090E09FA38EA31AA702E008A740E050E125
:1045100060E070E0CE0180960E940E078091A005B9
:104520009091A105188A198A1A8A1B8A9A8389830D
:104530001C821B821A8718861F821B8709874FE9F6
:1045400059E360E070E0CE0101960E940E0780936F
:10455000A205B8E9EB2EB5E0FB2E06E915E086E8EA
:10456000682E82E0782E9CEC892E92E0992E2BEC1E
:10457000C22E27E0D22E3BE8A32EBB24B394F70132
:104580009281D7018D917D01F801828F938F61E037
:104590000E941A0461E0D8015B968C910E941A0473
:1045A000F70195818381D8015E968C935E975F9623
:1045B0009C9361E00E941A0460E0F801878D0E94DC
:1045C0001A0461E0D8015E968C910E9434035FB6B4
:1045D000F89480915903811125C0F3018491F4016D
:1045E0009491E82FF0E0EE0FFF1FE35EFD4FA591E1
:1045F000B4918C91982321F461E085E30E94340307
:1046000061E085E30E941A048CB580618CBD8CB595
:1046100080648CBD61E084E30E941A0461E083E35E
:104620000E941A04809159038F5F809359035FBEE3
:10463000C6010197F1F760E0D8015E968C910E9467
:10464000340388E80E94BB0A83E00E94BB0A61E051
:10465000F801868D0E943403C6010197F1F760E0EE
:10466000D8015E968C910E94340388E90E94BB0AAF
:1046700080E00E94BB0A80E00E94BB0A80E00E94AA
:10468000BB0A80E00E94BB0A61E0F801868D0E94AF
:104690003403C5010197F1F760E0D8015E968C9173
:1046A0000E94340380EE0E94BB0A61E0F801868D0F
:1046B0000E9434030E5F1F4FF5E00A391F0709F00F
:1046C0005ECF01E023E042E06BE6809186050E9428
:1046D000381200E022E044E06BE1809186050E9400
:1046E000381222E044E06CE1809186050E94381285
:1046F000F090860528EE33E08E010F5F1F4FA80172
:104700006BE68F2D0E94B71189818F7B8983299653
:104710008FAF2997AE01485B5F4F6BE68F2D0E94EC
:10472000D10660E08CE10E941A0460E08DE10E94F5
:104730001A04809149058C3008F047C061E088E098
:104740000E941A048091490525E0829FF0011124FE
:10475000EE50FB4F9081907C98609083138214827E
:104760002CE0622F0E94122B829FB001112430E0B6
:1047700020E095E0AB01420F531F949FF001959FFD
:10478000F00D1124EE50FB4F408146FD13C02F5F0A
:104790003F4F2C30310571F781110CC01092800011
:1047A00082E080938100109285001092840086BB85
:1047B00080936F00E091490535E0E39FF0011124FB
:1047C000EE50FB4F80818064808380E090E0A0E821
:1047D000BEE380934A0590934B05A0934C05B0939C
:1047E0004D058DEC9CECACECBDE380934E059093B5
:1047F0004F05A0935005B0935105109252051092A9
:10480000530510925405109255058FE692E1A3E8E6
:10481000BAE38093760590937705A0937805B093DB
:10482000790588EC90E0A0E0B0E080936605909375
:104830006705A0936805B09369058DEC9CECACE42A
:10484000BEE38093620590936305A0936405B093E3
:1048500065058AE898E0909357058093560581E7AF
:1048600093E190935905809358051E0181E1280E2C
:10487000311C0E947E082091840330918503621BC5
:10488000730B81099109633371058105910508F462
:104890009FC2A1E0B2E0BA83A9831B821D821C8261
:1048A000E6E0F0E0EC0FFD1FFF8BEE8B188E84E04E
:1048B000898F8FEF8A8F1F8E0E947E084B015C01CB
:1048C00019A308A327EB32E03BA32AA3CE018096CD
:1048D0000E94161C7C01009781F0B8010E94A60F6F
:1048E000D70114968C9114978078886014968C93D5
:1048F000F70180829182A282B38280915C059091BF
:104900005D05A0915E05B0915F0588A399A3AAA358
:10491000BBA31CAB0BAB2CEB32E03EAB2DABBE0113
:10492000605E7F4FCE01C3960E94541C6091370594
:1049300070913805072E000C880B990B0E94922964
:1049400020912F053091300540913105509132056D
:104950000E94F129209133053091340540913505AD
:10496000509136050E943B2B68A379A38AA39BA391
:104970001CAB0BAB83EC92E09EAB8DABBE01605EDB
:104980007F4FCE01C3960E94541C609137057091F1
:1049900038058091390590913A05681B790B072EEF
:1049A000000C880B990B0E94922920912F053091C1
:1049B000300540913105509132050E94F12968A3DC
:1049C00079A38AA39BA31CAB0BAB82EC92E09EABBA
:1049D0008DABBE01605E7F4FCE01C3960E94541C1A
:1049E00060913705709138058091390590913A05AD
:1049F000681B790B80913B0590913C05681B790BF6
:104A0000072E000C880B990B0E94922920912F05EC
:104A10003091300540913105509132050E94F129C5
:104A200068A379A38AA39BA31CAB0BAB81EC92E098
:104A30009EAB8DABBE01605E7F4FCE01C3960E94E0
:104A4000541C60913705709138058091390590911B
:104A50003A05681B790B072E000C880B990B0E94F6
:104A6000922920912F0530913005409131055091C8
:104A700032050E94F1299B01AC010E943B2B2BEDDA
:104A80003FE049E450E40E94F1292DEC3CEC4CEC71
:104A90005DE30E94F12968A379A38AA39BA31CABC1
:104AA0000BAB89EC92E09EAB8DABBE01605E7F4F9D
:104AB000CE01C3960E94541C0E9424029CAB8BAB77
:104AC00019A308A38FEC92E09BA38AA3BE016D5C9F
:104AD0007F4FCE0180960E948C1C8091450590915D
:104AE00046050E94C7016B017C01809147059091AA
:104AF00048050E94C7019B01AC01C701B6010E9495
:104B00003A2B68A379A38AA39BA31CAB0BAB8EECB7
:104B100092E09EAB8DABBE01605E7F4FCE01C3962F
:104B20000E94541CD090610519A308A38BED92E05C
:104B30009BA38AA3CE0180960E94161C7C0100973D
:104B400069F0B8010E94A60FD70114968C911497B2
:104B50008078866014968C931497DC9260916A0535
:104B600070916B0580916C0590916D050E94902964
:104B700068A379A38AA39BA31CAB0BAB82EE92E044
:104B80009EAB8DABBE01605E7F4FCE01C3960E948F
:104B9000541C80910302909104029CAB8BAB19A32F
:104BA00008A381EB92E09BA38AA3BE016D5C7F4FBB
:104BB000CE0180960E948C1C8091A0059091A10549
:104BC0001FA618AA19AA1AAA99A388A31BA21AA2F7
:104BD000DD24D394D9A682E090E09FA38EA3DAA629
:104BE00052E0C52EC8A6BE016D5C7F4FCE018096F7
:104BF0000E9482128093A205EBA8FCA863E0F694C1
:104C0000E7946A95E1F7EE0CFF1CEE0CFF1C809117
:104C1000A0059091A1051FA618AA19AA1AAA99A3DE
:104C200088A31BA21AA2D9A681E090E09FA38EA31D
:104C3000DAA6C8A6BE016D5C7F4FCE0180960E94A9
:104C400082128093A2056BA97CA9072E000C880B09
:104C5000990B0E9492292AE037ED43E25CE30E941F
:104C6000F12920E030E04AE754E40E94BE2B4B01DA
:104C70005C01B701FF0C880B990B0E9492292FE66B
:104C800032E143E85AE30E94F1299B01AC01C501DE
:104C9000B4010E943B2B68A379A38AA39BA31CABFE
:104CA0000BAB8DEE92E09EAB8DABBE01605E7F4F95
:104CB000CE01C3960E94541C8091A0059091A1053D
:104CC00026961CAE1DAE1EAE1FAE26979CAB8BABC0
:104CD0001EAA1DAADCAE85E090E09AAF89AFDDAEDA
:104CE000CBAE4091A4055091A5056091A6057091A9
:104CF000A705CE01C3960E940E078091A005909152
:104D0000A1051FA618AA19AA1AAA99A388A31BA2CB
:104D10001AA2D9A684E090E09FA38EA3DAA6C8A623
:104D2000BE016A5B7F4FCE0180960E948212809303
:104D3000A20528966EAD7FAD2897072E000C880B34
:104D4000990B0E9492296B017C016091A8057091DA
:104D5000A9058091AA059091AB050E9490299B011D
:104D6000AC01C701B6010E94BE2B20E030E04AE74B
:104D700054E40E94BE2B68A379A38AA39BA31CAB17
:104D80000BAB85EF92E09EAB8DABBE01605E7F4FBB
:104D9000CE01C3960E94541C85E594E099A388A394
:104DA0001BA21AA21DA30CA3BE01605E7F4FCE0101
:104DB0004B960E945E148CE892E00E947713C80123
:104DC0000E945D0F0E947E087093850360938403A8
:104DD000E0910302F0910402E930F10508F07FC090
:104DE0008827EA50F94D8F4F0C94322BBC2872283B
:104DF0003F288F28FF26A6289E28B728B2280E9481
:104E00007E0840915A0350915B039A012C593F4F01
:104E10002617370708F42FC1FB01E41BF50BBF0170
:104E200090E080E00E94902920E030E040E251E4F0
:104E30000E94BE2B4B015C010E94A72B2B013C0161
:104E4000C501B4010E94662C0E94372C6B0190E0D2
:104E500080E00E9490299B01AC01C501B4010E9431
:104E60003A2B4B015C01CC0CDD1CCC0CDD1C9601FB
:104E7000265A3C4F6901AC019B0160E070E080E87C
:104E80009FE30E943A2BD60112962D913D914D91B0
:104E90005C9115970E94F1296B017C01C301B2015D
:104EA0000E94372C660F771F660F771F665A7C4F5C
:104EB000FB012281338144815581C501B4010E94E7
:104EC000F1299B01AC01C701B6010E943B2B609305
:104ED0005C0570935D0580935E0590935F050E946D
:104EE00024022091450530914605309348052093D2
:104EF0004705909346058093450560E08091B6058F
:104F00000E94340380E60E94BB0A6801780180E0B9
:104F10000E94BB0A90E0B0E0A0E0F701819391937A
:104F2000A193B1937F012E163F0689F761E080912E
:104F3000B6050E94340340E050E0BA01F6018191C9
:104F40009191A191B1916F01762F652F542F442734
:104F5000480F591F6A1F7B1FEE16FF0679F78091D5
:104F60003705909138052091390530913A05DC01DB
:104F7000A21BB30BB0933C05A0933B0590933A055D
:104F80008093390570956095509541955F4F6F4FAF
:104F90007F4F50933805409337050E947E08C0909C
:104FA0006E05D0906F05E0907005F09071056C155E
:104FB0007D058E059F0508F45BC080916005882300
:104FC00009F456C00E947E08C0906605D09067051F
:104FD000E0906805F0906905DC01CB018C0D9D1D0A
:104FE000AE1DBF1D80936E0590936F05A093700555
:104FF000B0937105C0905C05D0905D05E0905E05B2
:10500000F0905F05E0915605F091570519959B01C9
:10501000AC01C701B6010E943A2B6B017C019F775E
:10502000209176053091770540917805509179056A
:105030000E948B2987FFA5C081E0809361051092B3
:105040006005E0915A05F0915B05309709F01995DC
:1050500080916E0590916F05A0917005B0917105DA
:105060008093720590937305A0937405B0937505B2
:105070000E94E91BFECB60E070E0CB0128CF60917D
:10508000370570913805072E000C880B990B0E948C
:10509000922920912F053091300540913105509192
:1050A00032050E94F1292091330530913405409159
:1050B0003505509136050E943B2B20E030E0A901D8
:1050C0000E948B294DEC5CEC6CEC7DEB87FF04C0FF
:1050D0004DEC5CEC6CEC7DE3705882EB95E00E944B
:1050E0009409FDCE80914505909146050E94C70127
:1050F0006B017C0180914705909148050E94C70192
:105100009B01AC01C701B6010E943A2B2DEC3CEC8F
:105110004CE45EEB0E94F129AB01BC01DDCF40E025
:1051200050E060E070E882EB95E00E9494090E94F4
:105130007E08643F71408105910518F490E080E09D
:1051400002C084EB90E00E943A02C9CE80E090E079
:10515000A0E0B0E480935C0590935D05A0935E05AC
:10516000B0935F054DEC5CEC6CE47EE3B6CF4DECA8
:105170005CEC6CE47EEBB1CF40E050E060E070E8C6
:10518000ACCFE0915805F09159052B96FFAFEEAFEB
:105190002B970E947E088090720590907305A090D6
:1051A0007405B0907505681979098A099B0960939F
:1051B0006A0570936B0580936C0590936D05209143
:1051C0007E0530917F054091800550918105C70192
:1051D000B6010E943B2B60937E0570937F05809300
:1051E00080059093810580907A0590907B05A09032
:1051F0007C05B0907D05A50194010E94BE2C181677
:1052000044F480927E0590927F05A0928005B09232
:105210008105B7FAB094B7F8B094A50194016091F4
:105220007E0570917F0580918005909181050E9497
:105230008B2987FF08C080927E0590927F05A092FF
:105240008005B09281058090620590906305A090E2
:105250006405B090650520917E0530917F054091F1
:1052600080055091810560914E0570914F058091A8
:105270005005909151050E94F129A50194010E94C9
:10528000F1292B013C0120914A0530914B054091B9
:105290004C0550914D05C701B6010E94F1299B01B3
:1052A000AC01C301B2010E943B2B2B013C012091B8
:1052B0008205309183054091840550918505C70191
:1052C000B6010E943A2B209152053091530540912E
:1052D0005405509155050E94F129A50194010E94A1
:1052E000BE2B9B01AC01C301B2010E943B2BC092BB
:1052F0008205D0928305E0928405F09285052B9675
:10530000EEADFFAD2B971995A3CE8091A00590919E
:10531000A1050C945F2D0E94CD2908F481E0089529
:10532000E89409C097FB3EF490958095709561953F
:105330007F4F8F4F9F4F9923A9F0F92F96E9BB27F5
:105340009395F695879577956795B795F111F8CF71
:10535000FAF4BB0F11F460FF1BC06F5F7F4F8F4FDC
:105360009F4F16C0882311F096E911C0772321F0D2
:105370009EE8872F762F05C0662371F096E8862F6A
:1053800070E060E02AF09A95660F771F881FDAF7C1
:10539000880F9695879597F90895990F0008550FEE
:1053A000AA0BE0E8FEEF16161706E807F907C0F0AB
:1053B00012161306E407F50798F0621B730B840BB3
:1053C000950B39F40A2661F0232B242B252B21F48D
:1053D00008950A2609F4A140A6958FEF811D811D2D
:1053E00008950E94042A0C94752A0E94672A38F0B6
:1053F0000E946E2A20F0952311F00C945E2A0C94E2
:10540000642A11240C94A92A0E94862A70F3959F7D
:10541000C1F3950F50E0551F629FF001729FBB27AB
:10542000F00DB11D639FAA27F00DB11DAA1F649F47
:105430006627B00DA11D661F829F2227B00DA11DFA
:10544000621F739FB00DA11D621F839FA00D611D80
:10545000221F749F3327A00D611D231F849F600DA1
:10546000211D822F762F6A2F11249F5750409AF0CA
:10547000F1F088234AF0EE0FFF1FBB1F661F771F56
:10548000881F91505040A9F79E3F510580F00C9421
:105490005E2A0C94A92A5F3FE4F3983ED4F38695E4
:1054A00077956795B795F795E7959F5FC1F7FE2BC1
:1054B000880F911D9695879597F9089597F99F679D
:1054C00080E870E060E008959FEF80EC089500248C
:1054D0000A941616170618060906089500240A9459
:1054E00012161306140605060895092E0394000CDF
:1054F00011F4882352F0BB0F40F4BF2B11F460FF6E
:1055000004C06F5F7F4F8F4F9F4F089557FD905896
:10551000440F551F59F05F3F71F04795880F97FB77
:10552000991F61F09F3F79F0879508951216130631
:105530001406551FF2CF4695F1DF08C01616170660
:105540001806991FF1CF8695710561050894089595
:10555000E894BB2766277727CB0197F90895052E96
:1055600097FB1EF400940E94C62A57FD07D00E94A4
:10557000E12A07FC03D04EF40C94C62A50954095BE
:10558000309521953F4F4F4F5F4F089590958095EF
:10559000709561957F4F8F4F9F4F08950E94032B09
:1055A000A59F900DB49F900DA49F800D911D112477
:1055B0000895B7FF0C94CE2A0E94CE2A821B930B2B
:1055C0000895A1E21A2EAA1BBB1BFD010DC0AA1F44
:1055D000BB1FEE1FFF1FA217B307E407F50720F05C
:1055E000A21BB30BE40BF50B661F771F881F991FD7
:1055F0001A9469F760957095809590959B01AC0120
:10560000BD01CF010895A29FB001B39FC001A39F28
:10561000700D811D1124911DB29F700D811D1124EB
:10562000911D0895991B79E004C0991F961708F001
:10563000961B881F7A95C9F780950895AA1BBB1BF6
:1056400051E107C0AA1FBB1FA617B70710F0A61B82
:10565000B70B881F991F5A95A9F780959095BC01A3
:10566000CD010895EE0FFF1F881F8BBF0790F691A5
:10567000E02D19945058BB27AA270E94522B0C9456
:10568000752A0E94672A38F00E946E2A20F039F4A9
:105690009F3F19F426F40C94642A0EF4E095E7FB7E
:1056A0000C945E2AE92F0E94862A58F3BA176207E3
:1056B00073078407950720F079F4A6F50C94A82ABF
:1056C0000EF4E0950B2EBA2FA02D0B01B90190011D
:1056D0000C01CA01A0011124FF27591B99F0593F61
:1056E00050F4503E68F11A16F040A22F232F342FA9
:1056F0004427585FF3CF469537952795A795F040F7
:105700005395C9F77EF41F16BA0B620B730B840B0B
:10571000BAF09150A1F0FF0FBB1F661F771F881FC3
:10572000C2F70EC0BA0F621F731F841F48F487951B
:1057300077956795B795F7959E3F08F0B0CF93950D
:10574000880F08F09927EE0F9795879508950E9486
:10575000A62C90F09F3748F4911116F40C94A92AC6
:1057600060E070E080E89FE3089526F01B16611D5D
:10577000711D811D0C947D2C0C94982C0E94D22BB1
:105780000C94752A0E946E2A58F00E94672A40F0F5
:1057900029F45F3F29F00C945E2A51110C94A92A38
:1057A0000C94642A0E94862A68F39923B1F3552346
:1057B00091F3951B550BBB27AA2762177307840724
:1057C00038F09F5F5F4F220F331F441FAA1FA9F3BA
:1057D00035D00E2E3AF0E0E832D091505040E695A8
:1057E000001CCAF72BD0FE2F29D0660F771F881F09
:1057F000BB1F261737074807AB07B0E809F0BB0BFC
:10580000802DBF01FF2793585F4F3AF09E3F51050F
:1058100078F00C945E2A0C94A92A5F3FE4F3983E3A
:10582000D4F3869577956795B795F7959F5FC9F7F8
:10583000880F911D9695879597F90895E1E0660F79
:10584000771F881FBB1F621773078407BA0720F0F2
:10585000621B730B840BBA0BEE1F88F7E09508955B
:105860000E94372C6894B1110C94A92A08950E94C3
:105870008E2A88F09F5798F0B92F9927B751B0F02A
:10588000E1F0660F771F881F991F1AF0BA95C9F7C4
:1058900014C0B13091F00E94A82AB1E008950C9490
:1058A000A82A672F782F8827B85F39F0B93FCCF343
:1058B000869577956795B395D9F73EF49095809541
:1058C000709561957F4F8F4F9F4F08950E94A62C32
:1058D00090F09F3748F4911116F00C94A92A60E0DB
:1058E00070E080E89FEB089526F41B16611D711D82
:1058F000811D0C947D2C0C94982C882371F47723B3
:1059000021F09850872B762F07C0662311F4992732
:105910000DC09051862B70E060E02AF09A95660FDA
:10592000771F881FDAF7880F9695879597F908955E
:105930009F3F31F0915020F4879577956795B79503
:10594000880F911D9695879597F908950E948E2A44
:10595000A0F0BEE7B91788F4BB279F3860F416168D
:10596000B11D672F782F8827985FF7CF8695779599
:105970006795B11D93959639C8F308950E94CD2976
:1059800008F48FEF08950F931F93CF93DF93823026
:10599000910510F482E090E0E091C605F091C70512
:1059A00030E020E0B0E0A0E0309799F42115310517
:1059B00009F44AC0281B390B24303105D8F58A81F7
:1059C0009B816115710589F1FB0193838283FE013F
:1059D00011C0408151810281138148175907E0F0BD
:1059E0004817590799F4109761F012960C93129783
:1059F00013961C933296CF01DF91CF911F910F9197
:105A000008950093C6051093C705F4CF21153105FD
:105A100051F04217530738F0A901DB019A01BD018B
:105A2000DF01F801C1CFEF01F9CF9093C705809353
:105A3000C605CDCFFE01E20FF31F81939193225053
:105A4000310939832883D7CF2091C4053091C5050A
:105A5000232B41F420910702309108023093C505B1
:105A60002093C405209105023091060221153105CD
:105A700041F42DB73EB74091090250910A02241B10
:105A8000350BE091C405F091C505E217F307A0F4CA
:105A90002E1B3F0B2817390778F0AC014E5F5F4F84
:105AA0002417350748F04E0F5F1F5093C5054093EC
:105AB000C405819391939FCFF0E0E0E09CCFCF931A
:105AC000DF930097E9F0FC01329713821282A091D4
:105AD000C605B091C705ED0130E020E01097A1F4B4
