:100000000C94DC010C940D020C940D020C940D0266
:100010000C940D020C940D020C940D020C940D0224
:100020000C940D020C940D020C940D020C940D0214
:100030000C940D020C943C1F0C940D020C940D02B8
:100040000C940D020C9439200C940D020C940D02AA
:100050000C940D020C940D020C940D020C94F21EE3
:100060000C940D020C9403200C94D91F0C940D02D7
:100070000C940D020C940D020C940D020C940D02C4
:100080000C940D020C940D020C940D020C940D02B4
:100090000C940D020C940D020C940D020C94CE1DC8
:1000A0000C940D020C940D020C940D020C940D0294
:1000B0000C940D020C940D020C940D020C940D0284
:1000C0000C940D020C940D020C940D020C940D0274
:1000D0000C940D020C940D020C940D020C940D0264
:1000E0000C940D0205A84CCDB2D44EB93836A902F5
:1000F0000C50B9918688083CA6AAAA2ABE00000026
:10010000803F0C9459280C94FD0C0C94F20A0C942A
:10011000200B0C94A0030C9492020C94742A0C945F
:10012000570B0C9496030C94A4030C94F52D0C948B
:10013000FB280C9443290C94E1200C94ED0A0C94B8
:10014000120D0C94E4070C942A0B0C9499290C942E
:10015000B5290C9439180C945A140C9481290C94D8
:1001600069030C945F030C946D030C94362A0C9471
:10017000082A0C947E030C94672A0C94E0290C94B2
:10018000FC0A0C9437080C94C0280C9486290C9413
:1001900023080C94060B0C94072E0C9408180C944E
:1001A000D2070C94CA080C94220D0C94100B0C94DA
:1001B0006B0B0C947D080C944D0B0C9474030C94F5
:1001C000DC0A0C947A030C946E2A0C949A030C9417
:1001D0002D0D0C9471030C943E280C9465030C9423
:1001E000BD290C9453140C94BC020C94BB020C94C7
:1001F000DE020C9416290C9475180C9445080C9486
:10020000610B0C9484030C9412030C94DB070C9484
:100210003E0B0C948C030C94A52D0C94CB020C94E7
:1002200093020C94502A0C94750B0C94180B0C949C
:1002300014080C94452D0C947F0B0C94792A0C9483
:10024000EE280C94E5020C9411080C9492030C9483
:100250009F030C9488030C94F4290C94340B0C9495
:10026000FA2DCDCCCC3D0AD7233C17B7D13877CC6B
:100270002B329595E6241FB14F0A00002041000063
:10028000C84200401C4620BCBE4CCA1B0E5AAEC51C
:100290009D740200002100240027002A002D003058
:1002A00000330001010000040107010A01000022DF
:1002B00000250028002B002E003100340002010030
:1002C00000050108010B0100002000230026002981
:1002D000002C002F0032000001000003010601097C
:1002E0000105050505070508080808020202020ABB
:1002F0000A080804040404010101010101010103C9
:1003000003030303030303040707070C0C0C0C0C83
:100310000C0C0C0202020206060606060606060B76
:100320000B0B0B0B0B0B0B010210202008081020ED
:100330004010204080020102010804020101020471
:100340000810204080804020100804020180040230
:100350000180402010080402010804020101020487
:100360000810204080010204081020408000000A8C
:100370000B02090C0D0E0807030401000000000029
:10038000000000000000000000000000000000006D
:10039000000000000000000000121110000000002A
:1003A000000000000000000000000000000000004D
:1003B00000000000E120072E11241FBECFEFD1E284
:1003C000DEBFCDBF00E00CBF12E0A0E0B2E0E2E68D
:1003D000F7E600E00BBF02C007900D92A63EB10702
:1003E000D9F725E0A6EEB2E001C01D92A33DB20709
:1003F000E1F711E0CBEDD1E000E006C02197010963
:10040000802FFE010E94BC2FCA3DD10780E0080763
:10041000A9F70E9437230C949F330C940000CF92CD
:10042000DF92EF92FF92CF93DF93C091A005CC3083
:1004300008F040C025E0C29FE0011124CC57DB4FFB
:100440002B8138E8C32ED12CC21AD10827FDD394B2
:10045000CC0CDD1CCC0CDD1C0D2C000CEE08FF08B8
:100460004C8128E532E0241B310947FD3395220FEA
:10047000331F220F331F032E000C440B550B2C1976
:100480003D094E095F09DC010E94632F24EB30E037
:1004900040E050E00E94392FC20ED31EE41EF51E2C
:1004A0008FB7F89496E0C91AD108CC0CDD1CDA821B
:1004B000C9828FBFDF91CF91FF90EF90DF90CF90F7
:1004C0000895CF93DF93EC0188819981DC01ED9150
:1004D000FC910190F081E02D64E270E019950097A5
:1004E00041F02FE1FC01238321E02283DF91CF91B2
:1004F000089521E02A83FACF80917B00877F809343
:100500007B0087E480937C0080917A0080648093F4
:100510007A0080917A0086FDFCCF809178009091DE
:10052000790008950895089520914203260F3327F6
:10053000331F21323105ECF42091B103FC0190E02E
:1005400080E0243069F082E00895A0914203219177
:10055000AC014E5D5C4FA40FB52FB11D2C930196DD
:10056000861798F380914203680F6093420380E0FE
:10057000089581E008950895E0918A0380918903A8
:10058000E81730F4F0E0EB59FC4F808190E00895DB
:100590008FEF9FEF089590918A03809189032FEF49
:1005A0003FEF981748F4E92FF0E0EB59FC4F20811A
:1005B00030E09F5F90938A03C90108958091890379
:1005C00090918A03891B990B0895CF92DF92EF9245
:1005D000FF920F931F93CF93DF937C01CB018A018E
:1005E0002091B703222389F0EB016B01C40ED51EC5
:1005F000CC15DD0569F06991D701ED91FC91019071
:10060000F081E02DC7011995F3CF642F0E94940269
:10061000C801DF91CF911F910F91FF90EF90DF9074
:10062000CF900895CF93DF931F92CDB7DEB7698344
:100630002091B7032223F9F02091DA03203258F0F9
:1006400021E030E0FC013383228390E080E00F90D2
:10065000DF91CF9108958091B803E82FF0E0E7543F
:10066000FC4F998190838F5F8093B8038093DA0366
:1006700081E090E0ECCF61E0CE0101960E9494020F
:10068000F7CF8150823108F05AC0E82FF0E0882778
:10069000E35BFC4F8F4F0C94BC2F6D0371035F0322
:1006A000650369039F0374037A037E03840388034D
:1006B0008C03920396039F039A03A003A4038091E3
:1006C00080008F77809380000895809180008F7DD7
:1006D000F9CF80918000877FF5CF84B58F7784BD77
:1006E000089584B58F7DFBCF8091B0008F77809384
:1006F000B00008958091B0008F7DF9CF8091900077
:100700008F77809390000895809190008F7DF9CF2E
:1007100080919000877FF5CF8091A0008F778093A4
:10072000A00008958091A0008F7DF9CF8091A00056
:10073000877FF5CF809120018F77809320010895E6
:10074000809120018F7DF9CF80912001877FF5CFA7
:10075000CF93DF93282F30E0F901E359FC4F8491C8
:10076000F901E95DFC4FD491F901EF51FD4FC491BE
:10077000CC23A1F081110E944103EC2FF0E0EE0F99
:10078000FF1FE953FD4FA591B491EC91ED2381E05A
:1007900090E009F480E0DF91CF91089580E090E04F
:1007A000FACF1F93CF93DF93282F30E0F901E3595D
:1007B000FC4F8491F901E95DFC4FD491F901EF51AF
:1007C000FD4FC491CC23A9F0162F81110E94410343
:1007D000EC2FF0E0EE0FFF1FE355FD4FA591B49114
:1007E0008FB7F894EC91111108C0D095DE23DC93FB
:1007F0008FBFDF91CF911F910895DE2BF8CFFC01C1
:1008000083858F3F19F061E00C94D1030895FC01BA
:1008100080819181892B39F0A281B3819C911196BD
:100820008C919CBD8DBD83858F3F19F060E00C9449
:10083000D10308951092B10381E08093B003109228
:100840008B0361E084E10E94D10361E085E10E94B5
:10085000D103E9EBF0E080818E7F808380818D7F02
:10086000808388E48093B80085E48093BC00089579
:10087000CF93DF9391E0909321038823B9F0C09147
:10088000B800D091BA008091BC008A7B8093BC00F4
:1008900060E084E10E94D10360E085E10E94D10321
:1008A0000E941A04D093BA00C093B800DF91CF9190
:1008B0000895CF93DF9390E0FC01E95DFC4F249114
:1008C0008F519D4FFC0184918823D1F090E0880FD7
:1008D000991FFC01ED56FD4FA591B491FC01E35524
:1008E000FD4FC591D49161110EC09FB7F8948C91C2
:1008F000E22FE0958E238C932881E223E8839FBF2B
:10090000DF91CF9108958FB7F894EC91E22BEC939F
:100910008FBFF6CF8230910538F0880F991F880F6E
:10092000991F05970197F1F70895AF92BF92CF9263
:10093000DF92EF92FF920F931F93CF93DF93EC011F
:1009400088819981892B89F06EBD0DB407FEFDCF9A
:10095000BEB48B2DDF91CF911F910F91FF90EF903F
:10096000DF90CF90BF90AF9008958885998511E072
:10097000892B09F010E8AA24A394862F812309F07B
:10098000A12C062F2C813D814E815F8160E271EAAE
:1009900087E090E00E946B2FF22EB02EE12CC22E49
:1009A000D12CFF2019F0C6010E948A048A85877F16
:1009B00009F042C08D858F3F89F0902F912381E00F
:1009C00009F480E08A1551F0EF85F8898F89992321
:1009D00069F19081892B8083AA24A394E989FA89FB
:1009E0008081998D892B8083FF2019F0C6010E9498
:1009F0008A048E858F3F39F0EB89FC898081988D40
:100A0000892309F0E12AE989FA899081898D809505
:100A1000892380838E858F3F09F0BE2C8885998538
:100A2000892BB9F5110F1111BCCF93CF908180950F
:100A300089238083A12CD2CFE989FA898081998D7D
:100A4000892B8083FF2019F0C6010E948A048D85BE
:100A50008F3F49F0EF85F8898F89902F9123A9F076
:100A60009081892B8083E989FA899081898D80958D
:100A7000892380838E858F3F69F2EB89FC89808191
:100A8000988D892339F2E12AC5CF908180958923F9
:100A9000E9CF1695C8CF8F929F92AF92BF92CF9217
:100AA000DF92EF92FF920F931F93CF93DF937C011E
:100AB0004B016A01B22EA32E0E940704E401C80C68
:100AC000D91CCC15DD0569F4CB2DDA2D0C0F1D1FBB
:100AD000C017D10759F06FEFC7010E9495048993A1
:100AE000F7CF6991C7010E949504EBCFC7010E941F
:100AF000FF0381E0DF91CF911F910F91FF90EF9065
:100B0000DF90CF90BF90AF909F908F9008958F927D
:100B10009F92AF92BF92CF92DF92EF92FF920F938C
:100B20001F93CF93DF937C01B62EA72E6A01490154
:100B30000E940704E401080D191DC017D10761F4D4
:100B4000CB2DDA2DCC0EDD1ECC15DD0551F06991D3
:100B5000C7010E949504F8CF6991C7010E949504CE
:100B6000ECCFC7010E94FF0381E0DF91CF911F917D
:100B70000F91FF90EF90DF90CF90BF90AF909F903C
:100B80008F9008953FB7F89480911D0390911E03B4
:100B9000A0911F03B091200326B5A89B05C02F3F4D
:100BA00019F00196A11DB11D3FBFBA2FA92F982F93
:100BB0008827BC01CD01620F711D811D911D42E08E
:100BC000660F771F881F991F4A95D1F708958F9256
:100BD0009F92AF92BF92CF92DF92EF92FF920F93CC
:100BE0001F93CF93DF93D091DA03D13208F0D7C0AF
:100BF000182FC091D9030E94C2056B017C0180911E
:100C0000B10381116BC082E08093B1031093B003F4
:100C10008FEF8093AF031092AE03D093AD03A9EB97
:100C2000B3E0EDE8F3E080E0D81391C010928C03BC
:100C300080918C03CC0FC82BC0938C0380918B03C5
:100C4000813009F088C010928B030E94C2056B01AD
:100C50007C0180918C038093BB008091B3039091C1
:100C6000B403A091B503B091B603892B8A2B8B2BCB
:100C7000A1F00E94C2050091B3031091B40320912A
:100C8000B5033091B6036C197D098E099F090617CB
:100C900017072807390708F442C08091BC0083FD7C
:100CA000D8CF85EC8093BC000E94C2056B017C010B
:100CB0008091B103823009F450C08091AF038F3F1F
:100CC00009F46FC08091AF03803209F46CC0809149
:100CD000AF03803309F469C084E026C08091B30378
:100CE0009091B403A091B503B091B603892B8A2BE0
:100CF0008B2B09F484CF0E94C2058090B30390909F
:100D0000B403A090B503B090B6036C197D098E09A9
:100D10009F0986169706A806B90608F070CF80913D
:100D2000B2030E94380485E01092B8031092DA03EF
:100D30001092B703DF91CF911F910F91FF90EF9029
:100D4000DF90CF90BF90AF909F908F9008959D912E
:100D500091938F5F69CF85EEA5CF8091B30390917A
:100D6000B403A091B503B091B603892B8A2B8B2BCA
:100D700009F49ECF0E94C2050091B3031091B40301
:100D80002091B5033091B6036C197D098E099F0936
:100D9000061717072807390708F08ACFC0CF81E068
:100DA000C3CF80E0C1CF82E0BFCF83E0BDCF1F9330
:100DB000CF93DF93EA01122FDC0111968D919C9164
:100DC000DC01ED91FC910280F381E02D1995C817AB
:100DD000D90729F4812F0E94E70591E0811190E065
:100DE000892FDF91CF911F910895CF92DF92EF92DB
:100DF000FF920F931F93CF93DF931F921F92CDB754
:100E0000DEB7FC014787508B618B728B828588230C
:100E100071F14487452F562F672F7727882349F193
:100E200043877F018BE0E80EF11C968187819983CF
:100E30008A83C080D180C114D10409F443C00185E4
:100E400010E098012E5F3F4FD60114968D919C9132
:100E50008217930780F480E00F900F90DF91CF917D
:100E60001F910F91FF90EF90DF90CF9008954387EF
:100E7000D1CF4487D6CFF60181819281208131E0A4
:100E80003093B7032093D9031092B8031092DA037A
:100E90000115110541F421E042E050E0B701C6011F
:100EA0000E94D706D9CFDC01ED91FC910280F3813D
:100EB000E02DA801BE016F5F7F4F19950817190734
:100EC00051F6E9CFA281B381109729F224813581AF
:100ED000018510E02330310579F48E7F89839A8370
:100EE0000F5F1F4F9E012F5F3F4F42E050E0B70161
:100EF000CD010E948705B0CF2115310519F49F77E8
:100F00009983F0CF2230310511F49068F9CF213068
:100F1000310541F79F779064F3CFCF93DF93EC01D6
:100F20008B818823A1F0888191E09093B70380930F
:100F3000D9031092B8031092DA0381E00E94E7050A
:100F400091E0811190E0892FDF91CF910895109267
:100F50008A03109289031092B8031092DA030E9458
:100F60001A0482E992E0909386038093850383E9D3
:100F700092E0909388038093870381E08B83CE0176
:100F80000E948D07982F8111CECFDDCF2FB7F89417
:100F90006091190370911A0380911B0390911C03B7
:100FA0002FBF08956091EB047091EC048091ED04E3
:100FB0009091EE0408956091E7047091E8048091A7
:100FC000E9049091EA040895AF92BF92CF92DF9224
:100FD000EF92FF920F931F93CF93DF936C017B01EE
:100FE0008B01040F151FEB015E01AE18BF08C0177F
:100FF000D10759F06991D601ED91FC910190F081F2
:10100000E02DC6011995892B79F7C501DF91CF91A4
:101010001F910F91FF90EF90DF90CF90BF90AF9016
:10102000089590E080E00895FC01538D448D252FB4
:1010300030E0842F90E0821B930B541710F0CF9672
:10104000089501970895FC01918D828D981761F0A4
:10105000A28DAE0FBF2FB11D5D968C91928D9F5FBB
:101060009F73928F90E008958FEF9FEF0895FC019A
:10107000918D828D981731F0828DE80FF11D858D4D
:1010800090E008958FEF9FEF0895FC01918D228DE0
:10109000892F90E0805C9F4F821B91098F73992765
:1010A000089587EE93E00E94450821E0892B09F41A
:1010B00020E0822F0895FC01A48DA80FB92FB11D47
:1010C000A35ABF4F2C91848D90E001968F7399277E
:1010D000848FA689B7892C93A089B1898C9183705C
:1010E00080648C93938D848D981306C00288F38955
:1010F000E02D80818F7D80830895EF92FF920F9382
:101100001F93CF93DF93EC0181E0888F9B8D8C8DB3
:1011100098131AC0E889F989808185FF15C09FB7A7
:10112000F894EE89FF896083E889F989808183706A
:10113000806480839FBF81E090E0DF91CF911F9119
:101140000F91FF90EF900895F62E0B8D10E00F5F3A
:101150001F4F0F731127E02E8C8D8E110CC00FB610
:1011600007FCFACFE889F989808185FFF5CFCE01A8
:101170000E945B08F1CFEB8DEC0FFD2FF11DE35AC0
:10118000FF4FF0829FB7F8940B8FEA89FB8980812B
:101190008062CFCFCF93DF93EC01888D8823B9F0A5
:1011A000AA89BB89E889F9898C9185FD03C0808172
:1011B00086FD0DC00FB607FCF7CF8C9185FFF2CFEF
:1011C000808185FFEDCFCE010E945B08E9CFDF91E2
:1011D000CF9108952F923F924F925F926F927F929C
:1011E0008F929F92AF92BF92CF92DF92EF92FF9237
:1011F0000F931F93CF93DF93EC010E94C6076CA45B
:101200007DA4BEA5AFA5F8A9E9A90AA91BA99B01C0
:10121000AC0160E070E080E090E05301CB2EDA2E6C
:10122000EF2EFE2E0E94D62F08F44EC08E89882302
:1012300009F44AC00E94C6079B01AC0160E070E05F
:1012400080E090E0AC8CBD8CCE8CDF8CE8A0F9A067
:101250000AA11BA10E94C42F2CA73DA74EA75FA7E0
:1012600068AB79AB8AAB9BABCA88DB88EC88FD881E
:10127000EC85FD8519959B01AC01C701B6010E9463
:10128000DF2F2B013C019F772CAD3DAD4EAD5FAD07
:101290000E94152E87FF2BC081E08F8B1E8AE88964
:1012A000F989309709F019958CA58CAB8DA58DAB7C
:1012B0008EA58EAB8FA58FAB88A988AF89A989AF82
:1012C0008AA98AAF8BA98BAFDF91CF911F910F9124
:1012D000FF90EF90DF90CF90BF90AF909F908F9056
:1012E0007F906F905F904F903F902F9008952E8445
:1012F0003F840E94C6079B01AC0160E070E080E083
:1013000090E0ACA8BDA8CEA8DFA8E8ACF9AC0AADC7
:101310001BAD0E94CD2F2CA33DA34EA35FA368A7B6
:1013200079A78AA79BA78E010C5B1F4FF80120812C
:10133000318142815381C301B2010E94E02FF80143
:1013400060837183828393833497C080D180E280ED
:10135000F380A70196010E94F43018162CF4F801CE
:10136000C082D182E282F382F7FAF094F7F8F09427
:10137000A7019601F80160817181828193810E94A9
:10138000152E87FF05C0F801C082D182E282F38268
:10139000C88CD98CEA8CFB8CF80120813181428188
:1013A00053816C817D818E819F810E947B2EA7015C
:1013B00096010E947B2E4B015C01288139814A8174
:1013C0005B81C301B2010E947B2E9B01AC01C50170
:1013D000B4010E94E02F4B015C018E01085B1F4F9E
:1013E000F8012081318142815381C301B2010E9401
:1013F000DF2F288539854A855B850E947B2EA701D2
:1014000096010E944C309B01AC01C501B4010E94C1
:10141000E02FF8014082518262827382F1011995B6
:1014200043CF8F929F92AF92BF92CF92DF92EF9273
:10143000FF920F931F93CF93DF93EC018C859D85D3
:10144000892B71F18E859F85892B51F181E08E8BDF
:101450000E94C6079B01AC0160E070E080E090E074
:10146000AC8CBD8CCE8CDF8CE8A0F9A00AA11BA1AE
:101470000E94C42F2CA73DA74EA75FA768AB79ABEE
:101480008AAB9BAB1F8AFE01EC5BFF4F108211827F
:1014900012821382C85BDF4F188219821A821B8264
:1014A000DF91CF911F910F91FF90EF90DF90CF9040
:1014B000BF90AF909F908F9008958F929F92AF9220
:1014C000BF92CF92DF92EF92FF920F931F93CF9331
:1014D000DF93EC016A017B0120E030E04FE753E449
:1014E000CB01B6010E947B2E4B015C0120E030E075
:1014F000A9010E94F43018168CF5C501B4010E94B0
:10150000BE308B01B98020E030E0A901C701B601EF
:101510000E94F43060E018160CF061E08B2D0E9400
:10152000D1030F3F110509F0ECF41127C88161E0E8
:101530008C2F0E94590401151105B9F460E08C2F1D
:10154000DF91CF911F910F91FF90EF90DF90CF909F
:10155000BF90AF909F908F900C94D103C501B401C0
:101560009058CDCF0FEF10E0E1CF0F3F110511F4F0
:1015700061E0E5CFEC2FF0E0E359FC4FE491E1505E
:10158000E23108F0BCC0F0E08827E653F54F8F4FFA
:101590000C94BC2FDC0AED0AF20AFC0A060B7F0B46
:1015A000100B180B200B2A0B340B3E0B4D0B570B5B
:1015B0007F0B610B6B0B750B84B5806884BD07BD19
:1015C000DF91CF911F910F91FF90EF90DF90CF901F
:1015D000BF90AF909F908F90089584B5806284BD36
:1015E00008BDEECF809180008068809380001093CA
:1015F000890000938800E4CF80918000806280930E
:10160000800010938B0000938A00DACF80918000D5
:1016100088608093800010938D0000938C00D0CF61
:101620008091B00080688093B0000093B300C8CF71
:101630008091B00080628093B0000093B400C0CF6E
:10164000809190008068809390001093990000939F
:101650009800B6CF809190008062809390001093A4
:101660009B0000939A00ACCF80919000886080939B
:10167000900010939D0000939C00A2CF8091A00049
:1016800080688093A0008091A0008F7B8093A00051
:101690001093A9000093A80093CF8091A0008062CE
:1016A0008093A0001093AB000093AA0089CF809193
:1016B000A00088608093A0001093AD000093AC0060
:1016C0007FCF8091200180688093200110932901B1
:1016D0000093280175CF80912001806280932001C2
:1016E00010932B0100932A016BCF80912001886019
:1016F0008093200110932D0100932C0161CF0038BD
:1017000011050CF035CF1ACF8EBD00000DB407FEC9
:10171000FDCF8EB50895CF93DF93EC0160E0888113
:101720000E94D10388E90E94840B80E00E94840B10
:1017300080E00E94840B80E00E94840B80E00E9485
:10174000840B61E088810E94D1038BE891E00197CE
:10175000F1F760E088810E94D10380EE0E94840B43
:1017600061E08881DF91CF910C94D1036F3FB1F09C
:10177000E62FE295EF7044E0E49F90011124DC0134
:10178000ED91FC91E20FF31F6F70B8E06B9FC00109
:10179000112462817381860F971F089590E080E085
:1017A0000895CF93DF93EC0188819981DC01ED915D
:1017B000FC910190F081E02D19952A813B81820FE7
:1017C000931F9B838A83DF91CF910895982F803355
:1017D0006CF08A3324F08F3524F08B3724F481E0C9
:1017E000089581341CF081E09B350CF080E0089571
:1017F000CF93DF93EC0188819981DC01ED91FC911D
:101800000280F381E02D19952A813B81820F931F7D
:101810009B838A83DF91CF9108958F929F92AF929D
:10182000BF92CF92DF92EF92FF920F931F93CF93CD
:10183000DF93CDB7DEB766970FB6F894DEBF0FBE65
:10184000CDBF6C018E01095E1F4F78018AE0882EA2
:10185000912CA12CB12CCB01BA01A50194010E94BD
:101860006B2F942F852F605DF80162938F01A90182
:10187000692F782F411551056105710561F7A701A1
:101880004E1B5F0BBF01C6010E94F80B66960FB698
:10189000F894DEBF0FBECDBFDF91CF911F910F91A6
:1018A000FF90EF90DF90CF90BF90AF909F908F9080
:1018B0000895FC018485811114C0A781B0858185BC
:1018C00092852FEF3FEFA817B90730F4CD010196AD
:1018D000908787832C9130E037FD20E0238781E0DB
:1018E0008487838508951F93CF93DF93EC01162F90
:1018F0000E94590C811306C01C8681E0DF91CF91B4
:101900001F91089580E0FACF0F931F93CF93DF9339
:101910008C01EB018991882369F0C8010E94590C60
:10192000882379F0FE013197908198130DC0F8015A
:101930001486F0CF90E080E0DF91CF911F910F915E
:10194000089582E090E0F8CF83E090E0F5CFCF9368
:10195000DF93EC01CE010E94590C8B304CF489309E
:101960005CF4882359F081E08E8390E080E00BC026
:101970008D3011F08032B9F71C86ECCF8E81811149
:1019800005C081E090E0DF91CF91089582E090E082
:10199000FACFDC01ED91FC91309731F094819F7783
:1019A00081E019F080E0089581E00895CF93DF93FE
:1019B000EC0180911203909113030D9731F420975D
:1019C00009F44BC0DF91CF910895CE30D105D8F402
:1019D000FE018827E151F34F8F4F0C94BC2F2D0D42
:1019E000220DFD0CFD0C2D0D2D0D120D220D220DC5
:1019F0002D0D2D0D2D0D2D0D2D0D1092690587E04E
:101A000095E00E94110AD0931303C09312030E9421
:101A1000C60760930E0370930F0380931003909397
:101A20001103D0CF109207031092060310920903FE
:101A30001092080310920A0310920B0310920C03E9
:101A400010920D03809169058111DDCF83E595E04A
:101A50000E94110A10921D05D6CF10926905FACF87
:101A60004F925F926F927F928F929F92AF92BF92AE
:101A7000CF92DF92EF92FF920F931F93CF93DF935A
:101A8000EB01DC012C912B32D9F12D32D1F50196ED
:101A9000FF24F394FC01208130ED320F3A3018F02E
:101AA0002E3209F042C18C0160E070E0CB01F801F8
:101AB000219130ED832E820E39E0381520F16A39FC
:101AC00049E97407840749E1940738F5AAE0B0E0D2
:101AD0009B01AC010E94582F912CB12CA12C240108
:101AE00035014094509460947094461657066806E9
:101AF000790698F0680D791D8A1D9B1D8F01D7CF3F
:101B00000196F12CC7CF211108C0FF20E9F1613007
:101B10007105810550E89507A0F0E12CBAE08B2E05
:101B2000912CA12CB12C6115710530E8830791052A
:101B3000B0F1A50194010E946B2FCA01B901E39491
:101B4000F2CF2C8120782A602C839B01AC0188275E
:101B50009927DC01821B930BA40BB50B8883998317
:101B6000AA83BB838F2DDF91CF911F910F91FF909F
:101B7000EF90DF90CF90BF90AF909F908F907F902D
:101B80006F905F904F9008952C81207828602C836F
:101B9000688379838A839B83FF24F394E3CFF801DE
:101BA000D8012D918D0130ED320F3A3010F4E394CD
:101BB000F6CF2E3201F58F010F5F1F4FF8010F5F37
:101BC0001F4F2081A0EDDA2ED20EB9E0BD1598F09E
:101BD0006C3CECEC7E07ECE08E07910578F7AAE010
:101BE000B0E09B01AC010E94582F6D0D711D811D4D
:101BF000911DEA94E3CF20812F7D10E000E0253491
:101C000009F05BC021812D32D1F53296CC24C394EA
:101C1000DF0110E000E02E2D0E2C000C330B5AE0FB
:101C2000B52EFD01DD9040ED4D0D4A3008F040C06D
:101C3000B09EA001B19E500D11240D2DDD0C110B95
:101C400000531109040F151FA801420F531F4732FB
:101C500051053CF38C81CC20C9F040E050E060E0BD
:101C600070E8F11003C040E050E0BA0180788C6069
:101C70008C83488359836A837B83FC2C73CF2B32FC
:101C800019F03196C12CC4CF3296FCCF40E050E021
:101C900060E87FEFF11004C040E050E060E87FE7CB
:101CA00080788C608C83488359836A837B8374CF6C
:101CB000CC2019F01195019511092081211135C011
:101CC0000E0D111DE7FC1A950E941A2E3AE7C32E3D
:101CD00032E0D32E101611063CF011950195110932
:101CE00042E6C42E42E0D42EE12C0115110591F0FC
:101CF00000FF0CC024E0E29EF0011124EC0DFD1D5C
:101D000025913591459154910E947B2E159507950B
:101D1000E394EBCFF11090582C8120782C602C8329
:101D2000688379838A839B8337CFF12C1BCFCF9233
:101D3000DF92EF92FF92CF93DF9300D01F921F921A
:101D4000CDB7DEB7FC0184818F778630D9F040F4BF
:101D50008430A9F1853009F43FC090E080E014C0E0
:101D60008A30F1F08C3009F43FC08830B1F78081BF
:101D70009181A281B381811520E89207A105B10567
:101D800060F702C0808190E00F900F900F900F904D
:101D90000F90DF91CF91FF90EF90DF90CF9008955B
:101DA00080819181A281B381AC01BD0150586F4FF8
:101DB0007F4F411551056140710578F6E5CF80816F
:101DC00091811D82BE016F5F7F4F0E94300DCE0159
:101DD00001960E94970ED8CF808191811D82BE010D
:101DE0006F5F7F4F0496F1CFC080D180E280F38097
:101DF00020E030E040E057ECC701B6010E94F4302B
:101E000087FDABCF20E03EEF4FEF56E4C701B601B0
:101E10000E94152E18160CF4A0CFC701B6010E941F
:101E2000BE30CB01B1CFCF92DF92EF92FF92CF9332
:101E3000DF9300D01F921F92CDB7DEB7FC018481E3
:101E40008F778630C1F038F4843019F1853071F124
:101E500090E080E012C08A3021F08C3079F1883037
:101E6000B9F780819181A281B381009721E0A20717
:101E7000B10518F0EDCF808190E00F900F900F909A
:101E80000F900F90DF91CF91FF90EF90DF90CF9068
:101E90000895808191811D82BE016F5F7F4F0E94F6
:101EA000300DCE0101960E94130FE7CF8081918102
:101EB0001D82BE016F5F7F4F0496F1CFC080D1803D
:101EC000E280F38020E030E0A901C701B6010E9462
:101ED000F43087FDBDCF20E03FEF4FE757E4C70167
:101EE000B6010E94152E18160CF4B2CFC701B60128
:101EF0000E94C530CB01C1CFCF93DF9300D01F929A
:101F00001F92CDB7DEB7FC0194819F77963091F098
:101F100030F4943020F560E070E0CB0111C09A30CD
:101F2000B9F09C3051F19830B1F7608171818281B4
:101F3000938104C0608170E090E080E00E941A2EDE
:101F40000F900F900F900F900F90DF91CF91089509
:101F500060817181828193810E941C2EF1CF8081EA
:101F600091811D82BE016F5F7F4F04960E94300DEC
:101F7000CE0101960E947C0FE3CF60817181828146
:101F80009381DECFFC019289915084E0989F90016B
:101F90001124A089B189A20FB31F1296ED91FC9173
:101FA00013973097E9F011962C9111978C9128177F
:101FB000B8F481E0820F11968C9388E0289FA001ED
:101FC0001124E40FF51F309759F014828FEF8583A9
:101FD00017821682BF01892F8295807F820F089514
:101FE00060E070E08FEF0895DF92EF92FF920F9321
:101FF0001F93CF93DF93EC017B01D12C6889798902
:102000008A89D816E0F484E0D89E80011124060F56
:10201000171FD80112966D917C916115710541F0E1
:10202000D701ED91FC910280F381E02DC701199554
:10203000F8011382128210821182D394DFCF1A8AA0
:102040008FEF8C8BC617D70761F0D701ED91FC910C
:102050000280F381E02DC7011995D98BC88B84E0EC
:102060008B8BDF91CF911F910F91FF90EF90DF90BD
:102070000895DB01ED91FC9111970280F381E02D31
:10208000BC01CD0119940F931F93CF93DF93EC0103
:10209000088119818B819C81009749F0FC01208186
:1020A00031813C832B83B8010E943910F3CF6881C2
:1020B0007981CE010596DF91CF911F910F910C94FC
:1020C000F40FCF93DF93EC01E881F981B0E0A0E059
:1020D0003097F9F09F012C5F3F4F62177307A1F40F
:1020E000928191509283911114C0808191811097B7
:1020F00041F08D939C93BA01CF01DF91CF910C9465
:10210000391099838883F7CFDF010190F081E02DAA
:10211000DFCFDF91CF9108958F929F92AF92BF92C0
:10212000CF92DF92EF92FF920F931F93CF93DF93A3
:102130008C01EB01FC01848180FF0AC04881598138
:10214000608171816C5F7F4FCE0103960E946110A8
:10215000F8018481807681F10115110569F1D08043
:102160005E01F5E1AF0EB11C4E0183E0880E911CBB
:10217000EFEFDE16F1F06D2DC5010E94B60B7C016C
:10218000FC01C580848187FF07C048815981668131
:102190007781C4010E946110BE01C7010E948C10AA
:1021A000F701848180788483898D8583D98EDC2CA6
:1021B000DFCFF801D082D182DF91CF911F910F91B3
:1021C000FF90EF90DF90CF90BF90AF909F908F9057
:1021D0000895EF92FF920F931F93CF93DF937C01AB
:1021E0008B01EA016F3F710509F0B0F4E881F981D4
:1021F0000480F581E02DAB014B5F5F4FBC01CE0148
:102200001995009749F0FC010383DF91CF911F914D
:102210000F91FF90EF900895E881F9810280F3819A
:10222000E02DB701CE01199590E080E0EECFFF924E
:102230000F931F93CF93DF93EC01F62E8A819B813E
:102240000097C9F06C817D81FC0123812617170658
:1022500091F408811981F80140815181660F771F3F
:102260006F5F7F4F0E94E910009719F421E0F80199
:1022700022839B838A838A819B81009759F02C81DA
:102280003D81A9014F5F5F4F5D834C83820F931F98
:10229000FC01F482DF91CF911F910F91FF9008957F
:1022A0009F92AF92BF92CF92DF92EF92FF920F93E5
:1022B0001F93CF93DF9300D01F921F92CDB7DEB74D
:1022C0008C010E94590CD82EF8011486F12CE12CB7
:1022D00060EFC62EC8010E94590CF8011486D8166A
:1022E00009F4B3C0811113C082E090E00F900F9009
:1022F0000F900F900F90DF91CF911F910F91FF9052
:10230000EF90DF90CF90BF90AF909F9008958C3565
:1023100009F099C0C8010E94590C882329F3EBE405
:10232000F2E0853709F083C0F801148654E0952E59
:10233000B12CA12CC8010E94590C8823A9F2813428
:1023400034F48053803130F083E090E0CFCF8F7D44
:102350008753F8CF44E0AA0CBB1C4A95E1F7A82AA2
:10236000F80114869A949110E5CFC501985D811506
:10237000944020F47501F3E0FF22ACCFC5019C5DD1
:1023800081159440A8F483E0B822B701762F662720
:10239000770F770F6A297B2990E080E001966038FB
:1023A00071058105910540F4C8010E94171192CF73
:1023B000B50190E080E0F3CF1982262F2F732068BB
:1023C0002A8326E096958795779567952A95D1F784
:1023D0006032710580F4606C6B835E01E4E0AE0EE8
:1023E000B11CF50162915F01662309F473CFC80146
:1023F0000E941711F6CF262F2F7320682B8386E0BB
:10240000769567958A95E1F76031710538F4606ECD
:102410006C835E01F5E0AF0EB11CE3CF60686C83A6
:10242000CD825E0126E0A20EB11CDBCF32969081F8
:10243000992309F489CF8913F9CF8181882309F47D
:1024400083CFF8011486682FAFCF82819381892BC7
:1024500019F484E090E04ACF90E080E047CFAF925B
:10246000BF92CF92DF92EF92FF920F931F93CF9381
:10247000DF93DC011296ED91FC91139714968D91E8
:102480009C911597E80FF91F14820D911C911197DB
:1024900014966D917C91159712968D919C9113973E
:1024A0009C012C5F3F4FE801EB81FC817B01E20E38
:1024B000F31E3097B9F043814617170679F4590196
:1024C000AF014C5F5F4FEA14FB0499F1E501C9903D
:1024D0005E01EA01D990AE01CD14A9F30190F0811B
:1024E000E02DE7CFED01F801408151810E94E91014
:1024F000FC01892B21F481E0D80112968C93A881EC
:10250000B98113968D919C91149791838083149631
:10251000FC93EE9313971B821A82CF01DF91CF9128
:102520001F910F91FF90EF90DF90CF90BF90AF90F1
:10253000089582818F5F8283F0CF2F923F924F92D6
:102540005F926F927F928F929F92AF92BF92CF9243
:10255000DF92EF92FF920F931F93CF93DF9300D000
:1025600000D0CDB7DEB77C017C836B830B969E8356
:102570008D83D70116969C91169717968C91179775
:1025800099838A836D907C9011976114710409F48A
:102590004CC119964C9150E0F301848195818417C8
:1025A0009507A8F0808191E09093B7038093D903B9
:1025B0001092B8031092DA0320E0BE016F5F7F4FE4
:1025C000C3010E94D706D12CC12C81111AC080E012
:1025D00026960FB6F894DEBF0FBECDBFDF91CF9128
:1025E0001F910F91FF90EF90DF90CF90BF90AF9031
:1025F0009F908F907F906F905F904F903F902F9023
:102600000895D30114968D919C9102E010E00C196D
:102610001D098017910708F48C01F30150800E9476
:10262000C2054B015C018091B103811176C0B02ECF
:10263000F0E2F01710F440E2B42E81E08093B10391
:1026400021E082E090E0801B910BC816D90608F4C7
:1026500020E02093B0039FEF9093AF031092AE035E
:102660008FEF8B0D8093AD03A1E0A0938C0380913D
:102670008C03550C582A50928C0380918B03813027
:1026800009F093C010928B030E94C2051B012C011C
:1026900080918C038093BB008091B3039091B4032D
:1026A000A091B503B091B603892B8A2B8B2BA1F097
:1026B0000E94C2052091B3033091B4034091B50349
:1026C0005091B603621973098409950926173707D3
:1026D0004807590708F442C08091BC0083FDD8CF59
:1026E000B5ECB093BC000E94C2051B012C01809187
:1026F000B103813009F45DC08091AE038B1510F4F5
:10270000B090AE03ADE8B3E0E5E6F3E080E08B1512
:1027100051F19D9191938F5FFACF8091B303909186
:10272000B403A091B503B091B603892B8A2B8B2BF0
:1027300009F479CF0E94C2052091B3033091B4030C
:102740004091B5035091B603681979098A099B092C
:10275000261737074807590708F065CF8091B2035D
:102760000E943804B12C10928A03B0928903B016EB
:10277000110609F02CCF8D809E808C0C9D1C54017D
:10278000C5018819990980179107A8F5D3011196F9
:102790008D919C91DC01ED91FC910284F385E02DFB
:1027A0001995F50181935F01EBCFE5EEE093BC0055
:1027B0009ACF8091B3039091B403A091B503B091E7
:1027C000B603892B8A2B8B2B09F491CF0E94C2056B
:1027D0002091B3033091B4034091B5035091B603F7
:1027E000621973098409950926173707480759079D
:1027F00008F07DCFB3CFC00ED11EF2E0CF16D104CA
:1028000008F4FFCEF7018285811142C0848590E0F3
:10281000982F8827AB81BC8111969C938E9323853A
:10282000822B8D939C9381E0D3CE1296ED91FC91F7
:102830001397309709F4CBCE14962D913C911597B0
:1028400019964C9150E02330310591F481608983D1
:102850009A834F5F5F4F02E010E02D813E81BE0101
:102860006F5F7F4FCF010E944B058111CBCFB0CE60
:102870002115310519F490689983EDCF2230310587
:1028800011F49F77F9CF2130310529F7906CF4CFFF
:10289000838590E0982F8827AB81BC8111969C930B
:1028A0008E932485BDCFAB01BC0170588DEB95E0B4
:1028B0000C945D0AAB01BC0170588DEB95E00C9453
:1028C0005D0AFC0101900020E9F73197AF01481B38
:1028D000590BBC0187EE93E00C94E407DF92EF9272
:1028E000FF920F931F93CF93DF936115710561F4EE
:1028F00060E070E08FEF9D2DDF91CF911F910F91E0
:10290000FF90EF90DF9008958A01EB01DC01FC90CD
:102910000B5E1F4F6F2DC8010E94B60B009741F34D
:10292000FC01E580009721F30680F781E02DDE01B0
:102930000D900020E9F79D01215031092C1B3D0B22
:10294000B0E0A0E0309739F0DF010D900020E9F70A
:102950001197AE1BBF0B2A173B0751F4DE012C0F5A
:102960003D1FA217B30769F05D9141915417C9F358
:102970006E2DC8010E94B60B009709F4B9CFFE2C4A
:10298000CFCFBC018F2DDE2CB6CFCF93DF93FC01D0
:10299000C081D18162817381CE014A9661F02E8D12
:1029A00025FF09C0AE010E946E149B01B901CE0142
:1029B000DF91CF91089530E020E0F8CFFB01019046
:1029C0000020E9F73197AF01461B570B0C94F80B29
:1029D0001F93CF93DF93EBE4F2E01281112379F0A0
:1029E000329621816213F9CFEC016CE50E94D10B84
:1029F000612FCE01DF91CF911F910C94D10B61110A
:102A0000F9CF6CE572E0DF91CF911F910C94DE1449
:102A1000CF92DF92EF92FF920F931F93CF93DF93AA
:102A20008C016B017A0162E20E94D10BE601EC0C91
:102A3000FD1CCE15DF0529F06991C8010E94E8143C
:102A4000F8CF62E2C801DF91CF911F910F91FF9003
:102A5000EF90DF90CF900C94D10B2F923F924F923A
:102A60005F926F927F928F929F92AF92BF92CF921E
:102A7000DF92EF92FF920F931F93CF93DF93CDB727
:102A8000DEB76C970FB6F894DEBF0FBECDBF8C01DA
:102A90001B01DC0114968C9114978F77883009F410
:102AA000B2C2E8F4843009F469C248F4833009F40E
:102AB0009FC263E672E0C1010E94DE141CC2853031
:102AC00009F470C28630A9F78C9168E672E0811132
:102AD00002C06DE672E0C1010E94DE146DC28C304E
:102AE000F1F1C8F48A3029F7CD90DD90ED90FC909B
:102AF000B701A601F7FE0BC06DE2C1010E94D10B28
:102B000044275527BA014C195D096E097F09C10197
:102B10000E940D0C51C2803209F4F7C1803449F68D
:102B20006BE5C1010E94D10BF80110811F3F09F430
:102B3000E7C1D10114968D919C91612F45960E9419
:102B4000B60B8C01B1010E942D15F80115811F3FB4
:102B500009F4D6C16CE2C1010E94D10BE7CFF801A4
:102B6000C080D180E280F380A7019601C701B60141
:102B70000E94152E81119DCF20E030E0A901C701F0
:102B8000B6010E94152E882379F0A7019601C7018E
:102B9000B6010E94E02F9B01AC01C701B6010E9463
:102BA000152E882309F485CF20E030E0A901C70164
:102BB000B6010E94152E87FF08C06DE2C1010E9478
:102BC000D10BF7FAF094F7F8F09420E836E948E1F1
:102BD0005BE4C701B6010E94F43087FD88C074E150
:102BE000A72EB12C00E210E0188E1F8AF501E658DE
:102BF000FD4F2591359145915491C701B6010E9431
:102C0000F43087FD13C0F501EE59FD4F2591359144
:102C100045915491C701B6010E947B2E6B017C0146
:102C20002F89388D200F311F388F2F8B15950795E1
:102C300034E0A31AB1088CEFA8168FEFB806B1F6EE
:102C400055245A9420E030E0A901C701B6010E9442
:102C5000F43018160CF052C02CEA35EC47E257E37A
:102C6000C701B6010E94152E18160CF447C0A52DF9
:102C7000B4E0AB02C0011124B12CA12CFC01EE592F
:102C8000FD4F3F019C0126583D4F49013FEF531630
:102C900009F434C0F301EA0DFB1D6591759185912E
:102CA000949120E030E040E251E40E947B2EA701A5
:102CB00096010E94F43018169CF4F401EA0DFB1DF5
:102CC0002591359145915491C701B6010E947B2E03
:102CD0006B017C018F89988D801B910B988F8F8B56
:102CE000159507955A9494E0A91AB108CFCF00E240
:102CF00010E055E0552E188E1F8AA4CFC701B601EB
:102D00000E94C5304B015C012B013C0106E080E4D0
:102D100092E4AFE0B0E0898F9A8FAB8FBC8F102F19
:102D200001509AE04916510461047104C8F0698D9C
:102D30007A8D8B8D9C8D2AE030E040E050E00E943F
:102D40006B2F298F3A8F4B8F5C8FC301B2012AE022
:102D500030E040E050E00E946B2F29013A01DFCFC4
:102D6000C501B4010E941A2E9B01AC01C701B60136
:102D70000E94DF2F6B017C01698D7A8D8B8D9C8D7C
:102D80000E941A2E9B01AC01C701B6010E947B2E46
:102D90002B013C010E94C5306B017C010E941A2E60
:102DA0009B01AC01C301B2010E94DF2F9B01AC016A
:102DB0000E94E02F0E94C530C60ED71EE81EF91EE5
:102DC000898D9A8DAB8DBC8DC816D906EA06FB0697
:102DD000D8F09FEF891A990AA90AB90AAF89B88D64
:102DE000AB2B39F1BAE08B169104A104B10408F1C0
:102DF000EF89F88D3196F88FEF8BC12CD12C7601AD
:102E0000812C912C540183942AE0422E512C612C68
:102E1000712CC701B601A30192010E946B2F672B91
:102E2000682B692B51F4111644F469017A01115091
:102E3000F0CFC12CD12C7601E7CFB501A401C1019F
:102E40000E940D0C112371F14E01F1E18F0E911CC6
:102E5000012F54019AE0492E512C612C712C015004
:102E600068F0C701B601A30192010E946B2F605D5B
:102E7000D4016E934D0169017A01F1CF812F90E069
:102E8000BC0160957095F501E81BF90B31978EE256
:102E9000808344275527461B570B6A0D7B1DC101B4
:102EA0000E94F80BEF89F88DEF2B29F165E6C1013F
:102EB0000E94D10B0F89188D17FF07C06DE2C10169
:102EC0000E94D10B119501951109FE0177969F0182
:102ED0008AE0E82EF12CC801B7010E94A82F805D7E
:102EE00082938B01672BB9F7A9014E1B5F0BBF01C2
:102EF000C1010E94F80BD10112968D919C915FC087
:102F00006DE5C1010E94D10BF6CF6BE7C1010E94B4
:102F1000D10BF80110811F3F79F1D10114968D91E9
:102F20009C91612F45960E94B60B8C01FC01C680D6
:102F3000D78062E2C1010E94D10B7601D7016D9169
:102F40007D01662321F0C1010E94E814F7CF62E2FF
:102F5000C1010E94D10B6AE3C1010E94D10BB101F2
:102F6000C8010E942D15F80115811F3F29F06CE260
:102F7000C1010E94D10BCFCF6DE7C3CFF8016081B3
:102F8000718150E040E06115710541F0FB01019055
:102F90000020E9F73197AF01461B570BC1010E9492
:102FA0000815A9CFED91FC91438150E0BF016C5F02
:102FB0007F4FC1010E940815F101828193816C96B7
:102FC0000FB6F894DEBF0FBECDBFDF91CF911F913A
:102FD0000F91FF90EF90DF90CF90BF90AF909F90B8
:102FE0008F907F906F905F904F903F902F900895BB
:102FF000ED91FC91438150E0BF016C5F7F4FC101B7
:103000000E94F80BD9CF4D915D916D917C917FCD50
:10301000CB010C942532CF93DF93EC018091C10456
:103020009091C204009759F02091C3043091C404D8
:103030002C173D0720F081E0DF91CF910895BE016C
:103040006F5F7F4F0E94AE32009789F09093C20469
:103050008093C104D093C404C093C3042091C504D9
:103060003091C604232B39F7FC011082E4CF80E0B5
:10307000E3CFCB01BA010C94AE3285ED8093BC0056
:103080008091B3039091B403A091B503B091B603BE
:103090000796A11DB11D23E0B695A7959795879535
:1030A0002A95D1F72091BC0024FD03C01092B103F2
:1030B00008954091B3035091B4036091B5037091AA
:1030C000B603452B462B472B69F30097A105B105A5
:1030D00041F02AE22A95F1F700C00197A109B10950
:1030E000E1CF8091B2030C943804CB010C94893168
:1030F0008F929F92AF92BF92CF92DF92EF92FF9208
:103100000F931F93CF93DF936C018B01DB015996D3
:10311000FC90BFEFFB1621F16F2DC80145960E9470
:10312000B60BEC018D81F801818F209709F496C0D0
:103130001C828FEF8D831F821E82D60111966C91A7
:103140006F3F09F49FC0C80145960E94B60BFC0171
:10315000F582D6011196FC92BE018F2D9D8084C010
:103160005B01F5E0AF0EB11CDB01ED90FC90119717
:1031700057968C91882349F0C5010E94C20FC62F33
:10318000D72F209711F0F82ED8CFF801C789908D4E
:10319000C91325C0C03109F461C0CC0F6589768997
:1031A000D701ED91FC91B4E0CB9FA0011124A616AC
:1031B000B70609F04BC00190F081E02DBA01C701BC
:1031C0001995009709F44AC020E1F501DC0101904E
:1031D0000D922A95E1F7F801968B858BC08FD80167
:1031E0005596CD91DC91569757968C91579721E043
:1031F000280F57962C93B4E08B9FC0011124C80F61
:10320000D91F90E1892E203111F48FE0882EE8E05B
:103210008E9EB0011124D701ED91FC910190F081B7
:10322000E02DC70119959B838A83892B09F4812C92
:1032300088821982CD2B91F0C5010E94C20FC62F42
:10324000D72FF82E209709F078CF08C00480F58199
:10325000E02DC7011995009709F0BDCF81E0F80175
:10326000828360E070E08FEF992DDF91CF911F9105
:103270000F91FF90EF90DF90CF90BF90AF909F9015
:103280008F900895F601F082F18266CF8F929F921F
:10329000AF92BF92CF92DF92EF92FF920F931F9364
:1032A000CF93DF93EC018B01D42E0E94A70C7C01FD
:1032B000892B09F047C0CE010E94590C863609F4CB
:1032C00052C124F5873229F08B3561F1823209F041
:1032D00053C11D821C828A819B81892B31F4888194
:1032E00099810E9461029B838A83CE010E945011C2
:1032F0007C01892B39F5CE010E942F12F80124811F
:10330000207825602483918380831CC0843709F44E
:1033100012C18B3709F45BC08E3609F02DC163E60C
:1033200072E012C1F8018481807880648483011581
:10333000110519F08FEF80838183D11011C025E032
:10334000E22EF12CC701DF91CF911F910F91FF90D9
:10335000EF90DF90CF90BF90AF909F908F900895A7
:103360001C86CE010E94A70C009709F085C06DE570
:10337000CE010E94730C8111E5CFDA946D857E85B4
:10338000C8010E9478186115710521F484E0E82EC7
:10339000F12CD8CF4D2DCE010E944619009709F08F
:1033A0006BC0CE010E94A70C009709F065C06DE5C7
:1033B000CE010E94730C8111C5CF6CE2CE010E9438
:1033C000730C8111DBCF93E0E92EF12CBBCFF80118
:1033D00084818078806284830115110519F08FEF54
:1033E00080838183DD2009F4AACF1C86CE010E9450
:1033F000A70C009709F040C06DE7CE010E94730C46
:103400008111A0CFBB24BA94BD0C1D821C828A817D
:103410009B81892B31F4888199810E9461029B8371
:103420008A83CE010E94590C8732E1F08232D1F0BA
:10343000CE010E94590CD82E0E94E60B882319F267
:103440001C866D2DCE010E941711CE010E94590CD1
:10345000D82E0E94E60B8111F3CF8A819B81892BA4
:1034600031F494CFCE010E945011009729F4CE017F
:103470000E94A70C009711F07C0164CF6AE3CE0193
:103480000E94730C882309F49ECFEA81FB818C8112
:103490009D81E80FF91F14824D855E856A817B81CD
:1034A0006C5F7F4FC8010E946E14CB016B01672BCC
:1034B000C9F5CE010E942F124C016D857E85C80191
:1034C0000E9478186B016115710509F45FCFFB014B
:1034D000848180688483F4E08F0E911CF6019782CA
:1034E00086824B2DB601CE010E944619009721F627
:1034F000CE010E94A70C009709F0BECF6DE7CE0168
:103500000E94730C81111ECF6CE2CE010E94730CDD
:10351000882309F458CFCE010E94A70C009709F424
:1035200074CFAACF6D857E850E948C10F6018481B0
:1035300080788483D6CFF801848180788660848304
:1035400081E0808368E672E0CE01DF91CF911F9128
:103550000F91FF90EF90DF90CF90BF90AF909F9032
:103560008F900C94840CF801848180788660848329
:1035700010826DE672E0E8CFCE010E94590C5E0128
:10358000FFE0AF0EB11CD12C9A2CCB2C803374F001
:103590008A3374F49FE3D91699F01C86D394F5010D
:1035A00081935F01CE010E94590CF0CF8B3291F3D1
:1035B00093ED980F923070F3982F9F7D953451F3CF
:1035C000CD0DD11D1F86B801892D9C2D0E94300D77
:1035D0008111B8CEF8CE2F923F924F925F926F92A8
:1035E0007F928F929F92AF92BF92CF92DF92EF9293
:1035F000FF920F931F93CF93DF93CDB7DEB7C357DF
:10360000D1090FB6F894DEBF0FBECDBF8E01005BAF
:103610001F4F380125E0620E711C58018AE1A80E87
:10362000B11C2DE8222E22E0322E30E9432E32E06A
:10363000532E87EE93E00E944508892B09F4F1C1CF
:1036400087EE93E00E942308D82E89831A82E090A7
:10365000C504F090C6049FEFE91AF90AC7010E9459
:103660000B18882399F02091C1043091C2048091F5
:10367000C5049091C604BE016F5F7F4F820F931FF8
:103680000E949833F092C604E092C504EAE0DE128C
:10369000D0CF81E092E0F80191838083128214827E
:1036A0001382768A658A178A84E0808F8FEF818FF4
:1036B000168EE1961FAE1EAEE197E3961FAE1EAECC
:1036C000E397C090C504D090C604E090C104F09088
:1036D000C20461E072E0C3010E94F40FF80112829B
:1036E00080809180F80183819481009751F0FC01E2
:1036F00020813181F80134832383B4010E94391081
:10370000F1CF168E1A8309831C821B821E821D82B2
:103710001F82F986E886EC0CFD1CFB86EA861D8676
:103720001F870E874AE0B501CE0101960E94461917
:103730007C01892B51F48C85882339F0F801868D22
:1037400083FF03C093E0E92EF12C8B819C810097CD
:1037500031F0E981FA81608171810E94391090E035
:1037600080E00E940B182091C1043091C2048111A5
:103770002CC02115310519F0C9010E942532109283
:10378000C2041092C1041092C6041092C504109293
:10379000C4041092C304E114F10409F183E792E038
:1037A0000E946114F701EE0FFF1FE55EFD4F80815F
:1037B0009181009711F00E9461148AE892E00E94C2
:1037C0006114C8010E94431034CF1092C6041092B5
:1037D000C5046BE572E0C9010E949833DCCF1A83FF
:1037E00009833C822B82CE0101960E94C514E39688
:1037F0006CAF7DAF8EAF9FAFE397CE0181599F4FE6
:103800000E94C90C811111C0E1968EAD9FADE19768
:10381000009709F4C3C00E947C0F60935305709316
:10382000540580935505909356051A8309835C824D
:103830004B82CE0101960E94C514E3966CAF7DAF1A
:103840008EAF9FAFE397CE0181599F4F0E94C90C65
:10385000811111C0E1968EAD9FADE197009709F4FB
:10386000A1C00E947C0F6093570570935805809308
:10387000590590935A051A83098383E992E09C8342
:103880008B83CE0101960E94C514E3966CAF7DAF89
:103890008EAF9FAFE397CE0181599F4F0E94C90C15
:1038A000811111C0E1968EAD9FADE197009709F4AB
:1038B0007DC00E947C0F60935B0570935C058093D4
:1038C0005D0590935E051A83098386E992E09C83E7
:1038D0008B83CE0101960E94C514E3966CAF7DAF39
:1038E0008EAF9FAFE397CE0181599F4F0E94C90CC5
:1038F000811108C0E1968EAD9FADE197009711F060
:103900000E94130F1A83098388E992E09C838B83BA
:10391000CE0101960E94C514E3966CAF7DAF8EAFC9
:103920009FAFE397CE0181599F4F0E94C90C81112F
:1039300058C0F12CE12C6701E3968CAD9DADAEAD86
:10394000BFADE397FC01892B09F443C0248126FF16
:1039500040C04D0125E1820E911C6081C4010E948E
:10396000B60B0097B1F1FC01F581E496FFAFE49747
:10397000009779F1C114D10451F1E4966FADE49749
:10398000C4010E94B60B009729F0FC01F581E49672
:10399000FFAFE49721E0C21AD108EACF60E070E0FF
:1039A000CB013BCF60E070E0CB015DCF60E070E029
:1039B000CB0181CFA8016AE972E0C5010E946E14B3
:1039C0006115710549F1CB010E94970E27C00E9435
:1039D0007C0F8FEFE81AF80A9AE0E916F10409F073
:1039E000AACF1A8309838AE992E09C838B83CE0154
:1039F00001960E94C514E3966CAF7DAF8EAF9FAF6A
:103A0000E397CE0181599F4F0E94C90C8111D9CEF5
:103A1000F801868D85FDCECF90E080E00E94D60C27
:103A2000D0CECD58DF4F0FB6F894DEBF0FBECDBF5E
:103A3000DF91CF911F910F91FF90EF90DF90CF908A
:103A4000BF90AF909F908F907F906F905F904F90BE
:103A50003F902F9008950E94510881110E94EB1A07
:103A600080E090E0892B49F080E090E0892B29F0FC
:103A70000E94000081110E94000080E090E0892BEC
:103A800049F080E090E0892B29F00E94000081112C
:103A90000E94000080E090E0892B49F080E090E0F7
:103AA000892B29F00E94000081110C9400000895D8
:103AB000EF92FF920F931F93CF93DF93FC01E0806F
:103AC000F1808701065E1F4F21F1C281D3812097CB
:103AD00051F1F701868D982F9F7719F580788062D4
:103AE000868F8FEF828F838FA701BE01C8010E944E
:103AF0006E14FB01309761F4B701C8010E94781879
:103B0000FB01309729F084818F778483D783C68324
:103B10008F01C801DF91CF911F910F91FF90EF901E
:103B2000089585FDE1CF10E000E0F3CFAF92BF92A2
:103B3000CF92DF92EF92FF920F931F93CF93DF9379
:103B40008C017B01DC01AD90BC900E94581DEC0102
:103B5000009781F0F701C080D180E280F380B50149
:103B60000E948C108C8180788C608C83C882D98272
:103B7000EA82FB82D801ED91FC9180E0309719F048
:103B8000828191E08927DF91CF911F910F91FF9062
:103B9000EF90DF90CF90BF90AF9008951F920F925B
:103BA0000FB60F9211240BB60F922F933F934F93A2
:103BB0005F936F937F938F939F93AF93BF93EF9395
:103BC000FF938091B900887F803609F44DC008F0DA
:103BD00040C0883209F4A9C028F5803109F49DC09D
:103BE000C8F4882309F4FBC0883009F496C0FF911B
:103BF000EF91BF91AF919F918F917F916F915F9165
:103C00004F913F912F910F900BBE0F900FBE0F90D1
:103C10001F901895883109F488C0803241F780934D
:103C2000AF0314C0803409F49DC040F48033B9F36D
:103C30008833E9F68093AF0385ECB0C0803509F492
:103C400085C0883509F496C0883489F60E943D18ED
:103C5000CECF883909F48CC038F5883729F050F474
:103C6000883611F0803719F683E08093B103109203
:103C7000640357C0883809F47BC0803919F0803854
:103C800009F0B5CF80916403803208F071C0E091F3
:103C9000640381E08E0F809364038091BB00F0E0A9
:103CA000EC5BFC4F80833DC0803B39F0E0F4803A10
:103CB00009F479C0883A09F09ACF84E08093B1037F
:103CC0001092430310924203E0918503F091860322
:103CD00019958091420381110FC081E080934203C6
:103CE0001092220309C0803C09F4A6CF883C09F455
:103CF000A3CF883B09F07BCFE091430381E08E0F97
:103D000080934303F0E0EE5DFC4F80818093BB0025
:103D1000909143038091420329C080918C0380934A
:103D2000BB0085EC8093BC0062CF9091AE03809184
:103D3000AD03981758F5E091AE0381E08E0F8093A4
:103D4000AE03F0E0E357FC4F8081E9CFE091AE0392
:103D500081E08E0F8093AE038091BB00F0E0E357CB
:103D6000FC4F80839091AE038091AD039817C8F209
:103D700085E8D8CFE091AE0381E08E0F8093AE034B
:103D80008091BB00F0E0E357FC4F80838091B0034B
:103D900081115CCF81E080938B0384EA8093BC0027
:103DA0001092B10324CF85EC8093BC001092B10334
:103DB00080916403803230F4E0916403F0E0EC5BC6
:103DC000FC4F10826091640370E0E0918703F091F2
:103DD000880384E493E019951092640308CF10924D
:103DE000AF0334CF1F920F920FB60F9211242F936F
:103DF0003F938F939F93AF93BF93809119039091BB
:103E00001A03A0911B03B0911C033091180323E007
:103E1000230F2D3758F50196A11DB11D20931803CE
:103E20008093190390931A03A0931B03B0931C0370
:103E300080911D0390911E03A0911F03B091200358
:103E40000196A11DB11D80931D0390931E03A093A5
:103E50001F03B0932003BF91AF919F918F913F912A
:103E60002F910F900FBE0F901F90189526E8230FEB
:103E70000296A11DB11DD2CF1F920F920FB60F92C5
:103E800011240BB60F922F933F934F935F936F9331
:103E90007F938F939F93AF93BF93EF93FF93809103
:103EA000010390910203A0910303B0910403892BB5
:103EB0008A2B8B2BD1F190910003809100008927F0
:103EC000809300008091010390910203A09103036D
:103ED000B0910403181619061A061B069CF480916B
:103EE000010390910203A0910303B0910403019791
:103EF000A109B1098093010390930203A0930303E6
:103F0000B0930403FF91EF91BF91AF919F918F9177
:103F10007F916F915F914F913F912F910F900BBEC9
:103F20000F900FBE0F901F90189580910002E2E94C
:103F3000F2E0E4919FEF90930002E230E9F040F468
:103F4000EE2389F0E13091F060E00E94D103DACFF6
:103F5000E43049F110F1E530B9F7909173009D7F9D
:103F600090937300F1CF10926E00EECF90916F009E
:103F70009D7F90936F00E8CF909170009D7F90930C
:103F8000700091E09093B0009091B100987F9460A0
:103F90009093B1001092B300D7CF909171009D7FA4
:103FA00090937100D1CF909172009D7F9093720099
:103FB000CBCF1F920F920FB60F9211240BB60F9218
:103FC0002F933F934F935F936F937F938F939F9321
:103FD000AF93BF93EF93FF9387EE93E00E945B084C
:103FE000FF91EF91BF91AF919F918F917F916F91D1
:103FF0005F914F913F912F910F900BBE0F900FBE8D
:104000000F901F9018951F920F920FB60F921124C8
:104010000BB60F922F938F939F93EF93FF93E091A3
:10402000F703F091F8038081E091FD03F091FE0326
:1040300082FD1DC09081809100048F5F8F7320915D
:104040000104821741F0E0910004F0E0E951FC4FD7
:10405000958F80930004FF91EF919F918F912F9105
:104060000F900BBE0F900FBE0F901F901895808180
:10407000F2CF1F920F920FB60F9211240BB60F9230
:104080002F933F934F935F936F937F938F939F9360
:10409000AF93BF93CF93DF93EF93FF938091FF0292
:1040A000C091C004D0E087FF23C010928500109219
:1040B00084008091FF028F5F8093FF028091FF0256
:1040C000082E000C990B8C179D0724F48091FF0299
:1040D0008C3074F1809184009091850084349C49E7
:1040E00008F465C08091840090918500049661C0B9
:1040F0008091FF02082E000C990B8C179D07CCF6BF
:104100003091FF0225E03203F0011124EC57FB4F00
:10411000808186FFCECF3091FF023203F00111245F
:10412000EC57FB4F808160E08F730E94D103C1CFB9
:1041300080918400909185003091FF0225E0320348
:10414000F0011124EC57FB4F41815281840F951FE0
:1041500090938900809388003091FF023203F00130
:104160001124EC57FB4F808186FF0CC03091FF0279
:104170003203F0011124EC57FB4F808161E08F7313
:104180000E94D103FF91EF91DF91CF91BF91AF9149
:104190009F918F917F916F915F914F913F912F915F
:1041A0000F900BBE0F900FBE0F901F90189580E4DC
:1041B0009CE990938900809388008FEF8093FF02A1
:1041C000E1CF1092DE031092DD0388EE93E0A0E0D1
:1041D000B0E08093DF039093E003A093E103B093FA
:1041E000E2032BE232E03093DC032093DB031092F6
:1041F000EA031092E9038093EB039093EC03A093FE
:10420000ED03B093EE038DE392E09093E803809387
:10421000E70385EC90E09093F4038093F30384EC40
:1042200090E09093F6038093F50380EC90E09093F8
:10423000F8038093F70381EC90E09093FA03809366
:10424000F90382EC90E09093FC038093FB0386ECEF
:1042500090E09093FE038093FD031092000410926F
:10426000010410920204109203048CE08093A105D3
:1042700084E28093A20585E08093A30596E0909365
:10428000A4059EE19093A5059FE19093A60592E277
:104290009093A70593E29093A80594E49093A905C1
:1042A00095E49093AA051092AC051092AB0590E4AA
:1042B0009093AE051092B3051092B4051092B50517
:1042C0001092B6051092B7051092B8051092B90574
:1042D0001092BA0598E0E9E0F2E0A3ECB5E00190B5
:1042E0000D929A95E1F740E050E060EA70E4409367
:1042F000CB055093CC056093CD057093CE0591E02E
:1043000090939F05E091C004EC3008F0A3C19E0F8C
:104310009093C004E093A0058E9FF0011124EC5708
:10432000FB4F88EB9BE092838183109253051092A0
:10433000540510925505109256051092570510928B
:1043400058051092590510925A0510925B0510926B
:104350005C0510925D0510925E051092600510924A
:104360005F0510926205109261051092640510922B
:10437000630510926505109266051092670510920C
:1043800068051092690510926A0510927F051092D7
:10439000800510928105109282051092830510927B
:1043A000840510928505109286051092870510925B
:1043B00088051092890510928A0510928B0510923B
:1043C0008C0510928D0510928E0540E050E060EA59
:1043D00070E440938F05509390056093910570931E
:1043E000920580E090E0A8ECB2E48093930590936E
:1043F0009405A0939505B093960510929705109299
:1044000098051092990510929A0510929B051092AA
:104410009C0510929D0510929E0510920705109222
:1044200008051092090510920A0510920B051092CA
:104430000C0510920D0510920E0510920F051092AA
:104440001005109211051092120510921405109289
:10445000130510921605109215051092180510926A
:1044600017051092190510921A0510921B0510924B
:104470001C0510921D0510921E0510923305109216
:1044800034051092350510923605109237051092BA
:1044900038051092390510923A0510923B0510929A
:1044A0003C0510923D0510923E0510923F0510927A
:1044B00040051092410510924205409343055093E8
:1044C0004405609345057093460580934705909396
:1044D0004805A0934905B0934A0510924B051092E8
:1044E0004C0510924D0510924E0510924F051092FA
:1044F0005005109251051092520584EE9BECA6E1F6
:10450000B0EC8093F3049093F404A093F504B0937B
:10451000F60484EE9BECA6E1B0E48093F70490935C
:10452000F804A093F904B093FA041092FF041092D7
:1045300000051092010510920205109203051092D9
:104540000405109205051092060581E492EFAFEC88
:10455000B8E38093C7049093C804A093C904B093B0
:10456000CA041092CB041092CC041092CD04109285
:10457000CE041092CF041092D0041092D104109265
:10458000D2041092D3041092D4041092D504109245
:10459000D6041092D7041092D8041092D904109225
:1045A000DA041092DB041092DC041092DD04109205
:1045B000DE041092DF041092E0041092E1041092E5
:1045C000E2041092E3041092E4041092E5041092C5
:1045D000E6041092E7041092E8041092E9041092A5
:1045E000EA041092EB041092EC041092ED04109285
:1045F000EE041092EF041092F0041092F104109265
:10460000F2041092C2041092C1041092C4041092D9
:10461000C3041092C6041092C50490E080E00E948A
:104620000B182091C1043091C204811117C02115CB
:10463000310519F0C9010E9425321092C20410926E
:10464000C1041092C6041092C5041092C4041092C2
:10465000C30408958FEF8093A00567CE1092C6041F
:104660001092C5046BE572E0C9010C949833CF93A6
:10467000DF93CDB7DEB7CF54D1090FB6F894DEBFC4
:104680000FBECDBF789484B5826084BD84B581604F
:1046900084BD85B5826085BD85B5816085BD80910D
:1046A0006E00816080936E00109281008091810085
:1046B000826080938100809181008160809381007D
:1046C000809180008160809380008091B10084603F
:1046D0008093B1008091B00081608093B0008091A0
:1046E000910082608093910080919100816080931D
:1046F0009100809190008160809390008091A10052
:1047000082608093A1008091A10081608093A100CC
:104710008091A00081608093A0008091210182603F
:1047200080932101809121018160809321018091FA
:10473000200181608093200180917A0084608093C1
:104740007A0080917A00826080937A0080917A006A
:10475000816080937A0080917A00806880937A00EB
:104760001092C100E091F703F091F80382E080839A
:10477000E091F303F091F4031082E091F503F091DE
:10478000F60380E180831092FF03E091FB03F09138
:10479000FC0386E08083E091F903F091FA038081C5
:1047A00080618083E091F903F091FA038081886051
:1047B0008083E091F903F091FA038081806880831F
:1047C000E091F903F091FA0380818F7D808361E0AD
:1047D0008091A2050E94590460E08091A2050E9488
:1047E000D10360E08091A1050E9459048091AB053E
:1047F0009091AC05892BA9F486E090E00E94893164
:10480000FC018091AE0580838BED93E092838183E0
:10481000138280E290E095838483F093AC05E0936B
:10482000AB05E090AB05F090AC0510928A031092B6
:1048300089031092B8031092DA030E941A0482E9E5
:1048400092E0909386038093850383E992E09093AE
:1048500088038093870311E0D70113961C93C70147
:104860000E948D07882309F45BC080E090E1A0E0FE
:10487000B0E08093AF059093B005A093B105B093DD
:10488000B2058AE090E0A0E0B0E08093B305909399
:10489000B405A093B505B093B60580E090E0A0E024
:1048A000B0E48093B7059093B805A093B905B09391
:1048B000BA058091AB059091AC051FA618AA19AA5C
:1048C0001AAA99A388A31BA21AA219A785E090E0AF
:1048D0009FA38EA31AA702E008A740E050E160E082
:1048E00070E0CE0180960E94F5068091AB05909114
:1048F000AC05188A198A1A8A1B8A9A8389831C82B2
:104900001B821A8718861F821B8709874FE959E384
:1049100060E070E0CE0101960E94F5068093AD053F
:1049200053EAE52E55E0F52E01EA15E066E1662E24
:1049300063E0762E7CE5872E73E0972EEBECCE2E8F
:10494000E7E0DE2EF7019281D7018D917D01F8011C
:10495000828F938F61E00E94590461E0D8015B96D9
:104960008C910E9459045801BEE1AB0EB11CF701B5
:1049700095818381D8015E968C935E975F969C9318
:1049800061E00E94590460E0F801878D0E9459049B
:1049900061E0D8015E968C910E94D1035FB6F894D5
:1049A00080910503811125C0F3018491F401949154
:1049B000E82FF0E0EE0FFF1FED56FD4FA591B491EB
:1049C0008C91982321F461E085E30E94D10361E09A
:1049D00085E30E9459048CB580618CBD8CB58064E0
:1049E0008CBD61E084E30E94590461E083E30E948E
:1049F0005904809105038F5F809305035FBEC60154
:104A00000197F1F760E0D8015E968C910E94D10386
:104A100088E80E94840B83E00E94840B61E0F80127
:104A2000868D0E94D103C6010197F1F7C5010E944E
:104A30008B0B0E5F1F4FF5E0053A1F0709F082CF81
:104A40008091A0058C3008F047C061E08DE00E94A5
:104A500059048091A00525E0829FF0011124EC57B4
:104A6000FB4F9081907C9D609083138214822CE098
:104A7000622F0E949C2F829FB001112430E020E021
:104A800095E0AB01420F531F949FF001959FF00DED
:104A90001124EC57FB4F408146FD13C02F5F3F4F61
:104AA0002C30310571F781110CC01092800082E02A
:104AB00080938100109285001092840086BB8093C1
:104AC0006F00E091A00585E0E89FF0011124EC570C
:104AD000FB4F80818064808360E08DE30E945904F5
:104AE00060E080E10E94590460E08EE00E94590479
:104AF00060E081E10E94590460E08FE00E94590467
:104B000061E080E20E9459040E947C028C01C09006
:104B1000F304D090F404E090F504F090F604A701BB
:104B200096016091F7047091F8048091F9049091D6
:104B3000FA040E94DF2F4B015C01B801110F880BB2
:104B4000990B0E941C2E9B01AC01C501B4010E946F
:104B50007B2E20E030EC4FE754E40E944C30A7015C
:104B600096010E94E02F0E94BE307093FC04609377
:104B7000FB048DEC9CECACE0BFE380935305909379
:104B80005405A0935505B09356058DEC9CECACE410
:104B9000BEE38093570590935805A0935905B093B1
:104BA0005A058FE892ECA5E7BCE380935B059093F0
:104BB0005C05A0935D05B0935E0510928F05109281
:104BC0009005109291051092920529E120936F05AE
:104BD0001092700510927105109272051092730573
:104BE0001092740510927505109276058DEC9CEC70
:104BF000ACECBCE380936B0590936C05A0936D05C2
:104C0000B0936E0542ED57E05093600540935F0509
:104C100043E554E1509362054093610543E353E358
:104C200063EB7FE340930705509308056093090504
:104C300070930A0540E050E060E87EE340930B0586
:104C400050930C0560930D0570930E0546EA5BE9E1
:104C500064EC7BE340930F055093100560931105BE
:104C60007093120510924305109244051092450569
:104C700010924605209323051092240510922505D5
:104C800010922605109227051092280510922905EA
:104C900010922A0580931F0590932005A09321056B
:104CA000B09322058BED97E0909314058093130544
:104CB0008AE594E19093160580931505DE015196DF
:104CC0002A96BFAFAEAF2A97FE0131961F010E9410
:104CD000C60700911403109115032091160330911B
:104CE0001703601B710B820B930B0E941A2E6B0132
:104CF0007C0120E030E048EC51E40E94152E87FD55
:104D0000B7C620E030E04AE754E4C701B6010E948C
:104D10004C302E966CAF7DAF8EAF9FAF2E970E941A
:104D20007C028C019093FE048093FD048090FF042C
:104D300090900005A0900105B0900205C090F3048A
:104D4000D090F404E090F504F090F604A7019601E9
:104D50006091F7047091F8048091F9049091FA043D
:104D60000E94DF2F2B013C01B801110F880B990B1A
:104D70000E941C2E9B01AC01C301B2010E947B2E3C
:104D800020E030EC4FE754E40E944C30A70196013C
:104D90000E94E02F6B017C016091FB047091FC0488
:104DA000072E000C880B990B0E941C2E9B01AC0156
:104DB000C701B6010E94DF2F9B01AC012093FF04C5
:104DC000309300054093010550930205C501B401DD
:104DD0000E94DF2F2E962CAD3DAD4EAD5FAD2E97D0
:104DE0000E944C3060930305709304058093050581
:104DF0009093060560E08091C1050E94D10380E692
:104E00000E94840B8E010F5F1F4F780180E00E948B
:104E1000840B90E0B0E0A0E0F70181939193A1931F
:104E2000B1937F012A968EAD9FAD2A978E179F076B
:104E300069F761E08091C1050E94D103412C512C9A
:104E40003201F80181919191A191B1918F01762C5C
:104E5000652C542C4424480E591E6A1E7B1EEE16E7
:104E6000FF0679F77094609450944094411C511C53
:104E7000611C711CB091CF04A091D004F091D104B9
:104E80009090D2048090D304E091D4042F96EFAF99
:104E90002F97E091D5046096EFAF6097E091D6042C
:104EA0002B2F3A2F4F2F592D682D2F967FAD2F97EF
:104EB00060968FAD60979E2FA090D704B090D804D5
:104EC000C090D904D090DA04E090DB04F090DC04C8
:104ED0000091DD041091DE040E94CD2F2093DF04A9
:104EE0003093E0044093E1045093E2046093E304C0
:104EF0007093E4048093E5049093E604B093D704A0
:104F0000A093D804F093D9049092DA048092DB0441
:104F10002F96FFAD2F97F093DC046096AFAD6097AE
:104F2000A093DD04E093DE04D301C201BB0F880B24
:104F3000982FDC014092CF045092D0046092D104AB
:104F40007092D2048093D3048093D4048093D504C8
:104F50008093D6048090E7049090E804A090E90440
:104F6000B090EA04C090EB04D090EC04E090ED0423
:104F7000F090EE04C301B2010E941C2E2091C704E0
:104F80003091C8044091C9045091CA040E947B2EFC
:104F90002091CB043091CC044091CD045091CE04AB
:104FA0000E94E02F6093E7047093E8048093E90483
:104FB0009093EA04A50194010E94DF2F2E962CAD58
:104FC0003DAD4EAD5FAD2E970E944C306093EB042B
:104FD0007093EC048093ED049093EE04A701960186
:104FE0000E94DF2F2E962CAD3DAD4EAD5FAD2E97BE
:104FF0000E944C306093EF047093F0048093F104AE
:105000009093F2048EE00E94A803892B21F08CE09B
:1050100090E00E94D60C80E10E94A803892B21F029
:105020008BE090E00E94D60C81E10E94A803892BBE
:10503000F9F08DE090E00E94D60CE0911203F0911F
:1050400013033197EC30F10508F073C08827E45D55
:10505000F74D8F4F0C94BC2F3E284329C028FB28C6
:105060008629BD29E029F429082A502A6E2A672AB0
:105070008FE00E94A803892BE1F6DFCFC0900305E3
:10508000D0900405E0900505F090060520E030E0A2
:10509000A901C701B6010E94F43018160CF520E0F2
:1050A00030E040E05FE3C701B6010E94152E87FDA6
:1050B00021C020E030E040EC5FE36091FF0470919C
:1050C000000580910105909102050E947B2E60935E
:1050D00065057093660580936705909368055CC2CB
:1050E00020E030E040E05FEBC701B6010E94F43001
:1050F0001816FCF6C090FF04D0900005E090010562
:10510000F090020520E030E0A901C701B6010E943D
:10511000F430181654F52DEC3CEC4CE45DE3C7017B
:10512000B6010E94152E87FFC4CF89E090E00E944F
:10513000D60CE0911203F0911303EE30F10508F064
:105140002BC28827E955F74D8F4F0C94BC2FF52DB6
:1051500059288129EE2816299929792A452DA52D26
:10516000362AB529742A1629FA2D2DEC3CEC4CE48C
:105170005DEBC701B6010E94F4301816B4F299CF66
:105180002DEC3CEC4CE45DE36091E7047091E804A5
:105190008091E9049091EA040E94DF2F6B017C0169
:1051A00020E030E0A9010E94F43018166CF42AE0E7
:1051B00037ED43E25CE3C701B6010E94152E87FF7D
:1051C0000DC084E090E0B3CF2AE037ED43E25CEB22
:1051D000C701B6010E94F43018169CF38DEC9CECCC
:1051E000ACE4BDE38093190590931A05A0931B05C9
:1051F000B0931C05D1C1C090EB04D090EC04E090BA
:10520000ED04F090EE0420E030E0A901C701B60102
:105210000E94F43018169CF425E93FEB46ED53E369
:10522000C701B6010E94152E87FD13C04DEC5CEC42
:105230006CEC7DE38DEB95E00E945D0AADC125E944
:105240003FEB46ED53EBC701B6010E94F430181650
:105250006CF70E94C60700910E0310910F03209176
:10526000100330911103601B710B820B930B653699
:10527000710581059105D0F281EC95E00E948B0BC0
:1052800082E090E054CF22E030E040E05EE36091C5
:10529000E7047091E8048091E9049091EA040E9487
:1052A000DF2F6B017C0120E030E0A9010E94F43087
:1052B0001816ECF42AE037ED43E25CE3C701B601CF
:1052C0000E94152E87FF1DC02FE632E143E85AE306
:1052D0006091EB047091EC048091ED049091EE04E8
:1052E0000E94152E87FF0DC090E080E020CF2AE0BD
:1052F00037ED43E25CEBC701B6010E94F4301816AB
:105300001CF382E090E0A0E0BEE36CCF0E94C607F1
:1053100000910E0310910F0320911003309111039F
:10532000601B710B820B930B613A7F4081059105E5
:10533000D8F640E050E060E070E88DEB95E00E9428
:105340005D0A0E94C60700910E0310910F03209181
:10535000100330911103601B710B820B930B603DA6
:1053600077408105910508F089C390E080E00E94B4
:105370000F0281E080939F050FC129E23CE54FE0D9
:105380005EE36091FF0470910005809101059091AA
:1053900002050E94F43087FDACC026E636E646EAF8
:1053A0005FE360910305709104058091050590917C
:1053B00006050E94F43087FD9CC087E090E0B7CEE0
:1053C0002AE939E949E15FE36091E7047091E80473
:1053D0008091E9049091EA040E94F43018160CF0D0
:1053E00054C388E090E0A3CE2DEC3CEC4CE45DE3AC
:1053F0006091EB047091EC048091ED049091EE04C7
:105400000E94152E18160CF4A0C381E090E08FCEF8
:1054100024EA30E74DE85FE36091E7047091E80427
:105420008091E9049091EA040E94DF2F6B017C01D6
:1054300020E030E0A9010E94F43018166CF42AE054
:1054400037ED43E25CE3C701B6010E94152E87FFEA
:105450000DC08AE090E06BCE2AE037ED43E25CEBD2
:10546000C701B6010E94F43018169CF324EA30E715
:105470004DE85FE36091E7047091E8048091E904EE
:105480009091EA040E94152E4DEC5CEC6CEC7DEBE7
:1054900087FF04C04DEC5CEC6CEC7DE37058CACE29
:1054A0000E94C60700910E0310910F032091100374
:1054B00030911103601B710B820B930B693E73409B
:1054C0008105910508F451CF83E090E030CE8EE065
:1054D0000E94A803892B09F0A9CE06CF80E10E9483
:1054E000A803892B09F400CF4DEC5CEC6CEC7DEB50
:1054F000A1CE0E94C60700910E0310910F032091C8
:10550000100330911103601B710B820B930B0E94EF
:105510001A2E20E030E04AE754E40E944C306B0140
:105520007C012FEF3BE742E850E40E947B2E0E9473
:10553000F9309B01AC01C701B6010E947B2E20E02F
:1055400030E040E05FE30E947B2E6B017C0120E0B5
:1055500030E0A9010E94152E87FD8DC281E090E008
:1055600020910803309109032817390769F09093B7
:105570000903809308038091060390910703019625
:105580009093070380930603C0926505D092660549
:10559000E0926705F092680583E595E00E94EA08CD
:1055A00087E095E00E94EA08E1E0F2E0FA83E9830F
:1055B0001B821D821C8286E090E08C0F9D1F9F8BBA
:1055C0008E8B188E84E0898F8FEF8A8F1F8E0E94BA
:1055D000C6076B017C0139A228A282ED92E09BA351
:1055E0008AA3CE0180960E94581D8C01009781F0FD
:1055F000B1010E948C10D80114968C911497807878
:10560000886014968C93F801C082D182E282F38282
:10561000E0901203F090130339A228A28AE992E0E5
:105620009BA38AA3CE0180960E94581D8C010097EF
:10563000A1F0B1010E948C10D80114968C9114979E
:1056400080788A6014968C93C701FF0CAA0BBB0B61
:10565000F80180839183A283B38380915305909155
:105660005405A0915505B091560588A399A3AAA306
:10567000BBA33CAA2BAA8DE892E09EAB8DABBE01EA
:10568000605E7F4FCE01C3960E94961D80915705A4
:1056900090915805A0915905B0915A0588A399A3F6
:1056A000AAA3BBA33CAA2BAA80E992E09EAB8DAB38
:1056B000BE01605E7F4FCE01C3960E94961D809111
:1056C0005B0590915C05A0915D05B0915E0588A396
:1056D00099A3AAA3BBA33CAA2BAA83E992E09EAB01
:1056E0008DABBE01605E7F4FCE01C3960E94961DBA
:1056F0008091650590916605A0916705B091680558
:1057000088A399A3AAA3BBA33CAA2BAA8CE992E0E5
:105710009EAB8DABBE01605E7F4FCE01C3960E94F3
:10572000961D8091E7049091E804A091E904B0915E
:10573000EA0488A399A3AAA3BBA33CAA2BAA80EA44
:1057400092E09EAB8DABBE01605E7F4FCE01C396F3
:105750000E94961D8091EB049091EC04A091ED04C1
:10576000B091EE0488A399A3AAA3BBA33CAA2BAA39
:105770008FE992E09EAB8DABBE01605E7F4FCE01A4
:10578000C3960E94961D8091EF049091F004A09121
:10579000F104B091F20488A399A3AAA3BBA33CAAE5
:1057A0002BAA8EE992E09EAB8DABBE01605E7F4F6F
:1057B000CE01C3960E94961D8091FF049091000532
:1057C000A0910105B091020588A399A3AAA3BBA348
:1057D0003CAA2BAA83EA92E09EAB8DABBE01605E31
:1057E0007F4FCE01C3960E94961D80910305909134
:1057F0000405A0910505B091060588A399A3AAA365
:10580000BBA33CAA2BAA82EA92E09EAB8DABBE0161
:10581000605E7F4FCE01C3960E94961DF0906A0590
:1058200039A228A28AEA92E09BA38AA3CE0180969D
:105830000E94581D8C01009769F0B1010E948C10E4
:10584000D80114968C9114978078866014968C9366
:105850001497FC928091AB059091AC051FA618AAF5
:1058600019AA1AAA99A388A31BA21AA211E019A720
:1058700082E090E09FA38EA31AA702E008A7BE01D2
:105880006D5C7F4FCE0180960E949D128093AD0586
:10589000EBA8FCA883E0F694E7948A95E1F7EE0C78
:1058A000FF1CEE0CFF1C8091AB059091AC051FA670
:1058B00018AA19AA1AAA99A388A31BA21AA219A7FF
:1058C00081E090E09FA38EA31AA708A7BE016D5C9C
:1058D0007F4FCE0180960E949D128093AD056BA9EB
:1058E0007CA9072E000C880B990B0E941C2E2AE025
:1058F00037ED43E25CE30E947B2E20E030E04AE794
:1059000054E40E944C304B015C01B701FF0C880B42
:10591000990B0E941C2E2FE632E143E85AE30E94C5
:105920007B2E9B01AC01C501B4010E94E02F68A34E
:1059300079A38AA39BA33CAA2BAA85EA92E09EABFB
:105940008DABBE01605E7F4FCE01C3960E94961D57
:105950008091AB059091AC0526961CAE1DAE1EAE97
:105960001FAE26979CAB8BAB1EAA1DAA1CAF85E071
:1059700090E09AAF89AF1DAF0BAF4091AF0550914A
:10598000B0056091B1057091B205CE01C3960E9439
:10599000F5068091AB059091AC051FA618AA19AA2F
:1059A0001AAA99A388A31BA21AA219A784E090E0BF
:1059B0009FA38EA31AA708A7BE016A5B7F4FCE01E3
:1059C00080960E949D128093AD0528966EAD7FADA6
:1059D0002897072E000C880B990B0E941C2E6B0138
:1059E0007C016091B3057091B4058091B5059091EB
:1059F000B6050E941A2E9B01AC01C701B6010E9498
:105A00004C3020E030E04AE754E40E944C3068A378
:105A100079A38AA39BA33CAA2BAA87EA92E09EAB18
:105A20008DABBE01605E7F4FCE01C3960E94961D76
:105A300087EE93E099A388A31BA21AA23DA22CA2F1
:105A4000BE01605E7F4FCE014B960E942D158AE805
:105A500092E00E946114C1010E9443100E94C60797
:105A600060931403709315038093160390931703A8
:105A70000E942B1D2CC98FEF9FEF72CD8CE390E01D
:105A80000E940F0210929F0587CDA090EB04B0906A
:105A9000EC04C090ED04D090EE04E0900A03F09086
:105AA0000B0300910C0310910D039701A801B501A0
:105AB000C6010E94152E87FD02C075018601C7012F
:105AC000D80180930A0390930B03A0930C03B09327
:105AD0000D030E94C607C0900E03D0900F03E09004
