:100000000C94B1010C94E2010C94E2010C94E20115
:100010000C94E2010C94E2010C94E2010C94E201D4
:100020000C94E2010C94E2010C94E2010C94E201C4
:100030000C94E2010C94AF1D0C94E2010C94E201CB
:100040000C94E2010C94AC1E0C94E2010C94E201BD
:100050000C94E2010C94E2010C94E2010C94651DF5
:100060000C94E2010C94761E0C944C1E0C94E2014C
:100070000C94E2010C94E2010C94E2010C94E20174
:100080000C94E2010C94E2010C94E2010C94E20164
:100090000C94E2010C94E2010C94E2010C94411CDA
:1000A0000C94E2010C94E2010C94E2010C94E20144
:1000B0000C94E2010C94E2010C94E2010C94E20134
:1000C0000C94E2010C94E2010C94E2010C94E20124
:1000D0000C94E2010C94E2010C94E2010C94E20114
:1000E0000C94E2010C94D1290C9459170C94330A06
:1000F0000C94D9290C94D2030C9417280C948B08D7
:100100000C9403030C94420A0C94290A0C94D8030F
:100110000C94E2090C94A1030C94FB090C94AC031D
:100120000C94E5080C94F3020C94AF290C9416037C
:100130000C944C080C94AD080C94CB020C947C29C4
:100140000C9482270C944A030C94CA020C94E5295F
:100150000C9427280C94D7030C9404280C94541F57
:100160000C94560A0C94B2030C9432090C949D031F
:100170000C94C4030C941F0A0C944C0A0C943D1C60
:100180000C94C3270C94D1090C945C170C94F402C2
:100190000C946A0A0C9458130C94A5030C942E2703
:1001A0000C94A9030C940D0A0C94CA030C94740AC1
:1001B0000C9409270C94600A0C94E7090C94BA2952
:1001C0000C94F1090C9497030C94150A0C949F0855
:1001D0000C947C080C94C0030C94EF290C944808F0
:1001E0000C94EA290C94050A0C94DC030C941D036E
:1001F0000C9479080C94BC030C94B82A0C94B603A4
:100200000C9420280C94CE030C946F27CDCCCC3DBD
:100210000AD7233C17B7D13877CC2B329595E624F3
:100220001FB14F0A000020410000C84200401C4698
:1002300020BCBE4CCA1B0E5AAEC59D7402000021E4
:1002400000240027002A002D0030003300010100A7
:1002500000040107010A0100002200250028002BEC
:10026000002E003100340002010000050108010BDE
:1002700001000020002300260029002C002F00325E
:10028000000001000003010601090105050505073D
:100290000508080808020202020A0A080804040401
:1002A000040101010101010101030303030303032D
:1002B00003040707070C0C0C0C0C0C0C0C020202BC
:1002C0000206060606060606060B0B0B0B0B0B0BAF
:1002D0000B0102102020080810204010204080024E
:1002E000010201080402010102040810204080807C
:1002F0004020100804020180040201804020100800
:1003000004020108040201010204081020408001D7
:100310000204081020408000000A0B02090C0D0E98
:1003200008070304010000000000000000000000B6
:1003300000000000000000000000000000000000BD
:10034000000000121110000000000000000000007A
:100350000000000000000000000000000000541F2A
:10036000B82A11241FBECFEFD1E2DEBFCDBF00E01F
:100370000CBF13E0A0E0B2E0EEE2F0E600E00BBF5D
:1003800002C007900D92A833B107D9F725E0A8E382
:10039000B3E001C01D92AA3FB207E1F711E0C0EB44
:1003A000D1E000E006C021970109802FFE010E94E4
:1003B000652CCF3AD10780E00807A9F70E944B21AE
:1003C0000C9405300C9400004F925F926F927F92D4
:1003D0008F929F92AF92BF92CF92DF92EF92FF9255
:1003E000CF93DF9300D01F92CDB7DEB7EFE3F5E0F8
:1003F00060817181828193810E94632D2B013C0178
:1004000060914305709144058091450590914605A2
:100410000E94632D6B017C01C418D508E608F7081B
:10042000A0914705B0914805A70196010E940C2CA8
:1004300088248A9423E0922EA12CB12CA50194014A
:100440000E94E22BCA01B901640D751D861D971D1E
:100450000E94C52A69837A838B839C83A091490576
:10046000B0914A05A70196010E940C2CA5019401A8
:100470000E94E22BCA01B901640D751D861D971DEE
:100480000E94C52A9B01AC0169817A818B819C8184
:100490000E946D2C0F900F900F900F90DF91CF91D5
:1004A000FF90EF90DF90CF90BF90AF909F908F9094
:1004B0007F906F905F904F900895CF93DF93EC0102
:1004C00088819981DC01ED91FC910190F081E02D12
:1004D00064E270E01995009741F02FE1FC0123835D
:1004E00021E02283DF91CF91089521E02A83FACF82
:1004F000CF92DF92EF92FF92CF93DF93C0914B05A3
:10050000CC3008F040C025E0C29FE0011124CC505F
:10051000DB4F2B8138E8C32ED12CC21AD10827FD1E
:10052000D394CC0CDD1CCC0CDD1C0D2C000CEE0887
:10053000FF084C8128E532E0241B310947FD339543
:10054000220F331F220F331F032E000C440B550BB9
:100550002C193D094E095F09DC010E940C2C24EB8B
:1005600030E040E050E00E94E22BC20ED31EE41EB9
:10057000F51E8FB7F89496E0C91AD108CC0CDD1C93
:10058000DA82C9828FBFDF91CF91FF90EF90DF9029
:10059000CF900895089508952091B203260F332730
:1005A000331F21323105ECF420912104FC0190E04D
:1005B00080E0243069F082E00895A091B203219197
:1005C000AC014E565C4FA40FB52FB11D2C93019674
:1005D000861798F38091B203680F6093B20380E0AE
:1005E000089581E008950895E091FA038091F90358
:1005F000E81730F4F0E0EB52FC4F808190E0089572
:100600008FEF9FEF08959091FA038091F9032FEFF8
:100610003FEF981748F4E92FF0E0EB52FC4F2081B0
:1006200030E09F5F9093FA03C90108958091F90328
:100630009091FA03891B990B0895CF92DF92EF9264
:10064000FF920F931F93CF93DF937C01CB018A011D
:1006500020912704222389F0EB016B01C40ED51EE3
:10066000CC15DD0569F06991D701ED91FC91019000
:10067000F081E02DC7011995F3CF642F0E94CC02C1
:10068000C801DF91CF911F910F91FF90EF90DF9004
:10069000CF900895CF93DF931F92CDB7DEB76983D4
:1006A000209127042223F9F020914A04203258F0A7
:1006B00021E030E0FC013383228390E080E00F9062
:1006C000DF91CF91089580912804E82FF0E0E75D55
:1006D000FB4F998190838F5F8093280480934A0415
:1006E00081E090E0ECCF61E0CE0101960E94CC0267
:1006F000F7CF8150823108F05AC0E82FF0E0882708
:10070000EB57FC4F8F4F0C94652CA503A90397035F
:100710009D03A103D703AC03B203B603BC03C0031C
:10072000C403CA03CE03D703D203D803DC038091EA
:1007300080008F77809380000895809180008F7D66
:10074000F9CF80918000877FF5CF84B58F7784BD06
:10075000089584B58F7DFBCF8091B0008F77809313
:10076000B00008958091B0008F7DF9CF8091900006
:100770008F77809390000895809190008F7DF9CFBE
:1007800080919000877FF5CF8091A0008F77809334
:10079000A00008958091A0008F7DF9CF8091A000E6
:1007A000877FF5CF809120018F7780932001089576
:1007B000809120018F7DF9CF80912001877FF5CF37
:1007C000CF93DF93282F30E0F901E95EFC4F84914D
:1007D000F901EF52FD4FD491F901E557FD4FC49156
:1007E000CC23A1F081110E947903EC2FF0E0EE0FF1
:1007F000FF1FEF58FD4FA591B491EC91ED2381E0DF
:1008000090E009F480E0DF91CF91089580E090E0DE
:10081000FACF1F93CF93DF93282F30E0F901E95EE1
:10082000FC4F8491F901EF52FD4FD491F901E55746
:10083000FD4FC491CC23A9F0162F81110E9479039A
:10084000EC2FF0E0EE0FFF1FE95AFD4FA591B49198
:100850008FB7F894EC91111108C0D095DE23DC938A
:100860008FBFDF91CF911F910895DE2BF8CFFC0150
:1008700083858F3F19F061E00C9409040895FC0111
:1008800080819181892B39F0A281B3819C9111964D
:100890008C919CBD8DBD83858F3F19F060E00C94D9
:1008A000090408951092210481E08093200410929D
:1008B000FB0361E084E10E94090461E085E10E949C
:1008C0000904E9EBF0E080818E7F808380818D7F59
:1008D000808388E48093B80085E48093BC00089509
:1008E000CF93DF9391E0909391038823B9F0C09167
:1008F000B800D091BA008091BC008A7B8093BC0084
:1009000060E084E10E94090460E085E10E9409043E
:100910000E945204D093BA00C093B800DF91CF91E7
:100920000895CF93DF9390E0FC01EF52FD4F2491A7
:1009300085579D4FFC0184918823D1F090E0880F6A
:10094000991FFC01E35CFD4FA591B491FC01E95AAC
:10095000FD4FC591D49161110EC09FB7F8948C9151
:10096000E22FE0958E238C932881E223E8839FBFBA
:10097000DF91CF9108958FB7F894EC91E22BEC932F
:100980008FBFF6CF8230910538F0880F991F880FFE
:10099000991F05970197F1F70895AF92BF92CF92F3
:1009A000DF92EF92FF920F931F93CF93DF93EC01AF
:1009B00088819981892B89F06EBD0DB407FEFDCF2A
:1009C000BEB48B2DDF91CF911F910F91FF90EF90CF
:1009D000DF90CF90BF90AF9008958885998511E002
:1009E000892B09F010E8AA24A394862F812309F00B
:1009F000A12C062F2C813D814E815F8160E271EA3E
:100A000087E090E00E94142CF22EB02EE12CC22E32
:100A1000D12CFF2019F0C6010E94C2048A85877F6D
:100A200009F042C08D858F3F89F0902F912381E09E
:100A300009F480E08A1551F0EF85F8898F899923B0
:100A400069F19081892B8083AA24A394E989FA898A
:100A50008081998D892B8083FF2019F0C6010E9427
:100A6000C2048E858F3F39F0EB89FC898081988D97
:100A7000892309F0E12AE989FA899081898D809595
:100A8000892380838E858F3F09F0BE2C88859985C8
:100A9000892BB9F5110F1111BCCF93CF908180959F
:100AA00089238083A12CD2CFE989FA898081998D0D
:100AB000892B8083FF2019F0C6010E94C2048D8516
:100AC0008F3F49F0EF85F8898F89902F9123A9F006
:100AD0009081892B8083E989FA899081898D80951D
:100AE000892380838E858F3F69F2EB89FC89808121
:100AF000988D892339F2E12AC5CF90818095892389
:100B0000E9CF1695C8CF8F929F92AF92BF92CF92A6
:100B1000DF92EF92FF920F931F93CF93DF937C01AD
:100B20004B016A01B22EA32E0E943F04E401C80CBF
:100B3000D91CCC15DD0569F4CB2DDA2D0C0F1D1F4A
:100B4000C017D10759F06FEFC7010E94CD048993F8
:100B5000F7CF6991C7010E94CD04EBCFC7010E9476
:100B6000370481E0DF91CF911F910F91FF90EF90BB
:100B7000DF90CF90BF90AF909F908F9008958F920D
:100B80009F92AF92BF92CF92DF92EF92FF920F931C
:100B90001F93CF93DF937C01B62EA72E6A014901E4
:100BA0000E943F04E401080D191DC017D10761F42C
:100BB000CB2DDA2DCC0EDD1ECC15DD0551F0699163
:100BC000C7010E94CD04F8CF6991C7010E94CD04EE
:100BD000ECCFC7010E94370481E0DF91CF911F91D4
:100BE0000F91FF90EF90DF90CF90BF90AF909F90CC
:100BF0008F9008953FB7F89480918D0390918E0364
:100C0000A0918F03B091900326B5A89B05C02F3FFC
:100C100019F00196A11DB11D3FBFBA2FA92F982F22
:100C20008827BC01CD01620F711D811D911D42E01D
:100C3000660F771F881F991F4A95D1F708958F92E5
:100C40009F92AF92BF92CF92DF92EF92FF920F935B
:100C50001F93CF93DF93D0914A04D13208F0D7C0CD
:100C6000182FC09149040E94FA056B017C01809104
:100C7000210481116BC082E0809321041093200431
:100C80008FEF80931F0410921E04D0931D04A9E2DD
:100C9000B4E0EDEFF3E080E0D81391C01092FC03D4
:100CA0008091FC03CC0FC82BC093FC038091FB0305
:100CB000813009F088C01092FB030E94FA056B0195
:100CC0007C018091FC038093BB0080912304909170
:100CD0002404A0912504B0912604892B8A2B8B2B08
:100CE000A1F00E94FA0500912304109124042091A0
:100CF0002504309126046C197D098E099F09061779
:100D000017072807390708F442C08091BC0083FD0B
:100D1000D8CF85EC8093BC000E94FA056B017C0162
:100D200080912104823009F450C080911F048F3FCC
:100D300009F46FC080911F04803209F46CC0809167
:100D40001F04803309F469C084E026C08091230425
:100D500090912404A0912504B0912604892B8A2B1C
:100D60008B2B09F484CF0E94FA0580902304909085
:100D70002404A0902504B09026046C197D098E09E6
:100D80009F0986169706A806B90608F070CF8091CD
:100D900022040E94700485E01092280410924A04F4
:100DA00010922704DF91CF911F910F91FF90EF9048
:100DB000DF90CF90BF90AF909F908F9008959D91BE
:100DC00091938F5F69CF85EEA5CF80912304909199
:100DD0002404A0912504B0912604892B8A2B8B2B07
:100DE00009F49ECF0E94FA05009123041091240477
:100DF00020912504309126046C197D098E099F09E4
:100E0000061717072807390708F08ACFC0CF81E0F7
:100E1000C3CF80E0C1CF82E0BFCF83E0BDCF1F93BF
:100E2000CF93DF93EA01122FDC0111968D919C91F3
:100E3000DC01ED91FC910280F381E02D1995C8173A
:100E4000D90729F4812F0E941F0691E0811190E0BB
:100E5000892FDF91CF911F910895CF92DF92EF926A
:100E6000FF920F931F93CF93DF931F921F92CDB7E3
:100E7000DEB7FC014787508B618B728B828588239C
:100E800071F14487452F562F672F7727882349F123
:100E900043877F018BE0E80EF11C9681878199835F
:100EA0008A83C080D180C114D10409F443C0018574
:100EB00010E098012E5F3F4FD60114968D919C91C2
:100EC0008217930780F480E00F900F90DF91CF910D
:100ED0001F910F91FF90EF90DF90CF90089543877F
:100EE000D1CF4487D6CFF60181819281208131E034
:100EF00030932704209349041092280410924A0446
:100F00000115110541F421E042E050E0B701C601AE
:100F10000E940F07D9CFDC01ED91FC910280F38193
:100F2000E02DA801BE016F5F7F4F199508171907C3
:100F300051F6E9CFA281B381109729F2248135813E
:100F4000018510E02330310579F48E7F89839A83FF
:100F50000F5F1F4F9E012F5F3F4F42E050E0B701F0
:100F6000CD010E94BF05B0CF2115310519F49F773F
:100F70009983F0CF2230310511F49068F9CF2130F8
:100F8000310541F79F779064F3CFCF93DF93EC0166
:100F90008B818823A1F0888191E09093270480932E
:100FA00049041092280410924A0481E00E941F060E
:100FB00091E0811190E0892FDF91CF9108951092F7
:100FC000FA031092F9031092280410924A040E9426
:100FD00052048AEC92E09093F6038093F5038BEC35
:100FE00092E09093F8038093F70381E08B83CE0126
:100FF0000E94C507982F8111CECFDDCF2FB7F8946F
:101000006091890370918A0380918B0390918C0386
:101010002FBF08950F931F93809158059091590504
:10102000892B99F180915A0590915B05892B69F183
:1010300081E0809362050E94FE070091680510918F
:10104000690520916A0530916B05DC01CB01800FA9
:10105000911FA21FB31F8093700590937105A093F9
:101060007205B0937305109263051092800510927B
:1010700081051092820510928305109284051092CA
:10108000850510928605109287051F910F9108958E
:1010900060E070E0CB010895AF92BF92CF92DF92F3
:1010A000EF92FF920F931F93CF93DF936C017B011D
:1010B0008B01040F151FEB015E01AE18BF08C017AE
:1010C000D10759F06991D601ED91FC910190F08121
:1010D000E02DC6011995892B79F7C501DF91CF91D4
:1010E0001F910F91FF90EF90DF90CF90BF90AF9046
:1010F000089590E080E00895FC01538D448D252FE4
:1011000030E0842F90E0821B930B541710F0CF96A1
:10111000089501970895FC01918D828D981761F0D3
:10112000A28DAE0FBF2FB11D5D968C91928D9F5FEA
:101130009F73928F90E008958FEF9FEF0895FC01C9
:10114000918D828D981731F0828DE80FF11D858D7C
:1011500090E008958FEF9FEF0895FC01918D228D0F
:10116000892F90E0805C9F4F821B91098F73992794
:10117000089587E594E00E94AD0821E0892B09F4E9
:1011800020E0822F0895FC01A48DA80FB92FB11D76
:10119000A35ABF4F2C91848D90E001968F739927AD
:1011A000848FA689B7892C93A089B1898C9183708B
:1011B00080648C93938D848D981306C00288F38984
:1011C000E02D80818F7D80830895EF92FF920F93B1
:1011D0001F93CF93DF93EC0181E0888F9B8D8C8DE3
:1011E00098131AC0E889F989808185FF15C09FB7D7
:1011F000F894EE89FF896083E889F989808183709A
:10120000806480839FBF81E090E0DF91CF911F9148
:101210000F91FF90EF900895F62E0B8D10E00F5F69
:101220001F4F0F731127E02E8C8D8E110CC00FB63F
:1012300007FCFACFE889F989808185FFF5CFCE01D7
:101240000E94C308F1CFEB8DEC0FFD2FF11DE35A87
:10125000FF4FF0829FB7F8940B8FEA89FB8980815A
:101260008062CFCFCF93DF93EC01888D8823B9F0D4
:10127000AA89BB89E889F9898C9185FD03C08081A1
:1012800086FD0DC00FB607FCF7CF8C9185FFF2CF1E
:10129000808185FFEDCFCE010E94C308E9CFDF91A9
:1012A000CF9108958F929F92AF92BF92CF92DF928B
:1012B000EF92FF920F931F93CF93DF93EC016A019C
:1012C0007B0120E030E04FE753E4CB01B6010E9400
:1012D000242B4B015C0120E030E0A9010E94F12D9C
:1012E00018168CF5C501B4010E94632D8B01B980DD
:1012F00020E030E0A901C701B6010E94F12D60E0B5
:1013000018160CF061E08B2D0E9409040F3F1105A7
:1013100009F0ECF41127C88161E08C2F0E94910440
:1013200001151105B9F460E08C2FDF91CF911F9169
:101330000F91FF90EF90DF90CF90BF90AF909F9074
:101340008F900C940904C501B4019058CDCF0FEFD4
:1013500010E0E1CF0F3F110511F461E0E5CFEC2F74
:10136000F0E0E95EFC4FE491E150E23108F0BCC0EE
:10137000F0E08827E154F64F8F4F0C94652CD1098B
:10138000E209E709F109FB09740A050A0D0A150AC1
:101390001F0A290A330A420A4C0A740A560A600ACA
:1013A0006A0A84B5806884BD07BDDF91CF911F9123
:1013B0000F91FF90EF90DF90CF90BF90AF909F90F4
:1013C0008F90089584B5806284BD08BDEECF809172
:1013D00080008068809380001093890000938800CB
:1013E000E4CF8091800080628093800010938B0016
:1013F00000938A00DACF809180008860809380001B
:1014000010938D0000938C00D0CF8091B000806845
:101410008093B0000093B300C8CF8091B000806289
:101420008093B0000093B400C0CF8091900080689A
:10143000809390001093990000939800B6CF80910C
:10144000900080628093900010939B0000939A001C
:10145000ACCF8091900088608093900010939D00A5
:1014600000939C00A2CF8091A00080688093A00090
:101470008091A0008F7B8093A0001093A90000931F
:10148000A80093CF8091A00080628093A000109369
:10149000AB000093AA0089CF8091A0008860809360
:1014A000A0001093AD000093AC007FCF809120018D
:1014B000806880932001109329010093280175CF43
:1014C0008091200180628093200110932B01009372
:1014D0002A016BCF809120018860809320011093B6
:1014E0002D0100932C0161CF003811050CF035CF90
:1014F0001ACF8EBD00000DB407FEFDCF8EB5089546
:101500006F3FB1F0E62FE295EF7044E0E49F900169
:101510001124DC01ED91FC91E20FF31F6F70B8E034
:101520006B9FC001112462817381860F971F0895FC
:1015300090E080E00895CF93DF93EC01888199815A
:10154000DC01ED91FC910190F081E02D19952A814B
:101550003B81820F931F9B838A83DF91CF910895F4
:10156000982F80336CF08A3324F08F3524F08B373A
:1015700024F481E0089581341CF081E09B350CF067
:1015800080E00895CF93DF93EC0188819981DC019D
:10159000ED91FC910280F381E02D19952A813B8128
:1015A000820F931F9B838A83DF91CF9108958F923F
:1015B0009F92AF92BF92CF92DF92EF92FF920F93E2
:1015C0001F93CF93DF93CDB7DEB766970FB6F8942E
:1015D000DEBF0FBECDBF6C018E01095E1F4F7801CB
:1015E0008AE0882E912CA12CB12CCB01BA01A50147
:1015F00094010E94142C942F852F605DF801629352
:101600008F01A901692F782F4115510561057105D9
:1016100061F7A7014E1B5F0BBF01C6010E94C20A02
:1016200066960FB6F894DEBF0FBECDBFDF91CF91A7
:101630001F910F91FF90EF90DF90CF90BF90AF90F0
:101640009F908F900895CF92DF92EF92FF920F9329
:101650001F93CF93DF93EC018A85811130C00F81F6
:1016600018850E94FE07D80118966D937D938D937F
:101670009C931B97D801ED91FC910284F385E02D9A
:10168000C801199597FF25C00E94FE07F801C08484
:10169000D184E284F3846C197D098E099F09C4808A
:1016A000D580E680F7806C157D058E059F0510F3CB
:1016B0008FEF9FEF97FD80E0898781E08A8789859A
:1016C000DF91CF911F910F91FF90EF90DF90CF901E
:1016D00008959927EFCF1F93CF93DF93EC01162F37
:1016E0000E94230B811306C01A8681E0DF91CF91FF
:1016F0001F91089580E0FACF0F931F93CF93DF934C
:101700008C01EB018991882369F0C8010E94230BA9
:10171000882379F0FE013197908198130DC0F8016C
:101720001286F0CF90E080E0DF91CF911F910F9172
:10173000089582E090E0F8CF83E090E0F5CFCF937A
:10174000DF93EC01CE010E94230B8B304CF48930E7
:101750005CF4882359F081E08E8390E080E00BC038
:101760008D3011F08032B9F71A86ECCF8E8181115D
:1017700005C081E090E0DF91CF91089582E090E094
:10178000FACFDC01ED91FC91309731F094819F7795
:1017900081E019F080E0089581E008954F925F9212
:1017A0006F927F928F929F92AF92BF92CF92DF9271
:1017B000EF92FF920F931F93CF93DF93EB01DC0126
:1017C0002C912B32D9F12D32D1F50196FF24F394CF
:1017D000FC01208130ED320F3A3018F02E3209F042
:1017E00042C18C0160E070E0CB01F801219130ED45
:1017F000832E820E39E0381520F16A3949E97407E1
:10180000840749E1940738F5AAE0B0E09B01AC01F8
:101810000E94012C912CB12CA12C24013501409463
:10182000509460947094461657066806790698F0AE
:10183000680D791D8A1D9B1D8F01D7CF0196F12C54
:10184000C7CF211108C0FF20E9F161307105810582
:1018500050E89507A0F0E12CBAE08B2E912CA12C3A
:10186000B12C6115710530E883079105B0F1A50130
:1018700094010E94142CCA01B901E394F2CF2C8187
:1018800020782A602C839B01AC0188279927DC01F2
:10189000821B930BA40BB50B88839983AA83BB830C
:1018A0008F2DDF91CF911F910F91FF90EF90DF90DF
:1018B000CF90BF90AF909F908F907F906F905F90F0
:1018C0004F9008952C81207828602C836883798339
:1018D0008A839B83FF24F394E3CFF801D8012D91F1
:1018E0008D0130ED320F3A3010F4E394F6CF2E3202
:1018F00001F58F010F5F1F4FF8010F5F1F4F208110
:10190000A0EDDA2ED20EB9E0BD1598F06C3CECECEF
:101910007E07ECE08E07910578F7AAE0B0E09B0126
:10192000AC010E94012C6D0D711D811D911DEA9469
:10193000E3CF20812F7D10E000E0253409F05BC06B
:1019400021812D32D1F53296CC24C394DF0110E0F1
:1019500000E02E2D0E2C000C330B5AE0B52EFD01AD
:10196000DD9040ED4D0D4A3008F040C0B09EA00122
:10197000B19E500D11240D2DDD0C110B00531109DA
:10198000040F151FA801420F531F473251053CF3A6
:101990008C81CC20C9F040E050E060E070E8F110AC
:1019A00003C040E050E0BA0180788C608C834883AB
:1019B00059836A837B83FC2C73CF2B3219F03196C9
:1019C000C12CC4CF3296FCCF40E050E060E87FEFFE
:1019D000F11004C040E050E060E87FE780788C6060
:1019E0008C83488359836A837B8374CFCC2019F01E
:1019F0001195019511092081211135C00E0D111D80
:101A0000E7FC1A950E94C32A34E2C32E32E0D32E9B
:101A1000101611063CF01195019511094CE0C42EE9
:101A200042E0D42EE12C0115110591F000FF0CC00D
:101A300024E0E29EF0011124EC0DFD1D259135916D
:101A4000459154910E94242B15950795E394EBCF73
:101A5000F11090582C8120782C602C836883798336
:101A60008A839B8337CFF12C1BCFCF93DF9300D09A
:101A70001F921F92CDB7DEB7FC0194819F779630FD
:101A800091F030F4943020F560E070E0CB0111C0AB
:101A90009A30B9F09C3051F19830B1F76081718182
:101AA0008281938104C0608170E090E080E00E94B8
:101AB000C32A0F900F900F900F900F90DF91CF914E
:101AC000089560817181828193810E94C52AF1CF3E
:101AD000808191811D82BE016F5F7F4F04960E94BD
:101AE000CE0BCE0101960E94350DE3CF608171814E
:101AF00082819381DECFFF920F931F93CF93DF9369
:101B0000FC01C381D481058116810180F281E02D21
:101B10003097D9F0848186FF18C065966081CE0128
:101B20000E94800A009789F0FC01F58001151105DB
:101B3000A9F06F2DCE010E94800A009711F0FC01E0
:101B4000F58001501109009789F760E070E0CB0142
:101B5000DF91CF911F910F91FF900895DF91CF9169
:101B60001F910F91FF900C94350DCF92DF92EF9261
:101B7000FF92CF93DF9300D01F921F92CDB7DEB7B5
:101B8000FC0184818F778630D9F040F48430A9F14C
:101B9000853009F43FC090E080E014C08A30F1F055
:101BA0008C3009F43FC08830B1F780819181A281E7
:101BB000B381811520E89207A105B10560F702C045
:101BC000808190E00F900F900F900F900F90DF9119
:101BD000CF91FF90EF90DF90CF9008958081918119
:101BE000A281B381AC01BD0150586F4F7F4F4115A9
:101BF00051056140710578F6E5CF808191811D82A4
:101C0000BE016F5F7F4F0E94CE0BCE0101960E94F6
:101C1000B50DD8CF808191811D82BE016F5F7F4F4E
:101C20000496F1CFC080D180E280F38020E030E0E4
:101C300040E057ECC701B6010E94F12D87FDABCF04
:101C400020E03EEF4FEF56E4C701B6010E94BE2AE6
:101C500018160CF4A0CFC701B6010E94632DCB016A
:101C6000B1CFCF92DF92EF92FF92CF93DF9300D06C
:101C70001F921F92CDB7DEB7FC0184818F7786302B
:101C8000C1F038F4843019F1853071F190E080E0D2
:101C900012C08A3021F08C3079F18830B9F7808118
:101CA0009181A281B381009721E0A207B10518F0CC
:101CB000EDCF808190E00F900F900F900F900F90DC
:101CC000DF91CF91FF90EF90DF90CF9008958081CA
:101CD00091811D82BE016F5F7F4F0E94CE0BCE01AE
:101CE00001960E94310EE7CF808191811D82BE0155
:101CF0006F5F7F4F0496F1CFC080D180E280F38088
:101D000020E030E0A901C701B6010E94F12D87FD56
:101D1000BDCF20E03FEF4FE757E4C701B6010E9477
:101D2000BE2A18160CF4B2CFC701B6010E946A2D64
:101D3000CB01C1CFFC019289915084E0989F900122
:101D40001124A089B189A20FB31F1296ED91FC91C5
:101D500013973097E9F011962C9111978C912817D1
:101D6000B8F481E0820F11968C9388E0289FA0013F
:101D70001124E40FF51F309759F014828FEF8583FB
:101D800017821682BF01892F8295807F820F089566
:101D900060E070E08FEF0895DF92EF92FF920F9373
:101DA0001F93CF93DF93EC017B01D12C6889798954
:101DB0008A89D816E0F484E0D89E80011124060FA9
:101DC000171FD80112966D917C916115710541F034
:101DD000D701ED91FC910280F381E02DC7011995A7
:101DE000F8011382128210821182D394DFCF1A8AF3
:101DF0008FEF8C8BC617D70761F0D701ED91FC915F
:101E00000280F381E02DC7011995D98BC88B84E03E
:101E10008B8BDF91CF911F910F91FF90EF90DF900F
:101E20000895DB01ED91FC9111970280F381E02D83
:101E3000BC01CD0119940F931F93CF93DF93EC0155
:101E4000088119818B819C81009749F0FC012081D8
:101E500031813C832B83B8010E94110FF3CF68813D
:101E60007981CE010596DF91CF911F910F910C944E
:101E7000CC0ECF93DF93EC01E881F981B0E0A0E0D4
:101E80003097F9F09F012C5F3F4F62177307A1F461
:101E9000928191509283911114C080819181109709
:101EA00041F08D939C93BA01CF01DF91CF910C94B7
:101EB000110F99838883F7CFDF010190F081E02D26
:101EC000DFCFDF91CF9108958F929F92AF92BF9213
:101ED000CF92DF92EF92FF920F931F93CF93DF93F6
:101EE0008C01EB01FC01848180FF0AC0488159818B
:101EF000608171816C5F7F4FCE0103960E94390F24
:101F0000F8018481807681F10115110569F1D08095
:101F10005E01F5E1AF0EB11C4E0183E0880E911C0D
:101F2000EFEFDE16F1F06D2DC5010E94800A7C01F5
:101F3000FC01C580848187FF07C048815981668183
:101F40007781C4010E94390FBE01C7010E94640F4E
:101F5000F701848180788483898D8583D98EDC2CF8
:101F6000DFCFF801D082D182DF91CF911F910F9105
:101F7000FF90EF90DF90CF90BF90AF909F908F90A9
:101F80000895EF92FF920F931F93CF93DF937C01FD
:101F90008B01EA016F3F710509F0B0F4E881F98126
:101FA0000480F581E02DAB014B5F5F4FBC01CE019A
:101FB0001995009749F0FC010383DF91CF911F91A0
:101FC0000F91FF90EF900895E881F9810280F381ED
:101FD000E02DB701CE01199590E080E0EECFFF92A1
:101FE0000F931F93CF93DF93EC01F62E8A819B8191
:101FF0000097C9F06C817D81FC01238126171706AB
:1020000091F408811981F80140815181660F771F91
:102010006F5F7F4F0E94C10F009719F421E0F80114
:1020200022839B838A838A819B81009759F02C812C
:102030003D81A9014F5F5F4F5D834C83820F931FEA
:10204000FC01F482DF91CF911F910F91FF900895D1
:102050009F92AF92BF92CF92DF92EF92FF920F9337
:102060001F93CF93DF9300D01F921F92CDB7DEB79F
:102070008C010E94230BD82EF8011286F12CE12C42
:1020800060EFC62EC8010E94230BF8011286D816F5
:1020900009F4B3C0811113C082E090E00F900F905B
:1020A0000F900F900F90DF91CF911F910F91FF90A4
:1020B000EF90DF90CF90BF90AF909F9008958C35B8
:1020C00009F099C0C8010E94230B882329F3EBE48F
:1020D000F2E0853709F083C0F801128654E0952EAE
:1020E000B12CA12CC8010E94230B8823A9F28134B2
:1020F00034F48053803130F083E090E0CFCF8F7D97
:102100008753F8CF44E0AA0CBB1C4A95E1F7A82AF4
:10211000F80112869A949110E5CFC501985D81155A
:10212000944020F47501F3E0FF22ACCFC5019C5D23
:1021300081159440A8F483E0B822B701762F662772
:10214000770F770F6A297B2990E080E0019660384D
:1021500071058105910540F4C8010E94EF0F92CFEF
:10216000B50190E080E0F3CF1982262F2F7320680D
:102170002A8326E096958795779567952A95D1F7D6
:102180006032710580F4606C6B835E01E4E0AE0E3A
:10219000B11CF50162915F01662309F473CFC80198
:1021A0000E94EF0FF6CF262F2F7320682B8386E037
:1021B000769567958A95E1F76031710538F4606E20
:1021C0006C835E01F5E0AF0EB11CE3CF60686C83F9
:1021D000CD825E0126E0A20EB11CDBCF329690814B
:1021E000992309F489CF8913F9CF8181882309F4D0
:1021F00083CFF8011286682FAFCF82819381892B1C
:1022000019F484E090E04ACF90E080E047CFAF92AD
:10221000BF92CF92DF92EF92FF920F931F93CF93D3
:10222000DF93DC011296ED91FC91139714968D913A
:102230009C911597E80FF91F14820D911C9111972D
:1022400014966D917C91159712968D919C91139790
:102250009C012C5F3F4FE801EB81FC817B01E20E8A
:10226000F31E3097B9F043814617170679F45901E8
:10227000AF014C5F5F4FEA14FB0499F1E501C9908F
:102280005E01EA01D990AE01CD14A9F30190F0816D
:10229000E02DE7CFED01F801408151810E94C10F8F
:1022A000FC01892B21F481E0D80112968C93A8813E
:1022B000B98113968D919C91149791838083149684
:1022C000FC93EE9313971B821A82CF01DF91CF917B
:1022D0001F910F91FF90EF90DF90CF90BF90AF9044
:1022E000089582818F5F8283F0CF2F923F924F9229
:1022F0005F926F927F928F929F92AF92BF92CF9296
:10230000DF92EF92FF920F931F93CF93DF9300D052
:1023100000D0CDB7DEB77C017C836B830B969E83A8
:102320008D83D70116969C91169717968C911797C7
:1023300099838A836D907C9011976114710409F4DC
:102340004CC119964C9150E0F3018481958184171A
:102350009507A8F0808191E0909327048093490429
:102360001092280410924A0420E0BE016F5F7F4F54
:10237000C3010E940F07D12CC12C81111AC080E02B
:1023800026960FB6F894DEBF0FBECDBFDF91CF917A
:102390001F910F91FF90EF90DF90CF90BF90AF9083
:1023A0009F908F907F906F905F904F903F902F9075
:1023B0000895D30114968D919C9102E010E00C19C0
:1023C0001D098017910708F48C01F30150800E94C9
:1023D000FA054B015C0180912104811176C0B02E79
:1023E000F0E2F01710F440E2B42E81E08093210473
:1023F00021E082E090E0801B910BC816D90608F41A
:1024000020E0209320049FEF90931F0410921E045D
:102410008FEF8B0D80931D04A1E0A093FC038091AE
:10242000FC03550C582A5092FC038091FB03813029
:1024300009F093C01092FB030E94FA051B012C01C6
:102440008091FC038093BB0080912304909124042D
:10245000A0912504B0912604892B8A2B8B2BA1F007
:102460000E94FA0520912304309124044091250410
:1024700050912604621973098409950926173707B4
:102480004807590708F442C08091BC0083FDD8CFAB
:10249000B5ECB093BC000E94FA051B012C018091A1
:1024A0002104813009F45DC080911E048B1510F465
:1024B000B0901E04ADEFB3E0E5EDF3E080E08B15E6
:1024C00051F19D9191938F5FFACF80912304909168
:1024D0002404A0912504B0912604892B8A2B8B2BF0
:1024E00009F479CF0E94FA05209123043091240445
:1024F0004091250450912604681979098A099B099D
:10250000261737074807590708F065CF809122043E
:102510000E947004B12C1092FA03B092F903B01625
:10252000110609F02CCF8D809E808C0C9D1C5401CF
:10253000C5018819990980179107A8F5D30111964B
:102540008D919C91DC01ED91FC910284F385E02D4D
:102550001995F50181935F01EBCFE5EEE093BC00A7
:102560009ACF8091230490912404A0912504B091E6
:102570002604892B8A2B8B2B09F491CF0E94FA0514
:102580002091230430912404409125045091260485
:1025900062197309840995092617370748075907EF
:1025A00008F07DCFB3CFC00ED11EF2E0CF16D1041C
:1025B00008F4FFCEF7018285811142C0848590E046
:1025C000982F8827AB81BC8111969C938E9323858D
:1025D000822B8D939C9381E0D3CE1296ED91FC914A
:1025E0001397309709F4CBCE14962D913C91159703
:1025F00019964C9150E02330310591F48160898324
:102600009A834F5F5F4F02E010E02D813E81BE0153
:102610006F5F7F4FCF010E9483058111CBCFB0CE7A
:102620002115310519F490689983EDCF22303105D9
:1026300011F49F77F9CF2130310529F7906CF4CF51
:10264000838590E0982F8827AB81BC8111969C935D
:102650008E932485BDCFCF93DF93EC0180918403CB
:1026600090918503029739F440E050E0BA0182EB83
:1026700095E00E945209C230D105B9F02CF4D7FD83
:1026800007C00E940A0804C0CE0104970397C8F34C
:10269000D0938503C09384030E94FE07709359036F
:1026A00060935803DF91CF91089510926205F0CFA7
:1026B000AB01BC01705884EB95E00C945209FC010D
:1026C00001900020E9F73197AF01481B590BBC017D
:1026D00087E594E00C944C08DF92EF92FF920F9301
:1026E0001F93CF93DF936115710561F460E070E093
:1026F0008FEF9D2DDF91CF911F910F91FF90EF9064
:10270000DF9008958A01EB01DC01FC900B5E1F4F06
:102710006F2DC8010E94800A009741F3FC01E580FB
:10272000009721F30680F781E02DDE010D90002057
:10273000E9F79D01215031092C1B3D0BB0E0A0E0D1
:10274000309739F0DF010D900020E9F71197AE1BAB
:10275000BF0B2A173B0751F4DE012C0F3D1FA217B8
:10276000B30769F05D9141915417C9F36E2DC8010B
:102770000E94800A009709F4B9CFFE2CCFCFBC018C
:102780008F2DDE2CB6CFFC01408151816281738197
:10279000CA014A9641F0FA01268D25FF04C00E9425
:1027A0006C13CB01089590E080E008950F931F9380
:1027B000CF93DF93FC01C181D281058116810196FF
:1027C0000E94C313009781F0FC01248125FF0CC0F7
:1027D000AE01B8010E946C139B01B901CE01DF91DB
:1027E000CF911F910F91089530E020E0F6CFFB01CB
:1027F00001900020E9F73197AF01461B570B0C946D
:10280000C20A1F93CF93DF93EBE4F2E0128111230E
:1028100079F0329621816213F9CFEC016CE50E94C8
:102820009B0A612FCE01DF91CF911F910C949B0ADF
:102830006111F9CF6CE572E0DF91CF911F910C949B
:10284000F713CF92DF92EF92FF920F931F93CF93E4
:10285000DF938C016B017A0162E20E949B0AE60120
:10286000EC0CFD1CCE15DF0529F06991C8010E9412
:102870000114F8CF62E2C801DF91CF911F910F914F
:10288000FF90EF90DF90CF900C949B0A2F923F9295
:102890004F925F926F927F928F929F92AF92BF9270
:1028A000CF92DF92EF92FF920F931F93CF93DF931C
:1028B000CDB7DEB76C970FB6F894DEBF0FBECDBFB5
:1028C0008C011B01DC0114968C9114978F77883052
:1028D00009F4B2C2E8F4843009F469C248F48330E0
:1028E00009F49FC263E672E0C1010E94F7131CC2A3
:1028F000853009F470C28630A9F78C9168E672E0E1
:10290000811102C06DE672E0C1010E94F7136DC231
:102910008C30F1F1C8F48A3029F7CD90DD90ED903C
:10292000FC90B701A601F7FE0BC06DE2C1010E9449
:102930009B0A44275527BA014C195D096E097F0986
:10294000C1010E94D70A51C2803209F4F7C1803414
:1029500049F66BE5C1010E949B0AF80110811F3FF7
:1029600009F4E7C1D10114968D919C91612F459690
:102970000E94800A8C01B1010E944614F801158161
:102980001F3F09F4D6C16CE2C1010E949B0AE7CF48
:10299000F801C080D180E280F380A7019601C701D1
:1029A000B6010E94BE2A81119DCF20E030E0A9012E
:1029B000C701B6010E94BE2A882379F0A7019601BB
:1029C000C701B6010E946E2C9B01AC01C701B60184
:1029D0000E94BE2A882309F485CF20E030E0A901B7
:1029E000C701B6010E94BE2A87FF08C06DE2C1017F
:1029F0000E949B0AF7FAF094F7F8F09420E836E981
:102A000048E15BE4C701B6010E94F12D87FD88C053
:102A100074E1A72EB12C00E210E0188E1F8AF50198
:102A2000EC5DFD4F2591359145915491C701B6015B
:102A30000E94F12D87FD13C0F501E45FFD4F259144
:102A4000359145915491C701B6010E94242B6B0129
:102A50007C012F89388D200F311F388F2F8B1595D2
:102A6000079534E0A31AB1088CEFA8168FEFB806CB
:102A7000B1F655245A9420E030E0A901C701B6010F
:102A80000E94F12D18160CF052C02CEA35EC47E2EA
:102A900057E3C701B6010E94BE2A18160CF447C0BE
:102AA000A52DB4E0AB02C0011124B12CA12CFC0176
:102AB000E45FFD4F3F019C012C5D3D4F49013FEF1D
:102AC000531609F434C0F301EA0DFB1D65917591AD
:102AD0008591949120E030E040E251E40E94242B63
:102AE000A70196010E94F12D18169CF4F401EA0D3D
:102AF000FB1D2591359145915491C701B6010E9466
:102B0000242B6B017C018F89988D801B910B988FF2
:102B10008F8B159507955A9494E0A91AB108CFCFD9
:102B200000E210E055E0552E188E1F8AA4CFC70191
:102B3000B6010E946A2D4B015C012B013C0106E0AD
:102B400080E492E4AFE0B0E0898F9A8FAB8FBC8FC6
:102B5000102F01509AE04916510461047104C8F025
:102B6000698D7A8D8B8D9C8D2AE030E040E050E0BD
:102B70000E94142C298F3A8F4B8F5C8FC301B201B6
:102B80002AE030E040E050E00E94142C29013A0194
:102B9000DFCFC501B4010E94C32A9B01AC01C7016C
:102BA000B6010E946D2C6B017C01698D7A8D8B8D35
:102BB0009C8D0E94C32A9B01AC01C701B6010E94F3
:102BC000242B2B013C010E946A2D6B017C010E9489
:102BD000C32A9B01AC01C301B2010E946D2C9B0171
:102BE000AC010E946E2C0E946A2DC60ED71EE81EF4
:102BF000F91E898D9A8DAB8DBC8DC816D906EA0653
:102C0000FB06D8F09FEF891A990AA90AB90AAF8979
:102C1000B88DAB2B39F1BAE08B169104A104B10445
:102C200008F1EF89F88D3196F88FEF8BC12CD12CFC
:102C30007601812C912C540183942AE0422E512C50
:102C4000612C712CC701B601A30192010E94142CC2
:102C5000672B682B692B51F4111644F469017A0132
:102C60001150F0CFC12CD12C7601E7CFB501A401D2
:102C7000C1010E94D70A112371F14E01F1E18F0EBB
:102C8000911C012F54019AE0492E512C612C712C7A
:102C9000015068F0C701B601A30192010E94142CF3
:102CA000605DD4016E934D0169017A01F1CF812FEE
:102CB00090E0BC0160957095F501E81BF90B319728
:102CC0008EE2808344275527461B570B6A0D7B1DD8
:102CD000C1010E94C20AEF89F88DEF2B29F165E648
:102CE000C1010E949B0A0F89188D17FF07C06DE272
:102CF000C1010E949B0A119501951109FE01779669
:102D00009F018AE0E82EF12CC801B7010E94512CE6
:102D1000805D82938B01672BB9F7A9014E1B5F0B76
:102D2000BF01C1010E94C20AD10112968D919C91EE
:102D30005FC06DE5C1010E949B0AF6CF6BE7C10140
:102D40000E949B0AF80110811F3F79F1D10114966E
:102D50008D919C91612F45960E94800A8C01FC0107
:102D6000C680D78062E2C1010E949B0A7601D7012A
:102D70006D917D01662321F0C1010E940114F7CFFE
:102D800062E2C1010E949B0A6AE3C1010E949B0AA0
:102D9000B101C8010E944614F80115811F3F29F0B6
:102DA0006CE2C1010E949B0ACFCF6DE7C3CFF8014F
:102DB0006081718150E040E06115710541F0FB01D7
:102DC00001900020E9F73197AF01461B570BC10175
:102DD0000E942114A9CFED91FC91438150E0BF01E5
:102DE0006C5F7F4FC1010E942114F10182819381A8
:102DF0006C960FB6F894DEBF0FBECDBFDF91CF91BA
:102E00001F910F91FF90EF90DF90CF90BF90AF9008
:102E10009F908F907F906F905F904F903F902F90FA
:102E20000895ED91FC91438150E0BF016C5F7F4FAD
:102E3000C1010E94C20AD9CF4D915D916D917C91E3
:102E40007FCD85ED8093BC00809123049091240474
:102E5000A0912504B09126040796A11DB11D23E081
:102E6000B695A795979587952A95D1F72091BC009F
:102E700024FD03C010922104089540912304509131
:102E800024046091250470912604452B462B472B82
:102E900069F30097A105B10541F02AE22A95F1F7FF
:102EA00000C00197A109B109E1CF809122040C94DF
:102EB0007004CB010C94F62DCB010C94922E8F92C2
:102EC0009F92AF92BF92CF92DF92EF92FF920F93B9
:102ED0001F93CF93DF936C018B01DB015996FC901C
:102EE000BFEFFB1621F16F2DC80145960E94800AA5
:102EF000EC018D81F801818F209709F496C01C8226
:102F00008FEF8D831F821E82D60111966C916F3FC9
:102F100009F49FC0C80145960E94800AFC01F58211
:102F2000D6011196FC92BE018F2D9D8084C05B015D
:102F3000F5E0AF0EB11CDB01ED90FC9011975796B8
:102F40008C91882349F0C5010E949A0EC62FD72F75
:102F5000209711F0F82ED8CFF801C789908DC913AA
:102F600025C0C03109F461C0CC0F65897689D701CD
:102F7000ED91FC91B4E0CB9FA0011124A616B706F9
:102F800009F04BC00190F081E02DBA01C7011995FD
:102F9000009709F44AC020E1F501DC0101900D928F
:102FA0002A95E1F7F801968B858BC08FD80155964D
:102FB000CD91DC91569757968C91579721E0280F29
:102FC00057962C93B4E08B9FC0011124C80FD91FD2
:102FD00090E1892E203111F48FE0882EE8E08E9E5A
:102FE000B0011124D701ED91FC910190F081E02D09
:102FF000C70119959B838A83892B09F4812C8882C8
:103000001982CD2B91F0C5010E949A0EC62FD72FA1
:10301000F82E209709F078CF08C00480F581E02DC4
:10302000C7011995009709F0BDCF81E0F8018283AF
:1030300060E070E08FEF992DDF91CF911F910F919C
:10304000FF90EF90DF90CF90BF90AF909F908F90C8
:103050000895F601F082F18266CF8F929F92AF922F
:10306000BF92CF92DF92EF92FF920F931F93CF9375
:10307000DF93EC018B01D42E0E949F0B7C01892BE6
:1030800009F047C0CE010E94230B863609F452C1D5
:1030900024F5873229F08B3561F1823209F053C172
:1030A0001D821C828A819B81892B31F488819981C0
:1030B0000E945D029B838A83CE010E9428107C01BE
:1030C000892B39F5CE010E940711F801248120785F
:1030D00025602483918380831CC0843709F412C146
:1030E0008B3709F45BC08E3609F02DC163E672E0C0
:1030F00012C1F801848180788064848301151105F0
:1031000019F08FEF80838183D11011C025E0E22E6A
:10311000F12CC701DF91CF911F910F91FF90EF909C
:10312000DF90CF90BF90AF909F908F9008951A86B8
:10313000CE010E949F0B009709F085C06DE5CE017E
:103140000E946B0B8111E5CFDA946B857C85C801F9
:103150000E945F176115710521F484E0E82EF12CBF
:10316000D8CF4D2DCE010E942D18009709F06BC0CD
:10317000CE010E949F0B009709F065C06DE5CE015E
:103180000E946B0B8111C5CF6CE2CE010E946B0BCC
:103190008111DBCF93E0E92EF12CBBCFF8018481C4
:1031A0008078806284830115110519F08FEF808388
:1031B0008183DD2009F4AACF1A86CE010E949F0BDD
:1031C000009709F040C06DE7CE010E946B0B8111A2
:1031D000A0CFBB24BA94BD0C1D821C828A819B8126
:1031E000892B31F4888199810E945D029B838A83B7
:1031F000CE010E94230B8732E1F08232D1F0CE0162
:103200000E94230BD82E0E94B00A882319F21A8636
:103210006D2DCE010E94EF0FCE010E94230BD82E00
:103220000E94B00A8111F3CF8A819B81892B31F4EE
:1032300094CFCE010E942810009729F4CE010E945D
:103240009F0B009711F07C0164CF6AE3CE010E94CE
:103250006B0B882309F49ECFEA81FB818C819D81D1
:10326000E80FF91F14824B855C856A817B816C5F56
:103270007F4FC8010E946C13CB016B01672BC9F50E
:10328000CE010E9407114C016B857C85C8010E940C
:103290005F176B016115710509F45FCFFB01848134
:1032A00080688483F4E08F0E911CF60197828682F9
:1032B0004B2DB601CE010E942D18009721F6CE01AC
:1032C0000E949F0B009709F0BECF6DE7CE010E94D0
:1032D0006B0B81111ECF6CE2CE010E946B0B882319
:1032E00009F458CFCE010E949F0B009709F474CFC8
:1032F000AACF6B857C850E94640FF601848180785B
:103300008483D6CFF801848180788660848381E0CD
:10331000808368E672E0CE01DF91CF911F910F911B
:10332000FF90EF90DF90CF90BF90AF909F908F90E5
:103330000C947C0BF80184818078866084831082F1
:103340006DE672E0E8CFCE010E94230B5E01FDE046
:10335000AF0EB11CD12C9A2CCB2C803374F08A3355
:1033600074F49FE3D91699F01A86D394F5018193EA
:103370005F01CE010E94230BF0CF8B3291F393EDCE
:10338000980F923070F3982F9F7D953451F3CD0DA7
:10339000D11D1D86B801892D9C2D0E94CE0B811157
:1033A000B8CEF8CE8F929F92AF92BF92CF92DF921B
:1033B000EF92FF920F931F93CF93DF93CDB7DEB7BA
:1033C000CE57D1090FB6F894DEBF0FBECDBF8E0128
:1033D000025B1F4F81E092E0F801918380831282AB
:1033E00014821382C8010596968B858B178A24E078
:1033F000208F2FEF218F168EED961FAE1EAEED970C
:10340000EF961FAE1EAEEF9761E072E00E94CC0E09
:10341000F8011282E080F180F801838194810097A5
:1034200051F0FC0120813181F80134832383B701FD
:103430000E94110FF1CF168E1A8309831C821B8202
:103440001E821D821F8287E594E0998788871B86EC
:103450001D870C874AE0B801665E7F4FCE0101965A
:103460000E942D187C01892B51F48A85882339F01C
:10347000F801868D83FF03C043E0E42EF12C8B819D
:103480009C81009731F0E981FA81608171810E940D
:10349000110FE114F10451F183E792E00E945F13F0
:1034A000F701EE0FFF1FE55EFD4F808191810097D0
:1034B00011F00E945F138AE892E00E945F13C80136
:1034C0000E941B0FC258DF4F0FB6F894DEBF0FBE2D
:1034D000CDBFDF91CF911F910F91FF90EF90DF90C3
:1034E000CF90BF90AF909F908F9008951A830983DB
:1034F0008DE892E09C838B83CE0101960E94C313DA
:10350000ED969FAF8EAFED97EF961FAF0EAFEF9793
:10351000CE0185589F4F0E94C10B81115EC0109251
:103520006205EF968CAD9DADAEADBFADEF97E99660
:103530008CAF9DAFAEAFBFAFE99782E090E0EB9666
:103540009FAF8EAFEB97CE018C589F4F0E947B0DA3
:103550006B017C01EF968CAD9DADAEADBFADEF972D
:10356000E2968CAF9DAFAEAFBFAFE29781E090E047
:10357000E4969FAF8EAFE497CE0183599F4F0E9490
:103580007B0D4B015C01EF968CAD9DADAEADBFAD3B
:10359000EF978A839B83AC83BD831F821E82CE01FB
:1035A00001960E947B0D60934C0570934D058093AE
:1035B0004E0590934F058092500590925105A09230
:1035C0005205B0925305C0925405D0925505E09231
:1035D0005605F09257050E940A081A83098326E9C6
:1035E000E22E22E0F22EFC82EB82CE0101960E94B6
:1035F000C313ED969FAF8EAFED97CE0185589F4FC9
:103600000E94C10B811164C01B830A83FD82EC827E
:103610008EE992E09F838E83CE0101960E94D6139D
:10362000EF966CAF7DAF8EAF9FAFEF97CE01855811
:103630009F4F0E94C10B811142CFED968EAD9FAD81
:10364000ED97009709F470C00E94310E90935B03D0
:1036500080935A031B830A8386E992E09D838C83BF
:1036600088EA92E09F838E83CE0101960E94D61352
:10367000EF966CAF7DAF8EAF9FAFEF97CE018558C1
:103680009F4F0E94C10B81111ACF9CE5C92E93E078
:10369000D92EF12CE12CEF968CAD9DADAEADBFAD2A
:1036A000EF978A839B83AC83BD83FF82EE82CE013A
:1036B00001960E947B0DF601619371938193919322
:1036C0006F01FFEFEF1AFF0A8AE0E816F10419F71D
:1036D0001A8309838FEAE82E82E0F82EFC82EB82BF
:1036E000CE0101960E94C313ED969FAF8EAFED976A
:1036F000EF961FAF0EAFEF97CE0185589F4F0E94F8
:10370000C10B8111DCCE1A830983FC82EB82CE01CE
:1037100001960E94C313009751F00E94B50D90933B
:10372000850380938403CBCE90E080E08FCF90E040
:1037300080E0F5CF0E94B90881110E94D21980E083
:1037400090E0892B49F080E090E0892B29F00E94DD
:10375000000081110E94000080E090E0892B49F078
:1037600080E090E0892B29F00E94000081110E94E6
:10377000000080E090E0892B49F080E090E0892B08
:1037800029F00E94000081110C9400000895EF922E
:10379000FF920F931F93CF93DF93FC01E080F180A2
:1037A0008701065E1F4F21F1C281D381209751F11D
:1037B000F701868D982F9F7719F580788062868F24
:1037C0008FEF828F838FA701BE01C8010E946C1307
:1037D000FB01309761F4B701C8010E945F17FB013C
:1037E000309729F084818F778483D783C6838F01B4
:1037F000C801DF91CF911F910F91FF90EF90089535
:1038000085FDE1CF10E000E0F3CFAF92BF92CF9201
:10381000DF92EF92FF920F931F93CF93DF938C0170
:103820007B01DC01AD90BC900E94C71BEC010097AE
:1038300081F0F701C080D180E280F380B5010E9461
:10384000640F8C8180788C608C83C882D982EA82F4
:10385000FB82D801ED91FC9180E0309719F08281D4
:1038600091E08927DF91CF911F910F91FF90EF9009
:10387000DF90CF90BF90AF900895CB01BA010C9428
:103880001B2F1F920F920FB60F9211240BB60F929F
:103890002F933F934F935F936F937F938F939F9358
:1038A000AF93BF93EF93FF938091B900887F8036E9
:1038B00009F44DC008F040C0883209F4A9C028F5C9
:1038C000803109F49DC0C8F4882309F4FBC0883016
:1038D00009F496C0FF91EF91BF91AF919F918F91A5
:1038E0007F916F915F914F913F912F910F900BBE00
:1038F0000F900FBE0F901F901895883109F488C063
:10390000803241F780931F0414C0803409F49DC0B5
:1039100040F48033B9F38833E9F680931F0485ECD3
:10392000B0C0803509F485C0883509F496C0883464
:1039300089F60E942117CECF883909F48CC038F55A
:10394000883729F050F4883611F0803719F683E073
:10395000809321041092D40357C0883809F47BC0A7
:10396000803919F0803809F0B5CF8091D4038032C6
:1039700008F071C0E091D40381E08E0F8093D403EE
:103980008091BB00F0E0EC54FC4F80833DC0803B55
:1039900039F0E0F4803A09F479C0883A09F09ACF16
:1039A00084E0809321041092B3031092B203E0915B
:1039B000F503F091F60319958091B20381110FC0C0
:1039C00081E08093B2031092920309C0803C09F415
:1039D000A6CF883C09F4A3CF883B09F07BCFE091C8
:1039E000B30381E08E0F8093B303F0E0EE56FC4FFB
:1039F00080818093BB009091B3038091B20329C072
:103A00008091FC038093BB0085EC8093BC0062CF67
:103A100090911E0480911D04981758F5E0911E04A2
:103A200081E08E0F80931E04F0E0E350FC4F808114
:103A3000E9CFE0911E0481E08E0F80931E048091F7
:103A4000BB00F0E0E350FC4F808390911E04809116
:103A50001D049817C8F285E8D8CFE0911E0481E0D4
:103A60008E0F80931E048091BB00F0E0E350FC4F6A
:103A700080838091200481115CCF81E08093FB03DF
:103A800084EA8093BC001092210424CF85EC8093BB
:103A9000BC00109221048091D403803230F4E09174
:103AA000D403F0E0EC54FC4F10826091D40370E03A
:103AB000E091F703F091F80384EB93E019951092ED
:103AC000D40308CF10921F0434CF1F920F920FB669
:103AD0000F9211242F933F938F939F93AF93BF9394
:103AE0008091890390918A03A0918B03B0918C03FC
:103AF0003091880323E0230F2D3758F50196A11D3F
:103B0000B11D209388038093890390938A03A09327
:103B10008B03B0938C0380918D0390918E03A091C1
:103B20008F03B09190030196A11DB11D80938D0369
:103B300090938E03A0938F03B0939003BF91AF91A6
:103B40009F918F913F912F910F900FBE0F901F90DB
:103B5000189526E8230F0296A11DB11DD2CF1F9202
:103B60000F920FB60F9211240BB60F922F933F9323
:103B70004F935F936F937F938F939F93AF93BF9375
:103B8000EF93FF938091530390915403A0915503B9
:103B9000B0915603892B8A2B8B2BD1F19091520334
:103BA00080910000892780930000809153039091B9
:103BB0005403A0915503B0915603181619061A061E
:103BC0001B069CF48091530390915403A0915503DC
:103BD000B09156030197A109B109809353039093C3
:103BE0005403A0935503B0935603FF91EF91BF91F7
:103BF000AF919F918F917F916F915F914F913F9185
:103C00002F910F900BBE0F900FBE0F901F90189525
:103C100080910002ECE3F2E0E4919FEF90930002C8
:103C2000E230E9F040F4EE2389F0E13091F060E019
:103C30000E940904DACFE43049F110F1E530B9F718
:103C4000909173009D7F90937300F1CF10926E005E
:103C5000EECF90916F009D7F90936F00E8CF909191
:103C600070009D7F9093700091E09093B0009091D0
:103C7000B100987F94609093B1001092B300D7CFB9
:103C8000909171009D7F90937100D1CF90917200BF
:103C90009D7F90937200CBCF1F920F920FB60F9221
:103CA00011240BB60F922F933F934F935F936F9313
:103CB0007F938F939F93AF93BF93EF93FF9387E58A
:103CC00094E00E94C308FF91EF91BF91AF919F9143
:103CD0008F917F916F915F914F913F912F910F90B5
:103CE0000BBE0F900FBE0F901F9018951F920F9252
:103CF0000FB60F9211240BB60F922F938F939F93B1
:103D0000EF93FF93E0916704F09168048081E09164
:103D10006D04F0916E0482FD1DC09081809170044D
:103D20008F5F8F7320917104821741F0E0917004CE
:103D3000F0E0E95AFB4F958F80937004FF91EF916B
:103D40009F918F912F910F900BBE0F900FBE0F90F0
:103D50001F9018958081F2CF1F920F920FB60F928D
:103D600011240BB60F922F933F934F935F936F9352
:103D70007F938F939F93AF93BF93CF93DF93EF93F3
:103D8000FF9380915103C0913005D0E087FF23C09D
:103D90001092850010928400809151038F5F809370
:103DA000510380915103082E000C990B8C179D072D
:103DB00024F4809151038C3074F1809184009091AF
:103DC000850084349C4908F465C0809184009091FA
:103DD0008500049661C080915103082E000C990B58
:103DE0008C179D07CCF63091510325E03203F0018A
:103DF0001124EC50FB4F808186FFCECF30915103D0
:103E00003203F0011124EC50FB4F808160E08F738E
:103E10000E940904C1CF8091840090918500309167
:103E2000510325E03203F0011124EC50FB4F418196
:103E30005281840F951F9093890080938800309160
:103E400051033203F0011124EC50FB4F808186FFB7
:103E50000CC0309151033203F0011124EC50FB4FA0
:103E6000808161E08F730E940904FF91EF91DF91DF
:103E7000CF91BF91AF919F918F917F916F915F9102
:103E80004F913F912F910F900BBE0F900FBE0F904F
:103E90001F90189580E49CE9909389008093880096
:103EA0008FEF80935103E1CF0F931F9310924E0435
:103EB00010924D0488EE93E0A0E0B0E080934F04B0
:103EC00090935004A0935104B09352042BE232E03B
:103ED00030934C0420934B0410925A0410925904CE
:103EE00080935B0490935C04A0935D04B0935E04A4
:103EF0008DE392E0909358048093570485EC90E012
:103F0000909364048093630484EC90E0909366043F
:103F10008093650480EC90E090936804809367043C
:103F200081EC90E090936A048093690482EC90E0C5
:103F300090936C0480936B0486EC90E090936E04F5
:103F400080936D04109270041092710410927204A8
:103F5000109273048DEC9CECACECBEE38093E60510
:103F60009093E705A093E805B093E9058DEC9CECF0
:103F7000ACE4BEE38093EA059093EB05A093EC05D7
:103F8000B093ED0543E353E363E37FE34093EE0532
:103F90005093EF056093F0057093F1050DEC1CEC68
:103FA0002CEC3DE30093F2051093F3052093F40508
:103FB0003093F5054093D6055093D7056093D80507
:103FC0007093D9058093DA059093DB05A093DC0507
:103FD000B093DD0540E050E060E87FE34093DE050C
:103FE0005093DF056093E0057093E1051092E205C0
:103FF0001092E3051092E4051092E5054DEC5CEC9F
:104000006CE47DEB4093C6055093C7056093C805EB
:104010007093C9058093CA059093CB05A093CC05F6
:10402000B093CD058DEC9CECACE4BDE38093CE0564
:104030009093CF05A093D005B093D1051092D205EF
:104040001092D3051092D4051092D5058CE0809380
:10405000980584E28093990585E080939A0596E01F
:1040600090939B059EE190939C059FE190939D0505
:1040700092E290939E0593E290939F0594E490932F
:10408000A00595E49093A1051092A3051092A205B6
:1040900090E49093A5051092AA051092AB0510929A
:1040A000AC051092AD051092AE051092AF051092BE
:1040B000B0051092B10598E0E9E0F2E0AAEBB5E0B6
:1040C00001900D929A95E1F740E050E060EA70E4CB
:1040D0004093C2055093C3056093C4057093C50512
:1040E000E0913005EC3008F0CEC091E09E0F909347
:1040F0003005E09397058E9FF0011124EC50FB4FA3
:1041000088EB9BE09283818388E6809388051092F8
:104110004C0510924D0510924E0510924F051092CD
:1041200050051092510510925205109253051092AD
:10413000540510925505109256051092570510928D
:1041400059051092580510925B0510925A0510926D
:104150005D0510925C0510925E0510925F0510924D
:10416000600510926105109262051092630510922D
:1041700070051092710510927205109273051092DD
:10418000740510927505109276051092770580E0FF
:1041900090E0A0EAB0E48093780590937905A0932D
:1041A0007A05B0937B0580E090E0A8ECB2E48093C0
:1041B0007C0590937D05A0937E05B0937F051092BA
:1041C000800510928105109282051092830510924D
:1041D0008405109285051092860510928705E0915E
:1041E0003005EC3008F053C081E08E0F809330052D
:1041F000E0934B0585E0E89FF0011124EC50FB4F64
:1042000088EB9BE09283818384EE9BECA6E1B0EC8B
:1042100080933F0590934005A0934105B0934205DC
:1042200084EE9BECA6E1B0E48093430590934405B3
:10423000A0934505B093460589EB99EAA8E2B3E35C
:104240008093310590933205A0933305B0933405E4
:1042500080E090E0A0E0BFE38093350590933605C1
:10426000A0933705B093380510923A05109239059E
:1042700010923C0510923B0510923E0510923D05B0
:104280001F910F9108958FEF809397053DCF8FEF8A
:1042900080934B05B9CFCF93DF93CDB7DEB7C95429
:1042A000D1090FB6F894DEBF0FBECDBF789484B5A8
:1042B000826084BD84B5816084BD85B5826085BD22
:1042C00085B5816085BD80916E00816080936E00B0
:1042D00010928100809181008260809381008091A2
:1042E0008100816080938100809180008160809353
:1042F00080008091B10084608093B1008091B00013
:1043000081608093B00080919100826080939100E1
:1043100080919100816080939100809190008160F4
:10432000809390008091A10082608093A100809191
:10433000A10081608093A1008091A00081608093A2
:10434000A000809121018260809321018091210150
:104350008160809321018091200181608093200100
:1043600080917A00846080937A0080917A008260E4
:1043700080937A0080917A00816080937A008091A6
:104380007A00806880937A001092C100E0916704FF
:10439000F091680482E08083E0916304F09164040A
:1043A0001082E0916504F09166048FEC8083109296
:1043B0006F04E0916B04F0916C0486E08083E091DF
:1043C0006904F0916A04808180618083E0916904CE
:1043D000F0916A04808188608083E0916904F091A3
:1043E0006A04808180688083E0916904F0916A04A6
:1043F00080818F7D808361E0809199050E94910486
:1044000060E0809199050E94090460E08091980520
:104410000E9491048091A2059091A305892BA9F493
:1044200086E090E00E94F62DFC018091A505808336
:104430008BE494E092838183138280E290E0958301
:104440008483F093A305E093A205E090A205F09089
:10445000A3051092FA031092F90310922804109207
:104460004A040E9452048AEC92E09093F6038093EF
:10447000F5038BEC92E09093F8038093F70311E03F
:10448000D70113961C93C7010E94C507882309F41E
:104490005BC080E090E1A0E0B0E08093A60590933F
:1044A000A705A093A805B093A9058AE090E0A0E035
:1044B000B0E08093AA059093AB05A093AC05B093B0
:1044C000AD0580E090E0A0E0B0E48093AE0590936D
:1044D000AF05A093B005B093B1058091A20590916E
:1044E000A3051FA618AA19AA1AAA99A388A31BA2F2
:1044F0001AA219A785E090E09FA38EA31AA702E055
:1045000008A740E050E160E070E0CE0180960E9494
:104510002D078091A2059091A305188A198A1A8AFD
:104520001B8A9A8389831C821B821A8718861F82A2
:104530001B8709874FE959E360E070E0CE010196DF
:104540000E942D078093A405BAE9EB2EB5E0FB2E5F
:1045500008E915E080EC682E82E0782E96E0892E3E
:1045600093E0992E2BECC22E27E0D22E3BE8A32E0F
:10457000BB24B394F7019281D7018D917D01F8019D
:10458000828F938F61E00E94910461E0D8015B9675
:104590008C910E949104F70195818381D8015E96E8
:1045A0008C935E975F969C9361E00E94910460E01B
:1045B000F801878D0E94910461E0D8015E968C918C
:1045C0000E9409045FB6F89480915703811125C0B9
:1045D000F3018491F4019491E82FF0E0EE0FFF1FB6
:1045E000E35CFD4FA591B4918C91982321F461E097
:1045F00085E30E94090461E085E30E9491048CB583
:1046000080618CBD8CB580648CBD61E084E30E94C8
:10461000910461E083E30E949104809157038F5FCE
:10462000809357035FBEC6010197F1F760E0D801A0
:104630005E968C910E94090488E80E94790A83E0C2
:104640000E94790A61E0F801868D0E940904C60182
:104650000197F1F760E0D8015E968C910E94090401
:1046600088E90E94790A80E00E94790A80E00E942D
:10467000790A80E00E94790A80E00E94790A61E06C
:10468000F801868D0E940904C5010197F1F760E0E9
:10469000D8015E968C910E94090480EE0E94790AEE
:1046A00061E0F801868D0E9409040E5F1F4FF5E05E
:1046B0000C391F0709F05ECF60E081E10E94910490
:1046C00060E080E10E94910480914B058C3008F0FD
:1046D00047C061E088E00E94910480914B0525E08D
:1046E000829FF0011124EC50FB4F9081907C9860E8
:1046F0009083138214822CE0622F0E94452C829FAB
:10470000B001112430E020E095E0AB01420F531FCF
:10471000949FF001959FF00D1124EC50FB4F4081C8
:1047200046FD13C02F5F3F4F2C30310571F78111CB
:104730000CC01092800082E080938100109285006E
:104740001092840086BB80936F00E0914B0535E0AA
:10475000E39FF0011124EC50FB4F80818064808343
:1047600080E090E0A0E8BEE380934C0590934D0577
:10477000A0934E05B0934F058DEC9CECACECBDE3E3
:104780008093500590935105A0935205B093530523
:104790001092540510925505109256051092570527
:1047A0008FE692E1A3E8BAE38093780590937905C8
:1047B000A0937A05B0937B0588EC90E0A0E0B0E090
:1047C0008093680590936905A0936A05B0936B0583
:1047D0008DEC9CECACE4BEE380936405909365059E
:1047E000A0936605B093670588E498E09093590517
:1047F0008093580588E593E190935B0580935A0573
:104800008E010F5F1F4F1E0181E1280E311C0E9497
:10481000FE072091860330918703621B730B810989
:104820009109633371058105910508F4CBC2A1E0BC
:10483000B2E0BA83A9831B821D821C82E6E0F0E00D
:10484000EC0FFD1FFF8BEE8B188E84E0898F8FEFAE
:104850008A8F1F8E0E94FE074B015C0119A308A3DB
:1048600025EB32E03BA32AA3CE0180960E94C71B12
:104870007C01009781F0B8010E94640FD701149663
:104880008C9114978078886014968C93F7018082BD
:104890009182A282B38280915E0590915F05A09182
:1048A0006005B091610588A399A3AAA3BBA31CAB23
:1048B0000BAB8AEB92E09EAB8DABBE01605E7F4F8F
:1048C000CE01C3960E94051C6091390570913A058E
:1048D000072E000C880B990B0E94C52A20913105E8
:1048E0003091320540913305509134050E94242BBC
:1048F00020913505309136054091370550913805A6
:104900000E946E2C68A379A38AA39BA31CAB0BAB5C
:1049100081EC92E09EAB8DABBE01605E7F4FCE011D
:10492000C3960E94051C6091390570913A058091EB
:104930003B0590913C05681B790B072E000C880BFA
:10494000990B0E94C52A2091310530913205409182
:104950003305509134050E94242B68A379A38AA3C0
:104960009BA31CAB0BAB80EC92E09EAB8DABBE016E
:10497000605E7F4FCE01C3960E94051C6091390591
:1049800070913A0580913B0590913C05681B790B2D
:1049900080913D0590913E05681B790B072E000C18
:1049A000880B990B0E94C52A209131053091320560
:1049B00040913305509134050E94242B68A379A3BC
:1049C0008AA39BA31CAB0BAB8FEB92E09EAB8DAB92
:1049D000BE01605E7F4FCE01C3960E94051C6091B0
:1049E000390570913A0580913B0590913C05681B13
:1049F000790B072E000C880B990B0E94C52A209179
:104A000031053091320540913305509134050E94B3
:104A1000242B9B01AC010E946E2C2BED3FE049E45E
:104A200050E40E94242B2DEC3CEC4CEC5DE30E9406
:104A3000242B68A379A38AA39BA31CAB0BAB87ECA5
:104A400092E09EAB8DABBE01605E7F4FCE01C39600
:104A50000E94051C60913F057091400580914105C1
:104A6000909142050E94632D6B017C01609143058A
:104A70007091440580914505909146050E94632DF3
:104A80009B01AC012C193D094E095F09A091470516
:104A9000B09148050E940C2C2FEF33E040E050E02D
:104AA0000E94E22BCA01B9016C0D7D1D8E1D9F1D58
:104AB0000E94C52A68A379A38AA39BA31CAB0BAB56
:104AC0008DEC92E09EAB8DABBE01605E7F4FCE0160
:104AD000C3960E94051C0E94E40168A379A38AA3DF
:104AE0009BA31CAB0BAB8CEC92E09EAB8DABBE01E1
:104AF000605E7F4FCE01C3960E94051CD090630577
:104B000019A308A389ED92E09BA38AA3CE01809606
:104B10000E94C71B7C01009769F0B8010E94640FD6
:104B2000D70114968C9114978078866014968C9394
:104B30001497DC9260916C0570916D0580916E0503
:104B400090916F050E94C32A68A379A38AA39BA3AF
:104B50001CAB0BAB80EE92E09EAB8DABBE01605EFA
:104B60007F4FCE01C3960E94051CE0908403F09015
:104B7000850319A308A38FEA92E09BA38AA3CE0121
:104B800080960E94C71B6C01009781F0B8010E94BB
:104B9000640FF601848180788A608483C701FF0CEA
:104BA000AA0BBB0B80839183A283B3838091A20560
:104BB0009091A3051FA618AA19AA1AAA99A388A3B7
:104BC0001BA21AA2FF24F394F9A682E090E09FA30F
:104BD0008EA3FAA652E0E52EE8A6BE016D5C7F4FDB
:104BE000CE0180960E9475118093A405CBA8DCA805
:104BF00063E0D694C7946A95E1F7CC0CDD1CCC0C2D
:104C0000DD1C8091A2059091A3051FA618AA19AAE0
:104C10001AAA99A388A31BA21AA2F9A681E090E080
:104C20009FA38EA3FAA6E8A6BE016D5C7F4FCE01BE
:104C300080960E9475118093A4056BA97CA9072E0C
:104C4000000C880B990B0E94C52A2AE037ED43E23D
:104C50005CE30E94242B20E030E04AE754E40E9409
:104C6000F12C4B015C01B601DD0C880B990B0E9405
:104C7000C52A2FE632E143E85AE30E94242B9B0128
:104C8000AC01C501B4010E946E2C68A379A38AA36C
:104C90009BA31CAB0BAB8BEE92E09EAB8DABBE012E
:104CA000605E7F4FCE01C3960E94051C8091A205D5
:104CB0009091A30526961CAE1DAE1EAE1FAE269784
:104CC0009CAB8BAB1EAA1DAAFCAE85E090E09AAF10
:104CD00089AFFDAEEBAE4091A6055091A70560915E
:104CE000A8057091A905CE01C3960E942D07809159
:104CF000A2059091A3051FA618AA19AA1AAA99A3FA
:104D000088A31BA21AA2F9A684E090E09FA38EA319
:104D1000FAA6E8A6BE016A5B7F4FCE0180960E948C
:104D200075118093A40528966EAD7FAD2897072E48
:104D3000000C880B990B0E94C52A6B017C016091C5
:104D4000AA057091AB058091AC059091AD050E94CC
:104D5000C32A9B01AC01C701B6010E94F12C20E0DF
:104D600030E04AE754E40E94F12C68A379A38AA3B7
:104D70009BA31CAB0BAB83EF92E09EAB8DABBE0154
:104D8000605E7F4FCE01C3960E94051C87E594E0CC
:104D900099A388A31BA21AA21DA30CA3BE01605E47
:104DA0007F4FCE014B960E9446148AE892E00E9403
:104DB0005F13C8010E941B0F0E94FE0770938703B8
:104DC0006093860381E10E94E003892BD1F087E0A4
:104DD00090E00E942B13E0918403F09185033197BA
:104DE000E830F10520F58827E750F94D8F4F0C94F6
:104DF000652C09272E276F278227C3270428202800
:104E0000172880E10E94E003892B29F388E090E0D5
:104E1000E0CF0E94E4012AE037ED43EA5CE30E9420
:104E2000BE2A87FF9CC282E090E00E942B13E09193
:104E30008403F0918503E930F10508F078C18827F3
:104E4000EB5DF84D8F4F0C94652CEF29AF297C2931
:104E5000BA292728D929D129EA29E52920E030E0F3
:104E6000A9016091C6057091C7058091C805909110
:104E7000C9050E94BE2A87FF3FC220E030E0A90199
:104E80006091CE057091CF058091D0059091D105AC
:104E90000E94F12D18160CF02FC220E030E0A9017D
:104EA0006091CA057091CB058091CC059091CD059C
:104EB0000E94F12D18160CF01FC220E030E0A9016D
:104EC0006091D2057091D3058091D4059091D5055C
:104ED0000E94BE2A87FF10C290E080E0A6CF0E9409
:104EE000FE072091580330915903621B730B81090F
:104EF0009109693E73408105910508F43BC284E045
:104F000090E093CF20E030E0A9016091E605709138
:104F1000E7058091E8059091E9050E94BE2A87FF88
:104F200096C020E030E0A9016091EE057091EF0598
:104F30008091F0059091F1050E94F12D18160CF06A
:104F400086C020E030E0A9016091EA057091EB0590
:104F50008091EC059091ED050E94F12D18160CF052
:104F600076C020E030E0A9016091F2057091F30570
:104F70008091F4059091F5050E94BE2A87FF67C0D5
:104F800085E090E052CF20E030E0A9016091D605A5
:104F90007091D7058091D8059091D9050E94BE2ABD
:104FA00087FF07C220E030E0A9016091DE05709123
:104FB000DF058091E0059091E1050E94F12D181622
:104FC0000CF0F7C120E030E0A9016091DA057091A2
:104FD000DB058091DC059091DD050E94F12D18160E
:104FE0000CF0E7C120E030E0A9016091E20570918A
:104FF000E3058091E4059091E5050E94BE2A87FFB4
:10500000D8C186E090E011CF0E94FE07209158039E
:1050100030915903621B730B81099109693C710539
:105020008105910508F4BDC181E090E0FECE80E1EC
:105030000E94E003892B21F490E080E00E942B1372
:1050400081E10E94E003892B09F0F1CE45CF0E9457
:10505000FE0740915A0350915B039A012C593F4F30
:105060002617370708F444C19B01241B350BB901EF
:1050700090E080E00E94C32A20E030E040E251E46A
:105080000E94F12C4B015C010E94DA2C2B013C01A7
:10509000C501B4010E94992D0E946A2D6B0190E018
:1050A00080E00E94C32A9B01AC01C501B4010E94AB
:1050B0006D2C4B015C01CC0CDD1CCC0CDD1CC60145
:1050C000865A9C4F6C01A501940160E070E080E875
:1050D0009FE30E946D2CD60112962D913D914D912A
:1050E0005C9115970E94242B6B017C01C301B201D6
:1050F0000E946A2D660F771F660F771F665A7C4FD6
:10510000FB012281338144815581C501B4010E9494
:10511000242B9B01AC01C701B6010E946E2C609349
:105120005E0570935F0580936005909361058091A3
:105130007B00877F80937B0087E480937C00809155
:105140007A00806480937A0080917A0086FDFCCF9B
:105150008091780090917900209147053091480521
:1051600030934A052093490590934805809347055D
:1051700060E08091B8050E94090480E60E94790AE7
:10518000DE0111967D016D0180E00E94790A90E0B8
:10519000B0E0A0E0F60181939193A193B1936F01E8
:1051A0002E163F0689F761E08091B8050E94090438
:1051B00040E050E0BA01F70181919191A191B19144
:1051C0007F01762F652F542F4427480F591F6A1FE0
:1051D0007B1FCE16DF0679F78091390590913A054D
:1051E00020913B0530913C05DC01A21BB30BB09331
:1051F0003E05A0933D0590933C0580933B0570953B
:105200006095509541955F4F6F4F7F4F50933A0592
:10521000409339050E94FE07C0907005D09071053B
:10522000E0907205F09073056C157D058E059F0565
:1052300008F45BC080916205882309F456C00E947F
:10524000FE07C0906805D0906905E0906A05F0906F
:105250006B05DC01CB018C0D9D1DAE1DBF1D809328
:10526000700590937105A0937205B0937305C0907B
:105270005E05D0905F05E0906005F0906105E091DB
:105280005805F091590519959B01AC01C701B6016C
:105290000E946D2C6B017C019F77209178053091E5
:1052A000790540917A0550917B050E94BE2A87FFBF
:1052B0009BC081E08093630510926205E0915C05DC
:1052C000F0915D05309709F01995809170059091E6
:1052D0007105A0917205B091730580937405909348
:1052E0007505A0937605B09377050E949A1B8FCA27
:1052F00060E070E0CB0113CF6091390570913A0501
:10530000072E000C880B990B0E94C52A20913105AD
:105310003091320540913305509134050E94242B81
:10532000209135053091360540913705509138056B
:105330000E946E2C20E030E0A9010E94BE2A4DECB4
:105340005CEC6CEC7DEB87FF04C04DEC5CEC6CEC32
:105350007DE3705884EB95E00E945209E8CE0E94EC
:10536000E4012DEC3CEC4CE45EEB0E94242BAB0101
:10537000BC01EFCF40E050E060E070E884EB95E0E6
:105380000E9452090E94FE07209158033091590350
:10539000621B730B81099109643F7140810591057E
:1053A00018F490E080E002C084EB90E00E94780264
:1053B000BECE80E090E0A0E0B0E480935E059093E4
:1053C0005F05A0936005B09361054DEC5CEC6CE467
:1053D0007EE3C0CF4DEC5CEC6CE47EEBBBCF40E0F9
:1053E00050E060E070E8B6CFE0915A05F0915B05BF
:1053F0002A96FFAFEEAF2A970E94FE0780907405B1
:1054000090907505A0907605B09077056819790998
:105410008A099B0960936C0570936D0580936E05F6
:1054200090936F0520918005309181054091820510
:1054300050918305C701B6010E946E2C60938005D0
:1054400070938105809382059093830580907C05FD
:1054500090907D05A0907E05B0907F05A5019401F8
:105460000E94F12D181644F48092800590928105D7
:10547000A0928205B0928305B7FAB094B7F8B094C1
:10548000A50194016091800570918105809182054C
:10549000909183050E94BE2A87FF08C080928005F4
:1054A00090928105A0928205B09283058090640558
:1054B00090906505A0906605B090670520918005E5
:1054C000309181054091820550918305609150058E
:1054D0007091510580915205909153050E94242BA3
:1054E000A50194010E94242B2B013C0120914C0525
:1054F00030914D0540914E0550914F05C701B601C1
:105500000E94242B9B01AC01C301B2010E946E2CAE
:105510002B013C0120918405309185054091860541
:1055200050918705C701B6010E946D2C209154054A
:105530003091550540915605509157050E94242BF6
:10554000A50194010E94F12C9B01AC01C301B201A1
:105550000E946E2CC0928405D0928505E09286054B
:10556000F09287052A96EEADFFAD2A971995ADCE3C
:105570008091A2059091A3050C94922E0E94002B7D
:1055800008F481E00895E89409C097FB3EF49095F3
:105590008095709561957F4F8F4F9F4F9923A9F00C
:1055A000F92F96E9BB279395F6958795779567959B
:1055B000B795F111F8CFFAF4BB0F11F460FF1BC0DF
:1055C0006F5F7F4F8F4F9F4F16C0882311F096E972
:1055D00011C0772321F09EE8872F762F05C0662320
:1055E00071F096E8862F70E060E02AF09A95660FD9
:1055F000771F881FDAF7880F9695879597F9089592
:10560000990F0008550FAA0BE0E8FEEF16161706D3
:10561000E807F907C0F012161306E407F50798F03B
:10562000621B730B840B950B39F40A2661F0232B54
:10563000242B252B21F408950A2609F4A140A695D0
:105640008FEF811D811D08950E94372B0C94A82B8C
:105650000E949A2B38F00E94A12B20F0952311F084
:105660000C94912B0C94972B11240C94DC2B0E94FE
:10567000B92B70F3959FC1F3950F50E0551F629FB2
:10568000F001729FBB27F00DB11D639FAA27F00D9B
:10569000B11DAA1F649F6627B00DA11D661F829FC2
:1056A0002227B00DA11D621F739FB00DA11D621FA7
:1056B000839FA00D611D221F749F3327A00D611DC4
:1056C000231F849F600D211D822F762F6A2F1124A6
:1056D0009F5750409AF0F1F088234AF0EE0FFF1FD9
:1056E000BB1F661F771F881F91505040A9F79E3F30
:1056F000510580F00C94912B0C94DC2B5F3FE4F36C
:10570000983ED4F3869577956795B795F795E79585
:105710009F5FC1F7FE2B880F911D9695879597F98E
:10572000089597F99F6780E870E060E008959FEF23
:1057300080EC089500240A94161617061806090628
:10574000089500240A9412161306140605060895F7
:10575000092E0394000C11F4882352F0BB0F40F47F
:10576000BF2B11F460FF04C06F5F7F4F8F4F9F4FBF
:10577000089557FD9058440F551F59F05F3F71F041
:105780004795880F97FB991F61F09F3F79F08795A8
:105790000895121613061406551FF2CF4695F1DF31
:1057A00008C0161617061806991FF1CF86957105C1
:1057B000610508940895E894BB2766277727CB01F5
:1057C00097F90895052E97FB1EF400940E94F92B7B
:1057D00057FD07D00E94142C07FC03D04EF40C9404
:1057E000F92B50954095309521953F4F4F4F5F4F86
:1057F000089590958095709561957F4F8F4F9F4F3D
:1058000008950E94362CA59F900DB49F900DA49FE3
:10581000800D911D11240895B7FF0C94012C0E9456
:10582000012C821B930B0895A1E21A2EAA1BBB1B0D
:10583000FD010DC0AA1FBB1FEE1FFF1FA217B3075C
:10584000E407F50720F0A21BB30BE40BF50B661F72
:10585000771F881F991F1A9469F760957095809536
:1058600090959B01AC01BD01CF010895A29FB001AD
:10587000B39FC001A39F700D811D1124911DB29F84
:10588000700D811D1124911D0895991B79E004C0AC
:10589000991F961708F0961B881F7A95C9F780956F
:1058A0000895AA1BBB1B51E107C0AA1FBB1FA61767
:1058B000B70710F0A61BB70B881F991F5A95A9F7B9
:1058C00080959095BC01CD010895EE0FFF1F881FB4
:1058D0008BBF0790F691E02D19945058BB27AA274B
:1058E0000E94852C0C94A82B0E949A2B38F00E94C1
:1058F000A12B20F039F49F3F19F426F40C94972B38
:105900000EF4E095E7FB0C94912BE92F0E94B92B44
:1059100058F3BA17620773078407950720F079F4E4
:10592000A6F50C94DB2B0EF4E0950B2EBA2FA02DD0
:105930000B01B90190010C01CA01A0011124FF273C
:10594000591B99F0593F50F4503E68F11A16F04037
:10595000A22F232F342F4427585FF3CF4695379536
:105960002795A795F0405395C9F77EF41F16BA0BFB
:10597000620B730B840BBAF09150A1F0FF0FBB1FA9
:10598000661F771F881FC2F70EC0BA0F621F731FF2
:10599000841F48F4879577956795B795F7959E3F4F
:1059A00008F0B0CF9395880F08F09927EE0F9795E0
:1059B000879508950E94D92D90F09F3748F4911152
:1059C00016F40C94DC2B60E070E080E89FE308950F
:1059D00026F01B16611D711D811D0C94B02D0C94B9
:1059E000CB2D0E94052D0C94A82B0E94A12B58F0C2
:1059F0000E949A2B40F029F45F3F29F00C94912BE0
:105A000051110C94DC2B0C94972B0E94B92B68F34A
:105A10009923B1F3552391F3951B550BBB27AA2767
:105A200062177307840738F09F5F5F4F220F331FA1
:105A3000441FAA1FA9F335D00E2E3AF0E0E832D069
:105A400091505040E695001CCAF72BD0FE2F29D06C
:105A5000660F771F881FBB1F261737074807AB073E
:105A6000B0E809F0BB0B802DBF01FF2793585F4FB3
:105A70003AF09E3F510578F00C94912B0C94DC2B5E
:105A80005F3FE4F3983ED4F3869577956795B79595
:105A9000F7959F5FC9F7880F911D9695879597F9A0
:105AA0000895E1E0660F771F881FBB1F6217730719
:105AB0008407BA0720F0621B730B840BBA0BEE1F2E
:105AC00088F7E09508950E946A2D6894B1110C94AE
:105AD000DC2B08950E94C12B88F09F5798F0B92FB6
