:100000000C94C0010C94F1010C94F1010C94F101D9
:100010000C94F1010C94F1010C94F1010C94F10198
:100020000C94F1010C94F1010C94F1010C94F10188
:100030000C94F1010C94E41E0C94F1010C94F10168
:100040000C94F1010C94E11F0C94F1010C94F1015A
:100050000C94F1010C94F1010C94F1010C949A1E92
:100060000C94F1010C94AB1F0C94811F0C94F101C2
:100070000C94F1010C94F1010C94F1010C94F10138
:100080000C94F1010C94F1010C94F1010C94F10128
:100090000C94F1010C94F1010C94F1010C94761D77
:1000A0000C94F1010C94F1010C94F1010C94F10108
:1000B0000C94F1010C94F1010C94F1010C94F101F8
:1000C0000C94F1010C94F1010C94F1010C94F101E8
:1000D0000C94F1010C94F1010C94F1010C94F101D8
:1000E0000C94F10105A84CCDB2D44EB93836A90212
:1000F0000C50B9918688083CA6AAAA2ABE00000026
:10010000803F0C94D4090C94A6250C94E1030C9424
:100110000C0A0C94C8080C94430A0C94E5030C9444
:10012000EF030C9463250C94F0090C9449260C946D
:10013000D4250C948B2A0C9482080C94FC030C9408
:10014000020A0C9418030C943B030C9419030C94AE
:1001500001040C945C080C94CA090C94BC030C9424
:10016000160A0C94C6030C946E080C94B12A0C94D5
:100170001D180C9443260C94F0020C942F080C9438
:100180004E260C9490080C94C2030C9442030C94D9
:10019000D1030C9484250C94CA030C94802A0C94EB
:1001A000DB030C9454260C94D30B0C946F030C9427
:1001B000390A0C94B62A0C94D7030C9428030C9497
:1001C0002C260C94CE030C94E8090C9415090C947D
:1001D0005F080C94FD030C94AD2A0C9459260C94E2
:1001E000BD250C942F0A0C94F7030C9489200C94D1
:1001F000E1170C94C5090C944D0A0C94DE090C947B
:10020000570A0C94E9030C94250A0C94EF020C9401
:10021000902B0C94E2250C94B4090C94B0170C9418
:10022000F3030C94F8090C942713CDCCCC3D0AD7DA
:10023000233C17B7D13877CC2B329595E6241FB1E4
:100240004F0A000020410000C84200401C4620BC6C
:10025000BE4CCA1B0E5AAEC59D740200002100247C
:100260000027002A002D00300033000101000004A7
:100270000107010A0100002200250028002B002EA2
:10028000003100340002010000050108010B0100EB
:100290000020002300260029002C002F003200003F
:1002A0000100000301060109010505050507050810
:1002B000080808020202020A0A08080404040401E9
:1002C000010101010101010303030303030303040B
:1002D0000707070C0C0C0C0C0C0C0C02020202069B
:1002E000060606060606060B0B0B0B0B0B0B0B018B
:1002F0000210202008081020401020408002010237
:1003000001080402010102040810204080804020FE
:100310001008040201800402018040201008040239
:1003200001080402010102040810204080010204B7
:10033000081020408000000A0B02090C0D0E08076F
:1003400003040100000000000000000000000000A5
:10035000000000000000000000000000000000009D
:10036000001211100000000000000000000000005A
:100370000000000000000000000000008920902B19
:1003800011241FBECFEFD1E2DEBFCDBF00E00CBF16
:1003900012E0A0E0B2E0ECE8F2E600E00BBF02C041
:1003A00007900D92A03FB107D9F725E0A0EFB2E08A
:1003B00001C01D92A538B207E1F711E0CFEBD1E003
:1003C00000E006C021970109802FFE010E94122D36
:1003D000CE3BD10780E00807A9F70E9464220C9465
:1003E00034310C940000CF93DF93C9ECD4E028851E
:1003F00039854A855B856C857D858E859F850E94C4
:100400003D2E288139814A815B810E94042C2C81F8
:100410003D814E815F810E94242DDF91CF9108950F
:100420008F929F92AF92BF92CF92DF92EF92FF9204
:10043000CF93DF93C9EED4E0C880D980EA80FB80F7
:10044000A70196016C817D818E819F810E94232D61
:100450004B015C016A857B85072E000C880B990B8C
:100460000E94A52B9B01AC01C501B4010E94042C84
:1004700020E030EC4FE754E40E94952DA70196014F
:100480000E94242D6B017C0168857985072E000C64
:10049000880B990B0E94A52B9B01AC01C701B601EB
:1004A0000E94232DDF91CF91FF90EF90DF90CF90AE
:1004B000BF90AF909F908F9008954F925F926F92F0
:1004C0007F928F929F92AF92BF92CF92DF92EF92E4
:1004D000FF92CF93DF93C9EED4E0C880D980EA8041
:1004E000FB80A70196016C817D818E819F810E9496
:1004F000232D4B015C016A857B85072E000C880B40
:10050000990B0E94A52BA50194010E94042C20E0C8
:1005100030EC4FE754E40E94952DA70196010E940C
:10052000242D2B013C016C857D85072E000C880B4A
:10053000990B0E94A52BA50194010E94042C20E098
:1005400030EC4FE754E40E94952DA70196010E94DC
:10055000242D9B01AC01C301B2010E94232DDF9128
:10056000CF91FF90EF90DF90CF90BF90AF909F9092
:100570008F907F906F905F904F900895CF93DF930F
:10058000EC0188819981DC01ED91FC910190F08171
:10059000E02D64E270E01995009741F02FE1FC0135
:1005A000238321E02283DF91CF91089521E02A83E4
:1005B000FACF80917B00877F80937B0087E48093D4
:1005C0007C0080917A00806480937A0080917A0028
:1005D00086FDFCCF80917800909179000895089570
:1005E000089520914403260F3327331F213231050C
:1005F000ECF42091B303FC0190E080E0243069F03A
:1006000082E00895A09144032191AC014C5D5C4FC0
:10061000A40FB52FB11D2C930196861798F38091E6
:100620004403680F6093440380E0089581E00895D7
:100630000895E0918C0380918B03E81730F4F0E08B
:10064000E959FC4F808190E008958FEF9FEF089566
:1006500090918C0380918B032FEF3FEF981748F414
:10066000E92FF0E0E959FC4F208130E09F5F909343
:100670008C03C901089580918B0390918C03891B91
:10068000990B0895CF92DF92EF92FF920F931F93F1
:10069000CF93DF937C01CB018A012091B903222300
:1006A00089F0EB016B01C40ED51ECC15DD0569F098
:1006B0006991D701ED91FC910190F081E02DC70186
:1006C0001995F3CF642F0E94F102C801DF91CF91F9
:1006D0001F910F91FF90EF90DF90CF900895CF93EF
:1006E000DF931F92CDB7DEB769832091B903222330
:1006F000F9F02091DC03203258F021E030E0FC01D9
:100700003383228390E080E00F90DF91CF910895B2
:100710008091BA03E82FF0E0E554FC4F9981908373
:100720008F5F8093BA038093DC0381E090E0ECCF8D
:1007300061E0CE0101960E94F102F7CF8150823133
:1007400008F05AC0E82FF0E08827E655FC4F8F4F9D
:100750000C94122DCA03CE03BC03C203C603FC03D0
:10076000D103D703DB03E103E503E903EF03F3035D
:10077000FC03F703FD030104809180008F778093D1
:1007800080000895809180008F7DF9CF8091800056
:10079000877FF5CF84B58F7784BD089584B58F7D2D
:1007A000FBCF8091B0008F778093B0000895809147
:1007B000B0008F7DF9CF809190008F77809390006B
:1007C0000895809190008F7DF9CF80919000877F70
:1007D000F5CF8091A0008F778093A000089580913D
:1007E000A0008F7DF9CF8091A000877FF5CF809109
:1007F00020018F77809320010895809120018F7DC3
:10080000F9CF80912001877FF5CFCF93DF93282FF9
:1008100030E0F901EB5CFC4F8491F901E151FD4FAF
:10082000D491F901E755FD4FC491CC23A1F081117A
:100830000E949E03EC2FF0E0EE0FFF1FE157FD4FEB
:10084000A591B491EC91ED2381E090E009F480E072
:10085000DF91CF91089580E090E0FACF1F93CF937E
:10086000DF93282F30E0F901EB5CFC4F8491F90114
:10087000E151FD4FD491F901E755FD4FC491CC23CF
:10088000A9F0162F81110E949E03EC2FF0E0EE0FCD
:10089000FF1FEB58FD4FA591B4918FB7F894EC91E1
:1008A000111108C0D095DE23DC938FBFDF91CF916B
:1008B0001F910895DE2BF8CFFC0180819181892B57
:1008C00039F0A281B3819C9111968C919CBD8DBD14
:1008D00083858F3F19F060E00C942E040895FC018D
:1008E00083858F3F19F061E00C942E0408951092D7
:1008F000B30381E08093B20310928D0361E084E141
:100900000E942E0461E085E10E942E04E9EBF0E0F4
:1009100080818E7F808380818D7F808388E4809337
:10092000B80085E48093BC000895CF93DF9391E0F5
:10093000909323038823B9F0C091B800D091BA00F6
:100940008091BC008A7B8093BC0060E084E10E94BF
:100950002E0460E085E10E942E040E947704D0936B
:10096000BA00C093B800DF91CF910895CF93DF9381
:1009700090E0FC01E151FD4F249187559D4FFC0112
:1009800084918823D1F090E0880F991FFC01E55AEB
:10099000FD4FA591B491FC01EB58FD4FC591D49149
:1009A00061110EC09FB7F8948C91E22FE0958E23D1
:1009B0008C932881E223E8839FBFDF91CF91089534
:1009C0008FB7F894EC91E22BEC938FBFF6CF823087
:1009D000910538F0880F991F880F991F0597019787
:1009E000F1F70895AF92BF92CF92DF92EF92FF920C
:1009F0000F931F93CF93DF93EC0188819981892B0B
:100A000089F06EBD0DB407FEFDCFBEB48B2DDF9116
:100A1000CF911F910F91FF90EF90DF90CF90BF90FB
:100A2000AF9008958885998511E0892B09F010E829
:100A3000AA24A394862F812309F0A12C062F2C81B0
:100A40003D814E815F8160E271EA87E090E00E9423
:100A5000CD2CF22EB02EE12CC22ED12CFF2019F07D
:100A6000C6010E94E7048A85877F09F042C08D8510
:100A70008F3F89F0902F912381E009F480E08A155F
:100A800051F0EF85F8898F89992369F19081892B3D
:100A90008083AA24A394E989FA898081998D892B7E
:100AA0008083FF2019F0C6010E94E7048E858F3FE6
:100AB00039F0EB89FC898081988D892309F0E12A3E
:100AC000E989FA899081898D8095892380838E8533
:100AD0008F3F09F0BE2C88859985892BB9F5110FB8
:100AE0001111BCCF93CF9081809589238083A12C55
:100AF000D2CFE989FA898081998D892B8083FF2063
:100B000019F0C6010E94E7048D858F3F49F0EF85FB
:100B1000F8898F89902F9123A9F09081892B808368
:100B2000E989FA899081898D8095892380838E85D2
:100B30008F3F69F2EB89FC898081988D892339F296
:100B4000E12AC5CF908180958923E9CF1695C8CF3A
:100B50008F929F92AF92BF92CF92DF92EF92FF92CD
:100B60000F931F93CF93DF937C014B016A01B22E49
:100B7000A32E0E945C04E401C80CD91CCC15DD0531
:100B800069F4CB2DDA2D0C0F1D1FC017D10759F0BA
:100B90006FEFC7010E94F2048993F7CF6991C701F3
:100BA0000E94F204EBCFC7010E946F0481E0DF9145
:100BB000CF911F910F91FF90EF90DF90CF90BF905A
:100BC000AF909F908F9008958F929F92AF92BF9217
:100BD000CF92DF92EF92FF920F931F93CF93DF9309
:100BE0007C01B62EA72E6A0149010E945C04E40133
:100BF000080D191DC017D10761F4CB2DDA2DCC0ECD
:100C0000DD1ECC15DD0551F06991C7010E94F2048B
:100C1000F8CF6991C7010E94F204ECCFC7010E948E
:100C20006F0481E0DF91CF911F910F91FF90EF90C2
:100C3000DF90CF90BF90AF909F908F9008953FB777
:100C4000F89480911F0390912003A0912103B0910B
:100C5000220326B5A89B05C02F3F19F00196A11DC0
:100C6000B11D3FBFBA2FA92F982F8827BC01CD01F6
:100C7000620F711D811D911D42E0660F771F881F55
:100C8000991F4A95D1F708958F929F92AF92BF9284
:100C9000CF92DF92EF92FF920F931F93CF93DF9348
:100CA000D091DC03D13208F0D7C0182FC091DB03FC
:100CB0000E941F066B017C018091B30381116BC000
:100CC00082E08093B3031093B2038FEF8093B1035C
:100CD0001092B003D093AF03ABEBB3E0EFE8F3E0D7
:100CE00080E0D81391C010928E0380918E03CC0FB8
:100CF000C82BC0938E0380918D03813009F088C08A
:100D000010928D030E941F066B017C0180918E035F
:100D10008093BB008091B5039091B603A091B70377
:100D2000B091B803892B8A2B8B2BA1F00E941F0650
:100D30000091B5031091B6032091B7033091B80329
:100D40006C197D098E099F090617170728073907AF
:100D500008F442C08091BC0083FDD8CF85EC80931D
:100D6000BC000E941F066B017C018091B30382309E
:100D700009F450C08091B1038F3F09F46FC0809196
:100D8000B103803209F46CC08091B103803309F45F
:100D900069C084E026C08091B5039091B603A0910C
:100DA000B703B091B803892B8A2B8B2B09F484CF1E
:100DB0000E941F068090B5039090B603A090B703E1
:100DC000B090B8036C197D098E099F0986169706A5
:100DD000A806B90608F070CF8091B4030E9495046C
:100DE00085E01092BA031092DC031092B903DF91F0
:100DF000CF911F910F91FF90EF90DF90CF90BF9018
:100E0000AF909F908F9008959D9191938F5F69CF40
:100E100085EEA5CF8091B5039091B603A091B7035D
:100E2000B091B803892B8A2B8B2B09F49ECF0E949B
:100E30001F060091B5031091B6032091B7033091BE
:100E4000B8036C197D098E099F0906171707280733
:100E5000390708F08ACFC0CF81E0C3CF80E0C1CF8F
:100E600082E0BFCF83E0BDCF1F93CF93DF93EA0132
:100E7000122FDC0111968D919C91DC01ED91FC917A
:100E80000280F381E02D1995C817D90729F4812F25
:100E90000E94440691E0811190E0892FDF91CF916B
:100EA0001F910895CF92DF92EF92FF920F931F93BD
:100EB000CF93DF931F921F92CDB7DEB7FC01478718
:100EC000508B618B728B8285882371F14487452F0B
:100ED000562F672F7727882349F143877F018BE0BF
:100EE000E80EF11C9681878199838A83C080D18026
:100EF000C114D10409F443C0018510E098012E5FAC
:100F00003F4FD60114968D919C918217930780F4E0
:100F100080E00F900F90DF91CF911F910F91FF9084
:100F2000EF90DF90CF9008954387D1CF4487D6CFFD
:100F3000F60181819281208131E03093B9032093C1
:100F4000DB031092BA031092DC030115110541F482
:100F500021E042E050E0B701C6010E943407D9CF3A
:100F6000DC01ED91FC910280F381E02DA801BE012E
:100F70006F5F7F4F19950817190751F6E9CFA281C6
:100F8000B381109729F224813581018510E0233047
:100F9000310579F48E7F89839A830F5F1F4F9E01FD
:100FA0002F5F3F4F42E050E0B701CD010E94E405C2
:100FB000B0CF2115310519F49F779983F0CF2230F6
:100FC000310511F49068F9CF2130310541F79F7751
:100FD0009064F3CFCF93DF93EC018B818823A1F052
:100FE000888191E09093B9038093DB031092BA0358
:100FF0001092DC0381E00E94440691E0811190E0B0
:10100000892FDF91CF91089510928C0310928B035A
:101010001092BA031092DC030E9477048FEE92E0E4
:10102000909388038093870380EF92E090938A03E4
:101030008093890381E08B83CE010E94EA07982F79
:101040008111CECFDDCF2FB7F89460911B03709143
:101050001C0380911D0390911E032FBF0895AF9232
:10106000BF92CF92DF92EF92FF920F931F93CF9395
:10107000DF936C017B018B01040F151FEB015E01F7
:10108000AE18BF08C017D10759F06991D601ED918C
:10109000FC910190F081E02DC6011995892B79F71B
:1010A000C501DF91CF911F910F91FF90EF90DF90DD
:1010B000CF90BF90AF90089590E080E00895FC013C
:1010C000538D448D252F30E0842F90E0821B930BAD
:1010D000541710F0CF96089501970895FC01918D53
:1010E000828D981761F0A28DAE0FBF2FB11D5D9656
:1010F0008C91928D9F5F9F73928F90E008958FEFF8
:101100009FEF0895FC01918D828D981731F0828DAB
:10111000E80FF11D858D90E008958FEF9FEF089502
:10112000FC01918D228D892F90E0805C9F4F821B66
:1011300091098F739927089589EE93E00E94900892
:1011400021E0892B09F420E0822F0895FC01A48D71
:10115000A80FB92FB11DA35ABF4F2C91848D90E0D9
:1011600001968F739927848FA689B7892C93A089BC
:10117000B1898C91837080648C93938D848D981346
:1011800006C00288F389E02D80818F7D80830895D9
:10119000EF92FF920F931F93CF93DF93EC0181E0C7
:1011A000888F9B8D8C8D98131AC0E889F98980816E
:1011B00085FF15C09FB7F894EE89FF896083E889A1
:1011C000F98980818370806480839FBF81E090E093
:1011D000DF91CF911F910F91FF90EF900895F62E20
:1011E0000B8D10E00F5F1F4F0F731127E02E8C8DBA
:1011F0008E110CC00FB607FCFACFE889F9898081FF
:1012000085FFF5CFCE010E94A608F1CFEB8DEC0F44
:10121000FD2FF11DE35AFF4FF0829FB7F8940B8F1B
:10122000EA89FB8980818062CFCFCF93DF93EC0185
:10123000888D8823B9F0AA89BB89E889F9898C91BE
:1012400085FD03C0808186FD0DC00FB607FCF7CF7A
:101250008C9185FFF2CF808185FFEDCFCE010E947A
:10126000A608E9CFDF91CF9108958F929F92AF9218
:10127000BF92CF92DF92EF92FF920F931F93CF9383
:10128000DF93EC016A017B0120E030E04FE753E49B
:10129000CB01B6010E94042C4B015C0120E030E040
:1012A000A9010E94D02E18168CF5C501B4010E9428
:1012B000072E8B01B98020E030E0A901C701B601FB
:1012C0000E94D02E60E018160CF061E08B2D0E9479
:1012D0002E040F3F110509F0ECF41127C88161E0DD
:1012E0008C2F0E94B60401151105B9F460E08C2F13
:1012F000DF91CF911F910F91FF90EF90DF90CF90F2
:10130000BF90AF909F908F900C942E04C501B401B4
:101310009058CDCF0FEF10E0E1CF0F3F110511F442
:1013200061E0E5CFEC2FF0E0EB5CFC4FE491E150A5
:10133000E23108F0BCC0F0E08827EE55F64F8F4F41
:101340000C94122DB409C509CA09D409DE09570A3B
:10135000E809F009F809020A0C0A160A250A2F0AF8
:10136000570A390A430A4D0A84B5806884BD07BD0F
:10137000DF91CF911F910F91FF90EF90DF90CF9071
:10138000BF90AF909F908F90089584B5806284BD88
:1013900008BDEECF8091800080688093800010931C
:1013A000890000938800E4CF809180008062809360
:1013B000800010938B0000938A00DACF8091800028
:1013C00088608093800010938D0000938C00D0CFB4
:1013D0008091B00080688093B0000093B300C8CFC4
:1013E0008091B00080628093B0000093B400C0CFC1
:1013F00080919000806880939000109399000093F2
:101400009800B6CF809190008062809390001093F6
:101410009B0000939A00ACCF8091900088608093ED
:10142000900010939D0000939C00A2CF8091A0009B
:1014300080688093A0008091A0008F7B8093A000A3
:101440001093A9000093A80093CF8091A000806220
:101450008093A0001093AB000093AA0089CF8091E5
:10146000A00088608093A0001093AD000093AC00B2
:101470007FCF809120018068809320011093290103
:101480000093280175CF8091200180628093200114
:1014900010932B0100932A016BCF8091200188606B
:1014A0008093200110932D0100932C0161CF00380F
:1014B00011050CF035CF1ACF8EBD00000DB407FE1C
:1014C000FDCF8EB508956F3FB1F0E62FE295EF7036
:1014D00044E0E49F90011124DC01ED91FC91E20FC6
:1014E000F31F6F70B8E06B9FC0011124628173819C
:1014F000860F971F089590E080E00895CF93DF93C3
:10150000EC0188819981DC01ED91FC910190F081E1
:10151000E02D19952A813B81820F931F9B838A833B
:10152000DF91CF910895982F80336CF08A3324F0A7
:101530008F3524F08B3724F481E0089581341CF03A
:1015400081E09B350CF080E00895CF93DF93EC01B0
:1015500088819981DC01ED91FC910280F381E02D7D
:1015600019952A813B81820F931F9B838A83DF9188
:10157000CF9108958F929F92AF92BF92CF92DF92B8
:10158000EF92FF920F931F93CF93DF93CDB7DEB708
:1015900066970FB6F894DEBF0FBECDBF6C018E010B
:1015A000095E1F4F78018AE0882E912CA12CB12C66
:1015B000CB01BA01A50194010E94CD2C942F852F57
:1015C000605DF80162938F01A901692F782F4115A1
:1015D00051056105710561F7A7014E1B5F0BBF0146
:1015E000C6010E94A50A66960FB6F894DEBF0FBE2C
:1015F000CDBFDF91CF911F910F91FF90EF90DF90C2
:10160000CF90BF90AF909F908F900895FC018485FC
:10161000811114C0A781B085818592852FEF3FEF9E
:10162000A817B90730F4CD010196908787832C91D4
:1016300030E037FD20E0238781E0848783850895AB
:101640001F93CF93DF93EC01162F0E94060B81139B
:1016500006C01C8681E0DF91CF911F91089580E044
:10166000FACF0F931F93CF93DF938C01EB018991F6
:10167000882369F0C8010E94060B882379F0FE01D7
:101680003197908198130DC0F8011486F0CF90E047
:1016900080E0DF91CF911F910F91089582E090E05B
:1016A000F8CF83E090E0F5CFCF93DF93EC01CE014C
:1016B0000E94060B8B304CF489305CF4882359F07F
:1016C00081E08E8390E080E00BC08D3011F080329D
:1016D000B9F71C86ECCF8E81811105C081E090E0C6
:1016E000DF91CF91089582E090E0FACFDC01ED9197
:1016F000FC91309731F094819F7781E019F080E080
:10170000089581E00895CF92DF92EF92FF92CF93F8
:101710000E945D026B017C0120E030E0A9010E9483
:10172000D02E181664F42AE037ED43EA5BE3C701D4
:10173000B6010E949E2B87FD0CC0C0E021C02AE0AC
:1017400037ED43EA5BEBC701B6010E94D02E1816B5
:10175000A4F70E9410026B017C0120E030E0A90197
:101760000E94D02E18169CF42DEC3CEC4CE45DE36A
:10177000C701B6010E949E2BC82FCC1FCC27CC1FBF
:101780008C2FCF91FF90EF90DF90CF900895C1E024
:101790002DEC3CEC4CE45DEBC701B6010E94D02E71
:1017A000181674F3CACFAF92BF92CF92DF92EF9226
:1017B000FF920F931F93CF93DF93C9ECD4E028855A
:1017C00039854A855B856C857D858E859F85A88852
:1017D000B988CA88DB88EC88FD880E891F890E9439
:1017E0001A2D0E943D2E288139814A815B810E94F9
:1017F000042CDF91CF911F910F91FF90EF90DF901C
:10180000CF90BF90AF9008954F925F926F927F926A
:101810008F929F92AF92BF92CF92DF92EF92FF9200
:101820000F931F93CF93DF93EB01DC012C912B32AD
:10183000D9F12D32D1F50196FF24F394FC012081DA
:1018400030ED320F3A3018F02E3209F042C18C01DF
:1018500060E070E0CB01F801219130ED832E820E23
:1018600039E0381520F16A3949E97407840749E1FC
:10187000940738F5AAE0B0E09B01AC010E94C22CAD
:10188000912CB12CA12C24013501409450946094EA
:101890007094461657066806790698F0680D791D0B
:1018A0008A1D9B1D8F01D7CF0196F12CC7CF211127
:1018B00008C0FF20E9F161307105810550E8950706
:1018C000A0F0E12CBAE08B2E912CA12CB12C61154B
:1018D000710530E883079105B0F1A50194010E94DC
:1018E000CD2CCA01B901E394F2CF2C8120782A6073
:1018F0002C839B01AC0188279927DC01821B930B69
:10190000A40BB50B88839983AA83BB838F2DDF91AA
:10191000CF911F910F91FF90EF90DF90CF90BF90EC
:10192000AF909F908F907F906F905F904F900895B1
:101930002C81207828602C83688379838A839B8319
:10194000FF24F394E3CFF801D8012D918D0130ED00
:10195000320F3A3010F4E394F6CF2E3201F58F01B6
:101960000F5F1F4FF8010F5F1F4F2081A0EDDA2E90
:10197000D20EB9E0BD1598F06C3CECEC7E07ECE0C3
:101980008E07910578F7AAE0B0E09B01AC010E94B8
:10199000C22C6D0D711D811D911DEA94E3CF208134
:1019A0002F7D10E000E0253409F05BC021812D324D
:1019B000D1F53296CC24C394DF0110E000E02E2D47
:1019C0000E2C000C330B5AE0B52EFD01DD9040EDDE
:1019D0004D0D4A3008F040C0B09EA001B19E500DA0
:1019E00011240D2DDD0C110B00531109040F151FCF
:1019F000A801420F531F473251053CF38C81CC2084
:101A0000C9F040E050E060E070E8F11003C040E051
:101A100050E0BA0180788C608C83488359836A8354
:101A20007B83FC2C73CF2B3219F03196C12CC4CFA1
:101A30003296FCCF40E050E060E87FEFF11004C048
:101A400040E050E060E87FE780788C608C834883DA
:101A500059836A837B8374CFCC2019F0119501954B
:101A600011092081211135C00E0D111DE7FC1A95B9
:101A70000E94A32B32E4C32E32E0D32E101611069F
:101A80003CF01195019511094AE2C42E42E0D42E92
:101A9000E12C0115110591F000FF0CC024E0E29E3D
:101AA000F0011124EC0DFD1D2591359145915491C6
:101AB0000E94042C15950795E394EBCFF1109058F4
:101AC0002C8120782C602C83688379838A839B8384
:101AD00037CFF12C1BCFCF92DF92EF92FF92CF93B3
:101AE000DF9300D01F921F92CDB7DEB7FC01848137
:101AF0008F778630D9F040F48430A9F1853009F42D
:101B00003FC090E080E014C08A30F1F08C3009F4DE
:101B10003FC08830B1F780819181A281B381811566
:101B200020E89207A105B10560F702C0808190E02E
:101B30000F900F900F900F900F90DF91CF91FF902B
:101B4000EF90DF90CF90089580819181A281B38141
:101B5000AC01BD0150586F4F7F4F41155105614099
:101B6000710578F6E5CF808191811D82BE016F5F9E
:101B70007F4F0E94040CCE0101960E946B0DD8CFBE
:101B8000808191811D82BE016F5F7F4F0496F1CFEE
:101B9000C080D180E280F38020E030E040E057EC6C
:101BA000C701B6010E94D02E87FDABCF20E03EEFEB
:101BB0004FEF56E4C701B6010E949E2B18160CF495
:101BC000A0CFC701B6010E94072ECB01B1CFCF92A3
:101BD000DF92EF92FF92CF93DF9300D01F921F927C
:101BE000CDB7DEB7FC0184818F778630C1F038F441
:101BF000843019F1853071F190E080E012C08A30B4
:101C000021F08C3079F18830B9F780819181A281FF
:101C1000B381009721E0A207B10518F0EDCF8081D4
:101C200090E00F900F900F900F900F90DF91CF9159
:101C3000FF90EF90DF90CF900895808191811D8279
:101C4000BE016F5F7F4F0E94040CCE0101960E947F
:101C5000E70DE7CF808191811D82BE016F5F7F4FCD
:101C60000496F1CFC080D180E280F38020E030E0A4
:101C7000A901C701B6010E94D02E87FDBDCF20E08B
:101C80003FEF4FE757E4C701B6010E949E2B18169D
:101C90000CF4B2CFC701B6010E940E2ECB01C1CF0A
:101CA000CF93DF9300D01F921F92CDB7DEB7FC0118
:101CB00094819F77963091F030F4943020F560E075
:101CC00070E0CB0111C09A30B9F09C3051F19830DE
:101CD000B1F7608171818281938104C0608170E07D
:101CE00090E080E00E94A32B0F900F900F900F9038
:101CF0000F90DF91CF9108956081718182819381EE
:101D00000E94A52BF1CF808191811D82BE016F5F62
:101D10007F4F04960E94040CCE0101960E94500E43
:101D2000E3CF6081718182819381DECFFC01928952
:101D3000915084E0989F90011124A089B189A20F4D
:101D4000B31F1296ED91FC9113973097E9F011961D
:101D50002C9111978C912817B8F481E0820F11967D
:101D60008C9388E0289FA0011124E40FF51F309781
:101D700059F014828FEF858317821682BF01892F55
:101D80008295807F820F089560E070E08FEF089564
:101D9000DF92EF92FF920F931F93CF93DF93EC01AB
:101DA0007B01D12C688979898A89D816E0F484E08E
:101DB000D89E80011124060F171FD80112966D912D
:101DC0007C916115710541F0D701ED91FC91028084
:101DD000F381E02DC7011995F80113821282108258
:101DE0001182D394DFCF1A8A8FEF8C8BC617D70757
:101DF00061F0D701ED91FC910280F381E02DC701E4
:101E00001995D98BC88B84E08B8BDF91CF911F9173
:101E10000F91FF90EF90DF900895DB01ED91FC9121
:101E200011970280F381E02DBC01CD0119940F932D
:101E30001F93CF93DF93EC01088119818B819C81E3
:101E4000009749F0FC01208131813C832B83B8014C
:101E50000E940D0FF3CF68817981CE010596DF9145
:101E6000CF911F910F910C94C80ECF93DF93EC018B
:101E7000E881F981B0E0A0E03097F9F09F012C5F94
:101E80003F4F62177307A1F4928191509283911191
:101E900014C080819181109741F08D939C93BA0179
:101EA000CF01DF91CF910C940D0F99838883F7CFE9
:101EB000DF010190F081E02DDFCFDF91CF91089518
:101EC0008F929F92AF92BF92CF92DF92EF92FF924A
:101ED0000F931F93CF93DF938C01EB01FC0184815F
:101EE00080FF0AC048815981608171816C5F7F4F9A
:101EF000CE0103960E94350FF8018481807681F12E
:101F00000115110569F1D0805E01F5E1AF0EB11C3C
:101F10004E0183E0880E911CEFEFDE16F1F06D2D7F
:101F2000C5010E94630A7C01FC01C580848187FF92
:101F300007C04881598166817781C4010E94350FAD
:101F4000BE01C7010E94600FF701848180788483FD
:101F5000898D8583D98EDC2CDFCFF801D082D182A8
:101F6000DF91CF911F910F91FF90EF90DF90CF9075
:101F7000BF90AF909F908F900895EF92FF920F9334
:101F80001F93CF93DF937C018B01EA016F3F7105B3
:101F900009F0B0F4E881F9810480F581E02DAB010E
:101FA0004B5F5F4FBC01CE011995009749F0FC01D2
:101FB0000383DF91CF911F910F91FF90EF900895D0
:101FC000E881F9810280F381E02DB701CE011995F6
:101FD00090E080E0EECFFF920F931F93CF93DF93BB
:101FE000EC01F62E8A819B810097C9F06C817D817E
:101FF000FC0123812617170691F408811981F80145
:1020000040815181660F771F6F5F7F4F0E94BD0F28
:10201000009719F421E0F80122839B838A838A8147
:102020009B81009759F02C813D81A9014F5F5F4F43
:102030005D834C83820F931FFC01F482DF91CF916B
:102040001F910F91FF9008959F92AF92BF92CF92F0
:10205000DF92EF92FF920F931F93CF93DF9300D005
:102060001F921F92CDB7DEB78C010E94060BD82EAF
:10207000F8011486F12CE12C60EFC62EC8010E94F5
:10208000060BF8011486D81609F4B3C0811113C0E9
:1020900082E090E00F900F900F900F900F90DF91E3
:1020A000CF911F910F91FF90EF90DF90CF90BF9055
:1020B000AF909F9008958C3509F099C0C8010E9497
:1020C000060B882329F3EBE4F2E0853709F083C09F
:1020D000F801148654E0952EB12CA12CC8010E9461
:1020E000060B8823A9F2813434F48053803130F018
:1020F00083E090E0CFCF8F7D8753F8CF44E0AA0CE8
:10210000BB1C4A95E1F7A82AF80114869A9491100D
:10211000E5CFC501985D8115944020F47501F3E089
:10212000FF22ACCFC5019C5D81159440A8F483E0EB
:10213000B822B701762F6627770F770F6A297B2998
:1021400090E080E00196603871058105910540F4CA
:10215000C8010E94EB0F92CFB50190E080E0F3CF71
:102160001982262F2F7320682A8326E0969587955B
:10217000779567952A95D1F76032710580F4606C88
:102180006B835E01E4E0AE0EB11CF50162915F016C
:10219000662309F473CFC8010E94EB0FF6CF262FF8
:1021A0002F7320682B8386E0769567958A95E1F7F3
:1021B0006031710538F4606E6C835E01F5E0AF0E3E
:1021C000B11CE3CF60686C83CD825E0126E0A20E75
:1021D000B11CDBCF32969081992309F489CF891302
:1021E000F9CF8181882309F483CFF8011486682F01
:1021F000AFCF82819381892B19F484E090E04ACF9C
:1022000090E080E047CFAF92BF92CF92DF92EF9203
:10221000FF920F931F93CF93DF93DC011296ED9102
:10222000FC91139714968D919C911597E80FF91FC7
:1022300014820D911C91119714966D917C911597B4
:1022400012968D919C9113979C012C5F3F4FE80152
:10225000EB81FC817B01E20EF31E3097B9F04381E4
:102260004617170679F45901AF014C5F5F4FEA1426
:10227000FB0499F1E501C9905E01EA01D990AE0134
:10228000CD14A9F30190F081E02DE7CFED01F80125
:10229000408151810E94BD0FFC01892B21F481E016
:1022A000D80112968C93A881B98113968D919C9137
:1022B0001497918380831496FC93EE9313971B825B
:1022C0001A82CF01DF91CF911F910F91FF90EF9074
:1022D000DF90CF90BF90AF90089582818F5F82830F
:1022E000F0CF2F923F924F925F926F927F928F9298
:1022F0009F92AF92BF92CF92DF92EF92FF920F9395
:102300001F93CF93DF9300D000D0CDB7DEB77C0111
:102310007C836B830B969E838D83D70116969C914D
:10232000169717968C91179799838A836D907C9056
:1023300011976114710409F44CC119964C9150E045
:10234000F3018481958184179507A8F0808191E03D
:102350009093B9038093DB031092BA031092DC03CD
:1023600020E0BE016F5F7F4FC3010E943407D12C74
:10237000C12C81111AC080E026960FB6F894DEBFFA
:102380000FBECDBFDF91CF911F910F91FF90EF90C6
:10239000DF90CF90BF90AF909F908F907F906F9085
:1023A0005F904F903F902F900895D30114968D9198
:1023B0009C9102E010E00C191D098017910708F4A8
:1023C0008C01F30150800E941F064B015C0180913B
:1023D000B303811176C0B02EF0E2F01710F440E2A2
:1023E000B42E81E08093B30321E082E090E0801B73
:1023F000910BC816D90608F420E02093B2039FEF92
:102400009093B1031092B0038FEF8B0D8093AF03C5
:10241000A1E0A0938E0380918E03550C582A509210
:102420008E0380918D03813009F093C010928D034B
:102430000E941F061B012C0180918E038093BB001C
:102440008091B5039091B603A091B703B091B80302
:10245000892B8A2B8B2BA1F00E941F062091B5039C
:102460003091B6034091B7035091B80362197309D4
:1024700084099509261737074807590708F442C009
:102480008091BC0083FDD8CFB5ECB093BC000E9416
:102490001F061B012C018091B303813009F45DC03C
:1024A0008091B0038B1510F4B090B003AFE8B3E0A7
:1024B000E7E6F3E080E08B1551F19D9191938F5FFA
:1024C000FACF8091B5039091B603A091B703B09174
:1024D000B803892B8A2B8B2B09F479CF0E941F0616
:1024E0002091B5033091B6034091B7035091B803E2
:1024F000681979098A099B09261737074807590778
:1025000008F065CF8091B4030E949504B12C10921D
:102510008C03B0928B03B016110609F02CCF8D807E
:102520009E808C0C9D1C5401C50188199909801747
:102530009107A8F5D30111968D919C91DC01ED9145
:10254000FC910284F385E02D1995F50181935F01DB
:10255000EBCFE5EEE093BC009ACF8091B50390916C
:10256000B603A091B703B091B803892B8A2B8B2BAC
:1025700009F491CF0E941F062091B5033091B60354
:102580004091B7035091B803621973098409950902
:10259000261737074807590708F07DCFB3CFC00E7D
:1025A000D11EF2E0CF16D10408F4FFCEF7018285E8
:1025B000811142C0848590E0982F8827AB81BC812F
:1025C00011969C938E932385822B8D939C9381E00F
:1025D000D3CE1296ED91FC911397309709F4CBCEA0
:1025E00014962D913C91159719964C9150E02330FB
:1025F000310591F4816089839A834F5F5F4F02E0D8
:1026000010E02D813E81BE016F5F7F4FCF010E94A0
:10261000A8058111CBCFB0CE2115310519F49068F2
:102620009983EDCF2230310511F49F77F9CF213016
:10263000310529F7906CF4CF838590E0982F882797
:10264000AB81BC8111969C938E932485BDCFAB0149
:10265000BC0170588FE595E00C943509FC010190A0
:102660000020E9F73197AF01481B590BBC0189EEF7
:1026700093E00C942F08AF92BF92CF92DF92EF922B
:10268000FF920F931F93CF93DF93CDB7DEB7A19740
:102690000FB6F894DEBF0FBECDBF5C018CE592E0B3
:1026A0000E942E1365010B2C000CEE08FF08F7FEAC
:1026B00048C06DE289EE93E00E94C80822273327C4
:1026C000A9012C193D094E095F0919A28E010F5D60
:1026D0001F4F9AE0C92ED12CE12CF12CCA01B9016F
:1026E000A70196010E94CD2C605DF80162938F01D5
:1026F000211531054105510589F70115110519F01D
:10270000C8010E942E1386E692E00E942E1380914B
:10271000140390911503099779F5A114B104B1F14F
:10272000A1960FB6F894DEBF0FBECDBFDF91CF915B
:102730001F910F91FF90EF90DF90CF90BF90AF90DF
:102740000895A701960119A28E010F5D1F4F8AE01F
:10275000C82ED12CE12CF12CCA01B901A701960198
:102760000E94CD2C605DF80162938F012115310527
:102770004105510589F7C1CFF6E0AF16B1044CF41D
:1027800084E0A816B104C4F4B7FC07C010920D058C
:1027900004C0EAE0AE16B104CCF3B0921503A092E7
:1027A00014030E9423086093100370931103809315
:1027B000120390931303B4CF809103059091040505
:1027C000892B59F38091050590910605892B29F3F2
:1027D00081E080930D050E9423080091130510915C
:1027E00014052091150530911605DC01CB01800FF1
:1027F000911FA21FB31F80931B0590931C05A093EC
:102800001D05B0931E0510920E0510922B05109217
:102810002C0510922D0510922E0510922F05109266
:1028200030051092310510923205B7CFDF92EF924A
:10283000FF920F931F93CF93DF936115710561F49E
:1028400060E070E08FEF9D2DDF91CF911F910F9190
:10285000FF90EF90DF9008958A01EB01DC01FC907E
:102860000B5E1F4F6F2DC8010E94630A009741F352
:10287000FC01E580009721F30680F781E02DDE0161
:102880000D900020E9F79D01215031092C1B3D0BD3
:10289000B0E0A0E0309739F0DF010D900020E9F7BB
:1028A0001197AE1BBF0B2A173B0751F4DE012C0F0B
:1028B0003D1FA217B30769F05D9141915417C9F309
:1028C0006E2DC8010E94630A009709F4B9CFFE2C4F
:1028D000CFCFBC018F2DDE2CB6CFCF93DF93FC0181
:1028E000C081D18162817381CE014A9661F02E8DC3
:1028F00025FF09C0AE010E9416149B01B901CE014B
:10290000DF91CF91089530E020E0F8CFFB010190F6
:102910000020E9F73197AF01461B570B0C94A50A2D
:102920001F93CF93DF93EBE4F2E01281112379F050
:10293000329621816213F9CFEC016CE50E947E0A88
:10294000612FCE01DF91CF911F910C947E0A61110E
:10295000F9CF69E672E0DF91CF911F910C94861454
:10296000CF92DF92EF92FF920F931F93CF93DF935B
:102970008C016B017A0162E20E947E0AE601EC0C96
:10298000FD1CCE15DF0529F06991C8010E94901445
:10299000F8CF62E2C801DF91CF911F910F91FF90B4
:1029A000EF90DF90CF900C947E0A2F923F924F923F
:1029B0005F926F927F928F929F92AF92BF92CF92CF
:1029C000DF92EF92FF920F931F93CF93DF93CDB7D8
:1029D000DEB76C970FB6F894DEBF0FBECDBF8C018B
:1029E0001B01DC0114968C9114978F77883009F4C1
:1029F000B2C2E8F4843009F469C248F4833009F4BF
:102A00009FC260E772E0C1010E9486141CC285303B
:102A100009F470C28630A9F78C9165E772E08111E4
:102A200002C06AE772E0C1010E9486146DC28C3058
:102A3000F1F1C8F48A3029F7CD90DD90ED90FC904B
:102A4000B701A601F7FE0BC06DE2C1010E947E0A2C
:102A500044275527BA014C195D096E097F09C10148
:102A60000E94BA0A51C2803209F4F7C1803449F693
:102A70006BE5C1010E947E0AF80110811F3F09F435
:102A8000E7C1D10114968D919C91612F45960E94CA
:102A9000630A8C01B1010E94D514F80115811F3F12
:102AA00009F4D6C16CE2C1010E947E0AE7CFF801A9
:102AB000C080D180E280F380A7019601C701B601F2
:102AC0000E949E2B81119DCF20E030E0A901C7011B
:102AD000B6010E949E2B882379F0A7019601C701B9
:102AE000B6010E94242D9B01AC01C701B6010E94D2
:102AF0009E2B882309F485CF20E030E0A901C7018F
:102B0000B6010E949E2B87FF08C06DE2C1010E94A2
:102B10007E0AF7FAF094F7F8F09420E836E948E1F5
:102B20005BE4C701B6010E94D02E87FD88C074E126
:102B3000A72EB12C00E210E0188E1F8AF501EE5B83
:102B4000FD4F2591359145915491C701B6010E94E1
:102B5000D02E87FD13C0F501E65DFD4F259135911F
:102B600045915491C701B6010E94042C6B017C0170
:102B70002F89388D200F311F388F2F8B1595079592
:102B800034E0A31AB1088CEFA8168FEFB806B1F69F
:102B900055245A9420E030E0A901C701B6010E94F3
:102BA000D02E18160CF052C02CEA35EC47E257E351
:102BB000C701B6010E949E2B18160CF447C0A52D24
:102BC000B4E0AB02C0011124B12CA12CFC01E65DE4
:102BD000FD4F3F019C012E5B3D4F49013FEF5316D6
:102BE00009F434C0F301EA0DFB1D659175918591DF
:102BF000949120E030E040E251E40E94042CA701CF
:102C000096010E94D02E18169CF4F401EA0DFB1DCB
:102C10002591359145915491C701B6010E94042C2C
:102C20006B017C018F89988D801B910B988F8F8B06
:102C3000159507955A9494E0A91AB108CFCF00E2F0
:102C400010E055E0552E188E1F8AA4CFC701B6019B
:102C50000E940E2E4B015C012B013C0106E080E43A
:102C600092E4AFE0B0E0898F9A8FAB8FBC8F102FCA
:102C700001509AE04916510461047104C8F0698D4D
:102C80007A8D8B8D9C8D2AE030E040E050E00E94F0
:102C9000CD2C298F3A8F4B8F5C8FC301B2012AE074
:102CA00030E040E050E00E94CD2C29013A01DFCF16
:102CB000C501B4010E94A32B9B01AC01C701B60161
:102CC0000E94232D6B017C01698D7A8D8B8D9C8DEB
:102CD0000E94A32B9B01AC01C701B6010E94042CEA
:102CE0002B013C010E940E2E6B017C010E94A32B44
:102CF0009B01AC01C301B2010E94232D9B01AC01D9
:102D00000E94242D0E940E2EC60ED71EE81EF91E0C
:102D1000898D9A8DAB8DBC8DC816D906EA06FB0647
:102D2000D8F09FEF891A990AA90AB90AAF89B88D14
:102D3000AB2B39F1BAE08B169104A104B10408F170
:102D4000EF89F88D3196F88FEF8BC12CD12C76015D
:102D5000812C912C540183942AE0422E512C612C19
:102D6000712CC701B601A30192010E94CD2C672BE3
:102D7000682B692B51F4111644F469017A01115042
:102D8000F0CFC12CD12C7601E7CFB501A401C10150
:102D90000E94BA0A112371F14E01F1E18F0E911CCC
:102DA000012F54019AE0492E512C612C712C0150B5
:102DB00068F0C701B601A30192010E94CD2C605DAD
:102DC000D4016E934D0169017A01F1CF812F90E01A
:102DD000BC0160957095F501E81BF90B31978EE207
:102DE000808344275527461B570B6A0D7B1DC10165
:102DF0000E94A50AEF89F88DEF2B29F165E6C10144
:102E00000E947E0A0F89188D17FF07C06DE2C1016D
:102E10000E947E0A119501951109FE0177969F0186
:102E20008AE0E82EF12CC801B7010E94FE2C805DDB
:102E300082938B01672BB9F7A9014E1B5F0BBF0172
:102E4000C1010E94A50AD10112968D919C915FC08B
:102E50006DE5C1010E947E0AF6CF6BE7C1010E94B9
:102E60007E0AF80110811F3F79F1D10114968D91EE
:102E70009C91612F45960E94630A8C01FC01C680DB
:102E8000D78062E2C1010E947E0A7601D7016D916E
:102E90007D01662321F0C1010E949014F7CF62E208
:102EA000C1010E947E0A6AE3C1010E947E0AB1014B
:102EB000C8010E94D514F80115811F3F29F06CE26A
:102EC000C1010E947E0ACFCF6DE7C3CFF8016081B8
:102ED000718150E040E06115710541F0FB01019006
:102EE0000020E9F73197AF01461B570BC1010E9443
:102EF000B014A9CFED91FC91438150E0BF016C5F0C
:102F00007F4FC1010E94B014F101828193816C96C0
:102F10000FB6F894DEBF0FBECDBFDF91CF911F91EA
:102F20000F91FF90EF90DF90CF90BF90AF909F9068
:102F30008F907F906F905F904F903F902F9008956B
:102F4000ED91FC91438150E0BF016C5F7F4FC10167
:102F50000E94A50AD9CF4D915D916D917C917FCD55
:102F6000CB010C94BA2FCF93DF93EC018091C30473
:102F70009091C404009759F02091C5043091C60483
:102F80002C173D0720F081E0DF91CF910895BE011D
:102F90006F5F7F4F0E944330009789F09093C40485
:102FA0008093C304D093C604C093C5042091C70482
:102FB0003091C804232B39F7FC011082E4CF80E064
:102FC000E3CFCB01BA010C94433085ED8093BC0074
:102FD0008091B5039091B603A091B703B091B80367
:102FE0000796A11DB11D23E0B695A79597958795E6
:102FF0002A95D1F72091BC0024FD03C01092B303A1
:1030000008954091B5035091B6036091B703709154
:10301000B803452B462B472B69F30097A105B10553
:1030200041F02AE22A95F1F700C00197A109B10900
:10303000E1CF8091B4030C949504CB010C941E2F26
:103040008F929F92AF92BF92CF92DF92EF92FF92B8
:103050000F931F93CF93DF936C018B01DB01599684
:10306000FC90BFEFFB1621F16F2DC80145960E9421
:10307000630AEC018D81F801818F209709F496C0D5
:103080001C828FEF8D831F821E82D60111966C9158
:103090006F3F09F49FC0C80145960E94630AFC0176
:1030A000F582D6011196FC92BE018F2D9D8084C0C1
:1030B0005B01F5E0AF0EB11CDB01ED90FC901197C8
:1030C00057968C91882349F0C5010E94960EC62F11
:1030D000D72F209711F0F82ED8CFF801C789908DFF
:1030E000C91325C0C03109F461C0CC0F6589768948
:1030F000D701ED91FC91B4E0CB9FA0011124A6165D
:10310000B70609F04BC00190F081E02DBA01C7016C
:103110001995009709F44AC020E1F501DC010190FE
:103120000D922A95E1F7F801968B858BC08FD80117
:103130005596CD91DC91569757968C91579721E0F3
:10314000280F57962C93B4E08B9FC0011124C80F11
:10315000D91F90E1892E203111F48FE0882EE8E00C
:103160008E9EB0011124D701ED91FC910190F08168
:10317000E02DC70119959B838A83892B09F4812C43
:1031800088821982CD2B91F0C5010E94960EC62F20
:10319000D72FF82E209709F078CF08C00480F5814A
:1031A000E02DC7011995009709F0BDCF81E0F80126
:1031B000828360E070E08FEF992DDF91CF911F91B6
:1031C0000F91FF90EF90DF90CF90BF90AF909F90C6
:1031D0008F900895F601F082F18266CF8F929F92D0
:1031E000AF92BF92CF92DF92EF92FF920F931F9315
:1031F000CF93DF93EC018B01D42E0E94540B7C0102
:10320000892B09F047C0CE010E94060B863609F4CF
:1032100052C124F5873229F08B3561F1823209F0F1
:1032200053C11D821C828A819B81892B31F4888144
:1032300099810E94BE029B838A83CE010E94241042
:103240007C01892B39F5CE010E940311F8012481FC
:10325000207825602483918380831CC0843709F4FF
:1032600012C18B3709F45BC08E3609F02DC160E7BF
:1032700072E012C1F8018481807880648483011532
:10328000110519F08FEF80838183D11011C025E0E3
:10329000E22EF12CC701DF91CF911F910F91FF908A
:1032A000EF90DF90CF90BF90AF909F908F90089558
:1032B0001C86CE010E94540B009709F085C06DE575
:1032C000CE010E94200B8111E5CFDA946D857E85B9
:1032D000C8010E9420186115710521F484E0E82ED0
:1032E000F12CD8CF4D2DCE010E94EE18009709F099
:1032F0006BC0CE010E94540B009709F065C06DE5CC
:10330000CE010E94200B8111C5CF6CE2CE010E943C
:10331000200B8111DBCF93E0E92EF12CBBCFF8011C
:1033200084818078806284830115110519F08FEF04
:1033300080838183DD2009F4AACF1C86CE010E9400
:10334000540B009709F040C06DE7CE010E94200B9E
:103350008111A0CFBB24BA94BD0C1D821C828A812E
:103360009B81892B31F4888199810E94BE029B83C5
:103370008A83CE010E94060B8732E1F08232D1F0BF
:10338000CE010E94060BD82E0E94930A882319F2C0
:103390001C866D2DCE010E94EB0FCE010E94060B04
:1033A000D82E0E94930A8111F3CF8A819B81892BA9
:1033B00031F494CFCE010E942410009729F4CE015D
:1033C0000E94540B009711F07C0164CF6AE3CE0198
:1033D0000E94200B882309F49ECFEA81FB818C8117
:1033E0009D81E80FF91F14824D855E856A817B817E
:1033F0006C5F7F4FC8010E941614CB016B01672BD5
:10340000C9F5CE010E9403114C016D857E85C8016E
:103410000E9420186B016115710509F45FCFFB0153
:10342000848180688483F4E08F0E911CF60197827A
:1034300086824B2DB601CE010E94EE18009721F630
:10344000CE010E94540B009709F0BECF6DE7CE016C
:103450000E94200B81111ECF6CE2CE010E94200B36
:10346000882309F458CFCE010E94540B009709F429
:1034700074CFAACF6D857E850E94600FF60184818E
:1034800080788483D6CFF8018481807886608483B5
:1034900081E0808365E772E0CE01DF91CF911F91DB
:1034A0000F91FF90EF90DF90CF90BF90AF909F90E3
:1034B0008F900C94310BF80184818078866084832E
:1034C00010826AE772E0E8CFCE010E94060B5E012F
:1034D000FFE0AF0EB11CD12C9A2CCB2C803374F0B2
:1034E0008A3374F49FE3D91699F01C86D394F501BE
:1034F00081935F01CE010E94060BF0CF8B3291F3D6
:1035000093ED980F923070F3982F9F7D953451F37F
:10351000CD0DD11D1F86B801892D9C2D0E94040C54
:103520008111B8CEF8CE2F923F924F925F926F9258
:103530007F928F929F92AF92BF92CF92DF92EF9243
:10354000FF920F931F93CF93DF93CDB7DEB7C3578F
:10355000D1090FB6F894DEBF0FBECDBF8E01005B60
:103560001F4F380125E0620E711C58018AE1A80E38
:10357000B11C27E9222E22E0322E3AE9432E32E016
:10358000532E89EE93E00E949008892B09F4F1C133
:1035900089EE93E00E946E08D82E89831A82E0900B
:1035A000C704F090C8049FEFE91AF90AC7010E9406
:1035B000B317882399F02091C3043091C4048091FB
:1035C000C7049091C804BE016F5F7F4F820F931FA5
:1035D0000E942D31F092C804E092C704EAE0DE12A6
:1035E000D0CF81E092E0F80191838083128214822F
:1035F0001382768A658A178A84E0808F8FEF818FA5
:10360000168EE1961FAE1EAEE197E3961FAE1EAE7C
:10361000E397C090C704D090C804E090C304F09032
:10362000C40461E072E0C3010E94C80EF801128276
:1036300080809180F80183819481009751F0FC0192
:1036400020813181F80134832383B4010E940D0F5E
:10365000F1CF168E1A8309831C821B821E821D8263
:103660001F82F986E886EC0CFD1CFB86EA861D8627
:103670001F870E874AE0B501CE0101960E94EE1821
:103680007C01892B51F48C85882339F0F801868DD3
:1036900083FF03C093E0E92EF12C8B819C8100977E
:1036A00031F0E981FA81608171810E940D0F90E013
:1036B00080E00E94B3172091C3043091C4048111AB
:1036C0002CC02115310519F0C9010E94BA2F1092A2
:1036D000C4041092C3041092C8041092C70410923C
:1036E000C6041092C504E114F10409F180E892E0E7
:1036F0000E942E13F701EE0FFF1FE55EFD4F808144
:103700009181009711F00E942E1386E692E00E94AC
:103710002E13C8010E94170F34CF1092C8041092C4
:10372000C7046BE572E0C9010E942D31DCCF1A831A
:1037300009833C822B82CE0101960E946D14E39690
:103740006CAF7DAF8EAF9FAFE397CE0181599F4F96
:103750000E94760B811111C0E1968EAD9FADE1976D
:10376000009709F4C3C00E94500E6093F704709351
:10377000F8048093F9049093FA041A8309835C8215
:103780004B82CE0101960E946D14E3966CAF7DAF23
:103790008EAF9FAFE397CE0181599F4F0E94760B6A
:1037A000811111C0E1968EAD9FADE197009709F4AC
:1037B000A1C00E94500E6093FB047093FC048093A0
:1037C000FD049093FE041A8309838DE992E09C83A3
:1037D0008B83CE0101960E946D14E3966CAF7DAF92
:1037E0008EAF9FAFE397CE0181599F4F0E94760B1A
:1037F000811111C0E1968EAD9FADE197009709F45C
:103800007DC00E94500E6093FF047093000580936A
:103810000105909302051A83098380EA92E09C8354
:103820008B83CE0101960E946D14E3966CAF7DAF41
:103830008EAF9FAFE397CE0181599F4F0E94760BC9
:10384000811108C0E1968EAD9FADE197009711F010
:103850000E94E70D1A83098382EA92E09C838B839E
:10386000CE0101960E946D14E3966CAF7DAF8EAFD2
:103870009FAFE397CE0181599F4F0E94760B811134
:1038800058C0F12CE12C6701E3968CAD9DADAEAD37
:10389000BFADE397FC01892B09F443C0248126FFC7
:1038A00040C04D0125E1820E911C6081C4010E943F
:1038B000630A0097B1F1FC01F581E496FFAFE4974C
:1038C000009779F1C114D10451F1E4966FADE497FA
:1038D000C4010E94630A009729F0FC01F581E49677
:1038E000FFAFE49721E0C21AD108EACF60E070E0B0
:1038F000CB013BCF60E070E0CB015DCF60E070E0DA
:10390000CB0181CFA80164EA72E0C5010E941614C0
:103910006115710549F1CB010E946B0D27C00E9412
:10392000500E8FEFE81AF80A9AE0E916F10409F050
:10393000AACF1A83098384EA92E09C838B83CE0109
:1039400001960E946D14E3966CAF7DAF8EAF9FAF72
:10395000E397CE0181599F4F0E94760B8111D9CEFA
:10396000F801868D85FDCECF90E080E00E943B136C
:10397000D0CECD58DF4F0FB6F894DEBF0FBECDBF0F
:10398000DF91CF911F910F91FF90EF90DF90CF903B
:10399000BF90AF909F908F907F906F905F904F906F
:1039A0003F902F9008950E949C0881110E94931AC5
:1039B00080E090E0892B49F080E090E0892B29F0AD
:1039C0000E94000081110E94000080E090E0892B9D
:1039D00049F080E090E0892B29F00E9400008111DD
:1039E0000E94000080E090E0892B49F080E090E0A8
:1039F000892B29F00E94000081110C940000089589
:103A0000EF92FF920F931F93CF93DF93FC01E0801F
:103A1000F1808701065E1F4F21F1C281D38120977B
:103A200051F1F701868D982F9F7719F58078806284
:103A3000868F8FEF828F838FA701BE01C8010E94FE
:103A40001614FB01309761F4B701C8010E942018D9
:103A5000FB01309729F084818F778483D783C683D5
:103A60008F01C801DF91CF911F910F91FF90EF90CF
:103A7000089585FDE1CF10E000E0F3CFAF92BF9253
:103A8000CF92DF92EF92FF920F931F93CF93DF932A
:103A90008C017B01DC01AD90BC900E94001DEC010B
:103AA000009781F0F701C080D180E280F380B501FA
:103AB0000E94600F8C8180788C608C83C882D98250
:103AC000EA82FB82D801ED91FC9180E0309719F0F9
:103AD000828191E08927DF91CF911F910F91FF9013
:103AE000EF90DF90CF90BF90AF9008951F920F920C
:103AF0000FB60F9211240BB60F922F933F934F9353
:103B00005F936F937F938F939F93AF93BF93EF9345
:103B1000FF938091B900887F803609F44DC008F08A
:103B200040C0883209F4A9C028F5803109F49DC04D
:103B3000C8F4882309F4FBC0883009F496C0FF91CB
:103B4000EF91BF91AF919F918F917F916F915F9115
:103B50004F913F912F910F900BBE0F900FBE0F9082
:103B60001F901895883109F488C0803241F78093FE
:103B7000B10314C0803409F49DC040F48033B9F31C
:103B80008833E9F68093B10385ECB0C0803509F441
:103B900085C0883509F496C0883489F60E94E517F7
:103BA000CECF883909F48CC038F5883729F050F425
:103BB000883611F0803719F683E08093B3031092B2
:103BC000660357C0883809F47BC0803919F0803803
:103BD00009F0B5CF80916603803208F071C0E091A2
:103BE000660381E08E0F809366038091BB00F0E056
:103BF000EA5BFC4F80833DC0803B39F0E0F4803AC3
:103C000009F479C0883A09F09ACF84E08093B3032D
:103C10001092450310924403E0918703F0918803CA
:103C200019958091440381110FC081E08093440372
:103C30001092240309C0803C09F4A6CF883C09F403
:103C4000A3CF883B09F07BCFE091450381E08E0F45
:103C500080934503F0E0EC5DFC4F80818093BB00D6
:103C6000909145038091440329C080918E038093F5
:103C7000BB0085EC8093BC0062CF9091B003809133
:103C8000AF03981758F5E091B00381E08E0F809351
:103C9000B003F0E0E157FC4F8081E9CFE091B00341
:103CA00081E08E0F8093B0038091BB00F0E0E1577C
:103CB000FC4F80839091B0038091AF039817C8F2B6
:103CC00085E8D8CFE091B00381E08E0F8093B003F8
:103CD0008091BB00F0E0E157FC4F80838091B203FC
:103CE00081115CCF81E080938D0384EA8093BC00D6
:103CF0001092B30324CF85EC8093BC001092B303E1
:103D000080916603803230F4E0916603F0E0EA5B74
:103D1000FC4F10826091660370E0E0918903F0919E
:103D20008A0386E493E019951092660308CF1092F7
:103D3000B10334CF1F920F920FB60F9211242F931D
:103D40003F938F939F93AF93BF9380911B03909169
:103D50001C03A0911D03B0911E0330911A0323E0B0
:103D6000230F2D3758F50196A11DB11D20931A037D
:103D700080931B0390931C03A0931D03B0931E0319
:103D800080911F0390912003A0912103B091220301
:103D90000196A11DB11D80931F0390932003A09352
:103DA0002103B0932203BF91AF919F918F913F91D7
:103DB0002F910F900FBE0F901F90189526E8230F9C
:103DC0000296A11DB11DD2CF1F920F920FB60F9276
:103DD00011240BB60F922F933F934F935F936F93E2
:103DE0007F938F939F93AF93BF93EF93FF938091B4
:103DF0000B0390910C03A0910D03B0910E03892B3E
:103E00008A2B8B2BD1F190910A0380910000892796
:103E10008093000080910B0390910C03A0910D03FF
:103E2000B0910E03181619061A061B069CF4809111
:103E30000B0390910C03A0910D03B0910E03019719
:103E4000A109B10980930B0390930C03A0930D0378
:103E5000B0930E03FF91EF91BF91AF919F918F911E
:103E60007F916F915F914F913F912F910F900BBE7A
:103E70000F900FBE0F901F90189580910002EAE5F9
:103E8000F2E0E4919FEF90930002E230E9F040F419
:103E9000EE2389F0E13091F060E00E942E04DACF49
:103EA000E43049F110F1E530B9F7909173009D7F4E
:103EB00090937300F1CF10926E00EECF90916F004F
:103EC0009D7F90936F00E8CF909170009D7F9093BD
:103ED000700091E09093B0009091B100987F946051
:103EE0009093B1001092B300D7CF909171009D7F55
:103EF00090937100D1CF909172009D7F909372004A
:103F0000CBCF1F920F920FB60F9211240BB60F92C8
:103F10002F933F934F935F936F937F938F939F93D1
:103F2000AF93BF93EF93FF9389EE93E00E94A608AF
:103F3000FF91EF91BF91AF919F918F917F916F9181
:103F40005F914F913F912F910F900BBE0F900FBE3D
:103F50000F901F9018951F920F920FB60F92112479
:103F60000BB60F922F938F939F93EF93FF93E09154
:103F7000F903F091FA038081E091FF03F0910004CE
:103F800082FD1DC09081809102048F5F8F7320910C
:103F90000304821741F0E0910204F0E0E751FC4F86
:103FA000958F80930204FF91EF919F918F912F91B4
:103FB0000F900BBE0F900FBE0F901F901895808131
:103FC000F2CF1F920F920FB60F9211240BB60F92E1
:103FD0002F933F934F935F936F937F938F939F9311
:103FE000AF93BF93CF93DF93EF93FF938091090338
:103FF000C091C204D0E087FF23C0109285001092C8
:104000008400809109038F5F8093090380910903E5
:10401000082E000C990B8C179D0724F4809109033E
:104020008C3074F1809184009091850084349C4997
:1040300008F465C08091840090918500049661C069
:1040400080910903082E000C990B8C179D07CCF664
:104050003091090325E03203F0011124EA57FB4FA8
:10406000808186FFCECF309109033203F001112405
:10407000EA57FB4F808160E08F730E942E04C1CF0E
:1040800080918400909185003091090325E03203EE
:10409000F0011124EA57FB4F41815281840F951F93
:1040A0009093890080938800309109033203F001D6
:1040B0001124EA57FB4F808186FF0CC03091090321
:1040C0003203F0011124EA57FB4F808161E08F73C6
:1040D0000E942E04FF91EF91DF91CF91BF91AF919C
:1040E0009F918F917F916F915F914F913F912F9110
:1040F0000F900BBE0F900FBE0F901F90189580E48D
:104100009CE990938900809388008FEF8093090346
:10411000E1CF1092E0031092DF0388EE93E0A0E07D
:10412000B0E08093E1039093E203A093E303B093A4
:10413000E4032BE232E03093DE032093DD031092A0
:10414000EC031092EB038093ED039093EE03A093A6
:10415000EF03B093F0038DE392E09093EA03809332
:10416000E90385EC90E09093F6038093F50384ECEB
:1041700090E09093F8038093F70380EC90E09093A5
:10418000FA038093F90381EC90E09093FC03809311
:10419000FB0382EC90E09093FE038093FD0386EC9A
:1041A00090E0909300048093FF0310920204109219
:1041B000030410920404109205048DEC9CECACE412
:1041C000BFE38093710590937205A0937305B0933C
:1041D00074058DEC9CECACE4BEE380937505909384
:1041E0007605A0937705B09378058DEC9CECACE850
:1041F000BFE38093790590937A05A0937B05B093F4
:104200007C0510927D0510927E0510927F0510921C
:1042100080058CE08093430584E28093440585E02B
:104220008093450596E0909346059EE1909347055F
:104230009FE19093480592E29093490593E2909311
:104240004A0594E490934B0595E490934C051092A5
:104250004E0510924D0590E490935005109255052F
:104260001092560510925705109258051092590554
:1042700010925A0510925B0510925C0598E0E9E0F7
:10428000F2E0A5E6B5E001900D929A95E1F740E0E5
:1042900050E060EA70E440936D0550936E056093C2
:1042A0006F0570937005E091C204EC3008F0FFC018
:1042B00091E09E0F9093C204E09342058E9FF0011F
:1042C0001124EA57FB4F88EB9BE09283818388E6B9
:1042D000809333051092F7041092F8041092F904B9
:1042E0001092FA041092FB041092FC041092FD0448
:1042F0001092FE041092FF04109200051092010526
:104300001092020510920405109203051092060502
:1043100010920505109208051092070510920905E4
:1043200010920A0510920B0510920C0510920D05C3
:1043300010920E0510921B0510921C0510921D057F
:1043400010921E0510921F05109220051092210553
:104350001092220580E090E0A0EAB0E4809323056B
:1043600090932405A0932505B093260580E090E066
:10437000A8ECB2E48093270590932805A093290523
:10438000B0932A0510922B0510922C0510922D0542
:1043900010922E0510922F051092300510923105C3
:1043A0001092320584EE9BECA6E1B0EC8093E90418
:1043B0009093EA04A093EB04B093EC0484EE9BEC9E
:1043C000A6E1B0E48093ED049093EE04A093EF0493
:1043D000B093F0048EE293EEADECB8E38093C904A1
:1043E0009093CA04A093CB04B093CC041092CD0454
:1043F0001092CE041092CF041092D0041092D104E7
:104400001092D2041092D3041092D4041092D504C6
:104410001092D6041092D7041092D8041092D904A6
:104420001092DA041092DB041092DC041092DD0486
:104430001092DE041092DF041092E0041092E10466
:104440001092E2041092E3041092E4041092E50446
:104450001092E6041092E7041092E8041092C4044B
:104460001092C3041092C6041092C5041092C8049E
:104470001092C70490E080E00E94B3172091C3041B
:104480003091C404811117C02115310519F0C901FB
:104490000E94BA2F1092C4041092C3041092C80450
:1044A0001092C7041092C6041092C50408958FEFAD
:1044B000809342050CCF1092C8041092C7046BE59C
:1044C00072E0C9010C942D31CF93DF93CDB7DEB7E5
:1044D000CE54D1090FB6F894DEBF0FBECDBF78948D
:1044E00084B5826084BD84B5816084BD85B58260F9
:1044F00085BD85B5816085BD80916E0081608093AA
:104500006E00109281008091810082608093810012
:104510008091810081608093810080918000816022
:10452000809380008091B10084608093B10080917D
:10453000B00081608093B000809191008260809390
:104540009100809191008160809391008091900012
:104550008160809390008091A10082608093A1008F
:104560008091A10081608093A1008091A000816072
:104570008093A0008091210182608093210180912D
:1045800021018160809321018091200181608093CD
:10459000200180917A00846080937A0080917A0073
:1045A000826080937A0080917A00816080937A00A3
:1045B00080917A00806880937A001092C100E09127
:1045C000F903F091FA0382E08083E091F503F09122
:1045D000F6031082E091F703F091F80380E1808305
:1045E00010920104E091FD03F091FE0386E08083C8
:1045F000E091FB03F091FC03808180618083E09176
:10460000FB03F091FC03808188608083E091FB03D1
:10461000F091FC03808180688083E091FB03F0913E
:10462000FC0380818F7D808361E0809144050E943E
:10463000B60460E0809144050E942E0460E0809101
:1046400043050E94B60480914D0590914E05892B3B
:10465000A9F486E090E00E941E2FFC018091500595
:1046600080838DED93E092838183138280E290E0DA
:1046700095838483F0934E05E0934D05E0904D05BE
:10468000F0904E0510928C0310928B031092BA0397
:104690001092DC030E9477048FEE92E090938803DF
:1046A0008093870380EF92E090938A03809389033D
:1046B00011E0D70113961C93C7010E94EA078823D3
:1046C00009F45BC080E090E1A0E0B0E08093510588
:1046D00090935205A0935305B09354058AE090E05F
:1046E000A0E0B0E08093550590935605A093570540
:1046F000B093580580E090E0A0E0B0E480935905C5
:1047000090935A05A0935B05B0935C0580914D058D
:1047100090914E051FA618AA19AA1AAA99A388A3B0
:104720001BA21AA219A785E090E09FA38EA31AA747
:1047300002E008A740E050E160E070E0CE01809622
:104740000E94520780914D0590914E05188A198A52
:104750001A8A1B8A9A8389831C821B821A8718866D
:104760001F821B8709874FE959E360E070E0CE01A3
:1047700001960E94520780934F0575E4E72E75E07D
:10478000F72E03E415E0EEED6E2EE2E07E2EF4E26D
:104790008F2EF3E09F2EABECCA2EA7E0DA2EBBE8FB
:1047A000AB2EBB24B394F7019281D7018D917D018B
:1047B000F801828F938F61E00E94B60461E0D80116
:1047C0005B968C910E94B604F70195818381D80194
:1047D0005E968C935E975F969C9361E00E94B60410
:1047E00060E0F801878D0E94B60461E0D8015E9612
:1047F0008C910E942E045FB6F89480910F03811172
:1048000025C0F3018491F4019491E82FF0E0EE0FBC
:10481000FF1FE55AFD4FA591B4918C91982321F487
:1048200061E085E30E942E0461E085E30E94B60406
:104830008CB580618CBD8CB580648CBD61E084E3F7
:104840000E94B60461E083E30E94B60480910F03E6
:104850008F5F80930F035FBEC6010197F1F760E0A1
:10486000D8015E968C910E942E0488E80E945C0A12
:1048700083E00E945C0A61E0F801868D0E942E04AC
:10488000C6010197F1F760E0D8015E968C910E9415
:104890002E0488E90E945C0A80E00E945C0A80E0A5
:1048A0000E945C0A80E00E945C0A80E00E945C0A30
:1048B00061E0F801868D0E942E04C5010197F1F791
:1048C00060E0D8015E968C910E942E0480EE0E94DA
:1048D0005C0A61E0F801868D0E942E040E5F1F4F76
:1048E000F5E007341F0709F05ECF60E08DE30E941A
:1048F000B60460E080E10E94B60460E08EE00E94B1
:10490000B60460E081E10E94B60460E08FE00E949E
:10491000B60461E080E20E94B6040E94D9028C01D4
:10492000C090E904D090EA04E090EB04F090EC042D
:10493000A70196016091ED047091EE048091EF045F
:104940009091F0040E94232D4B015C01B801110FDE
:10495000880B990B0E94A52B9B01AC01C501B401EA
:104960000E94042C20E030EC4FE754E40E94952D87
:10497000A70196010E94242D0E94072E7093F20435
:104980006093F10480E090E0A0E8B0E48093F70445
:104990009093F804A093F904B093FA0480E090E0B7
:1049A000A0E0B0E48093FB049093FC04A093FD048A
:1049B000B093FE048DEC9CECACECBDE38093FF0463
:1049C00090930005A0930105B09302051092230572
:1049D00010922405109225051092260589E190E099
:1049E000A0E0B0E08093130590931405A093150503
:1049F000B09316058DEC9CECACECBCE380930F05FA
:104A000090931005A0931105B093120583ED9BE0E0
:104A1000909304058093030587E293E19093060544
:104A200080930505CE0141962A969FAF8EAF2A97B7
:104A30000E94230800911603109117032091180378
:104A400030911903601B710B820B930B6931710557
:104A50008105910508F44CC58EE00E940504892B60
:104A600021F088E090E00E943B1380E10E94050461
:104A7000892B21F087E090E00E943B1381E10E94A6
:104A80000504892BD1F089E090E00E943B13E0916E
:104A90001403F09115033197E830F105E8F4882705
:104AA000EB5AFA4D8F4F0C94122D63258425BD25AA
:104AB000D425E2252C264E2643268FE00E940504AD
:104AC000892B09F7E4CF0E94830B882309F418C5CA
:104AD00086E090E00E943B13E0911403F0911503EF
:104AE000EA30F10508F033C18827E658FA4D8F4FB8
:104AF0000C94122DB12A802AA6258B2A5926B62A73
:104B0000AD2A54264926B12A0E94F3016B017C018B
:104B100020E030E0A9010E94D02E18166CF42AE0A3
:104B200037ED43E25CE3C701B6010E949E2B87FF8D
:104B30000DC090E080E0CECF2AE037ED43E25CEBA1
:104B4000C701B6010E94D02E18169CF30E94F301F3
:104B500020E030E0A9010E949E2B4DEC5CEC6CEC57
:104B60007DEB87FF04C04DEC5CEC6CEC7DE3705892
:104B70008FE595E00E943509EAC00E942308009164
:104B80001003109111032091120330911303601B45
:104B9000710B820B930B693E73408105910508F4FC
:104BA000BAC484E090E096CF0E9410022DEC3CEC59
:104BB0004CE45FE30E94D02E18160CF07AC085E01A
:104BC00090E088CF20E030E0A901609171057091FC
:104BD000720580917305909174050E949E2B87FF4A
:104BE0002DC020E030E0A9016091790570917A052F
:104BF00080917B0590917C050E94D02E1816F4F4CC
:104C000020E030E0A90160917505709176058091F2
:104C10007705909178050E94D02E18167CF420E03C
:104C200030E0A90160917D0570917E0580917F053E
:104C3000909180050E949E2B87FD0BC00E94F3017E
:104C40002AE939E949E15FE30E94D02E18160CF0F9
:104C50008DC481E090E03ECF0E94230800911003B4
:104C6000109111032091120330911303601B710BFB
:104C7000820B930B693C71058105910508F46DC4A5
:104C800082E090E027CF8EE00E940504892B09F492
:104C900050CF4DEC5CEC6CEC7DE36ACF80E10E9480
:104CA0000504892B09F445CF4DEC5CEC6CEC7DEBF5
:104CB0005FCF0E94830B81111EC40E945D0220E021
:104CC00030E0A9010E949E2B01E010E087FF02C0A6
:104CD0000FEF1FEF0E94F30120E030E0A9010E94D6
:104CE000D02E5AE0C52E57EDD52E53EAE52E5CE3C3
:104CF000F52E181644F44AE0C42E47EDD42E43EAAC
:104D0000E42E4CEBF42E0E9410020E94902D2DEC0C
:104D10003CEC4CEC5DEB0E94042C4B015C01B801B7
:104D2000110F880B990B0E94A52B9B01AC01C501AB
:104D3000B4010E94042CA70196010E94242D6093C7
:104D4000090570930A0580930B0590930C050E944A
:104D5000D9022091F3043091F4043093F6042093A7
:104D6000F5049093F4048093F30460E0809163056C
:104D70000E942E0480E60E945C0A8E010F5F1F4F86
:104D80007801480180E00E945C0A90E0B0E0A0E079
:104D9000F70181939193A193B1937F012A968EADF0
:104DA0009FAD2A978E179F0769F761E08091630591
:104DB0000E942E04412C512C3201F80181919191D5
:104DC000A191B1918F01762C652C542C4424480E6E
:104DD000591E6A1E7B1EEE16FF0679F72090D1043D
:104DE0003090D204B091D304A091D404F091D504B2
:104DF000E091D6042091D7042B962FAF2B9780916A
:104E0000D8042F968FAF2F9791014B2F5A2F6F2FCA
:104E10007E2F2B968FAD2B972F969FAD2F97A0901F
:104E2000D904B090DA04C090DB04D090DC04E090A8
:104E3000DD04F090DE040091DF041091E0040E9494
:104E40001A2D2093E1043093E2044093E30450933D
:104E5000E4046093E5047093E6048093E704909380
:104E6000E8042092D9043092DA04B093DB04A093D2
:104E7000DC04F093DD04E093DE042B96AFAD2B97BA
:104E8000A093DF042F96BFAD2F97B093E0047094EA
:104E9000609450944094411C511C611C711CD301BE
:104EA000C201BB0F880B982FDC014092D1045092B5
:104EB000D2046092D3047092D4048093D50480937A
:104EC000D6048093D7048093D8040E9423080091CD
:104ED0001B0510911C0520911D0530911E056017C2
:104EE00071078207930708F45BC080910D05882342
:104EF00009F456C00E94230800911305109114056F
:104F00002091150530911605DC01CB01800F911F12
:104F1000A21FB31F80931B0590931C05A0931D0532
:104F2000B0931E05C0900905D0900A05E0900B05CE
:104F3000F0900C05E0910305F091040519959B0193
:104F4000AC01C701B6010E94232D6B017C019F7744
:104F50002091230530912405409125055091260587
:104F60000E949E2B87FF0FC381E080930E05109255
:104F70000D05E0910705F0910805309709F01995A6
:104F800080911B0590911C05A0911D05B0911E05F7
:104F900080931F0590932005A0932105B0932205CF
:104FA00081E092E09A8389831B821D821C82A6E0A5
:104FB000B0E0AC0FBD1FBF8BAE8B188E84E0898F25
:104FC0008FEF8A8F1F8E0E9423086B017C0188A2BD
:104FD00099A28CED92E09BA38AA3CE0180960E94B9
:104FE000001D8C01009761F0B4010E94600FF80170
:104FF0008481807888608483C082D182E282F38257
:10500000E0901403F090150388A299A284EA92E03C
:105010009BA38AA3CE0180960E94001D8C0100975D
:1050200081F0B4010E94600FF801848180788A6069
:105030008483C701FF0CAA0BBB0B80839183A283DF
:10504000B3838091F7049091F804A091F904B09192
:10505000FA0488A399A3AAA3BBA38BAA9CAA87E955
:1050600092E09EAB8DABBE01605E7F4FCE01C396DA
:105070000E943E1D8091FB049091FC04A091FD04D0
:10508000B091FE0488A399A3AAA3BBA38BAA9CAA50
:105090008AE992E09EAB8DABBE01605E7F4FCE0190
:1050A000C3960E943E1D8091FF0490910005A0913F
:1050B0000105B091020588A399A3AAA3BBA38BAA5B
:1050C0009CAA8DE992E09EAB8DABBE01605E7F4FE6
:1050D000CE01C3960E943E1D8091090590910A055C
:1050E000A0910B05B0910C0588A399A3AAA3BBA31B
:1050F0008BAA9CAA86EA92E09EAB8DABBE01605E55
:105100007F4FCE01C3960E943E1D0E94F30168A30B
:1051100079A38AA39BA38BAA9CAA8AEA92E09EAB5E
:105120008DABBE01605E7F4FCE01C3960E943E1DD7
:105130002091D1043091D2044091D3045091D404F1
:105140006091D5047091D6048091D7049091D804D1
:10515000A090D904B090DA04C090DB04D090DC04B5
:10516000E090DD04F090DE040091DF041091E00493
:105170000E941A2D0E943D2E2091C9043091CA042C
:105180004091CB045091CC040E94042C68A379A3D5
:105190008AA39BA38BAA9CAA89EA92E09EAB8DABC3
:1051A000BE01605E7F4FCE01C3960E943E1D2091DE
:1051B000D1043091D2044091D3045091D404609131
:1051C000D5047091D6048091D7049091D804A09012
:1051D000D904B090DA04C090DB04D090DC04E090F5
:1051E000DD04F090DE040091DF041091E0040E94E1
:1051F0001A2DA090E104B090E204C090E304D09096
:10520000E404E090E504F090E6040091E7041091D6
:10521000E8040E941A2D0E943D2E2091C90430916D
:10522000CA044091CB045091CC040E94042C68A382
:1052300079A38AA39BA38BAA9CAA88EA92E09EAB3F
:105240008DABBE01605E7F4FCE01C3960E943E1DB6
:105250000E94100268A379A38AA39BA38BAA9CAA8D
:105260008DEA92E09EAB8DABBE01605E7F4FCE01BA
:10527000C3960E943E1D0E945D0268A379A38AA383
:105280009BA38BAA9CAA8CEA92E09EAB8DABBE013D
:10529000605E7F4FCE01C3960E943E1DF0900E05CA
:1052A00088A299A284EB92E09BA38AA3CE01809668
:1052B0000E94001D8C01009769F0B4010E94600FEC
:1052C000D80114968C9114978078866014968C93EC
:1052D0001497FC9280914D0590914E051FA618AA37
:1052E00019AA1AAA99A388A31BA21AA211E019A7A6
:1052F00082E090E09FA38EA31AA702E008A7BE0158
:105300006D5C7F4FCE0180960E94711180934F0596
:10531000EBA8FCA883E0F694E7948A95E1F7EE0CFD
:10532000FF1CEE0CFF1C80914D0590914E051FA6B1
:1053300018AA19AA1AAA99A388A31BA21AA219A784
:1053400081E090E09FA38EA31AA708A7BE016D5C21
:105350007F4FCE0180960E94711180934F056BA9FB
:105360007CA9072E000C880B990B0E94A52B2AE024
:1053700037ED43E25CE30E94042C20E030E04AE792
:1053800054E40E94952D2B013C01B701FF0C880BC2
:10539000990B0E94A52B2FE632E143E85AE30E94C5
:1053A000042C9B01AC01C301B2010E94242D68A30F
:1053B00079A38AA39BA38BAA9CAA8FEA92E09EABB7
:1053C0008DABBE01605E7F4FCE01C3960E943E1D35
:1053D00080914D0590914E0526961CAE1DAE1EAED9
:1053E0001FAE26979CAB8BAB1EAA1DAA1CAF85E0F7
:1053F00090E09AAF89AF1DAF0BAF4091510550912E
:1054000052056091530570915405CE01C3960E94D8
:10541000520780914D0590914E051FA618AA19AA12
:105420001AAA99A388A31BA21AA219A784E090E044
:105430009FA38EA31AA708A7BE016A5B7F4FCE0168
:1054400080960E94711180934F0528966EAD7FADB6
:105450002897072E000C880B990B0E94A52B6B0137
:105460007C0160915505709156058091570590918A
:1054700058050E94A32B9B01AC01C701B6010E94F5
:10548000952D20E030E04AE754E40E94952D68A372
:1054900079A38AA39BA38BAA9CAA81EB92E09EABE3
:1054A0008DABBE01605E7F4FCE01C3960E943E1D54
:1054B00089EE93E099A388A31BA21AA28CA29DA2B5
:1054C000BE01605E7F4FCE014B960E94D51486E6EA
:1054D00092E00E942E13C4010E94170F0E9423081D
:1054E0006093160370931703809318039093190326
:1054F0000E94D31C9DCA6DEC7CEC8CE49DEB1FCC10
:105500000E9410022DEC3CEC4CE45EE30E94042C63
:10551000AB01BC012CCB40E050E060E070E88FE5CF
:1055200095E00E9435090E94230800911003109114
:1055300011032091120330911303601B710B820B36
:10554000930B643F71408105910528F460E080E28F
:105550000E942E04FCCB61E0FACF60E080E20E9462
:105560002E0440E050E060E070E802CB80E090E084
:10557000A0E0BFE38093090590930A05A0930B0573
:10558000B0930C05E4CB00910505109106050E942F
:10559000230840901F0550902005609021057090D1
:1055A0002205641975098609970960931705709398
:1055B00018058093190590931A0520912B053091B9
:1055C0002C0540912D0550912E05C701B6010E9472
:1055D000242D60932B0570932C0580932D059093BB
:1055E0002E05409027055090280560902905709061
:1055F0002A05A30192010E94D02E181644F440926D
:105600002B0550922C0560922D0570922E0577FA8D
:10561000709477F87094A301920160912B057091BA
:105620002C0580912D0590912E050E949E2B87FFC1
:1056300008C040922B0550922C0560922D05709267
:105640002E0540900F055090100560901105709048
:10565000120520912B0530912C0540912D0550917C
:105660002E056091FB047091FC048091FD049091E3
:10567000FE040E94042CA30192010E94042C2E9689
:105680006CAF7DAF8EAF9FAF2E972091F704309116
:10569000F8044091F9045091FA04C701B6010E9440
:1056A000042C9B01AC012E966CAD7DAD8EAD9FADF3
:1056B0002E970E94242D2E966CAF7DAF8EAF9FAF9C
:1056C0002E9720912F053091300540913105509152
:1056D0003205C701B6010E94232D2091FF043091AD
:1056E000000540910105509102050E94042CA30180
:1056F00092010E94952D9B01AC012E966CAD7DAD63
:105700008EAD9FAD2E970E94242DC0922F05D09272
:105710003005E0923105F0923205F801199530CC50
:105720008091C3049091C404009711F00E94BA2F95
:1057300080914D0590914E050C94BA2F0E94E02B5C
:1057400008F481E00895E89409C097FB3EF4909531
:105750008095709561957F4F8F4F9F4F9923A9F04A
:10576000F92F96E9BB279395F695879577956795D9
:10577000B795F111F8CFFAF4BB0F11F460FF1BC01D
:105780006F5F7F4F8F4F9F4F16C0882311F096E9B0
:1057900011C0772321F09EE8872F762F05C066235E
:1057A00071F096E8862F70E060E02AF09A95660F17
:1057B000771F881FDAF7880F9695879597F90895D0
:1057C000990F0008550FAA0BE0E8FEEF1616170612
:1057D000E807F907C0F012161306E407F50798F07A
:1057E000621B730B840B950B39F40A2661F0232B93
:1057F000242B252B21F408950A2609F4A140A6950F
:105800008FEF811D811D08950E94172C0C94882C08
:105810000E947A2C38F00E94812C20F0952311F000
:105820000C94712C0C94772C11240C94BC2C0E9499
:10583000992C70F3959FC1F3950F50E0551F629F0F
:10584000F001729FBB27F00DB11D639FAA27F00DD9
:10585000B11DAA1F649F6627B00DA11D661F829F00
:105860002227B00DA11D621F739FB00DA11D621FE5
:10587000839FA00D611D221F749F3327A00D611D02
:10588000231F849F600D211D822F762F6A2F1124E4
:105890009F5750409AF0F1F088234AF0EE0FFF1F17
:1058A000BB1F661F771F881F91505040A9F79E3F6E
:1058B000510580F00C94712C0C94BC2C5F3FE4F3E8
:1058C000983ED4F3869577956795B795F795E795C4
:1058D0009F5FC1F7FE2B880F911D9695879597F9CD
:1058E000089597F99F6780E870E060E008959FEF62
:1058F00080EC089500240A94161617061806090667
:10590000089500240A941216130614060506089535
:10591000092E0394000C11F4882352F0BB0F40F4BD
:10592000BF2B11F460FF04C06F5F7F4F8F4F9F4FFD
:10593000089557FD9058440F551F59F05F3F71F07F
:105940004795880F97FB991F61F09F3F79F08795E6
:105950000895121613061406551FF2CF4695F1DF6F
:1059600008C0161617061806991FF1CF86957105FF
:10597000610508940895E894BB2766277727CB0133
:1059800097F908950E94EF2CA59F900DB49F900D5C
:10599000A49F800D911D11240895A1E21A2EAA1B27
:1059A000BB1BFD010DC0AA1FBB1FEE1FFF1FA217CF
:1059B000B307E407F50720F0A21BB30BE40BF50BCC
:1059C000661F771F881F991F1A9469F76095709555
:1059D000809590959B01AC01BD01CF010895A29FD8
:1059E000B001B39FC001A39F700D811D1124911DB3
:1059F000B29F700D811D1124911D0895AA1BBB1B20
:105A000051E107C0AA1FBB1FA617B70710F0A61BBE
:105A1000B70B881F991F5A95A9F780959095BC01DF
:105A2000CD010895EE0FFF1F881F8BBF0790F691E1
:105A3000E02D19942A193B094C095D096E097F096B
:105A4000800B910B08955058BB27AA270E943B2D2D
:105A50000C94882C0E947A2C38F00E94812C20F023
:105A600039F49F3F19F426F40C94772C0EF4E0954A
:105A7000E7FB0C94712CE92F0E94992C58F3BA176C
:105A8000620773078407950720F079F4A6F50C9454
:105A9000BB2C0EF4E0950B2EBA2FA02D0B01B901F3
:105AA00090010C01CA01A0011124FF27591B99F094
:105AB000593F50F4503E68F11A16F040A22F232FA0
:105AC000342F4427585FF3CF469537952795A795F0
:105AD000F0405395C9F77EF41F16BA0B620B730B97
