:100000000C94B1010C94E2010C94E2010C94E20115
:100010000C94E2010C94E2010C94E2010C94E201D4
:100020000C94E2010C94E2010C94E2010C94E201C4
:100030000C94E2010C94D41D0C94E2010C94E201A6
:100040000C94E2010C94D11E0C94E2010C94E20198
:100050000C94E2010C94E2010C94E2010C948A1DD0
:100060000C94E2010C949B1E0C94711E0C94E20102
:100070000C94E2010C94E2010C94E2010C94E20174
:100080000C94E2010C94E2010C94E2010C94E20164
:100090000C94E2010C94E2010C94E2010C94661CB5
:1000A0000C94E2010C94E2010C94E2010C94E20144
:1000B0000C94E2010C94E2010C94E2010C94E20134
:1000C0000C94E2010C94E2010C94E2010C94E20124
:1000D0000C94E2010C94E2010C94E2010C94E20114
:1000E0000C94E2010C94600A0C94F0030C94EF0958
:1000F0000C94BD080C94CB080C94E7290C94CD24E7
:100100000C9415030C94C8290C947D130C94880A44
:100110000C940E250C94B6250C940F0A0C94A90887
:100120000C94621C0C943F030C947E170C94050AEB
:100130000C94C7250C94740A0C94A3250C94F90311
:100140000C94000A0C942B0A0C94230A0C946C0354
:100150000C947E0A0C94470A0C94CE030C94030C66
:100160000C94190A0C9462250C943D0A0C94E60335
:100170000C949A080C94FE030C9481170C94D803E9
:100180000C94510A0C94DE030C94F4290C94C125B0
:100190000C9425030C94DF290C946A080C945009E4
:1001A0000C94BF030C94CB030C94ED020C94B90394
:1001B0000C94920A0C94C7030C94E2030C94380339
:1001C0000C94BD290C946A0A0C9416030C94BC255B
:1001D0000C94A8240C94BD2A0C94EC020C948A294B
:1001E0000C94791F0C9421250C94C3030C94CC25FA
:1001F0000C94F4030C9403090C94EC030C94FA0390
:100200000C94D4030C94330A0C949708CDCCCC3DB9
:100210000AD7233C17B7D13877CC2B329595E624F3
:100220001FB14F0A000020410000C84200401C4698
:1002300020BCBE4CCA1B0E5AAEC59D7402000021E4
:1002400000240027002A002D0030003300010100A7
:1002500000040107010A0100002200250028002BEC
:10026000002E003100340002010000050108010BDE
:1002700001000020002300260029002C002F00325E
:10028000000001000003010601090105050505073D
:100290000508080808020202020A0A080804040401
:1002A000040101010101010101030303030303032D
:1002B00003040707070C0C0C0C0C0C0C0C020202BC
:1002C0000206060606060606060B0B0B0B0B0B0BAF
:1002D0000B0102102020080810204010204080024E
:1002E000010201080402010102040810204080807C
:1002F0004020100804020180040201804020100800
:1003000004020108040201010204081020408001D7
:100310000204081020408000000A0B02090C0D0E98
:1003200008070304010000000000000000000000B6
:1003300000000000000000000000000000000000BD
:10034000000000121110000000000000000000007A
:100350000000000000000000000000000000791F05
:10036000BD2A11241FBECFEFD1E2DEBFCDBF00E01A
:100370000CBF12E0A0E0B2E0E8E3F0E600E00BBF63
:1003800002C007900D92A23FB107D9F725E0A2EF76
:10039000B2E001C01D92A83BB207E1F711E0C0EB4B
:1003A000D1E000E006C021970109802FFE010E94E4
:1003B0006A2CCF3AD10780E00807A9F70E94742180
:1003C0000C940A300C9400004F925F926F927F92CF
:1003D0008F929F92AF92BF92CF92DF92EF92FF9255
:1003E000CF93DF9300D01F92CDB7DEB7E9EFF4E0F3
:1003F000C080D180E280F380A70196016091FD0466
:100400007091FE048091FF04909100050E94722C6F
:100410004B015C014090010550900205609003057E
:10042000709004056091050570910605072E000C7B
:10043000880B990B0E94CA2AA50194010E94292BBE
:1004400020E030EC4FE754E40E94F62CA70196011F
:100450000E94732CA30192010E94722C69837A83FB
:100460008B839C836091070570910805072E000C13
:10047000880B990B0E94CA2AA50194010E94292B7E
:1004800020E030EC4FE754E40E94F62CA7019601DF
:100490000E94732CA30192010E94722C9B01AC015B
:1004A00069817A818B819C810E94722C0F900F90C0
:1004B0000F900F90DF91CF91FF90EF90DF90CF9052
:1004C000BF90AF909F908F907F906F905F904F9074
:1004D0000895CF93DF93EC0188819981DC01ED9140
:1004E000FC910190F081E02D64E270E01995009795
:1004F00041F02FE1FC01238321E02283DF91CF91A2
:10050000089521E02A83FACF80917B00877F809332
:100510007B0087E480937C0080917A0080648093E4
:100520007A0080917A0086FDFCCF809178009091CE
:1005300079000895CF92DF92EF92FF92CF93DF93ED
:10054000C0910905CC3008F040C025E0C29FE00111
:100550001124C255DB4F2B8138E8C32ED12CC21A8F
:10056000D10827FDD394CC0CDD1CCC0CDD1C0D2C4C
:10057000000CEE08FF084C8128E532E0241B31090D
:1005800047FD3395220F331F220F331F032E000C1C
:10059000440B550B2C193D094E095F09DC010E94E3
:1005A000112C24EB30E040E050E00E94E72BC20E1B
:1005B000D31EE41EF51E8FB7F89496E0C91AD10831
:1005C000CC0CDD1CDA82C9828FBFDF91CF91FF9006
:1005D000EF90DF90CF9008950895089520916C03D7
:1005E000260F3327331F21323105ECF42091DB0332
:1005F000FC0190E080E0243069F082E00895A09151
:100600006C032191AC01445B5C4FA40FB52FB11D6D
:100610002C930196861798F380916C03680F609372
:100620006C0380E0089581E008950895E091B4039B
:100630008091B303E81730F4F0E0E157FC4F80817C
:1006400090E008958FEF9FEF08959091B40380910B
:10065000B3032FEF3FEF981748F4E92FF0E0E1578D
:10066000FC4F208130E09F5F9093B403C90108954F
:100670008091B3039091B403891B990B0895CF9295
:10068000DF92EF92FF920F931F93CF93DF937C0142
:10069000CB018A012091E103222389F0EB016B0158
:1006A000C40ED51ECC15DD0569F06991D701ED9119
:1006B000FC910190F081E02DC7011995F3CF642FD3
:1006C0000E94EE02C801DF91CF911F910F91FF9020
:1006D000EF90DF90CF900895CF93DF931F92CDB727
:1006E000DEB769832091E1032223F9F0209104040D
:1006F000203258F021E030E0FC013383228390E087
:1007000080E00F90DF91CF9108958091E203E82F70
:10071000F0E0ED51FC4F998190838F5F8093E2036D
:100720008093040481E090E0ECCF61E0CE0101967B
:100730000E94EE02F7CF8150823108F05AC0E82FB4
:10074000F0E08827E955FC4F8F4F0C946A2CC703C3
:10075000CB03B903BF03C303F903CE03D403D80308
:10076000DE03E203E603EC03F003F903F403FA0308
:10077000FE03809180008F778093800008958091A0
:1007800080008F7DF9CF80918000877FF5CF84B581
:100790008F7784BD089584B58F7DFBCF8091B000A5
:1007A0008F778093B00008958091B0008F7DF9CF4E
:1007B000809190008F7780939000089580919000B1
:1007C0008F7DF9CF80919000877FF5CF8091A00039
:1007D0008F778093A00008958091A0008F7DF9CF3E
:1007E0008091A000877FF5CF809120018F77809343
:1007F00020010895809120018F7DF9CF8091200103
:10080000877FF5CFCF93DF93282F30E0F901E95EA2
:10081000FC4F8491F901EF52FD4FD491F901E55756
:10082000FD4FC491CC23A1F081110E949B03EC2FBA
:10083000F0E0EE0FFF1FEF58FD4FA591B491EC9142
:10084000ED2381E090E009F480E0DF91CF910895FD
:1008500080E090E0FACF1F93CF93DF93282F30E012
:10086000F901E95EFC4F8491F901EF52FD4FD491FB
:10087000F901E557FD4FC491CC23A9F0162F811142
:100880000E949B03EC2FF0E0EE0FFF1FE95AFD4F93
:10089000A591B4918FB7F894EC91111108C0D0953F
:1008A000DE23DC938FBFDF91CF911F910895DE2B64
:1008B000F8CFFC0183858F3F19F061E00C942B0485
:1008C0000895FC0180819181892B39F0A281B38147
:1008D0009C9111968C919CBD8DBD83858F3F19F0A5
:1008E00060E00C942B0408951092DB0381E0809368
:1008F000DA031092B50361E084E10E942B0461E009
:1009000085E10E942B04E9EBF0E080818E7F8083FB
:1009100080818D7F808388E48093B80085E4809314
:10092000BC000895CF93DF9391E090934B0388230D
:10093000B9F0C091B800D091BA008091BC008A7B18
:100940008093BC0060E084E10E942B0460E085E1BC
:100950000E942B040E947404D093BA00C093B80084
:10096000DF91CF910895CF93DF9390E0FC01EF5298
:10097000FD4F249185579D4FFC0184918823D1F030
:1009800090E0880F991FFC01E35CFD4FA591B491A5
:10099000FC01E95AFD4FC591D49161110EC09FB77A
:1009A000F8948C91E22FE0958E238C932881E2239A
:1009B000E8839FBFDF91CF9108958FB7F894EC91B2
:1009C000E22BEC938FBFF6CF8230910538F0880F81
:1009D000991F880F991F05970197F1F70895AF9216
:1009E000BF92CF92DF92EF92FF920F931F93CF931C
:1009F000DF93EC0188819981892B89F06EBD0DB45C
:100A000007FEFDCFBEB48B2DDF91CF911F910F91CB
:100A1000FF90EF90DF90CF90BF90AF9008958885C2
:100A2000998511E0892B09F010E8AA24A394862F58
:100A3000812309F0A12C062F2C813D814E815F81FD
:100A400060E271EA87E090E00E94192CF22EB02E4D
:100A5000E12CC22ED12CFF2019F0C6010E94E40423
:100A60008A85877F09F042C08D858F3F89F0902F5E
:100A7000912381E009F480E08A1551F0EF85F8892F
:100A80008F89992369F19081892B8083AA24A3946B
:100A9000E989FA898081998D892B8083FF2019F05B
:100AA000C6010E94E4048E858F3F39F0EB89FC89F2
:100AB0008081988D892309F0E12AE989FA8990815A
:100AC000898D8095892380838E858F3F09F0BE2C88
:100AD00088859985892BB9F5110F1111BCCF93CF5A
:100AE0009081809589238083A12CD2CFE989FA89CE
:100AF0008081998D892B8083FF2019F0C6010E9487
:100B0000E4048D858F3F49F0EF85F8898F89902F18
:100B10009123A9F09081892B8083E989FA899081BA
:100B2000898D8095892380838E858F3F69F2EB893B
:100B3000FC898081988D892339F2E12AC5CF908183
:100B400080958923E9CF1695C8CF8F929F92AF9257
:100B5000BF92CF92DF92EF92FF920F931F93CF93AA
:100B6000DF937C014B016A01B22EA32E0E94610427
:100B7000E401C80CD91CCC15DD0569F4CB2DDA2DA8
:100B80000C0F1D1FC017D10759F06FEFC7010E944E
:100B9000EF048993F7CF6991C7010E94EF04EBCF6F
:100BA000C7010E94590481E0DF91CF911F910F91FD
:100BB000FF90EF90DF90CF90BF90AF909F908F907D
:100BC00008958F929F92AF92BF92CF92DF92EF9251
:100BD000FF920F931F93CF93DF937C01B62EA72E26
:100BE0006A0149010E946104E401080D191DC01742
:100BF000D10761F4CB2DDA2DCC0EDD1ECC15DD0531
:100C000051F06991C7010E94EF04F8CF6991C701C3
:100C10000E94EF04ECCFC7010E94590481E0DF91EC
:100C2000CF911F910F91FF90EF90DF90CF90BF90E9
:100C3000AF909F908F9008953FB7F89480914703AD
:100C400090914803A0914903B0914A0326B5A89B0F
:100C500005C02F3F19F00196A11DB11D3FBFBA2F4E
:100C6000A92F982F8827BC01CD01620F711D811D0E
:100C7000911D42E0660F771F881F991F4A95D1F793
:100C800008958F929F92AF92BF92CF92DF92EF9290
:100C9000FF920F931F93CF93DF93D0910404D1322F
:100CA00008F0D7C0182FC09103040E941C066B01E6
:100CB0007C018091DB0381116BC082E08093DB03B8
:100CC0001093DA038FEF8093D9031092D803D09357
:100CD000D703A3EEB3E0E7EBF3E080E0D81391C0D5
:100CE0001092B6038091B603CC0FC82BC093B60305
:100CF0008091B503813009F088C01092B5030E943D
:100D00001C066B017C018091B6038093BB0080912F
:100D1000DD039091DE03A091DF03B091E003892B06
:100D20008A2B8B2BA1F00E941C060091DD031091F1
:100D3000DE032091DF033091E0036C197D098E09F9
:100D40009F09061717072807390708F442C0809142
:100D5000BC0083FDD8CF85EC8093BC000E941C06AC
:100D60006B017C018091DB03823009F450C08091DB
:100D7000D9038F3F09F46FC08091D903803209F401
:100D80006CC08091D903803309F469C084E026C027
:100D90008091DD039091DE03A091DF03B091E00329
:100DA000892B8A2B8B2B09F484CF0E941C06809000
:100DB000DD039090DE03A090DF03B090E0036C1998
:100DC0007D098E099F0986169706A806B90608F0C0
:100DD00070CF8091DC030E94920485E01092E203C0
:100DE000109204041092E103DF91CF911F910F91B3
:100DF000FF90EF90DF90CF90BF90AF909F908F903B
:100E000008959D9191938F5F69CF85EEA5CF8091D5
:100E1000DD039091DE03A091DF03B091E003892B05
:100E20008A2B8B2B09F49ECF0E941C060091DD03B8
:100E30001091DE032091DF033091E0036C197D09EE
:100E40008E099F09061717072807390708F08ACF68
:100E5000C0CF81E0C3CF80E0C1CF82E0BFCF83E0CD
:100E6000BDCF1F93CF93DF93EA01122FDC011196C0
:100E70008D919C91DC01ED91FC910280F381E02D3C
:100E80001995C817D90729F4812F0E94410691E0CE
:100E9000811190E0892FDF91CF911F910895CF921A
:100EA000DF92EF92FF920F931F93CF93DF931F92E6
:100EB0001F92CDB7DEB7FC014787508B618B728BD9
:100EC0008285882371F14487452F562F672F772716
:100ED000882349F143877F018BE0E80EF11C96815E
:100EE000878199838A83C080D180C114D10409F499
:100EF00043C0018510E098012E5F3F4FD601149644
:100F00008D919C918217930780F480E00F900F9051
:100F1000DF91CF911F910F91FF90EF90DF90CF90D5
:100F200008954387D1CF4487D6CFF601818192813E
:100F3000208131E03093E103209303041092E20317
:100F4000109204040115110541F421E042E050E043
:100F5000B701C6010E943107D9CFDC01ED91FC91A8
:100F60000280F381E02DA801BE016F5F7F4F1995CC
:100F70000817190751F6E9CFA281B381109729F21A
:100F800024813581018510E02330310579F48E7F8D
:100F900089839A830F5F1F4F9E012F5F3F4F42E06F
:100FA00050E0B701CD010E94E105B0CF2115310518
:100FB00019F49F779983F0CF2230310511F49068AE
:100FC000F9CF2130310541F79F779064F3CFCF936C
:100FD000DF93EC018B818823A1F0888191E09093CD
:100FE000E103809303041092E2031092040481E071
:100FF0000E94410691E0811190E0892FDF91CF910D
:1010000008951092B4031092B3031092E203109269
:1010100004040E9474048CEE92E09093B0038093D9
:10102000AF038DEE92E09093B2038093B10381E021
:101030008B83CE010E94E707982F8111CECFDDCFA1
:101040002FB7F89460914303709144038091450356
:10105000909146032FBF08950F931F93809116051B
:1010600090911705892B99F1809118059091190598
:10107000892B69F181E0809320050E94200800916E
:101080002605109127052091280530912905DC01BE
:10109000CB01800F911FA21FB31F80932E05909349
:1010A0002F05A0933005B0933105109221051092C1
:1010B0003E0510923F051092400510924105109296
:1010C00042051092430510924405109245051F9168
:1010D0000F910895AF92BF92CF92DF92EF92FF925D
:1010E0000F931F93CF93DF936C017B018B01040F50
:1010F000151FEB015E01AE18BF08C017D10759F0EC
:101100006991D601ED91FC910190F081E02DC6012D
:101110001995892B79F7C501DF91CF911F910F9117
:10112000FF90EF90DF90CF90BF90AF90089590E048
:1011300080E00895FC01538D448D252F30E0842FED
:1011400090E0821B930B541710F0CF9608950197EF
:101150000895FC01918D828D981761F0A28DAE0FDC
:10116000BF2FB11D5D968C91928D9F5F9F73928F63
:1011700090E008958FEF9FEF0895FC01918D828D8F
:10118000981731F0828DE80FF11D858D90E008955C
:101190008FEF9FEF0895FC01918D228D892F90E0B4
:1011A000805C9F4F821B91098F739927089581E17D
:1011B00094E00E94CB0821E0892B09F420E0822FE3
:1011C0000895FC01A48DA80FB92FB11DA35ABF4FDC
:1011D0002C91848D90E001968F739927848FA68936
:1011E000B7892C93A089B1898C91837080648C938A
:1011F000938D848D981306C00288F389E02D808139
:101200008F7D80830895EF92FF920F931F93CF936A
:10121000DF93EC0181E0888F9B8D8C8D98131AC031
:10122000E889F989808185FF15C09FB7F894EE8918
:10123000FF896083E889F989808183708064808375
:101240009FBF81E090E0DF91CF911F910F91FF90C0
:10125000EF900895F62E0B8D10E00F5F1F4F0F7368
:101260001127E02E8C8D8E110CC00FB607FCFACF23
:10127000E889F989808185FFF5CFCE010E94E108D8
:10128000F1CFEB8DEC0FFD2FF11DE35AFF4FF082F4
:101290009FB7F8940B8FEA89FB8980818062CFCF5A
:1012A000CF93DF93EC01888D8823B9F0AA89BB899D
:1012B000E889F9898C9185FD03C0808186FD0DC088
:1012C0000FB607FCF7CF8C9185FFF2CF808185FFA9
:1012D000EDCFCE010E94E108E9CFDF91CF910895D3
:1012E0008F929F92AF92BF92CF92DF92EF92FF9236
:1012F0000F931F93CF93DF93EC016A017B0120E0F2
:1013000030E04FE753E4CB01B6010E94292B4B019B
:101310005C0120E030E0A9010E94F62D18168CF542
:10132000C501B4010E94682D8B01B98020E030E036
:10133000A901C701B6010E94F62D60E018160CF055
:1013400061E08B2D0E942B040F3F110509F0ECF496
:101350001127C88161E08C2F0E94B304011511058B
:10136000B9F460E08C2FDF91CF911F910F91FF9026
:10137000EF90DF90CF90BF90AF909F908F900C94A4
:101380002B04C501B4019058CDCF0FEF10E0E1CF91
:101390000F3F110511F461E0E5CFEC2FF0E0E95EBD
:1013A000FC4FE491E150E23108F0BCC0F0E0882746
:1013B000E352F64F8F4F0C946A2CEF09000A050A8E
:1013C0000F0A190A920A230A2B0A330A3D0A470A0E
:1013D000510A600A6A0A920A740A7E0A880A84B567
:1013E000806884BD07BDDF91CF911F910F91FF9061
:1013F000EF90DF90CF90BF90AF909F908F90089527
:1014000084B5806284BD08BDEECF80918000806885
:10141000809380001093890000938800E4CF80912E
:10142000800080628093800010938B0000938A007C
:10143000DACF8091800088608093800010938D00C7
:1014400000938C00D0CF8091B00080688093B00072
:101450000093B300C8CF8091B00080628093B00049
:101460000093B400C0CF809190008068809390007A
:101470001093990000939800B6CF809190008062FD
:101480008093900010939B0000939A00ACCF8091C2
:10149000900088608093900010939D0000939C00C2
:1014A000A2CF8091A00080688093A0008091A000CE
:1014B0008F7B8093A0001093A9000093A80093CF86
:1014C0008091A00080628093A0001093AB000093F5
:1014D000AA0089CF8091A00088608093A00010931B
:1014E000AD000093AC007FCF809120018068809395
:1014F0002001109329010093280175CF80912001CC
:1015000080628093200110932B0100932A016BCFFE
:101510008091200188608093200110932D01009319
:101520002C0161CF003811050CF035CF1ACF8EBDDC
:1015300000000DB407FEFDCF8EB508956F3FB1F0EA
:10154000E62FE295EF7044E0E49F90011124DC0166
:10155000ED91FC91E20FF31F6F70B8E06B9FC0013B
:10156000112462817381860F971F089590E080E0B7
:101570000895CF93DF93EC0188819981DC01ED918F
:10158000FC910190F081E02D19952A813B81820F19
:10159000931F9B838A83DF91CF910895982F803387
:1015A0006CF08A3324F08F3524F08B3724F481E0FB
:1015B000089581341CF081E09B350CF080E00895A3
:1015C000CF93DF93EC0188819981DC01ED91FC914F
:1015D0000280F381E02D19952A813B81820F931FB0
:1015E0009B838A83DF91CF9108958F929F92AF92D0
:1015F000BF92CF92DF92EF92FF920F931F93CF9300
:10160000DF93CDB7DEB766970FB6F894DEBF0FBE97
:10161000CDBF6C018E01095E1F4F78018AE0882ED4
:10162000912CA12CB12CCB01BA01A50194010E94EF
:10163000192C942F852F605DF80162938F01A90109
:10164000692F782F411551056105710561F7A701D3
:101650004E1B5F0BBF01C6010E94E00A66960FB6E3
:10166000F894DEBF0FBECDBFDF91CF911F910F91D8
:10167000FF90EF90DF90CF90BF90AF909F908F90B2
:101680000895CF92DF92EF92FF920F931F93CF9323
:10169000DF93EC018A85811130C00F8118850E948B
:1016A0002008D80118966D937D938D939C931B977A
:1016B000D801ED91FC910284F385E02DC8011995C4
:1016C00097FF25C00E942008F801C084D184E284DD
:1016D000F3846C197D098E099F09C480D580E6804A
:1016E000F7806C157D058E059F0510F38FEF9FEF3A
:1016F00097FD80E0898781E08A878985DF91CF9196
:101700001F910F91FF90EF90DF90CF900895992750
:10171000EFCF1F93CF93DF93EC01162F0E94410B65
:10172000811306C01A8681E0DF91CF911F91089541
:1017300080E0FACF0F931F93CF93DF938C01EB01DF
:101740008991882369F0C8010E94410B882379F0B0
:10175000FE013197908198130DC0F8011286F0CFE9
:1017600090E080E0DF91CF911F910F91089582E08A
:1017700090E0F8CF83E090E0F5CFCF93DF93EC01DA
:10178000CE010E94410B8B304CF489305CF48823ED
:1017900059F081E08E8390E080E00BC08D3011F035
:1017A0008032B9F71A86ECCF8E81811105C081E0B5
:1017B00090E0DF91CF91089582E090E0FACFDC01D4
:1017C000ED91FC91309731F094819F7781E019F091
:1017D00080E0089581E00895CF93DF93EC010297B4
:1017E00079F00E942C08D0933F03C0933E030E94DF
:1017F00020087093130360931203DF91CF91089533
:1018000010922005F0CFCF93DF93CBEED4E0688524
:1018100079858A859B85681B790B8C859D85681BDE
:10182000790B072E000C880B990B0E94CA2A28817D
:1018300039814A815B810E94292BDF91CF910895E4
:101840004F925F926F927F928F929F92AF92BF92D0
:10185000CF92DF92EF92FF920F931F93CF93DF937C
:10186000EB01DC012C912B32D9F12D32D1F501960F
:10187000FF24F394FC01208130ED320F3A3018F050
:101880002E3209F042C18C0160E070E0CB01F8011A
:10189000219130ED832E820E39E0381520F16A391E
:1018A00049E97407840749E1940738F5AAE0B0E0F4
:1018B0009B01AC010E94062C912CB12CA12C24017F
:1018C000350140945094609470944616570668060B
:1018D000790698F0680D791D8A1D9B1D8F01D7CF61
:1018E0000196F12CC7CF211108C0FF20E9F161302A
:1018F0007105810550E89507A0F0E12CBAE08B2E28
:10190000912CA12CB12C6115710530E8830791054C
:10191000B0F1A50194010E94192CCA01B901E39408
:10192000F2CF2C8120782A602C839B01AC01882780
:101930009927DC01821B930BA40BB50B8883998339
:10194000AA83BB838F2DDF91CF911F910F91FF90C1
:10195000EF90DF90CF90BF90AF909F908F907F904F
:101960006F905F904F9008952C81207828602C8391
:10197000688379838A839B83FF24F394E3CFF80100
:10198000D8012D918D0130ED320F3A3010F4E394EF
:10199000F6CF2E3201F58F010F5F1F4FF8010F5F59
:1019A0001F4F2081A0EDDA2ED20EB9E0BD1598F0C0
:1019B0006C3CECEC7E07ECE08E07910578F7AAE032
:1019C000B0E09B01AC010E94062C6D0D711D811DC4
:1019D000911DEA94E3CF20812F7D10E000E02534B3
:1019E00009F05BC021812D32D1F53296CC24C3940D
:1019F000DF0110E000E02E2D0E2C000C330B5AE01E
:101A0000B52EFD01DD9040ED4D0D4A3008F040C08F
:101A1000B09EA001B19E500D11240D2DDD0C110BB7
:101A200000531109040F151FA801420F531F47321D
:101A300051053CF38C81CC20C9F040E050E060E0DF
:101A400070E8F11003C040E050E0BA0180788C608B
:101A50008C83488359836A837B83FC2C73CF2B321E
:101A600019F03196C12CC4CF3296FCCF40E050E043
:101A700060E87FEFF11004C040E050E060E87FE7ED
:101A800080788C608C83488359836A837B8374CF8E
:101A9000CC2019F01195019511092081211135C033
:101AA0000E0D111DE7FC1A950E94C82A34E2C32EC0
:101AB00032E0D32E101611063CF011950195110954
:101AC0004CE0C42E42E0D42EE12C0115110591F01A
:101AD00000FF0CC024E0E29EF0011124EC0DFD1D7E
:101AE00025913591459154910E94292B1595079583
:101AF000E394EBCFF11090582C8120782C602C834C
:101B0000688379838A839B8337CFF12C1BCFCF9354
:101B1000DF9300D01F921F92CDB7DEB7FC019481F6
:101B20009F77963091F030F4943020F560E070E0CB
:101B3000CB0111C09A30B9F09C3051F19830B1F717
:101B4000608171818281938104C0608170E090E046
:101B500080E00E94C82A0F900F900F900F900F9076
:101B6000DF91CF91089560817181828193810E947C
:101B7000CA2AF1CF808191811D82BE016F5F7F4FA4
:101B800004960E94200CCE0101960E94870DE3CF9F
:101B90006081718182819381DECFFF920F931F93C9
:101BA000CF93DF93FC01C381D4810581168101802D
:101BB000F281E02D3097D9F0848186FF18C06596B8
:101BC0006081CE010E949E0A009789F0FC01F58099
:101BD00001151105A9F06F2DCE010E949E0A0097F4
:101BE00011F0FC01F58001501109009789F760E0C0
:101BF00070E0CB01DF91CF911F910F91FF9008957D
:101C0000DF91CF911F910F91FF900C94870DCF9290
:101C1000DF92EF92FF92CF93DF9300D01F921F923B
:101C2000CDB7DEB7FC0184818F778630D9F040F4E0
:101C30008430A9F1853009F43FC090E080E014C001
:101C40008A30F1F08C3009F43FC08830B1F78081E0
:101C50009181A281B381811520E89207A105B10588
:101C600060F702C0808190E00F900F900F900F906E
:101C70000F90DF91CF91FF90EF90DF90CF9008957C
:101C800080819181A281B381AC01BD0150586F4F19
:101C90007F4F411551056140710578F6E5CF808190
:101CA00091811D82BE016F5F7F4F0E94200CCE018B
:101CB00001960E94070ED8CF808191811D82BE01BE
:101CC0006F5F7F4F0496F1CFC080D180E280F380B8
:101CD00020E030E040E057ECC701B6010E94F62D4D
:101CE00087FDABCF20E03EEF4FEF56E4C701B601D2
:101CF0000E94C32A18160CF4A0CFC701B6010E9497
:101D0000682DCB01B1CFCF92DF92EF92FF92CF93AC
:101D1000DF9300D01F921F92CDB7DEB7FC01848104
:101D20008F778630C1F038F4843019F1853071F145
:101D300090E080E012C08A3021F08C3079F1883058
:101D4000B9F780819181A281B381009721E0A20738
:101D5000B10518F0EDCF808190E00F900F900F90BB
:101D60000F900F90DF91CF91FF90EF90DF90CF9089
:101D70000895808191811D82BE016F5F7F4F0E9417
:101D8000200CCE0101960E94830EE7CF80819181C5
:101D90001D82BE016F5F7F4F0496F1CFC080D1805E
:101DA000E280F38020E030E0A901C701B6010E9483
:101DB000F62D87FDBDCF20E03FEF4FE757E4C70189
:101DC000B6010E94C32A18160CF4B2CFC701B6019F
:101DD0000E946F2DCB01C1CFFC019289915084E00C
:101DE000989F90011124A089B189A20FB31F129668
:101DF000ED91FC9113973097E9F011962C91119782
:101E00008C912817B8F481E0820F11968C9388E0AA
:101E1000289FA0011124E40FF51F309759F0148278
:101E20008FEF858317821682BF01892F8295807F6D
:101E3000820F089560E070E08FEF0895DF92EF92D7
:101E4000FF920F931F93CF93DF93EC017B01D12C73
:101E5000688979898A89D816E0F484E0D89E80015F
:101E60001124060F171FD80112966D917C916115F0
:101E7000710541F0D701ED91FC910280F381E02DD5
:101E8000C7011995F8011382128210821182D3942E
:101E9000DFCF1A8A8FEF8C8BC617D70761F0D70177
:101EA000ED91FC910280F381E02DC7011995D98B4A
:101EB000C88B84E08B8BDF91CF911F910F91FF90A6
:101EC000EF90DF900895DB01ED91FC911197028076
:101ED000F381E02DBC01CD0119940F931F93CF9393
:101EE000DF93EC01088119818B819C81009749F077
:101EF000FC01208131813C832B83B8010E94630F58
:101F0000F3CF68817981CE010596DF91CF911F9142
:101F10000F910C941E0FCF93DF93EC01E881F981B0
:101F2000B0E0A0E03097F9F09F012C5F3F4F6217BF
:101F30007307A1F4928191509283911114C0808112
:101F40009181109741F08D939C93BA01CF01DF915D
:101F5000CF910C94630F99838883F7CFDF010190B1
:101F6000F081E02DDFCFDF91CF9108958F929F9286
:101F7000AF92BF92CF92DF92EF92FF920F931F9397
:101F8000CF93DF938C01EB01FC01848180FF0AC0B9
:101F900048815981608171816C5F7F4FCE010396CA
:101FA0000E948B0FF8018481807681F10115110563
:101FB00069F1D0805E01F5E1AF0EB11C4E0183E006
:101FC000880E911CEFEFDE16F1F06D2DC5010E9419
:101FD0009E0A7C01FC01C580848187FF07C048817F
:101FE000598166817781C4010E948B0FBE01C701B0
:101FF0000E94B60FF701848180788483898D858360
:10200000D98EDC2CDFCFF801D082D182DF91CF9145
:102010001F910F91FF90EF90DF90CF90BF90AF9006
:102020009F908F900895EF92FF920F931F93CF93FD
:10203000DF937C018B01EA016F3F710509F0B0F479
:10204000E881F9810480F581E02DAB014B5F5F4FA2
:10205000BC01CE011995009749F0FC010383DF9183
:10206000CF911F910F91FF90EF900895E881F98132
:102070000280F381E02DB701CE01199590E080E058
:10208000EECFFF920F931F93CF93DF93EC01F62EC9
:102090008A819B810097C9F06C817D81FC0123813D
:1020A0002617170691F408811981F80140815181A2
:1020B000660F771F6F5F7F4F0E941310009719F410
:1020C00021E0F80122839B838A838A819B81009788
:1020D00059F02C813D81A9014F5F5F4F5D834C8397
:1020E000820F931FFC01F482DF91CF911F910F911A
:1020F000FF9008959F92AF92BF92CF92DF92EF929E
:10210000FF920F931F93CF93DF9300D01F921F92E4
:10211000CDB7DEB78C010E94410BD82EF801128694
:10212000F12CE12C60EFC62EC8010E94410BF80192
:102130001286D81609F4B3C0811113C082E090E072
:102140000F900F900F900F900F90DF91CF911F91F4
:102150000F91FF90EF90DF90CF90BF90AF909F9046
:1021600008958C3509F099C0C8010E94410B88235D
:1021700029F3EBE4F2E0853709F083C0F801128619
:1021800054E0952EB12CA12CC8010E94410B88234C
:10219000A9F2813434F48053803130F083E090E050
:1021A000CFCF8F7D8753F8CF44E0AA0CBB1C4A9554
:1021B000E1F7A82AF80112869A949110E5CFC5019B
:1021C000985D8115944020F47501F3E0FF22ACCFB7
:1021D000C5019C5D81159440A8F483E0B822B70145
:1021E000762F6627770F770F6A297B2990E080E0AA
:1021F0000196603871058105910540F4C8010E947F
:10220000411092CFB50190E080E0F3CF1982262FE4
:102210002F7320682A8326E0969587957795679592
:102220002A95D1F76032710580F4606C6B835E0192
:10223000E4E0AE0EB11CF50162915F01662309F482
:1022400073CFC8010E944110F6CF262F2F7320684C
:102250002B8386E0769567958A95E1F76031710565
:1022600038F4606E6C835E01F5E0AF0EB11CE3CF15
:1022700060686C83CD825E0126E0A20EB11CDBCFCC
:1022800032969081992309F489CF8913F9CF8181FE
:10229000882309F483CFF8011286682FAFCF82819B
:1022A0009381892B19F484E090E04ACF90E080E09C
:1022B00047CFAF92BF92CF92DF92EF92FF920F93F0
:1022C0001F93CF93DF93DC011296ED91FC9113974E
:1022D00014968D919C911597E80FF91F14820D911A
:1022E0001C91119714966D917C91159712968D9172
:1022F0009C9113979C012C5F3F4FE801EB81FC817F
:102300007B01E20EF31E3097B9F0438146171706A2
:1023100079F45901AF014C5F5F4FEA14FB0499F166
:10232000E501C9905E01EA01D990AE01CD14A9F38F
:102330000190F081E02DE7CFED01F801408151815E
:102340000E941310FC01892B21F481E0D801129620
:102350008C93A881B98113968D919C911497918348
:1023600080831496FC93EE9313971B821A82CF01FD
:10237000DF91CF911F910F91FF90EF90DF90CF9061
:10238000BF90AF90089582818F5F8283F0CF2F92AC
:102390003F924F925F926F927F928F929F92AF92F5
:1023A000BF92CF92DF92EF92FF920F931F93CF9342
:1023B000DF9300D000D0CDB7DEB77C017C836B8388
:1023C0000B969E838D83D70116969C911697179630
:1023D0008C91179799838A836D907C9011976114E3
:1023E000710409F44CC119964C9150E0F3018481B9
:1023F000958184179507A8F0808191E09093E1037F
:10240000809303041092E2031092040420E0BE01C2
:102410006F5F7F4FC3010E943107D12CC12C811106
:102420001AC080E026960FB6F894DEBF0FBECDBF6F
:10243000DF91CF911F910F91FF90EF90DF90CF90A0
:10244000BF90AF909F908F907F906F905F904F90D4
:102450003F902F900895D30114968D919C9102E0A6
:1024600010E00C191D098017910708F48C01F30185
:1024700050800E941C064B015C018091DB0381119E
:1024800076C0B02EF0E2F01710F440E2B42E81E0F6
:102490008093DB0321E082E090E0801B910BC81663
:1024A000D90608F420E02093DA039FEF9093D90334
:1024B0001092D8038FEF8B0D8093D703A1E0A093E8
:1024C000B6038091B603550C582A5092B6038091FA
:1024D000B503813009F093C01092B5030E941C0629
:1024E0001B012C018091B6038093BB008091DD031A
:1024F0009091DE03A091DF03B091E003892B8A2B3A
:102500008B2BA1F00E941C062091DD033091DE038D
:102510004091DF035091E003621973098409950922
:10252000261737074807590708F442C08091BC00B6
:1025300083FDD8CFB5ECB093BC000E941C061B01F4
:102540002C018091DB03813009F45DC08091D803B8
:102550008B1510F4B090D803A7EBB3E0EFE8F3E0ED
:1025600080E08B1551F19D9191938F5FFACF80910F
:10257000DD039091DE03A091DF03B091E003892B8E
:102580008A2B8B2B09F479CF0E941C062091DD0346
:102590003091DE034091DF035091E003681979091F
:1025A0008A099B09261737074807590708F065CF9E
:1025B0008091DC030E949204B12C1092B403B0927B
:1025C000B303B016110609F02CCF8D809E808C0CC1
:1025D0009D1C5401C5018819990980179107A8F518
:1025E000D30111968D919C91DC01ED91FC910284B7
:1025F000F385E02D1995F50181935F01EBCFE5EEB1
:10260000E093BC009ACF8091DD039091DE03A0910E
:10261000DF03B091E003892B8A2B8B2B09F491CF38
:102620000E941C062091DD033091DE034091DF0300
:102630005091E00362197309840995092617370739
:102640004807590708F07DCFB3CFC00ED11EF2E086
:10265000CF16D10408F4FFCEF7018285811142C064
:10266000848590E0982F8827AB81BC8111969C933C
:102670008E932385822B8D939C9381E0D3CE1296EB
:10268000ED91FC911397309709F4CBCE14962D91D0
:102690003C91159719964C9150E02330310591F4F7
:1026A000816089839A834F5F5F4F02E010E02D8144
:1026B0003E81BE016F5F7F4FCF010E94A505811152
:1026C000CBCFB0CE2115310519F490689983EDCFA9
:1026D0002230310511F49F77F9CF2130310529F7E8
:1026E000906CF4CF838590E0982F8827AB81BC81D4
:1026F00011969C938E932485BDCFAB01BC0170587D
:1027000082E795E00C947009FC0101900020E9F744
:102710003197AF01481B590BBC0181E194E00C9447
:102720006A08DF92EF92FF920F931F93CF93DF938C
:102730006115710561F460E070E08FEF9D2DDF9110
:10274000CF911F910F91FF90EF90DF9008958A0134
:10275000EB01DC01FC900B5E1F4F6F2DC8010E9446
:102760009E0A009741F3FC01E580009721F3068063
:10277000F781E02DDE010D900020E9F79D01215049
:1027800031092C1B3D0BB0E0A0E0309739F0DF01A0
:102790000D900020E9F71197AE1BBF0B2A173B07DE
:1027A00051F4DE012C0F3D1FA217B30769F05D91B4
:1027B00041915417C9F36E2DC8010E949E0A0097DB
:1027C00009F4B9CFFE2CCFCFBC018F2DDE2CB6CFB4
:1027D000FC014081518162817381CA014A9641F0B6
:1027E000FA01268D25FF04C00E949113CB010895A4
:1027F00090E080E008950F931F93CF93DF93FC0147
:10280000C181D2810581168101960E94E81300974B
:1028100081F0FC01248125FF0CC0AE01B8010E94AB
:1028200091139B01B901CE01DF91CF911F910F91BF
:10283000089530E020E0F6CFFB0101900020E9F799
:102840003197AF01461B570B0C94E00A1F93CF93AF
:10285000DF93EBE4F2E01281112379F032962181CB
:102860006213F9CFEC016CE50E94B90A612FCE0129
:10287000DF91CF911F910C94B90A6111F9CF6CE5EA
:1028800072E0DF91CF911F910C941C14CF92DF92D4
:10289000EF92FF920F931F93CF93DF938C016B0105
:1028A0007A0162E20E94B90AE601EC0CFD1CCE1529
:1028B000DF0529F06991C8010E942614F8CF62E271
:1028C000C801DF91CF911F910F91FF90EF90DF90A2
:1028D000CF900C94B90A2F923F924F925F926F92D1
:1028E0007F928F929F92AF92BF92CF92DF92EF92A0
:1028F000FF920F931F93CF93DF93CDB7DEB76C9703
:102900000FB6F894DEBF0FBECDBF8C011B01DC01FA
:1029100014968C9114978F77883009F4B2C2E8F43A
:10292000843009F469C248F4833009F49FC263E635
:1029300072E0C1010E941C141CC2853009F470C2EF
:102940008630A9F78C9168E672E0811102C06DE6CD
:1029500072E0C1010E941C146DC28C30F1F1C8F408
:102960008A3029F7CD90DD90ED90FC90B701A6015B
:10297000F7FE0BC06DE2C1010E94B90A442755273A
:10298000BA014C195D096E097F09C1010E94F50A5F
:1029900051C2803209F4F7C1803449F66BE5C101B8
:1029A0000E94B90AF80110811F3F09F4E7C1D10163
:1029B00014968D919C91612F45960E949E0A8C01E0
:1029C000B1010E946B14F80115811F3F09F4D6C1B3
:1029D0006CE2C1010E94B90AE7CFF801C080D18042
:1029E000E280F380A7019601C701B6010E94C32AC5
:1029F00081119DCF20E030E0A901C701B6010E94FE
:102A0000C32A882379F0A7019601C701B6010E9465
:102A1000732C9B01AC01C701B6010E94C32A882315
:102A200009F485CF20E030E0A901C701B6010E947A
:102A3000C32A87FF08C06DE2C1010E94B90AF7FAF4
:102A4000F094F7F8F09420E836E948E15BE4C70138
:102A5000B6010E94F62D87FD88C074E1A72EB12C27
:102A600000E210E0188E1F8AF501EC5DFD4F259104
:102A7000359145915491C701B6010E94F62D87FD0D
:102A800013C0F501E45FFD4F2591359145915491B7
:102A9000C701B6010E94292B6B017C012F89388D5B
:102AA000200F311F388F2F8B1595079534E0A31A0F
:102AB000B1088CEFA8168FEFB806B1F655245A94DA
:102AC00020E030E0A901C701B6010E94F62D1816DA
:102AD0000CF052C02CEA35EC47E257E3C701B601CF
:102AE0000E94C32A18160CF447C0A52DB4E0AB020F
:102AF000C0011124B12CA12CFC01E45FFD4F3F016A
:102B00009C012C5D3D4F49013FEF531609F434C041
:102B1000F301EA0DFB1D659175918591949120E07B
:102B200030E040E251E40E94292BA70196010E9467
:102B3000F62D18169CF4F401EA0DFB1D2591359134
:102B400045915491C701B6010E94292B6B017C016C
:102B50008F89988D801B910B988F8F8B159507957A
:102B60005A9494E0A91AB108CFCF00E210E055E0E2
:102B7000552E188E1F8AA4CFC701B6010E946F2D53
:102B80004B015C012B013C0106E080E492E4AFE0E4
:102B9000B0E0898F9A8FAB8FBC8F102F01509AE0D5
:102BA0004916510461047104C8F0698D7A8D8B8DCA
:102BB0009C8D2AE030E040E050E00E94192C298FE3
:102BC0003A8F4B8F5C8FC301B2012AE030E040E0C6
:102BD00050E00E94192C29013A01DFCFC501B40150
:102BE0000E94C82A9B01AC01C701B6010E94722C49
:102BF0006B017C01698D7A8D8B8D9C8D0E94C82A1A
:102C00009B01AC01C701B6010E94292B2B013C019D
:102C10000E946F2D6B017C010E94C82A9B01AC01B0
:102C2000C301B2010E94722C9B01AC010E94732C63
:102C30000E946F2DC60ED71EE81EF91E898D9A8D33
:102C4000AB8DBC8DC816D906EA06FB06D8F09FEFFF
:102C5000891A990AA90AB90AAF89B88DAB2B39F13B
:102C6000BAE08B169104A104B10408F1EF89F88D44
:102C70003196F88FEF8BC12CD12C7601812C912CC1
:102C8000540183942AE0422E512C612C712CC701EF
:102C9000B601A30192010E94192C672B682B692BA6
:102CA00051F4111644F469017A011150F0CFC12C8E
:102CB000D12C7601E7CFB501A401C1010E94F50A2C
:102CC000112371F14E01F1E18F0E911C012F54017E
:102CD0009AE0492E512C612C712C015068F0C701EB
:102CE000B601A30192010E94192C605DD4016E937C
:102CF0004D0169017A01F1CF812F90E0BC0160950F
:102D00007095F501E81BF90B31978EE2808344271B
:102D10005527461B570B6A0D7B1DC1010E94E00A17
:102D2000EF89F88DEF2B29F165E6C1010E94B90A00
:102D30000F89188D17FF07C06DE2C1010E94B90A03
:102D4000119501951109FE0177969F018AE0E82E01
:102D5000F12CC801B7010E94562C805D82938B0133
:102D6000672BB9F7A9014E1B5F0BBF01C1010E9480
:102D7000E00AD10112968D919C915FC06DE5C10171
:102D80000E94B90AF6CF6BE7C1010E94B90AF801A7
:102D900010811F3F79F1D10114968D919C91612F83
:102DA00045960E949E0A8C01FC01C680D78062E293
:102DB000C1010E94B90A7601D7016D917D01662398
:102DC00021F0C1010E942614F7CF62E2C1010E94E6
:102DD000B90A6AE3C1010E94B90AB101C8010E949F
:102DE0006B14F80115811F3F29F06CE2C1010E94AC
:102DF000B90ACFCF6DE7C3CFF8016081718150E090
:102E000040E06115710541F0FB0101900020E9F7F8
:102E10003197AF01461B570BC1010E944614A9CF41
:102E2000ED91FC91438150E0BF016C5F7F4FC10188
:102E30000E944614F101828193816C960FB6F8943A
:102E4000DEBF0FBECDBFDF91CF911F910F91FF90DD
:102E5000EF90DF90CF90BF90AF909F908F907F903A
:102E60006F905F904F903F902F900895ED91FC915F
:102E7000438150E0BF016C5F7F4FC1010E94E00AB7
:102E8000D9CF4D915D916D917C917FCD85ED8093F2
:102E9000BC008091DD039091DE03A091DF03B0912F
:102EA000E0030796A11DB11D23E0B695A795979560
:102EB00087952A95D1F72091BC0024FD03C010927C
:102EC000DB0308954091DD035091DE036091DF0341
:102ED0007091E003452B462B472B69F30097A10522
:102EE000B10541F02AE22A95F1F700C00197A10946
:102EF000B109E1CF8091DC030C949204CB010C94D6
:102F0000FB2DCB010C94972E8F929F92AF92BF9284
:102F1000CF92DF92EF92FF920F931F93CF93DF93A5
:102F20006C018B01DB015996FC90BFEFFB1621F180
:102F30006F2DC80145960E949E0AEC018D81F80113
:102F4000818F209709F496C01C828FEF8D831F829A
:102F50001E82D60111966C916F3F09F49FC0C80183
:102F600045960E949E0AFC01F582D6011196FC92BC
:102F7000BE018F2D9D8084C05B01F5E0AF0EB11CBA
:102F8000DB01ED90FC90119757968C91882349F0C6
:102F9000C5010E94EC0EC62FD72F209711F0F82EF6
:102FA000D8CFF801C789908DC91325C0C03109F465
:102FB00061C0CC0F65897689D701ED91FC91B4E0B1
:102FC000CB9FA0011124A616B70609F04BC00190B3
:102FD000F081E02DBA01C7011995009709F44AC0A4
:102FE00020E1F501DC0101900D922A95E1F7F8014D
:102FF000968B858BC08FD8015596CD91DC915697D5
:1030000057968C91579721E0280F57962C93B4E050
:103010008B9FC0011124C80FD91F90E1892E203148
:1030200011F48FE0882EE8E08E9EB0011124D701C4
:10303000ED91FC910190F081E02DC70119959B83E2
:103040008A83892B09F4812C88821982CD2B91F0F7
:10305000C5010E94EC0EC62FD72FF82E209709F03D
:1030600078CF08C00480F581E02DC701199500973D
:1030700009F0BDCF81E0F801828360E070E08FEF5E
:10308000992DDF91CF911F910F91FF90EF90DF90DD
:10309000CF90BF90AF909F908F900895F601F082EF
:1030A000F18266CF8F929F92AF92BF92CF92DF92C2
:1030B000EF92FF920F931F93CF93DF93EC018B015D
:1030C000D42E0E94BD0B7C01892B09F047C0CE0194
:1030D0000E94410B863609F452C124F5873229F04B
:1030E0008B3561F1823209F053C11D821C828A81C5
:1030F0009B81892B31F4888199810E9469029B838D
:103100008A83CE010E947A107C01892B39F5CE0189
:103110000E945911F801248120782560248391832D
:1031200080831CC0843709F412C18B3709F45BC05B
:103130008E3609F02DC163E672E012C1F801848178
:103140008078806484830115110519F08FEF8083E6
:103150008183D11011C025E0E22EF12CC701DF914F
:10316000CF911F910F91FF90EF90DF90CF90BF9084
:10317000AF909F908F9008951A86CE010E94BD0B4C
:10318000009709F085C06DE5CE010E94890B811181
:10319000E5CFDA946B857C85C8010E9484176115A0
:1031A000710521F484E0E82EF12CD8CF4D2DCE010D
:1031B0000E945218009709F06BC0CE010E94BD0B0F
:1031C000009709F065C06DE5CE010E94890B811161
:1031D000C5CF6CE2CE010E94890B8111DBCF93E059
:1031E000E92EF12CBBCFF801848180788062848342
:1031F0000115110519F08FEF80838183DD2009F41B
:10320000AACF1A86CE010E94BD0B009709F040C0DC
:103210006DE7CE010E94890B8111A0CFBB24BA9427
:10322000BD0C1D821C828A819B81892B31F488818F
:1032300099810E9469029B838A83CE010E94410B7F
:103240008732E1F08232D1F0CE010E94410BD82EBC
:103250000E94CE0A882319F21A866D2DCE010E9493
:103260004110CE010E94410BD82E0E94CE0A81113E
:10327000F3CF8A819B81892B31F494CFCE010E94B8
:103280007A10009729F4CE010E94BD0B009711F02F
:103290007C0164CF6AE3CE010E94890B882309F484
:1032A0009ECFEA81FB818C819D81E80FF91F1482FA
:1032B0004B855C856A817B816C5F7F4FC8010E9472
:1032C0009113CB016B01672BC9F5CE010E945911F7
:1032D0004C016B857C85C8010E9484176B016115C8
:1032E000710509F45FCFFB01848180688483F4E079
:1032F0008F0E911CF601978286824B2DB601CE016E
:103300000E945218009721F6CE010E94BD0B009733
:1033100009F0BECF6DE7CE010E94890B81111ECF4F
:103320006CE2CE010E94890B882309F458CFCE01AC
:103330000E94BD0B009709F474CFAACF6B857C85E2
:103340000E94B60FF601848180788483D6CFF8017D
:10335000848180788660848381E0808368E672E07F
:10336000CE01DF91CF911F910F91FF90EF90DF90F1
:10337000CF90BF90AF909F908F900C949A0BF801D4
:10338000848180788660848310826DE672E0E8CF65
:10339000CE010E94410B5E01FDE0AF0EB11CD12CAD
:1033A0009A2CCB2C803374F08A3374F49FE3D916B3
:1033B00099F01A86D394F50181935F01CE010E94A2
:1033C000410BF0CF8B3291F393ED980F923070F365
:1033D000982F9F7D953451F3CD0DD11D1D86B801D9
:1033E000892D9C2D0E94200C8111B8CEF8CE8F9291
:1033F0009F92AF92BF92CF92DF92EF92FF920F9384
:103400001F93CF93DF93CDB7DEB7CE57D1090FB659
:10341000F894DEBF0FBECDBF8E01025B1F4F81E06F
:1034200092E0F80191838083128214821382C80192
:103430000596968B858B178A24E0208F2FEF218F9E
:10344000168EED961FAE1EAEED97EF961FAE1EAE1A
:10345000EF9761E072E00E941E0FF8011282E08097
:10346000F180F80183819481009751F0FC01208163
:103470003181F80134832383B7010E94630FF1CFB8
:10348000168E1A8309831C821B821E821D821F8254
:1034900081E194E0998788871B861D870C874AE025
:1034A000B801665E7F4FCE0101960E9452187C01E2
:1034B000892B51F48A85882339F0F801868D83FFA2
:1034C00003C043E0E42EF12C8B819C81009731F006
:1034D000E981FA81608171810E94630FE114F10436
:1034E00051F183E792E00E948413F701EE0FFF1F72
:1034F000E55EFD4F80819181009711F00E94841359
:103500008AE892E00E948413C8010E946D0FC2589D
:10351000DF4F0FB6F894DEBF0FBECDBFDF91CF9166
:103520001F910F91FF90EF90DF90CF90BF90AF90E1
:103530009F908F9008951A8309838DE892E09C8371
:103540008B83CE0101960E94E813ED969FAF8EAF5C
:10355000ED97EF961FAF0EAFEF97CE0185589F4FB7
:103560000E94DF0B81115EC010922005EF968CAD9A
:103570009DADAEADBFADEF97E9968CAF9DAFAEAF51
:10358000BFAFE99782E090E0EB969FAF8EAFEB97ED
:10359000CE018C589F4F0E94CD0D6B017C01EF96A0
:1035A0008CAD9DADAEADBFADEF97E2968CAF9DAF4C
:1035B000AEAFBFAFE29781E090E0E4969FAF8EAFF1
:1035C000E497CE0183599F4F0E94CD0D4B015C01C2
:1035D000EF968CAD9DADAEADBFADEF978A839B836B
:1035E000AC83BD831F821E82CE0101960E94CD0D49
:1035F00060930A0570930B0580930C0590930D055D
:1036000080920E0590920F05A0921005B0921105C0
:10361000C0921205D0921305E0921405F0921505A0
:103620000E942C081A83098326E9E22E22E0F22E5A
:10363000FC82EB82CE0101960E94E813ED969FAFCB
:103640008EAFED97CE0185589F4F0E94DF0B811101
:1036500064C01B830A83FD82EC8288E992E09F8329
:103660008E83CE0101960E94FB13EF966CAF7DAF67
:103670008EAF9FAFEF97CE0185589F4F0E94DF0B13
:10368000811142CFED968EAD9FADED97009709F475
:1036900070C00E94830E90931503809314031B83C4
:1036A0000A8386E992E09D838C8382EA92E09F837D
:1036B0008E83CE0101960E94FB13EF966CAF7DAF17
:1036C0008EAF9FAFEF97CE0185589F4F0E94DF0BC3
:1036D00081111ACF96E1C92E93E0D92EF12CE12C5D
:1036E000EF968CAD9DADAEADBFADEF978A839B835A
:1036F000AC83BD83FF82EE82CE0101960E94CD0D88
:10370000F60161937193819391936F01FFEFEF1A2B
:10371000FF0A8AE0E816F10419F71A83098387EA99
:10372000E82E82E0F82EFC82EB82CE0101960E9408
:10373000E813ED969FAF8EAFED97EF961FAF0EAFEC
:10374000EF97CE0185589F4F0E94DF0B8111DCCE91
:103750001A830983FC82EB82CE0101960E94E81352
:10376000009751F00E94070E90933F0380933E0311
:10377000CBCE90E080E08FCF90E080E0F5CF0E944C
:10378000D70881110E94F71980E090E0892B49F059
:1037900080E090E0892B29F00E94000081110E94B6
:1037A000000080E090E0892B49F080E090E0892BD8
:1037B00029F00E94000081110E94000080E090E04A
:1037C000892B49F080E090E0892B29F00E940000CD
:1037D00081110C9400000895EF92FF920F931F93B4
:1037E000CF93DF93FC01E080F1808701065E1F4FDD
:1037F00021F1C281D381209751F1F701868D982F55
:103800009F7719F580788062868F8FEF828F838F04
:10381000A701BE01C8010E949113FB01309761F41A
:10382000B701C8010E948417FB01309729F08481F9
:103830008F778483D783C6838F01C801DF91CF91AF
:103840001F910F91FF90EF90089585FDE1CF10E05B
:1038500000E0F3CFAF92BF92CF92DF92EF92FF9250
:103860000F931F93CF93DF938C017B01DC01AD900D
:10387000BC900E94EC1BEC01009781F0F701C08026
:10388000D180E280F380B5010E94B60F8C818078F0
:103890008C608C83C882D982EA82FB82D801ED9148
:1038A000FC9180E0309719F0828191E08927DF91C7
:1038B000CF911F910F91FF90EF90DF90CF90BF902D
:1038C000AF900895CB01BA010C94202F1F920F9254
:1038D0000FB60F9211240BB60F922F933F934F9375
:1038E0005F936F937F938F939F93AF93BF93EF9368
:1038F000FF938091B900887F803609F44DC008F0AD
:1039000040C0883209F4A9C028F5803109F49DC06F
:10391000C8F4882309F4FBC0883009F496C0FF91ED
:10392000EF91BF91AF919F918F917F916F915F9137
:103930004F913F912F910F900BBE0F900FBE0F90A4
:103940001F901895883109F488C0803241F7809320
:10395000D90314C0803409F49DC040F48033B9F316
:103960008833E9F68093D90385ECB0C0803509F43B
:1039700085C0883509F496C0883489F60E944617B8
:10398000CECF883909F48CC038F5883729F050F447
:10399000883611F0803719F683E08093DB031092AC
:1039A0008E0357C0883809F47BC0803919F08038FD
:1039B00009F0B5CF80918E03803208F071C0E0919C
:1039C0008E0381E08E0F80938E038091BB00F0E028
:1039D000E259FC4F80833DC0803B39F0E0F4803AEF
:1039E00009F479C0883A09F09ACF84E08093DB0328
:1039F00010926D0310926C03E091AF03F091B0034D
:103A0000199580916C0381110FC081E080936C0344
:103A100010924C0309C0803C09F4A6CF883C09F4FD
:103A2000A3CF883B09F07BCFE0916D0381E08E0F3F
:103A300080936D03F0E0E45BFC4F80818093BB00DA
:103A400090916D0380916C0329C08091B60380939F
:103A5000BB0085EC8093BC0062CF9091D80380912D
:103A6000D703981758F5E091D80381E08E0F809323
:103A7000D803F0E0E954FC4F8081E9CFE091D8030E
:103A800081E08E0F8093D8038091BB00F0E0E95471
:103A9000FC4F80839091D8038091D7039817C8F288
:103AA00085E8D8CFE091D80381E08E0F8093D803CA
:103AB0008091BB00F0E0E954FC4F80838091DA03F1
:103AC00081115CCF81E08093B50384EA8093BC00D0
:103AD0001092DB0324CF85EC8093BC001092DB03B3
:103AE00080918E03803230F4E0918E03F0E0E25951
:103AF000FC4F108260918E0370E0E091B103F09171
:103B0000B2038EE693E0199510928E0308CF1092BF
:103B1000D90334CF1F920F920FB60F9211242F9317
:103B20003F938F939F93AF93BF9380914303909163
:103B30004403A0914503B09146033091420323E032
:103B4000230F2D3758F50196A11DB11D2093420377
:103B50008093430390934403A0934503B09346039B
:103B60008091470390914803A0914903B0914A0383
:103B70000196A11DB11D8093470390934803A09324
:103B80004903B0934A03BF91AF919F918F913F91A9
:103B90002F910F900FBE0F901F90189526E8230FBE
:103BA0000296A11DB11DD2CF1F920F920FB60F9298
:103BB00011240BB60F922F933F934F935F936F9304
:103BC0007F938F939F93AF93BF93EF93FF938091D6
:103BD0000D0390910E03A0910F03B0911003892B58
:103BE0008A2B8B2BD1F190910C03809100008927B7
:103BF0008093000080910D0390910E03A0910F031C
:103C0000B0911003181619061A061B069CF4809131
:103C10000D0390910E03A0910F03B0911003019733
:103C2000A109B10980930D0390930E03A0930F0394
:103C3000B0931003FF91EF91BF91AF919F918F913E
:103C40007F916F915F914F913F912F910F900BBE9C
:103C50000F900FBE0F901F90189580910002ECE31B
:103C6000F2E0E4919FEF90930002E230E9F040F43B
:103C7000EE2389F0E13091F060E00E942B04DACF6E
:103C8000E43049F110F1E530B9F7909173009D7F70
:103C900090937300F1CF10926E00EECF90916F0071
:103CA0009D7F90936F00E8CF909170009D7F9093DF
:103CB000700091E09093B0009091B100987F946073
:103CC0009093B1001092B300D7CF909171009D7F77
:103CD00090937100D1CF909172009D7F909372006C
:103CE000CBCF1F920F920FB60F9211240BB60F92EB
:103CF0002F933F934F935F936F937F938F939F93F4
:103D0000AF93BF93EF93FF9381E194E00E94E108AA
:103D1000FF91EF91BF91AF919F918F917F916F91A3
:103D20005F914F913F912F910F900BBE0F900FBE5F
:103D30000F901F9018951F920F920FB60F9211249B
:103D40000BB60F922F938F939F93EF93FF93E09176
:103D50002104F09122048081E0912704F09128044D
:103D600082FD1DC0908180912A048F5F8F73209106
:103D70002B04821741F0E0912A04F0E0EF5EFB4F44
:103D8000958F80932A04FF91EF919F918F912F91AE
:103D90000F900BBE0F900FBE0F901F901895808153
:103DA000F2CF1F920F920FB60F9211240BB60F9203
:103DB0002F933F934F935F936F937F938F939F9333
:103DC000AF93BF93CF93DF93EF93FF9380910B0358
:103DD000C091EA04D0E087FF23C0109285001092C2
:103DE000840080910B038F5F80930B0380910B0302
:103DF000082E000C990B8C179D0724F480910B035F
:103E00008C3074F1809184009091850084349C49B9
:103E100008F465C08091840090918500049661C08B
:103E200080910B03082E000C990B8C179D07CCF684
:103E300030910B0325E03203F0011124E255FB4FD2
:103E4000808186FFCECF30910B033203F001112425
:103E5000E255FB4F808160E08F730E942B04C1CF3D
:103E6000809184009091850030910B0325E032030E
:103E7000F0011124E255FB4F41815281840F951FBF
:103E8000909389008093880030910B033203F001F6
:103E90001124E255FB4F808186FF0CC030910B034B
:103EA0003203F0011124E255FB4F808161E08F73F2
:103EB0000E942B04FF91EF91DF91CF91BF91AF91C1
:103EC0009F918F917F916F915F914F913F912F9132
:103ED0000F900BBE0F900FBE0F901F90189580E4AF
:103EE0009CE990938900809388008FEF80930B0367
:103EF000E1CF0F931F93109208041092070488EEED
:103F000093E0A0E0B0E08093090490930A04A093AA
:103F10000B04B0930C042BE232E0309306042093A0
:103F200005041092140410921304809315049093C6
:103F30001604A0931704B09318048DE392E09093B5
:103F400012048093110485EC90E090931E048093FA
:103F50001D0484EC90E09093200480931F0480EC77
:103F600090E0909322048093210481EC90E0909360
:103F700024048093230482EC90E0909326048093A1
:103F8000250486EC90E090932804809327041092F7
:103F90002A0410922B0410922C0410922D048DEC04
:103FA0009CECACECBEE38093A4059093A505A09394
:103FB000A605B093A7058DEC9CECACE4BEE3809322
:103FC000A8059093A905A093AA05B093AB0543E378
:103FD00053E363E37FE34093AC055093AD056093F7
:103FE000AE057093AF050DEC1CEC2CEC3DE300939B
:103FF000B0051093B1052093B2053093B3054093FB
:10400000940550939505609396057093970580935A
:10401000980590939905A0939A05B0939B0540E06D
:1040200050E060E87FE340939C0550939D056093CA
:104030009E0570939F051092A0051092A105109205
:10404000A2051092A3054DEC5CEC6CE47DEB409373
:10405000840550938505609386057093870580934A
:10406000880590938905A0938A05B0938B058DEC04
:104070009CECACE4BDE380938C0590938D05A093FC
:104080008E05B0938F0510929005109291051092B5
:104090009205109293058CE08093560584E28093FC
:1040A000570585E08093580596E0909359059EE169
:1040B00090935A059FE190935B0592E290935C0583
:1040C00093E290935D0594E490935E0595E490935C
:1040D0005F05109261051092600590E4909363056E
:1040E000109268051092690510926A0510926B058E
:1040F00010926C0510926D0510926E0510926F056E
:1041000098E0E9E0F2E0A8E7B5E001900D929A9519
:10411000E1F740E050E060EA70E44093800550939E
:1041200081056093820570938305E091EA04EC3089
:1041300008F0D2C091E09E0F9093EA04E0935505F9
:104140008E9FF0011124E255FB4F88EB9BE0928398
:10415000818388E68093460510920A0510920B052C
:1041600010920C0510920D0510920E0510920F057D
:10417000109210051092110510921205109213055D
:10418000109214051092150510921705109216053D
:10419000109219051092180510921B0510921A051D
:1041A00010921C0510921D0510921E0510921F05FD
:1041B000109220051092210510922E0510922F05C5
:1041C000109230051092310510923205109233058D
:1041D000109234051092350580E090E0A0EAB0E43A
:1041E0008093360590933705A0933805B093390531
:1041F00080E090E0A8ECB2E480933A0590933B0510
:10420000A0933C05B0933D0510923E0510923F05EA
:1042100010924005109241051092420510924305FC
:104220001092440510924505E091EA04EC3008F044
:1042300057C081E08E0F8093EA04E093090585E082
:10424000E89FF0011124E255FB4F88EB9BE092833D
:10425000818384EE9BECA6E1B0EC8093F90490930B
:10426000FA04A093FB04B093FC0484EE9BECA6E15B
:10427000B0E48093FD049093FE04A093FF04B093F8
:10428000000510920105109202051092030510928C
:1042900004058EE293EEADE4B8E38093EB049093D3
:1042A000EC04A093ED04B093EE041092EF0410928E
:1042B000F0041092F1041092F2041092F40410929F
:1042C000F3041092F6041092F5041092F804109280
:1042D000F7041F910F9108958FEF8093550539CF03
:1042E0008FEF80930905B5CFCF93DF93CDB7DEB7BE
:1042F000C954D1090FB6F894DEBF0FBECDBF789474
:1043000084B5826084BD84B5816084BD85B58260DA
:1043100085BD85B5816085BD80916E00816080938B
:104320006E001092810080918100826080938100F4
:104330008091810081608093810080918000816004
:10434000809380008091B10084608093B10080915F
:10435000B00081608093B000809191008260809372
:1043600091008091910081608093910080919000F4
:104370008160809390008091A10082608093A10071
:104380008091A10081608093A1008091A000816054
:104390008093A0008091210182608093210180910F
:1043A00021018160809321018091200181608093AF
:1043B000200180917A00846080937A0080917A0055
:1043C000826080937A0080917A00816080937A0085
:1043D00080917A00806880937A001092C100E09109
:1043E0002104F091220482E08083E0911D04F09189
:1043F0001E041082E0911F04F091200480E180836C
:1044000010922904E0912504F091260486E080832F
:10441000E0912304F0912404808180618083E09105
:104420002304F0912404808188608083E091230438
:10443000F0912404808180688083E0912304F091CE
:10444000240480818F7D808361E0809157050E94E4
:10445000B30460E0809157050E942B0460E08091D6
:1044600056050E94B3048091600590916105892BE7
:10447000A9F486E090E00E94FB2DFC018091630589
:10448000808385E094E092838183138280E290E0D0
:1044900095838483F0936105E0936005E090600567
:1044A000F09061051092B4031092B3031092E203EE
:1044B000109204040E9474048CEE92E09093B00376
:1044C0008093AF038DEE92E09093B2038093B1039B
:1044D00011E0D70113961C93C7010E94E7078823B8
:1044E00009F45BC080E090E1A0E0B0E08093640557
:1044F00090936505A0936605B09367058AE090E008
:10450000A0E0B0E08093680590936905A0936A05E8
:10451000B0936B0580E090E0A0E0B0E480936C0580
:1045200090936D05A0936E05B0936F058091600523
:10453000909161051FA618AA19AA1AAA99A388A37F
:104540001BA21AA219A785E090E09FA38EA31AA729
:1045500002E008A740E050E160E070E0CE01809604
:104560000E944F078091600590916105188A198A11
:104570001A8A1B8A9A8389831C821B821A8718864F
:104580001F821B8709874FE959E360E070E0CE0185
:1045900001960E944F078093620578E5E72E75E04B
:1045A000F72E06E515E0E0EC6E2EE2E07E2EF6E05A
:1045B0008F2EF3E09F2EABECCA2EA7E0DA2EBBE8DD
:1045C000AB2EBB24B394F7019281D7018D917D016D
:1045D000F801828F938F61E00E94B30461E0D801FB
:1045E0005B968C910E94B304F70195818381D80179
:1045F0005E968C935E975F969C9361E00E94B304F5
:1046000060E0F801878D0E94B30461E0D8015E96F6
:104610008C910E942B045FB6F89480911103811154
:1046200025C0F3018491F4019491E82FF0E0EE0F9E
:10463000FF1FE35CFD4FA591B4918C91982321F469
:1046400061E085E30E942B0461E085E30E94B304EE
:104650008CB580618CBD8CB580648CBD61E084E3D9
:104660000E94B30461E083E30E94B30480911103CC
:104670008F5F809311035FBEC6010197F1F760E081
:10468000D8015E968C910E942B0488E80E94970ABC
:1046900083E00E94970A61E0F801868D0E942B0456
:1046A000C6010197F1F760E0D8015E968C910E94F7
:1046B0002B0488E90E94970A80E00E94970A80E014
:1046C0000E94970A80E00E94970A80E00E94970A61
:1046D00061E0F801868D0E942B04C5010197F1F776
:1046E00060E0D8015E968C910E942B0480EE0E94BF
:1046F000970A61E0F801868D0E942B040E5F1F4F20
:10470000F5E00A351F0709F05ECF60E08DE30E94F7
:10471000B30460E081E10E94B30460E08FE00E9496
:10472000B30460E08EE00E94B30460E080E10E9488
:10473000B304809109058C3008F047C061E088E03F
:104740000E94B3048091090525E0829FF0011124A5
:10475000E255FB4F9081907C986090831382148285
:104760002CE0622F0E944A2C829FB001112430E07D
:1047700020E095E0AB01420F531F949FF001959FFD
:10478000F00D1124E255FB4F408146FD13C02F5F11
:104790003F4F2C30310571F781110CC01092800011
:1047A00082E080938100109285001092840086BB85
:1047B00080936F00E091090535E0E39FF00111243B
:1047C000E255FB4F8081806480830E9484028C01CB
:1047D000C090F904D090FA04E090FB04F090FC043F
:1047E000A70196016091FD047091FE048091FF0481
:1047F000909100050E94722C4B015C01B801110FD1
:10480000880B990B0E94CA2A9B01AC01C501B40117
:104810000E94292B20E030EC4FE754E40E94F62C54
:10482000A70196010E94732C609301057093020505
:10483000809303059093040580E090E0A0E8BEE338
:1048400080930A0590930B05A0930C05B0930D057A
:104850008DEC9CECACECBDE380930E0590930F05C2
:10486000A0931005B0931105109212051092130534
:1048700010921405109215058FE692E1A3E8BAE3B1
:104880008093360590933705A0933805B09339058A
:1048900088EC90E0A0E0B0E0809326059093270597
:1048A000A0932805B09329058DEC9CECACE4BEE305
:1048B0008093220590932305A0932405B0932505AA
:1048C00083E09CE090931705809316058DE793E1B4
:1048D00090931905809318051E0181E1280E311C63
:1048E0000E9420082091400330914103621B730B0A
:1048F00081099109693171058105910508F403C5A4
:104900008FE00E940204892B21F088E090E00E9451
:10491000EC0B81E10E940204892B21F087E090E0FA
:104920000E94EC0BE0913E03F0913F033197E83099
:10493000F105E0F48827E056FB4D8F4F0C946A2C6C
:10494000A824CD240E2521256225A325C125B62521
:104950000E94E4012AE037ED43EA5CE30E94C32AA7
:1049600087FF0BC582E090E00E94EC0BE0913E03D4
:10497000F0913F03E930F10508F07EC18827EC5340
:10498000FB4D8F4F0C946A2CF429BD298A29C82924
:10499000CC25E729DF29C725BC2520E030E0A90187
:1049A00060918405709185058091860590918705B9
:1049B0000E94C32A87FFAEC420E030E0A9016091C5
:1049C0008C0570918D0580918E0590918F050E94C8
:1049D000F62D18160CF09EC420E030E0A90160917D
:1049E00088057091890580918A0590918B050E94B8
:1049F000F62D18160CF08EC420E030E0A90160916D
:104A000090057091910580919205909193050E9477
:104A1000C32A87FF7FC490E080E0A6CF0E942008D1
:104A20002091120330911303621B730B81099109CA
:104A3000693E73408105910508F4AAC484E090E0C2
:104A400093CF20E030E0A9016091A4057091A50505
:104A50008091A6059091A7050E94C32A87FF9CC05C
:104A600020E030E0A9016091AC057091AD05809126
:104A7000AE059091AF050E94F62D18160CF08CC073
:104A800020E030E0A9016091A8057091A90580910E
:104A9000AA059091AB050E94F62D18160CF07CC06B
:104AA00020E030E0A9016091B0057091B1058091DE
:104AB000B2059091B3050E94C32A87FF6DC085E0BF
:104AC00090E052CF20E030E0A90160919405709110
:104AD000950580919605909197050E94C32A87FFBE
:104AE00076C420E030E0A90160919C0570919D059D
:104AF00080919E0590919F050E94F62D18160CF04E
:104B000066C420E030E0A901609198057091990594
:104B100080919A0590919B050E94F62D18160CF035
:104B200056C420E030E0A9016091A0057091A10574
:104B30008091A2059091A3050E94C32A87FF47C4D4
:104B400086E090E011CF0E9420082091120330915E
:104B50001303621B730B81099109693C710581057F
:104B6000910508F42CC481E090E0FECE8FE00E9415
:104B70000204892B09F44FCF4DEC5CEC6CE47FE32D
:104B8000F7C381E10E940204892B09F444CF4DEC64
:104B90005CEC6CE47FEBECC30E94200840911403B2
:104BA000509115039A012C593F4F2617370708F4E7
:104BB000ADC3FB01E41BF50BBF0190E080E00E9458
:104BC000C82A20E030E040E251E40E94F62C4B017C
:104BD0005C010E94DF2C2B013C01C501B4010E9445
:104BE0009E2D0E946F2D6B0190E080E00E94C82AEC
:104BF0009B01AC01C501B4010E94722C4B015C0108
:104C0000CC0CDD1CCC0CDD1C96012C5E3C4F6901EC
:104C1000AC019B0160E070E080E89FE30E94722C91
:104C2000D60112962D913D914D915C9115970E9460
:104C3000292B6B017C01C301B2010E946F2D660F0D
:104C4000771F660F771F6C5E7C4FFB0122813381DB
:104C500044815581C501B4010E94292B9B01AC01FF
:104C6000C701B6010E94732C60931C0570931D054B
:104C700080931E0590931F050E94840220910505D4
:104C8000309106053093080520930705909306059B
:104C90008093050560E0809176050E942B0480E6F4
:104CA0000E94970ADE0111967D016D018D0180E061
:104CB0000E94970A90E0B0E0A0E0F6018193919302
:104CC000A193B1936F012E163F0689F761E08091A1
:104CD00076050E942B0440E050E0BA01F701819173
:104CE0009191A191B1917F01762F652F542F442787
:104CF000480F591F6A1F7B1FCE16DF0679F7809178
:104D0000F3049091F4042091F5043091F604DC0151
:104D1000A21BB30BB093F804A093F7049093F6048E
:104D20008093F50470956095509541955F4F6F4F56
:104D30007F4F5093F4044093F3040E942008C090E6
:104D40002E05D0902F05E0903005F09031056C15C0
:104D50007D058E059F0508F45BC0809120058823A2
:104D600009F456C00E942008C0902605D09027055F
:104D7000E0902805F0902905DC01CB018C0D9D1DEC
:104D8000AE1DBF1D80932E0590932F05A093300577
:104D9000B0933105C0901C05D0901D05E0901E0514
:104DA000F0901F05E0911605F091170519959B01EC
:104DB000AC01C701B6010E94722C6B017C019F7788
:104DC00020913605309137054091380550913905CD
:104DD0000E94C32A87FF0DC381E0809321051092B2
:104DE0002005E0911A05F0911B05309709F01995FF
:104DF00080912E0590912F05A0913005B09131053D
:104E00008093320590933305A0933405B093350514
:104E100021E032E03A8329831B821D821C8286E0D6
:104E200090E08C0F9D1F9F8B8E8B188E84E0898F56
:104E30008FEF8A8F1F8E0E9420084B015C0108A310
:104E400019A3AFEDB2E0BBA3AAA3CE0180960E9446
:104E5000EC1B7C01009761F0B8010E94B60FF701CE
:104E6000848180788860848380829182A282B382E8
:104E700080911C0590911D05A0911E05B0911F0504
:104E800088A399A3AAA3BBA30BAB1CAB89EA92E0AE
:104E90009EAB8DABBE01605E7F4FCE01C3960E947C
:104EA0002A1C6091F3047091F404072E000C880B07
:104EB000990B0E94CA2A2091EB043091EC04409196
:104EC000ED045091EE040E94292B2091EF043091C3
:104ED000F0044091F1045091F2040E94732C68A3F5
:104EE00079A38AA39BA30BAB1CAB8DEA92E09EAB8C
:104EF0008DABBE01605E7F4FCE01C3960E942A1C1F
:104F00006091F3047091F4048091F5049091F6049B
:104F1000681B790B072E000C880B990B0E94CA2A7C
:104F20002091EB043091EC044091ED045091EE049B
:104F30000E94292B68A379A38AA39BA30BAB1CAB6C
:104F40008CEA92E09EAB8DABBE01605E7F4FCE01DE
:104F5000C3960E942A1C6091F3047091F40480911E
:104F6000F5049091F604681B790B8091F7049091F9
:104F7000F804681B790B072E000C880B990B0E9414
:104F8000CA2A2091EB043091EC044091ED04509139
:104F9000EE040E94292B68A379A38AA39BA30BABE1
:104FA0001CAB8BEA92E09EAB8DABBE01605E7F4F87
:104FB000CE01C3960E942A1CC090F904D090FA0436
:104FC000E090FB04F090FC04A70196016091FD04C1
:104FD0007091FE048091FF04909100050E94722C54
:104FE0004B015C016091050570910605072E000CD0
:104FF000880B990B0E94CA2A9B01AC01C501B40120
:105000000E94292B20E030EC4FE754E40E94F62C5C
:10501000A70196010E94732C209101053091020591
:1050200040910305509104050E94722C68A379A356
:105030008AA39BA30BAB1CAB80EB92E09EAB8DAB2A
:10504000BE01605E7F4FCE01C3960E942A1C0E9463
:10505000E40168A379A38AA39BA30BAB1CAB8FEAE3
:1050600092E09EAB8DABBE01605E7F4FCE01C396DA
:105070000E942A1CD090210508A319A387EB92E077
:105080009BA38AA3CE0180960E94EC1B7C01009713
:1050900049F0B8010E94B60FF701848180788660DC
:1050A0008483D082C0903E03D0903F0308A319A30D
:1050B00087EA92E09BA38AA3CE0180960E94EC1B14
:1050C0007C010097A1F0B8010E94B60FD701149699
:1050D0008C91149780788A6014968C93C601DD0CAD
:1050E000AA0BBB0BF70180839183A283B3838091CA
:1050F0006005909161051FA618AA19AA1AAA99A37A
:1051000088A31BA21AA2DD24D394D9A682E090E042
:105110009FA38EA3DAA682E0C82EC8A6BE016D5C4E
:105120007F4FCE0180960E94C71180936205EBA845
:10513000FCA893E0F694E7949A95E1F7EE0CFF1C37
:10514000EE0CFF1C80916005909161051FA618AAC6
:1051500019AA1AAA99A388A31BA21AA2D9A681E008
:1051600090E09FA38EA3DAA6C8A6BE016D5C7F4F18
:10517000CE0180960E94C711809362056BA97CA91D
:10518000072E000C880B990B0E94CA2A2AE037EDE3
:1051900043E25CE30E94292B20E030E04AE754E43C
:1051A0000E94F62C4B015C01B701FF0C880B990B98
:1051B0000E94CA2A2FE632E143E85AE30E94292BD3
:1051C0009B01AC01C501B4010E94732C68A379A3B3
:1051D0008AA39BA30BAB1CAB82EB92E09EAB8DAB87
:1051E000BE01605E7F4FCE01C3960E942A1C809153
:1051F00060059091610526961CAE1DAE1EAE1FAED9
:1052000026979CAB8BAB1EAA1DAADCAE85E090E076
:105210009AAF89AFDDAECBAE409164055091650584
:105220006091660570916705CE01C3960E944F0795
:1052300080916005909161051FA618AA19AA1AAA63
:1052400099A388A31BA21AA2D9A684E090E09FA3E9
:105250008EA3DAA6C8A6BE016A5B7F4FCE018096F8
:105260000E94C7118093620528966EAD7FAD289786
:10527000072E000C880B990B0E94CA2A6B017C0137
:10528000609168057091690580916A0590916B0540
:105290000E94C82A9B01AC01C701B6010E94F62CEE
:1052A00020E030E04AE754E40E94F62C68A379A39A
:1052B0008AA39BA30BAB1CAB84EB92E09EAB8DABA4
:1052C000BE01605E7F4FCE01C3960E942A1C81E121
:1052D00094E099A388A31BA21AA20CA31DA3BE014C
:1052E000605E7F4FCE014B960E946B148AE892E07D
:1052F0000E948413C8010E946D0F0E9420087093C1
:105300004103609340030E94BF1BEACA60E070E063
:10531000CB01AACC6091F3047091F404072E000C29
:10532000880B990B0E94CA2A2091EB043091EC045F
:105330004091ED045091EE040E94292B2091EF043E
:105340003091F0044091F1045091F2040E94732CCA
:1053500020E030E0A9010E94C32A4DEC5CEC6CEC2B
:105360007DEB87FF04C04DEC5CEC6CEC7DE370588A
:1053700082E795E00E9470097FCC0E94E4012DEC49
:105380003CEC4CE45EEB0E94292BAB01BC01EFCF5F
:1053900040E050E060E070E882E795E00E9470092C
:1053A0000E9420082091120330911303621B730B9B
:1053B00081099109643F71408105910518F490E0DD
:1053C00080E002C084EB90E00E949A0255CC80E01D
:1053D00090E0A0E0B0E480931C0590931D05A0939D
:1053E0001E05B0931F0548CC40E050E060E070E837
:1053F000BFCFE0911805F09119052A96FFAFEEAFE7
:105400002A970E9420088090320590903305A09042
:105410003405B0903505681979098A099B096093AC
:105420002A0570932B0580932C0590932D052091D0
:105430003E0530913F054091400550914105C7011F
:10544000B6010E94732C60933E0570933F058093D4
:1054500040059093410580903A0590903B05A090BF
:105460003C05B0903D05A50194010E94F62D18164B
:1054700044F480923E0590923F05A0924005B09280
:105480004105B7FAB094B7F8B094A50194016091C2
:105490003E0570913F0580914005909141050E9425
:1054A000C32A87FF08C080923E0590923F05A092D4
:1054B0004005B09241058090220590902305A09070
:1054C0002405B090250520913E0530913F0540917F
:1054D00040055091410560910E0570910F05809136
:1054E0001005909111050E94292BA50194010E949D
:1054F000292B2B013C0120910A0530910B0540918D
:105500000C0550910D05C701B6010E94292B9B0186
:10551000AC01C301B2010E94732C2B013C0120910C
:105520004205309143054091440550914505C7011E
:10553000B6010E94722C2091120530911305409102
:105540001405509115050E94292BA50194010E9474
:10555000F62C9B01AC01C301B2010E94732CC092D6
:105560004205D0924305E0924405F09245052A9603
:10557000EEADFFAD2A9719953BCC809160059091D7
:1055800061050C94972E0E94052B08F481E0089584
:10559000E89409C097FB3EF49095809570956195CD
:1055A0007F4F8F4F9F4F9923A9F0F92F96E9BB2783
:1055B0009395F695879577956795B795F111F8CFFF
:1055C000FAF4BB0F11F460FF1BC06F5F7F4F8F4F6A
:1055D0009F4F16C0882311F096E911C0772321F060
:1055E0009EE8872F762F05C0662371F096E8862FF8
:1055F00070E060E02AF09A95660F771F881FDAF74F
:10560000880F9695879597F90895990F0008550F7B
:10561000AA0BE0E8FEEF16161706E807F907C0F038
:1056200012161306E407F50798F0621B730B840B40
:10563000950B39F40A2661F0232B242B252B21F41A
:1056400008950A2609F4A140A6958FEF811D811DBA
:1056500008950E943C2B0C94AD2B0E949F2B38F098
:105660000E94A62B20F0952311F00C94962B0C94FD
:105670009C2B11240C94E12B0E94BE2B70F3959F60
:10568000C1F3950F50E0551F629FF001729FBB2739
:10569000F00DB11D639FAA27F00DB11DAA1F649FD5
:1056A0006627B00DA11D661F829F2227B00DA11D88
:1056B000621F739FB00DA11D621F839FA00D611D0E
:1056C000221F749F3327A00D611D231F849F600D2F
:1056D000211D822F762F6A2F11249F5750409AF058
:1056E000F1F088234AF0EE0FFF1FBB1F661F771FE4
:1056F000881F91505040A9F79E3F510580F00C94AF
:10570000962B0C94E12B5F3FE4F3983ED4F38695FF
:1057100077956795B795F795E7959F5FC1F7FE2B4E
:10572000880F911D9695879597F9089597F99F672A
:1057300080E870E060E008959FEF80EC0895002419
:105740000A941616170618060906089500240A94E6
:1057500012161306140605060895092E0394000C6C
:1057600011F4882352F0BB0F40F4BF2B11F460FFFB
:1057700004C06F5F7F4F8F4F9F4F089557FD905824
:10578000440F551F59F05F3F71F04795880F97FB05
:10579000991F61F09F3F79F08795089512161306BF
:1057A0001406551FF2CF4695F1DF08C016161706EE
:1057B0001806991FF1CF8695710561050894089523
:1057C000E894BB2766277727CB0197F90895052E24
:1057D00097FB1EF400940E94FE2B57FD07D00E94F9
:1057E000192C07FC03D04EF40C94FE2B50954095D9
:1057F000309521953F4F4F4F5F4F0895909580957D
:10580000709561957F4F8F4F9F4F08950E943B2C5D
:10581000A59F900DB49F900DA49F800D911D112404
:105820000895B7FF0C94062C0E94062C821B930B44
:105830000895A1E21A2EAA1BBB1BFD010DC0AA1FD1
:10584000BB1FEE1FFF1FA217B307E407F50720F0E9
:10585000A21BB30BE40BF50B661F771F881F991F64
:105860001A9469F760957095809590959B01AC01AD
:10587000BD01CF010895A29FB001B39FC001A39FB6
:10588000700D811D1124911DB29F700D811D112479
:10589000911D0895991B79E004C0991F961708F08F
:1058A000961B881F7A95C9F780950895AA1BBB1B84
:1058B00051E107C0AA1FBB1FA617B70710F0A61B10
:1058C000B70B881F991F5A95A9F780959095BC0131
:1058D000CD010895EE0FFF1F881F8BBF0790F69133
:1058E000E02D19945058BB27AA270E948A2C0C94AB
:1058F000AD2B0E949F2B38F00E94A62B20F039F48C
:105900009F3F19F426F40C949C2B0EF4E095E7FBD2
:105910000C94962BE92F0E94BE2B58F3BA176207FE
:1059200073078407950720F079F4A6F50C94E02B13
:105930000EF4E0950B2EBA2FA02D0B01B9019001AA
:105940000C01CA01A0011124FF27591B99F0593FEE
:1059500050F4503E68F11A16F040A22F232F342F36
:105960004427585FF3CF469537952795A795F04084
:105970005395C9F77EF41F16BA0B620B730B840B99
:10598000BAF09150A1F0FF0FBB1F661F771F881F51
:10599000C2F70EC0BA0F621F731F841F48F48795A9
:1059A00077956795B795F7959E3F08F0B0CF93959B
:1059B000880F08F09927EE0F9795879508950E9414
:1059C000DE2D90F09F3748F4911116F40C94E12BE2
:1059D00060E070E080E89FE3089526F01B16611DEB
:1059E000711D811D0C94B52D0C94D02D0E940A2D93
:1059F0000C94AD2B0E94A62B58F00E949F2B40F0D8
:105A000029F45F3F29F00C94962B51110C94E12B53
:105A10000C949C2B0E94BE2B68F39923B1F3552361
:105A200091F3951B550BBB27AA27621773078407B1
:105A300038F09F5F5F4F220F331F441FAA1FA9F347
:105A400035D00E2E3AF0E0E832D091505040E69535
:105A5000001CCAF72BD0FE2F29D0660F771F881F96
:105A6000BB1F261737074807AB07B0E809F0BB0B89
:105A7000802DBF01FF2793585F4F3AF09E3F51059D
:105A800078F00C94962B0C94E12B5F3FE4F3983E56
:105A9000D4F3869577956795B795F7959F5FC9F786
:105AA000880F911D9695879597F90895E1E0660F07
:105AB000771F881FBB1F621773078407BA0720F080
:105AC000621B730B840BBA0BEE1F88F7E0950895E9
:105AD0000E946F2D6894B1110C94E12B08950E94DF
