:100000000C94B1010C94E2010C94E2010C94E20115
:100010000C94E2010C94E2010C94E2010C94E201D4
:100020000C94E2010C94E2010C94E2010C94E201C4
:100030000C94E2010C9408180C94E2010C94E20177
:100040000C94E2010C9405190C94E2010C94E20169
:100050000C94E2010C94E2010C94E2010C94BE17A2
:100060000C94E2010C94CF180C94A5180C94E201A6
:100070000C94E2010C94E2010C94E2010C94E20174
:100080000C94E2010C94E2010C94E2010C94E20164
:100090000C94E2010C94E2010C94E2010C949A1687
:1000A0000C94E2010C94E2010C94E2010C94E20144
:1000B0000C94E2010C94E2010C94E2010C94E20134
:1000C0000C94E2010C94E2010C94E2010C94E20124
:1000D0000C94E2010C94E2010C94E2010C94E20114
:1000E0000C94E2010C9447220C947A080C948C2016
:1000F0000C94B3030C94EE030C94D4080C94AD034D
:100100000C94180A0C94C0090C94C8030C94FC09B4
:100110000C94731F0C94CC030C942B120C9492200F
:100120000C94450A0C94D1090C94BB030C948120C7
:100130000C94F2030C94ED030C9419030C94E40357
:100140000C94590A0C946E200C94BF030C94630A0F
:100150000C94310A0C9448210C940A030C940E0A56
:100160000C9437080C940D110C94AD190C94D60313
:100170000C943D210C94EC1F0C94220A0C94C203A5
:100180000C945F210C94E0030C9496160C94D60901
:100190000C94DA030C94F4090C94E0020C940E23F2
:1001A0000C94E1020C94D91F0C946B080C940A2156
:1001B0000C9433030C9409030C94E8030C94281258
:1001C0000C94981F0C944F0A0C942C030C94210946
:1001D0000C9468080C9460030C94D2030C94872050
:1001E0000C943B0A0C948E080C94B7030C94E00911
:1001F0000C94040A0C942D200C949C080C943B083D
:100200000C94EA090C944C220C949720CDCCCC3D54
:100210000AD7233C17B7D13877CC2B329595E624F3
:100220001FB14F0A000020410000C84200401C4698
:1002300020BCBE4CCA1B0E5AAEC59D7402000021E4
:1002400000240027002A002D0030003300010100A7
:1002500000040107010A0100002200250028002BEC
:10026000002E003100340002010000050108010BDE
:1002700001000020002300260029002C002F00325E
:10028000000001000003010601090105050505073D
:100290000508080808020202020A0A080804040401
:1002A000040101010101010101030303030303032D
:1002B00003040707070C0C0C0C0C0C0C0C020202BC
:1002C0000206060606060606060B0B0B0B0B0B0BAF
:1002D0000B0102102020080810204010204080024E
:1002E000010201080402010102040810204080807C
:1002F0004020100804020180040201804020100800
:1003000004020108040201010204081020408001D7
:100310000204081020408000000A0B02090C0D0E98
:1003200008070304010000000000000000000000B6
:1003300000000000000000000000000000000000BD
:10034000000000121110000000000000000000007A
:100350000000000000000000000000000000AD19D7
:100360000E2311241FBECFEFD1E2DEBFCDBF00E0D0
:100370000CBF12E0A0E0B2E0ECEBF0E500E00BBF58
:1003800002C007900D92A63FB107D9F725E0A6EF6E
:10039000B2E001C01D92AC3BB207E1F711E0C0EB47
:1003A000D1E000E006C021970109802FFE010E94E4
:1003B000A724CF3AD10780E00807A9F70E94B01B15
:1003C0000C944C280C9400004F925F926F927F9295
:1003D0008F929F92AF92BF92CF92DF92EF92FF9255
:1003E000CF93DF9300D01F92CDB7DEB7EDEFF4E0EF
:1003F000C080D180E280F380A70196016091010561
:100400007091020580910305909104050E94AF242C
:100410004B015C0140900505509006056090070572
:10042000709008056091090570910A05072E000C6F
:10043000880B990B0E941B23A50194010E947A232B
:1004400020E030EC4FE754E40E943325A7019601E9
:100450000E94B024A30192010E94AF2469837A8391
:100460008B839C8360910B0570910C05072E000C0B
:10047000880B990B0E941B23A50194010E947A23EB
:1004800020E030EC4FE754E40E943325A7019601A9
:100490000E94B024A30192010E94AF249B01AC01F1
:1004A00069817A818B819C810E94AF240F900F908B
:1004B0000F900F90DF91CF91FF90EF90DF90CF9052
:1004C000BF90AF909F908F907F906F905F904F9074
:1004D0000895CF93DF93EC0188819981DC01ED9140
:1004E000FC910190F081E02D64E270E01995009795
:1004F00041F02FE1FC01238321E02283DF91CF91A2
:10050000089521E02A83FACFFC0120812EBD0DB48D
:1005100007FEFDCF2EB5FC0120830895CF92DF9218
:10052000EF92FF92CF93DF93C0910D05CC3008F08E
:1005300040C025E0C29FE0011124CE54DB4F2B8147
:1005400038E8C32ED12CC21AD10827FDD394CC0C85
:10055000DD1CCC0CDD1C0D2C000CEE08FF084C81C2
:1005600028E532E0241B310947FD3395220F331F64
:10057000220F331F032E000C440B550B2C193D0981
:100580004E095F09DC010E94622424EB30E040E068
:1005900050E00E943824C20ED31EE41EF51E8FB711
:1005A000F89496E0C91AD108CC0CDD1CDA82C98215
:1005B0008FBFDF91CF91FF90EF90DF90CF900895A4
:1005C0000895089520919003260F3327331F213279
:1005D0003105ECF42091DF03FC0190E080E0243051
:1005E00069F082E00895A09190032191AC014059F7
:1005F0005C4FA40FB52FB11D2C930196861798F36D
:1006000080919003680F6093900380E0089581E0EB
:1006100008950895E091B8038091B703E81730F486
:10062000F0E0E15BFC4F808190E008958FEF9FEF59
:1006300008959091B8038091B7032FEF3FEF98177B
:1006400048F4E92FF0E0E15BFC4F208130E09F5F50
:100650009093B803C90108958091B7039091B803AE
:10066000891B990B0895CF92DF92EF92FF920F931F
:100670001F93CF93DF937C01CB018A012091E50387
:10068000222389F0EB016B01C40ED51ECC15DD05CC
:1006900069F06991D701ED91FC910190F081E02D15
:1006A000C7011995F3CF642F0E94E202C801DF91C0
:1006B000CF911F910F91FF90EF90DF90CF90089511
:1006C000CF93DF931F92CDB7DEB769832091E50307
:1006D0002223F9F020910804203258F021E030E084
:1006E000FC013383228390E080E00F90DF91CF9173
:1006F00008958091E603E82FF0E0E951FC4F9981DD
:1007000090838F5F8093E6038093080481E090E0FC
:10071000ECCF61E0CE0101960E94E202F7CF81505A
:10072000823108F05AC0E82FF0E08827E556FC4FE8
:100730008F4F0C94A724BB03BF03AD03B303B703D0
:10074000ED03C203C803CC03D203D603DA03E003EC
:10075000E403ED03E803EE03F203809180008F775A
:10076000809380000895809180008F7DF9CF8091E3
:100770008000877FF5CF84B58F7784BD089584B5D9
:100780008F7DFBCF8091B0008F778093B00008956C
:100790008091B0008F7DF9CF809190008F7780930A
:1007A00090000895809190008F7DF9CF8091900006
:1007B000877FF5CF8091A0008F778093A000089568
:1007C0008091A0008F7DF9CF8091A000877FF5CF29
:1007D000809120018F7780932001089580912001DE
:1007E0008F7DF9CF80912001877FF5CFCF93DF9365
:1007F000282F30E0F901E95EFC4F8491F901EF52B6
:10080000FD4FD491F901E557FD4FC491CC23A1F0E0
:1008100081110E948F03EC2FF0E0EE0FFF1FEF58C5
:10082000FD4FA591B491EC91ED2381E090E009F4A6
:1008300080E0DF91CF91089580E090E0FACF1F93A0
:10084000CF93DF93282F30E0F901E95EFC4F8491CC
:10085000F901EF52FD4FD491F901E557FD4FC491D5
:10086000CC23A9F0162F81110E948F03EC2FF0E00A
:10087000EE0FFF1FE95AFD4FA591B4918FB7F89481
:10088000EC91111108C0D095DE23DC938FBFDF916E
:10089000CF911F910895DE2BF8CF1092DF0381E0F6
:1008A0008093DE031092B90361E084E10E941F048B
:1008B00061E085E10E941F04E9EBF0E080818E7F1A
:1008C000808380818D7F808388E48093B80085E475
:1008D0008093BC000895CF93DF9391E090936F03D2
:1008E0008823B9F0C091B800D091BA008091BC00C3
:1008F0008A7B8093BC0060E084E10E941F0460E07A
:1009000085E10E941F040E944D04D093BA00C09359
:10091000B800DF91CF910895CF93DF9390E0FC0171
:10092000EF52FD4F249185579D4FFC018491882300
:10093000D1F090E0880F991FFC01E35CFD4FA59179
:10094000B491FC01E95AFD4FC591D49161110EC0DB
:100950009FB7F8948C91E22FE0958E238C93288199
:10096000E223E8839FBFDF91CF9108958FB7F8947A
:10097000EC91E22BEC938FBFF6CF8230910538F0EB
:10098000880F991F880F991F05970197F1F7089510
:100990009F92AF92BF92CF92DF92EF92FF920F930E
:1009A0001F93CF93DF93EC016B018885998511E04C
:1009B000892B09F010E8F601A0808A2D8123992463
:1009C00093948111912C2C813D814E815F8160E255
:1009D00071EA87E090E00E946A24022FB12CE22E97
:1009E000F12C002319F0C7010E94BD048A85877F7E
:1009F00009F04FC08D858F3F89F09A2D912381E0BA
:100A000009F480E0891551F0EF85F8898F899923E1
:100A1000D1F19081892B808399249394E989FA8973
:100A20008081998D892B8083002319F0C7010E9452
:100A3000BD048E858F3F39F0EB89FC898081988DCC
:100A4000892309F0B12AE989FA899081898D8095F5
:100A5000892380838E858F3F11F0F601B0828885CF
:100A60009985892B09F044C0110F1111BACFDF917C
:100A7000CF911F910F91FF90EF90DF90CF90BF909B
:100A8000AF909F9008959081809589238083912CC9
:100A9000C5CFE989FA898081998D892B80830023CC
:100AA00019F0C7010E94BD048D858F3F49F0EF8585
:100AB000F8898F899A2D9123B9F09081892B8083B1
:100AC000E989FA899081898D8095892380838E8533
:100AD0008F3F09F4BFCFEB89FC898081988D8923F2
:100AE00009F4B8CFB12AB6CF908180958923E7CF9A
:100AF0001695BBCF6F927F928F929F92AF92BF92CB
:100B0000CF92DF92EF92FF920F931F93CF93DF93D9
:100B10001F92CDB7DEB77C01962E872E5A01390180
:100B2000DC018D919C911197892B39F01296ED91F2
:100B3000FC91908181819CBD8DBDF70183858F3FA4
:100B400019F060E00E941F046301060D171D0C15CB
:100B50001D05A9F4092D182DA00EB11E0A151B059F
:100B600051F1D8018D918D018983F70180819181A7
:100B7000892BD1F0CE0101960E948402EFCFD601DD
:100B80008D916D018983F70180819181892B29F0F5
:100B9000CE0101960E948402DACFBE016F5F7F4FC3
:100BA000C7010E94C804D3CFBE016F5F7F4FC7014A
:100BB0000E94C804D3CFD7011B968C918F3F19F0A8
:100BC00061E00E941F0481E00F90DF91CF911F919F
:100BD0000F91FF90EF90DF90CF90BF90AF909F90DC
:100BE0008F907F906F9008953FB7F89480914B035A
:100BF00090914C03A0914D03B0914E0326B5A89B54
:100C000005C02F3F19F00196A11DB11D3FBFBA2F9E
:100C1000A92F982F8827BC01CD01620F711D811D5E
:100C2000911D42E0660F771F881F991F4A95D1F7E3
:100C300008958F929F92AF92BF92CF92DF92EF92E0
:100C4000FF920F931F93CF93DF93D0910804D1327B
:100C500008F0D7C0182FC09107040E94F4056B015B
:100C60007C018091DF0381116BC082E08093DF0300
:100C70001093DE038FEF8093DD031092DC03D0939B
:100C8000DB03A7EEB3E0EBEBF3E080E0D81391C019
:100C90001092BA038091BA03CC0FC82BC093BA0349
:100CA0008091B903813009F088C01092B9030E9485
:100CB000F4056B017C018091BA038093BB008091A5
:100CC000E1039091E203A091E303B091E403892B47
:100CD0008A2B8B2BA1F00E94F4050091E103109167
:100CE000E2032091E3033091E4036C197D098E093E
:100CF0009F09061717072807390708F442C0809193
:100D0000BC0083FDD8CF85EC8093BC000E94F40525
:100D10006B017C018091DF03823009F450C0809127
:100D2000DD038F3F09F46FC08091DD03803209F449
:100D30006CC08091DD03803309F469C084E026C073
:100D40008091E1039091E203A091E303B091E40369
:100D5000892B8A2B8B2B09F484CF0E94F405809079
:100D6000E1039090E203A090E303B090E4036C19D8
:100D70007D098E099F0986169706A806B90608F010
:100D800070CF8091E0030E946B0485E01092E6032F
:100D9000109208041092E503DF91CF911F910F91FB
:100DA000FF90EF90DF90CF90BF90AF909F908F908B
:100DB00008959D9191938F5F69CF85EEA5CF809126
:100DC000E1039091E203A091E303B091E403892B46
:100DD0008A2B8B2B09F49ECF0E94F4050091E1032E
:100DE0001091E2032091E3033091E4036C197D0933
:100DF0008E099F09061717072807390708F08ACFB9
:100E0000C0CF81E0C3CF80E0C1CF82E0BFCF83E01D
:100E1000BDCFCF92DF92EF92FF920F931F93CF93AC
:100E2000DF931F921F92CDB7DEB7FC014787508B2F
:100E3000618B728B8285882321F14487452F562F41
:100E4000672F77278823F9F043877F018BE0E80E2F
:100E5000F11C9681878199838A83C080D180C114D7
:100E6000D10409F454C0018510E098012E5F3F4F72
:100E7000D60114968D919C918217930730F490E0DF
:100E80002AC04387DBCF4487E0CFF601818192817E
:100E9000208131E03093E503209307041092E603AC
:100EA000109208040115110511F5D60111968D91C6
:100EB0009C91DC01ED91FC910280F381E02D42E0F8
:100EC00050E0B70119950297D1F681E00E9419060A
:100ED00091E08111D4CF892F0F900F90DF91CF91A6
:100EE0001F910F91FF90EF90DF90CF900895DC015C
:100EF000ED91FC910280F381E02DA801BE016F5FAE
:100F00007F4F19950817190709F0B9CFCECFA281E5
:100F1000B381109709F4B3CF24813581018510E0A6
:100F20002330310581F48E7F89839A830F5F1F4FB1
:100F30009E012F5F3F4F42E050E0B701CD010E947C
:100F40007A05982FC8CF2115310519F49F77998319
:100F5000EFCF2230310511F49068F9CF21303105FF
:100F600039F79F779064F3CFCF93DF93EC018B81B8
:100F70008823A1F0888191E09093E5038093070492
:100F80001092E6031092080481E00E94190691E095
:100F9000811190E0892FDF91CF9108951092B803CD
:100FA0001092B7031092E603109208040E944D04B9
:100FB00080EE92E09093B4038093B30381EE92E0CD
:100FC0009093B6038093B50381E08B83CE010E949A
:100FD000B407982F8111CECFDDCF2FB7F894609151
:100FE0004703709148038091490390914A032FBFB2
:100FF00008950F931F9380911A0590911B05892BDB
:1010000099F180911C0590911D05892B69F181E072
:10101000809324050E94ED0700912A0510912B056D
:1010200020912C0530912D05DC01CB01800F911F03
:10103000A21FB31F8093320590933305A09334050C
:10104000B093350510922505109242051092430584
:1010500010924405109245051092460510924705DE
:1010600010924805109249051F910F91089560E074
:1010700070E0CB010895AF92BF92CF92DF92EF92D2
:10108000FF920F931F93CF93DF936C017B018B0132
:10109000040F151FEB015E01AE18BF08C017D10782
:1010A00059F06991D601ED91FC910190F081E02D0C
:1010B000C6011995892B79F7C501DF91CF911F9151
:1010C0000F91FF90EF90DF90CF90BF90AF90089579
:1010D00090E080E00895FC01538D448D252F30E091
:1010E000842F90E0821B930B541710F0CF96089535
:1010F00001970895FC01918D828D981761F0A28D62
:10110000AE0FBF2FB11D5D968C91928D9F5F9F7327
:10111000928F90E008958FEF9FEF0895FC01918DDD
:10112000828D981731F0828DE80FF11D858D90E04A
:1011300008958FEF9FEF0895FC01918D228D892FE7
:1011400090E0805C9F4F821B91098F7399270895CF
:1011500085E194E00E949C0821E0892B09F420E0BD
:10116000822F0895FC01A48DA80FB92FB11DA35A99
:10117000BF4F2C91848D90E001968F739927848FB7
:10118000A689B7892C93A089B1898C9183708064DA
:101190008C93938D848D981306C00288F389E02D7B
:1011A00080818F7D80830895EF92FF920F931F932C
:1011B000CF93DF93EC0181E0888F9B8D8C8D98130A
:1011C0001AC0E889F989808185FF15C09FB7F89416
:1011D000EE89FF896083E889F98980818370806462
:1011E00080839FBF81E090E0DF91CF911F910F91AD
:1011F000FF90EF900895F62E0B8D10E00F5F1F4FBC
:101200000F731127E02E8C8D8E110CC00FB607FCCA
:10121000FACFE889F989808185FFF5CFCE010E9458
:10122000B208F1CFEB8DEC0FFD2FF11DE35AFF4F0C
:10123000F0829FB7F8940B8FEA89FB8980818062E6
:10124000CFCFCF93DF93EC01888D8823B9F0AA89A3
:10125000BB89E889F9898C9185FD03C0808186FD71
:101260000DC00FB607FCF7CF8C9185FFF2CF8081C0
:1012700085FFEDCFCE010E94B208E9CFDF91CF917B
:1012800008958F929F92AF92BF92CF92DF92EF928A
:10129000FF920F931F93CF93DF93EC016A017B01C1
:1012A00020E030E04FE753E4CB01B6010E947A23FF
:1012B0004B015C0120E030E0A9010E9433261816A2
:1012C0008CF5C501B4010E94A5258B01B98020E0F1
:1012D00030E0A901C701B6010E94332660E018166C
:1012E0000CF061E08B2D0E941F040F3F110509F0E7
:1012F000ECF41127C88161E08C2F0E948C04011549
:101300001105B9F460E08C2FDF91CF911F910F91FF
:10131000FF90EF90DF90CF90BF90AF909F908F9015
:101320000C941F04C501B4019058CDCF0FEF10E00D
:10133000E1CF0F3F110511F461E0E5CFEC2FF0E0B4
:10134000E95EFC4FE491E150E23108F0BCC0F0E00E
:101350008827E255F64F8F4F0C94A724C009D10976
:10136000D609E009EA09630AF409FC09040A0E0A2D
:10137000180A220A310A3B0A630A450A4F0A590A27
:1013800084B5806884BD07BDDF91CF911F910F9117
:10139000FF90EF90DF90CF90BF90AF909F908F9095
:1013A000089584B5806284BD08BDEECF8091800031
:1013B0008068809380001093890000938800E4CFB8
:1013C0008091800080628093800010938B00009356
:1013D0008A00DACF8091800088608093800010932B
:1013E0008D0000938C00D0CF8091B00080688093F6
:1013F000B0000093B300C8CF8091B00080628093AA
:10140000B0000093B400C0CF8091900080688093BA
:1014100090001093990000939800B6CF80919000AF
:1014200080628093900010939B0000939A00ACCF51
:101430008091900088608093900010939D000093AD
:101440009C00A2CF8091A00080688093A000809132
:10145000A0008F7B8093A0001093A9000093A800A8
:1014600093CF8091A00080628093A0001093AB0086
:101470000093AA0089CF8091A00088608093A0008B
:101480001093AD000093AC007FCF80912001806865
:1014900080932001109329010093280175CF80913A
:1014A000200180628093200110932B0100932A0178
:1014B0006BCF8091200188608093200110932D01D3
:1014C00000932C0161CF003811050CF035CF1ACFF5
:1014D0008EBD00000DB407FEFDCF8EB508956F3FA1
:1014E000B1F0E62FE295EF7044E0E49F9001112403
:1014F000DC01ED91FC91E20FF31F6F70B8E06B9F80
:10150000C001112462817381860F971F089590E0B6
:1015100080E00895982F80336CF08A3324F08F3563
:1015200024F08B3724F481E0089581341CF081E0AD
:101530009B350CF080E00895CF92DF92EF92FF92FE
:101540000F931F93CF93DF93EC018A85811130C0F5
:101550000F8118850E94ED07D80118966D937D9331
:101560008D939C931B97D801ED91FC910284F38598
:10157000E02DC801199597FF25C00E94ED07F801DD
:10158000C084D184E284F3846C197D098E099F099B
:10159000C480D580E680F7806C157D058E059F059B
:1015A00010F38FEF9FEF97FD80E0898781E08A87B6
:1015B0008985DF91CF911F910F91FF90EF90DF9080
:1015C000CF9008959927EFCF1F93CF93DF93EC012E
:1015D000162F0E949C0A811306C01A8681E0DF91B3
:1015E000CF911F91089580E0FACF0F931F93CF936F
:1015F000DF938C01EB018991882369F0C8010E9477
:101600009C0A882379F0FE013197908198130DC0D0
:10161000F8011286F0CF90E080E0DF91CF911F912A
:101620000F91089582E090E0F8CF83E090E0F5CF4D
:10163000CF93DF93EC01CE010E949C0A8B304CF4D7
:1016400089305CF4882359F081E08E8390E080E05B
:101650000BC08D3011F08032B9F71A86ECCF8E8135
:10166000811105C081E090E0DF91CF91089582E083
:1016700090E0FACFDC01ED91FC91309731F094814C
:101680009F7781E019F080E0089581E00895CF937D
:10169000DF93EC0182309105B1F02CF497FD06C088
:1016A0000E94F90703C004970597D0F3D093430332
:1016B000C09342030E94ED077093170360931603D3
:1016C000DF91CF91089510922405F0CF4F925F9251
:1016D0006F927F928F929F92AF92BF92CF92DF9242
:1016E000EF92FF920F931F93CF93DF93EB01DC01F7
:1016F0002C912B32D9F12D32D1F50196FF24F394A0
:10170000FC01208130ED320F3A3018F02E3209F012
:1017100042C18C0160E070E0CB01F801219130ED15
:10172000832E820E39E0381520F16A3949E97407B1
:10173000840749E1940738F5AAE0B0E09B01AC01C9
:101740000E945724912CB12CA12C240135014094E6
:10175000509460947094461657066806790698F07F
:10176000680D791D8A1D9B1D8F01D7CF0196F12C25
:10177000C7CF211108C0FF20E9F161307105810553
:1017800050E89507A0F0E12CBAE08B2E912CA12C0B
:10179000B12C6115710530E883079105B0F1A50101
:1017A00094010E946A24CA01B901E394F2CF2C810A
:1017B00020782A602C839B01AC0188279927DC01C3
:1017C000821B930BA40BB50B88839983AA83BB83DD
:1017D0008F2DDF91CF911F910F91FF90EF90DF90B0
:1017E000CF90BF90AF909F908F907F906F905F90C1
:1017F0004F9008952C81207828602C83688379830A
:101800008A839B83FF24F394E3CFF801D8012D91C1
:101810008D0130ED320F3A3010F4E394F6CF2E32D2
:1018200001F58F010F5F1F4FF8010F5F1F4F2081E0
:10183000A0EDDA2ED20EB9E0BD1598F06C3CECECC0
:101840007E07ECE08E07910578F7AAE0B0E09B01F7
:10185000AC010E9457246D0D711D811D911DEA94EC
:10186000E3CF20812F7D10E000E0253409F05BC03C
:1018700021812D32D1F53296CC24C394DF0110E0C2
:1018800000E02E2D0E2C000C330B5AE0B52EFD017E
:10189000DD9040ED4D0D4A3008F040C0B09EA001F3
:1018A000B19E500D11240D2DDD0C110B00531109AB
:1018B000040F151FA801420F531F473251053CF377
:1018C0008C81CC20C9F040E050E060E070E8F1107D
:1018D00003C040E050E0BA0180788C608C8348837C
:1018E00059836A837B83FC2C73CF2B3219F031969A
:1018F000C12CC4CF3296FCCF40E050E060E87FEFCF
:10190000F11004C040E050E060E87FE780788C6030
:101910008C83488359836A837B8374CFCC2019F0EE
:101920001195019511092081211135C00E0D111D50
:10193000E7FC1A950E94192334E2C32E32E0D32E1D
:10194000101611063CF01195019511094CE0C42EBA
:1019500042E0D42EE12C0115110591F000FF0CC0DE
:1019600024E0E29EF0011124EC0DFD1D259135913E
:10197000459154910E947A2315950795E394EBCFF6
:10198000F11090582C8120782C602C836883798307
:101990008A839B8337CFF12C1BCFCF93DF9300D06B
:1019A0001F921F92CDB7DEB7FC0194819F779630CE
:1019B00091F030F4943020F560E070E0CB0111C07C
:1019C0009A30B9F09C3051F19830B1F76081718153
:1019D0008281938104C0608170E090E080E00E9489
:1019E00019230F900F900F900F900F90DF91CF91D0
:1019F000089560817181828193810E941B23F1CFC0
:101A0000808191811D82BE016F5F7F4F04960E948D
:101A1000660BCE0101960E94CD0CE3CF60817181EF
:101A200082819381DECFFF920F931F93CF93DF9339
:101A3000FC01C381D481058116810180F281E02DF2
:101A40003097D9F0848186FF18C065966081CE01F9
:101A50000E946F0A009789F0FC01F58001151105BD
:101A6000A9F06F2DCE010E946F0A009711F0FC01C2
:101A7000F58001501109009789F760E070E0CB0113
:101A8000DF91CF911F910F91FF900895DF91CF913A
:101A90001F910F91FF900C94CD0CCF92DF92EF929B
:101AA000FF92CF93DF9300D01F921F92CDB7DEB786
:101AB000FC0184818F778630D9F040F48430A9F11D
:101AC000853009F43FC090E080E014C08A30F1F026
:101AD0008C3009F43FC08830B1F780819181A281B8
:101AE000B381811520E89207A105B10560F702C016
:101AF000808190E00F900F900F900F900F90DF91EA
:101B0000CF91FF90EF90DF90CF90089580819181E9
:101B1000A281B381AC01BD0150586F4F7F4F411579
:101B200051056140710578F6E5CF808191811D8274
:101B3000BE016F5F7F4F0E94660BCE0101960E942F
:101B40004D0DD8CF808191811D82BE016F5F7F4F87
:101B50000496F1CFC080D180E280F38020E030E0B5
:101B600040E057ECC701B6010E94332687FDABCF9A
:101B700020E03EEF4FEF56E4C701B6010E94142368
:101B800018160CF4A0CFC701B6010E94A525CB0101
:101B9000B1CFCF92DF92EF92FF92CF93DF9300D03D
:101BA0001F921F92CDB7DEB7FC0184818F778630FC
:101BB000C1F038F4843019F1853071F190E080E0A3
:101BC00012C08A3021F08C3079F18830B9F78081E9
:101BD0009181A281B381009721E0A207B10518F09D
:101BE000EDCF808190E00F900F900F900F900F90AD
:101BF000DF91CF91FF90EF90DF90CF90089580819B
:101C000091811D82BE016F5F7F4F0E94660BCE01E6
:101C100001960E94C90DE7CF808191811D82BE018E
:101C20006F5F7F4F0496F1CFC080D180E280F38058
:101C300020E030E0A901C701B6010E94332687FDEC
:101C4000BDCF20E03FEF4FE757E4C701B6010E9448
:101C5000142318160CF4B2CFC701B6010E94AC25AC
:101C6000CB01C1CFFC019289915084E0989F9001F3
:101C70001124A089B189A20FB31F1296ED91FC9196
:101C800013973097E9F011962C9111978C912817A2
:101C9000B8F481E0820F11968C9388E0289FA00110
:101CA0001124E40FF51F309759F014828FEF8583CC
:101CB00017821682BF01892F8295807F820F089537
:101CC00060E070E08FEF0895DF92EF92FF920F9344
:101CD0001F93CF93DF93EC017B01D12C6889798925
:101CE0008A89D816E0F484E0D89E80011124060F7A
:101CF000171FD80112966D917C916115710541F005
:101D0000D701ED91FC910280F381E02DC701199577
:101D1000F8011382128210821182D394DFCF1A8AC3
:101D20008FEF8C8BC617D70761F0D701ED91FC912F
:101D30000280F381E02DC7011995D98BC88B84E00F
:101D40008B8BDF91CF911F910F91FF90EF90DF90E0
:101D50000895DB01ED91FC9111970280F381E02D54
:101D6000BC01CD0119940F931F93CF93DF93EC0126
:101D7000088119818B819C81009749F0FC012081A9
:101D800031813C832B83B8010E94A90EF3CF688177
:101D90007981CE010596DF91CF911F910F910C941F
:101DA000640ECF93DF93EC01E881F981B0E0A0E00D
:101DB0003097F9F09F012C5F3F4F62177307A1F432
:101DC000928191509283911114C0808191811097DA
:101DD00041F08D939C93BA01CF01DF91CF910C9488
:101DE000A90E99838883F7CFDF010190F081E02D60
:101DF000DFCFDF91CF9108958F929F92AF92BF92E4
:101E0000CF92DF92EF92FF920F931F93CF93DF93C6
:101E10008C01EB01FC01848180FF0AC0488159815B
:101E2000608171816C5F7F4FCE0103960E94D10E5D
:101E3000F8018481807681F10115110569F1D08066
:101E40005E01F5E1AF0EB11C4E0183E0880E911CDE
:101E5000EFEFDE16F1F06D2DC5010E946F0A7C01D7
:101E6000FC01C580848187FF07C048815981668154
:101E70007781C4010E94D10EBE01C7010E94FC0EF1
:101E8000F701848180788483898D8583D98EDC2CC9
:101E9000DFCFF801D082D182DF91CF911F910F91D6
:101EA000FF90EF90DF90CF90BF90AF909F908F907A
:101EB0000895EF92FF920F931F93CF93DF937C01CE
:101EC0008B01EA016F3F710509F0B0F4E881F981F7
:101ED0000480F581E02DAB014B5F5F4FBC01CE016B
:101EE0001995009749F0FC010383DF91CF911F9171
:101EF0000F91FF90EF900895E881F9810280F381BE
:101F0000E02DB701CE01199590E080E0EECFFF9271
:101F10000F931F93CF93DF93EC01F62E8A819B8161
:101F20000097C9F06C817D81FC012381261717067B
:101F300091F408811981F80140815181660F771F62
:101F40006F5F7F4F0E94590F009719F421E0F8014D
:101F500022839B838A838A819B81009759F02C81FD
:101F60003D81A9014F5F5F4F5D834C83820F931FBB
:101F7000FC01F482DF91CF911F910F91FF900895A2
:101F80009F92AF92BF92CF92DF92EF92FF920F9308
:101F90001F93CF93DF9300D01F921F92CDB7DEB770
:101FA0008C010E949C0AD82EF8011286F12CE12C9B
:101FB00060EFC62EC8010E949C0AF8011286D8164E
:101FC00009F4B3C0811113C082E090E00F900F902C
:101FD0000F900F900F90DF91CF911F910F91FF9075
:101FE000EF90DF90CF90BF90AF909F9008958C3589
:101FF00009F099C0C8010E949C0A882329F3EBE4E8
:10200000F2E0853709F083C0F801128654E0952E7E
:10201000B12CA12CC8010E949C0A8823A9F281340A
:1020200034F48053803130F083E090E0CFCF8F7D67
:102030008753F8CF44E0AA0CBB1C4A95E1F7A82AC5
:10204000F80112869A949110E5CFC501985D81152B
:10205000944020F47501F3E0FF22ACCFC5019C5DF4
:1020600081159440A8F483E0B822B701762F662743
:10207000770F770F6A297B2990E080E0019660381E
:1020800071058105910540F4C8010E94870F92CF28
:10209000B50190E080E0F3CF1982262F2F732068DE
:1020A0002A8326E096958795779567952A95D1F7A7
:1020B0006032710580F4606C6B835E01E4E0AE0E0B
:1020C000B11CF50162915F01662309F473CFC80169
:1020D0000E94870FF6CF262F2F7320682B8386E070
:1020E000769567958A95E1F76031710538F4606EF1
:1020F0006C835E01F5E0AF0EB11CE3CF60686C83CA
:10210000CD825E0126E0A20EB11CDBCF329690811B
:10211000992309F489CF8913F9CF8181882309F4A0
:1021200083CFF8011286682FAFCF82819381892BEC
:1021300019F484E090E04ACF90E080E047CFAF927E
:10214000BF92CF92DF92EF92FF920F931F93CF93A4
:10215000DF93DC011296ED91FC91139714968D910B
:102160009C911597E80FF91F14820D911C911197FE
:1021700014966D917C91159712968D919C91139761
:102180009C012C5F3F4FE801EB81FC817B01E20E5B
:10219000F31E3097B9F043814617170679F45901B9
:1021A000AF014C5F5F4FEA14FB0499F1E501C99060
:1021B0005E01EA01D990AE01CD14A9F30190F0813E
:1021C000E02DE7CFED01F801408151810E94590FC8
:1021D000FC01892B21F481E0D80112968C93A8810F
:1021E000B98113968D919C91149791838083149655
:1021F000FC93EE9313971B821A82CF01DF91CF914C
:102200001F910F91FF90EF90DF90CF90BF90AF9014
:10221000089582818F5F8283F0CFAB01BC0170583B
:1022200086E795E00C944109FC0101900020E9F754
:102230003197AF01481B590BBC0185E194E00C9428
:102240003B088F929F92AF92BF920F931F93CF93B1
:10225000DF93CDB7DEB7A1970FB6F894DEBF0FBE00
:10226000CDBF19A2423008F44AE08E010F5D1F4F26
:10227000842E912CB12CA12CA50194010E946A24DA
:10228000E62FB901CA01EA30F4F4E05DD801EE931B
:102290008D01232B242B252B79F790E080E01097DC
:1022A00019F0CD010E941411A1960FB6F894DEBF6B
:1022B0000FBECDBFDF91CF911F910F91BF90AF9017
:1022C0009F908F900895E95CE1CFDF92EF92FF92AB
:1022D0000F931F93CF93DF936115710561F460E055
:1022E00070E08FEF9D2DDF91CF911F910F91FF90A7
:1022F000EF90DF9008958A01EB01DC01FC900B5E0A
:102300001F4F6F2DC8010E946F0A009741F3FC0117
:10231000E580009721F30680F781E02DDE010D9026
:102320000020E9F79D01215031092C1B3D0BB0E045
:10233000A0E0309739F0DF010D900020E9F7119708
:10234000AE1BBF0B2A173B0751F4DE012C0F3D1FBC
:10235000A217B30769F05D9141915417C9F36E2D2F
:10236000C8010E946F0A009709F4B9CFFE2CCFCFA5
:10237000BC018F2DDE2CB6CFFC01408151816281E2
:102380007381CA014A9641F0FA01268D25FF04C0E7
:102390000E946511CB01089590E080E008950F93AD
:1023A0001F93CF93DF93FC01C181D28105811681F8
:1023B00001960E94BC11009781F0FC01248125FF49
:1023C0000CC0AE01B8010E9465119B01B901CE019C
:1023D000DF91CF911F910F91089530E020E0F6CF6B
:1023E00085ED8093BC008091E1039091E203A09180
:1023F000E303B091E4030796A11DB11D23E0B69558
:10240000A795979587952A95D1F72091BC0024FD33
:1024100003C01092DF0308954091E1035091E2035D
:102420006091E3037091E403452B462B472B69F33E
:102430000097A105B10541F02AE22A95F1F700C005
:102440000197A109B109E1CF8091E0030C946B04DD
:10245000CB010C943D26CB010C94D9268F929F92F0
:10246000AF92BF92CF92DF92EF92FF920F931F93A2
:10247000CF93DF936C018B01DB015996FC90BFEF8A
:10248000FB1621F16F2DC80145960E946F0AEC01E1
:102490008D81F801818F209709F496C01C828FEFFF
:1024A0008D831F821E82D60111966C916F3F09F4B5
:1024B0009FC0C80145960E946F0AFC01F582D601B3
:1024C0001196FC92BE018F2D9D8084C05B01F5E0CA
:1024D000AF0EB11CDB01ED90FC90119757968C91DB
:1024E000882349F0C5010E94320EC62FD72F2097AE
:1024F00011F0F82ED8CFF801C789908DC91325C0E7
:10250000C03109F461C0CC0F65897689D701ED919E
:10251000FC91B4E0CB9FA0011124A616B70609F0E8
:102520004BC00190F081E02DBA01C70119950097C9
:1025300009F44AC020E1F501DC0101900D922A95D1
:10254000E1F7F801968B858BC08FD8015596CD9118
:10255000DC91569757968C91579721E0280F579604
:102560002C93B4E08B9FC0011124C80FD91F90E1B8
:10257000892E203111F48FE0882EE8E08E9EB00184
:102580001124D701ED91FC910190F081E02DC7015C
:1025900019959B838A83892B09F4812C888219825F
:1025A000CD2B91F0C5010E94320EC62FD72FF82EE9
:1025B000209709F078CF08C00480F581E02DC7018D
:1025C0001995009709F0BDCF81E0F801828360E0A2
:1025D00070E08FEF992DDF91CF911F910F91FF90B8
:1025E000EF90DF90CF90BF90AF909F908F90089525
:1025F000F601F082F18266CF8F929F92AF92BF92E6
:10260000CF92DF92EF92FF920F931F93CF93DF93BE
:10261000EC018B01D42E0E94180B7C01892B09F050
:1026200047C0CE010E949C0A863609F452C124F5A7
:10263000873229F08B3561F1823209F053C11D8256
:102640001C828A819B81892B31F4888199810E9427
:1026500069029B838A83CE010E94C00F7C01892B73
:1026600039F5CE010E949F10F80124812078256061
:102670002483918380831CC0843709F412C18B3773
:1026800009F45BC08E3609F02DC167E672E012C115
:10269000F80184818078806484830115110519F024
:1026A0008FEF80838183D11011C025E0E22EF12CC1
:1026B000C701DF91CF911F910F91FF90EF90DF90B5
:1026C000CF90BF90AF909F908F9008951A86CE01C3
:1026D0000E94180B009709F085C06DE5CE010E949D
:1026E000E40A8111E5CFDA946B857C85C8010E94EC
:1026F0002E126115710521F484E0E82EF12CD8CF5B
:102700004D2DCE010E94FC12009709F06BC0CE0146
:102710000E94180B009709F065C06DE5CE010E947C
:10272000E40A8111C5CF6CE2CE010E94E40A811156
:10273000DBCF93E0E92EF12CBBCFF80184818078C8
:10274000806284830115110519F08FEF80838183E6
:10275000DD2009F4AACF1A86CE010E94180B00973B
:1027600009F040C06DE7CE010E94E40A8111A0CFBC
:10277000BB24BA94BD0C1D821C828A819B81892B4B
:1027800031F4888199810E9469029B838A83CE01FA
:102790000E949C0A8732E1F08232D1F0CE010E9481
:1027A0009C0AD82E0E948A0A882319F21A866D2D57
:1027B000CE010E94870FCE010E949C0AD82E0E9453
:1027C0008A0A8111F3CF8A819B81892B31F494CFBE
:1027D000CE010E94C00F009729F4CE010E94180B71
:1027E000009711F07C0164CF6AE3CE010E94E40AF5
:1027F000882309F49ECFEA81FB818C819D81E80FBB
:10280000F91F14824B855C856A817B816C5F7F4FE9
:10281000C8010E946511CB016B01672BC9F5CE0180
:102820000E949F104C016B857C85C8010E942E126E
:102830006B016115710509F45FCFFB01848180682C
:102840008483F4E08F0E911CF601978286824B2DD3
:10285000B601CE010E94FC12009721F6CE010E9423
:10286000180B009709F0BECF6DE7CE010E94E40A75
:1028700081111ECF6CE2CE010E94E40A882309F484
:1028800058CFCE010E94180B009709F474CFAACF3D
:102890006B857C850E94FC0EF601848180788483A0
:1028A000D6CFF801848180788660848381E080833C
:1028B0006CE572E0CE01DF91CF911F910F91FF90F7
:1028C000EF90DF90CF90BF90AF909F908F900C943F
:1028D000F50AF8018481807886608483108261E63D
:1028E00072E0E8CFCE010E949C0A5E01FDE0AF0ECF
:1028F000B11CD12C9A2CCB2C803374F08A3374F415
:102900009FE3D91699F01A86D394F50181935F015C
:10291000CE010E949C0AF0CF8B3291F393ED980F79
:10292000923070F3982F9F7D953451F3CD0DD11DCA
:102930001D86B801892D9C2D0E94660B8111B8CE91
:10294000F8CE8F929F92AF92BF92CF92DF92EF928A
:10295000FF920F931F93CF93DF93CDB7DEB7CE5780
:10296000D1090FB6F894DEBF0FBECDBF8E01025B5A
:102970001F4F80E092E0F8019183808312821482DD
:102980001382C8010596968B858B178A24E0208FC9
:102990002FEF218F168EED961FAE1EAEED97EF96A0
:1029A0001FAE1EAEEF9760E072E00E94640EF80169
:1029B0001282E080F180F80183819481009751F0C8
:1029C000FC0120813181F80134832383B7010E9407
:1029D000A90EF1CF168E1A8309831C821B821E82D8
:1029E0001D821F8285E194E0998788871B861D8759
:1029F0000C874AE0B801665E7F4FCE0101960E94C7
:102A0000FC127C01892B51F48A85882339F0F80166
:102A1000868D83FF03C043E0E42EF12C8B819C81E3
:102A2000009731F0E981FA81608171810E94A90EDD
:102A3000E114F10451F18CE692E00E941411F701C7
:102A4000EE0FFF1FE55EFD4F80819181009711F031
:102A50000E94141183E892E00E941411C8010E94A0
:102A6000B30EC258DF4F0FB6F894DEBF0FBECDBF16
:102A7000DF91CF911F910F91FF90EF90DF90CF905A
:102A8000BF90AF909F908F9008951A83098386E836
:102A900092E09C838B83CE0101960E94BC11ED963F
:102AA0009FAF8EAFED97EF961FAF0EAFEF97CE01B2
:102AB00085589F4F0E943A0B81115EC010922405E9
:102AC000EF968CAD9DADAEADBFADEF97E9968CAFF7
:102AD0009DAFAEAFBFAFE99782E090E0EB969FAFBE
:102AE0008EAFEB97CE018C589F4F0E94130D6B0158
:102AF0007C01EF968CAD9DADAEADBFADEF97E2968C
:102B00008CAF9DAFAEAFBFAFE29781E090E0E496AF
:102B10009FAF8EAFE497CE0183599F4F0E94130D54
:102B20004B015C01EF968CAD9DADAEADBFADEF97A7
:102B30008A839B83AC83BD831F821E82CE01019654
:102B40000E94130D60930E0570930F05809310057E
:102B5000909311058092120590921305A09214058E
:102B6000B0921505C0921605D0921705E09218058F
:102B7000F09219050E94F9071A8309832FE8E22EC3
:102B800022E0F22EFC82EB82CE0101960E94BC1163
:102B9000ED969FAF8EAFED97CE0185589F4F0E9467
:102BA0003A0B811164C01B830A83FD82EC8287E9A2
:102BB00092E09F838E83CE0101960E94CF11EF9603
:102BC0006CAF7DAF8EAF9FAFEF97CE0185589F4F13
:102BD0000E943A0B811142CFED968EAD9FADED97DD
:102BE000009709F470C00E94C90D90931903809357
:102BF00018031B830A838FE892E09D838C8381EA0C
:102C000092E09F838E83CE0101960E94CF11EF96B2
:102C10006CAF7DAF8EAF9FAFEF97CE0185589F4FC2
:102C20000E943A0B81111ACF9AE1C92E93E0D92E56
:102C3000F12CE12CEF968CAD9DADAEADBFADEF9715
:102C40008A839B83AC83BD83FF82EE82CE01019693
:102C50000E94130DF60161937193819391936F011B
:102C6000FFEFEF1AFF0A8AE0E816F10419F71A835A
:102C7000098388EAE82E82E0F82EFC82EB82CE01FE
:102C800001960E94BC11ED969FAF8EAFED97EF9627
:102C90001FAF0EAFEF97CE0185589F4F0E943A0BA2
:102CA0008111DCCE1A830983FC82EB82CE0101966E
:102CB0000E94BC11009751F00E944D0D9093430368
:102CC00080934203CBCE90E080E08FCF90E080E015
:102CD000F5CF0E94A80881110E94A11480E090E025
:102CE000892B49F080E090E0892B29F00E940000B8
:102CF00081110E94000080E090E0892B49F080E083
:102D000090E0892B29F00E94000081110E940000B0
:102D100080E090E0892B49F080E090E0892B29F059
:102D20000E94000081110C9400000895CB01BA01AB
:102D30000C9462271F920F920FB60F9211240BB6BC
:102D40000F922F933F934F935F936F937F938F9344
:102D50009F93AF93BF93EF93FF938091B900887FC8
:102D6000803609F44DC008F040C0883209F4A9C08B
:102D700028F5803109F49DC0C8F4882309F4FBC00C
:102D8000883009F496C0FF91EF91BF91AF919F9168
:102D90008F917F916F915F914F913F912F910F9004
:102DA0000BBE0F900FBE0F901F901895883109F43D
:102DB00088C0803241F78093DD0314C0803409F469
:102DC0009DC040F48033B9F38833E9F68093DD0386
:102DD00085ECB0C0803509F485C0883509F496C00B
:102DE000883489F60E94F011CECF883909F48CC05E
:102DF00038F5883729F050F4883611F0803719F605
:102E000083E08093DF031092B20357C0883809F43F
:102E10007BC0803919F0803809F0B5CF8091B203BA
:102E2000803208F071C0E091B20381E08E0F809390
:102E3000B2038091BB00F0E0EE56FC4F80833DC0B2
:102E4000803B39F0E0F4803A09F479C0883A09F01F
:102E50009ACF84E08093DF03109291031092900345
:102E6000E091B303F091B40319958091900381111F
:102E70000FC081E0809390031092700309C0803CE2
:102E800009F4A6CF883C09F4A3CF883B09F07BCF97
:102E9000E091910381E08E0F80939103F0E0E0597F
:102EA000FC4F80818093BB009091910380919003AF
:102EB00029C08091BA038093BB0085EC8093BC004D
:102EC00062CF9091DC038091DB03981758F5E09175
:102ED000DC0381E08E0F8093DC03F0E0E554FC4FCF
:102EE0008081E9CFE091DC0381E08E0F8093DC03E9
:102EF0008091BB00F0E0E554FC4F80839091DC03AF
:102F00008091DB039817C8F285E8D8CFE091DC0305
:102F100081E08E0F8093DC038091BB00F0E0E554EC
:102F2000FC4F80838091DE0381115CCF81E0809330
:102F3000B90384EA8093BC001092DF0324CF85ECB0
:102F40008093BC001092DF038091B203803230F492
:102F5000E091B203F0E0EE56FC4F10826091B203B4
:102F600070E0E091B503F091B60382E993E0199522
:102F70001092B20308CF1092DD0334CF1F920F924C
:102F80000FB60F9211242F933F938F939F93AF937C
:102F9000BF938091470390914803A0914903B0915A
:102FA0004A033091460323E0230F2D3758F501964D
:102FB000A11DB11D209346038093470390934803BE
:102FC000A0934903B0934A0380914B0390914C0323
:102FD000A0914D03B0914E030196A11DB11D8093A8
:102FE0004B0390934C03A0934D03B0934E03BF91BA
:102FF000AF919F918F913F912F910F900FBE0F90A6
:103000001F90189526E8230F0296A11DB11DD2CF5F
:103010001F920F920FB60F9211240BB60F922F939F
:103020003F934F935F936F937F938F939F93AF9350
:10303000BF93EF93FF938091110390911203A0919E
:103040001303B0911403892B8A2B8B2BD1F1909110
:103050001003809100008927809300008091110364
:1030600090911203A0911303B0911403181619063E
:103070001A061B069CF48091110390911203A091F3
:103080001303B09114030197A109B10980931103AF
:1030900090931203A0931303B0931403FF91EF9145
:1030A000BF91AF919F918F917F916F915F914F9160
:1030B0003F912F910F900BBE0F900FBE0F901F905E
:1030C000189580910202ECE3F2E0E4919FEF909377
:1030D0000202E230E9F040F4EE2389F0E13091F0B1
:1030E00060E00E941F04DACFE43049F110F1E530CE
:1030F000B9F7909173009D7F90937300F1CF109278
:103100006E00EECF90916F009D7F90936F00E8CF9F
:10311000909170009D7F9093700091E09093B0002B
:103120009091B100987F94609093B1001092B30099
:10313000D7CF909171009D7F90937100D1CF9091E6
:1031400072009D7F90937200CBCF1F920F920FB6AB
:103150000F9211240BB60F922F933F934F935F93CF
:103160006F937F938F939F93AF93BF93EF93FF934F
:1031700085E194E00E94B208FF91EF91BF91AF9179
:103180009F918F917F916F915F914F913F912F917F
:103190000F900BBE0F900FBE0F901F9018951F92AF
:1031A0000F920FB60F9211240BB60F922F938F939D
:1031B0009F93EF93FF93E0912504F0912604808183
:1031C000E0912B04F0912C0482FD1DC09081809130
:1031D0002E048F5F8F7320912F04821741F0E091AE
:1031E0002E04F0E0EB5EFB4F958F80932E04FF9151
:1031F000EF919F918F912F910F900BBE0F900FBE6B
:103200000F901F9018958081F2CF1F920F920FB6EA
:103210000F9211240BB60F922F933F934F935F930E
:103220006F937F938F939F93AF93BF93CF93DF93CE
:10323000EF93FF9380910F03C091EE04D0E087FFDE
:1032400023C0109285001092840080910F038F5F3D
:1032500080930F0380910F03082E000C990B8C179D
:103260009D0724F480910F038C3074F180918400C9
:103270009091850084349C4908F465C08091840055
:1032800090918500049661C080910F03082E000C78
:10329000990B8C179D07CCF630910F0325E0320374
:1032A000F0011124EE54FB4F808186FFCECF309188
:1032B0000F033203F0011124EE54FB4F808160E0D4
:1032C0008F730E941F04C1CF80918400909185006C
:1032D00030910F0325E03203F0011124EE54FB4F2F
:1032E00041815281840F951F9093890080938800BB
:1032F00030910F033203F0011124EE54FB4F808113
:1033000086FF0CC030910F033203F0011124EE54FC
:10331000FB4F808161E08F730E941F04FF91EF914A
:10332000DF91CF91BF91AF919F918F917F916F91DD
:103330005F914F913F912F910F900BBE0F900FBE59
:103340000F901F90189580E49CE9909389008093DA
:1033500088008FEF80930F03E1CF0F931F9310929C
:103360000C0410920B0488EE93E0A0E0B0E0809390
:103370000D0490930E04A0930F04B09310042BE25D
:1033800032E030930A04209309041092180410923A
:1033900017048093190490931A04A0931B04B0930C
:1033A0001C048DE392E0909316048093150485EC41
:1033B00090E0909322048093210484EC90E0909319
:1033C00024048093230480EC90E09093260480935F
:1033D000250481EC90E0909328048093270482ECEC
:1033E00090E090932A048093290486EC90E09093D7
:1033F0002C0480932B0410922E0410922F04109210
:103400003004109231048DEC9CECACECBEE3809364
:10341000A8059093A905A093AA05B093AB058DECE0
:103420009CECACE4BEE38093AC059093AD05A09317
:10343000AE05B093AF0543E353E363E37FE340930B
:10344000B0055093B1056093B2057093B3050DECD0
:103450001CEC2CEC3DE30093B4051093B5052093D0
:10346000B6053093B705409398055093990560933E
:103470009A0570939B0580939C0590939D05A0935E
:103480009E05B0939F0540E050E060E87FE34093E5
:10349000A0055093A1056093A2057093A305109217
:1034A000A4051092A5051092A6051092A7054DEC53
:1034B0005CEC6CE47DEB4093880550938905609348
:1034C0008A0570938B0580938C0590938D05A0934E
:1034D0008E05B0938F058DEC9CECACE4BDE380933E
:1034E000900590939105A0939205B0939305109247
:1034F00094051092950510929605109297058CE010
:1035000080935A0584E280935B0585E080935C0597
:1035100096E090935D059EE190935E059FE1909308
:103520005F0592E29093600593E29093610594E4C5
:103530009093620595E4909363051092650510924F
:10354000640590E49093670510926C0510926D05E8
:1035500010926E0510926F05109270051092710511
:10356000109272051092730598E0E9E0F2E0ACE782
:10357000B5E001900D929A95E1F740E050E060EAE5
:1035800070E440938405509385056093860570939D
:103590008705E091EE04EC3008F0DAC091E09E0F70
:1035A0009093EE04E09359058E9FF0011124EE54A0
:1035B000FB4F88EB9BE09283818388E680934A05EA
:1035C00010920E0510920F05109210051092110521
:1035D0001092120510921305109214051092150501
:1035E00010921605109217051092180510921905E1
:1035F00010921B0510921A0510921D0510921C05C1
:1036000010921F0510921E051092200510922105A0
:103610001092220510922305109224051092250580
:103620001092320510923305109234051092350530
:103630001092360510923705109238051092390510
:1036400080E090E0A0EAB0E480933A0590933B05D7
:10365000A0933C05B0933D0580E090E0A8ECB2E477
:1036600080933E0590933F05A0934005B09341059C
:1036700010924205109243051092440510924505A0
:103680001092460510924705109248051092490580
:10369000E091EE04EC3008F05FC081E08E0F809383
:1036A000EE04E0930D0585E0E89FF0011124EE544F
:1036B000FB4F88EB9BE09283818384EE9BECA6E139
:1036C000B0EC8093FD049093FE04A093FF04B093AC
:1036D000000584EE9BECA6E1B0E480930105909395
:1036E0000205A0930305B093040588E296EAA6E9D3
:1036F000BFEB8093050590930605A0930705B09353
:1037000008058EE293EEADE4B8E38093EF04909366
:10371000F004A093F104B093F20480E090E0A0E004
:10372000BFE38093F3049093F404A093F504B09363
:10373000F6041092F8041092F7041092FA04109212
:10374000F9041092FC041092FB041F910F9108954C
:103750008FEF8093590531CF8FEF80930D05ADCF5B
:10376000CF93DF93CDB7DEB7A6970FB6F894DEBF41
:103770000FBECDBF789484B5826084BD84B581606E
:1037800084BD85B5826085BD85B5816085BD80912C
:103790006E00816080936E001092810080918100A4
:1037A000826080938100809181008160809381009C
:1037B000809180008160809380008091B10084605E
:1037C0008093B1008091B00081608093B0008091BF
:1037D000910082608093910080919100816080933C
:1037E0009100809190008160809390008091A10071
:1037F00082608093A1008091A10081608093A100EC
:103800008091A00081608093A0008091210182605E
:103810008093210180912101816080932101809119
:10382000200181608093200180917A0084608093E0
:103830007A0080917A00826080937A0080917A0089
:10384000816080937A0080917A00806880937A000A
:103850001092C100E0912504F091260482E080835B
:10386000E0912104F09122041082E0912304F09170
:1038700024048FEC808310922D04E0912904F091B0
:103880002A0486E08083E0912704F0912804808157
:1038900080618083E0912704F09128048081886012
:1038A0008083E0912704F0912804808180688083E0
:1038B000E0912704F091280480818F7D808361E06E
:1038C00080915B050E948C0460E080915B050E9402
:1038D0001F0460E080915A050E948C048091640569
:1038E00090916505892BA9F486E090E00E943D2621
:1038F000FC0180916705808389E094E09283818355
:10390000138280E290E095838483F0936505E093D1
:103910006405E0906405F09065051092B80310927C
:10392000B7031092E603109208040E944D0480EE43
:1039300092E09093B4038093B30381EE92E090936E
:10394000B6038093B50311E0D70113961C93C7010A
:103950000E94B407882309F45BC080E090E1A0E0F6
:10396000B0E08093680590936905A0936A05B093D1
:103970006B058AE090E0A0E0B0E080936C05909346
:103980006D05A0936E05B0936F0580E090E0A0E018
:10399000B0E48093700590937105A0937205B09385
:1039A000730580916405909165051BA21CA21DA260
:1039B0001EA29D8B8C8B1F8A1E8A1D8F85E090E036
:1039C0009B8F8A8F1E8F02E00C8F40E050E160E0F9
:1039D00070E0CE0144960E940907809164059091A1
:1039E0006505188A198A1A8A1B8A9A8389831C8218
:1039F0001B821A8718861F821B8709874FE959E3A4
:103A000060E070E0CE0101960E9409078093660590
:103A10006CE5E62E65E0F62E0AE515E07EE5A72EBC
:103A200075E0B72EE0EC4E2EE2E05E2EF6E06F2E53
:103A3000F3E07F2EABECCA2EA7E0DA2EBBE88B2E8C
:103A400099249394F7019281D7018D917D01F8011A
:103A5000828F938F61E00E948C0461E0D8015B96B5
:103A60008C910E948C04F70195818381D8015E9628
:103A70008C935E975F969C9361E00E948C0460E05B
:103A8000F801878D0E948C0461E0D8015E968C91CC
:103A90000E941F043FB6F89480911503811125C040
:103AA000F2018491F3019491E82FF0E0EE0FFF1FF3
:103AB000E35CFD4FA591B4918C91982321F461E0D2
:103AC00085E30E941F0461E085E30E948C048CB5AD
:103AD00080618CBD8CB580648CBD61E084E30E9404
:103AE0008C0461E083E30E948C04809115038F5F56
:103AF000809315033FBEC6010197F1F760E0D8013E
:103B00005E968C910E941F0488E80E94680A83E0F8
:103B10000E94680A61E0F801868D0E941F04C601B8
:103B20000197F1F760E0D8015E968C910E941F0426
:103B300088E90E94680A80E00E94680A80E00E948A
:103B4000680A80E00E94680A80E00E94680A61E0DA
:103B5000F801868D0E941F04C4010197F1F760E00F
:103B6000D8015E968C910E941F0480EE0E94680A24
:103B700061E0F801868D0E941F040E5F1F4FA016A2
:103B8000B10609F05FCF60E08DE30E948C0460E035
:103B900081E10E948C0460E08FE00E948C0460E070
:103BA0008EE00E948C0460E080E10E948C04809191
:103BB0000D058C3008F047C061E088E00E948C045D
:103BC00080910D0525E0829FF0011124EE54FB4FFA
:103BD0009081907C98609083138214822CE0622FF5
:103BE0000E949B24829FB001112430E020E095E0E8
:103BF000AB01420F531F949FF001959FF00D1124CC
:103C0000EE54FB4F408146FD13C02F5F3F4F2C30D9
:103C1000310571F781110CC01092800082E0809311
:103C20008100109285001092840086BB80936F0003
:103C3000E0910D0565E0E69FF0011124EE54FB4F85
:103C400080818064808380E090E0A0E8BEE3809380
:103C50000E0590930F05A0931005B09311058DEC00
:103C60009CECACECBDE38093120590931305A093FC
:103C70001405B093150510921605109217051092B1
:103C80001805109219058FE692E1A3E8BAE3809334
:103C90003A0590933B05A0933C05B0933D0588EC15
:103CA00090E0A0E0B0E080932A0590932B05A093CC
:103CB0002C05B0932D058DEC9CECACE4BEE3809319
:103CC000260590932705A0932805B093290587E33F
:103CD00098E090931B0580931A058DE091E19093F5
:103CE0001D0580931C051E0171E1270E311C0E94E9
:103CF000ED072091440330914503621B730B81094A
:103D000091096333710581059105B8F16091F7045C
:103D10007091F804072E000C880B990B0E941B234E
:103D20002091EF043091F0044091F1045091F2049D
:103D30000E947A232091F3043091F4044091F50419
:103D40005091F6040E94B0246B017C014B015C0190
:103D5000AC019B010E943826882309F437C08EEA03
:103D600092E00E94141183E892E00E9414110E94D4
:103D7000ED0770934503609344038FE00E94F603C0
:103D8000892B21F088E090E00E94470B81E10E949E
:103D9000F603892B21F087E090E00E94470BE09129
:103DA0004203F09143033197E830F10508F0A9C0D0
:103DB0008827E252F14E8F4F0C94A724731F981F4F
:103DC000D91FEC1F2D206E208C2081202601370169
:103DD000E89477F82FEF3FEF4FE75FE7C301B201B9
:103DE0000E94382681110DC02FEF3FEF4FE75FE7AC
:103DF000C301B2010E94142318161CF482EB92E056
:103E0000B0CF2FEF3FEF4FE75FE4C701B6010E944D
:103E1000332618161CF486EB92E0A3CF2FEF3FEF6A
:103E20004FE75FECC701B6010E94142387FDF3CF73
:103E300020E030E0A901C701B6010E94142387FFEA
:103E40000BC06DE285E194E00E94D4084601570161
:103E5000B7FAB094B7F8B09426E73CEC4BEA51E3DC
:103E6000C501B4010E94B0246B017C010E94AC2505
:103E70004B015C010E9419239B01AC01C701B601F3
:103E80000E94AF246B017C014AE0C501B4010E948D
:103E900021116EE285E194E00E94D40819E01150EE
:103EA00009F461CF20E030E040E251E4C701B601FF
:103EB0000E947A234B015C010E94AC256B01F12C1E
:103EC000E12C4AE0C701B6010E942111C701B601E9
:103ED0000E9419239B01AC01C501B4010E94AF24CB
:103EE0006B017C01DCCF0E94E4012AE037ED43EA5C
:103EF0005CE30E94142387FFC0C182E090E00E942F
:103F0000470BE0914203F0914303E930F10508F0DB
:103F1000DDC18827E157F04E8F4F0C94A7244C2227
:103F20003D210A214821972047225F2192208720A6
:103F300020E030E0A90160918805709189058091A9
:103F40008A0590918B050E94142387FF63C120E0AE
:103F500030E0A901609190057091910580919205E2
:103F6000909193050E94332618160CF053C120E05F
:103F700030E0A90160918C0570918D0580918E05CE
:103F800090918F050E94332618160CF043C120E053
:103F900030E0A90160919405709195058091960596
:103FA000909197050E94142387FF34C190E080E030
:103FB000A6CF0E94ED072091160330911703621BD4
:103FC000730B81099109693E73408105910508F4DD
:103FD0005FC184E090E093CF20E030E0A9016091E0
:103FE000A8057091A9058091AA059091AB050E9442
:103FF000142387FF9CC020E030E0A9016091B00548
:104000007091B1058091B2059091B3050E9433265D
:1040100018160CF08CC020E030E0A9016091AC05CE
:104020007091AD058091AE059091AF050E94332649
:1040300018160CF07CC020E030E0A9016091B405B6
:104040007091B5058091B6059091B7050E94142333
:1040500087FF6DC085E090E052CF20E030E0A901FD
:10406000609198057091990580919A0590919B05B2
:104070000E94142387FF0BC220E030E0A901609169
:10408000A0057091A1058091A2059091A3050E94C1
:10409000332618160CF0FBC120E030E0A901609136
:1040A0009C0570919D0580919E0590919F050E94B1
:1040B000332618160CF0EBC120E030E0A901609126
:1040C000A4057091A5058091A6059091A7050E9471
:1040D000142387FFDCC186E090E011CF0E94ED073A
:1040E0002091160330911703621B730B810991090C
:1040F000693C71058105910508F4E1C081E090E01B
:10410000FECE8FE00E94F603892B09F44FCF4DECD1
:104110005CEC6CE47FE3ACC081E10E94F603892B88
:1041200009F444CF4DEC5CEC6CE47FEBA1C00E9441
:10413000ED072091180330911903A9014C595F4FE5
:104140004617570708F462C0621B730B90E080E0CB
:104150000E94192320E030E040E251E40E94332520
:104160004B015C010E941C252B013C01C501B401DF
:104170000E94DB250E94AC256B0190E080E00E944C
:1041800019239B01AC01C501B4010E94AF244B016E
:104190005C01CC0CDD1CCC0CDD1CF601E85EFC4F98
:1041A0006F01AC019B0160E070E080E89FE30E943A
:1041B000AF24D60112962D913D914D915C911597AA
:1041C0000E947A236B017C01C301B2010E94AC25DD
:1041D000660F771F660F771F685E7C4FFB01228199
:1041E000338144815581C501B4010E947A239B012A
:1041F000AC01C701B6010E94B02460932005709302
:104200002105809322059093230560C060E070E053
:10421000CB01F3CF6091F7047091F804072E000CE6
:10422000880B990B0E941B232091EF043091F0041E
:104230004091F1045091F2040E947A232091F304FA
:104240003091F4044091F5045091F6040E94B0249A
:1042500020E030E0A9010E9414234DEC5CEC6CECF2
:104260007DEB87FF04C04DEC5CEC6CEC7DE370589B
:1042700086E795E00E94410929C00E94E4012DECE7
:104280003CEC4CE45EEB0E947A23AB01BC01EFCF27
:1042900040E050E060E070E886E795E00E94410968
:1042A0000E94ED072091160330911703621B730BD8
:1042B00081099109643F71408105910518F490E0EE
:1042C00080E002C084EB90E00E948E0280917B002F
:1042D000877F80937B0077E470937C0080917A00E5
:1042E000806480937A0080917A0086FDFCCF809173
:1042F0007800909179002091090530910A0530935A
:104300000C0520930B0590930A058093090560E046
:1043100080917A050E941F0480E60E94680A8E013F
:104320000F5F1F4F780180E00E94680A90E0B0E0C4
:10433000A0E0F70181939193A193B1937F01E215DE
:10434000F30589F761E080917A050E941F0480E0FF
:1043500090E0DC01F80141915191619171918F01DF
:10436000BA2FA92F982F8827840F951FA61FB71F34
:10437000EE16FF0679F72091F7043091F80440918A
:10438000F9045091FA04B901641B750B7093FC0495
:104390006093FB043093FA042093F904B095A09540
:1043A000909581959F4FAF4FBF4F9093F8048093A6
:1043B000F7040E94ED07009132051091330520911A
:1043C000340530913505601771078207930708F4AB
:1043D0005BC080912405882309F456C00E94ED0734
:1043E00000912A0510912B0520912C0530912D0567
:1043F000DC01CB01800F911FA21FB31F80933205F8
:1044000090933305A0933405B0933505C0902005F3
:10441000D0902105E0902205F0902305E0911A0547
:10442000F0911B0519959B01AC01C701B6010E94D3
:10443000AF246B017C019F7720913A0530913B05B9
:1044400040913C0550913D050E94142387FF29C0EF
:1044500081E08093250510922405E0911E05F091DE
:104460001F05309709F01995809132059091330519
:10447000A0913405B09135058093360590933705AA
:10448000A0933805B09339050E94691630CC60E0DE
:1044900070E080E090E4B1CE40E050E060E070E891
:1044A000E7CE00911C0510911D050E94ED0780903C
:1044B000360590903705A0903805B09039056819F9
:1044C00079098A099B0960932E0570932F058093C3
:1044D000300590933105209142053091430540917C
:1044E000440550914505C701B6010E94B024609370
:1044F0004205709343058093440590934505809051
:104500003E0590903F05A0904005B0904105A50163
:1045100094010E943326181644F48092420590922A
:104520004305A0924405B0924505B7FAB094B7F898
:10453000B094A5019401609142057091430580916A
:104540004405909145050E94142387FF08C080927E
:10455000420590924305A0924405B0924505809093
:10456000260590902705A0902805B0902905209158
:1045700042053091430540914405509145056091B5
:1045800012057091130580911405909115050E94F4
:104590007A23A50194010E947A232B013C012091EA
:1045A0000E0530910F054091100550911105C7017E
:1045B000B6010E947A239B01AC01C301B2010E94A3
:1045C000B0242B013C0120914605309147054091D4
:1045D000480550914905C701B6010E94AF242091BA
:1045E00016053091170540911805509119050E9444
:1045F0007A23A50194010E9433259B01AC01C301DC
:10460000B2010E94B024C0924605D0924705E092C4
:104610004805F0924905F801199526CF8091640567
:10462000909165050C94D9260E94562308F481E0E8
:104630000895E89409C097FB3EF490958095709595
:1046400061957F4F8F4F9F4F9923A9F0F92F96E9DE
:10465000BB279395F695879577956795B795F11153
:10466000F8CFFAF4BB0F11F460FF1BC06F5F7F4FF0
:104670008F4F9F4F16C0882311F096E911C0772302
:1046800021F09EE8872F762F05C0662371F096E80B
:10469000862F70E060E02AF09A95660F771F881FDA
:1046A000DAF7880F9695879597F90895990F00087E
:1046B000550FAA0BE0E8FEEF16161706E807F907F4
:1046C000C0F012161306E407F50798F0621B730B8F
:1046D000840B950B39F40A2661F0232B242B252B10
:1046E00021F408950A2609F4A140A6958FEF811DB3
:1046F000811D08950E948D230C94FE230E94F023B7
:1047000038F00E94F72320F0952311F00C94E72352
:104710000C94ED2311240C9432240E940F2470F386
:10472000959FC1F3950F50E0551F629FF001729F56
:10473000BB27F00DB11D639FAA27F00DB11DAA1F65
:10474000649F6627B00DA11D661F829F2227B00DB2
:10475000A11D621F739FB00DA11D621F839FA00D3D
:10476000611D221F749F3327A00D611D231F849F8D
:10477000600D211D822F762F6A2F11249F575040E4
:104780009AF0F1F088234AF0EE0FFF1FBB1F661F5F
:10479000771F881F91505040A9F79E3F510580F028
:1047A0000C94E7230C9432245F3FE4F3983ED4F357
:1047B000869577956795B795F795E7959F5FC1F7CC
:1047C000FE2B880F911D9695879597F9089597F977
:1047D0009F6780E870E060E008959FEF80EC0895A7
:1047E00000240A94161617061806090608950024D0
:1047F0000A9412161306140605060895092E03944A
:10480000000C11F4882352F0BB0F40F4BF2B11F4BD
:1048100060FF04C06F5F7F4F8F4F9F4F089557FD1C
:104820009058440F551F59F05F3F71F04795880F1E
:1048300097FB991F61F09F3F79F0879508951216B5
:1048400013061406551FF2CF4695F1DF08C0161661
:1048500017061806991FF1CF869571056105089412
:104860000895E894BB2766277727CB0197F9089529
:10487000052E97FB1EF400940E944F2457FD07D08D
:104880000E946A2407FC03D04EF40C944F245095E8
:104890004095309521953F4F4F4F5F4F089590952C
:1048A0008095709561957F4F8F4F9F4F08950E941F
:1048B0008C24A59F900DB49F900DA49F800D911DF9
:1048C00011240895B7FF0C9457240E945724821B8B
:1048D000930B0895A1E21A2EAA1BBB1BFD010DC06C
:1048E000AA1FBB1FEE1FFF1FA217B307E407F507A0
:1048F00020F0A21BB30BE40BF50B661F771F881F7C
:10490000991F1A9469F760957095809590959B0111
:10491000AC01BD01CF010895A29FB001B39FC001BA
:10492000A39F700D811D1124911DB29F700D811DDB
:104930001124911D0895991B79E004C0991F9617C1
:1049400008F0961B881F7A95C9F780950895EE0F99
:10495000FF1F881F8BBF0790F691E02D19945058C8
:10496000BB27AA270E94C7240C94FE230E94F02391
:1049700038F00E94F72320F039F49F3F19F426F411
:104980000C94ED230EF4E095E7FB0C94E723E92F5C
:104990000E940F2458F3BA1762077307840795071C
:1049A00020F079F4A6F50C9431240EF4E0950B2E4A
:1049B000BA2FA02D0B01B90190010C01CA01A00171
:1049C0001124FF27591B99F0593F50F4503E68F1CC
:1049D0001A16F040A22F232F342F4427585FF3CF0D
:1049E000469537952795A795F0405395C9F77EF4DE
:1049F0001F16BA0B620B730B840BBAF09150A1F027
:104A0000FF0FBB1F661F771F881FC2F70EC0BA0FAC
:104A1000621F731F841F48F4879577956795B79534
:104A2000F7959E3F08F0B0CF9395880F08F099272F
:104A3000EE0F9795879508950E941B2690F09F375B
:104A400048F4911116F40C94322460E070E080E890
:104A50009FE3089526F01B16611D711D811D0C94A6
:104A6000F2250C940D260E9447250C94FE230E94EB
:104A7000F72358F00E94F02340F029F45F3F29F01B
:104A80000C94E72351110C9432240C94ED230E94D2
:104A90000F2468F39923B1F3552391F3951B550B1C
:104AA000BB27AA2762177307840738F09F5F5F4F01
:104AB000220F331F441FAA1FA9F335D00E2E3AF040
:104AC000E0E832D091505040E695001CCAF72BD058
:104AD000FE2F29D0660F771F881FBB1F26173707A9
:104AE0004807AB07B0E809F0BB0B802DBF01FF27DB
:104AF00093585F4F3AF09E3F510578F00C94E723AE
:104B00000C9432245F3FE4F3983ED4F38695779576
:104B10006795B795F7959F5FC9F7880F911D969593
:104B2000879597F90895E1E0660F771F881FBB1FEF
:104B3000621773078407BA0720F0621B730B840B9C
:104B4000BA0BEE1F88F7E09508950E94AC25689493
:104B5000B1110C94322408950E94172488F09F57B5
:104B600098F0B92F9927B751B0F0E1F0660F771F91
:104B7000881F991F1AF0BA95C9F714C0B13091F087
:104B80000E943124B1E008950C943124672F782FCE
:104B90008827B85F39F0B93FCCF38695779567954C
:104BA000B395D9F73EF490958095709561957F4FB8
:104BB0008F4F9F4F08950E941B2690F09F3748F417
:104BC000911116F00C94322460E070E080E89FEBC5
:104BD000089526F41B16611D711D811D0C94F2258C
:104BE0000C940D26882371F4772321F09850872B9D
:104BF000762F07C0662311F499270DC09051862B9C
:104C000070E060E02AF09A95660F771F881FDAF748
:104C1000880F9695879597F908959F3F31F09150A9
:104C200020F4879577956795B795880F911D969590
:104C3000879597F908950E941724A0F0BEE7B91749
:104C400088F4BB279F3860F41616B11D672F782FA4
:104C50008827985FF7CF869577956795B11D9395CF
:104C60009639C8F308950E94562308F48FEF0895EB
:104C70000E945623880B990B08950F931F93CF938F
:104C8000DF938230910510F482E090E0E091BA0564
:104C9000F091BB0530E020E0B0E0A0E0309799F45F
:104CA0002115310509F44AC0281B390B2430310580
:104CB000D8F58A819B816115710589F1FB01938388
:104CC0008283FE0111C04081518102811381481706
:104CD0005907E0F04817590799F4109761F01296B8
:104CE0000C93129713961C933296CF01DF91CF91BC
:104CF0001F910F9108950093BA051093BB05F4CF4F
:104D00002115310551F04217530738F0A901DB0195
:104D10009A01BD01DF01F801C1CFEF01F9CF9093F6
:104D2000BB058093BA05CDCFFE01E20FF31F81933F
:104D300091932250310939832883D7CF2091B80528
:104D40003091B905232B41F42091050230910602E0
:104D50003093B9052093B8052091030230910402E5
:104D60002115310541F42DB73EB74091070250910E
:104D70000802241B350BE091B805F091B905E21744
:104D8000F307A0F42E1B3F0B2817390778F0AC016E
:104D90004E5F5F4F2417350748F04E0F5F1F50934B
:104DA000B9054093B805819391939FCFF0E0E0E07F
:104DB0009CCFCF93DF930097E9F0FC0132971382E9
:104DC0001282A091BA05B091BB05ED0130E020E060
:104DD0001097A1F420813181820F931F2091B80593
:104DE0003091B9052817390709F061C0F093B9056A
:104DF000E093B805DF91CF910895EA01CE17DF0760
:104E0000E8F54A815B819E0141155105B1F7E90141
:104E1000FB83EA8349915991C40FD51FEC17FD0715
:104E200061F4808191810296840F951FE901998335
:104E30008883828193819B838A83F0E0E0E01296ED
:104E40008D919C9113970097B9F52D913C911197F5
:104E5000CD010296820F931F2091B8053091B905BC
:104E60002817390739F6309751F51092BB05109283
:104E7000BA05B093B905A093B805BCCFD383C2835C
:104E800040815181840F951FC817D90761F44E5F87
:104E90005F4F88819981480F591F518340838A81D0
:104EA0009B81938382832115310509F0B0CFF09364
:104EB000BB05E093BA059ECFFD01DC01C0CF138294
:104EC0001282D7CF4F925F926F927F928F929F9272
:104ED000AF92BF92CF92DF92EF92FF920F931F9308
:104EE000CF93DF938C01009799F4CB01DF91CF91A1
:104EF0001F910F91FF90EF90DF90CF90BF90AF90F8
:104F00009F908F907F906F905F904F900C943D2674
:104F1000FC01E60FF71F9C0122503109E217F3074D
:104F200008F4AEC0D901CD91DC911197C617D7070F
:104F300020F1C530D10578F0CE0104978617970788
:104F400050F0C61BD70B2297C193D1936D937C93DE
:104F5000CF010E94D926C801DF91CF911F910F91F7
:104F6000FF90EF90DF90CF90BF90AF909F908F9089
:104F70007F906F905F904F9008955B01AC1ABD0ACF
:104F80004C018C0E9D1EA091BA05B091BB05512C11
:104F9000412CF12CE12C109731F58091B8059091BE
:104FA000B9058815990509F05CC04616570608F042
:104FB00058C08091030290910402009741F48DB78C
:104FC0009EB74091070250910802841B950BE81789
:104FD000F90708F055C0F093B905E093B805F90159
:104FE00071836083B8CF8D919C91119712966C90CC
:104FF000129713967C901397A815B90559F56C0173
:1050000042E0C40ED11CCA14DB0420F1AC014A19E1
:105010005B09DA011296159780F0628273825183E0
:105020004083D9016D937C93E114F10471F0D701B1
:105030001396FC93EE9312978ECF22968C0F9D1FA2
:10504000F90191838083F301EFCFF093BB05E093E7
:10505000BA0581CF4816590608F42C017D01D30109
:105060009ACFCB010E943D267C01009749F0AE010A
:10507000B8010E944328C8010E94D92687016BCF3E
:1050800010E000E068CFFB01DC0102C001900D924E
:1050900041505040D8F7089511E0C0EBD1E000E056
:1050A00006C0802FFE010E94A7242196011DC13B4E
:0C50B000D10780E00807A9F7F894FFCFB3
:1050BC001502FF0000BC05800030003100320033C7
:1050CC00000000000028122B129616BA02BD02C86E
:1050DC0002D802E502EE0200000000600333036810
:1050EC000809032C0319030A0300000000D4083B31
:1050FC00086B0821099C087A088E082F2F22225C45
:10510C005C6208660C6E0A720D7409007472756527
:10511C000066616C7365006E756C6C00646573651C
:10512C007269616C697A652829206661696C6564AD
:10513C003A20000D0A005049444761696E730063C0
:10514C006F6D6D616E6400737461727454696D651A
:10515C0000616363656C73007374617465006E61E8
:10516C006E00696E66006F7666004F6B00456D7061
:10517C007479496E70757400496E636F6D706C65EF
:10518C007465496E70757400496E76616C6964491A
:10519C006E707574004E6F4D656D6F727900546F43
:0651AC006F446565700010
:00000001FF
