:100000000C94CE010C94FF010C94FF010C94FF01A1
:100010000C94FF010C94FF010C94FF010C94FF0160
:100020000C94FF010C94FF010C94FF010C94FF0150
:100030000C94FF010C94821D0C94FF010C94FF01A1
:100040000C94FF010C947F1E0C94FF010C94FF0193
:100050000C94FF010C94FF010C94FF010C94381DCB
:100060000C94FF010C94491E0C941F1E0C94FF016C
:100070000C94FF010C94FF010C94FF010C94FF0100
:100080000C94FF010C94FF010C94FF010C94FF01F0
:100090000C94FF010C94FF010C94FF010C94141CB0
:1000A0000C94FF010C94FF010C94FF010C94FF01D0
:1000B0000C94FF010C94FF010C94FF010C94FF01C0
:1000C0000C94FF010C94FF010C94FF010C94FF01B0
:1000D0000C94FF010C94FF010C94FF010C94FF01A0
:1000E0000C94FF0105A84CCDB2D44EB93836A90204
:1000F0000C50B9918688083CA6AAAA2ABE00000026
:10010000803F0C947B070C9428030C94B2020C944F
:10011000A8070C9420270C94240B0C9452270C94C1
:1001200014030C949A260C9400090C9444030C9428
:1001300005030C94AB070C9462090C9436030C94E1
:100140004E160C9483260C94B82A0C9472070C94C7
:1001500099090C9447270C94942B0C9420090C9427
:10016000B7250C947E020C9414080C943C270C9434
:1001700071090C9465260C94D2250C9411090C94E9
:100180007F160C94A0120C945C020C94B12A0C946F
:100190000D030C94C52A0C943C090C94962A0C94DB
:1001A00033020C9440030C942A090C94CE070C944F
:1001B000A3090C943A030C941E030C94320B0C9478
:1001C000BE260C941A030C94FF020C9434090C9470
:1001D0006B020C9444090C9425270C944E090C9442
:1001E0003F030C9485090C9458090C9424030C9437
:1001F0005B020C9411030C947A0B0C9409030C947D
:1002000032020C94271F0C9416090C9437260C9478
:1002100042270C94BB160C944D270C948F090C9418
:1002200061080C94BA070C947B090C9485020C9419
:1002300032030C94DE260C94DC070C94F2260C940A
:10024000CA2A0C942C03CDCCCC3D0AD7233C17B73B
:10025000D13877CC2B329595E6241FB14F0A000098
:1002600020410000C84200401C4620BCBE4CCA1BB6
:100270000E5AAEC59D740200002100240027002AFA
:10028000002D003000330001010000040107010AC5
:100290000100002200250028002B002E0031003430
:1002A0000002010000050108010B010000200023ED
:1002B00000260029002C002F00320000010000035E
:1002C00001060109010505050507050808080802DA
:1002D0000202020A0A0808040404040101010101DF
:1002E0000101010303030303030303040707070CCE
:1002F0000C0C0C0C0C0C0C02020202060606060684
:100300000606060B0B0B0B0B0B0B0B010210202030
:100310000808102040102040800201020108040259
:1003200001010204081020408080402010080402CF
:100330000180040201804020100804020108040228
:10034000010102040810204080010204081020402E
:100350008000000A0B02090C0D0E080703040100BF
:10036000000000000000000000000000000000008D
:10037000000000000000000000000000001211104A
:10038000000000000000000000000000000000006D
:100390000000000000000000271F942B11241FBE46
:1003A000CFEFD1E2DEBFCDBF00E00CBF12E0A0E096
:1003B000B2E0EAE9F2E600E00BBF02C007900D925E
:1003C000A83EB107D9F725E0A8EEB2E001C01D9222
:1003D000A437B207E1F711E0CDECD1E000E006C0B0
:1003E00021970109802FFE010E94162DCC3CD107D8
:1003F00080E00807A9F70E94FB200C943B310C9485
:100400000000CF93DF93EC0188819981DC01ED91AD
:10041000FC910190F081E02D64E270E01995009765
:1004200041F02FE1FC01238321E02283DF91CF9172
:10043000089521E02A83FACF80917B00877F809303
:100440007B0087E480937C0080917A0080648093B5
:100450007A0080917A0086FDFCCF8091780090919F
:10046000790008950895089520914003260F3327B9
:10047000331F21323105ECF42091AF03FC0190E0F1
:1004800080E0243069F082E00895A091400321913A
:10049000AC01405E5C4FA40FB52FB11D2C930196AB
:1004A000861798F380914003680F6093400380E0C3
:1004B000089581E008950895E0918803809187036D
:1004C000E81730F4F0E0ED59FC4F808190E008959A
:1004D0008FEF9FEF089590918803809187032FEF0E
:1004E0003FEF981748F4E92FF0E0ED59FC4F2081D9
:1004F00030E09F5F90938803C9010895809187033E
:1005000090918803891B990B0895CF92DF92EF9207
:10051000FF920F931F93CF93DF937C01CB018A014E
:100520002091B503222389F0EB016B01C40ED51E87
:10053000CC15DD0569F06991D701ED91FC91019031
:10054000F081E02DC7011995F3CF642F0E9434028A
:10055000C801DF91CF911F910F91FF90EF90DF9035
:10056000CF900895CF93DF931F92CDB7DEB7698305
:100570002091B5032223F9F02091D803203258F0BE
:1005800021E030E0FC013383228390E080E00F9093
:10059000DF91CF9108958091B603E82FF0E0E95400
:1005A000FC4F998190838F5F8093B6038093D8032B
:1005B00081E090E0ECCF61E0CE0101960E94340230
:1005C000F7CF8150823108F05AC0E82FF0E0882739
:1005D000E351FD4F8F4F0C94162D0D031103FF02B5
:1005E000050309033F0314031A031E03240328030E
:1005F0002C03320336033F033A0340034403809144
:1006000080008F77809380000895809180008F7D97
:10061000F9CF80918000877FF5CF84B58F7784BD37
:10062000089584B58F7DFBCF8091B0008F77809344
:10063000B00008958091B0008F7DF9CF8091900037
:100640008F77809390000895809190008F7DF9CFEF
:1006500080919000877FF5CF8091A0008F77809365
:10066000A00008958091A0008F7DF9CF8091A00017
:10067000877FF5CF809120018F77809320010895A7
:10068000809120018F7DF9CF80912001877FF5CF68
:10069000CF93DF93282F30E0F901EF5AFC4F84917C
:1006A000F901E55FFC4FD491F901EB53FD4FC49183
:1006B000CC23A1F081110E94E102EC2FF0E0EE0FBB
:1006C000FF1FE555FD4FA591B491EC91ED2381E01D
:1006D00090E009F480E0DF91CF91089580E090E010
:1006E000FACF1F93CF93DF93282F30E0F901EF5A11
:1006F000FC4F8491F901E55FFC4FD491F901EB5374
:10070000FD4FC491CC23A9F0162F81110E94E10264
:10071000EC2FF0E0EE0FFF1FEF56FD4FA591B491C7
:100720008FB7F894EC91111108C0D095DE23DC93BB
:100730008FBFDF91CF911F910895DE2BF8CFFC0181
:1007400083858F3F19F061E00C9471030895FC01DB
:1007500080819181892B39F0A281B3819C9111967E
:100760008C919CBD8DBD83858F3F19F060E00C940A
:10077000710308951092AF0381E08093AE0310924D
:10078000890361E084E10E94710361E085E10E94D8
:100790007103E9EBF0E080818E7F808380818D7F23
:1007A000808388E48093B80085E48093BC0008953A
:1007B000CF93DF9391E090931F038823B9F0C0910A
:1007C000B800D091BA008091BC008A7B8093BC00B5
:1007D00060E084E10E94710360E085E10E947103A2
:1007E0000E94BA03D093BA00C093B800DF91CF91B2
:1007F0000895CF93DF9390E0FC01E55FFC4F2491D7
:100800008B539D4FFC0184918823D1F090E0880F99
:10081000991FFC01E958FD4FA591B491FC01EF56D9
:10082000FD4FC591D49161110EC09FB7F8948C9182
:10083000E22FE0958E238C932881E223E8839FBFEB
:10084000DF91CF9108958FB7F894EC91E22BEC9360
:100850008FBFF6CF8230910538F0880F991F880F2F
:10086000991F05970197F1F70895AF92BF92CF9224
:10087000DF92EF92FF920F931F93CF93DF93EC01E0
:1008800088819981892B89F06EBD0DB407FEFDCF5B
:10089000BEB48B2DDF91CF911F910F91FF90EF9000
:1008A000DF90CF90BF90AF9008958885998511E033
:1008B000892B09F010E8AA24A394862F812309F03C
:1008C000A12C062F2C813D814E815F8160E271EA6F
:1008D00087E090E00E94D12CF22EB02EE12CC22EA7
:1008E000D12CFF2019F0C6010E942A048A85877F37
:1008F00009F042C08D858F3F89F0902F912381E0D0
:1009000009F480E08A1551F0EF85F8898F899923E1
:1009100069F19081892B8083AA24A394E989FA89BB
:100920008081998D892B8083FF2019F0C6010E9458
:100930002A048E858F3F39F0EB89FC898081988D60
:10094000892309F0E12AE989FA899081898D8095C6
:10095000892380838E858F3F09F0BE2C88859985F9
:10096000892BB9F5110F1111BCCF93CF90818095D0
:1009700089238083A12CD2CFE989FA898081998D3E
:10098000892B8083FF2019F0C6010E942A048D85DF
:100990008F3F49F0EF85F8898F89902F9123A9F037
:1009A0009081892B8083E989FA899081898D80954E
:1009B000892380838E858F3F69F2EB89FC89808152
:1009C000988D892339F2E12AC5CF908180958923BA
:1009D000E9CF1695C8CF8F929F92AF92BF92CF92D8
:1009E000DF92EF92FF920F931F93CF93DF937C01DF
:1009F0004B016A01B22EA32E0E94A703E401C80C8A
:100A0000D91CCC15DD0569F4CB2DDA2D0C0F1D1F7B
:100A1000C017D10759F06FEFC7010E9435048993C1
:100A2000F7CF6991C7010E943504EBCFC7010E943F
:100A30009F0381E0DF91CF911F910F91FF90EF9085
:100A4000DF90CF90BF90AF909F908F9008958F923E
:100A50009F92AF92BF92CF92DF92EF92FF920F934D
:100A60001F93CF93DF937C01B62EA72E6A01490115
:100A70000E94A703E401080D191DC017D10761F4F6
:100A8000CB2DDA2DCC0EDD1ECC15DD0551F0699194
:100A9000C7010E943504F8CF6991C7010E9435044F
:100AA000ECCFC7010E949F0381E0DF91CF911F919E
:100AB0000F91FF90EF90DF90CF90BF90AF909F90FD
:100AC0008F9008953FB7F89480911B0390911C0379
:100AD000A0911D03B0911E0326B5A89B05C02F3F12
:100AE00019F00196A11DB11D3FBFBA2FA92F982F54
:100AF0008827BC01CD01620F711D811D911D42E04F
:100B0000660F771F881F991F4A95D1F708958F9216
:100B10009F92AF92BF92CF92DF92EF92FF920F938C
:100B20001F93CF93DF93D091D803D13208F0D7C071
:100B3000182FC091D7030E9462056B017C01809140
:100B4000AF0381116BC082E08093AF031093AE03BB
:100B50008FEF8093AD031092AC03D093AB03A7EB60
:100B6000B3E0EBE8F3E080E0D81391C010928A0381
:100B700080918A03CC0FC82BC0938A03809189038C
:100B8000813009F088C0109289030E9462056B01D0
:100B90007C0180918A038093BB008091B103909186
:100BA000B203A091B303B091B403892B8A2B8B2B92
:100BB000A1F00E9462050091B1031091B20320914F
:100BC000B3033091B4036C197D098E099F09061790
:100BD00017072807390708F442C08091BC0083FD3D
:100BE000D8CF85EC8093BC000E9462056B017C012C
:100BF0008091AF03823009F450C08091AD038F3FE4
:100C000009F46FC08091AD03803209F46CC080910B
:100C1000AD03803309F469C084E026C08091B1033C
:100C20009091B203A091B303B091B403892B8A2BA6
:100C30008B2B09F484CF0E9462058090B1039090C1
:100C4000B203A090B303B090B4036C197D098E0970
:100C50009F0986169706A806B90608F070CF8091FE
:100C6000B0030E94D80385E01092B6031092D80317
:100C70001092B503DF91CF911F910F91FF90EF90EC
:100C8000DF90CF90BF90AF909F908F9008959D91EF
:100C900091938F5F69CF85EEA5CF8091B10390913D
:100CA000B203A091B303B091B403892B8A2B8B2B91
:100CB00009F49ECF0E9462050091B1031091B20326
:100CC0002091B3033091B4036C197D098E099F09FB
:100CD000061717072807390708F08ACFC0CF81E029
:100CE000C3CF80E0C1CF82E0BFCF83E0BDCF1F93F1
:100CF000CF93DF93EA01122FDC0111968D919C9125
:100D0000DC01ED91FC910280F381E02D1995C8176B
:100D1000D90729F4812F0E94870591E0811190E085
:100D2000892FDF91CF911F910895CF92DF92EF929B
:100D3000FF920F931F93CF93DF931F921F92CDB714
:100D4000DEB7FC014787508B618B728B82858823CD
:100D500071F14487452F562F672F7727882349F154
:100D600043877F018BE0E80EF11C96818781998390
:100D70008A83C080D180C114D10409F443C00185A5
:100D800010E098012E5F3F4FD60114968D919C91F3
:100D90008217930780F480E00F900F90DF91CF913E
:100DA0001F910F91FF90EF90DF90CF9008954387B0
:100DB000D1CF4487D6CFF60181819281208131E065
:100DC0003093B5032093D7031092B6031092D80343
:100DD0000115110541F421E042E050E0B701C601E0
:100DE0000E947706D9CFDC01ED91FC910280F3815E
:100DF000E02DA801BE016F5F7F4F199508171907F5
:100E000051F6E9CFA281B381109729F2248135816F
:100E1000018510E02330310579F48E7F89839A8330
:100E20000F5F1F4F9E012F5F3F4F42E050E0B70121
:100E3000CD010E942705B0CF2115310519F49F7708
:100E40009983F0CF2230310511F49068F9CF213029
:100E5000310541F79F779064F3CFCF93DF93EC0197
:100E60008B818823A1F0888191E09093B5038093D2
:100E7000D7031092B6031092D80381E00E94870531
:100E800091E0811190E0892FDF91CF910895109228
:100E90008803109287031092B6031092D8030E9421
:100EA000BA0382E392E0909384038093830383E305
:100EB00092E0909386038093850381E08B83CE013B
:100EC0000E942D07982F8111CECFDDCF2FB7F89438
:100ED00060911703709118038091190390911A0380
:100EE0002FBF08956091E9047091EA048091EB04AA
:100EF0009091EC040895AF92BF92CF92DF92EF925F
:100F0000FF920F931F93CF93DF936C017B018B01B3
:100F1000040F151FEB015E01AE18BF08C017D10703
:100F200059F06991D601ED91FC910190F081E02D8D
:100F3000C6011995892B79F7C501DF91CF911F91D2
:100F40000F91FF90EF90DF90CF90BF90AF900895FA
:100F500090E080E00895FC01538D448D252F30E012
:100F6000842F90E0821B930B541710F0CF960895B6
:100F700001970895FC01918D828D981761F0A28DE3
:100F8000AE0FBF2FB11D5D968C91928D9F5F9F73A9
:100F9000928F90E008958FEF9FEF0895FC01918D5F
:100FA000828D981731F0828DE80FF11D858D90E0CC
:100FB00008958FEF9FEF0895FC01918D228D892F69
:100FC00090E0805C9F4F821B91098F739927089551
:100FD00085EE93E00E94DC0721E0892B09F420E0F4
:100FE000822F0895FC01A48DA80FB92FB11DA35A1B
:100FF000BF4F2C91848D90E001968F739927848F39
:10100000A689B7892C93A089B1898C91837080645B
:101010008C93938D848D981306C00288F389E02DFC
:1010200080818F7D80830895EF92FF920F931F93AD
:10103000CF93DF93EC0181E0888F9B8D8C8D98138B
:101040001AC0E889F989808185FF15C09FB7F89497
:10105000EE89FF896083E889F989808183708064E3
:1010600080839FBF81E090E0DF91CF911F910F912E
:10107000FF90EF900895F62E0B8D10E00F5F1F4F3D
:101080000F731127E02E8C8D8E110CC00FB607FC4C
:10109000FACFE889F989808185FFF5CFCE010E94DA
:1010A000F207F1CFEB8DEC0FFD2FF11DE35AFF4F4F
:1010B000F0829FB7F8940B8FEA89FB898081806268
:1010C000CFCFCF93DF93EC01888D8823B9F0AA8925
:1010D000BB89E889F9898C9185FD03C0808186FDF3
:1010E0000DC00FB607FCF7CF8C9185FFF2CF808142
:1010F00085FFEDCFCE010E94F207E9CFDF91CF91BE
:1011000008958F929F92AF92BF92CF92DF92EF920B
:10111000FF920F931F93CF93DF93EC016A017B0142
:1011200020E030E04FE753E4CB01B6010E94082CE9
:101130004B015C0120E030E0A9010E94902E1816BE
:101140008CF5C501B4010E94062E8B01B98020E008
:1011500030E0A901C701B6010E94902E60E0181688
:101160000CF061E08B2D0E9471030F3F110509F017
:10117000ECF41127C88161E08C2F0E94F90301155E
:101180001105B9F460E08C2FDF91CF911F910F9181
:10119000FF90EF90DF90CF90BF90AF909F908F9097
:1011A0000C947103C501B4019058CDCF0FEF10E03E
:1011B000E1CF0F3F110511F461E0E5CFEC2FF0E036
:1011C000EF5AFC4FE491E150E23108F0BCC0F0E08E
:1011D0008827E251F74F8F4F0C94162D0009110903
:1011E000160920092A09A30934093C0944094E09B2
:1011F0005809620971097B09A30985098F099909B1
:1012000084B5806884BD07BDDF91CF911F910F9198
:10121000FF90EF90DF90CF90BF90AF909F908F9016
:10122000089584B5806284BD08BDEECF80918000B2
:101230008068809380001093890000938800E4CF39
:101240008091800080628093800010938B000093D7
:101250008A00DACF809180008860809380001093AC
:101260008D0000938C00D0CF8091B0008068809377
:10127000B0000093B300C8CF8091B000806280932B
:10128000B0000093B400C0CF80919000806880933C
:1012900090001093990000939800B6CF8091900031
:1012A00080628093900010939B0000939A00ACCFD3
:1012B0008091900088608093900010939D0000932F
:1012C0009C00A2CF8091A00080688093A0008091B4
:1012D000A0008F7B8093A0001093A9000093A8002A
:1012E00093CF8091A00080628093A0001093AB0008
:1012F0000093AA0089CF8091A00088608093A0000D
:101300001093AD000093AC007FCF809120018068E6
:1013100080932001109329010093280175CF8091BB
:10132000200180628093200110932B0100932A01F9
:101330006BCF8091200188608093200110932D0154
:1013400000932C0161CF003811050CF035CF1ACF76
:101350008EBD00000DB407FEFDCF8EB50895CF936E
:10136000DF93EC0160E088810E94710388E90E94AC
:10137000A80980E00E94A80980E00E94A80980E0F6
:101380000E94A80980E00E94A80961E088810E946B
:1013900071038BE891E00197F1F760E088810E948A
:1013A000710380EE0E94A80961E08881DF91CF91EE
:1013B0000C9471036F3FB1F0E62FE295EF7044E0BB
:1013C000E49F90011124DC01ED91FC91E20FF31FE9
:1013D0006F70B8E06B9FC001112462817381860F2A
:1013E000971F089590E080E00895CF93DF93EC017C
:1013F00088819981DC01ED91FC910190F081E02DD3
:1014000019952A813B81820F931F9B838A83DF91E9
:10141000CF910895982F80336CF08A3324F08F3564
:1014200024F08B3724F481E0089581341CF081E0AE
:101430009B350CF080E00895CF93DF93EC01888119
:101440009981DC01ED91FC910280F381E02D1995E9
:101450002A813B81820F931F9B838A83DF91CF91E7
:1014600008958F929F92AF92BF92CF92DF92EF92A8
:10147000FF920F931F93CF93DF93CDB7DEB766979D
:101480000FB6F894DEBF0FBECDBF6C018E01095EB2
:101490001F4F78018AE0882E912CA12CB12CCB0112
:1014A000BA01A50194010E94D12C942F852F605D73
:1014B000F80162938F01A901692F782F4115510519
:1014C0006105710561F7A7014E1B5F0BBF01C601E6
:1014D0000E941C0A66960FB6F894DEBF0FBECDBF01
:1014E000DF91CF911F910F91FF90EF90DF90CF9000
:1014F000BF90AF909F908F900895FC0184858111DB
:1015000014C0A781B085818592852FEF3FEFA81782
:10151000B90730F4CD010196908787832C9130E094
:1015200037FD20E0238781E08487838508951F931A
:10153000CF93DF93EC01162F0E947D0A811306C022
:101540001C8681E0DF91CF911F91089580E0FACF52
:101550000F931F93CF93DF938C01EB018991882325
:1015600069F0C8010E947D0A882379F0FE01319755
:10157000908198130DC0F8011486F0CF90E080E0C0
:10158000DF91CF911F910F91089582E090E0F8CF05
:1015900083E090E0F5CFCF93DF93EC01CE010E9482
:1015A0007D0A8B304CF489305CF4882359F081E05B
:1015B0008E8390E080E00BC08D3011F08032B9F75F
:1015C0001C86ECCF8E81811105C081E090E0DF9117
:1015D000CF91089582E090E0FACFDC01ED91FC918B
:1015E000309731F094819F7781E019F080E0089581
:1015F00081E008950F931F93CF93DF93EC018091C7
:101600001003909111030B9741F4209709F472C0D5
:10161000DF91CF911F910F910895CC30D10508F043
:101620005AC0FE018827E85EF44F8F4F0C94162DA8
:101630007A0B320B7A0B7A0B240B320B320B7A0BB0
:101640007A0B7A0B7A0B7A0B8FEF9FEF9093040251
:101650008093030210920B0310920A031092090365
:10166000109208038091110590911205892B99F130
:101670008091130590911405892B69F181E0809385
:101680001B050E94660700912105109122052091FB
:10169000230530912405DC01CB01800F911FA21F8F
:1016A000B31F8093290590932A05A0932B05B0932F
:1016B0002C0510921C051092390510923A051092D3
:1016C0003B0510923C0510923D0510923E0510928C
:1016D0003F0510924005D0931103C09310030E9460
:1016E000660760930C0370930D0380930E03909331
:1016F0000F038ECF10921B05EECF4F925F926F9229
:101700007F928F929F92AF92BF92CF92DF92EF9291
:10171000FF920F931F93CF93DF93EB01DC012C918A
:101720002B32D9F12D32D1F50196FF24F394FC012F
:10173000208130ED320F3A3018F02E3209F042C1DC
:101740008C0160E070E0CB01F801219130ED832E37
:10175000820E39E0381520F16A3949E974078407A7
:1017600049E1940738F5AAE0B0E09B01AC010E9482
:10177000C62C912CB12CA12C2401350140945094FD
:1017800060947094461657066806790698F0680DBE
:10179000791D8A1D9B1D8F01D7CF0196F12CC7CFD4
:1017A000211108C0FF20E9F161307105810550E881
:1017B0009507A0F0E12CBAE08B2E912CA12CB12C36
:1017C0006115710530E883079105B0F1A501940119
:1017D0000E94D12CCA01B901E394F2CF2C81207868
:1017E0002A602C839B01AC0188279927DC01821B8E
:1017F000930BA40BB50B88839983AA83BB838F2D8E
:10180000DF91CF911F910F91FF90EF90DF90CF90DC
:10181000BF90AF909F908F907F906F905F904F9010
:1018200008952C81207828602C83688379838A83AB
:101830009B83FF24F394E3CFF801D8012D918D0110
:1018400030ED320F3A3010F4E394F6CF2E3201F53A
:101850008F010F5F1F4FF8010F5F1F4F2081A0ED19
:10186000DA2ED20EB9E0BD1598F06C3CECEC7E0798
:10187000ECE08E07910578F7AAE0B0E09B01AC019F
:101880000E94C62C6D0D711D811D911DEA94E3CF40
:1018900020812F7D10E000E0253409F05BC021811C
:1018A0002D32D1F53296CC24C394DF0110E000E054
:1018B0002E2D0E2C000C330B5AE0B52EFD01DD90C1
:1018C00040ED4D0D4A3008F040C0B09EA001B19EE1
:1018D000500D11240D2DDD0C110B00531109040FB7
:1018E000151FA801420F531F473251053CF38C814D
:1018F000CC20C9F040E050E060E070E8F11003C097
:1019000040E050E0BA0180788C608C834883598332
:101910006A837B83FC2C73CF2B3219F03196C12C58
:10192000C4CF3296FCCF40E050E060E87FEFF1108A
:1019300004C040E050E060E87FE780788C608C83F2
:10194000488359836A837B8374CFCC2019F0119527
:10195000019511092081211135C00E0D111DE7FCE3
:101960001A950E94A72B3EE5C32E32E0D32E101607
:1019700011063CF011950195110946E4C42E42E090
:10198000D42EE12C0115110591F000FF0CC024E0CC
:10199000E29EF0011124EC0DFD1D2591359145913C
:1019A00054910E94082C15950795E394EBCFF11004
:1019B00090582C8120782C602C83688379838A83CB
:1019C0009B8337CFF12C1BCFCF92DF92EF92FF9208
:1019D000CF93DF9300D01F921F92CDB7DEB7FC01EB
:1019E00084818F778630D9F040F48430A9F1853036
:1019F00009F43FC090E080E014C08A30F1F08C30F0
:101A000009F43FC08830B1F780819181A281B38110
:101A1000811520E89207A105B10560F702C0808119
:101A200090E00F900F900F900F900F90DF91CF915B
:101A3000FF90EF90DF90CF90089580819181A281F7
:101A4000B381AC01BD0150586F4F7F4F4115510517
:101A50006140710578F6E5CF808191811D82BE01DC
:101A60006F5F7F4F0E947D0BCE0101960E94E40CB8
:101A7000D8CF808191811D82BE016F5F7F4F049618
:101A8000F1CFC080D180E280F38020E030E040E000
:101A900057ECC701B6010E94902E87FDABCF20E026
:101AA0003EEF4FEF56E4C701B6010E94A22B181675
:101AB0000CF4A0CFC701B6010E94062ECB01B1CF16
:101AC000CF92DF92EF92FF92CF93DF9300D01F92DD
:101AD0001F92CDB7DEB7FC0184818F778630C1F0CD
:101AE00038F4843019F1853071F190E080E012C053
:101AF0008A3021F08C3079F18830B9F7808191817A
:101B0000A281B381009721E0A207B10518F0EDCFC3
:101B1000808190E00F900F900F900F900F90DF91C9
:101B2000CF91FF90EF90DF90CF90089580819181C9
:101B30001D82BE016F5F7F4F0E947D0BCE0101961B
:101B40000E94600DE7CF808191811D82BE016F5F91
:101B50007F4F0496F1CFC080D180E280F38020E0F7
:101B600030E0A901C701B6010E94902E87FDBDCFCC
:101B700020E03FEF4FE757E4C701B6010E94A22BD8
:101B800018160CF4B2CFC701B6010E940D2ECB017E
:101B9000C1CFCF93DF9300D01F921F92CDB7DEB796
:101BA000FC0194819F77963091F030F4943020F5C9
:101BB00060E070E0CB0111C09A30B9F09C3051F177
:101BC0009830B1F7608171818281938104C0608116
:101BD00070E090E080E00E94A72B0F900F900F9094
:101BE0000F900F90DF91CF91089560817181828174
:101BF00093810E94A92BF1CF808191811D82BE012A
:101C00006F5F7F4F04960E947D0BCE0101960E946C
:101C1000C90DE3CF6081718182819381DECFFC01A8
:101C20009289915084E0989F90011124A089B189F4
:101C3000A20FB31F1296ED91FC9113973097E9F024
:101C400011962C9111978C912817B8F481E0820F8E
:101C500011968C9388E0289FA0011124E40FF51FB2
:101C6000309759F014828FEF858317821682BF0157
:101C7000892F8295807F820F089560E070E08FEF5A
:101C80000895DF92EF92FF920F931F93CF93DF930C
:101C9000EC017B01D12C688979898A89D816E0F416
:101CA00084E0D89E80011124060F171FD8011296D8
:101CB0006D917C916115710541F0D701ED91FC9119
:101CC0000280F381E02DC7011995F8011382128279
:101CD00010821182D394DFCF1A8A8FEF8C8BC617B4
:101CE000D70761F0D701ED91FC910280F381E02DDF
:101CF000C7011995D98BC88B84E08B8BDF91CF916D
:101D00001F910F91FF90EF90DF900895DB01ED910F
:101D1000FC9111970280F381E02DBC01CD01199453
:101D20000F931F93CF93DF93EC01088119818B816F
:101D30009C81009749F0FC01208131813C832B83F9
:101D4000B8010E94860EF3CF68817981CE01059695
:101D5000DF91CF911F910F910C94410ECF93DF93A0
:101D6000EC01E881F981B0E0A0E03097F9F09F0143
:101D70002C5F3F4F62177307A1F4928191509283B9
:101D8000911114C080819181109741F08D939C93A3
:101D9000BA01CF01DF91CF910C94860E998388838D
:101DA000F7CFDF010190F081E02DDFCFDF91CF9100
:101DB00008958F929F92AF92BF92CF92DF92EF924F
:101DC000FF920F931F93CF93DF938C01EB01FC01E4
:101DD000848180FF0AC048815981608171816C5F74
:101DE0007F4FCE0103960E94AE0EF801848180766B
:101DF00081F10115110569F1D0805E01F5E1AF0EA9
:101E0000B11C4E0183E0880E911CEFEFDE16F1F05D
:101E10006D2DC5010E94DA097C01FC01C580848119
:101E200087FF07C04881598166817781C4010E947C
:101E3000AE0EBE01C7010E94D90EF70184818078E1
:101E40008483898D8583D98EDC2CDFCFF801D08205
:101E5000D182DF91CF911F910F91FF90EF90DF9092
:101E6000CF90BF90AF909F908F900895EF92FF9288
:101E70000F931F93CF93DF937C018B01EA016F3F98
:101E8000710509F0B0F4E881F9810480F581E02D55
:101E9000AB014B5F5F4FBC01CE011995009749F034
:101EA000FC010383DF91CF911F910F91FF90EF9081
:101EB0000895E881F9810280F381E02DB701CE0118
:101EC000199590E080E0EECFFF920F931F93CF9390
:101ED000DF93EC01F62E8A819B810097C9F06C811B
:101EE0007D81FC0123812617170691F40881198151
:101EF000F80140815181660F771F6F5F7F4F0E940D
:101F0000360F009719F421E0F80122839B838A831E
:101F10008A819B81009759F02C813D81A9014F5FF7
:101F20005F4F5D834C83820F931FFC01F482DF912E
:101F3000CF911F910F91FF9008959F92AF92BF9202
:101F4000CF92DF92EF92FF920F931F93CF93DF9385
:101F500000D01F921F92CDB7DEB78C010E947D0A80
:101F6000D82EF8011486F12CE12C60EFC62EC801A2
:101F70000E947D0AF8011486D81609F4B3C08111B5
:101F800013C082E090E00F900F900F900F900F9091
:101F9000DF91CF911F910F91FF90EF90DF90CF9045
:101FA000BF90AF909F9008958C3509F099C0C801FB
:101FB0000E947D0A882329F3EDE4F2E0853709F0D9
:101FC00083C0F801148654E0952EB12CA12CC801D1
:101FD0000E947D0A8823A9F2813434F48053803131
:101FE00030F083E090E0CFCF8F7D8753F8CF44E08F
:101FF000AA0CBB1C4A95E1F7A82AF80114869A940A
:102000009110E5CFC501985D8115944020F47501CC
:10201000F3E0FF22ACCFC5019C5D81159440A8F48C
:1020200083E0B822B701762F6627770F770F6A29EA
:102030007B2990E080E0019660387105810591056B
:1020400040F4C8010E94640F92CFB50190E080E097
:10205000F3CF1982262F2F7320682A8326E09695C6
:102060008795779567952A95D1F76032710580F449
:10207000606C6B835E01E4E0AE0EB11CF501629111
:102080005F01662309F473CFC8010E94640FF6CF85
:10209000262F2F7320682B8386E0769567958A9587
:1020A000E1F76031710538F4606E6C835E01F5E034
:1020B000AF0EB11CE3CF60686C83CD825E0126E079
:1020C000A20EB11CDBCF32969081992309F489CFFF
:1020D0008913F9CF8181882309F483CFF80114860D
:1020E000682FAFCF82819381892B19F484E090E02F
:1020F0004ACF90E080E047CFAF92BF92CF92DF927D
:10210000EF92FF920F931F93CF93DF93DC01129610
:10211000ED91FC91139714968D919C911597E80F72
:10212000F91F14820D911C91119714966D917C9159
:10213000159712968D919C9113979C012C5F3F4FA0
:10214000E801EB81FC817B01E20EF31E3097B9F0D0
:1021500043814617170679F45901AF014C5F5F4F71
:10216000EA14FB0499F1E501C9905E01EA01D990F6
:10217000AE01CD14A9F30190F081E02DE7CFED0180
:10218000F801408151810E94360FFC01892B21F416
:1021900081E0D80112968C93A881B98113968D9114
:1021A0009C911497918380831496FC93EE931397DC
:1021B0001B821A82CF01DF91CF911F910F91FF9067
:1021C000EF90DF90CF90BF90AF90089582818F5FA6
:1021D0008283F0CF2F923F924F925F926F927F92C5
:1021E0008F929F92AF92BF92CF92DF92EF92FF9227
:1021F0000F931F93CF93DF9300D000D0CDB7DEB7FE
:102200007C017C836B830B969E838D83D70116960E
:102210009C91169717968C91179799838A836D9046
:102220007C9011976114710409F44CC119964C917A
:1022300050E0F3018481958184179507A8F080818F
:1022400091E09093B5038093D7031092B603109258
:10225000D80320E0BE016F5F7F4FC3010E94770665
:10226000D12CC12C81111AC080E026960FB6F894AB
:10227000DEBF0FBECDBFDF91CF911F910F91FF90B9
:10228000EF90DF90CF90BF90AF909F908F907F9016
:102290006F905F904F903F902F900895D3011496C8
:1022A0008D919C9102E010E00C191D098017910797
:1022B00008F48C01F30150800E9462054B015C011F
:1022C0008091AF03811176C0B02EF0E2F01710F4C8
:1022D00040E2B42E81E08093AF0321E082E090E001
:1022E000801B910BC816D90608F420E02093AE039A
:1022F0009FEF9093AD031092AC038FEF8B0D809303
:10230000AB03A1E0A0938A0380918A03550C582A5D
:1023100050928A0380918903813009F093C0109212
:1023200089030E9462051B012C0180918A0380931E
:10233000BB008091B1039091B203A091B303B0911F
:10234000B403892B8A2B8B2BA1F00E94620520916C
:10235000B1033091B2034091B3035091B4036219B9
:10236000730984099509261737074807590708F4A0
:1023700042C08091BC0083FDD8CFB5ECB093BC00C7
:102380000E9462051B012C018091AF03813009F48A
:102390005DC08091AC038B1510F4B090AC03ABE83A
:1023A000B3E0E3E6F3E080E08B1551F19D9191936A
:1023B0008F5FFACF8091B1039091B203A091B303E4
:1023C000B091B403892B8A2B8B2B09F479CF0E940F
:1023D00062052091B1033091B2034091B303509153
:1023E000B403681979098A099B0926173707480732
:1023F000590708F065CF8091B0030E94D803B12C33
:1024000010928803B0928703B016110609F02CCF02
:102410008D809E808C0C9D1C5401C50188199909E2
:1024200080179107A8F5D30111968D919C91DC013D
:10243000ED91FC910284F385E02D1995F5018193CE
:102440005F01EBCFE5EEE093BC009ACF8091B10342
:102450009091B203A091B303B091B403892B8A2B5E
:102460008B2B09F491CF0E9462052091B10330912A
:10247000B2034091B3035091B40362197309840904
:102480009509261737074807590708F07DCFB3CFBE
:10249000C00ED11EF2E0CF16D10408F4FFCEF70132
:1024A0008285811142C0848590E0982F8827AB8176
:1024B000BC8111969C938E932385822B8D939C9344
:1024C00081E0D3CE1296ED91FC911397309709F4E9
:1024D000CBCE14962D913C91159719964C9150E0C6
:1024E0002330310591F4816089839A834F5F5F4F78
:1024F00002E010E02D813E81BE016F5F7F4FCF0172
:102500000E94EB048111CBCFB0CE2115310519F417
:1025100090689983EDCF2230310511F49F77F9CF80
:102520002130310529F7906CF4CF838590E0982F06
:102530008827AB81BC8111969C938E932485BDCF57
:10254000AB01BC0170588EE595E00C948108FC014C
:1025500001900020E9F73197AF01481B590BBC01EE
:1025600085EE93E00C947B07DF92EF92FF920F933E
:102570001F93CF93DF936115710561F460E070E004
:102580008FEF9D2DDF91CF911F910F91FF90EF90D5
:10259000DF9008958A01EB01DC01FC900B5E1F4F78
:1025A0006F2DC8010E94DA09009741F3FC01E58014
:1025B000009721F30680F781E02DDE010D900020C9
:1025C000E9F79D01215031092C1B3D0BB0E0A0E043
:1025D000309739F0DF010D900020E9F71197AE1B1D
:1025E000BF0B2A173B0751F4DE012C0F3D1FA2172A
:1025F000B30769F05D9141915417C9F36E2DC8017D
:102600000E94DA09009709F4B9CFFE2CCFCFBC01A4
:102610008F2DDE2CB6CFCF93DF93FC01C081D1810B
:1026200062817381CE014A9661F02E8D25FF09C02B
:10263000AE010E94B4129B01B901CE01DF91CF918E
:10264000089530E020E0F8CFFB0101900020E9F789
:102650003197AF01461B570B0C941C0A1F93CF9365
:10266000DF93EDE4F2E01281112379F032962181BB
:102670006213F9CFEC016CE50E94F509612FCE01E0
:10268000DF91CF911F910C94F5096111F9CF6EE59F
:1026900072E0DF91CF911F910C942413CF92DF92BF
:1026A000EF92FF920F931F93CF93DF938C016B01F7
:1026B0007A0162E20E94F509E601EC0CFD1CCE15E0
:1026C000DF0529F06991C8010E942E13F8CF62E25C
:1026D000C801DF91CF911F910F91FF90EF90DF9094
:1026E000CF900C94F5092F923F924F925F926F9288
:1026F0007F928F929F92AF92BF92CF92DF92EF9292
:10270000FF920F931F93CF93DF93CDB7DEB76C97F4
:102710000FB6F894DEBF0FBECDBF8C011B01DC01EC
:1027200014968C9114978F77883009F4B2C2E8F42C
:10273000843009F469C248F4833009F49FC265E625
:1027400072E0C1010E9424131CC2853009F470C2DA
:102750008630A9F78C916AE672E0811102C06FE6BB
:1027600072E0C1010E9424136DC28C30F1F1C8F4F3
:102770008A3029F7CD90DD90ED90FC90B701A6014D
:10278000F7FE0BC06DE2C1010E94F50944275527F1
:10279000BA014C195D096E097F09C1010E94310A15
:1027A00051C2803209F4F7C1803449F66BE5C101AA
:1027B0000E94F509F80110811F3F09F4E7C1D1011A
:1027C00014968D919C91612F45960E94DA098C0197
:1027D000B1010E947313F80115811F3F09F4D6C19E
:1027E0006CE2C1010E94F509E7CFF801C080D180F9
:1027F000E280F380A7019601C701B6010E94A22BD7
:1028000081119DCF20E030E0A901C701B6010E94EF
:10281000A22B882379F0A7019601C701B6010E9477
:10282000282D9B01AC01C701B6010E94A22B882371
:1028300009F485CF20E030E0A901C701B6010E946C
:10284000A22B87FF08C06DE2C1010E94F509F7FACB
:10285000F094F7F8F09420E836E948E15BE4C7012A
:10286000B6010E94902E87FD88C074E1A72EB12C7E
:1028700000E210E0188E1F8AF501E25AFD4F259103
:10288000359145915491C701B6010E94902E87FD64
:1028900013C0F501EA5BFD4F2591359145915491A7
:1028A000C701B6010E94082C6B017C012F89388D6D
:1028B000200F311F388F2F8B1595079534E0A31A01
:1028C000B1088CEFA8168FEFB806B1F655245A94CC
:1028D00020E030E0A901C701B6010E94902E181631
:1028E0000CF052C02CEA35EC47E257E3C701B601C1
:1028F0000E94A22B18160CF447C0A52DB4E0AB0221
:10290000C0011124B12CA12CFC01EA5BFD4F3F0159
:102910009C01225A3D4F49013FEF531609F434C040
:10292000F301EA0DFB1D659175918591949120E06D
:1029300030E040E251E40E94082CA70196010E9479
:10294000902E18169CF4F401EA0DFB1D259135918B
:1029500045915491C701B6010E94082C6B017C017E
:102960008F89988D801B910B988F8F8B159507956C
:102970005A9494E0A91AB108CFCF00E210E055E0D4
:10298000552E188E1F8AA4CFC701B6010E940D2EA6
:102990004B015C012B013C0106E080E492E4AFE0D6
:1029A000B0E0898F9A8FAB8FBC8F102F01509AE0C7
:1029B0004916510461047104C8F0698D7A8D8B8DBC
:1029C0009C8D2AE030E040E050E00E94D12C298F1D
:1029D0003A8F4B8F5C8FC301B2012AE030E040E0B8
:1029E00050E00E94D12C29013A01DFCFC501B4018A
:1029F0000E94A72B9B01AC01C701B6010E94272DA5
:102A00006B017C01698D7A8D8B8D9C8D0E94A72B2B
:102A10009B01AC01C701B6010E94082C2B013C01AF
:102A20000E940D2E6B017C010E94A72B9B01AC0123
:102A3000C301B2010E94272D9B01AC010E94282DE9
:102A40000E940D2EC60ED71EE81EF91E898D9A8D86
:102A5000AB8DBC8DC816D906EA06FB06D8F09FEFF1
:102A6000891A990AA90AB90AAF89B88DAB2B39F12D
:102A7000BAE08B169104A104B10408F1EF89F88D36
:102A80003196F88FEF8BC12CD12C7601812C912CB3
:102A9000540183942AE0422E512C612C712CC701E1
:102AA000B601A30192010E94D12C672B682B692BE0
:102AB00051F4111644F469017A011150F0CFC12C80
:102AC000D12C7601E7CFB501A401C1010E94310AE2
:102AD000112371F14E01F1E18F0E911C012F540170
:102AE0009AE0492E512C612C712C015068F0C701DD
:102AF000B601A30192010E94D12C605DD4016E93B6
:102B00004D0169017A01F1CF812F90E0BC01609500
:102B10007095F501E81BF90B31978EE2808344270D
:102B20005527461B570B6A0D7B1DC1010E941C0ACD
:102B3000EF89F88DEF2B29F165E6C1010E94F509B7
:102B40000F89188D17FF07C06DE2C1010E94F509BA
:102B5000119501951109FE0177969F018AE0E82EF3
:102B6000F12CC801B7010E94022D805D82938B0178
:102B7000672BB9F7A9014E1B5F0BBF01C1010E9472
:102B80001C0AD10112968D919C915FC06DE5C10127
:102B90000E94F509F6CF6BE7C1010E94F509F80123
:102BA00010811F3F79F1D10114968D919C91612F75
:102BB00045960E94DA098C01FC01C680D78062E24A
:102BC000C1010E94F5097601D7016D917D0166234F
:102BD00021F0C1010E942E13F7CF62E2C1010E94D1
:102BE000F5096AE3C1010E94F509B101C8010E941B
:102BF0007313F80115811F3F29F06CE2C1010E9497
:102C0000F509CFCF6DE7C3CFF8016081718150E046
:102C100040E06115710541F0FB0101900020E9F7EA
:102C20003197AF01461B570BC1010E944E13A9CF2C
:102C3000ED91FC91438150E0BF016C5F7F4FC1017A
:102C40000E944E13F101828193816C960FB6F89425
:102C5000DEBF0FBECDBFDF91CF911F910F91FF90CF
:102C6000EF90DF90CF90BF90AF909F908F907F902C
:102C70006F905F904F903F902F900895ED91FC9151
:102C8000438150E0BF016C5F7F4FC1010E941C0A6D
:102C9000D9CF4D915D916D917C917FCDCB010C94FD
:102CA000C12FCF93DF93EC018091BF049091C004BA
:102CB000009759F02091C1043091C2042C173D07B0
:102CC00020F081E0DF91CF910895BE016F5F7F4FCB
:102CD0000E944A30009789F09093C0048093BF040B
:102CE000D093C204C093C1042091C3043091C404A2
:102CF000232B39F7FC011082E4CF80E0E3CFCB0136
:102D0000BA010C944A3085ED8093BC008091B103E8
:102D10009091B203A091B303B091B4030796A11DA3
:102D2000B11D23E0B695A795979587952A95D1F77C
:102D30002091BC0024FD03C01092AF030895409180
:102D4000B1035091B2036091B3037091B403452B6A
:102D5000462B472B69F30097A105B10541F02AE204
:102D60002A95F1F700C00197A109B109E1CF80913F
:102D7000B0030C94D803CB010C94252F8F929F9213
:102D8000AF92BF92CF92DF92EF92FF920F931F9379
:102D9000CF93DF936C018B01DB015996FC90BFEF61
:102DA000FB1621F16F2DC80145960E94DA09EC014E
:102DB0008D81F801818F209709F496C01C828FEFD6
:102DC0008D831F821E82D60111966C916F3F09F48C
:102DD0009FC0C80145960E94DA09FC01F582D60120
:102DE0001196FC92BE018F2D9D8084C05B01F5E0A1
:102DF000AF0EB11CDB01ED90FC90119757968C91B2
:102E0000882349F0C5010E940F0EC62FD72F2097A7
:102E100011F0F82ED8CFF801C789908DC91325C0BD
:102E2000C03109F461C0CC0F65897689D701ED9175
:102E3000FC91B4E0CB9FA0011124A616B70609F0BF
:102E40004BC00190F081E02DBA01C70119950097A0
:102E500009F44AC020E1F501DC0101900D922A95A8
:102E6000E1F7F801968B858BC08FD8015596CD91EF
:102E7000DC91569757968C91579721E0280F5796DB
:102E80002C93B4E08B9FC0011124C80FD91F90E18F
:102E9000892E203111F48FE0882EE8E08E9EB0015B
:102EA0001124D701ED91FC910190F081E02DC70133
:102EB00019959B838A83892B09F4812C8882198236
:102EC000CD2B91F0C5010E940F0EC62FD72FF82EE3
:102ED000209709F078CF08C00480F581E02DC70164
:102EE0001995009709F0BDCF81E0F801828360E079
:102EF00070E08FEF992DDF91CF911F910F91FF908F
:102F0000EF90DF90CF90BF90AF909F908F900895FB
:102F1000F601F082F18266CF8F929F92AF92BF92BC
:102F2000CF92DF92EF92FF920F931F93CF93DF9395
:102F3000EC018B01D42E0E94CB0A7C01892B09F075
:102F400047C0CE010E947D0A863609F452C124F59D
:102F5000873229F08B3561F1823209F053C11D822D
:102F60001C828A819B81892B31F4888199810E94FE
:102F700001029B838A83CE010E949D0F7C01892BD5
:102F800039F5CE010E947C10F8012481207825605B
:102F90002483918380831CC0843709F412C18B374A
:102FA00009F45BC08E3609F02DC165E672E012C1EE
:102FB000F80184818078806484830115110519F0FB
:102FC0008FEF80838183D11011C025E0E22EF12C98
:102FD000C701DF91CF911F910F91FF90EF90DF908C
:102FE000CF90BF90AF909F908F9008951C86CE0198
:102FF0000E94CB0A009709F085C06DE5CE010E94C2
:10300000970A8111E5CFDA946D857E85C8010E940B
:10301000BE166115710521F484E0E82EF12CD8CF9D
:103020004D2DCE010E948C17009709F06BC0CE0188
:103030000E94CB0A009709F065C06DE5CE010E94A1
:10304000970A8111C5CF6CE2CE010E94970A8111C7
:10305000DBCF93E0E92EF12CBBCFF801848180789F
:10306000806284830115110519F08FEF80838183BD
:10307000DD2009F4AACF1C86CE010E94CB0A00975E
:1030800009F040C06DE7CE010E94970A8111A0CFE0
:10309000BB24BA94BD0C1D821C828A819B81892B22
:1030A00031F4888199810E9401029B838A83CE0139
:1030B0000E947D0A8732E1F08232D1F0CE010E9477
:1030C0007D0AD82E0E940A0A882319F21C866D2DCB
:1030D000CE010E94640FCE010E947D0AD82E0E946C
:1030E0000A0A8111F3CF8A819B81892B31F494CF15
:1030F000CE010E949D0F009729F4CE010E94CB0AB9
:10310000009711F07C0164CF6AE3CE010E94970A18
:10311000882309F49ECFEA81FB818C819D81E80F91
:10312000F91F14824D855E856A817B816C5F7F4FBC
:10313000C8010E94B412CB016B01672BC9F5CE0107
:103140000E947C104C016D857E85C8010E94BE16D0
:103150006B016115710509F45FCFFB018481806803
:103160008483F4E08F0E911CF601978286824B2DAA
:10317000B601CE010E948C17009721F6CE010E9465
:10318000CB0A009709F0BECF6DE7CE010E94970AE7
:1031900081111ECF6CE2CE010E94970A882309F4A8
:1031A00058CFCE010E94CB0A009709F474CFAACF62
:1031B0006D857E850E94D90EF60184818078848396
:1031C000D6CFF801848180788660848381E0808313
:1031D0006AE672E0CE01DF91CF911F910F91FF90CF
:1031E000EF90DF90CF90BF90AF909F908F900C9416
:1031F000A80AF801848180788660848310826FE653
:1032000072E0E8CFCE010E947D0A5E01FFE0AF0EC2
:10321000B11CD12C9A2CCB2C803374F08A3374F4EB
:103220009FE3D91699F01C86D394F50181935F0131
:10323000CE010E947D0AF0CF8B3291F393ED980F6F
:10324000923070F3982F9F7D953451F3CD0DD11DA1
:103250001F86B801892D9C2D0E947D0B8111B8CE4F
:10326000F8CE2F923F924F925F926F927F928F9201
:103270009F92AF92BF92CF92DF92EF92FF920F9305
:103280001F93CF93DF93CDB7DEB7C357D1090FB6E6
:10329000F894DEBF0FBECDBF8E01005B1F4F38011B
:1032A00025E0620E711C58018AE1A80EB11C2FE8BE
:1032B000222E22E0322E32E9432E32E0532E85EECA
:1032C00093E00E94DC07892B09F4F1C185EE93E0BD
:1032D0000E94BA07D82E89831A82E090C304F09026
:1032E000C4049FEFE91AF90AC7010E945116882306
:1032F00099F02091BF043091C0048091C304909153
:10330000C404BE016F5F7F4F820F931F0E94343150
:10331000F092C404E092C304EAE0DE12D0CF81E070
:1033200092E0F80191838083128214821382768A5C
:10333000658A178A84E0808F8FEF818F168EE196E1
:103340001FAE1EAEE197E3961FAE1EAEE397C09090
:10335000C304D090C404E090BF04F090C00461E0C6
:1033600072E0C3010E94410EF801128280809180B8
:10337000F80183819481009751F0FC012081318113
:10338000F80134832383B4010E94860EF1CF168E98
:103390001A8309831C821B821E821D821F82F9866A
:1033A000E886EC0CFD1CFB86EA861D861F870E87CF
:1033B0004AE0B501CE0101960E948C177C01892B51
:1033C00051F48C85882339F0F801868D83FF03C082
:1033D00093E0E92EF12C8B819C81009731F0E981FB
:1033E000FA81608171810E94860E90E080E00E94E7
:1033F00051162091BF043091C00481112CC02115B9
:10340000310519F0C9010E94C12F1092C004109219
:10341000BF041092C4041092C3041092C20410920C
:10342000C104E114F10409F185E792E00E94A712BA
:10343000F701EE0FFF1FE35EFD4F80819181009742
:1034400011F00E94A7128CE892E00E94A712C80116
:103450000E94900E34CF1092C4041092C3046DE504
:1034600072E0C9010E943431DCCF1A8309833C82A7
:103470002B82CE0101960E940B13E3966CAF7DAFB9
:103480008EAF9FAFE397CE0181599F4F0E94ED0A07
:10349000811111C0E1968EAD9FADE197009709F4BF
:1034A000C3C00E94C90D6093050570930605809303
:1034B0000705909308051A8309835C824B82CE012D
:1034C00001960E940B13E3966CAF7DAF8EAF9FAF5A
:1034D000E397CE0181599F4F0E94ED0A811111C0DF
:1034E000E1968EAD9FADE197009709F4A1C00E94CF
:1034F000C90D6093090570930A0580930B0590939D
:103500000C051A83098385E992E09C838B83CE01A5
:1035100001960E940B13E3966CAF7DAF8EAF9FAF09
:10352000E397CE0181599F4F0E94ED0A811111C08E
:10353000E1968EAD9FADE197009709F47DC00E94A2
:10354000C90D60930D0570930E0580930F05909340
:1035500010051A83098388E992E09C838B83CE014E
:1035600001960E940B13E3966CAF7DAF8EAF9FAFB9
:10357000E397CE0181599F4F0E94ED0A811108C047
:10358000E1968EAD9FADE197009711F00E94600D1E
:103590001A8309838AE992E09C838B83CE0101968A
:1035A0000E940B13E3966CAF7DAF8EAF9FAFE39796
:1035B000CE0181599F4F0E94ED0A811158C0F12C14
:1035C000E12C6701E3968CAD9DADAEADBFADE39749
:1035D000FC01892B09F443C0248126FF40C04D0122
:1035E00025E1820E911C6081C4010E94DA090097D6
:1035F000B1F1FC01F581E496FFAFE497009779F112
:10360000C114D10451F1E4966FADE497C4010E9456
:10361000DA09009729F0FC01F581E496FFAFE49701
:1036200021E0C21AD108EACF60E070E0CB013BCFC5
:1036300060E070E0CB015DCF60E070E0CB0181CF56
:10364000A8016CE972E0C5010E94B4126115710510
:1036500049F1CB010E94E40C27C00E94C90D8FEFF5
:10366000E81AF80A9AE0E916F10409F0AACF1A83D9
:1036700009838CE992E09C838B83CE0101960E94A2
:103680000B13E3966CAF7DAF8EAF9FAFE397CE0188
:1036900081599F4F0E94ED0A8111D9CEF801868D84
:1036A00085FDCECF90E080E00E94FA0AD0CECD58C2
:1036B000DF4F0FB6F894DEBF0FBECDBFDF91CF91C5
:1036C0001F910F91FF90EF90DF90CF90BF90AF9040
:1036D0009F908F907F906F905F904F903F902F9032
:1036E00008950E94E80781110E94311980E090E05E
:1036F000892B49F080E090E0892B29F00E9400009E
:1037000081110E94000080E090E0892B49F080E068
:1037100090E0892B29F00E94000081110E94000096
:1037200080E090E0892B49F080E090E0892B29F03F
:103730000E94000081110C9400000895EF92FF9206
:103740000F931F93CF93DF93FC01E080F1808701FB
:10375000065E1F4F21F1C281D381209751F1F701FD
:10376000868D982F9F7719F580788062868F8FEFEE
:10377000828F838FA701BE01C8010E94B412FB0192
:10378000309761F4B701C8010E94BE16FB01309763
:1037900029F084818F778483D783C6838F01C80102
:1037A000DF91CF911F910F91FF90EF90089585FDCC
:1037B000E1CF10E000E0F3CFAF92BF92CF92DF9263
:1037C000EF92FF920F931F93CF93DF938C017B01B6
:1037D000DC01AD90BC900E949E1BEC01009781F033
:1037E000F701C080D180E280F380B5010E94D90E3C
:1037F0008C8180788C608C83C882D982EA82FB823B
:10380000D801ED91FC9180E0309719F0828191E030
:103810008927DF91CF911F910F91FF90EF90DF905B
:10382000CF90BF90AF9008951F920F920FB60F9256
:1038300011240BB60F922F933F934F935F936F9387
:103840007F938F939F93AF93BF93EF93FF93809159
:10385000B900887F803609F44DC008F040C0883236
:1038600009F4A9C028F5803109F49DC0C8F4882363
:1038700009F4FBC0883009F496C0FF91EF91BF9125
:10388000AF919F918F917F916F915F914F913F91F8
:103890002F910F900BBE0F900FBE0F901F90189599
:1038A000883109F488C0803241F78093AD0314C099
:1038B000803409F49DC040F48033B9F38833E9F6CD
:1038C0008093AD0385ECB0C0803509F485C08835A0
:1038D00009F496C0883489F60E948316CECF8839C1
:1038E00009F48CC038F5883729F050F4883611F087
:1038F000803719F683E08093AF031092620357C0BC
:10390000883809F47BC0803919F0803809F0B5CFC8
:1039100080916203803208F071C0E091620381E01F
:103920008E0F809362038091BB00F0E0EE5BFC4F52
:1039300080833DC0803B39F0E0F4803A09F479C0DF
:10394000883A09F09ACF84E08093AF031092410344
:1039500010924003E0918303F091840319958091C4
:10396000400381110FC081E0809340031092200337
:1039700009C0803C09F4A6CF883C09F4A3CF883B5A
:1039800009F07BCFE091410381E08E0F80934103EA
:10399000F0E0E05EFC4F80818093BB00909141039A
:1039A0008091400329C080918A038093BB0085ECFD
:1039B0008093BC0062CF9091AC038091AB039817C9
:1039C00058F5E091AC0381E08E0F8093AC03F0E0FA
:1039D000E557FC4F8081E9CFE091AC0381E08E0F89
:1039E0008093AC038091BB00F0E0E557FC4F8083EF
:1039F0009091AC038091AB039817C8F285E8D8CFBB
:103A0000E091AC0381E08E0F8093AC038091BB000A
:103A1000F0E0E557FC4F80838091AE0381115CCFCD
:103A200081E08093890384EA8093BC001092AF0305
:103A300024CF85EC8093BC001092AF038091620389
:103A4000803230F4E0916203F0E0EE5BFC4F1082D4
:103A50006091620370E0E0918503F091860382E457
:103A600093E019951092620308CF1092AD0334CF02
:103A70001F920F920FB60F9211242F933F938F93A3
:103A80009F93AF93BF938091170390911803A091D8
:103A90001903B0911A033091160323E0230F2D3739
:103AA00058F50196A11DB11D2093160380931703AD
:103AB00090931803A0931903B0931A0380911B03EA
:103AC00090911C03A0911D03B0911E030196A11DAE
:103AD000B11D80931B0390931C03A0931D03B0930F
:103AE0001E03BF91AF919F918F913F912F910F90A6
:103AF0000FBE0F901F90189526E8230F0296A11D68
:103B0000B11DD2CF1F920F920FB60F9211240BB698
:103B10000F922F933F934F935F936F937F938F9366
:103B20009F93AF93BF93EF93FF9380910303909183
:103B30000403A0910503B0910603892B8A2B8B2BDC
:103B4000D1F19091020380910000892780930000B9
:103B50008091030390910403A0910503B0910603A3
:103B6000181619061A061B069CF4809103039091FF
:103B70000403A0910503B09106030197A109B109BF
:103B80008093030390930403A0930503B09306036B
:103B9000FF91EF91BF91AF919F918F917F916F9125
:103BA0005F914F913F912F910F900BBE0F900FBEE1
:103BB0000F901F90189580910002E6E7F2E0E491E3
:103BC0009FEF90930002E230E9F040F4EE2389F099
:103BD000E13091F060E00E947103DACFE43049F106
:103BE00010F1E530B9F7909173009D7F90937300C9
:103BF000F1CF10926E00EECF90916F009D7F909369
:103C00006F00E8CF909170009D7F9093700091E0DD
:103C10009093B0009091B100987F94609093B10020
:103C20001092B300D7CF909171009D7F9093710057
:103C3000D1CF909172009D7F90937200CBCF1F9255
:103C40000F920FB60F9211240BB60F922F933F9342
:103C50004F935F936F937F938F939F93AF93BF9394
:103C6000EF93FF9385EE93E00E94F207FF91EF91AF
:103C7000BF91AF919F918F917F916F915F914F9184
:103C80003F912F910F900BBE0F900FBE0F901F9082
:103C900018951F920F920FB60F9211240BB60F9228
:103CA0002F938F939F93EF93FF93E091F503F09100
:103CB000F6038081E091FB03F091FC0382FD1DC0BF
:103CC00090818091FE038F5F8F732091FF03821795
:103CD00041F0E091FE03F0E0EB51FC4F958F8093B3
:103CE000FE03FF91EF919F918F912F910F900BBE4B
:103CF0000F900FBE0F901F9018958081F2CF1F92EA
:103D00000F920FB60F9211240BB60F922F933F9381
:103D10004F935F936F937F938F939F93AF93BF93D3
:103D2000CF93DF93EF93FF9380910103C091BE0483
:103D3000D0E087FF23C0109285001092840080910C
:103D400001038F5F8093010380910103082E000C13
:103D5000990B8C179D0724F4809101038C3074F12A
:103D6000809184009091850084349C4908F465C05A
:103D70008091840090918500049661C08091010338
:103D8000082E000C990B8C179D07CCF6309101037F
:103D900025E03203F0011124EE57FB4F808186FFAE
:103DA000CECF309101033203F0011124EE57FB4FC7
:103DB000808160E08F730E947103C1CF8091840085
:103DC000909185003091010325E03203F001112428
:103DD000EE57FB4F41815281840F951F90938900CC
:103DE00080938800309101033203F0011124EE57D3
:103DF000FB4F808186FF0CC0309101033203F0013C
:103E00001124EE57FB4F808161E08F730E94710394
:103E1000FF91EF91DF91CF91BF91AF919F918F91E2
:103E20007F916F915F914F913F912F910F900BBEBA
:103E30000F900FBE0F901F90189580E49CE990930F
:103E40008900809388008FEF80930103E1CF109267
:103E5000DC031092DB0388EE93E0A0E0B0E08093F7
:103E6000DD039093DE03A093DF03B093E0032DE224
:103E700032E03093DA032093D9031092E8031092D2
:103E8000E7038093E9039093EA03A093EB03B093D5
:103E9000EC038FE392E09093E6038093E50385ECD7
:103EA00090E09093F2038093F10384EC90E0909380
:103EB000F4038093F30380EC90E09093F6038093F7
:103EC000F50381EC90E09093F8038093F70382EC84
:103ED00090E09093FA038093F90386EC90E090933E
:103EE000FC038093FB031092FE031092FF031092D9
:103EF0000004109201048CE08093420584E28093D8
:103F0000430585E08093440596E0909345059EE146
:103F1000909346059FE19093470592E29093480560
:103F200093E29093490594E490934A0595E4909325
:103F30004B0510924D0510924C0590E490934F055F
:103F4000109254051092550510925605109257057F
:103F5000109258051092590510925A0510925B055F
:103F600098E0EBE0F2E0A4E6B5E001900D929A95BE
:103F7000E1F740E050E060EA70E440936C05509354
:103F80006D0560936E0570936F05E091BE04EC3093
:103F900008F024C191E09E0F9093BE04E093410588
:103FA0008E9FF0011124EE57FB4F88EB9BE092832C
:103FB0008183109205051092060510920705109254
:103FC00008051092090510920A0510920B0510922F
:103FD0000C0510920D0510920E0510920F0510920F
:103FE00010051092120510921105109214051092EE
:103FF00013051092160510921505109217051092D0
:1040000018051092190510921A0510921B051092AE
:104010001C051092290510922A0510922B0510926A
:104020002C0510922D0510922E0510922F0510923E
:10403000300580E090E0A0EAB0E4809331059093F1
:104040003205A0933305B093340580E090E0A8ECEE
:10405000B2E48093350590933605A0933705B0936D
:1040600038051092390510923A0510923B051092CE
:104070003C0510923D0510923E0510923F051092AE
:10408000400584EE9BECA6E1B0EC8093F1049093A4
:10409000F204A093F304B093F40484EE9BECA6E145
:1040A000B0E48093F5049093F604A093F704B093E2
:1040B000F8041092FD041092FE041092FF04109276
:1040C000000510920105109202051092030510924E
:1040D000040583E591E0A2EDB8E38093C5049093D5
:1040E000C604A093C704B093C8041092C9041092E8
:1040F000CA041092CB041092CC041092CD041092FA
:10410000CE041092CF041092D0041092D1041092D9
:10411000D2041092D3041092D4041092D5041092B9
:10412000D6041092D7041092D8041092D904109299
:10413000DA041092DB041092DC041092DD04109279
:10414000DE041092DF041092E0041092E104109259
:10415000E2041092E3041092E4041092E504109239
:10416000E6041092E7041092E8041092E904109219
:10417000EA041092EB041092EC041092ED041092F9
:10418000EE041092EF041092F0041092C00410920A
:10419000BF041092C2041092C1041092C404109281
:1041A000C30490E080E00E9451162091BF0430913A
:1041B000C004811117C02115310519F0C9010E94F1
:1041C000C12F1092C0041092BF041092C404109228
:1041D000C3041092C2041092C10408958FEF80931B
:1041E0004105E7CE1092C4041092C3046DE572E05D
:1041F000C9010C943431CF93DF93CDB7DEB7CF55DF
:10420000D1090FB6F894DEBF0FBECDBF789484B548
:10421000826084BD84B5816084BD85B5826085BDC2
:1042200085B5816085BD80916E00816080936E0050
:104230001092810080918100826080938100809142
:1042400081008160809381008091800081608093F3
:1042500080008091B10084608093B1008091B000B3
:1042600081608093B0008091910082608093910082
:104270008091910081608093910080919000816095
:10428000809390008091A10082608093A100809132
:10429000A10081608093A1008091A0008160809343
:1042A000A0008091210182608093210180912101F1
:1042B00081608093210180912001816080932001A1
:1042C00080917A00846080937A0080917A00826085
:1042D00080937A0080917A00816080937A00809147
:1042E0007A00806880937A001092C100E091F50313
:1042F000F091F60382E08083E091F103F091F20304
:104300001082E091F303F091F40380E18083109236
:10431000FD03E091F903F091FA0386E08083E091D8
:10432000F703F091F803808180618083E091F703C7
:10433000F091F803808188608083E091F703F09129
:10434000F803808180688083E091F703F091F8039F
:1043500080818F7D808361E0809143050E94F90315
:1043600060E0809143050E94710360E08091420506
:104370000E94F90380914C0590914D05892BA9F479
:1043800086E090E00E94252FFC0180914F058083FC
:1043900089ED93E092838183138280E290E095839C
:1043A0008483F0934D05E0934C05E0904C05F0902C
:1043B0004D0510928803109287031092B603109255
:1043C000D8030E94BA0382E392E09093840380931F
:1043D000830383E392E0909386038093850311E047
:1043E000D70113961C93C7010E942D07882309F457
:1043F0005BC080E090E1A0E0B0E080935005909336
:104400005105A0935205B09353058AE090E0A0E0D7
:10441000B0E08093540590935505A0935605B09352
:10442000570580E090E0A0E0B0E4809358059093B9
:104430005905A0935A05B0935B0580914C05909166
:104440004D051FA618AA19AA1AAA99A388A31BA2E8
:104450001AA219A785E090E09FA38EA31AA702E0F5
:1044600008A740E050E160E070E0CE0180960E9435
:10447000950680914C0590914D05188A198A1A8AE3
:104480001B8A9A8389831C821B821A8718861F8243
:104490001B8709874FE959E360E070E0CE01019680
:1044A0000E94950680934E0554E4E52E55E0F52EC6
:1044B00002E415E066E4A62E65E0B62E7AEF472EFC
:1044C00072E0572EE0E46E2EE3E07E2EFBECCF2E62
:1044D000F7E0DF2EF7019281D7018D917D01F80180
:1044E000828F938F61E00E94F90361E0D8015B96AF
:1044F0008C910E94F9034801BEE18B0E911CF701DB
:1045000095818381D8015E968C935E975F969C938C
:1045100061E00E94F90360E0F801878D0E94F903D1
:1045200061E0D8015E968C910E9471033FB6F894C9
:1045300080910703811125C0F2018491F3019491C8
:10454000E82FF0E0EE0FFF1FE958FD4FA591B49161
:104550008C91982321F461E085E30E94710361E06E
:1045600085E30E94F9038CB580618CBD8CB58064B5
:104570008CBD61E084E30E94F90361E083E30E9463
:10458000F903809107038F5F809307033FBEC60145
:104590000197F1F760E0D8015E968C910E9471035B
:1045A00088E80E94A80983E00E94A80961E0F80158
:1045B000868D0E947103C6010197F1F7C4010E9424
:1045C000AF090E5F1F4FA016B10609F083CF60E060
:1045D0008DE30E94F90360E080E10E94F90360E04E
:1045E0008EE00E94F90360E081E10E94F90360E03F
:1045F0008FE00E94F90361E080E20E94F9030E94CB
:104600001C028C01C090F104D090F204E090F304FD
:10461000F090F404A70196016091F5047091F604FE
:104620008091F7049091F8040E94272D4B015C01C2
:10463000B801110F880B990B0E94A92B9B01AC01AB
:10464000C501B4010E94082C20E030EC4FE754E48F
:104650000E94942DA70196010E94282D0E94062EEB
:104660007093FA046093F90480E090E0A0E8B0E46D
:104670008093050590930605A0930705B093080560
:1046800080E090E0A0E0B0E48093090590930A05F3
:10469000A0930B05B0930C058DEC9CECACECBDE34A
:1046A00080930D0590930E05A0930F05B093100510
:1046B0001092310510923205109233051092340594
:1046C00089E190E0A0E0B0E080932105909322057D
:1046D000A0932305B09324058DEC9CECACECBCE3DB
:1046E00080931D0590931E05A0931F05B093200590
:1046F00082E797E0909312058093110580EA92E19A
:104700009093140580931305CE0141962A969FAF8E
:104710008EAF2A97DE0111961D010E946607009157
:104720001203109113032091140330911503601BA1
:10473000710B820B930B693171058105910508F4AA
:10474000F2C60E941C028C019093FC048093FB042F
:10475000C090F104D090F204E090F304F090F404DF
:10476000A70196016091F5047091F6048091F70419
:104770009091F8040E94272D4B015C01B801110FA4
:10478000880B990B0E94A92B9B01AC01C501B401B8
:104790000E94082C20E030EC4FE754E40E94942D56
:1047A000A70196010E94282D6B017C012091FD0438
:1047B0003091FE044091FF04509100050E94272D86
:1047C000609301057093020580930305909304059F
:1047D0006091F9047091FA04072E000C880B990B74
:1047E0000E94A92B9B01AC01C701B6010E94272D95
:1047F0006093FD047093FE048093FF049093000582
:1048000060E0809162050E94710380E60E94A80921
:104810008E010F5F1F4F780180E00E94A80990E091
:10482000B0E0A0E0F70181939193A193B1937F0150
:104830002A968EAD9FAD2A978E179F0769F761E084
:10484000809162050E947103412C512C3201F801C4
:1048500081919191A191B1918F01762C652C542C6D
:104860004424480E591E6A1E7B1EEE16FF0679F779
:104870007094609450944094411C511C611C711CB4
:10488000D301C201BB0F880B982FDC012E968CAF91
:104890009DAFAEAFBFAF2E979090CD048090CE0469
:1048A0009091CF0463969FAF6397A091D0046496D4
:1048B000AFAF6497B091D1046596BFAF6597E091B3
:1048C000D2046696EFAF6697F091D3046796FFAF78
:1048D00067972091D40468962FAF6897292D382DBB
:1048E000492F5A2F6B2F7E2F8F2F68969FAD689779
:1048F000A090D504B090D604C090D704D090D8042E
:10490000E090D904F090DA040091DB041091DC040B
:104910000E941E2D69962FAF69976A963FAF6A97DE
:104920006B964FAF6B976C965FAF6C976D966FAF52
:104930006D976E967FAF6E976F968FAF6F97A096BD
:104940009FAFA0972093DD043093DE044093DF04F3
:104950005093E0046093E1047093E2046F96FFAD1E
:104960006F97F093E304A0962FADA0972093E404F3
:104970009092D5048092D60463968FAD639780930E
:10498000D70464969FAD64979093D8046596AFADB5
:104990006597A093D9046696BFAD6697B093DA0485
:1049A0006796EFAD6797E093DB046896FFAD689775
:1049B000F093DC044092CD045092CE046092CF0478
:1049C0007092D0042B962FAD2B972093D104209377
:1049D000D2042093D3042093D4048091C5049091F1
:1049E000C604A091C704B091C80462968CAF9DAF75
:1049F000AEAFBFAF6297C301B2010E94A92B62960E
:104A00002CAD3DAD4EAD5FAD62970E94082C20915C
:104A1000C9043091CA044091CB045091CC040E9447
:104A2000282D6093E5047093E6048093E704909347
:104A3000E8049201A3012B966FAD2B97762F862F5A
:104A4000962FA92CB82C6396CFAC63976496DFACF5
:104A500064976596EFAC65976696FFAC6697679628
:104A60000FAD679768961FAD68970E941E2D59017C
:104A70006A017B018C010E943C2E62962CAD3DADFB
:104A80004EAD5FAD62970E94082C6093E90470936D
:104A9000EA048093EB049093EC049501A601B7011E
:104AA000C8016996AFAC69976A96BFAC6A976B9676
:104AB000CFAC6B976C96DFAC6C976D96EFAC6D9747
:104AC0006E96FFAC6E976F960FAD6F97A0961FAD69
:104AD000A0970E941E2D0E943C2E62962CAD3DADEB
:104AE0004EAD5FAD62970E94082C6093ED04709309
:104AF000EE048093EF049093F0048EE00E9448034C
:104B0000892B21F08AE090E00E94FA0A80E10E945D
:104B10004803892B21F089E090E00E94FA0A81E1A4
:104B20000E944803892BE9F08BE090E00E94FA0A8A
:104B3000E0911003F09111033197EA30F10508F08C
:104B400071C08827E955FA4D8F4F0C94162DB72563
:104B5000372683269A26BE26DE26F22625274727D5
:104B60003C278FE00E944803892BF1F6E1CFC090EB
:104B70000105D0900205E0900305F090040520E0C7
:104B800030E0A901C701B6010E94902E18160CF55D
:104B90002AE037ED43EA5BE3C701B6010E94A22B8E
:104BA00087FD21C02DEC3CEC4CEC5DE36091FD04F5
:104BB0007091FE048091FF04909100050E94082CE2
:104BC00060931705709318058093190590931A0543
:104BD000DBC12AE037ED43EA5BEBC701B6010E9477
:104BE000902E1816FCF6C090FD04D090FE04E090C4
:104BF000FF04F090000520E030E0A901C701B601F4
:104C00000E94902E181644F52DEC3CEC4CE45DE32C
:104C1000C701B6010E94A22B87FFC4CF87E090E0B6
:104C20000E94FA0AE0911003F0911103EC30F105B3
:104C300008F0AAC18827E05EF94D8F4F0C94162D1D
:104C4000C52AD2256526962A52275227B82A202718
:104C5000B12A4D274227CA2A2DEC3CEC4CE45DEBEF
:104C6000C701B6010E94902E1816C4F29BCF25E30F
:104C700033E343E35EE36091E5047091E6048091E1
:104C8000E7049091E8040E94272D6B017C0120E04D
:104C900030E0A9010E94902E18166CF42AE037ED3E
:104CA00043E25CE3C701B6010E94A22B87FF0DC05F
:104CB00090E080E0B5CF2AE037ED43E25CEBC7013E
:104CC000B6010E94902E18169CF325E333E343E3CC
:104CD0005EE36091E5047091E6048091E7049091B1
:104CE000E8040E94A22B4DEC5CEC6CEC7DEB87FFA2
:104CF00004C04DEC5CEC6CEC7DE370588EE595E007
:104D00000E94810841C10E94660700910C03109126
:104D10000D0320910E0330910F03601B710B820B6A
:104D2000930B693E73408105910508F4FFC384E04D
:104D300090E076CF2AEE30E243EA5FE36091FD0433
:104D40007091FE048091FF04909100050E94902EC6
:104D500018160CF0A7C080910302909104020196EE
:104D600009F0A0C080910A0390910B0302969093E2
:104D700004028093030285E090E052CF20910A0361
:104D800030910B0380910302909104022817390798
:104D90000CF488C027E930ED41EC5EE36091FD043E
:104DA0007091FE048091FF04909100050E94902E66
:104DB00018160CF077C086E090E032CF2AE939E986
:104DC00049E95FE36091E5047091E6048091E704AE
:104DD0009091E8040E94902E18160CF0C9C381E04F
:104DE00090E01ECF25E333E343E35EE36091E50407
:104DF0007091E6048091E7049091E8040E94272DC9
:104E00006B017C0120E030E0A9010E94902E181671
:104E10006CF42AE037ED43E25CE3C701B6010E947F
:104E2000A22B87FF0DC088E090E0FACE2AE037ED94
:104E300043E25CEBC701B6010E94902E18169CF36A
:104E40002AE939E949E95FE344CF0E946607009106
:104E50000C0310910D0320910E0330910F03601B82
:104E6000710B820B930B693C71058105910508F468
:104E700078C382E090E0D4CE8EE00E944803892B74
:104E800009F416CF4DEC5CEC6CEC7DE337CF80E1A0
:104E90000E944803892B09F40BCF4DEC5CEC6CECC1
:104EA0007DEB2CCF0E94660700910C0310910D033F
:104EB00020910E0330910F03601B710B820B930B3B
:104EC0000E94A72B20E030E04AE754E40E94942D92
:104ED0006B017C0128EB3EE145E850E40E94082C80
:104EE0000E94952E9B01AC01C701B6010E94082CBF
:104EF00020E030E048EC52E40E94942D6B017C01EC
:104F000020E030E0A9010E94A22B01E010E087FF21
:104F100002C00FEF1FEF80910803909109038017E3
:104F2000910769F0109309030093080380910A0325
:104F300090910B03019690930B0380930A0323E354
:104F40003BE042E654E46091E5047091E604809110
:104F5000E7049091E8040E94902E18166CF40F3F1D
:104F60001F4F51F42FE832EC45EF5CE3C701B60167
:104F70000E94272D6B017C01C0921705D092180565
:104F8000E0921905F0921A050E9466070091290522
:104F900010912A0520912B0530912C05601771077F
:104FA0008207930708F45BC080911B05882309F4EE
:104FB00056C00E946607009121051091220520919C
:104FC000230530912405DC01CB01800F911FA21F26
:104FD000B31F8093290590932A05A0932B05B093C6
:104FE0002C05C0901705D0901805E0901905F09099
:104FF0001A05E0911105F091120519959B01AC017C
:10500000C701B6010E94272D6B017C019F7720917B
:1050100031053091320540913305509134050E949D
:10502000A22B87FFC4C281E080931C0510921B0550
:10503000E0911505F0911605309709F019958091CA
:10504000290590912A05A0912B05B0912C058093FC
:105050002D0590932E05A0932F05B093300581E088
:1050600092E09A8389831B821D821C82A6E0B0E0B5
:10507000AC0FBD1FBF8BAE8B188E84E0898F8FEF76
:105080008A8F1F8E0E9466076B017C0139A228A2BD
:10509000E4EDF2E0FBA3EAA3CE0180960E949E1B02
:1050A0008C01009781F0B1010E94D90ED8011496AD
:1050B0008C9114978078886014968C93F801C08244
:1050C000D182E282F382E0901003F090110339A2C2
:1050D00028A28CE992E09BA38AA3CE0180960E942D
:1050E0009E1B8C010097A1F0B1010E94D90ED8013E
:1050F00014968C91149780788A6014968C93C701CB
:10510000FF0CAA0BBB0BF80180839183A283B383AE
:105110008091050590910605A0910705B0910805BD
:1051200088A399A3AAA3BBA33CAA2BAA8FE892E0C9
:105130009EAB8DABBE01605E7F4FCE01C3960E94D9
:10514000DC1B8091090590910A05A0910B05B09197
:105150000C0588A399A3AAA3BBA33CAA2BAA82E906
:1051600092E09EAB8DABBE01605E7F4FCE01C396D9
:105170000E94DC1B80910D0590910E05A0910F05FA
:10518000B091100588A399A3AAA3BBA33CAA2BAAFC
:1051900085E992E09EAB8DABBE01605E7F4FCE0194
:1051A000C3960E94DC1B8091170590911805A09171
:1051B0001905B0911A0588A399A3AAA3BBA33CAA79
:1051C0002BAA8EE992E09EAB8DABBE01605E7F4F55
:1051D000CE01C3960E94DC1B8091E5049091E60409
:1051E000A091E704B091E80488A399A3AAA3BBA364
:1051F0003CAA2BAA82EA92E09EAB8DABBE01605E18
:105200007F4FCE01C3960E94DC1B8091E9049091F0
:10521000EA04A091EB04B091EC0488A399A3AAA39B
:10522000BBA33CAA2BAA81EA92E09EAB8DABBE0148
:10523000605E7F4FCE01C3960E94DC1B8091ED041F
:105240009091EE04A091EF04B091F00488A399A38B
:10525000AAA3BBA33CAA2BAA80EA92E09EAB8DAB8B
:10526000BE01605E7F4FCE01C3960E94DC1B809121
:10527000FD049091FE04A091FF04B091000588A365
:1052800099A3AAA3BBA33CAA2BAA85EA92E09EAB52
:105290008DABBE01605E7F4FCE01C3960E94DC1BCA
:1052A0008091010590910205A0910305B09104053C
:1052B00088A399A3AAA3BBA33CAA2BAA84EA92E041
:1052C0009EAB8DABBE01605E7F4FCE01C3960E9448
:1052D000DC1BF0901C0539A228A28CEA92E09BA36B
:1052E0008AA3CE0180960E949E1B8C01009769F0D4
:1052F000B1010E94D90ED80114968C911497807830
:10530000866014968C931497FC9280914C05909132
:105310004D051FA618AA19AA1AAA99A388A31BA209
:105320001AA211E019A782E090E09FA38EA31AA70A
:1053300002E008A7BE016D5C7F4FCE0180960E94FF
:10534000EA1080934E05EBA8FCA883E0F694E7945E
:105350008A95E1F7EE0CFF1CEE0CFF1C80914C05CA
:1053600090914D051FA618AA19AA1AAA99A388A355
:105370001BA21AA219A781E090E09FA38EA31AA7EF
:1053800008A7BE016D5C7F4FCE0180960E94EA1097
:1053900080934E056BA97CA9072E000C880B990BF6
:1053A0000E94A92B2AE037ED43E25CE30E94082C1F
:1053B00020E030E04AE754E40E94942D4B015C0168
:1053C000B701FF0C880B990B0E94A92B2FE632E145
:1053D00043E85AE30E94082C9B01AC01C501B401CB
:1053E0000E94282D68A379A38AA39BA33CAA2BAA79
:1053F00087EA92E09EAB8DABBE01605E7F4FCE012F
:10540000C3960E94DC1B80914C0590914D05269619
:105410001CAE1DAE1EAE1FAE26979CAB8BAB1EAA5C
:105420001DAA1CAF85E090E09AAF89AF1DAF0BAF0E
:10543000409150055091510560915205709153056E
:10544000CE01C3960E94950680914C0590914D0522
:105450001FA618AA19AA1AAA99A388A31BA21AA25E
:1054600019A784E090E09FA38EA31AA708A7BE0106
:105470006A5B7F4FCE0180960E94EA1080934E05B2
:1054800028966EAD7FAD2897072E000C880B990BE0
:105490000E94A92B6B017C01609154057091550508
:1054A00080915605909157050E94A72B9B01AC0156
:1054B000C701B6010E94942D20E030E04AE754E491
:1054C0000E94942D68A379A38AA39BA33CAA2BAA2C
:1054D00089EA92E09EAB8DABBE01605E7F4FCE014C
:1054E000C3960E94DC1B85EE93E099A388A31BA2C0
:1054F0001AA23DA22CA2BE01605E7F4FCE014B9648
:105500000E9473138CE892E00E94A712C1010E94CE
:10551000900E0E94660760931203709313038093AA
:105520001403909315030E94711BF7C840E050E0EC
:1055300060E070E88EE595E00E9481080E946607B1
:1055400000910C0310910D0320910E0330910F0375
:10555000601B710B820B930B643F714081059105B9
:1055600010F460E001C061E080E20E9471030CCDA4
:105570008DEC9CECACE4BEE380931705909318058A
:10558000A0931905B0931A05FFCC40E050E060E00D
:1055900070E8B4CB40E050E060E070E88EE595E064
:1055A0000E94810882E695E00E94AF09EDCC00914F
:1055B0001305109114050E94660780902D059090A8
:1055C0002E05A0902F05B0903005681979098A0939
:1055D0009B0960932505709326058093270590937A
:1055E00028052091390530913A0540913B055091AD
:1055F0003C05C701B6010E94282D609339057093C0
:105600003A0580933B0590933C058090350590903A
:105610003605A0903705B0903805A50194010E9489
:10562000902E181644F48092390590923A05A09273
:105630003B05B0923C05B7FAB094B7F8B094A50119
:1056400094016091390570913A0580913B059091E4
:105650003C050E94A22B87FF08C0809239059092DA
:105660003A05A0923B05B0923C0580901D059090B4
:105670001E05A0901F05B09020052091390530919E
:105680003A0540913B0550913C05609109057091A8
:105690000A0580910B0590910C050E94082CA5012C
:1056A00094010E94082C2B013C01209105053091AA
:1056B00006054091070550910805C701B6010E94F3
:1056C000082C9B01AC01C301B2010E94282D2B01C3
:1056D0003C0120913D0530913E0540913F055091A0
:1056E0004005C701B6010E94272D20910D0530917C
:1056F0000E0540910F05509110050E94082CA50140
:1057000094010E94942D9B01AC01C301B2010E943F
:10571000282DC0923D05D0923E05E0923F05F092C3
:105720004005F80119958BCC8091BF049091C0047D
:10573000009711F00E94C12F80914C0590914D056A
:105740000C94C12F0E94E42B08F481E00895E894A2
:1057500009C097FB3EF490958095709561957F4FB9
:105760008F4F9F4F9923A9F0F92F96E9BB27939567
:10577000F695879577956795B795F111F8CFFAF477
:10578000BB0F11F460FF1BC06F5F7F4F8F4F9F4FA8
:1057900016C0882311F096E911C0772321F09EE806
:1057A000872F762F05C0662371F096E8862F70E06C
:1057B00060E02AF09A95660F771F881FDAF7880F46
:1057C0009695879597F90895990F0008550FAA0B9C
:1057D000E0E8FEEF16161706E807F907C0F0121604
:1057E0001306E407F50798F0621B730B840B950B07
:1057F00039F40A2661F0232B242B252B21F408955C
:105800000A2609F4A140A6958FEF811D811D0895F8
:105810000E941B2C0C948C2C0E947E2C38F00E9431
:10582000852C20F0952311F00C94752C0C947B2C76
:1058300011240C94C02C0E949D2C70F3959FC1F3F1
:10584000950F50E0551F629FF001729FBB27F00D2E
:10585000B11D639FAA27F00DB11DAA1F649F662783
:10586000B00DA11D661F829F2227B00DA11D621FD2
:10587000739FB00DA11D621F839FA00D611D221F8C
:10588000749F3327A00D611D231F849F600D211D70
:10589000822F762F6A2F11249F5750409AF0F1F0F3
:1058A00088234AF0EE0FFF1FBB1F661F771F881F5C
:1058B00091505040A9F79E3F510580F00C94752CF3
:1058C0000C94C02C5F3FE4F3983ED4F38695779513
:1058D0006795B795F795E7959F5FC1F7FE2B880F02
:1058E000911D9695879597F9089597F99F6780E898
:1058F00070E060E008959FEF80EC089500240A9422
:105900001616170618060906089500240A9412169A
:105910001306140605060895092E0394000C11F4CD
:10592000882352F0BB0F40F4BF2B11F460FF04C07A
:105930006F5F7F4F8F4F9F4F089557FD9058440FD3
:10594000551F59F05F3F71F04795880F97FB991FDE
:1059500061F09F3F79F0879508951216130614069B
:10596000551FF2CF4695F1DF08C016161706180628
:10597000991FF1CF86957105610508940895E89403
:10598000BB2766277727CB0197F908950E94F32C50
:10599000A59F900DB49F900DA49F800D911D112483
:1059A0000895A1E21A2EAA1BBB1BFD010DC0AA1F60
:1059B000BB1FEE1FFF1FA217B307E407F50720F078
:1059C000A21BB30BE40BF50B661F771F881F991FF3
:1059D0001A9469F760957095809590959B01AC013C
:1059E000BD01CF010895A29FB001B39FC001A39F45
:1059F000700D811D1124911DB29F700D811D112408
:105A0000911D0895AA1BBB1B51E107C0AA1FBB1F14
:105A1000A617B70710F0A61BB70B881F991F5A953A
:105A2000A9F780959095BC01CD010895EE0FFF1F59
:105A3000881F8BBF0790F691E02D19942A193B0916
:105A40004C095D096E097F09800B910B0895505830
:105A5000BB27AA270E943F2D0C948C2C0E947E2CE1
:105A600038F00E94852C20F039F49F3F19F426F479
:105A70000C947B2C0EF4E095E7FB0C94752CE92F2D
:105A80000E949D2C58F3BA17620773078407950785
:105A900020F079F4A6F50C94BF2C0EF4E0950B2EB3
:105AA000BA2FA02D0B01B90190010C01CA01A00170
:105AB0001124FF27591B99F0593F50F4503E68F1CB
:105AC0001A16F040A22F232F342F4427585FF3CF0C
:105AD000469537952795A795F0405395C9F77EF4DD
