:100000000C94B3010C94E4010C94E4010C94E4010D
:100010000C94E4010C94E4010C94E4010C94E401CC
:100020000C94E4010C94E4010C94E4010C94E401BC
:100030000C94E4010C94B81E0C94E4010C94E401BB
:100040000C94E4010C94B51F0C94E4010C94E401AD
:100050000C94E4010C94E4010C94E4010C946E1EE5
:100060000C94E4010C947F1F0C94551F0C94E40134
:100070000C94E4010C94E4010C94E4010C94E4016C
:100080000C94E4010C94E4010C94E4010C94E4015C
:100090000C94E4010C94E4010C94E4010C944A1DCA
:1000A0000C94E4010C94E4010C94E4010C94E4013C
:1000B0000C94E4010C94E4010C94E4010C94E4012C
:1000C0000C94E4010C94E4010C94E4010C94E4011C
:1000D0000C94E4010C94E4010C94E4010C94E4010C
:1000E0000C94E4010C94BE030C9447080C94C226B3
:1000F0000C94EF090C94B4030C94D6030C94690887
:100100000C94A4270C9414030C941C0A0C94260A37
:100110000C94120A0C94A1080C9486260C94D50316
:100120000C9401030C94CC250C9448030C94D11727
:100130000C9464170C94BA030C94E5090C9477277B
:100140000C9409270C94D6260C94F1020C94C9093E
:100150000C94A3090C948D090C9435080C94842BF1
:100160000C94300A0C94B0030C94DB090C945B08DB
:100170000C94DA030C94D0030C94C8020C94D109AB
:100180000C949B030C9494270C948E270C940808D1
:100190000C94C8030C949F270C94080A0C94AA038F
:1001A0000C9495030C94870B0C949F030C94F2020F
:1001B0000C94F7260C94B7090C94AD090C94C90261
:1001C0000C94DB120C94FE090C94C2030C94CC0327
:1001D0000C94E1250C94772B0C9495170C945D20CE
:1001E0000C949E090C941B030C943A260C946E2BD1
:1001F0000C9499270C94EE080C945E2C0C943808FF
:100200000C94A7030C94722B0C94C1090C94A303B7
:10021000CDCCCC3D0AD7233C17B7D13877CC2B3285
:100220009595E6241FB14F0A000020410000C84206
:1002300000401C4620BCBE4CCA1B0E5AAEC59D7465
:100240000200002100240027002A002D0030003386
:100250000001010000040107010A0100002200253D
:100260000028002B002E00310034000201000005A0
:100270000108010B01000020002300260029002CAA
:10028000002F0032000001000003010601090105F2
:10029000050505070508080808020202020A0A08FF
:1002A0000804040404010101010101010103030325
:1002B0000303030303040707070C0C0C0C0C0C0CC2
:1002C0000C0202020206060606060606060B0B0BC9
:1002D0000B0B0B0B0B010210202008081020401004
:1002E00020408002010201080402010102040810FA
:1002F0002040808040201008040201800402018018
:100300004020100804020108040201010204081040
:10031000204080010204081020408000000A0B02E7
:10032000090C0D0E08070304010000000000000086
:1003300000000000000000000000000000000000BD
:10034000000000000000001211100000000000007A
:10035000000000000000000000000000000000009D
:1003600000005D205E2C11241FBECFEFD1E2DEBF66
:10037000CDBF00E00CBF12E0A0E0B2E0ECEEF3E68F
:1003800000E00BBF02C007900D92A03FB107D9F764
:1003900025E0A0EFB2E001C01D92A03AB207E1F75C
:1003A00011E0C2EBD1E000E006C021970109802FE7
:1003B000FE010E94E02DC13BD10780E00807A9F7AC
:1003C0000E9435220C94E4310C9400008F929F928D
:1003D000AF92BF92CF92DF92EF92FF920F931F9353
:1003E000CF93DF938C01C3E1D5E0C880D980EA8048
:1003F000FB80A70196016C817D818E819F810E9487
:10040000F12D4B015C01B801110F880B990B0E9473
:10041000732C9B01AC01C501B4010E94D22C20E0D9
:1004200030EC4FE754E40E94752EA70196010E941C
:10043000F22D6B017C0168857985072E000C880BF5
:10044000990B0E94732C9B01AC01C701B6010E945D
:10045000F12DDF91CF911F910F91FF90EF90DF90E1
:10046000CF90BF90AF909F908F9008954F925F92E2
:100470006F927F928F929F92AF92BF92CF92DF92B4
:10048000EF92FF92CF93DF93C3E1D5E0C880D9808C
:10049000EA80FB80A70196016C817D818E819F811E
:1004A0000E94F12D4B015C016A857B85072E000CB3
:1004B000880B990B0E94732CA50194010E94D22CE9
:1004C00020E030EC4FE754E40E94752EA70196011E
:1004D0000E94F22D2B013C016C857D85072E000CBE
:1004E000880B990B0E94732CA50194010E94D22CB9
:1004F00020E030EC4FE754E40E94752EA7019601EE
:100500000E94F22D9B01AC01C301B2010E94F12DAA
:10051000DF91CF91FF90EF90DF90CF90BF90AF90A1
:100520009F908F907F906F905F904F900895CF93A2
:10053000DF93EC0188819981DC01ED91FC910190C0
:10054000F081E02D64E270E01995009741F02FE111
:10055000FC01238321E02283DF91CF91089521E0E4
:100560002A83FACF80917B00877F80937B0087E48A
:1005700080937C0080917A00806480937A008091DF
:100580007A0086FDFCCF80917800909179000895E3
:100590000895089520916E03260F3327331F2132CB
:1005A0003105ECF42091DD03FC0190E080E0243083
:1005B00069F082E00895A0916E032191AC01425B45
:1005C0005C4FA40FB52FB11D2C930196861798F39D
:1005D00080916E03680F60936E0380E0089581E060
:1005E00008950895E091B6038091B503E81730F4BB
:1005F000F0E0EF56FC4F808190E008958FEF9FEF81
:1006000008959091B6038091B5032FEF3FEF9817AF
:1006100048F4E92FF0E0EF56FC4F208130E09F5F77
:100620009093B603C90108958091B5039091B603E4
:10063000891B990B0895CF92DF92EF92FF920F934F
:100640001F93CF93DF937C01CB018A012091E303B9
:10065000222389F0EB016B01C40ED51ECC15DD05FC
:1006600069F06991D701ED91FC910190F081E02D45
:10067000C7011995F3CF642F0E94CA02C801DF9108
:10068000CF911F910F91FF90EF90DF90CF90089541
:10069000CF93DF931F92CDB7DEB769832091E30339
:1006A0002223F9F020910604203258F021E030E0B6
:1006B000FC013383228390E080E00F90DF91CF91A3
:1006C00008958091E403E82FF0E0EB51FC4F99810D
:1006D00090838F5F8093E4038093060481E090E031
:1006E000ECCF61E0CE0101960E94CA02F7CF8150A3
:1006F000823108F05AC0E82FF0E08827ED57FC4F10
:100700008F4F0C94E02DA303A70395039B039F0336
:10071000D503AA03B003B403BA03BE03C203C803DC
:10072000CC03D503D003D603DA03809180008F7702
:10073000809380000895809180008F7DF9CF809113
:100740008000877FF5CF84B58F7784BD089584B509
:100750008F7DFBCF8091B0008F778093B00008959C
:100760008091B0008F7DF9CF809190008F7780933A
:1007700090000895809190008F7DF9CF8091900036
:10078000877FF5CF8091A0008F778093A000089598
:100790008091A0008F7DF9CF8091A000877FF5CF59
:1007A000809120018F77809320010895809120010E
:1007B0008F7DF9CF80912001877FF5CFCF93DF9395
:1007C000282F30E0F901E55EFC4F8491F901EB52EE
:1007D000FD4FD491F901E157FD4FC491CC23A1F015
:1007E00081110E947703EC2FF0E0EE0FFF1FEB5812
:1007F000FD4FA591B491EC91ED2381E090E009F4D7
:1008000080E0DF91CF91089580E090E0FACF1F93D0
:10081000CF93DF93282F30E0F901E55EFC4F849100
:10082000F901EB52FD4FD491F901E157FD4FC4910D
:10083000CC23A9F0162F81110E947703EC2FF0E052
:10084000EE0FFF1FE55AFD4FA591B4918FB7F894B5
:10085000EC91111108C0D095DE23DC938FBFDF919E
:10086000CF911F910895DE2BF8CFFC0183858F3F38
:1008700019F061E00C9407040895FC0180819181D6
:10088000892B39F0A281B3819C9111968C919CBDEA
:100890008DBD83858F3F19F060E00C9407040895A7
:1008A0001092DD0381E08093DC031092B70361E0D6
:1008B00084E10E94070461E085E10E940704E9EBFE
:1008C000F0E080818E7F808380818D7F808388E4CB
:1008D0008093B80085E48093BC000895CF93DF93A4
:1008E00091E090934D038823B9F0C091B800D09166
:1008F000BA008091BC008A7B8093BC0060E084E1F8
:100900000E94070460E085E10E9407040E945004F1
:10091000D093BA00C093B800DF91CF910895CF93E0
:10092000DF9390E0FC01EB52FD4F249181579D4FE6
:10093000FC0184918823D1F090E0880F991FFC017D
:10094000EF5BFD4FA591B491FC01E55AFD4FC591B8
:10095000D49161110EC09FB7F8948C91E22FE0956D
:100960008E238C932881E223E8839FBFDF91CF9170
:1009700008958FB7F894EC91E22BEC938FBFF6CFEC
:100980008230910538F0880F991F880F991F0597BD
:100990000197F1F70895AF92BF92CF92DF92EF9255
:1009A000FF920F931F93CF93DF93EC01888199817E
:1009B000892B89F06EBD0DB407FEFDCFBEB48B2D23
:1009C000DF91CF911F910F91FF90EF90DF90CF902B
:1009D000BF90AF9008958885998511E0892B09F023
:1009E00010E8AA24A394862F812309F0A12C062FB6
:1009F0002C813D814E815F8160E271EA87E090E069
:100A00000E949B2DF22EB02EE12CC22ED12CFF2065
:100A100019F0C6010E94C0048A85877F09F042C090
:100A20008D858F3F89F0902F912381E009F480E03C
:100A30008A1551F0EF85F8898F89992369F19081A2
:100A4000892B8083AA24A394E989FA898081998DCE
:100A5000892B8083FF2019F0C6010E94C0048E8577
:100A60008F3F39F0EB89FC898081988D892309F0CB
:100A7000E12AE989FA899081898D8095892380838B
:100A80008E858F3F09F0BE2C88859985892BB9F515
:100A9000110F1111BCCF93CF908180958923808352
:100AA000A12CD2CFE989FA898081998D892B808305
:100AB000FF2019F0C6010E94C0048D858F3F49F0C8
:100AC000EF85F8898F89902F9123A9F09081892B48
:100AD0008083E989FA899081898D80958923808333
:100AE0008E858F3F69F2EB89FC898081988D8923FF
:100AF00039F2E12AC5CF908180958923E9CF1695F7
:100B0000C8CF8F929F92AF92BF92CF92DF92EF9217
:100B1000FF920F931F93CF93DF937C014B016A01E8
:100B2000B22EA32E0E943D04E401C80CD91CCC15A2
:100B3000DD0569F4CB2DDA2D0C0F1D1FC017D10771
:100B400059F06FEFC7010E94CB048993F7CF6991E9
:100B5000C7010E94CB04EBCFC7010E94350481E09E
:100B6000DF91CF911F910F91FF90EF90DF90CF9089
:100B7000BF90AF909F908F9008958F929F92AF9269
:100B8000BF92CF92DF92EF92FF920F931F93CF937A
:100B9000DF937C01B62EA72E6A0149010E943D0415
:100BA000E401080D191DC017D10761F4CB2DDA2D12
:100BB000CC0EDD1ECC15DD0551F06991C7010E94F8
:100BC000CB04F8CF6991C7010E94CB04ECCFC701D9
:100BD0000E94350481E0DF91CF911F910F91FF902A
:100BE000EF90DF90CF90BF90AF909F908F9008953F
:100BF0003FB7F8948091490390914A03A0914B0329
:100C0000B0914C0326B5A89B05C02F3F19F0019663
:100C1000A11DB11D3FBFBA2FA92F982F8827BC0156
:100C2000CD01620F711D811D911D42E0660F771F7E
:100C3000881F991F4A95D1F708958F929F92AF927E
:100C4000BF92CF92DF92EF92FF920F931F93CF93B9
:100C5000DF93D0910604D13208F0D7C0182FC0918D
:100C600005040E94F8056B017C018091DD03811170
:100C70006BC082E08093DD031093DC038FEF8093E1
:100C8000DB031092DA03D093D903A5EEB3E0E9EBCE
:100C9000F3E080E0D81391C01092B8038091B803BC
:100CA000CC0FC82BC093B8038091B703813009F0F3
:100CB00088C01092B7030E94F8056B017C018091F7
:100CC000B8038093BB008091DF039091E003A09173
:100CD000E103B091E203892B8A2B8B2BA1F00E94B8
:100CE000F8050091DF031091E0032091E1033091BA
:100CF000E2036C197D098E099F090617170728075B
:100D0000390708F442C08091BC0083FDD8CF85EC40
:100D10008093BC000E94F8056B017C018091DD038B
:100D2000823009F450C08091DB038F3F09F46FC01B
:100D30008091DB03803209F46CC08091DB03803347
:100D400009F469C084E026C08091DF039091E0033C
:100D5000A091E103B091E203892B8A2B8B2B09F43C
:100D600084CF0E94F8058090DF039090E003A0906C
:100D7000E103B090E2036C197D098E099F09861684
:100D80009706A806B90608F070CF8091DE030E948E
:100D90006E0485E01092E403109206041092E303BF
:100DA000DF91CF911F910F91FF90EF90DF90CF9047
:100DB000BF90AF909F908F9008959D9191938F5F7A
:100DC00069CF85EEA5CF8091DF039091E003A091DC
:100DD000E103B091E203892B8A2B8B2B09F49ECF80
:100DE0000E94F8050091DF031091E0032091E103D8
:100DF0003091E2036C197D098E099F0906171707C8
:100E00002807390708F08ACFC0CF81E0C3CF80E040
:100E1000C1CF82E0BFCF83E0BDCF1F93CF93DF93DD
:100E2000EA01122FDC0111968D919C91DC01ED916C
:100E3000FC910280F381E02D1995C817D90729F498
:100E4000812F0E941D0691E0811190E0892FDF9192
:100E5000CF911F910895CF92DF92EF92FF920F935F
:100E60001F93CF93DF931F921F92CDB7DEB7FC0184
:100E70004787508B618B728B8285882371F1448701
:100E8000452F562F672F7727882349F143877F0106
:100E90008BE0E80EF11C9681878199838A83C0805C
:100EA000D180C114D10409F443C0018510E0980138
:100EB0002E5F3F4FD60114968D919C918217930718
:100EC00080F480E00F900F90DF91CF911F910F91F0
:100ED000FF90EF90DF90CF9008954387D1CF448764
:100EE000D6CFF60181819281208131E03093E303F6
:100EF000209305041092E4031092060401151105D5
:100F000041F421E042E050E0B701C6010E940D0724
:100F1000D9CFDC01ED91FC910280F381E02DA80195
:100F2000BE016F5F7F4F19950817190751F6E9CF7A
:100F3000A281B381109729F224813581018510E0C7
:100F40002330310579F48E7F89839A830F5F1F4F99
:100F50009E012F5F3F4F42E050E0B701CD010E945C
:100F6000BD05B0CF2115310519F49F779983F0CFD6
:100F70002230310511F49068F9CF2130310541F765
:100F80009F779064F3CFCF93DF93EC018B8188231D
:100F9000A1F0888191E09093E3038093050410927F
:100FA000E4031092060481E00E941D0691E0811185
:100FB00090E0892FDF91CF9108951092B60310929F
:100FC000B5031092E403109206040E94500488ECCA
:100FD00092E09093B2038093B10389EC92E09093F6
:100FE000B4038093B30381E08B83CE010E94C307D7
:100FF000982F8111CECFDDCF2FB7F89460914503A4
:101000007091460380914703909148032FBF089544
:10101000AF92BF92CF92DF92EF92FF920F931F9306
:10102000CF93DF936C017B018B01040F151FEB0144
:101030005E01AE18BF08C017D10759F06991D601FB
:10104000ED91FC910190F081E02DC6011995892B5D
:1010500079F7C501DF91CF911F910F91FF90EF902C
:10106000DF90CF90BF90AF90089590E080E008951A
:10107000FC01538D448D252F30E0842F90E0821B9E
:10108000930B541710F0CF96089501970895FC0123
:10109000918D828D981761F0A28DAE0FBF2FB11D7B
:1010A0005D968C91928D9F5F9F73928F90E00895D3
:1010B0008FEF9FEF0895FC01918D828D981731F08D
:1010C000828DE80FF11D858D90E008958FEF9FEFE1
:1010D0000895FC01918D228D892F90E0805C9F4FB7
:1010E000821B91098F739927089583E194E00E94F0
:1010F000690821E0892B09F420E0822F0895FC0182
:10110000A48DA80FB92FB11DA35ABF4F2C91848D68
:1011100090E001968F739927848FA689B7892C93C5
:10112000A089B1898C91837080648C93938D848D18
:10113000981306C00288F389E02D80818F7D80831B
:101140000895EF92FF920F931F93CF93DF93EC01DB
:1011500081E0888F9B8D8C8D98131AC0E889F9895E
:10116000808185FF15C09FB7F894EE89FF89608361
:10117000E889F98980818370806480839FBF81E0E2
:1011800090E0DF91CF911F910F91FF90EF90089524
:10119000F62E0B8D10E00F5F1F4F0F731127E02EFF
:1011A0008C8D8E110CC00FB607FCFACFE889F98937
:1011B000808185FFF5CFCE010E947F08F1CFEB8DB6
:1011C000EC0FFD2FF11DE35AFF4FF0829FB7F8940B
:1011D0000B8FEA89FB8980818062CFCFCF93DF9329
:1011E000EC01888D8823B9F0AA89BB89E889F9893F
:1011F0008C9185FD03C0808186FD0DC00FB607FC74
:10120000F7CF8C9185FFF2CF808185FFEDCFCE01A6
:101210000E947F08E9CFDF91CF9108958F929F922E
:10122000AF92BF92CF92DF92EF92FF920F931F93F4
:10123000CF93DF93EC016A017B0120E030E04FE7C0
:1012400053E4CB01B6010E94D22C4B015C0120E09B
:1012500030E0A9010E94C92F18168CF5C501B40110
:101260000E94E72E8B01B98020E030E0A901C70180
:10127000B6010E94C92F60E018160CF061E08B2DBA
:101280000E9407040F3F110509F0ECF41127C881F3
:1012900061E08C2F0E948F0401151105B9F460E004
:1012A0008C2FDF91CF911F910F91FF90EF90DF90E6
:1012B000CF90BF90AF909F908F900C940704C50182
:1012C000B4019058CDCF0FEF10E0E1CF0F3F1105E3
:1012D00011F461E0E5CFEC2FF0E0E55EFC4FE49126
:1012E000E150E23108F0BCC0F0E08827E558F64F45
:1012F0008F4F0C94E02D8D099E09A309AD09B70904
:10130000300AC109C909D109DB09E509EF09FE095C
:10131000080A300A120A1C0A260A84B5806884BDAD
:1013200007BDDF91CF911F910F91FF90EF90DF905C
:10133000CF90BF90AF909F908F90089584B58062BA
:1013400084BD08BDEECF80918000806880938000CE
:101350001093890000938800E4CF80918000806220
:101360008093800010938B0000938A00DACF8091E5
:10137000800088608093800010938D0000938C0023
:10138000D0CF8091B00080688093B0000093B3000C
:10139000C8CF8091B00080628093B0000093B40009
:1013A000C0CF809190008068809390001093990046
:1013B00000939800B6CF8091900080628093900057
:1013C00010939B0000939A00ACCF809190008860AE
:1013D0008093900010939D0000939C00A2CF809179
:1013E000A00080688093A0008091A0008F7B8093F4
:1013F000A0001093A9000093A80093CF8091A000B3
:1014000080628093A0001093AB000093AA0089CF64
:101410008091A00088608093A0001093AD0000939D
:10142000AC007FCF809120018068809320011093D1
:1014300029010093280175CF80912001806280935B
:10144000200110932B0100932A016BCF8091200182
:1014500088608093200110932D0100932C0161CFAF
:10146000003811050CF035CF1ACF8EBD00000DB439
:1014700007FEFDCF8EB50895CF93DF93EC0160E0BA
:1014800088810E94070488E90E94350A80E00E9452
:10149000350A80E00E94350A80E00E94350A80E02B
:1014A0000E94350A61E088810E9407048BE891E080
:1014B0000197F1F760E088810E94070480EE0E94A6
:1014C000350A61E08881DF91CF910C9407046F3F6A
:1014D000B1F0E62FE295EF7044E0E49F9001112413
:1014E000DC01ED91FC91E20FF31F6F70B8E06B9F90
:1014F000C001112462817381860F971F089590E0C7
:1015000080E00895CF93DF93EC0188819981DC011D
:10151000ED91FC910190F081E02D19952A813B819C
:10152000820F931F9B838A83DF91CF910895982F19
:1015300080336CF08A3324F08F3524F08B3724F419
:1015400081E0089581341CF081E09B350CF080E04F
:101550000895CF93DF93EC0188819981DC01ED91AF
:10156000FC910280F381E02D19952A813B81820F45
:10157000931F9B838A83DF91CF9108958F929F92CF
:10158000AF92BF92CF92DF92EF92FF920F931F9391
:10159000CF93DF93CDB7DEB766970FB6F894DEBF73
:1015A0000FBECDBF6C018E01095E1F4F78018AE02E
:1015B000882E912CA12CB12CCB01BA01A50194014C
:1015C0000E949B2D942F852F605DF80162938F01FF
:1015D000A901692F782F411551056105710561F742
:1015E000A7014E1B5F0BBF01C6010E94A90A6696A8
:1015F0000FB6F894DEBF0FBECDBFDF91CF911F9124
:101600000F91FF90EF90DF90CF90BF90AF909F90A1
:101610008F900895FC018485811114C0A781B08545
:10162000818592852FEF3FEFA817B90730F4CD01E0
:101630000196908787832C9130E037FD20E0238747
:1016400081E08487838508951F93CF93DF93EC0116
:10165000162F0E940A0B811306C01C8681E0DF91C1
:10166000CF911F91089580E0FACF0F931F93CF93EE
:10167000DF938C01EB018991882369F0C8010E94F6
:101680000A0B882379F0FE013197908198130DC0E1
:10169000F8011486F0CF90E080E0DF91CF911F91A8
:1016A0000F91089582E090E0F8CF83E090E0F5CFCD
:1016B000CF93DF93EC01CE010E940A0B8B304CF4E8
:1016C00089305CF4882359F081E08E8390E080E0DB
:1016D0000BC08D3011F08032B9F71C86ECCF8E81B3
:1016E000811105C081E090E0DF91CF91089582E003
:1016F00090E0FACFDC01ED91FC91309731F09481CC
:101700009F7781E019F080E0089581E00895AF921D
:10171000BF92CF92DF92EF92FF920F931F93CF93DE
:10172000DF93C3EFD4E0288539854A855B856C85D6
:101730007D858E859F85A888B988CA88DB88EC88D6
:10174000FD880E891F890E94E82D0E941D2F288187
:1017500039814A815B810E94D22CDF91CF911F9108
:101760000F91FF90EF90DF90CF90BF90AF900895D2
:101770004F925F926F927F928F929F92AF92BF92A1
:10178000CF92DF92EF92FF920F931F93CF93DF934D
:10179000EB01DC012C912B32D9F12D32D1F50196E0
:1017A000FF24F394FC01208130ED320F3A3018F021
:1017B0002E3209F042C18C0160E070E0CB01F801EB
:1017C000219130ED832E820E39E0381520F16A39EF
:1017D00049E97407840749E1940738F5AAE0B0E0C5
:1017E0009B01AC010E94902D912CB12CA12C2401C5
:1017F00035014094509460947094461657066806DC
:10180000790698F0680D791D8A1D9B1D8F01D7CF31
:101810000196F12CC7CF211108C0FF20E9F16130FA
:101820007105810550E89507A0F0E12CBAE08B2EF8
:10183000912CA12CB12C6115710530E8830791051D
:10184000B0F1A50194010E949B2DCA01B901E39456
:10185000F2CF2C8120782A602C839B01AC01882751
:101860009927DC01821B930BA40BB50B888399830A
:10187000AA83BB838F2DDF91CF911F910F91FF9092
:10188000EF90DF90CF90BF90AF909F908F907F9020
:101890006F905F904F9008952C81207828602C8362
:1018A000688379838A839B83FF24F394E3CFF801D1
:1018B000D8012D918D0130ED320F3A3010F4E394C0
:1018C000F6CF2E3201F58F010F5F1F4FF8010F5F2A
:1018D0001F4F2081A0EDDA2ED20EB9E0BD1598F091
:1018E0006C3CECEC7E07ECE08E07910578F7AAE003
:1018F000B0E09B01AC010E94902D6D0D711D811D0A
:10190000911DEA94E3CF20812F7D10E000E0253483
:1019100009F05BC021812D32D1F53296CC24C394DD
:10192000DF0110E000E02E2D0E2C000C330B5AE0EE
:10193000B52EFD01DD9040ED4D0D4A3008F040C060
:10194000B09EA001B19E500D11240D2DDD0C110B88
:1019500000531109040F151FA801420F531F4732EE
:1019600051053CF38C81CC20C9F040E050E060E0B0
:1019700070E8F11003C040E050E0BA0180788C605C
:101980008C83488359836A837B83FC2C73CF2B32EF
:1019900019F03196C12CC4CF3296FCCF40E050E014
:1019A00060E87FEFF11004C040E050E060E87FE7BE
:1019B00080788C608C83488359836A837B8374CF5F
:1019C000CC2019F01195019511092081211135C004
:1019D0000E0D111DE7FC1A950E94712C38E2C32EE2
:1019E00032E0D32E101611063CF011950195110925
:1019F00040E1C42E42E0D42EE12C0115110591F0F6
:101A000000FF0CC024E0E29EF0011124EC0DFD1D4E
:101A100025913591459154910E94D22C15950795A9
:101A2000E394EBCFF11090582C8120782C602C831C
:101A3000688379838A839B8337CFF12C1BCFCF9226
:101A4000DF92EF92FF92CF93DF9300D01F921F920D
:101A5000CDB7DEB7FC0184818F778630D9F040F4B2
:101A60008430A9F1853009F43FC090E080E014C0D3
:101A70008A30F1F08C3009F43FC08830B1F78081B2
:101A80009181A281B381811520E89207A105B1055A
:101A900060F702C0808190E00F900F900F900F9040
:101AA0000F90DF91CF91FF90EF90DF90CF9008954E
:101AB00080819181A281B381AC01BD0150586F4FEB
:101AC0007F4F411551056140710578F6E5CF808162
:101AD00091811D82BE016F5F7F4F0E94B80BCE01C6
:101AE00001960E941F0DD8CF808191811D82BE0179
:101AF0006F5F7F4F0496F1CFC080D180E280F3808A
:101B000020E030E040E057ECC701B6010E94C92F49
:101B100087FDABCF20E03EEF4FEF56E4C701B601A3
:101B20000E946C2C18160CF4A0CFC701B6010E94BD
:101B3000E72ECB01B1CFCF92DF92EF92FF92CF93FE
:101B4000DF9300D01F921F92CDB7DEB7FC018481D6
:101B50008F778630C1F038F4843019F1853071F117
:101B600090E080E012C08A3021F08C3079F188302A
:101B7000B9F780819181A281B381009721E0A2070A
:101B8000B10518F0EDCF808190E00F900F900F908D
:101B90000F900F90DF91CF91FF90EF90DF90CF905B
:101BA0000895808191811D82BE016F5F7F4F0E94E9
:101BB000B80BCE0101960E949B0DE7CF80819181E9
:101BC0001D82BE016F5F7F4F0496F1CFC080D18030
:101BD000E280F38020E030E0A901C701B6010E9455
:101BE000C92F87FDBDCF20E03FEF4FE757E4C70186
:101BF000B6010E946C2C18160CF4B2CFC701B601C6
:101C00000E94EE2ECB01C1CFCF93DF9300D01F9265
:101C10001F92CDB7DEB7FC0194819F77963091F08B
:101C200030F4943020F560E070E0CB0111C09A30C0
:101C3000B9F09C3051F19830B1F7608171818281A7
:101C4000938104C0608170E090E080E00E94712C7C
:101C50000F900F900F900F900F90DF91CF910895FC
:101C600060817181828193810E94732CF1CF808188
:101C700091811D82BE016F5F7F4F04960E94B80B59
:101C8000CE0101960E94040EE3CF608171818281B2
:101C90009381DECFFC019289915084E0989F90015E
:101CA0001124A089B189A20FB31F1296ED91FC9166
:101CB00013973097E9F011962C9111978C91281772
:101CC000B8F481E0820F11968C9388E0289FA001E0
:101CD0001124E40FF51F309759F014828FEF85839C
:101CE00017821682BF01892F8295807F820F089507
:101CF00060E070E08FEF0895DF92EF92FF920F9314
:101D00001F93CF93DF93EC017B01D12C68897989F4
:101D10008A89D816E0F484E0D89E80011124060F49
:101D2000171FD80112966D917C916115710541F0D4
:101D3000D701ED91FC910280F381E02DC701199547
:101D4000F8011382128210821182D394DFCF1A8A93
:101D50008FEF8C8BC617D70761F0D701ED91FC91FF
:101D60000280F381E02DC7011995D98BC88B84E0DF
:101D70008B8BDF91CF911F910F91FF90EF90DF90B0
:101D80000895DB01ED91FC9111970280F381E02D24
:101D9000BC01CD0119940F931F93CF93DF93EC01F6
:101DA000088119818B819C81009749F0FC01208179
:101DB00031813C832B83B8010E94C10EF3CF68812F
:101DC0007981CE010596DF91CF911F910F910C94EF
:101DD0007C0ECF93DF93EC01E881F981B0E0A0E0C5
:101DE0003097F9F09F012C5F3F4F62177307A1F402
:101DF000928191509283911114C0808191811097AA
:101E000041F08D939C93BA01CF01DF91CF910C9457
:101E1000C10E99838883F7CFDF010190F081E02D17
:101E2000DFCFDF91CF9108958F929F92AF92BF92B3
:101E3000CF92DF92EF92FF920F931F93CF93DF9396
:101E40008C01EB01FC01848180FF0AC0488159812B
:101E5000608171816C5F7F4FCE0103960E94E90E15
:101E6000F8018481807681F10115110569F1D08036
:101E70005E01F5E1AF0EB11C4E0183E0880E911CAE
:101E8000EFEFDE16F1F06D2DC5010E94670A7C01AF
:101E9000FC01C580848187FF07C048815981668124
:101EA0007781C4010E94E90EBE01C7010E94140F90
:101EB000F701848180788483898D8583D98EDC2C99
:101EC000DFCFF801D082D182DF91CF911F910F91A6
:101ED000FF90EF90DF90CF90BF90AF909F908F904A
:101EE0000895EF92FF920F931F93CF93DF937C019E
:101EF0008B01EA016F3F710509F0B0F4E881F981C7
:101F00000480F581E02DAB014B5F5F4FBC01CE013A
:101F10001995009749F0FC010383DF91CF911F9140
:101F20000F91FF90EF900895E881F9810280F3818D
:101F3000E02DB701CE01199590E080E0EECFFF9241
:101F40000F931F93CF93DF93EC01F62E8A819B8131
:101F50000097C9F06C817D81FC012381261717064B
:101F600091F408811981F80140815181660F771F32
:101F70006F5F7F4F0E94710F009719F421E0F80105
:101F800022839B838A838A819B81009759F02C81CD
:101F90003D81A9014F5F5F4F5D834C83820F931F8B
:101FA000FC01F482DF91CF911F910F91FF90089572
:101FB0009F92AF92BF92CF92DF92EF92FF920F93D8
:101FC0001F93CF93DF9300D01F921F92CDB7DEB740
:101FD0008C010E940A0BD82EF8011486F12CE12CFA
:101FE00060EFC62EC8010E940A0BF8011486D816AD
:101FF00009F4B3C0811113C082E090E00F900F90FC
:102000000F900F900F90DF91CF911F910F91FF9044
:10201000EF90DF90CF90BF90AF909F9008958C3558
:1020200009F099C0C8010E940A0B882329F3EBE448
:10203000F2E0853709F083C0F801148654E0952E4C
:10204000B12CA12CC8010E940A0B8823A9F281346B
:1020500034F48053803130F083E090E0CFCF8F7D37
:102060008753F8CF44E0AA0CBB1C4A95E1F7A82A95
:10207000F80114869A949110E5CFC501985D8115F9
:10208000944020F47501F3E0FF22ACCFC5019C5DC4
:1020900081159440A8F483E0B822B701762F662713
:1020A000770F770F6A297B2990E080E001966038EE
:1020B00071058105910540F4C8010E949F0F92CFE0
:1020C000B50190E080E0F3CF1982262F2F732068AE
:1020D0002A8326E096958795779567952A95D1F777
:1020E0006032710580F4606C6B835E01E4E0AE0EDB
:1020F000B11CF50162915F01662309F473CFC80139
:102100000E949F0FF6CF262F2F7320682B8386E027
:10211000769567958A95E1F76031710538F4606EC0
:102120006C835E01F5E0AF0EB11CE3CF60686C8399
:10213000CD825E0126E0A20EB11CDBCF32969081EB
:10214000992309F489CF8913F9CF8181882309F470
:1021500083CFF8011486682FAFCF82819381892BBA
:1021600019F484E090E04ACF90E080E047CFAF924E
:10217000BF92CF92DF92EF92FF920F931F93CF9374
:10218000DF93DC011296ED91FC91139714968D91DB
:102190009C911597E80FF91F14820D911C911197CE
:1021A00014966D917C91159712968D919C91139731
:1021B0009C012C5F3F4FE801EB81FC817B01E20E2B
:1021C000F31E3097B9F043814617170679F4590189
:1021D000AF014C5F5F4FEA14FB0499F1E501C99030
:1021E0005E01EA01D990AE01CD14A9F30190F0810E
:1021F000E02DE7CFED01F801408151810E94710F80
:10220000FC01892B21F481E0D80112968C93A881DE
:10221000B98113968D919C91149791838083149624
:10222000FC93EE9313971B821A82CF01DF91CF911B
:102230001F910F91FF90EF90DF90CF90BF90AF90E4
:10224000089582818F5F8283F0CF2F923F924F92C9
:102250005F926F927F928F929F92AF92BF92CF9236
:10226000DF92EF92FF920F931F93CF93DF9300D0F3
:1022700000D0CDB7DEB77C017C836B830B969E8349
:102280008D83D70116969C91169717968C91179768
:1022900099838A836D907C9011976114710409F47D
:1022A0004CC119964C9150E0F301848195818417BB
:1022B0009507A8F0808191E09093E3038093050453
:1022C0001092E4031092060420E0BE016F5F7F4F7E
:1022D000C3010E940D07D12CC12C81111AC080E0CE
:1022E00026960FB6F894DEBF0FBECDBFDF91CF911B
:1022F0001F910F91FF90EF90DF90CF90BF90AF9024
:102300009F908F907F906F905F904F903F902F9015
:102310000895D30114968D919C9102E010E00C1960
:102320001D098017910708F48C01F30150800E9469
:10233000F8054B015C018091DD03811176C0B02E60
:10234000F0E2F01710F440E2B42E81E08093DD0358
:1023500021E082E090E0801B910BC816D90608F4BA
:1023600020E02093DC039FEF9093DB031092DA03CD
:102370008FEF8B0D8093D903A1E0A093B8038091D8
:10238000B803550C582A5092B8038091B703813096
:1023900009F093C01092B7030E94F8051B012C01AD
:1023A0008091B8038093BB008091DF039091E0039C
:1023B000A091E103B091E203892B8A2B8B2BA1F032
:1023C0000E94F8052091DF033091E0034091E10382
:1023D0005091E2036219730984099509261737079A
:1023E0004807590708F442C08091BC0083FDD8CF4C
:1023F000B5ECB093BC000E94F8051B012C01809144
:10240000DD03813009F45DC08091DA038B1510F48F
:10241000B090DA03A9EBB3E0E1E9F3E080E08B15DB
:1024200051F19D9191938F5FFACF8091DF0390914D
:10243000E003A091E103B091E203892B8A2B8B2B5F
:1024400009F479CF0E94F8052091DF033091E00371
:102450004091E1035091E203681979098A099B09C7
:10246000261737074807590708F065CF8091DE0324
:102470000E946E04B12C1092B603B092B503B01650
:10248000110609F02CCF8D809E808C0C9D1C540170
:10249000C5018819990980179107A8F5D3011196EC
:1024A0008D919C91DC01ED91FC910284F385E02DEE
:1024B0001995F50181935F01EBCFE5EEE093BC0048
:1024C0009ACF8091DF039091E003A091E103B09156
:1024D000E203892B8A2B8B2B09F491CF0E94F805FC
:1024E0002091DF033091E0034091E1035091E2033A
:1024F0006219730984099509261737074807590790
:1025000008F07DCFB3CFC00ED11EF2E0CF16D104BC
:1025100008F4FFCEF7018285811142C0848590E0E6
:10252000982F8827AB81BC8111969C938E9323852D
:10253000822B8D939C9381E0D3CE1296ED91FC91EA
:102540001397309709F4CBCE14962D913C911597A3
:1025500019964C9150E02330310591F481608983C4
:102560009A834F5F5F4F02E010E02D813E81BE01F4
:102570006F5F7F4FCF010E9481058111CBCFB0CE1D
:102580002115310519F490689983EDCF223031057A
:1025900011F49F77F9CF2130310529F7906CF4CFF2
:1025A000838590E0982F8827AB81BC8111969C93FE
:1025B0008E932485BDCFAB01BC0170588AE795E0AE
:1025C0000C940E09FC0101900020E9F73197AF014E
:1025D000481B590BBC0183E194E00C940808AF92AE
:1025E000BF92CF92DF92EF92FF920F931F93CF9300
:1025F000DF93CDB7DEB7A1970FB6F894DEBF0FBE5D
:10260000CDBF5C018CE592E00E94E21265010B2CCB
:10261000000CEE08FF08F7FE48C06DE283E194E08D
:102620000E94A10822273327A9012C193D094E0930
:102630005F0919A28E010F5D1F4F9AE0C92ED12CA0
:10264000E12CF12CCA01B901A70196010E949B2D32
:10265000605DF80162938F01211531054105510537
:1026600089F70115110519F0C8010E94E21286E6EA
:1026700092E00E94E21280913E0390913F030997FD
:1026800079F5A114B104B1F1A1960FB6F894DEBFAB
:102690000FBECDBFDF91CF911F910F91FF90EF90B3
:1026A000DF90CF90BF90AF900895A701960119A237
:1026B0008E010F5D1F4F8AE0C82ED12CE12CF12C2A
:1026C000CA01B901A70196010E949B2D605DF80126
:1026D00062938F01211531054105510589F7C1CF5D
:1026E000F6E0AF16B1044CF484E0A816B104C4F4CB
:1026F000B7FC07C01092370504C0EAE0AE16B1047B
:10270000CCF3B0923F03A0923E030E94FC0760937B
:102710001003709311038093120390931303B4CFAB
:1027200080912D0590912E05892B59F380912F05CD
:1027300090913005892B29F381E0809337050E9421
:10274000FC0700913D0510913E0520913F05309119
:102750004005DC01CB01800F911FA21FB31F8093A6
:10276000450590934605A0934705B0934805109200
:102770003805109255051092560510925705109283
:1027800058051092590510925A0510925B05109247
:102790005C05B7CFDF92EF92FF920F931F93CF9319
:1027A000DF936115710561F460E070E08FEF9D2D9E
:1027B000DF91CF911F910F91FF90EF90DF900895DF
:1027C0008A01EB01DC01FC900B5E1F4F6F2DC801ED
:1027D0000E94670A009741F3FC01E580009721F30E
:1027E0000680F781E02DDE010D900020E9F79D01C4
:1027F000215031092C1B3D0BB0E0A0E0309739F09F
:10280000DF010D900020E9F71197AE1BBF0B2A17CF
:102810003B0751F4DE012C0F3D1FA217B30769F0EF
:102820005D9141915417C9F36E2DC8010E94670A4A
:10283000009709F4B9CFFE2CCFCFBC018F2DDE2C31
:10284000B6CFCF93DF93FC01C081D18162817381C8
:10285000CE014A9661F02E8D25FF09C0AE010E947F
:10286000CA139B01B901CE01DF91CF91089530E0E9
:1028700020E0F8CFFB0101900020E9F73197AF018C
:10288000461B570B0C94A90A1F93CF93DF93EBE4DD
:10289000F2E01281112379F0329621816213F9CF8F
:1028A000EC016CE50E94820A612FCE01DF91CF918D
:1028B0001F910C94820A6111F9CF69E672E0DF91F1
:1028C000CF911F910C943A14CF92DF92EF92FF9226
:1028D0000F931F93CF93DF938C016B017A0162E218
:1028E0000E94820AE601EC0CFD1CCE15DF0529F0E2
:1028F0006991C8010E944414F8CF62E2C801DF91D7
:10290000CF911F910F91FF90EF90DF90CF900C949B
:10291000820A2F923F924F925F926F927F928F9294
:102920009F92AF92BF92CF92DF92EF92FF920F935E
:102930001F93CF93DF93CDB7DEB76C970FB6F894A4
:10294000DEBF0FBECDBF8C011B01DC0114968C9144
:1029500014978F77883009F4B2C2E8F4843009F410
:1029600069C248F4833009F49FC260E772E0C10194
:102970000E943A141CC2853009F470C28630A9F74F
:102980008C9165E772E0811102C06AE772E0C101D3
:102990000E943A146DC28C30F1F1C8F48A3029F7E4
:1029A000CD90DD90ED90FC90B701A601F7FE0BC035
:1029B0006DE2C1010E94820A44275527BA014C19D1
:1029C0005D096E097F09C1010E94BE0A51C28032B1
:1029D00009F4F7C1803449F66BE5C1010E94820A0F
:1029E000F80110811F3F09F4E7C1D10114968D91C0
:1029F0009C91612F45960E94670A8C01B1010E944B
:102A00008914F80115811F3F09F4D6C16CE2C10198
:102A10000E94820AE7CFF801C080D180E280F38073
:102A2000A7019601C701B6010E946C2C81119DCFB0
:102A300020E030E0A901C701B6010E946C2C882378
:102A400079F0A7019601C701B6010E94F22D9B0102
:102A5000AC01C701B6010E946C2C882309F485CF14
:102A600020E030E0A901C701B6010E946C2C87FF6D
:102A700008C06DE2C1010E94820AF7FAF094F7F8EB
:102A8000F09420E836E948E15BE4C701B6010E9412
:102A9000C92F87FD88C074E1A72EB12C00E210E099
:102AA000188E1F8AF501E85DFD4F259135914591FE
:102AB0005491C701B6010E94C92F87FD13C0F501CB
:102AC000E05FFD4F2591359145915491C701B601C5
:102AD0000E94D22C6B017C012F89388D200F311F71
:102AE000388F2F8B1595079534E0A31AB1088CEF1A
:102AF000A8168FEFB806B1F655245A9420E030E0BE
:102B0000A901C701B6010E94C92F18160CF052C0C6
:102B10002CEA35EC47E257E3C701B6010E946C2C62
:102B200018160CF447C0A52DB4E0AB02C001112467
:102B3000B12CA12CFC01E05FFD4F3F019C01285D01
:102B40003D4F49013FEF531609F434C0F301EA0D3C
:102B5000FB1D659175918591949120E030E040E2F4
:102B600051E40E94D22CA70196010E94C92F181689
:102B70009CF4F401EA0DFB1D25913591459154918A
:102B8000C701B6010E94D22C6B017C018F89988D00
:102B9000801B910B988F8F8B159507955A9494E015
:102BA000A91AB108CFCF00E210E055E0552E188EDB
:102BB0001F8AA4CFC701B6010E94EE2E4B015C0113
:102BC0002B013C0106E080E492E4AFE0B0E0898FA5
:102BD0009A8FAB8FBC8F102F01509AE04916510489
:102BE00061047104C8F0698D7A8D8B8D9C8D2AE00B
:102BF00030E040E050E00E949B2D298F3A8F4B8FB0
:102C00005C8FC301B2012AE030E040E050E00E9456
:102C10009B2D29013A01DFCFC501B4010E94712C1F
:102C20009B01AC01C701B6010E94F12D6B017C0133
:102C3000698D7A8D8B8D9C8D0E94712C9B01AC01CE
:102C4000C701B6010E94D22C2B013C010E94EE2E3E
:102C50006B017C010E94712C9B01AC01C301B2018C
:102C60000E94F12D9B01AC010E94F22D0E94EE2EDC
:102C7000C60ED71EE81EF91E898D9A8DAB8DBC8DB0
:102C8000C816D906EA06FB06D8F09FEF891A990AFA
:102C9000A90AB90AAF89B88DAB2B39F1BAE08B1606
:102CA0009104A104B10408F1EF89F88D3196F88FF1
:102CB000EF8BC12CD12C7601812C912C5401839463
:102CC0002AE0422E512C612C712CC701B601A301C0
:102CD00092010E949B2D672B682B692B51F41116D2
:102CE00044F469017A011150F0CFC12CD12C760146
:102CF000E7CFB501A401C1010E94BE0A112371F101
:102D00004E01F1E18F0E911C012F54019AE0492EE2
:102D1000512C612C712C015068F0C701B601A30140
:102D200092010E949B2D605DD4016E934D0169015B
:102D30007A01F1CF812F90E0BC0160957095F5018B
:102D4000E81BF90B31978EE2808344275527461BF9
:102D5000570B6A0D7B1DC1010E94A90AEF89F88DEE
:102D6000EF2B29F165E6C1010E94820A0F89188DB7
:102D700017FF07C06DE2C1010E94820A11950195FB
:102D80001109FE0177969F018AE0E82EF12CC80117
:102D9000B7010E94CC2D805D82938B01672BB9F720
:102DA000A9014E1B5F0BBF01C1010E94A90AD101FD
:102DB00012968D919C915FC06DE5C1010E94820ABF
:102DC000F6CF6BE7C1010E94820AF80110811F3F14
:102DD00079F1D10114968D919C91612F45960E94B5
:102DE000670A8C01FC01C680D78062E2C1010E94A3
:102DF000820A7601D7016D917D01662321F0C10120
:102E00000E944414F7CF62E2C1010E94820A6AE381
:102E1000C1010E94820AB101C8010E948914F8010F
:102E200015811F3F29F06CE2C1010E94820ACFCFB9
:102E30006DE7C3CFF8016081718150E040E061151A
:102E4000710541F0FB0101900020E9F73197AF01D6
:102E5000461B570BC1010E946414A9CFED91FC9150
:102E6000438150E0BF016C5F7F4FC1010E94641439
:102E7000F101828193816C960FB6F894DEBF0FBE8C
:102E8000CDBFDF91CF911F910F91FF90EF90DF9019
:102E9000CF90BF90AF909F908F907F906F905F90FA
:102EA0004F903F902F900895ED91FC91438150E019
:102EB000BF016C5F7F4FC1010E94A90AD9CF4D911C
:102EC0005D916D917C917FCDCB010C946A30CF9355
:102ED000DF93EC018091ED049091EE04009759F09E
:102EE0002091EF043091F0042C173D0720F081E091
:102EF000DF91CF910895BE016F5F7F4F0E94F33045
:102F0000009789F09093EE048093ED04D093F00441
:102F1000C093EF042091F1043091F204232B39F790
:102F2000FC011082E4CF80E0E3CFCB01BA010C9426
:102F3000F33085ED8093BC008091DF039091E00336
:102F4000A091E103B091E2030796A11DB11D23E01A
:102F5000B695A795979587952A95D1F72091BC00AE
:102F600024FD03C01092DD0308954091DF035091CA
:102F7000E0036091E1037091E203452B462B472B60
:102F800069F30097A105B10541F02AE22A95F1F70E
:102F900000C00197A109B109E1CF8091DE030C9433
:102FA0006E04CB010C94CE2F8F929F92AF92BF9262
:102FB000CF92DF92EF92FF920F931F93CF93DF9305
:102FC0006C018B01DB015996FC90BFEFFB1621F1E0
:102FD0006F2DC80145960E94670AEC018D81F801AA
:102FE000818F209709F496C01C828FEF8D831F82FA
:102FF0001E82D60111966C916F3F09F49FC0C801E3
:1030000045960E94670AFC01F582D6011196FC9252
:10301000BE018F2D9D8084C05B01F5E0AF0EB11C19
:10302000DB01ED90FC90119757968C91882349F025
:10303000C5010E944A0EC62FD72F209711F0F82EF7
:10304000D8CFF801C789908DC91325C0C03109F4C4
:1030500061C0CC0F65897689D701ED91FC91B4E010
:10306000CB9FA0011124A616B70609F04BC0019012
:10307000F081E02DBA01C7011995009709F44AC003
:1030800020E1F501DC0101900D922A95E1F7F801AC
:10309000968B858BC08FD8015596CD91DC91569734
:1030A00057968C91579721E0280F57962C93B4E0B0
:1030B0008B9FC0011124C80FD91F90E1892E2031A8
:1030C00011F48FE0882EE8E08E9EB0011124D70124
:1030D000ED91FC910190F081E02DC70119959B8342
:1030E0008A83892B09F4812C88821982CD2B91F057
:1030F000C5010E944A0EC62FD72FF82E209709F03F
:1031000078CF08C00480F581E02DC701199500979C
:1031100009F0BDCF81E0F801828360E070E08FEFBD
:10312000992DDF91CF911F910F91FF90EF90DF903C
:10313000CF90BF90AF909F908F900895F601F0824E
:10314000F18266CF8F929F92AF92BF92CF92DF9221
:10315000EF92FF920F931F93CF93DF93EC018B01BC
:10316000D42E0E94580B7C01892B09F047C0CE0158
:103170000E940A0B863609F452C124F5873229F0E1
:103180008B3561F1823209F053C11D821C828A8124
:103190009B81892B31F4888199810E9497029B83BE
:1031A0008A83CE010E94D80F7C01892B39F5CE018C
:1031B0000E94B710F8012481207825602483918330
:1031C00080831CC0843709F412C18B3709F45BC0BB
:1031D0008E3609F02DC160E772E012C1F8018481DA
:1031E0008078806484830115110519F08FEF808346
:1031F0008183D11011C025E0E22EF12CC701DF91AF
:10320000CF911F910F91FF90EF90DF90CF90BF90E3
:10321000AF909F908F9008951C86CE010E94580B0E
:10322000009709F085C06DE5CE010E94240B811145
:10323000E5CFDA946D857E85C8010E94D4176115AB
:10324000710521F484E0E82EF12CD8CF4D2DCE016C
:103250000E94A218009709F06BC0CE010E94580B83
:10326000009709F065C06DE5CE010E94240B811125
:10327000C5CF6CE2CE010E94240B8111DBCF93E01D
:10328000E92EF12CBBCFF8018481807880628483A1
:103290000115110519F08FEF80838183DD2009F47A
:1032A000AACF1C86CE010E94580B009709F040C09F
:1032B0006DE7CE010E94240B8111A0CFBB24BA94EC
:1032C000BD0C1D821C828A819B81892B31F48881EF
:1032D00099810E9497029B838A83CE010E940A0BE8
:1032E0008732E1F08232D1F0CE010E940A0BD82E53
:1032F0000E94970A882319F21C866D2DCE010E9428
:103300009F0FCE010E940A0BD82E0E94970A8111AE
:10331000F3CF8A819B81892B31F494CFCE010E9417
:10332000D80F009729F4CE010E94580B009711F096
:103330007C0164CF6AE3CE010E94240B882309F448
:103340009ECFEA81FB818C819D81E80FF91F148259
:103350004D855E856A817B816C5F7F4FC8010E94CD
:10336000CA13CB016B01672BC9F5CE010E94B710C0
:103370004C016D857E85C8010E94D4176B016115D3
:10338000710509F45FCFFB01848180688483F4E0D8
:103390008F0E911CF601978286824B2DB601CE01CD
:1033A0000E94A218009721F6CE010E94580B0097A8
:1033B00009F0BECF6DE7CE010E94240B81111ECF14
:1033C0006CE2CE010E94240B882309F458CFCE0171
:1033D0000E94580B009709F474CFAACF6D857E85A3
:1033E0000E94140FF601848180788483D6CFF8017F
:1033F000848180788660848381E0808365E772E0E1
:10340000CE01DF91CF911F910F91FF90EF90DF9050
:10341000CF90BF90AF909F908F900C94350BF80198
:10342000848180788660848310826AE772E0E8CFC6
:10343000CE010E940A0B5E01FFE0AF0EB11CD12C41
:103440009A2CCB2C803374F08A3374F49FE3D91612
:1034500099F01C86D394F50181935F01CE010E94FF
:103460000A0BF0CF8B3291F393ED980F923070F3FB
:10347000982F9F7D953451F3CD0DD11D1F86B80136
:10348000892D9C2D0E94B80B8111B8CEF8CE2F92B9
:103490003F924F925F926F927F928F929F92AF92E4
:1034A000BF92CF92DF92EF92FF920F931F93CF9331
:1034B000DF93CDB7DEB7C557D1090FB6F894DEBF9D
:1034C0000FBECDBF8E01005B1F4F21E0222E22E0F8
:1034D000322E380125E0620E711C58018AE1A80ED7
:1034E000B11C37E9432E32E0532E83E194E00E9471
:1034F0006908892B09F411C283E194E00E9447080E
:10350000D82E89831A82E090F104F090F2049FEFA4
:10351000E91AF90AC7010E946717882399F02091D8
:10352000ED043091EE048091F1049091F204BE011B
:103530006F5F7F4F820F931F0E94DD31F092F20484
:10354000E092F104EAE0DE12D0CFF801318220826D
:10355000128214821382768A658A178A84E0808FA9
:103560008FEF818F168EE1961FAE1EAEE197E39628
:103570001FAE1EAEE397C090F104D090F204E0902D
:10358000ED04F090EE0461E072E0C3010E947C0E55
:10359000F801128280809180F801838194810097E4
:1035A00051F0FC0120813181F80134832383B4017F
:1035B0000E94C10EF1CF168E1A8309831C821B82D2
:1035C0001E821D821F82F986E886EC0CFD1CFB869C
:1035D000EA861D861F870E874AE0B501CE01019657
:1035E0000E94A2187C01892B51F48C85882339F024
:1035F000F801868D83FF03C093E0E92EF12C8B81C7
:103600009C81009731F0E981FA81608171810E948B
:10361000C10E90E080E00E9467172091ED04309188
:10362000EE0481112CC02115310519F0C9010E9449
:103630006A301092EE041092ED041092F20410928F
:10364000F1041092F0041092EF04E114F10409F176
:1036500080E892E00E94E212F701EE0FFF1FE55EA4
:10366000FD4F80819181009711F00E94E21286E661
:1036700092E00E94E212C8010E94CB0E36CF109257
:10368000F2041092F1046BE572E0C9010E94DD3191
:10369000DCCF1A8309835C824B82CE0101960E94A3
:1036A0002114E3966CAF7DAF8EAF9FAFE397CE0151
:1036B00081599F4F0E947A0B811111C0E1968EAD06
:1036C0009FADE197009709F4DEC00E94040E60935D
:1036D00021057093220580932305909324051A8376
:1036E00009838AE992E09C838B83CE0101960E9434
:1036F0002114E3966CAF7DAF8EAF9FAFE397CE0101
:1037000081599F4F0E947A0B811111C0E1968EADB5
:103710009FADE197009709F4BAC00E94040E609330
:1037200025057093260580932705909328051A8315
:1037300009838DE992E09C838B83CE0101960E94E0
:103740002114E3966CAF7DAF8EAF9FAFE397CE01B0
:1037500081599F4F0E947A0B811111C0E1968EAD65
:103760009FADE197009709F496C00E94040E609304
:10377000290570932A0580932B0590932C051A83B5
:10378000098380EA92E09C838B83CE0101960E949C
:103790002114E3966CAF7DAF8EAF9FAFE397CE0160
:1037A00081599F4F0E947A0B81110DC0E1968EAD19
:1037B0009FADE197009709F472C00E949B0D909312
:1037C0001503809314031A83098382EA92E09C8391
:1037D0008B83CE0101960E942114E3966CAF7DAFDE
:1037E0008EAF9FAFE397CE0181599F4F0E947A0B16
:1037F000811129C086E193E0E6969FAF8EAFE697F0
:10380000F12CE12C6701E3968CAD9DADAEADBFAD63
:10381000E397FC01892B09F045C060E070E0CB0123
:10382000E696EEADFFADE697619371938193919328
:10383000E696FFAFEEAFE697FFEFEF1AFF0A2AE03A
:10384000E216F104F9F61A83098384EA92E09C8374
:103850008B83CE0101960E942114E3966CAF7DAF5D
:103860008EAF9FAFE397CE0181599F4F0E947A0B95
:10387000811101CFF801868D85FD3EC090E080E08A
:103880000E94EF12F8CE60E070E0CB0120CF60E044
:1038900070E0CB0144CF60E070E0CB0168CF90E0F6
:1038A00080E08DCF248126FFB8CF4D0125E1820E27
:1038B000911C6081C4010E94670A009709F4ADCF92
:1038C000FC01F581E496FFAFE497009709F4A5CFDA
:1038D000C114D104F9F0E4966FADE497C4010E94DD
:1038E000670A009729F0FC01F581E496FFAFE497A1
:1038F00021E0C21AD108E9CFA80164EA72E0C5014B
:103900000E94CA136115710509F4B8CFCB010E945A
:103910001F0DB6CF0E94040E83CFCB58DF4F0FB6DA
:10392000F894DEBF0FBECDBFDF91CF911F910F91F5
:10393000FF90EF90DF90CF90BF90AF909F908F90CF
:103940007F906F905F904F903F902F9008950E94CE
:10395000750881110E94471A80E090E0892B49F098
:1039600080E090E0892B29F00E94000081110E94E4
:10397000000080E090E0892B49F080E090E0892B06
:1039800029F00E94000081110E94000080E090E078
:10399000892B49F080E090E0892B29F00E940000FB
:1039A00081110C9400000895EF92FF920F931F93E2
:1039B000CF93DF93FC01E080F1808701065E1F4F0B
:1039C00021F1C281D381209751F1F701868D982F83
:1039D0009F7719F580788062868F8FEF828F838F33
:1039E000A701BE01C8010E94CA13FB01309761F410
:1039F000B701C8010E94D417FB01309729F08481D8
:103A00008F778483D783C6838F01C801DF91CF91DD
:103A10001F910F91FF90EF90089585FDE1CF10E089
:103A200000E0F3CFAF92BF92CF92DF92EF92FF927E
:103A30000F931F93CF93DF938C017B01DC01AD903B
:103A4000BC900E94D41CEC01009781F0F701C0806B
:103A5000D180E280F380B5010E94140F8C818078C0
:103A60008C608C83C882D982EA82FB82D801ED9176
:103A7000FC9180E0309719F0828191E08927DF91F5
:103A8000CF911F910F91FF90EF90DF90CF90BF905B
:103A9000AF9008951F920F920FB60F9211240BB69C
:103AA0000F922F933F934F935F936F937F938F93D7
:103AB0009F93AF93BF93EF93FF938091B900887F5B
:103AC000803609F44DC008F040C0883209F4A9C01E
:103AD00028F5803109F49DC0C8F4882309F4FBC09F
:103AE000883009F496C0FF91EF91BF91AF919F91FB
:103AF0008F917F916F915F914F913F912F910F9097
:103B00000BBE0F900FBE0F901F901895883109F4CF
:103B100088C0803241F78093DB0314C0803409F4FD
:103B20009DC040F48033B9F38833E9F68093DB031A
:103B300085ECB0C0803509F485C0883509F496C09D
:103B4000883489F60E949917CECF883909F48CC041
:103B500038F5883729F050F4883611F0803719F697
:103B600083E08093DD031092900357C0883809F4F6
:103B70007BC0803919F0803809F0B5CF809190036F
:103B8000803208F071C0E091900381E08E0F809345
:103B900090038091BB00F0E0E059FC4F80833DC072
:103BA000803B39F0E0F4803A09F479C0883A09F0B2
:103BB0009ACF84E08093DD0310926F0310926E031E
:103BC000E091B103F091B203199580916E038111D8
:103BD0000FC081E080936E0310924E0309C0803CB9
:103BE00009F4A6CF883C09F4A3CF883B09F07BCF2A
:103BF000E0916F0381E08E0F80936F03F0E0E25B52
:103C0000FC4F80818093BB0090916F0380916E0385
:103C100029C08091B8038093BB0085EC8093BC00E1
:103C200062CF9091DA038091D903981758F5E0910B
:103C3000DA0381E08E0F8093DA03F0E0E754FC4F63
:103C40008081E9CFE091DA0381E08E0F8093DA037F
:103C50008091BB00F0E0E754FC4F80839091DA0341
:103C60008091D9039817C8F285E8D8CFE091DA039C
:103C700081E08E0F8093DA038091BB00F0E0E7547F
:103C8000FC4F80838091DC0381115CCF81E08093C5
:103C9000B70384EA8093BC001092DD0324CF85EC47
:103CA0008093BC001092DD0380919003803230F449
:103CB000E0919003F0E0E059FC4F10826091900396
:103CC00070E0E091B303F091B40380E793E01995BD
:103CD0001092900308CF1092DB0334CF1F920F9203
:103CE0000FB60F9211242F933F938F939F93AF930F
:103CF000BF938091450390914603A0914703B091F3
:103D000048033091440323E0230F2D3758F50196E3
:103D1000A11DB11D20934403809345039093460356
:103D2000A0934703B09348038091490390914A03BD
:103D3000A0914B03B0914C030196A11DB11D80933E
:103D4000490390934A03A0934B03B0934C03BF9154
:103D5000AF919F918F913F912F910F900FBE0F9038
:103D60001F90189526E8230F0296A11DB11DD2CFF2
:103D70001F920F920FB60F9211240BB60F922F9332
:103D80003F934F935F936F937F938F939F93AF93E3
:103D9000BF93EF93FF9380910B0390910C03A0913D
:103DA0000D03B0910E03892B8A2B8B2BD1F19091AF
:103DB0000A038091000089278093000080910B0303
:103DC00090910C03A0910D03B0910E0318161906E3
:103DD0001A061B069CF480910B0390910C03A09192
:103DE0000D03B0910E030197A109B10980930B0354
:103DF00090930C03A0930D03B0930E03FF91EF91EA
:103E0000BF91AF919F918F917F916F915F914F91F2
:103E10003F912F910F900BBE0F900FBE0F901F90F0
:103E2000189580910002E0E4F2E0E4919FEF909316
:103E30000002E230E9F040F4EE2389F0E13091F045
:103E400060E00E940704DACFE43049F110F1E53078
:103E5000B9F7909173009D7F90937300F1CF10920A
:103E60006E00EECF90916F009D7F90936F00E8CF32
:103E7000909170009D7F9093700091E09093B000BE
:103E80009091B100987F94609093B1001092B3002C
:103E9000D7CF909171009D7F90937100D1CF909179
:103EA00072009D7F90937200CBCF1F920F920FB63E
:103EB0000F9211240BB60F922F933F934F935F9362
:103EC0006F937F938F939F93AF93BF93EF93FF93E2
:103ED00083E194E00E947F08FF91EF91BF91AF9141
:103EE0009F918F917F916F915F914F913F912F9112
:103EF0000F900BBE0F900FBE0F901F9018951F9242
:103F00000F920FB60F9211240BB60F922F938F932F
:103F10009F93EF93FF93E0912304F0912404808119
:103F2000E0912904F0912A0482FD1DC090818091C6
:103F30002C048F5F8F7320912D04821741F0E09144
:103F40002C04F0E0ED5EFB4F958F80932C04FF91E5
:103F5000EF919F918F912F910F900BBE0F900FBEFD
:103F60000F901F9018958081F2CF1F920F920FB67D
:103F70000F9211240BB60F922F933F934F935F93A1
:103F80006F937F938F939F93AF93BF93CF93DF9361
:103F9000EF93FF9380910903C091EC04D0E087FF79
:103FA00023C01092850010928400809109038F5FD6
:103FB0008093090380910903082E000C990B8C173C
:103FC0009D0724F4809109038C3074F18091840062
:103FD0009091850084349C4908F465C080918400E8
:103FE00090918500049661C080910903082E000C11
:103FF000990B8C179D07CCF63091090325E032030D
:10400000F0011124E055FB4F808186FFCECF309127
:1040100009033203F0011124E055FB4F808160E079
:104020008F730E940704C1CF809184009091850016
:104030003091090325E03203F0011124E055FB4FD4
:1040400041815281840F951F90938900809388004D
:10405000309109033203F0011124E055FB4F8081B8
:1040600086FF0CC0309109033203F0011124E055A2
:10407000FB4F808161E08F730E940704FF91EF91F5
:10408000DF91CF91BF91AF919F918F917F916F9170
:104090005F914F913F912F910F900BBE0F900FBEEC
:1040A0000F901F90189580E49CE99093890080936D
:1040B00088008FEF80930903E1CF10920A041092D9
:1040C000090488EE93E0A0E0B0E080930B049093A5
:1040D0000C04A0930D04B0930E042BE232E0309355
:1040E000080420930704109216041092150480937C
:1040F000170490931804A0931904B0931A048DE345
:1041000092E0909314048093130485EC90E09093D4
:10411000200480931F0484EC90E090932204809309
:10412000210480EC90E0909324048093230481EC9C
:1041300090E0909326048093250482EC90E0909385
:1041400028048093270486EC90E090932A048093BF
:10415000290410922C0410922D0410922E04109217
:104160002F0483E393E3A3E7BFE380938C0590934D
:104170008D05A0938E05B0938F058DEC9CECACE47F
:10418000BEE38093900590939105A0939205B09320
:10419000930580E090E0A0EABFE3809394059093BC
:1041A0009505A0939605B0939705109298051092E7
:1041B000990510929A0510929B058CE080935E05FC
:1041C00084E280935F0585E08093600596E090939C
:1041D00061059EE1909362059FE19093630592E2F1
:1041E0009093640593E29093650594E4909366053B
:1041F00095E490936705109269051092680590E424
:1042000090936B05109270051092710510927205D3
:104210001092730510927405109275051092760530
:104220001092770598E0E9E0F2E0A0E8B5E00190AF
:104230000D929A95E1F740E050E060EA70E4409317
:1042400088055093890560938A0570938B05E091EA
:10425000EC04EC3008F0FCC091E09E0F9093EC046D
:10426000E0935D058E9FF0011124E055FB4F88EB34
:104270009BE0928381831092210510922205109277
:104280002305109224051092250510922605109200
:104290002705109228051092290510922A051092E0
:1042A0002B0510922C0510922E0510922D051092C0
:1042B000300510922F0510923205109231051092A0
:1042C0003305109234051092350510923605109280
:1042D0003705109238051092450510924605109248
:1042E0004705109248051092490510924A05109210
:1042F0004B0510924C0580E090E0A0EAB0E480937A
:104300004D0590934E05A0934F05B093500580E066
:1043100090E0A8ECB2E48093510590935205A093ED
:104320005305B093540510925505109256051092FE
:104330005705109258051092590510925A0510927F
:104340005B0510925C0584EE9BECA6E1B0EC8093DB
:10435000130590931405A0931505B093160584EEEC
:104360009BECA6E1B0E48093170590931805A09309
:104370001905B0931A0583E591E0A2EDB8E38093A7
:10438000F3049093F404A093F504B093F604109210
:10439000F7041092F8041092F9041092FA041092A3
:1043A000FB041092FC041092FD041092FE04109283
:1043B000FF04109200051092010510920205109260
:1043C000030510920405109205051092060510923F
:1043D0000705109208051092090510920A0510921F
:1043E0000B0510920C0510920D0510920E051092FF
:1043F0000F051092100510921105109212051092DF
:10440000EE041092ED041092F0041092EF0410925A
:10441000F2041092F10490E080E00E94671720916E
:10442000ED043091EE04811117C02115310519F00A
:10443000C9010E946A301092EE041092ED041092AD
:10444000F2041092F1041092F0041092EF04089517
:104450008FEF80935D050FCF1092F2041092F1045C
:104460006BE572E0C9010C94DD31CF93DF93CDB7DA
:10447000DEB7CE54D1090FB6F894DEBF0FBECDBF64
:10448000789484B5826084BD84B5816084BD85B52F
:10449000826085BD85B5816085BD80916E0081603B
:1044A00080936E00109281008091810082608093E1
:1044B00081008091810081608093810080918000E3
:1044C0008160809380008091B10084608093B1000E
:1044D0008091B00081608093B000809191008260F3
:1044E00080939100809191008160809391008091F0
:1044F00090008160809390008091A1008260809301
:10450000A1008091A10081608093A1008091A00012
:1045100081608093A00080912101826080932101BD
:10452000809121018160809321018091200181602F
:104530008093200180917A00846080937A0080913A
:104540007A00826080937A0080917A008160809303
:104550007A0080917A00806880937A001092C1007E
:10456000E0912304F091240482E08083E0911F0411
:10457000F09120041082E0912104F091220480E166
:10458000808310922B04E0912704F091280486E0A8
:104590008083E0912504F0912604808180618083EE
:1045A000E0912504F0912604808188608083E09169
:1045B0002504F0912604808180688083E0912504A1
:1045C000F091260480818F7D808361E080915F057A
:1045D0000E948F0460E080915F050E94070460E004
:1045E00080915E050E948F04809168059091690515
:1045F000892BA9F486E090E00E94CE2FFC018091E7
:104600006B05808387E094E092838183138280E24C
:1046100090E095838483F0936905E0936805E090CA
:104620006805F09069051092B6031092B5031092D8
:10463000E403109206040E94500488EC92E09093E8
:10464000B2038093B10389EC92E09093B40380931A
:10465000B30311E0D70113961C93C7010E94C3074F
:10466000882309F45BC080E090E1A0E0B0E0809393
:104670006C0590936D05A0936E05B0936F058AE06D
:1046800090E0A0E0B0E08093700590937105A09356
:104690007205B093730580E090E0A0E0B0E48093F1
:1046A000740590937505A0937605B0937705809176
:1046B0006805909169051FA618AA19AA1AAA99A3B4
:1046C00088A31BA21AA219A785E090E09FA38EA33E
:1046D0001AA702E008A740E050E160E070E0CE01D8
:1046E00080960E942B078091680590916905188A31
:1046F000198A1A8A1B8A9A8389831C821B821A87C9
:1047000018861F821B8709874FE959E360E070E034
:10471000CE0101960E942B0780936A0570E6E72E72
:1047200075E0F72E0EE515E0E4EC6E2EE2E07E2E4D
:10473000FAE08F2EF3E09F2EABECCA2EA7E0DA2E24
:10474000F7019281D7018D917D01F801828F938FBE
:1047500061E00E948F0461E0D8015B968C910E9419
:104760008F045801BEE1AB0EB11CF7019581838126
:10477000D8015E968C935E975F969C9361E00E9451
:104780008F0460E0F801878D0E948F0461E0D801FA
:104790005E968C910E9407045FB6F89480910F0397
:1047A000811125C0F3018491F4019491E82FF0E088
:1047B000EE0FFF1FEF5BFD4FA591B4918C919823F5
:1047C00021F461E085E30E94070461E085E30E9433
:1047D0008F048CB580618CBD8CB580648CBD61E02C
:1047E00084E30E948F0461E083E30E948F04809140
:1047F0000F038F5F80930F035FBEC6010197F1F730
:1048000060E0D8015E968C910E94070488E80E94BF
:10481000350A83E00E94350A61E0F801868D0E9426
:104820000704C6010197F1F7C5010E943C0A0E5F1B
:104830001F4FF5E002361F0709F082CF60E08DE3DD
:104840000E948F0460E080E10E948F0460E08EE0AF
:104850000E948F0460E081E10E948F0460E08FE09D
:104860000E948F0461E080E20E948F040E94B202E5
:104870008C01C0901305D0901405E0901505F090C0
:104880001605A70196016091170570911805809192
:10489000190590911A050E94F12D4B015C01B80198
:1048A000110F880B990B0E94732C9B01AC01C50161
:1048B000B4010E94D22C20E030EC4FE754E40E9477
:1048C000752EA70196010E94F22D0E94E72E70938B
:1048D0001C0560931B0580E090E0A0E8B0E48093A5
:1048E000210590932205A0932305B093240580E031
:1048F00090E0A0E0B0E48093250590932605A09376
:104900002705B09328058DEC9CECACECBDE38093BF
:10491000290590932A05A0932B05B0932C0510929E
:104920004D0510924E0510924F051092500589E1E9
:1049300090E0A0E0B0E080933D0590933E05A09309
:104940003F05B09340058DEC9CECACECBCE3809350
:10495000390590933A05A0933B05B0933C0587E851
:104960009BE090932E0580932D058BED92E1909323
:10497000300580932F059E012F5E3F4F2A963FAF53
:104980002EAF2A970E94B20220911D0530911E057C
:104990003093200520931F0590931E0580931D05DD
:1049A00060E080917E050E94070480E60E94350A3F
:1049B0008E010F5F1F4F7801480180E00E94350A89
:1049C00090E0B0E0A0E0F70181939193A193B193BF
:1049D0007F012A962EAD3FAD2A972E173F0769F724
:1049E00061E080917E050E940704412C512C320128
:1049F000F80181919191A191B1918F01762C652C53
:104A0000542C4424480E591E6A1E7B1EEE16FF06C7
:104A100079F72090FB043090FC04B091FD04A09144
:104A2000FE04F091FF04E0910005209101052B9612
:104A30002FAF2B97309102052F963FAF2F97910103
:104A40004B2F5A2F6F2F7E2F2B968FAD2B972F9694
:104A50009FAD2F97A0900305B0900405C090050569
:104A6000D0900605E0900705F09008050091090533
:104A700010910A050E94E82D20930B0530930C0538
:104A800040930D0550930E0560930F05709310052C
:104A9000809311059093120520920305309204052E
:104AA000B0930505A0930605F0930705E09308056C
:104AB0002B96AFAD2B97A09309052F96BFAD2F97DF
:104AC000B0930A057094609450944094411C511C1A
:104AD000611C711CD301C201BB0F880B982FDC0134
:104AE0004092FB045092FC046092FD047092FE041C
:104AF0008093FF0480930005809301058093020555
:104B00000E94FC0700914003109141032091420351
:104B100030914303601B710B820B930B693171055C
:104B20008105910508F4D1C58EE00E94DE03892B32
:104B300021F088E090E00E94EF1280E10E94DE0305
:104B4000892B21F087E090E00E94EF1281E10E9422
:104B5000DE03892BD9F089E090E00E94EF12E0910A
:104B60003E03F0913F033197E830F10508F05FC054
:104B70008827E254FA4D8F4F0C94E02DCC253A262D
:104B8000C226F7260927772799278E278FE00E94CC
:104B9000DE03892B01F7E3CF0E9436026B017C0113
:104BA00020E030E0A9010E94C92F1816CCF42AE0B9
:104BB00037ED43EA5BE3C701B6010E946C2C87FD29
:104BC00019C080911D0590911E050E94E6012DECF3
:104BD0003CEC4CE45EE30E94D22CAB01BC01CCC0A7
:104BE0002AE037ED43EA5BEBC701B6010E94C92F0B
:104BF00018163CF780911D0590911E050E94E60154
:104C00006B017C0120E030E0A9010E94C92F181639
:104C100034F52DEC3CEC4CE45DE3C701B6010E9499
:104C20006C2C87FFCECF86E090E00E94EF12E091DF
:104C30003E03F0913F03EA30F10508F007C28827F0
:104C4000EB5DF94D8F4F0C94E02D722BE1258626FC
:104C5000D626A427772B6E2B9F279427842B2DEC09
:104C60003CEC4CE45DEBC701B6010E94C92F18165D
:104C7000D4F2A7CF2091FB043091FC044091FD04B5
:104C80005091FE046091FF04709100058091010530
:104C9000909102050E941D2F2091F3043091F4049D
:104CA0004091F5045091F6040E94D22C2091F70413
:104CB0003091F8044091F9045091FA040E94F22DC9
:104CC0002AE939E949E15EE30E94F12D6B017C019B
:104CD00020E030E0A9010E94C92F18166CF42AE0E8
:104CE00037ED43E25CE3C701B6010E946C2C87FFFD
:104CF0000DC090E080E099CF2AE037ED43E25CEB15
:104D0000C701B6010E94C92F18169CF32091FB041D
:104D10003091FC044091FD045091FE046091FF0429
:104D20007091000580910105909102050E941D2F50
:104D30002091F3043091F4044091F5045091F6046D
:104D40000E94D22C2091F7043091F8044091F9048C
:104D50005091FA040E94F22D2AE939E949E15EE313
:104D60000E946C2C4DEC5CEC6CEC7DEB87FF04C07E
:104D70004DEC5CEC6CEC7DE370588AE795E00E94AA
:104D80000E0964C10E94FC070091100310911103E9
:104D90002091120330911303601B710B820B930B54
:104DA000693E73408105910508F0A3CF40E050E0D3
:104DB00060E070E88AE795E00E940E090E94FC0717
:104DC00000911003109111032091120330911303ED
:104DD000601B710B820B930B643F71408105910541
:104DE00008F07AC460E080E20E9407042FC180913D
:104DF0001D0590911E050E94E6012DEC3CEC4CE453
:104E00005FE30E94C92F18160CF09EC085E090E069
:104E10000CCF20E030E0A90160918C0570918D05E8
:104E200080918E0590918F050E946C2C87FF2DC07C
:104E300020E030E0A9016091940570919505809182
:104E40009605909197050E94C92F1816F4F420E05A
:104E500030E0A901609190057091910580919205D3
:104E6000909193050E94C92F18167CF420E030E041
:104E7000A901609198057091990580919A0590918A
:104E80009B050E946C2C87FD2FC02091FB04309164
:104E9000FC044091FD045091FE046091FF04709168
:104EA000000580910105909102050E941D2F20911F
:104EB000F3043091F4044091F5045091F6040E94FB
:104EC000D22C2091F7043091F8044091F9045091CC
:104ED000FA040E94F22D20E030E040E45FE30E94FB
:104EE000C92F18160CF003C481E090E09ECE0E94FA
:104EF000FC070091100310911103209112033091CF
:104F00001303601B710B820B930B693C71058105C8
:104F1000910508F4E3C382E090E087CE8EE00E9422
:104F2000DE03892B09F4E5CE4DEC5CEC6CEC7DE303
:104F300024CF80E10E94DE03892B09F4DACE4DEC08
:104F40005CEC6CEC7DEB19CF0E94FC072091140304
:104F500030911503A9014C595F4F4617570708F4C4
:104F6000B7C3621B730B90E080E00E94712C20E0BD
:104F700030E040E251E40E94752E6B017C010E94FA
:104F80005E2E2B013C01C701B6010E94612F0E94D9
:104F9000EE2E2E966CAF7DAF8EAF9FAF2E972C96D8
:104FA0002EAD3FAD2C97B90190E080E00E94712CAE
:104FB0009B01AC01C701B6010E94F12D6B017C0180
:104FC0002C960EAD1FAD2C97000F111F000F111F57
:104FD0000C5E1C4FAC019B0160E070E080E89FE339
:104FE0000E94F12DD80112962D913D914D915C9129
:104FF00015970E94D22C2E966CAF7DAF8EAF9FAFCF
:105000002E97C301B2010E94EE2E660F771F660F26
:10501000771F6C5E7C4FFB01228133814481558177
:10502000C701B6010E94D22C9B01AC012E966CAD3B
:105030007DAD8EAD9FAD2E970E94F22D609333050E
:105040007093340580933505909336050E94FC07D4
:10505000009145051091460520914705309148057E
:10506000601771078207930708F45BC080913705CA
:10507000882309F456C00E94FC0700913D05109159
:105080003E0520913F0530914005DC01CB01800FAA
:10509000911FA21FB31F8093450590934605A093CF
:1050A0004705B0934805C0903305D0903405E09093
:1050B0003505F0903605E0912D05F0912E051995F6
:1050C0009B01AC01C701B6010E94F12D6B017C016F
:1050D0009F7720914D0530914E0540914F0550919D
:1050E00050050E946C2C87FF1CC381E0809338051B
:1050F00010923705E0913105F0913205309709F0B3
:1051000019958091450590914605A0914705B0916C
:1051100048058093490590934A05A0934B05B093A9
:105120004C0521E032E03A8329831B821D821C82D8
:1051300086E090E08C0F9D1F9F8B8E8B188E84E0F5
:10514000898F8FEF8A8F1F8E0E94FC076B017C0175
:1051500088A299A2ACEDB2E0BBA3AAA3CE0180962F
:105160000E94D41C8C01009761F0B4010E94140FBE
:10517000F8018481807888608483C082D182E28251
:10518000F382E0903E03F0903F0388A299A2E4EA04
:10519000F2E0FBA3EAA3CE0180960E94D41C8C010E
:1051A0000097A1F0B4010E94140FD80114968C91BD
:1051B000149780788A6014968C93C701FF0CAA0B11
:1051C000BB0BF80180839183A283B3838091210577
:1051D00090912205A0912305B091240588A399A35D
:1051E000AAA3BBA38BAA9CAA87E992E09EAB8DAB36
:1051F000BE01605E7F4FCE01C3960E94121D80915A
:10520000250590912605A0912705B091280588A332
:1052100099A3AAA3BBA38BAA9CAA8AE992E09EABFE
:105220008DABBE01605E7F4FCE01C3960E94121D02
:105230008091290590912A05A0912B05B0912C050C
:1052400088A399A3AAA3BBA38BAA9CAA8DE992E0E9
:105250009EAB8DABBE01605E7F4FCE01C3960E94B8
:10526000121D8091330590913405A0913505B091C0
:10527000360588A399A3AAA3BBA38BAA9CAA86EAF6
:1052800092E09EAB8DABBE01605E7F4FCE01C396B8
:105290000E94121D2091FB043091FC044091FD04FA
:1052A0005091FE046091FF0470910005809101050A
:1052B000909102050E941D2F2091F3043091F40477
:1052C0004091F5045091F6040E94D22C2091F704ED
:1052D0003091F8044091F9045091FA040E94F22DA3
:1052E00068A379A38AA39BA38BAA9CAA8AEA92E0CB
:1052F0009EAB8DABBE01605E7F4FCE01C3960E9418
:10530000121D2091FB043091FC044091FD0450914A
:10531000FE046091FF047091000580910105909159
:105320000205A0900305B0900405C0900505D0903B
:105330000605E0900705F090080500910905109119
:105340000A050E94E82D0E941D2F2091F304309140
:10535000F4044091F5045091F6040E94D22C68A305
:1053600079A38AA39BA38BAA9CAA89EA92E09EAB0D
:105370008DABBE01605E7F4FCE01C3960E94121DB1
:105380002091FB043091FC044091FD045091FE04F7
:105390006091FF04709100058091010590910205D4
:1053A000A0900305B0900405C0900505D0900605B7
:1053B000E0900705F09008050091090510910A0595
:1053C0000E94E82DA0900B05B0900C05C0900D0533
:1053D000D0900E05E0900F05F0901005009111059A
:1053E000109112050E94E82D0E941D2F2091F304B8
:1053F0003091F4044091F5045091F6040E94D22CAF
:1054000068A379A38AA39BA38BAA9CAA88EA92E0AB
:105410009EAB8DABBE01605E7F4FCE01C3960E94F6
:10542000121D80911D0590911E050E94E60168A342
:1054300079A38AA39BA38BAA9CAA8DEA92E09EAB38
:105440008DABBE01605E7F4FCE01C3960E94121DE0
:105450000E94360268A379A38AA39BA38BAA9CAA65
:105460008CEA92E09EAB8DABBE01605E7F4FCE01B9
:10547000C3960E94121DF090380588A299A284EB71
:1054800092E09BA38AA3CE0180960E94D41C8C013B
:10549000009769F0B4010E94140FD80114968C9102
:1054A00014978078866014968C931497FC92809160
:1054B0006805909169051FA618AA19AA1AAA99A3A6
:1054C00088A31BA21AA211E019A782E090E09FA373
:1054D0008EA31AA702E008A7BE016D5C7F4FCE0124
:1054E00080960E94251180936A05EBA8FCA883E0B2
:1054F000F694E7948A95E1F7EE0CFF1CEE0CFF1C86
:1055000080916805909169051FA618AA19AA1AAA80
:1055100099A388A31BA21AA219A781E090E09FA3D8
:105520008EA31AA708A7BE016D5C7F4FCE0180969F
:105530000E94251180936A056BA97CA9072E000C97
:10554000880B990B0E94732C2AE037ED43E25CE351
:105550000E94D22C20E030E04AE754E40E94752EED
:105560002B013C01B701FF0C880B990B0E94732C97
:105570002FE632E143E85AE30E94D22C9B01AC01B2
:10558000C301B2010E94F22D68A379A38AA39BA351
:105590008BAA9CAA8FEA92E09EAB8DABBE01605EA7
:1055A0007F4FCE01C3960E94121D80916805909195
:1055B000690526961CAE1DAE1EAE1FAE26979CAB8F
:1055C0008BAB1EAA1DAA1CAF85E090E09AAF89AFF5
:1055D0001DAF0BAF40916C0550916D0560916E054C
:1055E00070916F05CE01C3960E942B0780916805CC
:1055F000909169051FA618AA19AA1AAA99A388A3A7
:105600001BA21AA219A784E090E09FA38EA31AA759
:1056100008A7BE016A5B7F4FCE0180960E942511CC
:1056200080936A0528966EAD7FAD2897072E000CF3
:10563000880B990B0E94732C6B017C0160917005A3
:105640007091710580917205909173050E94712C83
:105650009B01AC01C701B6010E94752E20E030E02D
:105660004AE754E40E94752E68A379A38AA39BA3FA
:105670008BAA9CAA81EB92E09EAB8DABBE01605ED3
:105680007F4FCE01C3960E94121D83E194E099A33F
:1056900088A31BA21AA28CA29DA2BE01605E7F4FAE
:1056A000CE014B960E94891486E692E00E94E21297
:1056B000C4010E94CB0E0E94FC07609340037093CC
:1056C000410380934203909343030E94A71C5AC94D
:1056D00060E070E0CB01B2CC61E085CB60E080E2BD
:1056E0000E94070440E050E060E070E846CB80E0B4
:1056F00090E0A0E0BFE38093330590933405A0933E
:105700003505B0933605A2CC40E050E060E070E88B
:105710008AE795E00E940E098EE795E00E943C0A18
:1057200095CC00912F05109130050E94FC07409008
:10573000490550904A0560904B0570904C056419DE
:105740007509860997096093410570934205809316
:10575000430590934405209155053091560540919D
:10576000570550915805C701B6010E94F22D60936C
:1057700055057093560580935705909358054090B2
:105780005105509052056090530570905405A30147
:1057900092010E94C92F181644F440925505509268
:1057A0005605609257057092580577FA709477F80D
:1057B0007094A301920160915505709156058091F6
:1057C0005705909158050E946C2C87FF08C04092A5
:1057D00055055092560560925705709258054090B5
:1057E000390550903A0560903B0570903C0520913A
:1057F00055053091560540915705509158056091D7
:1058000025057091260580912705909128050E9415
:10581000D22CA30192010E94D22C2E966CAF7DAFA8
:105820008EAF9FAF2E972091210530912205409198
:10583000230550912405C701B6010E94D22C9B017B
:10584000AC012E966CAD7DAD8EAD9FAD2E970E94B6
:10585000F22D2E966CAF7DAF8EAF9FAF2E9720911D
:10586000590530915A0540915B0550915C05C7017F
:10587000B6010E94F12D2091290530912A05409111
:105880002B0550912C050E94D22CA30192010E945D
:10589000752E9B01AC012E966CAD7DAD8EAD9FAD8E
:1058A0002E970E94F22DC0925905D0925A05E0928F
:1058B0005B05F0925C05F801199523CC8091ED040D
:1058C0009091EE04009711F00E946A308091680573
:1058D000909169050C946A300E94AE2C08F481E026
:1058E0000895E89409C097FB3EF4909580957095D3
:1058F00061957F4F8F4F9F4F9923A9F0F92F96E91C
:10590000BB279395F695879577956795B795F11190
:10591000F8CFFAF4BB0F11F460FF1BC06F5F7F4F2D
:105920008F4F9F4F16C0882311F096E911C077233F
:1059300021F09EE8872F762F05C0662371F096E848
:10594000862F70E060E02AF09A95660F771F881F17
:10595000DAF7880F9695879597F90895990F0008BB
:10596000550FAA0BE0E8FEEF16161706E807F90731
:10597000C0F012161306E407F50798F0621B730BCC
:10598000840B950B39F40A2661F0232B242B252B4D
:1059900021F408950A2609F4A140A6958FEF811DF0
:1059A000811D08950E94E52C0C94562D0E94482DCF
:1059B00038F00E944F2D20F0952311F00C943F2DCC
:1059C0000C94452D11240C948A2D0E94672D70F3A0
:1059D000959FC1F3950F50E0551F629FF001729F94
:1059E000BB27F00DB11D639FAA27F00DB11DAA1FA3
:1059F000649F6627B00DA11D661F829F2227B00DF0
:105A0000A11D621F739FB00DA11D621F839FA00D7A
:105A1000611D221F749F3327A00D611D231F849FCA
:105A2000600D211D822F762F6A2F11249F57504021
:105A30009AF0F1F088234AF0EE0FFF1FBB1F661F9C
:105A4000771F881F91505040A9F79E3F510580F065
:105A50000C943F2D0C948A2D5F3FE4F3983ED4F3D1
:105A6000869577956795B795F795E7959F5FC1F709
:105A7000FE2B880F911D9695879597F9089597F9B4
:105A80009F6780E870E060E008959FEF80EC0895E4
:105A900000240A941616170618060906089500240D
:105AA0000A9412161306140605060895092E039487
:105AB000000C11F4882352F0BB0F40F4BF2B11F4FB
:105AC00060FF04C06F5F7F4F8F4F9F4F089557FD5A
:105AD0009058440F551F59F05F3F71F04795880F5C
