:100000000C94B1010C94E2010C94E2010C94E20115
:100010000C94E2010C94E2010C94E2010C94E201D4
:100020000C94E2010C94E2010C94E2010C94E201C4
:100030000C94E2010C946B1E0C94E2010C94E2010E
:100040000C94E2010C94681F0C94E2010C94E20100
:100050000C94E2010C94E2010C94E2010C94211E38
:100060000C94E2010C94321F0C94081F0C94E201D2
:100070000C94E2010C94E2010C94E2010C94E20174
:100080000C94E2010C94E2010C94E2010C94E20164
:100090000C94E2010C94E2010C94E2010C94FD1C1E
:1000A0000C94E2010C94E2010C94E2010C94E20144
:1000B0000C94E2010C94E2010C94E2010C94E20134
:1000C0000C94E2010C94E2010C94E2010C94E20124
:1000D0000C94E2010C94E2010C94E2010C94E20114
:1000E0000C94E2010C946A080C94F91C0C94E20341
:1000F0000C94CE030C940F0A0C94022C0C94EC0379
:100100000C942C2B0C94392B0C94F0030C94DE03E0
:100110000C94CB030C9415030C94C4290C9419294A
:100120000C94190A0C94ED020C9410200C94FA0310
:100130000C94242B0C9406290C94E4170C949B2902
:100140000C94BF290C94B4290C943F030C94880A96
:100150000C94EF090C94D8030C94F4030C9425032D
:100160000C947E0A0C9403090C9438030C94022B13
:100170000C94BF030C945A290C94FE030C94000AAF
:100180000C94920A0C94600A0C94050A0C94A02812
:100190000C94E7170C94E6030C94D4030C94510AC6
:1001A0000C94C5280C94F9030C942B0A0C94B929CF
:1001B0000C94AE290C9416030C946C030C94230A33
:1001C0000C94330A0C94A9080C9497080C94B90366
:1001D0000C94E3130C946A0A0C9450090C94EC02EE
:1001E0000C94C3030C94690C0C943D0A0C94740A8F
:1001F0000C949A080C94CB080C940D2B0C94CF2AD9
:100200000C94BD080C94C7030C94470ACDCCCC3D8C
:100210000AD7233C17B7D13877CC2B329595E624F3
:100220001FB14F0A000020410000C84200401C4698
:1002300020BCBE4CCA1B0E5AAEC59D7402000021E4
:1002400000240027002A002D0030003300010100A7
:1002500000040107010A0100002200250028002BEC
:10026000002E003100340002010000050108010BDE
:1002700001000020002300260029002C002F00325E
:10028000000001000003010601090105050505073D
:100290000508080808020202020A0A080804040401
:1002A000040101010101010101030303030303032D
:1002B00003040707070C0C0C0C0C0C0C0C020202BC
:1002C0000206060606060606060B0B0B0B0B0B0BAF
:1002D0000B0102102020080810204010204080024E
:1002E000010201080402010102040810204080807C
:1002F0004020100804020180040201804020100800
:1003000004020108040201010204081020408001D7
:100310000204081020408000000A0B02090C0D0E98
:1003200008070304010000000000000000000000B6
:1003300000000000000000000000000000000000BD
:10034000000000121110000000000000000000007A
:10035000000000000000000000000000000010206D
:10036000022C11241FBECFEFD1E2DEBFCDBF00E0D3
:100370000CBF13E0A0E0B2E0E2ECF2E600E00BBF5D
:1003800002C007900D92A235B107D9F726E0A2E589
:10039000B3E001C01D92A831B207E1F711E0C0EB54
:1003A000D1E000E006C021970109802FFE010E94E4
:1003B000AF2DCF3AD10780E00807A9F70E940F229E
:1003C0000C944F310C9400004F925F926F927F9289
:1003D0008F929F92AF92BF92CF92DF92EF92FF9255
:1003E000CF93DF9300D01F92CDB7DEB7E9E5F5E0FC
:1003F000C080D180E280F380A701960160915D0505
:1004000070915E0580915F05909160050E94B72D07
:100410004B015C014090610550906205609063055E
:10042000709064056091650570916605072E000C5B
:10043000880B990B0E940F2CA50194010E946E2C31
:1004400020E030EC4FE754E40E943B2EA7019601D8
:100450000E94B82DA30192010E94B72D69837A836F
:100460008B839C836091670570916805072E000C53
:10047000880B990B0E940F2CA50194010E946E2CF1
:1004800020E030EC4FE754E40E943B2EA701960198
:100490000E94B82DA30192010E94B72D9B01AC01CF
:1004A00069817A818B819C810E94B72D0F900F907A
:1004B0000F900F90DF91CF91FF90EF90DF90CF9052
:1004C000BF90AF909F908F907F906F905F904F9074
:1004D0000895CF93DF93EC0188819981DC01ED9140
:1004E000FC910190F081E02D64E270E01995009795
:1004F00041F02FE1FC01238321E02283DF91CF91A2
:10050000089521E02A83FACF80917B00877F809332
:100510007B0087E480937C0080917A0080648093E4
:100520007A0080917A0086FDFCCF809178009091CE
:1005300079000895CF92DF92EF92FF92CF93DF93ED
:10054000C0916905CC3008F040C025E0C29FE001B1
:100550001124C25FDA4F2B8138E8C32ED12CC21A86
:10056000D10827FDD394CC0CDD1CCC0CDD1C0D2C4C
:10057000000CEE08FF084C8128E532E0241B31090D
:1005800047FD3395220F331F220F331F032E000C1C
:10059000440B550B2C193D094E095F09DC010E94E3
:1005A000562D24EB30E040E050E00E942C2DC20E8E
:1005B000D31EE41EF51E8FB7F89496E0C91AD10831
:1005C000CC0CDD1CDA82C9828FBFDF91CF91FF9006
:1005D000EF90DF90CF900895089508952091CC0377
:1005E000260F3327331F21323105ECF420913B04D1
:1005F000FC0190E080E0243069F082E00895A09151
:10060000CC032191AC0144555C4FA40FB52FB11D13
:100610002C930196861798F38091CC03680F609312
:10062000CC0380E0089581E008950895E0911404DA
:1006300080911304E81730F4F0E0E151FC4F808121
:1006400090E008958FEF9FEF0895909114048091AA
:1006500013042FEF3FEF981748F4E92FF0E0E15132
:10066000FC4F208130E09F5F90931404C9010895EE
:100670008091130490911404891B990B0895CF92D3
:10068000DF92EF92FF920F931F93CF93DF937C0142
:10069000CB018A0120914104222389F0EB016B01F7
:1006A000C40ED51ECC15DD0569F06991D701ED9119
:1006B000FC910190F081E02DC7011995F3CF642FD3
:1006C0000E94EE02C801DF91CF911F910F91FF9020
:1006D000EF90DF90CF900895CF93DF931F92CDB727
:1006E000DEB76983209141042223F9F0209164044C
:1006F000203258F021E030E0FC013383228390E087
:1007000080E00F90DF91CF91089580914204E82F0F
:10071000F0E0ED5BFB4F998190838F5F8093420403
:100720008093640481E090E0ECCF61E0CE0101961B
:100730000E94EE02F7CF8150823108F05AC0E82FB4
:10074000F0E08827E955FC4F8F4F0C94AF2DC7037D
:10075000CB03B903BF03C303F903CE03D403D80308
:10076000DE03E203E603EC03F003F903F403FA0308
:10077000FE03809180008F778093800008958091A0
:1007800080008F7DF9CF80918000877FF5CF84B581
:100790008F7784BD089584B58F7DFBCF8091B000A5
:1007A0008F778093B00008958091B0008F7DF9CF4E
:1007B000809190008F7780939000089580919000B1
:1007C0008F7DF9CF80919000877FF5CF8091A00039
:1007D0008F778093A00008958091A0008F7DF9CF3E
:1007E0008091A000877FF5CF809120018F77809343
:1007F00020010895809120018F7DF9CF8091200103
:10080000877FF5CFCF93DF93282F30E0F901E95EA2
:10081000FC4F8491F901EF52FD4FD491F901E55756
:10082000FD4FC491CC23A1F081110E949B03EC2FBA
:10083000F0E0EE0FFF1FEF58FD4FA591B491EC9142
:10084000ED2381E090E009F480E0DF91CF910895FD
:1008500080E090E0FACF1F93CF93DF93282F30E012
:10086000F901E95EFC4F8491F901EF52FD4FD491FB
:10087000F901E557FD4FC491CC23A9F0162F811142
:100880000E949B03EC2FF0E0EE0FFF1FE95AFD4F93
:10089000A591B4918FB7F894EC91111108C0D0953F
:1008A000DE23DC938FBFDF91CF911F910895DE2B64
:1008B000F8CFFC0183858F3F19F061E00C942B0485
:1008C0000895FC0180819181892B39F0A281B38147
:1008D0009C9111968C919CBD8DBD83858F3F19F0A5
:1008E00060E00C942B04089510923B0481E0809307
:1008F0003A041092150461E084E10E942B0461E047
:1009000085E10E942B04E9EBF0E080818E7F8083FB
:1009100080818D7F808388E48093B80085E4809314
:10092000BC000895CF93DF9391E09093AB038823AD
:10093000B9F0C091B800D091BA008091BC008A7B18
:100940008093BC0060E084E10E942B0460E085E1BC
:100950000E942B040E947404D093BA00C093B80084
:10096000DF91CF910895CF93DF9390E0FC01EF5298
:10097000FD4F249185579D4FFC0184918823D1F030
:1009800090E0880F991FFC01E35CFD4FA591B491A5
:10099000FC01E95AFD4FC591D49161110EC09FB77A
:1009A000F8948C91E22FE0958E238C932881E2239A
:1009B000E8839FBFDF91CF9108958FB7F894EC91B2
:1009C000E22BEC938FBFF6CF8230910538F0880F81
:1009D000991F880F991F05970197F1F70895AF9216
:1009E000BF92CF92DF92EF92FF920F931F93CF931C
:1009F000DF93EC0188819981892B89F06EBD0DB45C
:100A000007FEFDCFBEB48B2DDF91CF911F910F91CB
:100A1000FF90EF90DF90CF90BF90AF9008958885C2
:100A2000998511E0892B09F010E8AA24A394862F58
:100A3000812309F0A12C062F2C813D814E815F81FD
:100A400060E271EA87E090E00E945E2DF22EB02E07
:100A5000E12CC22ED12CFF2019F0C6010E94E40423
:100A60008A85877F09F042C08D858F3F89F0902F5E
:100A7000912381E009F480E08A1551F0EF85F8892F
:100A80008F89992369F19081892B8083AA24A3946B
:100A9000E989FA898081998D892B8083FF2019F05B
:100AA000C6010E94E4048E858F3F39F0EB89FC89F2
:100AB0008081988D892309F0E12AE989FA8990815A
:100AC000898D8095892380838E858F3F09F0BE2C88
:100AD00088859985892BB9F5110F1111BCCF93CF5A
:100AE0009081809589238083A12CD2CFE989FA89CE
:100AF0008081998D892B8083FF2019F0C6010E9487
:100B0000E4048D858F3F49F0EF85F8898F89902F18
:100B10009123A9F09081892B8083E989FA899081BA
:100B2000898D8095892380838E858F3F69F2EB893B
:100B3000FC898081988D892339F2E12AC5CF908183
:100B400080958923E9CF1695C8CF8F929F92AF9257
:100B5000BF92CF92DF92EF92FF920F931F93CF93AA
:100B6000DF937C014B016A01B22EA32E0E94610427
:100B7000E401C80CD91CCC15DD0569F4CB2DDA2DA8
:100B80000C0F1D1FC017D10759F06FEFC7010E944E
:100B9000EF048993F7CF6991C7010E94EF04EBCF6F
:100BA000C7010E94590481E0DF91CF911F910F91FD
:100BB000FF90EF90DF90CF90BF90AF909F908F907D
:100BC00008958F929F92AF92BF92CF92DF92EF9251
:100BD000FF920F931F93CF93DF937C01B62EA72E26
:100BE0006A0149010E946104E401080D191DC01742
:100BF000D10761F4CB2DDA2DCC0EDD1ECC15DD0531
:100C000051F06991C7010E94EF04F8CF6991C701C3
:100C10000E94EF04ECCFC7010E94590481E0DF91EC
:100C2000CF911F910F91FF90EF90DF90CF90BF90E9
:100C3000AF909F908F9008953FB7F8948091A7034D
:100C40009091A803A091A903B091AA0326B5A89BEF
:100C500005C02F3F19F00196A11DB11D3FBFBA2F4E
:100C6000A92F982F8827BC01CD01620F711D811D0E
:100C7000911D42E0660F771F881F991F4A95D1F793
:100C800008958F929F92AF92BF92CF92DF92EF9290
:100C9000FF920F931F93CF93DF93D0916404D132CF
:100CA00008F0D7C0182FC09163040E941C066B0186
:100CB0007C0180913B0481116BC082E080933B04F6
:100CC00010933A048FEF8093390410923804D09334
:100CD0003704A3E4B4E0E7E1F4E080E0D81391C086
:100CE0001092160480911604CC0FC82BC0931604E2
:100CF00080911504813009F088C0109215040E947B
:100D00001C066B017C01809116048093BB008091CE
:100D10003D0490913E04A0913F04B0914004892B82
:100D20008A2B8B2BA1F00E941C0600913D04109190
:100D30003E0420913F04309140046C197D098E09D6
:100D40009F09061717072807390708F442C0809142
:100D5000BC0083FDD8CF85EC8093BC000E941C06AC
:100D60006B017C0180913B04823009F450C080917A
:100D700039048F3F09F46FC080913904803209F43F
:100D80006CC080913904803309F469C084E026C0C6
:100D900080913D0490913E04A0913F04B0914004A5
:100DA000892B8A2B8B2B09F484CF0E941C06809000
:100DB0003D0490903E04A0903F04B09040046C1914
:100DC0007D098E099F0986169706A806B90608F0C0
:100DD00070CF80913C040E94920485E010924204FE
:100DE0001092640410924104DF91CF911F910F91F2
:100DF000FF90EF90DF90CF90BF90AF909F908F903B
:100E000008959D9191938F5F69CF85EEA5CF8091D5
:100E10003D0490913E04A0913F04B0914004892B81
:100E20008A2B8B2B09F49ECF0E941C0600913D0457
:100E300010913E0420913F04309140046C197D09CB
:100E40008E099F09061717072807390708F08ACF68
:100E5000C0CF81E0C3CF80E0C1CF82E0BFCF83E0CD
:100E6000BDCF1F93CF93DF93EA01122FDC011196C0
:100E70008D919C91DC01ED91FC910280F381E02D3C
:100E80001995C817D90729F4812F0E94410691E0CE
:100E9000811190E0892FDF91CF911F910895CF921A
:100EA000DF92EF92FF920F931F93CF93DF931F92E6
:100EB0001F92CDB7DEB7FC014787508B618B728BD9
:100EC0008285882371F14487452F562F672F772716
:100ED000882349F143877F018BE0E80EF11C96815E
:100EE000878199838A83C080D180C114D10409F499
:100EF00043C0018510E098012E5F3F4FD601149644
:100F00008D919C918217930780F480E00F900F9051
:100F1000DF91CF911F910F91FF90EF90DF90CF90D5
:100F200008954387D1CF4487D6CFF601818192813E
:100F3000208131E0309341042093630410924204F5
:100F4000109264040115110541F421E042E050E0E3
:100F5000B701C6010E943107D9CFDC01ED91FC91A8
:100F60000280F381E02DA801BE016F5F7F4F1995CC
:100F70000817190751F6E9CFA281B381109729F21A
:100F800024813581018510E02330310579F48E7F8D
:100F900089839A830F5F1F4F9E012F5F3F4F42E06F
:100FA00050E0B701CD010E94E105B0CF2115310518
:100FB00019F49F779983F0CF2230310511F49068AE
:100FC000F9CF2130310541F79F779064F3CFCF936C
:100FD000DF93EC018B818823A1F0888191E09093CD
:100FE000410480936304109242041092640481E0EF
:100FF0000E94410691E0811190E0892FDF91CF910D
:101000000895109214041092130410924204109246
:1010100064040E9474048CEE92E090931004809318
:101020000F048DEE92E0909312048093110481E0FE
:101030008B83CE010E94E707982F8111CECFDDCFA1
:101040002FB7F8946091A3037091A4038091A50336
:101050009091A6032FBF08950F931F93809176055B
:1010600090917705892B99F1809178059091790578
:10107000892B69F181E0809380050E94200800910E
:101080008605109187052091880530918905DC013E
:10109000CB01800F911FA21FB31F80938E059093E9
:1010A0008F05A0939005B093910510928105109241
:1010B0009E0510929F051092A0051092A105109216
:1010C000A2051092A3051092A4051092A5051F91E8
:1010D0000F910895AF92BF92CF92DF92EF92FF925D
:1010E0000F931F93CF93DF936C017B018B01040F50
:1010F000151FEB015E01AE18BF08C017D10759F0EC
:101100006991D601ED91FC910190F081E02DC6012D
:101110001995892B79F7C501DF91CF911F910F9117
:10112000FF90EF90DF90CF90BF90AF90089590E048
:1011300080E00895FC01538D448D252F30E0842FED
:1011400090E0821B930B541710F0CF9608950197EF
:101150000895FC01918D828D981761F0A28DAE0FDC
:10116000BF2FB11D5D968C91928D9F5F9F73928F63
:1011700090E008958FEF9FEF0895FC01918D828D8F
:10118000981731F0828DE80FF11D858D90E008955C
:101190008FEF9FEF0895FC01918D228D892F90E0B4
:1011A000805C9F4F821B91098F739927089581E777
:1011B00094E00E94CB0821E0892B09F420E0822FE3
:1011C0000895FC01A48DA80FB92FB11DA35ABF4FDC
:1011D0002C91848D90E001968F739927848FA68936
:1011E000B7892C93A089B1898C91837080648C938A
:1011F000938D848D981306C00288F389E02D808139
:101200008F7D80830895EF92FF920F931F93CF936A
:10121000DF93EC0181E0888F9B8D8C8D98131AC031
:10122000E889F989808185FF15C09FB7F894EE8918
:10123000FF896083E889F989808183708064808375
:101240009FBF81E090E0DF91CF911F910F91FF90C0
:10125000EF900895F62E0B8D10E00F5F1F4F0F7368
:101260001127E02E8C8D8E110CC00FB607FCFACF23
:10127000E889F989808185FFF5CFCE010E94E108D8
:10128000F1CFEB8DEC0FFD2FF11DE35AFF4FF082F4
:101290009FB7F8940B8FEA89FB8980818062CFCF5A
:1012A000CF93DF93EC01888D8823B9F0AA89BB899D
:1012B000E889F9898C9185FD03C0808186FD0DC088
:1012C0000FB607FCF7CF8C9185FFF2CF808185FFA9
:1012D000EDCFCE010E94E108E9CFDF91CF910895D3
:1012E0008F929F92AF92BF92CF92DF92EF92FF9236
:1012F0000F931F93CF93DF93EC016A017B0120E0F2
:1013000030E04FE753E4CB01B6010E946E2C4B0155
:101310005C0120E030E0A9010E943B2F18168CF5FB
:10132000C501B4010E94AD2E8B01B98020E030E0F0
:10133000A901C701B6010E943B2F60E018160CF00E
:1013400061E08B2D0E942B040F3F110509F0ECF496
:101350001127C88161E08C2F0E94B304011511058B
:10136000B9F460E08C2FDF91CF911F910F91FF9026
:10137000EF90DF90CF90BF90AF909F908F900C94A4
:101380002B04C501B4019058CDCF0FEF10E0E1CF91
:101390000F3F110511F461E0E5CFEC2FF0E0E95EBD
:1013A000FC4FE491E150E23108F0BCC0F0E0882746
:1013B000E352F64F8F4F0C94AF2DEF09000A050A48
:1013C0000F0A190A920A230A2B0A330A3D0A470A0E
:1013D000510A600A6A0A920A740A7E0A880A84B567
:1013E000806884BD07BDDF91CF911F910F91FF9061
:1013F000EF90DF90CF90BF90AF909F908F90089527
:1014000084B5806284BD08BDEECF80918000806885
:10141000809380001093890000938800E4CF80912E
:10142000800080628093800010938B0000938A007C
:10143000DACF8091800088608093800010938D00C7
:1014400000938C00D0CF8091B00080688093B00072
:101450000093B300C8CF8091B00080628093B00049
:101460000093B400C0CF809190008068809390007A
:101470001093990000939800B6CF809190008062FD
:101480008093900010939B0000939A00ACCF8091C2
:10149000900088608093900010939D0000939C00C2
:1014A000A2CF8091A00080688093A0008091A000CE
:1014B0008F7B8093A0001093A9000093A80093CF86
:1014C0008091A00080628093A0001093AB000093F5
:1014D000AA0089CF8091A00088608093A00010931B
:1014E000AD000093AC007FCF809120018068809395
:1014F0002001109329010093280175CF80912001CC
:1015000080628093200110932B0100932A016BCFFE
:101510008091200188608093200110932D01009319
:101520002C0161CF003811050CF035CF1ACF8EBDDC
:1015300000000DB407FEFDCF8EB50895AF92BF92A7
:10154000CF92DF92EF92FF920F931F93CF93DF938F
:10155000CDB7DEB760970FB6F894DEBF0FBECDBF34
:101560006C0160E0FC0180810E942B0480E60E94F7
:10157000970A9E012F5F3F4F79015E0131E1A30E73
:10158000B11C870180E00E94970A90E0B0E0A0E0E3
:10159000F80181939193A193B1938F01EA15FB0513
:1015A00089F761E0F60180810E942B0480E090E0E1
:1015B000DC01F70141915191619171917F01BA2F45
:1015C000A92F982F8827840F951FA61FB71FE017F4
:1015D000F10779F79C01AD0166277727CB01621BE4
:1015E000730B840B950B60960FB6F894DEBF0FBE9D
:1015F000CDBFDF91CF911F910F91FF90EF90DF90C2
:10160000CF90BF90AF9008956F3FB1F0E62FE29575
:10161000EF7044E0E49F90011124DC01ED91FC9116
:10162000E20FF31F6F70B8E06B9FC001112462815D
:101630007381860F971F089590E080E00895CF93FF
:10164000DF93EC0188819981DC01ED91FC9101909F
:10165000F081E02D19952A813B81820F931F9B8396
:101660008A83DF91CF910895982F80336CF08A336D
:1016700024F08F3524F08B3724F481E008958134F1
:101680001CF081E09B350CF080E00895CF93DF9350
:10169000EC0188819981DC01ED91FC910280F3815C
:1016A000E02D19952A813B81820F931F9B838A83AA
:1016B000DF91CF9108958F929F92AF92BF92CF9278
:1016C000DF92EF92FF920F931F93CF93DF93CDB7EB
:1016D000DEB766970FB6F894DEBF0FBECDBF6C01C4
:1016E0008E01095E1F4F78018AE0882E912CA12C73
:1016F000B12CCB01BA01A50194010E945E2D942F5B
:10170000852F605DF80162938F01A901692F782F01
:10171000411551056105710561F7A7014E1B5F0B6E
:10172000BF01C6010E94460B66960FB6F894DEBF55
:101730000FBECDBFDF91CF911F910F91FF90EF9022
:10174000DF90CF90BF90AF909F908F900895CF92F1
:10175000DF92EF92FF920F931F93CF93DF93EC01F1
:101760008A85811130C00F8118850E942008D80118
:1017700018966D937D938D939C931B97D801ED9153
:10178000FC910284F385E02DC801199597FF25C0CF
:101790000E942008F801C084D184E284F3846C198B
:1017A0007D098E099F09C480D580E680F7806C157D
:1017B0007D058E059F0510F38FEF9FEF97FD80E06D
:1017C000898781E08A878985DF91CF911F910F9169
:1017D000FF90EF90DF90CF9008959927EFCF1F9360
:1017E000CF93DF93EC01162F0E94A70B811306C045
:1017F0001A8681E0DF91CF911F91089580E0FACFA2
:101800000F931F93CF93DF938C01EB018991882372
:1018100069F0C8010E94A70B882379F0FE01319777
:10182000908198130DC0F8011286F0CF90E080E00F
:10183000DF91CF911F910F91089582E090E0F8CF52
:1018400083E090E0F5CFCF93DF93EC01CE010E94CF
:10185000A70B8B304CF489305CF4882359F081E07D
:101860008E8390E080E00BC08D3011F08032B9F7AC
:101870001A86ECCF8E81811105C081E090E0DF9166
:10188000CF91089582E090E0FACFDC01ED91FC91D8
:10189000309731F094819F7781E019F080E00895CE
:1018A00081E00895CF93DF93EC01029779F00E94D5
:1018B0002C08D0939F03C0939E030E94200870932E
:1018C000730360937203DF91CF91089510928005A6
:1018D000F0CFCF93DF93CBE4D5E0688579858A8517
:1018E0009B85681B790B8C859D85681B790B072E62
:1018F000000C880B990B0E940F2C288139814A819A
:101900005B810E946E2CDF91CF9108954F925F9280
:101910006F927F928F929F92AF92BF92CF92DF92FF
:10192000EF92FF920F931F93CF93DF93EB01DC01B4
:101930002C912B32D9F12D32D1F50196FF24F3945D
:10194000FC01208130ED320F3A3018F02E3209F0D0
:1019500042C18C0160E070E0CB01F801219130EDD3
:10196000832E820E39E0381520F16A3949E974076F
:10197000840749E1940738F5AAE0B0E09B01AC0187
:101980000E944B2D912CB12CA12C240135014094A7
:10199000509460947094461657066806790698F03D
:1019A000680D791D8A1D9B1D8F01D7CF0196F12CE3
:1019B000C7CF211108C0FF20E9F161307105810511
:1019C00050E89507A0F0E12CBAE08B2E912CA12CC9
:1019D000B12C6115710530E883079105B0F1A501BF
:1019E00094010E945E2DCA01B901E394F2CF2C81CB
:1019F00020782A602C839B01AC0188279927DC0181
:101A0000821B930BA40BB50B88839983AA83BB839A
:101A10008F2DDF91CF911F910F91FF90EF90DF906D
:101A2000CF90BF90AF909F908F907F906F905F907E
:101A30004F9008952C81207828602C8368837983C7
:101A40008A839B83FF24F394E3CFF801D8012D917F
:101A50008D0130ED320F3A3010F4E394F6CF2E3290
:101A600001F58F010F5F1F4FF8010F5F1F4F20819E
:101A7000A0EDDA2ED20EB9E0BD1598F06C3CECEC7E
:101A80007E07ECE08E07910578F7AAE0B0E09B01B5
:101A9000AC010E944B2D6D0D711D811D911DEA94AD
:101AA000E3CF20812F7D10E000E0253409F05BC0FA
:101AB00021812D32D1F53296CC24C394DF0110E080
:101AC00000E02E2D0E2C000C330B5AE0B52EFD013C
:101AD000DD9040ED4D0D4A3008F040C0B09EA001B1
:101AE000B19E500D11240D2DDD0C110B0053110969
:101AF000040F151FA801420F531F473251053CF335
:101B00008C81CC20C9F040E050E060E070E8F1103A
:101B100003C040E050E0BA0180788C608C83488339
:101B200059836A837B83FC2C73CF2B3219F0319657
:101B3000C12CC4CF3296FCCF40E050E060E87FEF8C
:101B4000F11004C040E050E060E87FE780788C60EE
:101B50008C83488359836A837B8374CFCC2019F0AC
:101B60001195019511092081211135C00E0D111D0E
:101B7000E7FC1A950E940D2C34E2C32E32E0D32EDE
:101B8000101611063CF01195019511094CE0C42E78
:101B900042E0D42EE12C0115110591F000FF0CC09C
:101BA00024E0E29EF0011124EC0DFD1D25913591FC
:101BB000459154910E946E2C15950795E394EBCFB7
:101BC000F11090582C8120782C602C8368837983C5
:101BD0008A839B8337CFF12C1BCFCF93DF9300D029
:101BE0001F921F92CDB7DEB7FC0194819F7796308C
:101BF00091F030F4943020F560E070E0CB0111C03A
:101C00009A30B9F09C3051F19830B1F76081718110
:101C10008281938104C0608170E090E080E00E9446
:101C20000D2C0F900F900F900F900F90DF91CF9190
:101C3000089560817181828193810E940F2CF1CF80
:101C4000808191811D82BE016F5F7F4F04960E944B
:101C5000860CCE0101960E94ED0DE3CF608171816B
:101C600082819381DECFFF920F931F93CF93DF93F7
:101C7000FC01C381D481058116810180F281E02DB0
:101C80003097D9F0848186FF18C065966081CE01B7
:101C90000E94040B009789F0FC01F58001151105E5
:101CA000A9F06F2DCE010E94040B009711F0FC01EA
:101CB000F58001501109009789F760E070E0CB01D1
:101CC000DF91CF911F910F91FF900895DF91CF91F8
:101CD0001F910F91FF900C94ED0DCF92DF92EF9238
:101CE000FF92CF93DF9300D01F921F92CDB7DEB744
:101CF000FC0184818F778630D9F040F48430A9F1DB
:101D0000853009F43FC090E080E014C08A30F1F0E3
:101D10008C3009F43FC08830B1F780819181A28175
:101D2000B381811520E89207A105B10560F702C0D3
:101D3000808190E00F900F900F900F900F90DF91A7
:101D4000CF91FF90EF90DF90CF90089580819181A7
:101D5000A281B381AC01BD0150586F4F7F4F411537
:101D600051056140710578F6E5CF808191811D8232
:101D7000BE016F5F7F4F0E94860CCE0101960E94CC
:101D80006D0ED8CF808191811D82BE016F5F7F4F24
:101D90000496F1CFC080D180E280F38020E030E073
:101DA00040E057ECC701B6010E943B2F87FDABCF47
:101DB00020E03EEF4FEF56E4C701B6010E94082C29
:101DC00018160CF4A0CFC701B6010E94AD2ECB01AE
:101DD000B1CFCF92DF92EF92FF92CF93DF9300D0FB
:101DE0001F921F92CDB7DEB7FC0184818F778630BA
:101DF000C1F038F4843019F1853071F190E080E061
:101E000012C08A3021F08C3079F18830B9F78081A6
:101E10009181A281B381009721E0A207B10518F05A
:101E2000EDCF808190E00F900F900F900F900F906A
:101E3000DF91CF91FF90EF90DF90CF900895808158
:101E400091811D82BE016F5F7F4F0E94860CCE0183
:101E500001960E94E90EE7CF808191811D82BE012B
:101E60006F5F7F4F0496F1CFC080D180E280F38016
:101E700020E030E0A901C701B6010E943B2F87FD99
:101E8000BDCF20E03FEF4FE757E4C701B6010E9406
:101E9000082C18160CF4B2CFC701B6010E94B42E5C
:101EA000CB01C1CFFC019289915084E0989F9001B1
:101EB0001124A089B189A20FB31F1296ED91FC9154
:101EC00013973097E9F011962C9111978C91281760
:101ED000B8F481E0820F11968C9388E0289FA001CE
:101EE0001124E40FF51F309759F014828FEF85838A
:101EF00017821682BF01892F8295807F820F0895F5
:101F000060E070E08FEF0895DF92EF92FF920F9301
:101F10001F93CF93DF93EC017B01D12C68897989E2
:101F20008A89D816E0F484E0D89E80011124060F37
:101F3000171FD80112966D917C916115710541F0C2
:101F4000D701ED91FC910280F381E02DC701199535
:101F5000F8011382128210821182D394DFCF1A8A81
:101F60008FEF8C8BC617D70761F0D701ED91FC91ED
:101F70000280F381E02DC7011995D98BC88B84E0CD
:101F80008B8BDF91CF911F910F91FF90EF90DF909E
:101F90000895DB01ED91FC9111970280F381E02D12
:101FA000BC01CD0119940F931F93CF93DF93EC01E4
:101FB000088119818B819C81009749F0FC01208167
:101FC00031813C832B83B8010E94C90FF3CF688114
:101FD0007981CE010596DF91CF911F910F910C94DD
:101FE000840FCF93DF93EC01E881F981B0E0A0E0AA
:101FF0003097F9F09F012C5F3F4F62177307A1F4F0
:10200000928191509283911114C080819181109797
:1020100041F08D939C93BA01CF01DF91CF910C9445
:10202000C90F99838883F7CFDF010190F081E02DFC
:10203000DFCFDF91CF9108958F929F92AF92BF92A1
:10204000CF92DF92EF92FF920F931F93CF93DF9384
:102050008C01EB01FC01848180FF0AC04881598119
:10206000608171816C5F7F4FCE0103960E94F10FFA
:10207000F8018481807681F10115110569F1D08024
:102080005E01F5E1AF0EB11C4E0183E0880E911C9C
:10209000EFEFDE16F1F06D2DC5010E94040B7C01FF
:1020A000FC01C580848187FF07C048815981668112
:1020B0007781C4010E94F10FBE01C7010E941C106C
:1020C000F701848180788483898D8583D98EDC2C87
:1020D000DFCFF801D082D182DF91CF911F910F9194
:1020E000FF90EF90DF90CF90BF90AF909F908F9038
:1020F0000895EF92FF920F931F93CF93DF937C018C
:102100008B01EA016F3F710509F0B0F4E881F981B4
:102110000480F581E02DAB014B5F5F4FBC01CE0128
:102120001995009749F0FC010383DF91CF911F912E
:102130000F91FF90EF900895E881F9810280F3817B
:10214000E02DB701CE01199590E080E0EECFFF922F
:102150000F931F93CF93DF93EC01F62E8A819B811F
:102160000097C9F06C817D81FC0123812617170639
:1021700091F408811981F80140815181660F771F20
:102180006F5F7F4F0E947910009719F421E0F801EA
:1021900022839B838A838A819B81009759F02C81BB
:1021A0003D81A9014F5F5F4F5D834C83820F931F79
:1021B000FC01F482DF91CF911F910F91FF90089560
:1021C0009F92AF92BF92CF92DF92EF92FF920F93C6
:1021D0001F93CF93DF9300D01F921F92CDB7DEB72E
:1021E0008C010E94A70BD82EF8011286F12CE12C4D
:1021F00060EFC62EC8010E94A70BF8011286D81600
:1022000009F4B3C0811113C082E090E00F900F90E9
:102210000F900F900F90DF91CF911F910F91FF9032
:10222000EF90DF90CF90BF90AF909F9008958C3546
:1022300009F099C0C8010E94A70B882329F3EBE499
:10224000F2E0853709F083C0F801128654E0952E3C
:10225000B12CA12CC8010E94A70B8823A9F28134BC
:1022600034F48053803130F083E090E0CFCF8F7D25
:102270008753F8CF44E0AA0CBB1C4A95E1F7A82A83
:10228000F80112869A949110E5CFC501985D8115E9
:10229000944020F47501F3E0FF22ACCFC5019C5DB2
:1022A00081159440A8F483E0B822B701762F662701
:1022B000770F770F6A297B2990E080E001966038DC
:1022C00071058105910540F4C8010E94A71092CFC5
:1022D000B50190E080E0F3CF1982262F2F7320689C
:1022E0002A8326E096958795779567952A95D1F765
:1022F0006032710580F4606C6B835E01E4E0AE0EC9
:10230000B11CF50162915F01662309F473CFC80126
:102310000E94A710F6CF262F2F7320682B8386E00C
:10232000769567958A95E1F76031710538F4606EAE
:102330006C835E01F5E0AF0EB11CE3CF60686C8387
:10234000CD825E0126E0A20EB11CDBCF32969081D9
:10235000992309F489CF8913F9CF8181882309F45E
:1023600083CFF8011286682FAFCF82819381892BAA
:1023700019F484E090E04ACF90E080E047CFAF923C
:10238000BF92CF92DF92EF92FF920F931F93CF9362
:10239000DF93DC011296ED91FC91139714968D91C9
:1023A0009C911597E80FF91F14820D911C911197BC
:1023B00014966D917C91159712968D919C9113971F
:1023C0009C012C5F3F4FE801EB81FC817B01E20E19
:1023D000F31E3097B9F043814617170679F4590177
:1023E000AF014C5F5F4FEA14FB0499F1E501C9901E
:1023F0005E01EA01D990AE01CD14A9F30190F081FC
:10240000E02DE7CFED01F801408151810E94791064
:10241000FC01892B21F481E0D80112968C93A881CC
:10242000B98113968D919C91149791838083149612
:10243000FC93EE9313971B821A82CF01DF91CF9109
:102440001F910F91FF90EF90DF90CF90BF90AF90D2
:10245000089582818F5F8283F0CF2F923F924F92B7
:102460005F926F927F928F929F92AF92BF92CF9224
:10247000DF92EF92FF920F931F93CF93DF9300D0E1
:1024800000D0CDB7DEB77C017C836B830B969E8337
:102490008D83D70116969C91169717968C91179756
:1024A00099838A836D907C9011976114710409F46B
:1024B0004CC119964C9150E0F301848195818417A9
:1024C0009507A8F0808191E0909341048093630484
:1024D000109242041092640420E0BE016F5F7F4FAF
:1024E000C3010E943107D12CC12C81111AC080E098
:1024F00026960FB6F894DEBF0FBECDBFDF91CF9109
:102500001F910F91FF90EF90DF90CF90BF90AF9011
:102510009F908F907F906F905F904F903F902F9003
:102520000895D30114968D919C9102E010E00C194E
:102530001D098017910708F48C01F30150800E9457
:102540001C064B015C0180913B04811176C0B02ECA
:10255000F0E2F01710F440E2B42E81E080933B04E7
:1025600021E082E090E0801B910BC816D90608F4A8
:1025700020E020933A049FEF90933904109238049E
:102580008FEF8B0D80933704A1E0A0931604809108
:102590001604550C582A5092160480911504813067
:1025A00009F093C0109215040E941C061B012C0117
:1025B000809116048093BB0080913D0490913E046D
:1025C000A0913F04B0914004892B8A2B8B2BA1F062
:1025D0000E941C0620913D0430913E0440913F042E
:1025E0005091400462197309840995092617370729
:1025F0004807590708F442C08091BC0083FDD8CF3A
:10260000B5ECB093BC000E941C061B012C0180910C
:102610003B04813009F45DC0809138048B1510F4BF
:10262000B0903804A7E1B4E0EFEEF3E080E08B1562
:1026300051F19D9191938F5FFACF80913D049091DC
:102640003E04A0913F04B0914004892B8A2B8B2B30
:1026500009F479CF0E941C0620913D0430913E047C
:1026600040913F0450914004681979098A099B09F7
:10267000261737074807590708F065CF80913C04B3
:102680000E949204B12C10921404B0921304B0165C
:10269000110609F02CCF8D809E808C0C9D1C54015E
:1026A000C5018819990980179107A8F5D3011196DA
:1026B0008D919C91DC01ED91FC910284F385E02DDC
:1026C0001995F50181935F01EBCFE5EEE093BC0036
:1026D0009ACF80913D0490913E04A0913F04B09127
:1026E0004004892B8A2B8B2B09F491CF0E941C0666
:1026F00020913D0430913E0440913F0450914004AC
:10270000621973098409950926173707480759077D
:1027100008F07DCFB3CFC00ED11EF2E0CF16D104AA
:1027200008F4FFCEF7018285811142C0848590E0D4
:10273000982F8827AB81BC8111969C938E9323851B
:10274000822B8D939C9381E0D3CE1296ED91FC91D8
:102750001397309709F4CBCE14962D913C91159791
:1027600019964C9150E02330310591F481608983B2
:102770009A834F5F5F4F02E010E02D813E81BE01E2
:102780006F5F7F4FCF010E94A5058111CBCFB0CEE7
:102790002115310519F490689983EDCF2230310568
:1027A00011F49F77F9CF2130310529F7906CF4CFE0
:1027B000838590E0982F8827AB81BC8111969C93EC
:1027C0008E932485BDCFAB01BC01705882ED95E09E
:1027D0000C947009FC0101900020E9F73197AF01DA
:1027E000481B590BBC0181E794E00C946A08DF9206
:1027F000EF92FF920F931F93CF93DF9361157105B3
:1028000061F460E070E08FEF9D2DDF91CF911F911B
:102810000F91FF90EF90DF9008958A01EB01DC01AA
:10282000FC900B5E1F4F6F2DC8010E94040B009798
:1028300041F3FC01E580009721F30680F781E02D4C
:10284000DE010D900020E9F79D01215031092C1B7C
:102850003D0BB0E0A0E0309739F0DF010D90002093
:10286000E9F71197AE1BBF0B2A173B0751F4DE01A6
:102870002C0F3D1FA217B30769F05D9141915417CA
:10288000C9F36E2DC8010E94040B009709F4B9CF5B
:10289000FE2CCFCFBC018F2DDE2CB6CFFC014081AA
:1028A000518162817381CA014A9641F0FA01268DF5
:1028B00025FF04C00E94F713CB01089590E080E04B
:1028C00008950F931F93CF93DF93FC01C181D281B1
:1028D0000581168101960E944E14009781F0FC013B
:1028E000248125FF0CC0AE01B8010E94F7139B01A3
:1028F000B901CE01DF91CF911F910F91089530E082
:1029000020E0F6CFFB0101900020E9F73197AF01FD
:10291000461B570B0C94460B1F93CF93DF93EBE4AE
:10292000F2E01281112379F0329621816213F9CFFE
:10293000EC016CE50E941F0B612FCE01DF91CF915E
:102940001F910C941F0B6111F9CF6CE572E0DF91C0
:10295000CF911F910C948214CF92DF92EF92FF924D
:102960000F931F93CF93DF938C016B017A0162E287
:102970000E941F0BE601EC0CFD1CCE15DF0529F0B3
:102980006991C8010E948C14F8CF62E2C801DF91FE
:10299000CF911F910F91FF90EF90DF90CF900C940B
:1029A0001F0B2F923F924F925F926F927F928F9266
:1029B0009F92AF92BF92CF92DF92EF92FF920F93CE
:1029C0001F93CF93DF93CDB7DEB76C970FB6F89414
:1029D000DEBF0FBECDBF8C011B01DC0114968C91B4
:1029E00014978F77883009F4B2C2E8F4843009F480
:1029F00069C248F4833009F49FC263E672E0C10102
:102A00000E9482141CC2853009F470C28630A9F776
:102A10008C9168E672E0811102C06DE672E0C1013E
:102A20000E9482146DC28C30F1F1C8F48A3029F70B
:102A3000CD90DD90ED90FC90B701A601F7FE0BC0A4
:102A40006DE2C1010E941F0B44275527BA014C19A2
:102A50005D096E097F09C1010E945B0B51C2803282
:102A600009F4F7C1803449F66BE5C1010E941F0BE0
:102A7000F80110811F3F09F4E7C1D10114968D912F
:102A80009C91612F45960E94040B8C01B1010E941C
:102A9000D114F80115811F3F09F4D6C16CE2C101C0
:102AA0000E941F0BE7CFF801C080D180E280F38045
:102AB000A7019601C701B6010E94082C81119DCF84
:102AC00020E030E0A901C701B6010E94082C88234C
:102AD00079F0A7019601C701B6010E94B82D9B01AC
:102AE000AC01C701B6010E94082C882309F485CFE8
:102AF00020E030E0A901C701B6010E94082C87FF41
:102B000008C06DE2C1010E941F0BF7FAF094F7F8BC
:102B1000F09420E836E948E15BE4C701B6010E9481
:102B20003B2F87FD88C074E1A72EB12C00E210E096
:102B3000188E1F8AF501EC5DFD4F25913591459169
:102B40005491C701B6010E943B2F87FD13C0F501C8
:102B5000E45FFD4F2591359145915491C701B60130
:102B60000E946E2C6B017C012F89388D200F311F44
:102B7000388F2F8B1595079534E0A31AB1088CEF89
:102B8000A8168FEFB806B1F655245A9420E030E02D
:102B9000A901C701B6010E943B2F18160CF052C0C4
:102BA0002CEA35EC47E257E3C701B6010E94082C36
:102BB00018160CF447C0A52DB4E0AB02C0011124D7
:102BC000B12CA12CFC01E45FFD4F3F019C012C5D69
:102BD0003D4F49013FEF531609F434C0F301EA0DAC
:102BE000FB1D659175918591949120E030E040E264
:102BF00051E40E946E2CA70196010E943B2F1816EB
:102C00009CF4F401EA0DFB1D2591359145915491F9
:102C1000C701B6010E946E2C6B017C018F89988DD3
:102C2000801B910B988F8F8B159507955A9494E084
:102C3000A91AB108CFCF00E210E055E0552E188E4A
:102C40001F8AA4CFC701B6010E94B42E4B015C01BC
:102C50002B013C0106E080E492E4AFE0B0E0898F14
:102C60009A8FAB8FBC8F102F01509AE049165104F8
:102C700061047104C8F0698D7A8D8B8D9C8D2AE07A
:102C800030E040E050E00E945E2D298F3A8F4B8F5C
:102C90005C8FC301B2012AE030E040E050E00E94C6
:102CA0005E2D29013A01DFCFC501B4010E940D2C30
:102CB0009B01AC01C701B6010E94B72D6B017C01DD
:102CC000698D7A8D8B8D9C8D0E940D2C9B01AC01A2
:102CD000C701B6010E946E2C2B013C010E94B42E4C
:102CE0006B017C010E940D2C9B01AC01C301B20160
:102CF0000E94B72D9B01AC010E94B82D0E94B42EFA
:102D0000C60ED71EE81EF91E898D9A8DAB8DBC8D1F
:102D1000C816D906EA06FB06D8F09FEF891A990A69
:102D2000A90AB90AAF89B88DAB2B39F1BAE08B1675
:102D30009104A104B10408F1EF89F88D3196F88F60
:102D4000EF8BC12CD12C7601812C912C54018394D2
:102D50002AE0422E512C612C712CC701B601A3012F
:102D600092010E945E2D672B682B692B51F411167E
:102D700044F469017A011150F0CFC12CD12C7601B5
:102D8000E7CFB501A401C1010E945B0B112371F1D2
:102D90004E01F1E18F0E911C012F54019AE0492E52
:102DA000512C612C712C015068F0C701B601A301B0
:102DB00092010E945E2D605DD4016E934D01690108
:102DC0007A01F1CF812F90E0BC0160957095F501FB
:102DD000E81BF90B31978EE2808344275527461B69
:102DE000570B6A0D7B1DC1010E94460BEF89F88DC0
:102DF000EF2B29F165E6C1010E941F0B0F89188D89
:102E000017FF07C06DE2C1010E941F0B11950195CC
:102E10001109FE0177969F018AE0E82EF12CC80186
:102E2000B7010E949B2D805D82938B01672BB9F7C0
:102E3000A9014E1B5F0BBF01C1010E94460BD101CE
:102E400012968D919C915FC06DE5C1010E941F0B90
:102E5000F6CF6BE7C1010E941F0BF80110811F3FE5
:102E600079F1D10114968D919C91612F45960E9424
:102E7000040B8C01FC01C680D78062E2C1010E9474
:102E80001F0B7601D7016D917D01662321F0C101F1
:102E90000E948C14F7CF62E2C1010E941F0B6AE30B
:102EA000C1010E941F0BB101C8010E94D114F80199
:102EB00015811F3F29F06CE2C1010E941F0BCFCF8B
:102EC0006DE7C3CFF8016081718150E040E061158A
:102ED000710541F0FB0101900020E9F73197AF0146
:102EE000461B570BC1010E94AC14A9CFED91FC9178
:102EF000438150E0BF016C5F7F4FC1010E94AC1461
:102F0000F101828193816C960FB6F894DEBF0FBEFB
:102F1000CDBFDF91CF911F910F91FF90EF90DF9088
:102F2000CF90BF90AF909F908F907F906F905F9069
:102F30004F903F902F900895ED91FC91438150E088
:102F4000BF016C5F7F4FC1010E94460BD9CF4D91ED
:102F50005D916D917C917FCD85ED8093BC008091DA
:102F60003D0490913E04A0913F04B0914004079627
:102F7000A11DB11D23E0B695A795979587952A9534
:102F8000D1F72091BC0024FD03C010923B040895AA
:102F900040913D0450913E0460913F047091400483
:102FA000452B462B472B69F30097A105B10541F04E
:102FB0002AE22A95F1F700C00197A109B109E1CFF2
:102FC00080913C040C949204CB010C94402FCB01D3
:102FD0000C94DC2F8F929F92AF92BF92CF92DF9290
:102FE000EF92FF920F931F93CF93DF936C018B01AE
:102FF000DB015996FC90BFEFFB1621F16F2DC80144
:1030000045960E94040BEC018D81F801818F209779
:1030100009F496C01C828FEF8D831F821E82D60119
:1030200011966C916F3F09F49FC0C80145960E94AC
:10303000040BFC01F582D6011196FC92BE018F2D86
:103040009D8084C05B01F5E0AF0EB11CDB01ED900B
:10305000FC90119757968C91882349F0C5010E94E6
:10306000520FC62FD72F209711F0F82ED8CFF80186
:10307000C789908DC91325C0C03109F461C0CC0F38
:1030800065897689D701ED91FC91B4E0CB9FA001D1
:103090001124A616B70609F04BC00190F081E02D6F
:1030A000BA01C7011995009709F44AC020E1F5015A
:1030B000DC0101900D922A95E1F7F801968B858B42
:1030C000C08FD8015596CD91DC91569757968C912B
:1030D000579721E0280F57962C93B4E08B9FC0019F
:1030E0001124C80FD91F90E1892E203111F48FE0EF
:1030F000882EE8E08E9EB0011124D701ED91FC915D
:103100000190F081E02DC70119959B838A83892B5B
:1031100009F4812C88821982CD2B91F0C5010E947F
:10312000520FC62FD72FF82E209709F078CF08C05E
:103130000480F581E02DC7011995009709F0BDCFF6
:1031400081E0F801828360E070E08FEF992DDF91DC
:10315000CF911F910F91FF90EF90DF90CF90BF9094
:10316000AF909F908F900895F601F082F18266CF24
:103170008F929F92AF92BF92CF92DF92EF92FF9287
:103180000F931F93CF93DF93EC018B01D42E0E94FA
:10319000230C7C01892B09F047C0CE010E94A70BAC
:1031A000863609F452C124F5873229F08B3561F156
:1031B000823209F053C11D821C828A819B81892B36
:1031C00031F4888199810E9469029B838A83CE01B0
:1031D0000E94E0107C01892B39F5CE010E94BF11BD
:1031E000F8012481207825602483918380831CC08A
:1031F000843709F412C18B3709F45BC08E3609F0AD
:103200002DC163E672E012C1F80184818078806488
:1032100084830115110519F08FEF80838183D1100C
:1032200011C025E0E22EF12CC701DF91CF911F9153
:103230000F91FF90EF90DF90CF90BF90AF909F9055
:103240008F9008951A86CE010E94230C009709F0F2
:1032500085C06DE5CE010E94EF0B8111E5CFDA94B8
:103260006B857C85C8010E94EA176115710521F400
:1032700084E0E82EF12CD8CF4D2DCE010E94B81855
:10328000009709F06BC0CE010E94230C009709F053
:1032900065C06DE5CE010E94EF0B8111C5CF6CE2D8
:1032A000CE010E94EF0B8111DBCF93E0E92EF12CD0
:1032B000BBCFF80184818078806284830115110579
:1032C00019F08FEF80838183DD2009F4AACF1A865D
:1032D000CE010E94230C009709F040C06DE7CE019B
:1032E0000E94EF0B8111A0CFBB24BA94BD0C1D82AC
:1032F0001C828A819B81892B31F4888199810E946B
:1033000069029B838A83CE010E94A70B8732E1F07A
:103310008232D1F0CE010E94A70BD82E0E94340B2E
:10332000882319F21A866D2DCE010E94A710CE01B6
:103330000E94A70BD82E0E94340B8111F3CF8A81F3
:103340009B81892B31F494CFCE010E94E01000972D
:1033500029F4CE010E94230C009711F07C0164CF68
:103360006AE3CE010E94EF0B882309F49ECFEA8125
:10337000FB818C819D81E80FF91F14824B855C8550
:103380006A817B816C5F7F4FC8010E94F713CB017C
:103390006B01672BC9F5CE010E94BF114C016B85F3
:1033A0007C85C8010E94EA176B016115710509F45B
:1033B0005FCFFB01848180688483F4E08F0E911CD1
:1033C000F601978286824B2DB601CE010E94B81875
:1033D000009721F6CE010E94230C009709F0BECF82
:1033E0006DE7CE010E94EF0B81111ECF6CE2CE0182
:1033F0000E94EF0B882309F458CFCE010E94230CC2
:10340000009709F474CFAACF6B857C850E941C10AD
:10341000F601848180788483D6CFF8018481807816
:103420008660848381E0808368E672E0CE01DF916C
:10343000CF911F910F91FF90EF90DF90CF90BF90B1
:10344000AF909F908F900C94000CF801848180784D
:103450008660848310826DE672E0E8CFCE010E9420
:10346000A70B5E01FDE0AF0EB11CD12C9A2CCB2C2A
:10347000803374F08A3374F49FE3D91699F01A8676
:10348000D394F50181935F01CE010E94A70BF0CF89
:103490008B3291F393ED980F923070F3982F9F7DBC
:1034A000953451F3CD0DD11D1D86B801892D9C2D6C
:1034B0000E94860C8111B8CEF8CE8F929F92AF9267
:1034C000BF92CF92DF92EF92FF920F931F93CF9311
:1034D000DF93CDB7DEB7CE57D1090FB6F894DEBF74
:1034E0000FBECDBF8E01025B1F4F81E092E0F8015D
:1034F00091838083128214821382C8010596968B71
:10350000858B178A24E0208F2FEF218F168EED9662
:103510001FAE1EAEED97EF961FAE1EAEEF9761E0A9
:1035200072E00E94840FF8011282E080F180F801BD
:1035300083819481009751F0FC0120813181F80151
:1035400034832383B7010E94C90FF1CF168E1A83EB
:1035500009831C821B821E821D821F8281E794E0E8
:10356000998788871B861D870C874AE0B801665EAD
:103570007F4FCE0101960E94B8187C01892B51F42F
:103580008A85882339F0F801868D83FF03C043E0E4
:10359000E42EF12C8B819C81009731F0E981FA8136
:1035A000608171810E94C90FE114F10451F183E738
:1035B00092E00E94EA13F701EE0FFF1FE55EFD4F58
:1035C00080819181009711F00E94EA138AE892E0CD
:1035D0000E94EA13C8010E94D30FC258DF4F0FB6F2
:1035E000F894DEBF0FBECDBFDF91CF911F910F9139
:1035F000FF90EF90DF90CF90BF90AF909F908F9013
:1036000008951A8309838DE892E09C838B83CE0111
:1036100001960E944E14ED969FAF8EAFED97EF96F8
:103620001FAF0EAFEF97CE0185589F4F0E94450CFC
:1036300081115EC010928005EF968CAD9DADAEAD50
:10364000BFADEF97E9968CAF9DAFAEAFBFAFE99737
:1036500082E090E0EB969FAF8EAFEB97CE018C5857
:103660009F4F0E94330E6B017C01EF968CAD9DAD98
:10367000AEADBFADEF97E2968CAF9DAFAEAFBFAF33
:10368000E29781E090E0E4969FAF8EAFE497CE01A1
:1036900083599F4F0E94330E4B015C01EF968CAD16
:1036A0009DADAEADBFADEF978A839B83AC83BD83E9
:1036B0001F821E82CE0101960E94330E60936A051E
:1036C00070936B0580936C0590936D0580926E05E9
:1036D00090926F05A0927005B0927105C09272052C
:1036E000D0927305E0927405F09275050E942C0843
:1036F0001A83098326E9E22E22E0F22EFC82EB8275
:10370000CE0101960E944E14ED969FAF8EAFED97BD
:10371000CE0185589F4F0E94450C811164C01B83C8
:103720000A83FD82EC828EE992E09F838E83CE0134
:1037300001960E946114EF966CAF7DAF8EAF9FAF84
:10374000EF97CE0185589F4F0E94450C811142CFC3
:10375000ED968EAD9FADED97009709F470C00E9475
:10376000E90E90937503809374031B830A8386E9A3
:1037700092E09D838C8388EA92E09F838E83CE01C2
:1037800001960E946114EF966CAF7DAF8EAF9FAF34
:10379000EF97CE0185589F4F0E94450C81111ACF9B
:1037A00096E7C92E93E0D92EF12CE12CEF968CAD43
:1037B0009DADAEADBFADEF978A839B83AC83BD83D8
:1037C000FF82EE82CE0101960E94330EF6016193D4
:1037D0007193819391936F01FFEFEF1AFF0A8AE0D3
:1037E000E816F10419F71A8309838FEAE82E82E0BC
:1037F000F82EFC82EB82CE0101960E944E14ED96CB
:103800009FAF8EAFED97EF961FAF0EAFEF97CE0144
:1038100085589F4F0E94450C8111DCCE1A83098385
:10382000FC82EB82CE0101960E944E14009751F06B
:103830000E946D0E90939F0380939E03CBCE90E0E9
:1038400080E08FCF90E080E0F5CF0E94D708811113
:103850000E945D1A80E090E0892B49F080E090E0C2
:10386000892B29F00E94000081110E94000080E055
:1038700090E0892B49F080E090E0892B29F00E94AC
:10388000000081110E94000080E090E0892B49F047
:1038900080E090E0892B29F00E94000081110C94B7
:1038A00000000895EF92FF920F931F93CF93DF9341
:1038B000FC01C081D1817E01FAE1EF0EF11CE1141F
:1038C000F10429F1FC01028113810115110551F167
:1038D0008E8D982F9F7721F5807880628E8F8FEF65
:1038E0008A8F8B8FAE01B801C7010E94F713FB01CD
:1038F000309761F4BE01C7010E94EA17FB013097BF
:1039000029F084818F778483178306837F01B70131
:10391000CE01DF91CF911F910F91FF90EF9008950D
:1039200085FDE0CFF12CE12CF2CFCF92DF92EF9228
:10393000FF920F931F93CF93DF938C017B010E9423
:10394000521CDC01CB01EB01009781F0F701C08034
:10395000D180E280F380BD010E941C108C818078B0
:103960008C608C83C882D982EA82FB82D801ED9177
:10397000FC9180E0309719F0828191E08927DF91F6
:10398000CF911F910F91FF90EF90DF90CF9008950E
:10399000EF92FF920F931F93CF93DF938C017B01E4
:1039A0000E94521CDC01CB01EB01009791F0F70162
:1039B000E080F180BD010E941C108C8180788A60BB
:1039C0008C83C701FF0CAA0BBB0B88839983AA8346
:1039D000BB83D801ED91FC9180E0309719F0828192
:1039E00091E08927DF91CF911F910F91FF90EF9088
:1039F0000895CB01BA010C9465301F920F920FB657
:103A00000F9211240BB60F922F933F934F935F9316
:103A10006F937F938F939F93AF93BF93EF93FF9396
:103A20008091B900887F803609F44DC008F040C00D
:103A3000883209F4A9C028F5803109F49DC0C8F482
:103A4000882309F4FBC0883009F496C0FF91EF91F8
:103A5000BF91AF919F918F917F916F915F914F91A6
:103A60003F912F910F900BBE0F900FBE0F901F90A4
:103A70001895883109F488C0803241F78093390461
:103A800014C0803409F49DC040F48033B9F3883306
:103A9000E9F68093390485ECB0C0803509F485C01F
:103AA000883509F496C0883489F60E94AC17CECFC9
:103AB000883909F48CC038F5883729F050F48836F5
:103AC00011F0803719F683E080933B041092EE03E7
:103AD00057C0883809F47BC0803919F0803809F064
:103AE000B5CF8091EE03803208F071C0E091EE0313
:103AF00081E08E0F8093EE038091BB00F0E0E253F3
:103B0000FC4F80833DC0803B39F0E0F4803A09F4FB
:103B100079C0883A09F09ACF84E080933B041092F0
:103B2000CD031092CC03E0910F04F091100419958D
:103B30008091CC0381110FC081E08093CC0310925F
:103B4000AC0309C0803C09F4A6CF883C09F4A3CF9C
:103B5000883B09F07BCFE091CD0381E08E0F80930D
:103B6000CD03F0E0E455FC4F80818093BB00909141
:103B7000CD038091CC0329C0809116048093BB00B3
:103B800085EC8093BC0062CF90913804809137041B
:103B9000981758F5E091380481E08E0F809338042F
:103BA000F0E0E95EFB4F8081E9CFE091380481E0ED
:103BB0008E0F809338048091BB00F0E0E95EFB4FEC
:103BC000808390913804809137049817C8F285E873
:103BD000D8CFE091380481E08E0F80933804809133
:103BE000BB00F0E0E95EFB4F808380913A048111D5
:103BF0005CCF81E08093150484EA8093BC0010922E
:103C00003B0424CF85EC8093BC0010923B04809150
:103C1000EE03803230F4E091EE03F0E0E253FC4F2B
:103C200010826091EE0370E0E0911104F0911204B3
:103C30008EEC93E019951092EE0308CF10923904A0
:103C400034CF1F920F920FB60F9211242F933F93F0
:103C50008F939F93AF93BF938091A3039091A403FD
:103C6000A091A503B091A6033091A20323E0230FF6
:103C70002D3758F50196A11DB11D2093A203809305
:103C8000A3039093A403A093A503B093A6038091EC
:103C9000A7039091A803A091A903B091AA0301964C
:103CA000A11DB11D8093A7039093A803A093A9031E
:103CB000B093AA03BF91AF919F918F913F912F91A4
:103CC0000F900FBE0F901F90189526E8230F0296B5
:103CD000A11DB11DD2CF1F920F920FB60F921124CA
:103CE0000BB60F922F933F934F935F936F937F93F6
:103CF0008F939F93AF93BF93EF93FF9380916D0347
:103D000090916E03A0916F03B0917003892B8A2B61
:103D10008B2BD1F190916C038091000089278093C7
:103D2000000080916D0390916E03A0916F03B0919C
:103D30007003181619061A061B069CF480916D0371
:103D400090916E03A0916F03B09170030197A10948
:103D5000B10980936D0390936E03A0936F03B093AA
:103D60007003FF91EF91BF91AF919F918F917F91E0
:103D70006F915F914F913F912F910F900BBE0F90DC
:103D80000FBE0F901F90189580910002ECE3F2E0B7
:103D9000E4919FEF90930002E230E9F040F4EE23CB
:103DA00089F0E13091F060E00E942B04DACFE4303A
:103DB00049F110F1E530B9F7909173009D7F909330
:103DC0007300F1CF10926E00EECF90916F009D7F47
:103DD00090936F00E8CF909170009D7F909370005A
:103DE00091E09093B0009091B100987F946090938F
:103DF000B1001092B300D7CF909171009D7F909346
:103E00007100D1CF909172009D7F90937200CBCFC3
:103E10001F920F920FB60F9211240BB60F922F9391
:103E20003F934F935F936F937F938F939F93AF9342
:103E3000BF93EF93FF9381E794E00E94E108FF9125
:103E4000EF91BF91AF919F918F917F916F915F9112
:103E50004F913F912F910F900BBE0F900FBE0F907F
:103E60001F9018951F920F920FB60F9211240BB648
:103E70000F922F938F939F93EF93FF93E091810481
:103E8000F09182048081E0918704F091880482FDA2
:103E90001DC0908180918A048F5F8F7320918B0465
:103EA000821741F0E0918A04F0E0EF58FB4F958FC4
:103EB00080938A04FF91EF919F918F912F910F90A2
:103EC0000BBE0F900FBE0F901F9018958081F2CF00
:103ED0001F920F920FB60F9211240BB60F922F93D1
:103EE0003F934F935F936F937F938F939F93AF9382
:103EF000BF93CF93DF93EF93FF9380916B03C091B8
:103F00004A05D0E087FF23C01092850010928400FC
:103F100080916B038F5F80936B0380916B03082EFE
:103F2000000C990B8C179D0724F480916B038C3047
:103F300074F1809184009091850084349C4908F448
:103F400065C08091840090918500049661C0809145
:103F50006B03082E000C990B8C179D07CCF6309143
:103F60006B0325E03203F0011124E25FFA4F8081F8
:103F700086FFCECF30916B033203F0011124E25F54
:103F8000FA4F808160E08F730E942B04C1CF809133
:103F900084009091850030916B0325E03203F0019D
:103FA0001124E25FFA4F41815281840F951F909353
:103FB00089008093880030916B033203F001112453
:103FC000E25FFA4F808186FF0CC030916B033203B1
:103FD000F0011124E25FFA4F808161E08F730E944B
:103FE0002B04FF91EF91DF91CF91BF91AF919F9102
:103FF0008F917F916F915F914F913F912F910F9092
:104000000BBE0F900FBE0F901F90189580E49CE997
:1040100090938900809388008FEF80936B03E1CFAA
:104020000F931F93109268041092670488EE93E038
:10403000A0E0B0E08093690490936A04A0936B04BD
:10404000B0936C042BE232E0309366042093650455
:104050001092740410927304809375049093760404
:10406000A0937704B09378048DE392E09093720468
:104070008093710485EC90E090937E0480937D049E
:1040800084EC90E09093800480937F0480EC90E037
:10409000909382048093810481EC90E09093840457
:1040A0008093830482EC90E090938604809385044F
:1040B00086EC90E0909388048093870410928A04A1
:1040C00010928B0410928C0410928D048DEC9CEC59
:1040D000ACECBEE38093040690930506A09306061D
:1040E000B09307068DEC9CECACE4BEE3809308062D
:1040F00090930906A0930A06B0930B0643E353E39B
:1041000063E37FE340930C0650930D0660930E0625
:1041100070930F060DEC1CEC2CEC3DE300931006A5
:104120001093110620931206309313064093F40562
:104130005093F5056093F6057093F7058093F805A5
:104140009093F905A093FA05B093FB0540E050E089
:1041500060E87FE34093FC055093FD056093FE0506
:104160007093FF051092000610920106109202064D
:10417000109203064DEC5CEC6CE47DEB4093E4059F
:104180005093E5056093E6057093E7058093E80595
:104190009093E905A093EA05B093EB058DEC9CECB8
:1041A000ACE4BDE38093EC059093ED05A093EE05A0
:1041B000B093EF051092F0051092F1051092F20500
:1041C0001092F3058CE08093B60584E28093B705E6
:1041D00085E08093B80596E09093B9059EE19093B1
:1041E000BA059FE19093BB0592E29093BC0593E2E0
:1041F0009093BD0594E49093BE0595E49093BF051C
:104200001092C1051092C00590E49093C3051092DE
:10421000C8051092C9051092CA051092CB051092DC
:10422000CC051092CD051092CE051092CF0598E0E6
:10423000E9E0F2E0A8EDB5E001900D929A95E1F782
:1042400040E050E060EA70E44093E0055093E105FF
:104250006093E2057093E305E0914A05EC3008F0C5
:10426000D6C091E09E0F90934A05E093B5058E9FCE
:10427000F0011124E25FFA4F88EB9BE09283818387
:1042800088E68093A60510926A0510926B0510923D
:104290006C0510926D0510926E0510926F051092CC
:1042A00070051092710510927205109273051092AC
:1042B000740510927505109277051092760510928C
:1042C00079051092780510927B0510927A0510926C
:1042D0007C0510927D0510927E0510927F0510924C
:1042E00080051092810510928E0510928F05109214
:1042F00090051092910510929205109293051092DC
:1043000094051092950580E090E0A0EAB0E48093D7
:10431000960590939705A0939805B093990580E032
:1043200090E0A8ECB2E480939A0590939B05A0934B
:104330009C05B0939D0510929E0510929F051092CA
:10434000A0051092A1051092A2051092A30510924B
:10435000A4051092A505E0914A05EC3008F05BC079
:1043600081E08E0F80934A05E093690585E0E89F20
:10437000F0011124E25FFA4F88EB9BE09283818386
:1043800084EE9BECA6E1B0EC8093590590935A051E
:10439000A0935B05B0935C0584EE9BECA6E1B0E4D2
:1043A00080935D0590935E05A0935F05B0936005D3
:1043B00010926105109262051092630510926405D7
:1043C0008EE293EEADE4B8E380934B0590934C05F9
:1043D000A0934D05B0934E0580E090E0A0E0BFE3D0
:1043E00080934F0590935005A0935105B0935205CB
:1043F00010925405109253051092560510925505CF
:1044000010925805109257051F910F9108958FEF44
:104410008093B50535CF8FEF80936905B1CFCF93EA
:10442000DF93CDB7DEB7C954D1090FB6F894DEBF1C
:104430000FBECDBF789484B5826084BD84B58160A1
:1044400084BD85B5826085BD85B5816085BD80915F
:104450006E00816080936E001092810080918100D7
:1044600082608093810080918100816080938100CF
:10447000809180008160809380008091B100846091
:104480008093B1008091B00081608093B0008091F2
:10449000910082608093910080919100816080936F
:1044A0009100809190008160809390008091A100A4
:1044B00082608093A1008091A10081608093A1001F
:1044C0008091A00081608093A00080912101826092
:1044D000809321018091210181608093210180914D
:1044E000200181608093200180917A008460809314
:1044F0007A0080917A00826080937A0080917A00BD
:10450000816080937A0080917A00806880937A003D
:104510001092C100E0918104F091820482E08083D6
:10452000E0917D04F0917E041082E0917F04F0918F
:10453000800480E1808310928904E0918504F091E9
:10454000860486E08083E0918304F0918404808176
:1045500080618083E0918304F0918404808188608D
:104560008083E0918304F09184048081806880835B
:10457000E0918304F091840480818F7D808361E0E9
:104580008091B7050E94B30460E08091B7050E9456
:104590002B0460E08091B6050E94B3048091C005B1
:1045A0009091C105892BA9F486E090E00E94402FEC
:1045B000FC018091C305808385E694E0928381832A
:1045C000138280E290E095838483F093C105E093A9
:1045D000C005E090C005F090C1051092140410923F
:1045E000130410924204109264040E9474048CEE2E
:1045F00092E09093100480930F048DEE92E09093DC
:1046000012048093110411E0D70113961C93C70183
:104610000E94E707882309F45BC080E090E1A0E0F6
:10462000B0E08093C4059093C505A093C605B093F0
:10463000C7058AE090E0A0E0B0E08093C8059093C1
:10464000C905A093CA05B093CB0580E090E0A0E037
:10465000B0E48093CC059093CD05A093CE05B093A4
:10466000CF058091C0059091C1051FA618AA19AA6F
:104670001AAA99A388A31BA21AA219A785E090E001
:104680009FA38EA31AA702E008A740E050E160E0D4
:1046900070E0CE0180960E944F078091C0059091F6
:1046A000C105188A198A1A8A1B8A9A8389831C82EF
:1046B0001B821A8718861F821B8709874FE959E3D7
:1046C00060E070E0CE0101960E944F078093C20522
:1046D00038EBE32E35E0F32E06EB15E04AEBA42E83
:1046E00045E0B42E50EC452E52E0552E66E0662E85
:1046F00063E0762E7BECC72E77E0D72EEBE88E2E8C
:1047000099249394F7019281D7018D917D01F8014D
:10471000828F938F61E00E94B30461E0D8015B96C1
:104720008C910E94B304F70195818381D8015E9634
:104730008C935E975F969C9361E00E94B30460E067
:10474000F801878D0E94B30461E0D8015E968C91D8
:104750000E942B043FB6F89480917103811125C00B
:10476000F2018491F3019491E82FF0E0EE0FFF1F26
:10477000E35CFD4FA591B4918C91982321F461E005
:1047800085E30E942B0461E085E30E94B3048CB5AD
:1047900080618CBD8CB580648CBD61E084E30E9437
:1047A000B30461E083E30E94B304809171038F5FDF
:1047B000809371033FBEC6010197F1F760E0D80115
:1047C0005E968C910E942B0488E80E94970A83E0F1
:1047D0000E94970A61E0F801868D0E942B04C601B1
:1047E0000197F1F760E0D8015E968C910E942B044E
:1047F00088E90E94970A80E00E94970A80E00E9460
:10480000970A80E00E94970A80E00E94970A61E080
:10481000F801868D0E942B04C4010197F1F760E036
:10482000D8015E968C910E942B0480EE0E94970A1C
:1048300061E0F801868D0E942B040E5F1F4FA016C9
:10484000B10609F05FCF60E08DE30E94B30460E041
:1048500081E10E94B30460E08FE00E94B30460E055
:104860008EE00E94B30460E080E10E94B304809176
:1048700069058C3008F047C061E088E00E94B3040D
:104880008091690525E0829FF0011124E25FFA4FD3
:104890009081907C98609083138214822CE0622F28
:1048A0000E948F2D829FB001112430E020E095E01E
:1048B000AB01420F531F949FF001959FF00D1124FF
:1048C000E25FFA4F408146FD13C02F5F3F4F2C300F
:1048D000310571F781110CC01092800082E0809345
:1048E0008100109285001092840086BB80936F0037
:1048F000E091690535E0E39FF0011124E25FFA4F92
:104900008081806480830E9484028C01C09059055C
:10491000D0905A05E0905B05F0905C05A7019601E8
:1049200060915D0570915E0580915F0590916005D5
:104930000E94B72D4B015C01B801110F880B990B38
:104940000E940F2C9B01AC01C501B4010E946E2C8A
:1049500020E030EC4FE754E40E943B2EA701960183
:104960000E94B82D60936105709362058093630582
:104970009093640580E090E0A0E8BEE380936A0530
:1049800090936B05A0936C05B0936D058DEC9CEC3A
:10499000ACECBDE380936E0590936F05A09370051A
:1049A000B093710510927205109273051092740500
:1049B000109275058FE692E1A3E8BAE3809396051D
:1049C00090939705A0939805B093990588EC90E093
:1049D000A0E0B0E08093860590938705A0938805BA
:1049E000B09389058DEC9CECACE4BEE3809382052A
:1049F00090938305A0938405B093850589E69CE098
:104A0000909377058093760583EE93E190937905F3
:104A1000809378051E0186E0280E311C8E010F5F01
:104A20001F4F0E9420082091A0033091A103621B18
:104A3000730B81099109633371058105910508F4B0
:104A400057C3A1E0B2E0BA83A9831B821D821C82F6
:104A50003F8A2E8A188E84E0898F8FEF8A8F1F8E6F
:104A60000E9420084B015C0119A308A3E5EBF2E0CA
:104A7000FBA3EAA3CE0180960E94521CDC01CB016D
:104A80007B01672B81F0BD010E941C10D701149699
:104A90008C9114978078886014968C93F7018082AB
:104AA0009182A282B38280917C0590917D05A09134
:104AB0007E05B0917F0588A399A3AAA3BBA31CABD5
:104AC0000BAB2AEB32E03EAB2DABBE01605E7F4FFD
:104AD000CE01C3960E94951C6091530570915405B8
:104AE000072E000C880B990B0E940F2C20914B0570
:104AF00030914C0540914D0550914E050E946E2C11
:104B000020914F053091500540915105509152052B
:104B10000E94B82D68A379A38AA39BA31CAB0BABFF
:104B200081EC92E09EAB8DABBE01605E7F4FCE010B
:104B3000C3960E94951C6091530570915405809115
:104B4000550590915605681B790B072E000C880BB4
:104B5000990B0E940F2C20914B0530914C054091F0
:104B60004D0550914E050E946E2C68A379A38AA32F
:104B70009BA31CAB0BAB80EC92E09EAB8DABBE015C
:104B8000605E7F4FCE01C3960E94951C60915305D5
:104B9000709154058091550590915605681B790BCD
:104BA0008091570590915805681B790B072E000CD2
:104BB000880B990B0E940F2C20914B0530914C05CE
:104BC00040914D0550914E050E946E2C68A379A32B
:104BD0008AA39BA31CAB0BAB8FEB92E09EAB8DAB80
:104BE000BE01605E7F4FCE01C3960E94951C60910E
:104BF0005305709154058091550590915605681B99
:104C0000790B072E000C880B990B0E940F2C20911A
:104C10004B0530914C0540914D0550914E050E9439
:104C20006E2C9B01AC010E94B82D2BED3FE049E4B6
:104C300050E40E946E2C2DEC3CEC4CE45DE30E94B1
:104C40006E2C68A379A38AA39BA31CAB0BAB87EC48
:104C500092E09EAB8DABBE01605E7F4FCE01C396EE
:104C60000E94951C8091690535E0839FF001112415
:104C7000E25FFA4F948178E5C72E72E0D72EC91A09
:104C8000D10897FDD394CC0CDD1CCC0CDD1C0D2C75
:104C9000000CEE08FF089381B8E88B2E912C891A3E
:104CA000910897FD9394880C991C880C991C092CE9
:104CB000000CAA08BB0830E020E08F3F51F02181B2
:104CC000328150E040E05595479537952795295F0B
:104CD0003F4F032E000C440B550B281939094A0984
:104CE0005B09A4EBB0E00E944B2DA70196012819A7
:104CF00039094A095B090E942C2D3CAB2BAB19A347
:104D000008A38CEC92E09BA38AA3BE016D5C7F4F4D
:104D1000CE0180960E94C81C86ED95E00E949E0AF6
:104D20004B015C0119A308A386ED92E09BA38AA323
:104D3000CE0180960E94521CDC01CB017B01672BC7
:104D400081F0BD010E941C10D70114968C9114971C
:104D500080788A6014968C93F70180829182A28277
:104D6000B3820E9484029CAB8BAB19A308A38FED86
:104D700092E09BA38AA3BE016D5C7F4FCE0180961B
:104D80000E94C81CC0905905D0905A05E0905B0560
:104D9000F0905C05A701960160915D0570915E053C
:104DA00080915F05909160050E94B72D4B015C01D9
:104DB0006091650570916605072E000C880B990BB4
:104DC0000E940F2C9B01AC01C501B4010E946E2C06
:104DD00020E030EC4FE754E40E943B2EA7019601FF
:104DE0000E94B82D209161053091620540916305C4
:104DF000509164050E94B72D68A379A38AA39BA351
:104E00001CAB0BAB88EE92E09EAB8DABBE01605E3F
:104E10007F4FCE01C3960E94951C0E94E40168A3B7
:104E200079A38AA39BA31CAB0BAB87EE92E09EAB4E
:104E30008DABBE01605E7F4FCE01C3960E94951C74
:104E4000D090810519A308A384EF92E09BA38AA3C5
:104E5000CE0180960E94521CDC01CB017B01672BA6
:104E600069F0BD010E941C10D70114968C91149713
:104E70008078866014968C931497DC9260918A05F2
:104E800070918B0580918C0590918D050E940D2C61
:104E900068A379A38AA39BA31CAB0BAB8BEF92E017
:104EA0009EAB8DABBE01605E7F4FCE01C3960E946C
:104EB000951C80919E0390919F039CAB8BAB19A393
:104EC00008A38FEA92E09BA38AA3BE016D5C7F4F8B
:104ED000CE0180960E94C81C8091C0059091C105AA
:104EE0001FA618AA19AA1AAA99A388A31BA21AA2D4
:104EF000DD24D394D9A682E090E09FA38EA3DAA606
:104F000022E0C22EC8A6BE016D5C7F4FCE01809606
:104F10000E942D128093C205EBA8FCA833E0F69402
:104F2000E7943A95E1F7EE0CFF1CEE0CFF1C809124
:104F3000C0059091C1051FA618AA19AA1AAA99A37B
:104F400088A31BA21AA2D9A681E090E09FA38EA3FA
:104F5000DAA6C8A6BE016D5C7F4FCE0180960E9486
:104F60002D128093C2056BA97CA9072E000C880B1B
:104F7000990B0E940F2C2AE037ED43E25CE30E947C
:104F80006E2C20E030E04AE754E40E943B2E4B01B7
:104F90005C01B701FF0C880B990B0E940F2C2FE6C8
:104FA00032E143E85AE30E946E2C9B01AC01C5013B
:104FB000B4010E94B82D68A379A38AA39BA31CAB5C
:104FC0000BAB86E093E09EAB8DABBE01605E7F4F86
:104FD000CE01C3960E94951C8091C0059091C10599
:104FE00026961CAE1DAE1EAE1FAE26979CAB8BAB9D
:104FF0001EAA1DAADCAE85E090E09AAF89AFDDAEB7
:10500000CBAE4091C4055091C5056091C605709125
:10501000C705CE01C3960E944F078091C0059091AD
:10502000C1051FA618AA19AA1AAA99A388A31BA288
:105030001AA2D9A684E090E09FA38EA3DAA6C8A600
:10504000BE016A5B7F4FCE0180960E942D12809335
:10505000C20528966EAD7FAD2897072E000C880BF1
:10506000990B0E940F2C6B017C016091C805709117
:10507000C9058091CA059091CB050E940D2C9B011A
:10508000AC01C701B6010E943B2E20E030E04AE7A8
:1050900054E40E943B2E68A379A38AA39BA31CAB74
:1050A0000BAB8EE093E09EAB8DABBE01605E7F4F9D
:1050B000CE01C3960E94951C81E794E099A388A332
:1050C0001BA21AA21DA30CA3BE01605E7F4FCE01DE
:1050D0004B960E94D1148AE892E00E94EA13C8011C
:1050E0000E94D30F0E9420087093A1036093A00335
:1050F0008FE00E940204892B21F088E090E00E945A
:10510000520C81E10E940204892B21F087E090E09B
:105110000E94520CE0919E03F0919F033197E8307A
:10512000F105E0F48827E856F74D8F4F0C94AF2D2A
:10513000A028C528062919295A299B29B929AE2949
:105140000E94E4012AE037ED43EA5CE30E94082C68
:1051500087FF58C282E090E00E94520CE0919E03CB
:10516000F0919F03E930F10508F07EC18827E454EF
:10517000F74D8F4F0C94AF2D392B022BCF2A0D2BCF
:10518000C4292C2B242BBF29B42920E030E0A9010D
:105190006091E4057091E5058091E6059091E70541
:1051A0000E94082C87FFFBC120E030E0A90160913C
:1051B000EC057091ED058091EE059091EF050E9450
:1051C0003B2F18160CF0EBC120E030E0A9016091F4
:1051D000E8057091E9058091EA059091EB050E9440
:1051E0003B2F18160CF0DBC120E030E0A9016091E4
:1051F000F0057091F1058091F2059091F3050E9400
:10520000082C87FFCCC190E080E0A6CF0E94200848
:105210002091720330917303621B730B8109910912
:10522000693E73408105910508F4F7C184E090E080
:1052300093CF20E030E0A90160910406709105064B
:1052400080910606909107060E94082C87FF9CC05B
:1052500020E030E0A90160910C0670910D0680916C
:105260000E0690910F060E943B2F18160CF08CC072
:1052700020E030E0A9016091080670910906809154
:105280000A0690910B060E943B2F18160CF07CC06A
:1052900020E030E0A9016091100670911106809124
:1052A0001206909113060E94082C87FF6DC085E0BE
:1052B00090E052CF20E030E0A9016091F4057091B8
:1052C000F5058091F6059091F7050E94082C87FF5F
:1052D000C3C120E030E0A9016091FC057091FD059B
:1052E0008091FE059091FF050E943B2F18160CF04F
:1052F000B3C120E030E0A9016091F8057091F90593
:105300008091FA059091FB050E943B2F18160CF036
:10531000A3C120E030E0A901609100067091010670
:1053200080910206909103060E94082C87FF94C189
:1053300086E090E011CF0E94200820917203309106
:105340007303621B730B81099109693C7105810527
:10535000910508F479C181E090E0FECE8FE00E94D3
:105360000204892B09F44FCF4DEC5CEC6CE47FE335
:1053700044C181E10E940204892B09F444CF4DEC21
:105380005CEC6CE47FEB39C10E942008409174030F
:10539000509175039A012C593F4F2617370708F48F
:1053A000FAC0FB01E41BF50BBF0190E080E00E9416
:1053B0000D2C20E030E040E251E40E943B2E4B01F6
:1053C0005C010E94242E2B013C01C501B4010E9406
:1053D000E32E0E94B42E6B0190E080E00E940D2C21
:1053E0009B01AC01C501B4010E94B72D4B015C01CA
:1053F000CC0CDD1CCC0CDD1C96012C583C4F6901FB
:10540000A501940160E070E080E89FE30E94B72D61
:10541000D60112962D913D914D915C9115970E9468
:105420006E2C6B017C01C301B2010E94B42E660F89
:10543000771F660F771F6C587C4FFB0122813381E9
:1054400044815581C501B4010E946E2C9B01AC01C1
:10545000C701B6010E94B82D60937C0570937D054D
:1054600080937E0590937F050E94840220916505BC
:105470003091660530936805209367059093660523
:105480008093650586ED95E00E949E0A4091530544
:10549000509154052091550530915605DA01A21B13
:1054A000B30BB0935805A0935705509356054093FE
:1054B000550570935405609353050E942008C090D1
:1054C0008E05D0908F05E0909005F09091056C15B9
:1054D0007D058E059F0508F45BC0809180058823BB
:1054E00009F456C00E942008C0908605D090870518
:1054F000E0908805F0908905DC01CB018C0D9D1DA5
:10550000AE1DBF1D80938E0590938F05A0939005CF
:10551000B0939105C0907C05D0907D05E0907E050C
:10552000F0907F05E0917605F091770519959B0144
:10553000AC01C701B6010E94B72D6B017C019F77BA
:1055400020919605309197054091980550919905C5
:105550000E94082C87FF92C081E080938105109201
:105560008005E0917A05F0917B05309709F0199557
:1055700080918E0590918F05A0919005B091910535
:105580008093920590939305A0939405B09395050D
:105590000E94251C46CA60E070E0CB015DCF60919F
:1055A000530570915405072E000C880B990B0E942F
:1055B0000F2C20914B0530914C0540914D05509199
:1055C0004E050E946E2C20914F0530915005409160
:1055D0005105509152050E94B82D20E030E0A901FC
:1055E0000E94082C4DEC5CEC6CEC7DEB87FF04C05A
:1055F0004DEC5CEC6CEC7DE3705882ED95E00E9424
:10560000700932CF0E94E4012DEC3CEC4CE45EEBDF
:105610000E946E2CAB01BC01EFCF40E050E060E097
:1056200070E882ED95E00E9470090E9420082091A8
:10563000720330917303621B730B81099109643FFC
:1056400071408105910518F490E080E002C084EB80
:1056500090E00E949A0208CF80E090E0A0E0B0E4E1
:1056600080937C0590937D05A0937E05B0937F0584
:10567000FBCE40E050E060E070E8BFCFE0917805FD
:10568000F09179052A96FFAFEEAF2A970E94200885
:105690008090920590909305A0909405B090950508
:1056A000681979098A099B0960938A0570938B05AB
:1056B00080938C0590938D0520919E0530919F05D8
:1056C0004091A0055091A105C701B6010E94B82DD7
:1056D00060939E0570939F058093A0059093A1050C
:1056E00080909A0590909B05A0909C05B0909D0598
:1056F000A50194010E943B2F181644F480929E0548
:1057000090929F05A092A005B092A105B7FAB0941F
:10571000B7F8B094A501940160919E0570919F0522
:105720008091A0059091A1050E94082C87FF08C0D8
:1057300080929E0590929F05A092A005B092A1052F
:105740008090820590908305A0908405B090850597
:1057500020919E0530919F054091A0055091A10593
:1057600060916E0570916F05809170059091710543
:105770000E946E2CA50194010E946E2C2B013C010D
:1057800020916A0530916B0540916C0550916D0533
:10579000C701B6010E946E2C9B01AC01C301B2018E
:1057A0000E94B82D2B013C012091A2053091A30548
:1057B0004091A4055091A505C701B6010E94B72DDF
:1057C00020917205309173054091740550917505D3
:1057D0000E946E2CA50194010E943B2E9B01AC01FE
:1057E000C301B2010E94B82DC092A205D092A305B8
:1057F000E092A405F092A5052A96EEADFFAD2A979A
:105800001995B6CE8091C0059091C1050C94DC2FFE
:105810000E944A2C08F481E00895E89409C097FB9F
:105820003EF490958095709561957F4F8F4F9F4F77
:105830009923A9F0F92F96E9BB279395F6958795BB
:1058400077956795B795F111F8CFFAF4BB0F11F47E
:1058500060FF1BC06F5F7F4F8F4F9F4F16C0882325
:1058600011F096E911C0772321F09EE8872F762F5B
:1058700005C0662371F096E8862F70E060E02AF09C
:105880009A95660F771F881FDAF7880F9695879588
:1058900097F90895990F0008550FAA0BE0E8FEEF5D
:1058A00016161706E807F907C0F012161306E407E4
:1058B000F50798F0621B730B840B950B39F40A26DD
:1058C00061F0232B242B252B21F408950A2609F4BB
:1058D000A140A6958FEF811D811D08950E94812C06
:1058E0000C94F22C0E94E42C38F00E94EB2C20F057
:1058F000952311F00C94DB2C0C94E12C11240C94C6
:10590000262D0E94032D70F3959FC1F3950F50E053
:10591000551F629FF001729FBB27F00DB11D639F61
:10592000AA27F00DB11DAA1F649F6627B00DA11D07
:10593000661F829F2227B00DA11D621F739FB00DAD
:10594000A11D621F839FA00D611D221F749F33271D
:10595000A00D611D231F849F600D211D822F762FB6
:105960006A2F11249F5750409AF0F1F088234AF093
:10597000EE0FFF1FBB1F661F771F881F91505040FF
:10598000A9F79E3F510580F00C94DB2C0C94262D3A
:105990005F3FE4F3983ED4F3869577956795B79586
:1059A000F795E7959F5FC1F7FE2B880F911D9695A0
:1059B000879597F9089597F99F6780E870E060E010
:1059C00008959FEF80EC089500240A941616170698
:1059D00018060906089500240A94121613061406E0
:1059E00005060895092E0394000C11F4882352F043
:1059F000BB0F40F4BF2B11F460FF04C06F5F7F4FFB
:105A00008F4F9F4F089557FD9058440F551F59F0E1
:105A10005F3F71F04795880F97FB991F61F09F3F9B
:105A200079F087950895121613061406551FF2CFC4
:105A30004695F1DF08C0161617061806991FF1CF14
:105A400086957105610508940895E894BB2766273B
:105A50007727CB0197F90895052E97FB1EF4009444
:105A60000E94432D57FD07D00E945E2D07FC03D0F6
:105A70004EF40C94432D50954095309521953F4F11
:105A80004F4F5F4F089590958095709561957F4F2A
:105A90008F4F9F4F08950E94802DA59F900DB49F1A
:105AA000900DA49F800D911D11240895B7FF0C94B3
:105AB0004B2D0E944B2D821B930B0895A1E21A2EB1
:105AC000AA1BBB1BFD010DC0AA1FBB1FEE1FFF1FA2
:105AD000A217B307E407F50720F0A21BB30BE40BF2
