:100000000C94B1010C94E2010C94E2010C94E20115
:100010000C94E2010C94E2010C94E2010C94E201D4
:100020000C94E2010C94E2010C94E2010C94E201C4
:100030000C94E2010C949B1E0C94E2010C94E201DE
:100040000C94E2010C94981F0C94E2010C94E201D0
:100050000C94E2010C94E2010C94E2010C94511E08
:100060000C94E2010C94621F0C94381F0C94E20172
:100070000C94E2010C94E2010C94E2010C94E20174
:100080000C94E2010C94E2010C94E2010C94E20164
:100090000C94E2010C94E2010C94E2010C942D1DED
:1000A0000C94E2010C94E2010C94E2010C94E20144
:1000B0000C94E2010C94E2010C94E2010C94E20134
:1000C0000C94E2010C94E2010C94E2010C94E20124
:1000D0000C94E2010C94E2010C94E2010C94E20114
:1000E0000C94E2010C94F8090C940C030C94E609AE
:1000F0000C948A080C9498030C948A2B0C94912BE2
:100100000C941D090C9410260C94E2020C944B26BE
:100110000C94BD030C9486030C9476080C94E302B3
:100120000C9405030C949B030C9467080C94410AEF
:100130000C94AB030C94F2260C94AF030C94550A68
:100140000C94CD090C94A1030C941E0A0C94F8266F
:100150000C94D2090C94E9120C9464080C943903A1
:100160000C94A6250C94ED260C94C6030C94F20274
:100170000C94C1030C94CA250C94D0080C94370835
:100180000C946F2B0C94C7030C9498080C94702C4F
:100190000C949E2B0C94B9020C94B9030C94940308
:1001A0000C946C170C94E7260C945F0A0C94CB0308
:1001B0000C94FD260C94DC090C94140A0C948C030A
:1001C0000C940A0A0C9490030C944B0A0C94D026BD
:1001D0000C943B170C94B3030C94A8170C94622650
:1001E0000C9429250C94370A0C948B0B0C94BA02AE
:1001F0000C94000A0C942D0A0C94F0090C94A5039D
:100200000C943F250C9440200C94BC09CDCCCC3DE3
:100210000AD7233C17B7D13877CC2B329595E624F3
:100220001FB14F0A000020410000C84200401C4698
:1002300020BCBE4CCA1B0E5AAEC59D7402000021E4
:1002400000240027002A002D0030003300010100A7
:1002500000040107010A0100002200250028002BEC
:10026000002E003100340002010000050108010BDE
:1002700001000020002300260029002C002F00325E
:10028000000001000003010601090105050505073D
:100290000508080808020202020A0A080804040401
:1002A000040101010101010101030303030303032D
:1002B00003040707070C0C0C0C0C0C0C0C020202BC
:1002C0000206060606060606060B0B0B0B0B0B0BAF
:1002D0000B0102102020080810204010204080024E
:1002E000010201080402010102040810204080807C
:1002F0004020100804020180040201804020100800
:1003000004020108040201010204081020408001D7
:100310000204081020408000000A0B02090C0D0E98
:1003200008070304010000000000000000000000B6
:1003300000000000000000000000000000000000BD
:10034000000000121110000000000000000000007A
:10035000000000000000000000000000000040203D
:10036000702C11241FBECFEFD1E2DEBFCDBF00E065
:100370000CBF12E0A0E0B2E0E0E1F4E600E00BBF69
:1003800002C007900D92A03FB107D9F725E0A0EF7A
:10039000B2E001C01D92A13BB207E1F711E0C0EB52
:1003A000D1E000E006C021970109802FFE010E94E4
:1003B000F22DCF3AD10780E00807A9F70E94232247
:1003C0000C94F6310C9400008F929F92AF92BF92E2
:1003D000CF92DF92EF92FF92CF93DF93C3E1D5E00C
:1003E000C880D980EA80FB80A70196016C817D815D
:1003F0008E819F810E94032E4B015C016C857D855F
:10040000072E000C880B990B0E94852C9B01AC01D8
:10041000C501B4010E94E42C20E030EC4FE754E425
:100420000E94872EA70196010E94042E28853985F7
:100430004A855B850E94032EDF91CF91FF90EF905C
:10044000DF90CF90BF90AF909F908F9008954F9284
:100450005F926F927F928F929F92AF92BF92CF9254
:10046000DF92EF92FF92CF93DF93C3E1D5E0C88094
:10047000D980EA80FB80A70196016C817D818E8105
:100480009F810E94032E4B015C016C857D85072EA8
:10049000000C880B990B0E94852CA50194010E94E9
:1004A000E42C20E030EC4FE754E40E94872EA701B3
:1004B00096010E94042E2B013C016E857F85072E3C
:1004C000000C880B990B0E94852CA50194010E94B9
:1004D000E42C20E030EC4FE754E40E94872EA70183
:1004E00096010E94042E9B01AC01C301B2010E943F
:1004F000032EDF91CF91FF90EF90DF90CF90BF90D0
:10050000AF909F908F907F906F905F904F900895E5
:10051000CF93DF93EC0188819981DC01ED91FC910F
:100520000190F081E02D64E270E01995009741F0B0
:100530002FE1FC01238321E02283DF91CF910895F5
:1005400021E02A83FACF80917B00877F80937B0014
:1005500087E480937C0080917A00806480937A00A5
:1005600080917A0086FDFCCF80917800909179008F
:1005700008950895089520916E03260F3327331FA1
:1005800021323105ECF42091DD03FC0190E080E0A4
:10059000243069F082E00895A0916E032191AC01AE
:1005A000425B5C4FA40FB52FB11D2C9301968617AB
:1005B00098F380916E03680F60936E0380E0089556
:1005C00081E008950895E091B6038091B503E8179E
:1005D00030F4F0E0EF56FC4F808190E008958FEF0B
:1005E0009FEF08959091B6038091B5032FEF3FEFF1
:1005F000981748F4E92FF0E0EF56FC4F208130E0E7
:100600009F5F9093B603C90108958091B5039091BF
:10061000B603891B990B0895CF92DF92EF92FF9258
:100620000F931F93CF93DF937C01CB018A0120911D
:10063000E303222389F0EB016B01C40ED51ECC1518
:10064000DD0569F06991D701ED91FC910190F08190
:10065000E02DC7011995F3CF642F0E94BB02C8019A
:10066000DF91CF911F910F91FF90EF90DF90CF908E
:100670000895CF93DF931F92CDB7DEB769832091A2
:10068000E3032223F9F020910604203258F021E000
:1006900030E0FC013383228390E080E00F90DF9113
:1006A000CF9108958091E403E82FF0E0EB51FC4FE7
:1006B000998190838F5F8093E4038093060481E0A7
:1006C00090E0ECCF61E0CE0101960E94BB02F7CF33
:1006D0008150823108F05AC0E82FF0E08827EC58AA
:1006E000FC4F8F4F0C94F22D9403980386038C03D8
:1006F0009003C6039B03A103A503AB03AF03B3039E
:10070000B903BD03C603C103C703CB0380918000B7
:100710008F77809380000895809180008F7DF9CF3E
:1007200080918000877FF5CF84B58F7784BD089551
:1007300084B58F7DFBCF8091B0008F778093B00020
:1007400008958091B0008F7DF9CF809190008F77D0
:10075000809390000895809190008F7DF9CF8091D3
:100760009000877FF5CF8091A0008F778093A000C5
:1007700008958091A0008F7DF9CF8091A000877FA0
:10078000F5CF809120018F7780932001089580918B
:1007900020018F7DF9CF80912001877FF5CFCF9306
:1007A000DF93282F30E0F901E95EFC4F8491F901D5
:1007B000EF52FD4FD491F901E557FD4FC491CC2381
:1007C000A1F081110E946803EC2FF0E0EE0FFF1FF3
:1007D000EF58FD4FA591B491EC91ED2381E090E0AD
:1007E00009F480E0DF91CF91089580E090E0FACFA6
:1007F0001F93CF93DF93282F30E0F901E95EFC4F80
:100800008491F901EF52FD4FD491F901E557FD4F65
:10081000C491CC23A9F0162F81110E946803EC2FFC
:10082000F0E0EE0FFF1FE95AFD4FA591B4918FB78D
:10083000F894EC91111108C0D095DE23DC938FBFA2
:10084000DF91CF911F910895DE2BF8CFFC018385B6
:100850008F3F19F061E00C94F8030895FC0180814A
:100860009181892B39F0A281B3819C9111968C9151
:100870009CBD8DBD83858F3F19F060E00C94F8031B
:1008800008951092DD0381E08093DC031092B7039A
:1008900061E084E10E94F80361E085E10E94F803D1
:1008A000E9EBF0E080818E7F808380818D7F808383
:1008B00088E48093B80085E48093BC000895CF93CA
:1008C000DF9391E090934D038823B9F0C091B80075
:1008D000D091BA008091BC008A7B8093BC0060E01C
:1008E00084E10E94F80360E085E10E94F8030E9421
:1008F0004104D093BA00C093B800DF91CF9108951E
:10090000CF93DF9390E0FC01EF52FD4F2491855788
:100910009D4FFC0184918823D1F090E0880F991FAE
:10092000FC01E35CFD4FA591B491FC01E95AFD4F38
:10093000C591D49161110EC09FB7F8948C91E22FAC
:10094000E0958E238C932881E223E8839FBFDF917B
:10095000CF9108958FB7F894EC91E22BEC938FBF71
:10096000F6CF8230910538F0880F991F880F991FB4
:1009700005970197F1F70895AF92BF92CF92DF925A
:10098000EF92FF920F931F93CF93DF93EC01888137
:100990009981892B89F06EBD0DB407FEFDCFBEB4E1
:1009A0008B2DDF91CF911F910F91FF90EF90DF90F2
:1009B000CF90BF90AF9008958885998511E0892BDD
:1009C00009F010E8AA24A394862F812309F0A12C12
:1009D000062F2C813D814E815F8160E271EA87E0C4
:1009E00090E00E94AD2DF22EB02EE12CC22ED12C23
:1009F000FF2019F0C6010E94B1048A85877F09F0A3
:100A000042C08D858F3F89F0902F912381E009F4BA
:100A100080E08A1551F0EF85F8898F89992369F173
:100A20009081892B8083AA24A394E989FA89808103
:100A3000998D892B8083FF2019F0C6010E94B10493
:100A40008E858F3F39F0EB89FC898081988D8923D1
:100A500009F0E12AE989FA899081898D80958923B5
:100A600080838E858F3F09F0BE2C88859985892BE0
:100A7000B9F5110F1111BCCF93CF908180958923C7
:100A80008083A12CD2CFE989FA898081998D892B25
:100A90008083FF2019F0C6010E94B1048D858F3F2D
:100AA00049F0EF85F8898F89902F9123A9F09081E3
:100AB000892B8083E989FA899081898D80958923A2
:100AC00080838E858F3F69F2EB89FC898081988DC8
:100AD000892339F2E12AC5CF908180958923E9CF16
:100AE0001695C8CF8F929F92AF92BF92CF92DF920E
:100AF000EF92FF920F931F93CF93DF937C014B01F3
:100B00006A01B22EA32E0E942E04E401C80CD91C47
:100B1000CC15DD0569F4CB2DDA2D0C0F1D1FC01788
:100B2000D10759F06FEFC7010E94BC048993F7CF3A
:100B30006991C7010E94BC04EBCFC7010E94260443
:100B400081E0DF91CF911F910F91FF90EF90DF90A7
:100B5000CF90BF90AF909F908F9008958F929F926B
:100B6000AF92BF92CF92DF92EF92FF920F931F93BB
:100B7000CF93DF937C01B62EA72E6A0149010E9414
:100B80002E04E401080D191DC017D10761F4CB2D07
:100B9000DA2DCC0EDD1ECC15DD0551F06991C701B3
:100BA0000E94BC04F8CF6991C7010E94BC04ECCF3D
:100BB000C7010E94260481E0DF91CF911F910F9120
:100BC000FF90EF90DF90CF90BF90AF909F908F906D
:100BD00008953FB7F8948091490390914A03A091FA
:100BE0004B03B0914C0326B5A89B05C02F3F19F0CD
:100BF0000196A11DB11D3FBFBA2FA92F982F88279D
:100C0000BC01CD01620F711D811D911D42E0660F77
:100C1000771F881F991F4A95D1F708958F929F9249
:100C2000AF92BF92CF92DF92EF92FF920F931F93FA
:100C3000CF93DF93D0910604D13208F0D7C0182F9C
:100C4000C09105040E94E9056B017C018091DD03E0
:100C500081116BC082E08093DD031093DC038FEF82
:100C60008093DB031092DA03D093D903A5EEB3E0AF
:100C7000E9EBF3E080E0D81391C01092B8038091C3
:100C8000B803CC0FC82BC093B8038091B703813051
:100C900009F088C01092B7030E94E9056B017C013E
:100CA0008091B8038093BB008091DF039091E003B3
:100CB000A091E103B091E203892B8A2B8B2BA1F049
:100CC0000E94E9050091DF031091E0032091E10308
:100CD0003091E2036C197D098E099F0906171707E9
:100CE0002807390708F442C08091BC0083FDD8CFA3
:100CF00085EC8093BC000E94E9056B017C0180912A
:100D0000DD03823009F450C08091DB038F3F09F48A
:100D10006FC08091DB03803209F46CC08091DB03EB
:100D2000803309F469C084E026C08091DF0390918C
:100D3000E003A091E103B091E203892B8A2B8B2B76
:100D400009F484CF0E94E9058090DF039090E003CE
:100D5000A090E103B090E2036C197D098E099F0910
:100D600086169706A806B90608F070CF8091DE03B4
:100D70000E945F0485E01092E40310920604109232
:100D8000E303DF91CF911F910F91FF90EF90DF90E0
:100D9000CF90BF90AF909F908F9008959D91919329
:100DA0008F5F69CF85EEA5CF8091DF039091E0033F
:100DB000A091E103B091E203892B8A2B8B2B09F4DC
:100DC0009ECF0E94E9050091DF031091E00320917E
:100DD000E1033091E2036C197D098E099F09061722
:100DE00017072807390708F08ACFC0CF81E0C3CFA3
:100DF00080E0C1CF82E0BFCF83E0BDCF1F93CF9310
:100E0000DF93EA01122FDC0111968D919C91DC0198
:100E1000ED91FC910280F381E02D1995C817D90757
:100E200029F4812F0E940E0691E0811190E0892F14
:100E3000DF91CF911F910895CF92DF92EF92FF92B1
:100E40000F931F93CF93DF931F921F92CDB7DEB7FF
:100E5000FC014787508B618B728B8285882371F1EF
:100E60004487452F562F672F7727882349F14387DB
:100E70007F018BE0E80EF11C9681878199838A833C
:100E8000C080D180C114D10409F443C0018510E0B1
:100E900098012E5F3F4FD60114968D919C91821739
:100EA000930780F480E00F900F90DF91CF911F9116
:100EB0000F91FF90EF90DF90CF9008954387D1CFAF
:100EC0004487D6CFF60181819281208131E0309331
:100ED000E303209305041092E40310920604011525
:100EE000110541F421E042E050E0B701C6010E9443
:100EF000FE06D9CFDC01ED91FC910280F381E02D5B
:100F0000A801BE016F5F7F4F19950817190751F6A9
:100F1000E9CFA281B381109729F22481358101851F
:100F200010E02330310579F48E7F89839A830F5F37
:100F30001F4F9E012F5F3F4F42E050E0B701CD01B0
:100F40000E94AE05B0CF2115310519F49F77998322
:100F5000F0CF2230310511F49068F9CF21303105FE
:100F600041F79F779064F3CFCF93DF93EC018B81B0
:100F70008823A1F0888191E09093E3038093050496
:100F80001092E4031092060481E00E940E0691E0A4
:100F9000811190E0892FDF91CF9108951092B603CF
:100FA0001092B5031092E403109206040E944104CB
:100FB00089EB92E09093B2038093B1038AEB92E0C5
:100FC0009093B4038093B30381E08B83CE010E949E
:100FD000B407982F8111CECFDDCF2FB7F894609151
:100FE00045037091460380914703909148032FBFBA
:100FF00008950F931F9380912F0590913005892BB1
:1010000099F18091310590913205892B69F181E048
:10101000809339050E94ED0700913F05109140052E
:101020002091410530914205DC01CB01800F911FD9
:10103000A21FB31F8093470590934805A0934905CD
:10104000B0934A0510923A05109257051092580530
:101050001092590510925A0510925B0510925C058A
:1010600010925D0510925E051F910F910895AF9249
:10107000BF92CF92DF92EF92FF920F931F93CF9385
:10108000DF936C017B018B01040F151FEB015E01E7
:10109000AE18BF08C017D10759F06991D601ED917C
:1010A000FC910190F081E02DC6011995892B79F70B
:1010B000C501DF91CF911F910F91FF90EF90DF90CD
:1010C000CF90BF90AF90089590E080E00895FC012C
:1010D000538D448D252F30E0842F90E0821B930B9D
:1010E000541710F0CF96089501970895FC01918D43
:1010F000828D981761F0A28DAE0FBF2FB11D5D9646
:101100008C91928D9F5F9F73928F90E008958FEFE7
:101110009FEF0895FC01918D828D981731F0828D9B
:10112000E80FF11D858D90E008958FEF9FEF0895F2
:10113000FC01918D228D892F90E0805C9F4F821B56
:1011400091098F739927089583E194E00E9498088C
:1011500021E0892B09F420E0822F0895FC01A48D61
:10116000A80FB92FB11DA35ABF4F2C91848D90E0C9
:1011700001968F739927848FA689B7892C93A089AC
:10118000B1898C91837080648C93938D848D981336
:1011900006C00288F389E02D80818F7D80830895C9
:1011A000EF92FF920F931F93CF93DF93EC0181E0B7
:1011B000888F9B8D8C8D98131AC0E889F98980815E
:1011C00085FF15C09FB7F894EE89FF896083E88991
:1011D000F98980818370806480839FBF81E090E083
:1011E000DF91CF911F910F91FF90EF900895F62E10
:1011F0000B8D10E00F5F1F4F0F731127E02E8C8DAA
:101200008E110CC00FB607FCFACFE889F9898081EE
:1012100085FFF5CFCE010E94AE08F1CFEB8DEC0F2C
:10122000FD2FF11DE35AFF4FF0829FB7F8940B8F0B
:10123000EA89FB8980818062CFCFCF93DF93EC0175
:10124000888D8823B9F0AA89BB89E889F9898C91AE
:1012500085FD03C0808186FD0DC00FB607FCF7CF6A
:101260008C9185FFF2CF808185FFEDCFCE010E946A
:10127000AE08E9CFDF91CF9108958F929F92AF9200
:10128000BF92CF92DF92EF92FF920F931F93CF9373
:10129000DF93EC016A017B0120E030E04FE753E48B
:1012A000CB01B6010E94E42C4B015C0120E030E050
:1012B000A9010E94DB2F18168CF5C501B4010E940C
:1012C000F92E8B01B98020E030E0A901C701B601F9
:1012D0000E94DB2F60E018160CF061E08B2D0E945D
:1012E000F8030F3F110509F0ECF41127C88161E004
:1012F0008C2F0E94800401151105B9F460E08C2F39
:10130000DF91CF911F910F91FF90EF90DF90CF90E1
:10131000BF90AF909F908F900C94F803C501B401DB
:101320009058CDCF0FEF10E0E1CF0F3F110511F432
:1013300061E0E5CFEC2FF0E0E95EFC4FE491E15095
:10134000E23108F0BCC0F0E08827E655F64F8F4F39
:101350000C94F22DBC09CD09D209DC09E6095F0A1B
:10136000F009F809000A0A0A140A1E0A2D0A370AA7
:101370005F0A410A4B0A550A84B5806884BD07BDDF
:10138000DF91CF911F910F91FF90EF90DF90CF9061
:10139000BF90AF909F908F90089584B5806284BD78
:1013A00008BDEECF8091800080688093800010930C
:1013B000890000938800E4CF809180008062809350
:1013C000800010938B0000938A00DACF8091800018
:1013D00088608093800010938D0000938C00D0CFA4
:1013E0008091B00080688093B0000093B300C8CFB4
:1013F0008091B00080628093B0000093B400C0CFB1
:1014000080919000806880939000109399000093E1
:101410009800B6CF809190008062809390001093E6
:101420009B0000939A00ACCF8091900088608093DD
:10143000900010939D0000939C00A2CF8091A0008B
:1014400080688093A0008091A0008F7B8093A00093
:101450001093A9000093A80093CF8091A000806210
:101460008093A0001093AB000093AA0089CF8091D5
:10147000A00088608093A0001093AD000093AC00A2
:101480007FCF8091200180688093200110932901F3
:101490000093280175CF8091200180628093200104
:1014A00010932B0100932A016BCF8091200188605B
:1014B0008093200110932D0100932C0161CF0038FF
:1014C00011050CF035CF1ACF8EBD00000DB407FE0C
:1014D000FDCF8EB508956F3FB1F0E62FE295EF7026
:1014E00044E0E49F90011124DC01ED91FC91E20FB6
:1014F000F31F6F70B8E06B9FC0011124628173818C
:10150000860F971F089590E080E00895CF93DF93B2
:10151000EC0188819981DC01ED91FC910190F081D1
:10152000E02D19952A813B81820F931F9B838A832B
:10153000DF91CF910895982F80336CF08A3324F097
:101540008F3524F08B3724F481E0089581341CF02A
:1015500081E09B350CF080E00895CF93DF93EC01A0
:1015600088819981DC01ED91FC910280F381E02D6D
:1015700019952A813B81820F931F9B838A83DF9178
:10158000CF9108958F929F92AF92BF92CF92DF92A8
:10159000EF92FF920F931F93CF93DF93CDB7DEB7F8
:1015A00066970FB6F894DEBF0FBECDBF6C018E01FB
:1015B000095E1F4F78018AE0882E912CA12CB12C56
:1015C000CB01BA01A50194010E94AD2D942F852F66
:1015D000605DF80162938F01A901692F782F411591
:1015E00051056105710561F7A7014E1B5F0BBF0136
:1015F000C6010E94AD0A66960FB6F894DEBF0FBE14
:10160000CDBFDF91CF911F910F91FF90EF90DF90B1
:10161000CF90BF90AF909F908F900895FC018485EC
:10162000811114C0A781B085818592852FEF3FEF8E
:10163000A817B90730F4CD010196908787832C91C4
:1016400030E037FD20E0238781E08487838508959B
:101650001F93CF93DF93EC01162F0E940E0B811383
:1016600006C01C8681E0DF91CF911F91089580E034
:10167000FACF0F931F93CF93DF938C01EB018991E6
:10168000882369F0C8010E940E0B882379F0FE01BF
:101690003197908198130DC0F8011486F0CF90E037
:1016A00080E0DF91CF911F910F91089582E090E04B
:1016B000F8CF83E090E0F5CFCF93DF93EC01CE013C
:1016C0000E940E0B8B304CF489305CF4882359F067
:1016D00081E08E8390E080E00BC08D3011F080328D
:1016E000B9F71C86ECCF8E81811105C081E090E0B6
:1016F000DF91CF91089582E090E0FACFDC01ED9187
:10170000FC91309731F094819F7781E019F080E06F
:10171000089581E00895AF92BF92CF92DF92EF9249
:10172000FF920F931F93CF93DF93C3EFD4E02885ED
:1017300039854A855B856C857D858E859F85A888E2
:10174000B988CA88DB88EC88FD880E891F890E94C9
:10175000FA2DA88CB98CCA8CDB8CEC8CFD8C0E8D90
:101760001F8D0E94FA2D0E942F2F288139814A81D6
:101770005B810E94E42CDF91CF911F910F91FF902C
:10178000EF90DF90CF90BF90AF9008954F925F920F
:101790006F927F928F929F92AF92BF92CF92DF9281
:1017A000EF92FF920F931F93CF93DF93EB01DC0136
:1017B0002C912B32D9F12D32D1F50196FF24F394DF
:1017C000FC01208130ED320F3A3018F02E3209F052
:1017D00042C18C0160E070E0CB01F801219130ED55
:1017E000832E820E39E0381520F16A3949E97407F1
:1017F000840749E1940738F5AAE0B0E09B01AC0109
:101800000E94A22D912CB12CA12C240135014094D1
:10181000509460947094461657066806790698F0BE
:10182000680D791D8A1D9B1D8F01D7CF0196F12C64
:10183000C7CF211108C0FF20E9F161307105810592
:1018400050E89507A0F0E12CBAE08B2E912CA12C4A
:10185000B12C6115710530E883079105B0F1A50140
:1018600094010E94AD2DCA01B901E394F2CF2C81FD
:1018700020782A602C839B01AC0188279927DC0102
:10188000821B930BA40BB50B88839983AA83BB831C
:101890008F2DDF91CF911F910F91FF90EF90DF90EF
:1018A000CF90BF90AF909F908F907F906F905F9000
:1018B0004F9008952C81207828602C836883798349
:1018C0008A839B83FF24F394E3CFF801D8012D9101
:1018D0008D0130ED320F3A3010F4E394F6CF2E3212
:1018E00001F58F010F5F1F4FF8010F5F1F4F208120
:1018F000A0EDDA2ED20EB9E0BD1598F06C3CECEC00
:101900007E07ECE08E07910578F7AAE0B0E09B0136
:10191000AC010E94A22D6D0D711D811D911DEA94D7
:10192000E3CF20812F7D10E000E0253409F05BC07B
:1019300021812D32D1F53296CC24C394DF0110E001
:1019400000E02E2D0E2C000C330B5AE0B52EFD01BD
:10195000DD9040ED4D0D4A3008F040C0B09EA00132
:10196000B19E500D11240D2DDD0C110B00531109EA
:10197000040F151FA801420F531F473251053CF3B6
:101980008C81CC20C9F040E050E060E070E8F110BC
:1019900003C040E050E0BA0180788C608C834883BB
:1019A00059836A837B83FC2C73CF2B3219F03196D9
:1019B000C12CC4CF3296FCCF40E050E060E87FEF0E
:1019C000F11004C040E050E060E87FE780788C6070
:1019D0008C83488359836A837B8374CFCC2019F02E
:1019E0001195019511092081211135C00E0D111D90
:1019F000E7FC1A950E94832C34E2C32E32E0D32EEA
:101A0000101611063CF01195019511094CE0C42EF9
:101A100042E0D42EE12C0115110591F000FF0CC01D
:101A200024E0E29EF0011124EC0DFD1D259135917D
:101A3000459154910E94E42C15950795E394EBCFC2
:101A4000F11090582C8120782C602C836883798346
:101A50008A839B8337CFF12C1BCFCF92DF92EF92FB
:101A6000FF92CF93DF9300D01F921F92CDB7DEB7C6
:101A7000FC0184818F778630D9F040F48430A9F15D
:101A8000853009F43FC090E080E014C08A30F1F066
:101A90008C3009F43FC08830B1F780819181A281F8
:101AA000B381811520E89207A105B10560F702C056
:101AB000808190E00F900F900F900F900F90DF912A
:101AC000CF91FF90EF90DF90CF900895808191812A
:101AD000A281B381AC01BD0150586F4F7F4F4115BA
:101AE00051056140710578F6E5CF808191811D82B5
:101AF000BE016F5F7F4F0E94C60BCE0101960E9410
:101B00002D0DD8CF808191811D82BE016F5F7F4FE7
:101B10000496F1CFC080D180E280F38020E030E0F5
:101B200040E057ECC701B6010E94DB2F87FDABCF29
:101B300020E03EEF4FEF56E4C701B6010E947E2C35
:101B400018160CF4A0CFC701B6010E94F92ECB01E4
:101B5000B1CFCF92DF92EF92FF92CF93DF9300D07D
:101B60001F921F92CDB7DEB7FC0184818F7786303C
:101B7000C1F038F4843019F1853071F190E080E0E3
:101B800012C08A3021F08C3079F18830B9F7808129
:101B90009181A281B381009721E0A207B10518F0DD
:101BA000EDCF808190E00F900F900F900F900F90ED
:101BB000DF91CF91FF90EF90DF90CF9008958081DB
:101BC00091811D82BE016F5F7F4F0E94C60BCE01C7
:101BD00001960E94A90DE7CF808191811D82BE01EF
:101BE0006F5F7F4F0496F1CFC080D180E280F38099
:101BF00020E030E0A901C701B6010E94DB2F87FD7C
:101C0000BDCF20E03FEF4FE757E4C701B6010E9488
:101C10007E2C18160CF4B2CFC701B6010E94002F1B
:101C2000CB01C1CFCF93DF9300D01F921F92CDB7CE
:101C3000DEB7FC0194819F77963091F030F49430B8
:101C400020F560E070E0CB0111C09A30B9F09C3013
:101C500051F19830B1F7608171818281938104C024
:101C6000608170E090E080E00E94832C0F900F90E4
:101C70000F900F900F90DF91CF9108956081718147
:101C8000828193810E94852CF1CF808191811D8278
:101C9000BE016F5F7F4F04960E94C60BCE01019676
:101CA0000E94120EE3CF6081718182819381DECF29
:101CB000FC019289915084E0989F90011124A089A1
:101CC000B189A20FB31F1296ED91FC911397309733
:101CD000E9F011962C9111978C912817B8F481E0B6
:101CE000820F11968C9388E0289FA0011124E40FA5
:101CF000F51F309759F014828FEF85831782168273
:101D0000BF01892F8295807F820F089560E070E087
:101D10008FEF0895DF92EF92FF920F931F93CF936F
:101D2000DF93EC017B01D12C688979898A89D816E7
:101D3000E0F484E0D89E80011124060F171FD8011B
:101D400012966D917C916115710541F0D701ED916D
:101D5000FC910280F381E02DC7011995F8011382EF
:101D6000128210821182D394DFCF1A8A8FEF8C8B6C
:101D7000C617D70761F0D701ED91FC910280F3817E
:101D8000E02DC7011995D98BC88B84E08B8BDF912F
:101D9000CF911F910F91FF90EF90DF900895DB019D
:101DA000ED91FC9111970280F381E02DBC01CD01F2
:101DB00019940F931F93CF93DF93EC01088119813E
:101DC0008B819C81009749F0FC01208131813C830B
:101DD0002B83B8010E94CF0EF3CF68817981CE01A9
:101DE0000596DF91CF911F910F910C948A0ECF939E
:101DF000DF93EC01E881F981B0E0A0E03097F9F0E1
:101E00009F012C5F3F4F62177307A1F4928191509D
:101E10009283911114C080819181109741F08D932C
:101E20009C93BA01CF01DF91CF910C94CF0E99838F
:101E30008883F7CFDF010190F081E02DDFCFDF91C4
:101E4000CF9108958F929F92AF92BF92CF92DF92DF
:101E5000EF92FF920F931F93CF93DF938C01EB01CF
:101E6000FC01848180FF0AC04881598160817181B1
:101E70006C5F7F4FCE0103960E94F70EF8018481BC
:101E8000807681F10115110569F1D0805E01F5E1DF
:101E9000AF0EB11C4E0183E0880E911CEFEFDE16F1
:101EA000F1F06D2DC5010E946B0A7C01FC01C5801B
:101EB000848187FF07C04881598166817781C40189
:101EC0000E94F70EBE01C7010E94220FF701848114
:101ED00080788483898D8583D98EDC2CDFCFF801CF
:101EE000D082D182DF91CF911F910F91FF90EF901F
:101EF000DF90CF90BF90AF909F908F900895EF921A
:101F0000FF920F931F93CF93DF937C018B01EA0124
:101F10006F3F710509F0B0F4E881F9810480F58123
:101F2000E02DAB014B5F5F4FBC01CE0119950097CF
:101F300049F0FC010383DF91CF911F910F91FF9036
:101F4000EF900895E881F9810280F381E02DB701D7
:101F5000CE01199590E080E0EECFFF920F931F9392
:101F6000CF93DF93EC01F62E8A819B810097C9F015
:101F70006C817D81FC0123812617170691F408816D
:101F80001981F80140815181660F771F6F5F7F4F84
:101F90000E947F0F009719F421E0F80122839B83B0
:101FA0008A838A819B81009759F02C813D81A90108
:101FB0004F5F5F4F5D834C83820F931FFC01F48260
:101FC000DF91CF911F910F91FF9008959F92AF9253
:101FD000BF92CF92DF92EF92FF920F931F93CF9316
:101FE000DF9300D01F921F92CDB7DEB78C010E9405
:101FF0000E0BD82EF8011486F12CE12C60EFC62EC2
:10200000C8010E940E0BF8011486D81609F4B3C05B
:10201000811113C082E090E00F900F900F900F900D
:102020000F90DF91CF911F910F91FF90EF90DF9074
:10203000CF90BF90AF909F9008958C3509F099C0D4
:10204000C8010E940E0B882329F3EBE4F2E08537E8
:1020500009F083C0F801148654E0952EB12CA12C10
:10206000C8010E940E0B8823A9F2813434F48053F6
:10207000803130F083E090E0CFCF8F7D8753F8CF71
:1020800044E0AA0CBB1C4A95E1F7A82AF801148683
:102090009A949110E5CFC501985D8115944020F484
:1020A0007501F3E0FF22ACCFC5019C5D8115944022
:1020B000A8F483E0B822B701762F6627770F770F51
:1020C0006A297B2990E080E00196603871058105DE
:1020D000910540F4C8010E94AD0F92CFB50190E088
:1020E00080E0F3CF1982262F2F7320682A8326E001
:1020F00096958795779567952A95D1F76032710502
:1021000080F4606C6B835E01E4E0AE0EB11CF501FF
:1021100062915F01662309F473CFC8010E94AD0F7D
:10212000F6CF262F2F7320682B8386E07695679550
:102130008A95E1F76031710538F4606E6C835E0159
:10214000F5E0AF0EB11CE3CF60686C83CD825E0119
:1021500026E0A20EB11CDBCF32969081992309F4C0
:1021600089CF8913F9CF8181882309F483CFF801BE
:102170001486682FAFCF82819381892B19F484E074
:1021800090E04ACF90E080E047CFAF92BF92CF92ED
:10219000DF92EF92FF920F931F93CF93DF93DC01B7
:1021A0001296ED91FC91139714968D919C91159731
:1021B000E80FF91F14820D911C91119714966D91DF
:1021C0007C91159712968D919C9113979C012C5F91
:1021D0003F4FE801EB81FC817B01E20EF31E30975B
:1021E000B9F043814617170679F45901AF014C5FE6
:1021F0005F4FEA14FB0499F1E501C9905E01EA0121
:10220000D990AE01CD14A9F30190F081E02DE7CF74
:10221000ED01F801408151810E947F0FFC01892B63
:1022200021F481E0D80112968C93A881B98113968C
:102230008D919C911497918380831496FC93EE93D7
:1022400013971B821A82CF01DF91CF911F910F91BB
:10225000FF90EF90DF90CF90BF90AF900895828174
:102260008F5F8283F0CF2F923F924F925F926F9257
:102270007F928F929F92AF92BF92CF92DF92EF9216
:10228000FF920F931F93CF93DF9300D000D0CDB771
:10229000DEB77C017C836B830B969E838D83D70195
:1022A00016969C91169717968C91179799838A8307
:1022B0006D907C9011976114710409F44CC11996CA
:1022C0004C9150E0F3018481958184179507A8F023
:1022D000808191E09093E303809305041092E403DE
:1022E0001092060420E0BE016F5F7F4FC3010E9481
:1022F000FE06D12CC12C81111AC080E026960FB6A3
:10230000F894DEBF0FBECDBFDF91CF911F910F912B
:10231000FF90EF90DF90CF90BF90AF909F908F9005
:102320007F906F905F904F903F902F900895D301D2
:1023300014968D919C9102E010E00C191D098017F4
:10234000910708F48C01F30150800E94E9054B01CC
:102350005C018091DD03811176C0B02EF0E2F017B0
:1023600010F440E2B42E81E08093DD0321E082E0AE
:1023700090E0801B910BC816D90608F420E020934A
:10238000DC039FEF9093DB031092DA038FEF8B0D4A
:102390008093D903A1E0A093B8038091B803550CB2
:1023A000582A5092B8038091B703813009F093C046
:1023B0001092B7030E94E9051B012C018091B8031C
:1023C0008093BB008091DF039091E003A091E10333
:1023D000B091E203892B8A2B8B2BA1F00E94E90597
:1023E0002091DF033091E0034091E1035091E2033B
:1023F0006219730984099509261737074807590791
:1024000008F442C08091BC0083FDD8CFB5ECB093F6
:10241000BC000E94E9051B012C018091DD03813085
:1024200009F45DC08091DA038B1510F4B090DA03E3
:10243000A9EBB3E0E1E9F3E080E08B1551F19D9168
:1024400091938F5FFACF8091DF039091E003A09189
:10245000E103B091E203892B8A2B8B2B09F479CF0E
:102460000E94E9052091DF033091E0034091E103F0
:102470005091E203681979098A099B0926173707E1
:102480004807590708F065CF8091DE030E945F047A
:10249000B12C1092B603B092B503B016110609F034
:1024A0002CCF8D809E808C0C9D1C5401C5018819F9
:1024B000990980179107A8F5D30111968D919C91E8
:1024C000DC01ED91FC910284F385E02D1995F50175
:1024D00081935F01EBCFE5EEE093BC009ACF809152
:1024E000DF039091E003A091E103B091E203892B17
:1024F0008A2B8B2B09F491CF0E94E9052091DF03F1
:102500003091E0034091E1035091E20362197309B5
:1025100084099509261737074807590708F07DCF22
:10252000B3CFC00ED11EF2E0CF16D10408F4FFCE17
:10253000F7018285811142C0848590E0982F882719
:10254000AB81BC8111969C938E932385822B8D93B6
:102550009C9381E0D3CE1296ED91FC911397309726
:1025600009F4CBCE14962D913C91159719964C9168
:1025700050E02330310591F4816089839A834F5F65
:102580005F4F02E010E02D813E81BE016F5F7F4F03
:10259000CF010E9472058111CBCFB0CE211531053C
:1025A00019F490689983EDCF2230310511F49F77AB
:1025B000F9CF2130310529F7906CF4CF838590E075
:1025C000982F8827AB81BC8111969C938E9324858C
:1025D000BDCFAB01BC0170588BE895E00C943D0970
:1025E000FC0101900020E9F73197AF01481B590B1E
:1025F000BC0183E194E00C943708AF92BF92CF9274
:10260000DF92EF92FF920F931F93CF93DF93CDB79B
:10261000DEB7A1970FB6F894DEBF0FBECDBF5C0149
:102620008CE592E00E94F01265010B2C000CEE0884
:10263000FF08F7FE48C06DE283E194E00E94D008F5
:1026400022273327A9012C193D094E095F0919A238
:102650008E010F5D1F4F9AE0C92ED12CE12CF12C79
:10266000CA01B901A70196010E94AD2D605DF80174
:1026700062938F01211531054105510589F7011537
:10268000110519F0C8010E94F01286E692E00E943E
:10269000F01280913E0390913F03099779F5A114C0
:1026A000B104B1F1A1960FB6F894DEBF0FBECDBF55
:1026B000DF91CF911F910F91FF90EF90DF90CF901E
:1026C000BF90AF900895A701960119A28E010F5DEA
:1026D0001F4F8AE0C82ED12CE12CF12CCA01B90180
:1026E000A70196010E94AD2D605DF80162938F01F4
:1026F000211531054105510589F7C1CFF6E0AF1627
:10270000B1044CF484E0A816B104C4F4B7FC07C0CB
:102710001092390504C0EAE0AE16B104CCF3B092D1
:102720003F03A0923E030E94ED0760931003709355
:1027300011038093120390931303B4CF0E94F907FF
:10274000EECFDF92EF92FF920F931F93CF93DF9321
:102750006115710561F460E070E08FEF9D2DDF91F0
:10276000CF911F910F91FF90EF90DF9008958A0114
:10277000EB01DC01FC900B5E1F4F6F2DC8010E9426
:102780006B0A009741F3FC01E580009721F3068076
:10279000F781E02DDE010D900020E9F79D01215029
:1027A00031092C1B3D0BB0E0A0E0309739F0DF0180
:1027B0000D900020E9F71197AE1BBF0B2A173B07BE
:1027C00051F4DE012C0F3D1FA217B30769F05D9194
:1027D00041915417C9F36E2DC8010E946B0A0097EE
:1027E00009F4B9CFFE2CCFCFBC018F2DDE2CB6CF94
:1027F000CF93DF93FC01C081D18162817381CE01CF
:102800004A9661F02E8D25FF09C0AE010E94A113EA
:102810009B01B901CE01DF91CF91089530E020E016
:10282000F8CFFB0101900020E9F73197AF01461B7B
:10283000570B0C94AD0A1F93CF93DF93EBE4F2E0B8
:102840001281112379F0329621816213F9CFEC01C4
:102850006CE50E94860A612FCE01DF91CF911F9116
:102860000C94860A6111F9CF69E672E0DF91CF918D
:102870001F910C941114CF92DF92EF92FF920F935D
:102880001F93CF93DF938C016B017A0162E20E9468
:10289000860AE601EC0CFD1CCE15DF0529F06991D6
:1028A000C8010E941B14F8CF62E2C801DF91CF91EA
:1028B0001F910F91FF90EF90DF90CF900C94860ABC
:1028C0002F923F924F925F926F927F928F929F9240
:1028D000AF92BF92CF92DF92EF92FF920F931F932E
:1028E000CF93DF93CDB7DEB76C970FB6F894DEBF0A
:1028F0000FBECDBF8C011B01DC0114968C91149787
:102900008F77883009F4B2C2E8F4843009F469C2E0
:1029100048F4833009F49FC260E772E0C1010E946D
:1029200011141CC2853009F470C28630A9F78C914D
:1029300065E772E0811102C06AE772E0C1010E949E
:1029400011146DC28C30F1F1C8F48A3029F7CD90A2
:10295000DD90ED90FC90B701A601F7FE0BC06DE293
:10296000C1010E94860A44275527BA014C195D0906
:102970006E097F09C1010E94C20A51C2803209F466
:10298000F7C1803449F66BE5C1010E94860AF8015F
:1029900010811F3F09F4E7C1D10114968D919C91DC
:1029A000612F45960E946B0A8C01B1010E94601450
:1029B000F80115811F3F09F4D6C16CE2C1010E94E4
:1029C000860AE7CFF801C080D180E280F380A701BA
:1029D0009601C701B6010E947E2C81119DCF20E097
:1029E00030E0A901C701B6010E947E2C882379F04E
:1029F000A7019601C701B6010E94042E9B01AC01FC
:102A0000C701B6010E947E2C882309F485CF20E0FF
:102A100030E0A901C701B6010E947E2C87FF08C0E3
:102A20006DE2C1010E94860AF7FAF094F7F8F0947B
:102A300020E836E948E15BE4C701B6010E94DB2FDC
:102A400087FD88C074E1A72EB12C00E210E0188E3B
:102A50001F8AF501EC5DFD4F25913591459154910B
:102A6000C701B6010E94DB2F87FD13C0F501E45FAB
:102A7000FD4F2591359145915491C701B6010E94B2
:102A8000E42C6B017C012F89388D200F311F388F8A
:102A90002F8B1595079534E0A31AB1088CEFA81673
:102AA0008FEFB806B1F655245A9420E030E0A90122
:102AB000C701B6010E94DB2F18160CF052C02CEA99
:102AC00035EC47E257E3C701B6010E947E2C181689
:102AD0000CF447C0A52DB4E0AB02C0011124B12C09
:102AE000A12CFC01E45FFD4F3F019C012C5D3D4F9B
:102AF00049013FEF531609F434C0F301EA0DFB1D01
:102B0000659175918591949120E030E040E251E427
:102B10000E94E42CA70196010E94DB2F18169CF45A
:102B2000F401EA0DFB1D2591359145915491C701A2
:102B3000B6010E94E42C6B017C018F89988D801B6B
:102B4000910B988F8F8B159507955A9494E0A91A3D
:102B5000B108CFCF00E210E055E0552E188E1F8A45
:102B6000A4CFC701B6010E94002F4B015C012B01CD
:102B70003C0106E080E492E4AFE0B0E0898F9A8FF8
:102B8000AB8FBC8F102F01509AE04916510461049D
:102B90007104C8F0698D7A8D8B8D9C8D2AE030E0B0
:102BA00040E050E00E94AD2D298F3A8F4B8F5C8F13
:102BB000C301B2012AE030E040E050E00E94AD2DB8
:102BC00029013A01DFCFC501B4010E94832C9B018A
:102BD000AC01C701B6010E94032E6B017C01698D17
:102BE0007A8D8B8D9C8D0E94832C9B01AC01C7013B
:102BF000B6010E94E42C2B013C010E94002F6B01C6
:102C00007C010E94832C9B01AC01C301B2010E9494
:102C1000032E9B01AC010E94042E0E94002FC60EC1
:102C2000D71EE81EF91E898D9A8DAB8DBC8DC816F6
:102C3000D906EA06FB06D8F09FEF891A990AA90A75
:102C4000B90AAF89B88DAB2B39F1BAE08B16910474
:102C5000A104B10408F1EF89F88D3196F88FEF8B5C
:102C6000C12CD12C7601812C912C540183942AE023
:102C7000422E512C612C712CC701B601A301920187
:102C80000E94AD2D672B682B692B51F4111644F46B
:102C900069017A011150F0CFC12CD12C7601E7CF18
:102CA000B501A401C1010E94C20A112371F14E01B4
:102CB000F1E18F0E911C012F54019AE0492E512C05
:102CC000612C712C015068F0C701B601A30192017B
:102CD0000E94AD2D605DD4016E934D0169017A01B2
:102CE000F1CF812F90E0BC0160957095F501E81B54
:102CF000F90B31978EE2808344275527461B570BEB
:102D00006A0D7B1DC1010E94AD0AEF89F88DEF2B82
:102D100029F165E6C1010E94860A0F89188D17FF07
:102D200007C06DE2C1010E94860A11950195110943
:102D3000FE0177969F018AE0E82EF12CC801B701C9
:102D40000E94DE2D805D82938B01672BB9F7A9016C
:102D50004E1B5F0BBF01C1010E94AD0AD10112964B
:102D60008D919C915FC06DE5C1010E94860AF6CFEE
:102D70006BE7C1010E94860AF80110811F3F79F1BB
:102D8000D10114968D919C91612F45960E946B0AFA
:102D90008C01FC01C680D78062E2C1010E94860AD4
:102DA0007601D7016D917D01662321F0C1010E945A
:102DB0001B14F7CF62E2C1010E94860A6AE3C101D7
:102DC0000E94860AB101C8010E946014F8011581B1
:102DD0001F3F29F06CE2C1010E94860ACFCF6DE748
:102DE000C3CFF8016081718150E040E06115710549
:102DF00041F0FB0101900020E9F73197AF01461B3C
:102E0000570BC1010E943B14A9CFED91FC91438166
:102E100050E0BF016C5F7F4FC1010E943B14F10184
:102E2000828193816C960FB6F894DEBF0FBECDBF42
:102E3000DF91CF911F910F91FF90EF90DF90CF9096
:102E4000BF90AF909F908F907F906F905F904F90CA
:102E50003F902F900895ED91FC91438150E0BF0188
:102E60006C5F7F4FC1010E94AD0AD9CF4D915D913A
:102E70006D917C917FCDCB010C947C30CF93DF930F
:102E8000EC018091ED049091EE04009759F02091AF
:102E9000EF043091F0042C173D0720F081E0DF9122
:102EA000CF910895BE016F5F7F4F0E94053100975B
:102EB00089F09093EE048093ED04D093F004C093D6
:102EC000EF042091F1043091F204232B39F7FC0137
:102ED0001082E4CF80E0E3CFCB01BA010C9405313E
:102EE00085ED8093BC008091DF039091E003A09179
:102EF000E103B091E2030796A11DB11D23E0B69551
:102F0000A795979587952A95D1F72091BC0024FD28
:102F100003C01092DD0308954091DF035091E00358
:102F20006091E1037091E203452B462B472B69F337
:102F30000097A105B10541F02AE22A95F1F700C0FA
:102F40000197A109B109E1CF8091DE030C945F04E0
:102F5000CB010C94E02F8F929F92AF92BF92CF92B1
:102F6000DF92EF92FF920F931F93CF93DF936C0149
:102F70008B01DB015996FC90BFEFFB1621F16F2D01
:102F8000C80145960E946B0AEC018D81F801818F82
:102F9000209709F496C01C828FEF8D831F821E82BA
:102FA000D60111966C916F3F09F49FC0C8014596F8
:102FB0000E946B0AFC01F582D6011196FC92BE01BB
:102FC0008F2D9D8084C05B01F5E0AF0EB11CDB014D
:102FD000ED90FC90119757968C91882349F0C5018C
:102FE0000E94580EC62FD72F209711F0F82ED8CF59
:102FF000F801C789908DC91325C0C03109F461C09B
:10300000CC0F65897689D701ED91FC91B4E0CB9F17
:10301000A0011124A616B70609F04BC00190F0815B
:10302000E02DBA01C7011995009709F44AC020E1C3
:10303000F501DC0101900D922A95E1F7F801968BDC
:10304000858BC08FD8015596CD91DC9156975796B8
:103050008C91579721E0280F57962C93B4E08B9FC3
:10306000C0011124C80FD91F90E1892E203111F41D
:103070008FE0882EE8E08E9EB0011124D701ED91FB
:10308000FC910190F081E02DC70119959B838A8303
:10309000892B09F4812C88821982CD2B91F0C501EE
:1030A0000E94580EC62FD72FF82E209709F078CF00
:1030B00008C00480F581E02DC7011995009709F03B
:1030C000BDCF81E0F801828360E070E08FEF992D41
:1030D000DF91CF911F910F91FF90EF90DF90CF90F4
:1030E000BF90AF909F908F900895F601F082F1828B
:1030F00066CF8F929F92AF92BF92CF92DF92EF9264
:10310000FF920F931F93CF93DF93EC018B01D42E8B
:103110000E945C0B7C01892B09F047C0CE010E9404
:103120000E0B863609F452C124F5873229F08B350F
:1031300061F1823209F053C11D821C828A819B8118
:10314000892B31F4888199810E9488029B838A832C
:10315000CE010E94E60F7C01892B39F5CE010E9439
:10316000C510F80124812078256024839183808311
:103170001CC0843709F412C18B3709F45BC08E364A
:1031800009F02DC160E772E012C1F80184818078F6
:10319000806484830115110519F08FEF808381838A
:1031A000D11011C025E0E22EF12CC701DF91CF91A3
:1031B0001F910F91FF90EF90DF90CF90BF90AF9055
:1031C0009F908F9008951C86CE010E945C0B009703
:1031D00009F085C06DE5CE010E94280B8111E5CF75
:1031E000DA946D857E85C8010E94AB176115710563
:1031F00021F484E0E82EF12CD8CF4D2DCE010E9491
:103200007918009709F06BC0CE010E945C0B009703
:1032100009F065C06DE5CE010E94280B8111C5CF74
:103220006CE2CE010E94280B8111DBCF93E0E92EE6
:10323000F12CBBCFF80184818078806284830115F2
:10324000110519F08FEF80838183DD2009F4AACF67
:103250001C86CE010E945C0B009709F040C06DE710
:10326000CE010E94280B8111A0CFBB24BA94BD0CC3
:103270001D821C828A819B81892B31F488819981EE
:103280000E9488029B838A83CE010E940E0B8732A4
:10329000E1F08232D1F0CE010E940E0BD82E0E94B6
:1032A0009B0A882319F21C866D2DCE010E94AD0F5A
:1032B000CE010E940E0BD82E0E949B0A8111F3CFE3
:1032C0008A819B81892B31F494CFCE010E94E60F35
:1032D000009729F4CE010E945C0B009711F07C014D
:1032E00064CF6AE3CE010E94280B882309F49ECFA5
:1032F000EA81FB818C819D81E80FF91F14824D8545
:103300005E856A817B816C5F7F4FC8010E94A1133B
:10331000CB016B01672BC9F5CE010E94C5104C0192
:103320006D857E85C8010E94AB176B016115710523
:1033300009F45FCFFB01848180688483F4E08F0E01
:10334000911CF601978286824B2DB601CE010E9418
:103350007918009721F6CE010E945C0B009709F0C6
:10336000BECF6DE7CE010E94280B81111ECF6CE20B
:10337000CE010E94280B882309F458CFCE010E9469
:103380005C0B009709F474CFAACF6D857E850E94EF
:10339000220FF601848180788483D6CFF80184815E
:1033A00080788660848381E0808365E772E0CE0167
:1033B000DF91CF911F910F91FF90EF90DF90CF9011
:1033C000BF90AF909F908F900C94390BF80184813F
:1033D00080788660848310826AE772E0E8CFCE014D
:1033E0000E940E0B5E01FFE0AF0EB11CD12C9A2C97
:1033F000CB2C803374F08A3374F49FE3D91699F0A0
:103400001C86D394F50181935F01CE010E940E0BBF
:10341000F0CF8B3291F393ED980F923070F3982F99
:103420009F7D953451F3CD0DD11D1F86B801892D97
:103430009C2D0E94C60B8111B8CEF8CE2F923F92E0
:103440004F925F926F927F928F929F92AF92BF92B4
:10345000CF92DF92EF92FF920F931F93CF93DF9360
:10346000CDB7DEB7C557D1090FB6F894DEBF0FBE92
:10347000CDBF8E01005B1F4F21E0222E22E0322EB5
:10348000380125E0620E711C58018AE1A80EB11CBA
:1034900037E9432E32E0532E83E194E00E949808EE
:1034A000892B09F41DC283E194E00E947608D82E8E
:1034B00089831A82E090F104F090F2049FEFE91AF8
:1034C000F90AC7010E943E17882399F02091ED0464
:1034D0003091EE048091F1049091F204BE016F5F8F
:1034E0007F4F820F931F0E94EF31F092F204E0921F
:1034F000F104EAE0DE12D0CFF8013182208212829C
:1035000014821382768A658A178A84E0808F8FEF0F
:10351000818F168EE1961FAE1EAEE197E3961FAE29
:103520001EAEE397C090F104D090F204E090ED0459
:10353000F090EE0461E072E0C3010E948A0EF8018F
:10354000128280809180F80183819481009751F0EC
:10355000FC0120813181F80134832383B4010E946E
:10356000CF0EF1CF168E1A8309831C821B821E8216
:103570001D821F82F986E886EC0CFD1CFB86EA861C
:103580001D861F870E874AE0B501CE0101960E9475
:1035900079187C01892B51F48C85882339F0F80146
:1035A000868D83FF03C093E0E92EF12C8B819C81F3
:1035B000009731F0E981FA81608171810E94CF0E1C
:1035C00090E080E00E943E172091ED043091EE04DF
:1035D00081112CC02115310519F0C9010E947C30E0
:1035E0001092EE041092ED041092F2041092F10485
:1035F0001092F0041092EF04E114F10409F180E854
:1036000092E00E94F012F701EE0FFF1FE55EFD4F02
:1036100080819181009711F00E94F01286E692E07D
:103620000E94F012C8010E94D90E36CF1092F20407
:103630001092F1046BE572E0C9010E94EF31DCCF1A
:103640001A8309835C824B82CE0101960E94F81393
:10365000E3966CAF7DAF8EAF9FAFE397CE018159FC
:103660009F4F0E947E0B811115C010923905E19683
:103670008EAD9FADE197009709F4E8C00E94120E4D
:103680006093230570932405809325059093260568
:103690000E94F9071A8309838AE992E09C838B834D
:1036A000CE0101960E94F813E3966CAF7DAF8EAF0A
:1036B0009FAFE397CE0181599F4F0E947E0B8111EE
:1036C00015C010923905E1968EAD9FADE197009738
:1036D00009F4C0C00E94120E60932705709328055C
:1036E0008093290590932A050E94F9071A8309837C
:1036F0008DE992E09C838B83CE0101960E94F813A2
:10370000E3966CAF7DAF8EAF9FAFE397CE0181594B
:103710009F4F0E947E0B811115C010923905E196D2
:103720008EAD9FADE197009709F498C00E94120EEC
:1037300060932B0570932C0580932D0590932E0597
:103740000E94F9071A83098380EA92E09C838B83A5
:10375000CE0101960E94F813E3966CAF7DAF8EAF59
:103760009FAFE397CE0181599F4F0E947E0B81113D
:103770000DC0E1968EAD9FADE197009709F472C040
:103780000E94A90D90931503809314031A83098353
:1037900082EA92E09C838B83CE0101960E94F8130B
:1037A000E3966CAF7DAF8EAF9FAFE397CE018159AB
:1037B0009F4F0E947E0B811129C086E193E0E6961F
:1037C0009FAF8EAFE697F12CE12C6701E3968CADAD
:1037D0009DADAEADBFADE397FC01892B09F045C0AF
:1037E00060E070E0CB01E696EEADFFADE697619349
:1037F000719381939193E696FFAFEEAFE697FFEF5B
:10380000EF1AFF0A2AE0E216F104F9F61A83098397
:1038100084EA92E09C838B83CE0101960E94F81388
:10382000E3966CAF7DAF8EAF9FAFE397CE0181592A
:103830009F4F0E947E0B8111F5CEF801868D85FD8C
:103840003EC090E080E00E94FD12ECCE60E070E0AF
:10385000CB0116CF60E070E0CB013ECF60E070E0BE
:10386000CB0166CF90E080E08DCF248126FFB8CFDA
:103870004D0125E1820E911C6081C4010E946B0AFA
:10388000009709F4ADCFFC01F581E496FFAFE49712
:10389000009709F4A5CFC114D104F9F0E4966FADF7
:1038A000E497C4010E946B0A009729F0FC01F5819E
:1038B000E496FFAFE49721E0C21AD108E9CFA8014E
:1038C00064EA72E0C5010E94A1136115710509F453
:1038D000B8CFCB010E942D0DB6CF0E94120E83CF20
:1038E000CB58DF4F0FB6F894DEBF0FBECDBFDF91D0
:1038F000CF911F910F91FF90EF90DF90CF90BF90ED
:10390000AF909F908F907F906F905F904F903F907F
:103910002F9008950E94A40881110E941E1A80E031
:1039200090E0892B49F080E090E0892B29F00E94FB
:10393000000081110E94000080E090E0892B49F096
:1039400080E090E0892B29F00E94000081110E9404
:10395000000080E090E0892B49F080E090E0892B26
:1039600029F00E94000081110C9400000895EF924C
:10397000FF920F931F93CF93DF93FC01E080F180C0
:103980008701065E1F4F21F1C281D381209751F13B
:10399000F701868D982F9F7719F580788062868F42
:1039A0008FEF828F838FA701BE01C8010E94A113F0
:1039B000FB01309761F4B701C8010E94AB17FB010E
:1039C000309729F084818F778483D783C6838F01D2
:1039D000C801DF91CF911F910F91FF90EF90089553
:1039E00085FDE1CF10E000E0F3CFAF92BF92CF9220
:1039F000DF92EF92FF920F931F93CF93DF938C018F
:103A00007B01DC01AD90BC900E94B71CEC010097DB
:103A100081F0F701C080D180E280F380B5010E947F
:103A2000220F8C8180788C608C83C882D982EA8254
:103A3000FB82D801ED91FC9180E0309719F08281F2
:103A400091E08927DF91CF911F910F91FF90EF9027
:103A5000DF90CF90BF90AF9008951F920F920FB656
:103A60000F9211240BB60F922F933F934F935F93B6
:103A70006F937F938F939F93AF93BF93EF93FF9336
:103A80008091B900887F803609F44DC008F040C0AD
:103A9000883209F4A9C028F5803109F49DC0C8F422
:103AA000882309F4FBC0883009F496C0FF91EF9198
:103AB000BF91AF919F918F917F916F915F914F9146
:103AC0003F912F910F900BBE0F900FBE0F901F9044
:103AD0001895883109F488C0803241F78093DB0360
:103AE00014C0803409F49DC040F48033B9F38833A6
:103AF000E9F68093DB0385ECB0C0803509F485C01E
:103B0000883509F496C0883489F60E947017CECFA4
:103B1000883909F48CC038F5883729F050F4883694
:103B200011F0803719F683E08093DD031092900343
:103B300057C0883809F47BC0803919F0803809F003
:103B4000B5CF80919003803208F071C0E09190036E
:103B500081E08E0F809390038091BB00F0E0E059EC
:103B6000FC4F80833DC0803B39F0E0F4803A09F49B
:103B700079C0883A09F09ACF84E08093DD031092EF
:103B80006F0310926E03E091B103F091B2031995A7
:103B900080916E0381110FC081E080936E031092BB
:103BA0004E0309C0803C09F4A6CF883C09F4A3CF9A
:103BB000883B09F07BCFE0916F0381E08E0F80930B
:103BC0006F03F0E0E25BFC4F80818093BB0090913B
:103BD0006F0380916E0329C08091B8038093BB006E
:103BE00085EC8093BC0062CF9091DA038091D90379
:103BF000981758F5E091DA0381E08E0F8093DA038D
:103C0000F0E0E754FC4F8081E9CFE091DA0381E0F6
:103C10008E0F8093DA038091BB00F0E0E754FC4FF5
:103C200080839091DA038091D9039817C8F285E8D0
:103C3000D8CFE091DA0381E08E0F8093DA03809190
:103C4000BB00F0E0E754FC4F80838091DC038111DE
:103C50005CCF81E08093B70384EA8093BC0010922C
:103C6000DD0324CF85EC8093BC001092DD038091AE
:103C70009003803230F4E0919003F0E0E059FC4F83
:103C800010826091900370E0E091B303F091B4036F
:103C900080E793E019951092900308CF1092DB0310
:103CA00034CF1F920F920FB60F9211242F933F9390
:103CB0008F939F93AF93BF93809145039091460359
:103CC000A0914703B09148033091440323E0230FB0
:103CD0002D3758F50196A11DB11D20934403809303
:103CE000450390934603A0934703B0934803809104
:103CF000490390914A03A0914B03B0914C03019664
:103D0000A11DB11D8093490390934A03A0934B03D7
:103D1000B0934C03BF91AF919F918F913F912F91A1
:103D20000F900FBE0F901F90189526E8230F029654
:103D3000A11DB11DD2CF1F920F920FB60F92112469
:103D40000BB60F922F933F934F935F936F937F9395
:103D50008F939F93AF93BF93EF93FF9380910B0348
:103D600090910C03A0910D03B0910E03892B8A2B27
:103D70008B2BD1F190910A038091000089278093C9
:103D8000000080910B0390910C03A0910D03B09162
:103D90000E03181619061A061B069CF480910B03D5
:103DA00090910C03A0910D03B0910E030197A1090E
:103DB000B10980930B0390930C03A0930D03B09370
:103DC0000E03FF91EF91BF91AF919F918F917F91E2
:103DD0006F915F914F913F912F910F900BBE0F907C
:103DE0000FBE0F901F90189580910002ECE3F2E057
:103DF000E4919FEF90930002E230E9F040F4EE236B
:103E000089F0E13091F060E00E94F803DACFE4300D
:103E100049F110F1E530B9F7909173009D7F9093CF
:103E20007300F1CF10926E00EECF90916F009D7FE6
:103E300090936F00E8CF909170009D7F90937000F9
:103E400091E09093B0009091B100987F946090932E
:103E5000B1001092B300D7CF909171009D7F9093E5
:103E60007100D1CF909172009D7F90937200CBCF63
:103E70001F920F920FB60F9211240BB60F922F9331
:103E80003F934F935F936F937F938F939F93AF93E2
:103E9000BF93EF93FF9383E194E00E94AE08FF91FC
:103EA000EF91BF91AF919F918F917F916F915F91B2
:103EB0004F913F912F910F900BBE0F900FBE0F901F
:103EC0001F9018951F920F920FB60F9211240BB6E8
:103ED0000F922F938F939F93EF93FF93E09123047F
:103EE000F09124048081E0912904F0912A0482FD5C
:103EF0001DC0908180912C048F5F8F7320912D04C1
:103F0000821741F0E0912C04F0E0ED5EFB4F958FBD
:103F100080932C04FF91EF919F918F912F910F909F
:103F20000BBE0F900FBE0F901F9018958081F2CF9F
:103F30001F920F920FB60F9211240BB60F922F9370
:103F40003F934F935F936F937F938F939F93AF9321
:103F5000BF93CF93DF93EF93FF9380910903C091B9
:103F6000EC04D0E087FF23C01092850010928400FB
:103F7000809109038F5F8093090380910903082EC4
:103F8000000C990B8C179D0724F4809109038C3049
:103F900074F1809184009091850084349C4908F4E8
:103FA00065C08091840090918500049661C08091E5
:103FB0000903082E000C990B8C179D07CCF6309145
:103FC000090325E03203F0011124E055FB4F808105
:103FD00086FFCECF309109033203F0011124E05562
:103FE000FB4F808160E08F730E94F803C1CF809106
:103FF0008400909185003091090325E03203F0019F
:104000001124E055FB4F41815281840F951F9093FD
:10401000890080938800309109033203F001112454
:10402000E055FB4F808186FF0CC0309109033203BD
:10403000F0011124E055FB4F808161E08F730E94F5
:10404000F803FF91EF91DF91CF91BF91AF919F91D5
:104050008F917F916F915F914F913F912F910F9031
:104060000BBE0F900FBE0F901F90189580E49CE937
:1040700090938900809388008FEF80930903E1CFAC
:1040800010920A041092090488EE93E0A0E0B0E0D8
:1040900080930B0490930C04A0930D04B0930E0432
:1040A0002BE232E0309308042093070410921604A8
:1040B000109215048093170490931804A093190488
:1040C000B0931A048DE392E0909314048093130448
:1040D00085EC90E09093200480931F0484EC90E0A2
:1040E000909322048093210480EC90E09093240428
:1040F0008093230481EC90E0909326048093250420
:1041000082EC90E0909328048093270486EC90E062
:1041100090932A048093290410922C0410922D0469
:1041200010922E0410922F0483E393E3A3E3BFE3E2
:1041300080939D0590939E05A0939F05B093A00545
:104140008DEC9CECACE4BEE38093A1059093A205BA
:10415000A093A305B093A40580E090E0A0E8BFE39E
:104160008093A5059093A605A093A705B093A805F5
:104170001092A9051092AA051092AB051092AC05F9
:104180008CE080936F0584E28093700585E08093D6
:10419000710596E0909372059EE1909373059FE1FF
:1041A0009093740592E29093750593E2909376054F
:1041B00094E49093770595E49093780510927A05AE
:1041C0001092790590E490937C05109281051092ED
:1041D0008205109283051092840510928505109235
:1041E0008605109287051092880598E0E9E0F2E0D4
:1041F000A1E9B5E001900D929A95E1F740E050E019
:1042000060EA70E44093990550939A0560939B058A
:1042100070939C05E091EC04EC3008F007C191E04C
:104220009E0F9093EC04E0936E058E9FF001112495
:10423000E055FB4F88EB9BE09283818388E6809377
:104240005F05109223051092240510922505109207
:104250002605109227051092280510922905109224
:104260002A0510922B0510922C0510922D05109204
:104270002E051092300510922F05109232051092E3
:1042800031051092340510923305109235051092C5
:1042900036051092370510923805109239051092A4
:1042A0003A05109247051092480510924905109260
:1042B0004A0510924B0510924C0510924D05109234
:1042C0004E0580E090E0A0EAB0E480934F05909323
:1042D0005005A0935105B093520580E090E0A8EC02
:1042E000B2E48093530590935405A0935505B09381
:1042F00056051092570510925805109259051092C4
:104300005A0510925B0510925C0510925D051092A3
:104310005E0584EE9BECA6E1B0EC809313059093D0
:104320001405A0931505B093160584EE9BECA6E149
:10433000B0E48093170590931805A0931905B093E6
:104340001A0510921B0510921C0510921D05109263
:104350001E058EE293EEADECB8E38093F3049093E8
:10436000F404A093F504B093F6041092F7041092AD
:10437000F8041092F9041092FA041092FB041092BF
:10438000FC041092FD041092FE041092FF0410929F
:10439000000510920105109202051092030510927B
:1043A000040510920505109206051092070510925B
:1043B00008051092090510920A0510920B0510923B
:1043C0000C0510920D0510920E0510920F0510921B
:1043D000100510921105109212051092EE04109221
:1043E000ED041092F0041092EF041092F204109277
:1043F000F10490E080E00E943E172091ED0430919E
:10440000EE04811117C02115310519F0C9010E9470
:104410007C301092EE041092ED041092F20410928F
:10442000F1041092F0041092EF0408958FEF80933E
:104430006E0504CF1092F2041092F1046BE572E065
:10444000C9010C94EF31CF93DF93CDB7DEB7CE54D3
:10445000D1090FB6F894DEBF0FBECDBF789484B5F6
:10446000826084BD84B5816084BD85B5826085BD70
:1044700085B5816085BD80916E00816080936E00FE
:1044800010928100809181008260809381008091F0
:1044900081008160809381008091800081608093A1
:1044A00080008091B10084608093B1008091B00061
:1044B00081608093B0008091910082608093910030
:1044C0008091910081608093910080919000816043
:1044D000809390008091A10082608093A1008091E0
:1044E000A10081608093A1008091A00081608093F1
:1044F000A00080912101826080932101809121019F
:10450000816080932101809120018160809320014E
:1045100080917A00846080937A0080917A00826032
:1045200080937A0080917A00816080937A008091F4
:104530007A00806880937A001092C100E091230491
:10454000F091240482E08083E0911F04F091200424
:104550001082E0912104F091220480E18083109286
:104560002B04E0912704F091280486E08083E091F9
:104570002504F0912604808180618083E0912504E8
:10458000F0912604808188608083E0912504F09179
:104590002604808180688083E0912504F0912604C0
:1045A00080818F7D808361E0809170050E9480040E
:1045B00060E0809170050E94F80360E080916F05D3
:1045C0000E9480048091790590917A05892BA9F445
:1045D00086E090E00E94E02FFC0180917C058083C2
:1045E00087E094E092838183138280E290E0958358
:1045F0008483F0937A05E0937905E0907905F09053
:104600007A051092B6031092B5031092E40310924B
:1046100006040E94410489EB92E09093B2038093D8
:10462000B1038AEB92E09093B4038093B30311E05B
:10463000D70113961C93C7010E94B407882309F47D
:104640005BC080E090E1A0E0B0E080937D059093B6
:104650007E05A0937F05B09380058AE090E0A0E0FE
:10466000B0E08093810590938205A0938305B09379
:10467000840580E090E0A0E0B0E48093850590930D
:104680008605A0938705B093880580917905909160
:104690007A051FA618AA19AA1AAA99A388A31BA269
:1046A0001AA219A785E090E09FA38EA31AA702E0A3
:1046B00008A740E050E160E070E0CE0180960E94E3
:1046C0001C078091790590917A05188A198A1A8AAF
:1046D0001B8A9A8389831C821B821A8718861F82F1
:1046E0001B8709874FE959E360E070E0CE0101962E
:1046F0000E941C0780937B0571E7E72E75E0F72E7B
:104700000FE615E0E0EC6E2EE2E07E2EF6E08F2E56
:10471000F3E09F2EABECCA2EA7E0DA2EBBE8AB2E5F
:10472000BB24B394F7019281D7018D917D01F801EB
:10473000828F938F61E00E94800461E0D8015B96D4
:104740008C910E948004F70195818381D8015E9647
:104750008C935E975F969C9361E00E94800460E07A
:10476000F801878D0E94800461E0D8015E968C91EB
:104770000E94F8035FB6F89480910F03811125C061
:10478000F3018491F4019491E82FF0E0EE0FFF1F04
:10479000E35CFD4FA591B4918C91982321F461E0E5
:1047A00085E30E94F80361E085E30E9480048CB5F4
:1047B00080618CBD8CB580648CBD61E084E30E9417
:1047C000800461E083E30E94800480910F038F5F87
:1047D00080930F035FBEC6010197F1F760E0D80137
:1047E0005E968C910E94F80388E80E94640A83E038
:1047F0000E94640A61E0F801868D0E94F803C601F8
:104800000197F1F760E0D8015E968C910E94F80361
:1048100088E90E94640A80E00E94640A80E00E94A5
:10482000640A80E00E94640A80E00E94640A61E0F9
:10483000F801868D0E94F803C5010197F1F760E049
:10484000D8015E968C910E94F80380EE0E94640A63
:1048500061E0F801868D0E94F8030E5F1F4FF5E0BE
:1048600003371F0709F05ECF60E08DE30E948004EC
:1048700060E080E10E94800460E08EE00E9480049D
:1048800060E081E10E94800460E08FE00E9480048B
:1048900061E080E20E9480040E94A3028C01C0902B
:1048A0001305D0901405E0901505F0901605A701AA
:1048B00096016091170570911805809119059091E6
:1048C0001A050E94032E4B015C01B801110F880BE1
:1048D000990B0E94852C9B01AC01C501B4010E947B
:1048E000E42C20E030EC4FE754E40E94872EA7012F
:1048F00096010E94042E60931B0570931C05809303
:104900001D0590931E0580E090E0A0E7B1E4809340
:10491000230590932405A0932505B093260580E0F8
:1049200090E0A0EAB0E48093270590932805A09337
:104930002905B0932A0580E090E0A0E0B0E48093E0
:104940002B0590932C05A0932D05B0932E058FE693
:1049500092E1A3E8BAE380934F0590935005A093AA
:104960005105B09352058AE090E0A0E0B0E080935A
:104970003F0590934005A0934105B09342058AE01E
:1049800097EDA3E2BCE380933B0590933C05A09395
:104990003D05B0933E058BE89BE0909330058093F6
:1049A0002F0589EE92E19093320580933105CE0177
:1049B00041962A969FAF8EAF2A970E94ED070091ED
:1049C0004003109141032091420330914303601B47
:1049D000710B820B930B693171058105910508F408
:1049E00077C68EE00E94CF03892B21F088E090E00B
:1049F0000E94FD1280E10E94CF03892B21F087E005
:104A000090E00E94FD1281E10E94CF03892BD9F032
:104A100089E090E00E94FD12E0913E03F0913F0397
:104A20003197E830F10508F091C08827E55EFA4D2E
:104A30008F4F0C94F22D2925CA254B26A6256226D8
:104A4000D026F226E7268FE00E94CF03892B01F7BC
:104A5000E3CF0E9427026B017C0120E030E0A90136
:104A60000E94DB2F18160CF04DC02DEC3CEC4CE4F2
:104A70005DE3C701B6010E947E2C87FD4EC0C09049
:104A80001305D0901405E0901505F0901605A701C8
:104A90009601609117057091180580911905909104
:104AA0001A050E94032E4B015C0160911F05709155
:104AB0002005072E000C880B990B0E94852C9B016A
:104AC000AC01C501B4010E94E42C20E030EC4FE7BA
:104AD00054E40E94872EA70196010E94042E209183
:104AE0001B0530911C0540911D0550911E050E942B
:104AF000032E2AE939E949E95EE30E94E42CAB017F
:104B0000BC01C3C02DEC3CEC4CE45DEBC701B6012D
:104B10000E94DB2F18160CF0B2CF0E94E4016B014B
:104B20007C0120E030E0A9010E94DB2F181634F54B
:104B30002DEC3CEC4CEC5DE3C701B6010E947E2CF1
:104B400087FF9DCF82E090E00E94FD12E0913E033E
:104B5000F0913F03EA30F10508F0BDC18827EC541D
:104B6000FA4D8F4F0C94F22D9E2B3F2510266F2B64
:104B7000FD26912B8A2BF826ED269E2B2DEC3CEC66
:104B80004CEC5DEBC701B6010E94DB2F18160CF050
:104B900076CFD8CF2091FB043091FC044091FD04E6
:104BA0005091FE046091FF04709100058091010511
:104BB000909102050E942F2F2091F3043091F4046C
:104BC0004091F5045091F6040E94E42C2091F704E2
:104BD0003091F8044091F9045091FA040E94042E97
:104BE0006B017C0120E030E0A9010E94DB2F181648
:104BF0006CF42AE037ED43E25CE3C701B6010E94A2
:104C00007E2C87FF0DC090E080E09ECF2AE037ED3C
:104C100043E25CEBC701B6010E94DB2F18169CF340
:104C20002091FB043091FC044091FD045091FE045E
:104C30006091FF047091000580910105909102053B
:104C40000E942F2F2091F3043091F4044091F50439
:104C50005091F6040E94E42C2091F7043091F8045E
:104C60004091F9045091FA040E94042E20E030E0B3
:104C7000A9010E947E2C4DEC5CEC6CEC7DEB87FF77
:104C800004C04DEC5CEC6CEC7DE370588BE895E077
:104C90000E943D0920C10E94ED0700911003109170
:104CA00011032091120330911303601B710B820BCF
:104CB000930B693E73408105910508F410C584E0AB
:104CC00090E042CF20E030E0A90160919D05709115
:104CD0009E0580919F059091A0050E947E2C87FFE4
:104CE0002DC020E030E0A9016091A5057091A605D6
:104CF0008091A7059091A8050E94DB2F1816F4F467
:104D000020E030E0A9016091A1057091A205809199
:104D1000A3059091A4050E94DB2F18167CF420E0D7
:104D200030E0A9016091A9057091AA058091AB05B9
:104D30009091AC050E947E2C87FD2FC02091FB0432
:104D40003091FC044091FD045091FE046091FF04F9
:104D50007091000580910105909102050E942F2F0E
:104D60002091F3043091F4044091F5045091F6043D
:104D70000E94E42C2091F7043091F8044091F9044A
:104D80005091FA040E94042E20E030E040E05FE3FE
:104D90000E94DB2F18160CF0C4C486E090E0D4CE3D
:104DA0000E94ED070091100310911103209112034E
:104DB00030911303601B710B820B930B693C7105DF
:104DC0008105910508F4A6C481E090E0BDCE8EE097
:104DD0000E94CF03892B09F416CF4DEC5CEC6CECF0
:104DE0007DE354CF80E10E94CF03892B09F40BCFE0
:104DF0004DEC5CEC6CEC7DEB49CF0E94ED07209113
:104E0000140330911503A9014C595F4F46175707FA
:104E100008F461C4621B730B90E080E00E94832C55
:104E200020E030E040E251E40E94872E4B015C011B
:104E30000E94702E2B013C01C501B4010E94732F0A
:104E40000E94002F6B0190E080E00E94832C9B0168
:104E5000AC01C501B4010E94032E4B015C01CC0CD6
:104E6000DD1CCC0CDD1CF601EC5EFC4F6F01AC01CF
:104E70009B0160E070E080E89FE30E94032ED60172
:104E800012962D913D914D915C9115970E94E42CC5
:104E90006B017C01C301B2010E94002F660F771FD6
:104EA000660F771F6C5E7C4FFB012281338144814A
:104EB0005581C501B4010E94E42C9B01AC01C701DE
:104EC000B6010E94042E60933505709336058093D9
:104ED0003705909338050E94A30220911F05309159
:104EE000200530932205209321059093200580937F
:104EF0001F0560E080918F050E94F80380E60E9404
:104F0000640A8E010F5F1F4F7801480180E00E9404
:104F1000640A90E0B0E0A0E0F70181939193A1933F
:104F2000B1937F012A968EAD9FAD2A978E179F076A
:104F300069F761E080918F050E94F803412C512CA4
:104F40003201F80181919191A191B1918F01762C5B
:104F5000652C542C4424480E591E6A1E7B1EEE16E6
:104F6000FF0679F72090FB043090FC04B091FD041B
:104F7000A091FE04F091FF04E0910005209101054D
:104F80002B962FAF2B97809102052F968FAF2F97DF
:104F900091014B2F5A2F6F2F7E2F2B968FAD2B9772
:104FA0002F969FAD2F97A0900305B0900405C09059
:104FB0000505D0900605E0900705F09008050091E2
:104FC000090510910A050E94FA2D20930B053093D4
:104FD0000C0540930D0550930E0560930F057093DB
:104FE00010058093110590931205209203053092CD
:104FF0000405B0930505A0930605F0930705E0931B
:1050000008052B96AFAD2B97A09309052F96BFAD42
:105010002F97B0930A057094609450944094411C6B
:10502000511C611C711CD301C201BB0F880B982F4E
:10503000DC014092FB045092FC046092FD047092EB
:10504000FE048093FF048093000580930105809304
:1050500002050E94ED070091470510914805209137
:10506000490530914A05601771078207930708F4D4
:105070005BC080913905882309F456C00E94ED0772
:1050800000913F0510914005209141053091420566
:10509000DC01CB01800F911FA21FB31F8093470536
:1050A00090934805A0934905B0934A05C0903505F3
:1050B000D0903605E0903705F0903805E0912F0547
:1050C000F091300519959B01AC01C701B6010E9412
:1050D000032E6B017C019F7720914F053091500585
:1050E00040915105509152050E947E2C87FF2BC3A1
:1050F00081E080933A0510923905E0913305F091F3
:105100003405309709F0199580914705909148052D
:10511000A0914905B0914A0580934B0590934C05A9
:10512000A0934D05B0934E0581E092E09A83898368
:105130001B821D821C82A6E0B0E0AC0FBD1FBF8B9E
:10514000AE8B188E84E0898F8FEF8A8F1F8E0E941E
:10515000ED076B017C0188A299A2ECEDF2E0FBA3C4
:10516000EAA3CE0180960E94B71C8C01009781F0C3
:10517000B4010E94220FD80114968C911497807864
:10518000886014968C93F801C082D182E282F38207
:10519000E0903E03F0903F0388A299A284EA92E057
:1051A0009BA38AA3CE0180960E94B71C8C01009716
:1051B000A1F0B4010E94220FD80114968C9114978B
:1051C00080788A6014968C93C701FF0CAA0BBB0BE6
:1051D000F80180839183A283B3838091230590910A
:1051E0002405A0912505B091260588A399A3AAA31B
:1051F000BBA38BAA9CAA87E992E09EAB8DABBE01B4
:10520000605E7F4FCE01C3960E94F51C80912705FA
:1052100090912805A0912905B0912A0588A399A30A
:10522000AAA3BBA38BAA9CAA8AE992E09EAB8DABF2
:10523000BE01605E7F4FCE01C3960E94F51C809137
:105240002B0590912C05A0912D05B0912E0588A3DA
:1052500099A3AAA3BBA38BAA9CAA8DE992E09EABBB
:105260008DABBE01605E7F4FCE01C3960E94F51CE0
:105270008091350590913605A0913705B09138059C
:1052800088A399A3AAA3BBA38BAA9CAA86EA92E0AF
:105290009EAB8DABBE01605E7F4FCE01C3960E9478
:1052A000F51C2091FB043091FC044091FD045091C9
:1052B000FE046091FF0470910005809101059091BA
:1052C00002050E942F2F2091F3043091F4044091A5
:1052D000F5045091F6040E94E42C2091F7043091DB
:1052E000F8044091F9045091FA040E94042E68A336
:1052F00079A38AA39BA38BAA9CAA8AEA92E09EAB7D
:105300008DABBE01605E7F4FCE01C3960E94F51C3F
:105310002091FB043091FC044091FD045091FE0467
:105320006091FF0470910005809101059091020544
:10533000A0900305B0900405C0900505D090060527
:10534000E0900705F09008050091090510910A0505
:105350000E94FA2D0E942F2F2091F3043091F40423
:105360004091F5045091F6040E94E42C68A379A3BF
:105370008AA39BA38BAA9CAA89EA92E09EAB8DABE1
:10538000BE01605E7F4FCE01C3960E94F51C209146
:10539000FB043091FC044091FD045091FE046091A7
:1053A000FF04709100058091010590910205A09085
:1053B0000305B0900405C0900505D0900605E09067
:1053C0000705F09008050091090510910A050E9453
:1053D000FA2DA0900B05B0900C05C0900D05D09053
:1053E0000E05E0900F05F090100500911105109149
:1053F00012050E94FA2D0E942F2F2091F304309164
:10540000F4044091F5045091F6040E94E42C68A342
:1054100079A38AA39BA38BAA9CAA88EA92E09EAB5D
:105420008DABBE01605E7F4FCE01C3960E94F51C1E
:105430000E94E40168A379A38AA39BA38BAA9CAAD8
:105440008DEA92E09EAB8DABBE01605E7F4FCE01D8
:10545000C3960E94F51C0E94270268A379A38AA321
:105460009BA38BAA9CAA8CEA92E09EAB8DABBE015B
:10547000605E7F4FCE01C3960E94F51CF0903A0506
:1054800088A299A284EB92E09BA38AA3CE01809686
:105490000E94B71C8C01009769F0B4010E94220F92
:1054A000D80114968C9114978078866014968C930A
:1054B0001497FC928091790590917A051FA618AAFD
:1054C00019AA1AAA99A388A31BA21AA211E019A7C4
:1054D00082E090E09FA38EA31AA702E008A7BE0176
:1054E0006D5C7F4FCE0180960E94331180937B05C7
:1054F000EBA8FCA883E0F694E7948A95E1F7EE0C1C
:10550000FF1CEE0CFF1C8091790590917A051FA677
:1055100018AA19AA1AAA99A388A31BA21AA219A7A2
:1055200081E090E09FA38EA31AA708A7BE016D5C3F
:105530007F4FCE0180960E94331180937B056BA92B
:105540007CA9072E000C880B990B0E94852C2AE061
:1055500037ED43E25CE30E94E42C20E030E04AE7D0
:1055600054E40E94872E2B013C01B701FF0C880BED
:10557000990B0E94852C2FE632E143E85AE30E9402
:10558000E42C9B01AC01C301B2010E94042E68A36C
:1055900079A38AA39BA38BAA9CAA8FEA92E09EABD5
:1055A0008DABBE01605E7F4FCE01C3960E94F51C9D
:1055B0008091790590917A0526961CAE1DAE1EAE9F
:1055C0001FAE26979CAB8BAB1EAA1DAA1CAF85E015
:1055D00090E09AAF89AF1DAF0BAF40917D05509120
:1055E0007E0560917F0570918005CE01C3960E9473
:1055F0001C078091790590917A051FA618AA19AA0F
:105600001AAA99A388A31BA21AA219A784E090E062
:105610009FA38EA31AA708A7BE016A5B7F4FCE0186
:1056200080960E94331180937B0528966EAD7FADE6
:105630002897072E000C880B990B0E94852C6B0174
:105640007C01609181057091820580918305909124
:1056500084050E94832C9B01AC01C701B6010E9406
:10566000872E20E030E04AE754E40E94872E68A3AA
:1056700079A38AA39BA38BAA9CAA81EB92E09EAB01
:105680008DABBE01605E7F4FCE01C3960E94F51CBC
:1056900083E194E099A388A31BA21AA28CA29DA2E5
:1056A000BE01605E7F4FCE014B960E94601486E67D
:1056B00092E00E94F012C4010E94D90E0E94ED07F0
:1056C000609340037093410380934203909343039C
:1056D0000E948A1C72C960E070E0CB01F4CB40E00C
:1056E00050E060E070E88BE895E00E943D090E9480
:1056F000ED070091100310911103209112033091D6
:105700001303601B710B820B930B643F7140810587
:10571000910510F460E001C061E080E20E94F803AE
:10572000DACB80E090E0A0E0B0E480933505909380
:105730003605A0933705B0933805CDCB40E050E057
:1057400060E070E8A3CA00913105109132050E9413
:10575000ED0740904B0550904C0560904D057090C2
:105760004E0564197509860997096093430570937E
:105770004405809345059093460520915705309147
:1057800058054091590550915A05C701B6010E942C
:10579000042E609357057093580580935905909394
:1057A0005A054090530550905405609055057090EF
:1057B0005605A30192010E94DB2F181644F4409273
:1057C0005705509258056092590570925A0577FA1C
:1057D000709477F87094A3019201609157057091CD
:1057E00058058091590590915A050E947E2C87FF9B
:1057F00008C0409257055092580560925905709222
:105800005A0540903B0550903C0560903D057090D6
:105810003E0520915705309158054091590550910A
:105820005A0560912705709128058091290590916E
:105830002A050E94E42CA30192010E94E42C2E96DA
:105840006CAF7DAF8EAF9FAF2E9720912305309127
:1058500024054091250550912605C701B6010E94F7
:10586000E42C9B01AC012E966CAD7DAD8EAD9FAD51
:105870002E970E94042E2E966CAF7DAF8EAF9FAFF9
:105880002E9720915B0530915C0540915D0550910C
:105890005E05C701B6010E94032E20912B053091B1
:1058A0002C0540912D0550912E050E94E42CA3015A
:1058B00092010E94872E9B01AC012E966CAD7DADAE
:1058C0008EAD9FAD2E970E94042EC0925B05D092A4
:1058D0005C05E0925D05F0925E05F801199514CC27
:1058E0008091ED049091EE04009711F00E947C30BD
:1058F0008091790590917A050C947C300E94C02C9F
:1059000008F481E00895E89409C097FB3EF490956F
:105910008095709561957F4F8F4F9F4F9923A9F088
:10592000F92F96E9BB279395F69587957795679517
:10593000B795F111F8CFFAF4BB0F11F460FF1BC05B
:105940006F5F7F4F8F4F9F4F16C0882311F096E9EE
:1059500011C0772321F09EE8872F762F05C066239C
:1059600071F096E8862F70E060E02AF09A95660F55
:10597000771F881FDAF7880F9695879597F908950E
:10598000990F0008550FAA0BE0E8FEEF1616170650
:10599000E807F907C0F012161306E407F50798F0B8
:1059A000621B730B840B950B39F40A2661F0232BD1
:1059B000242B252B21F408950A2609F4A140A6954D
:1059C0008FEF811D811D08950E94F72C0C94682D86
:1059D0000E945A2D38F00E94612D20F0952311F07D
:1059E0000C94512D0C94572D11240C949C2D0E9435
:1059F000792D70F3959FC1F3950F50E0551F629F6D
:105A0000F001729FBB27F00DB11D639FAA27F00D17
:105A1000B11DAA1F649F6627B00DA11D661F829F3E
:105A20002227B00DA11D621F739FB00DA11D621F23
:105A3000839FA00D611D221F749F3327A00D611D40
:105A4000231F849F600D211D822F762F6A2F112422
:105A50009F5750409AF0F1F088234AF0EE0FFF1F55
:105A6000BB1F661F771F881F91505040A9F79E3FAC
:105A7000510580F00C94512D0C949C2D5F3FE4F364
:105A8000983ED4F3869577956795B795F795E79502
:105A90009F5FC1F7FE2B880F911D9695879597F90B
:105AA000089597F99F6780E870E060E008959FEFA0
:105AB00080EC089500240A941616170618060906A5
:105AC000089500240A941216130614060506089574
:105AD000092E0394000C11F4882352F0BB0F40F4FC
