:100000000C94D2010C9403020C9403020C9403028E
:100010000C9403020C9403020C9403020C9403024C
:100020000C9403020C9403020C9403020C9403023C
:100030000C9403020C948A1D0C9403020C9403028A
:100040000C9403020C94871E0C9403020C9403027C
:100050000C9403020C9403020C9403020C94401DB4
:100060000C9403020C94511E0C94271E0C94030252
:100070000C9403020C9403020C9403020C940302EC
:100080000C9403020C9403020C9403020C940302DC
:100090000C9403020C9403020C9403020C941C1C99
:1000A0000C9403020C9403020C9403020C940302BC
:1000B0000C9403020C9403020C9403020C940302AC
:1000C0000C9403020C9403020C9403020C9403029C
:1000D0000C9403020C9403020C9403020C9403028C
:1000E0000C94030205A84CCDB2D44EB93836A902FF
:1000F0000C50B9918688083CA6AAAA2ABE00000026
:10010000803F0C945F020C9411030C9438090C94FA
:10011000AF070C940D030C945C090C941A090C9411
:10012000290B0C9437020C9448090C9415030C9479
:100130007F070C94972A0C94D72A0C943A030C94BA
:1001400028030C9415090C943E030C94370B0C9463
:100150008A2A0C94820B0C945E250C9442260C94F3
:10016000AC070C9430030C9440090C9436030C94A7
:1001700018080C9465080C9456160C941E030C94E5
:1001800052090C9404090C94C3160C9448030C9463
:1001900064260C94832A0C942B260C9460020C94F5
:1001A00022030C94E5290C94E0070C945D2A0C942E
:1001B000092A0C94A8120C9489020C949D090C94A1
:1001C00076070C9403030C9443030C9482020C9462
:1001D0003C2A0C9466090C9487160C946F020C94BC
:1001E000DF250C940D260C94522A0C9409030C94D0
:1001F000D1290C94A62B0C94682A0C942F1F0C94D4
:1002000018030C9493090C9475090C948C260C9487
:100210007F090C9436020C94A7090C94DC2A0C94E8
:100220002C030C9424090C9444030C94B6020C94F3
:10023000372A0C942E090C94582A0C94BE070C945F
:1002400089090C9479250C94D2070C94632ACDCC9F
:10025000CC3D0AD7233C17B7D13877CC2B329595B4
:10026000E6241FB14F0A000020410000C8420040B0
:100270001C4620BCBE4CCA1B0E5AAEC59D74020063
:10028000002100240027002A002D00300033000147
:10029000010000040107010A0100002200250028D6
:1002A000002B002E0031003400020100000501087F
:1002B000010B01000020002300260029002C002F44
:1002C00000320000010000030106010901050505D7
:1002D00005070508080808020202020A0A080804BD
:1002E00004040401010101010101010303030303EB
:1002F000030303040707070C0C0C0C0C0C0C0C027A
:1003000002020206060606060606060B0B0B0B0B80
:100310000B0B0B0102102020080810204010204079
:1003200080020102010804020101020408102040B9
:1003300080804020100804020180040201804020D7
:100340001008040201080402010102040810204000
:1003500080010204081020408000000A0B02090CF2
:100360000D0E08070304010000000000000000005B
:10037000000000000000000000000000000000007D
:10038000000000000012111000000000000000003A
:10039000000000000000000000000000000000005D
:1003A0002F1FA62B11241FBECFEFD1E2DEBFCDBF82
:1003B00000E00CBF12E0A0E0B2E0E6E1F2E600E00F
:1003C0000BBF02C007900D92A83EB107D9F725E0F8
:1003D000A8EEB2E001C01D92A437B207E1F711E028
:1003E000C1EDD1E000E006C021970109802FFE0198
:1003F0000E94282DC03DD10780E00807A9F70E9480
:1004000003210C94F9300C940000CF93DF93EC019E
:1004100088819981DC01ED91FC910190F081E02DC2
:1004200064E270E01995009741F02FE1FC0123830D
:1004300021E02283DF91CF91089521E02A83FACF32
:1004400080917B00877F80937B0087E480937C0092
:1004500080917A00806480937A0080917A0086FD92
:10046000FCCF8091780090917900089508950895C7
:1004700020914003260F3327331F21323105ECF43E
:100480002091AF03FC0190E080E0243069F082E02D
:100490000895A09140032191AC01405E5C4FA40FF0
:1004A000B52FB11D2C930196861798F380914003C8
:1004B000680F6093400380E0089581E008950895F7
:1004C000E091880380918703E81730F4F0E0ED595C
:1004D000FC4F808190E008958FEF9FEF08959091F9
:1004E0008803809187032FEF3FEF981748F4E92F97
:1004F000F0E0ED59FC4F208130E09F5F909388033E
:10050000C90108958091870390918803891B990BF5
:100510000895CF92DF92EF92FF920F931F93CF93A4
:10052000DF937C01CB018A012091B503222389F05E
:10053000EB016B01C40ED51ECC15DD0569F0699188
:10054000D701ED91FC910190F081E02DC701199543
:10055000F3CF642F0E943802C801DF91CF911F9121
:100560000F91FF90EF90DF90CF900895CF93DF939E
:100570001F92CDB7DEB769832091B5032223F9F02E
:100580002091D803203258F021E030E0FC01338381
:10059000228390E080E00F90DF91CF9108958091C9
:1005A000B603E82FF0E0E954FC4F998190838F5F08
:1005B0008093B6038093D80381E090E0ECCF61E0B4
:1005C000CE0101960E943802F7CF8150823108F0A7
:1005D0005AC0E82FF0E08827EF50FD4F8F4F0C9462
:1005E000282D11031503030309030D034303180307
:1005F0001E03220328032C03300336033A0343036C
:100600003E0344034803809180008F7780938000ED
:100610000895809180008F7DF9CF80918000877F41
:10062000F5CF84B58F7784BD089584B58F7DFBCFDA
:100630008091B0008F778093B00008958091B000D2
:100640008F7DF9CF809190008F77809390000895EF
:10065000809190008F7DF9CF80919000877FF5CFBA
:100660008091A0008F778093A00008958091A000D2
:100670008F7DF9CF8091A000877FF5CF80912001F9
:100680008F77809320010895809120018F7DF9CF8D
:1006900080912001877FF5CFCF93DF93282F30E023
:1006A000F901E75AFC4F8491F901ED5EFC4FD491BA
:1006B000F901E353FD4FC491CC23A1F081110E94B5
:1006C000E502EC2FF0E0EE0FFF1FED54FD4FA5917A
:1006D000B491EC91ED2381E090E009F480E0DF91AA
:1006E000CF91089580E090E0FACF1F93CF93DF93EE
:1006F000282F30E0F901E75AFC4F8491F901ED5EB3
:10070000FC4FD491F901E353FD4FC491CC23A9F0E0
:10071000162F81110E94E502EC2FF0E0EE0FFF1F73
:10072000E756FD4FA591B4918FB7F894EC91111154
:1007300008C0D095DE23DC938FBFDF91CF911F914E
:100740000895DE2BF8CFFC0183858F3F19F061E01F
:100750000C9475030895FC0180819181892B39F0F7
:10076000A281B3819C9111968C919CBD8DBD838596
:100770008F3F19F060E00C94750308951092AF0359
:1007800081E08093AE031092890361E084E10E94CE
:10079000750361E085E10E947503E9EBF0E080817B
:1007A0008E7F808380818D7F808388E48093B800F2
:1007B00085E48093BC000895CF93DF9391E09093FC
:1007C0001F038823B9F0C091B800D091BA0080917E
:1007D000BC008A7B8093BC0060E084E10E947503CA
:1007E00060E085E10E9475030E94BE03D093BA00C9
:1007F000C093B800DF91CF910895CF93DF9390E03D
:10080000FC01ED5EFC4F249183539D4FFC018491CC
:100810008823D1F090E0880F991FFC01E158FD4F2B
:10082000A591B491FC01E756FD4FC591D49161119A
:100830000EC09FB7F8948C91E22FE0958E238C9395
:100840002881E223E8839FBFDF91CF9108958FB77E
:10085000F894EC91E22BEC938FBFF6CF82309105A8
:1008600038F0880F991F880F991F05970197F1F7A6
:100870000895AF92BF92CF92DF92EF92FF920F93C3
:100880001F93CF93DF93EC0188819981892B89F0A5
:100890006EBD0DB407FEFDCFBEB48B2DDF91CF91A1
:1008A0001F910F91FF90EF90DF90CF90BF90AF908E
:1008B00008958885998511E0892B09F010E8AA240C
:1008C000A394862F812309F0A12C062F2C813D8132
:1008D0004E815F8160E271EA87E090E00E94E32C44
:1008E000F22EB02EE12CC22ED12CFF2019F0C60121
:1008F0000E942E048A85877F09F042C08D858F3F34
:1009000089F0902F912381E009F480E08A1551F05D
:10091000EF85F8898F89992369F19081892B8083EC
:10092000AA24A394E989FA898081998D892B8083EF
:10093000FF2019F0C6010E942E048E858F3F39F0EA
:10094000EB89FC898081988D892309F0E12AE98966
:10095000FA899081898D8095892380838E858F3F48
:1009600009F0BE2C88859985892BB9F5110F1111D5
:10097000BCCF93CF9081809589238083A12CD2CF47
:10098000E989FA898081998D892B8083FF2019F06C
:10099000C6010E942E048D858F3F49F0EF85F889AE
:1009A0008F89902F9123A9F09081892B8083E989E9
:1009B000FA899081898D8095892380838E858F3FE8
:1009C00069F2EB89FC898081988D892339F2E12ACB
:1009D000C5CF908180958923E9CF1695C8CF8F9296
:1009E0009F92AF92BF92CF92DF92EF92FF920F93BE
:1009F0001F93CF93DF937C014B016A01B22EA32E8C
:100A00000E94AB03E401C80CD91CCC15DD0569F4C8
:100A1000CB2DDA2D0C0F1D1FC017D10759F06FEF2A
:100A2000C7010E9439048993F7CF6991C7010E94D9
:100A30003904EBCFC7010E94A30381E0DF91CF917E
:100A40001F910F91FF90EF90DF90CF90BF90AF90EC
:100A50009F908F9008958F929F92AF92BF92CF9266
:100A6000DF92EF92FF920F931F93CF93DF937C015E
:100A7000B62EA72E6A0149010E94AB03E401080DBE
:100A8000191DC017D10761F4CB2DDA2DCC0EDD1E58
:100A9000CC15DD0551F06991C7010E943904F8CFEA
:100AA0006991C7010E943904ECCFC7010E94A303DA
:100AB00081E0DF91CF911F910F91FF90EF90DF9038
:100AC000CF90BF90AF909F908F9008953FB7F894CC
:100AD00080911B0390911C03A0911D03B0911E03F4
:100AE00026B5A89B05C02F3F19F00196A11DB11D89
:100AF0003FBFBA2FA92F982F8827BC01CD01620FC5
:100B0000711D811D911D42E0660F771F881F991F7F
:100B10004A95D1F708958F929F92AF92BF92CF924C
:100B2000DF92EF92FF920F931F93CF93DF93D091B9
:100B3000D803D13208F0D7C0182FC091D7030E9434
:100B400066056B017C018091AF0381116BC082E06F
:100B50008093AF031093AE038FEF8093AD03109299
:100B6000AC03D093AB03A7EBB3E0EBE8F3E080E09A
:100B7000D81391C010928A0380918A03CC0FC82B9E
:100B8000C0938A0380918903813009F088C0109254
:100B900089030E9466056B017C0180918A03809322
:100BA000BB008091B1039091B203A091B303B091C7
:100BB000B403892B8A2B8B2BA1F00E946605009130
:100BC000B1031091B2032091B3033091B4036C19B7
:100BD0007D098E099F09061717072807390708F4AA
:100BE00042C08091BC0083FDD8CF85EC8093BC00CF
:100BF0000E9466056B017C018091AF03823009F48D
:100C000050C08091AD038F3F09F46FC08091AD0358
:100C1000803209F46CC08091AD03803309F469C05F
:100C200084E026C08091B1039091B203A091B303F8
:100C3000B091B403892B8A2B8B2B09F484CF0E94AB
:100C400066058090B1039090B203A090B303B0907A
:100C5000B4036C197D098E099F0986169706A806AC
:100C6000B90608F070CF8091B0030E94DC0385E0E4
:100C70001092B6031092D8031092B503DF91CF9172
:100C80001F910F91FF90EF90DF90CF90BF90AF90AA
:100C90009F908F9008959D9191938F5F69CF85EE7E
:100CA000A5CF8091B1039091B203A091B303B0910D
:100CB000B403892B8A2B8B2B09F49ECF0E946605E7
:100CC0000091B1031091B2032091B3033091B403AA
:100CD0006C197D098E099F09061717072807390720
:100CE00008F08ACFC0CF81E0C3CF80E0C1CF82E0DF
:100CF000BFCF83E0BDCF1F93CF93DF93EA01122FC5
:100D0000DC0111968D919C91DC01ED91FC910280AA
:100D1000F381E02D1995C817D90729F4812F0E9476
:100D20008B0591E0811190E0892FDF91CF911F9188
:100D30000895CF92DF92EF92FF920F931F93CF937C
:100D4000DF931F921F92CDB7DEB7FC014787508B10
:100D5000618B728B8285882371F14487452F562FD2
:100D6000672F7727882349F143877F018BE0E80EBF
:100D7000F11C9681878199838A83C080D180C114B8
:100D8000D10409F443C0018510E098012E5F3F4F64
:100D9000D60114968D919C918217930780F480E080
:100DA0000F900F90DF91CF911F910F91FF90EF90D7
:100DB000DF90CF9008954387D1CF4487D6CFF601F7
:100DC00081819281208131E03093B5032093D70354
:100DD0001092B6031092D8030115110541F421E0D9
:100DE00042E050E0B701C6010E947B06D9CFDC018A
:100DF000ED91FC910280F381E02DA801BE016F5FAF
:100E00007F4F19950817190751F6E9CFA281B381D1
:100E1000109729F224813581018510E023303105B6
:100E200079F48E7F89839A830F5F1F4F9E012F5F16
:100E30003F4F42E050E0B701CD010E942B05B0CFFB
:100E40002115310519F49F779983F0CF22303105B0
:100E500011F49068F9CF2130310541F79F77906404
:100E6000F3CFCF93DF93EC018B818823A1F08881AE
:100E700091E09093B5038093D7031092B60310923C
:100E8000D80381E00E948B0591E0811190E0892FC9
:100E9000DF91CF91089510928803109287031092EA
:100EA000B6031092D8030E94BE0386E392E09093AB
:100EB00084038093830387E392E090938603809377
:100EC000850381E08B83CE010E943107982F811129
:100ED000CECFDDCF2FB7F894609117037091180330
:100EE0008091190390911A032FBF08956091E9042E
:100EF0007091EA048091EB049091EC040895AF9214
:100F0000BF92CF92DF92EF92FF920F931F93CF93F6
:100F1000DF936C017B018B01040F151FEB015E0158
:100F2000AE18BF08C017D10759F06991D601ED91ED
:100F3000FC910190F081E02DC6011995892B79F77C
:100F4000C501DF91CF911F910F91FF90EF90DF903E
:100F5000CF90BF90AF90089590E080E00895FC019D
:100F6000538D448D252F30E0842F90E0821B930B0E
:100F7000541710F0CF96089501970895FC01918DB4
:100F8000828D981761F0A28DAE0FBF2FB11D5D96B7
:100F90008C91928D9F5F9F73928F90E008958FEF59
:100FA0009FEF0895FC01918D828D981731F0828D0D
:100FB000E80FF11D858D90E008958FEF9FEF089564
:100FC000FC01918D228D892F90E0805C9F4F821BC8
:100FD00091098F739927089585EE93E00E94E007A9
:100FE00021E0892B09F420E0822F0895FC01A48DD3
:100FF000A80FB92FB11DA35ABF4F2C91848D90E03B
:1010000001968F739927848FA689B7892C93A0891D
:10101000B1898C91837080648C93938D848D9813A7
:1010200006C00288F389E02D80818F7D808308953A
:10103000EF92FF920F931F93CF93DF93EC0181E028
:10104000888F9B8D8C8D98131AC0E889F9898081CF
:1010500085FF15C09FB7F894EE89FF896083E88902
:10106000F98980818370806480839FBF81E090E0F4
:10107000DF91CF911F910F91FF90EF900895F62E81
:101080000B8D10E00F5F1F4F0F731127E02E8C8D1B
:101090008E110CC00FB607FCFACFE889F989808160
:1010A00085FFF5CFCE010E94F607F1CFEB8DEC0F57
:1010B000FD2FF11DE35AFF4FF0829FB7F8940B8F7D
:1010C000EA89FB8980818062CFCFCF93DF93EC01E7
:1010D000888D8823B9F0AA89BB89E889F9898C9120
:1010E00085FD03C0808186FD0DC00FB607FCF7CFDC
:1010F0008C9185FFF2CF808185FFEDCFCE010E94DC
:10110000F607E9CFDF91CF9108958F929F92AF922A
:10111000BF92CF92DF92EF92FF920F931F93CF93E4
:10112000DF93EC016A017B0120E030E04FE753E4FC
:10113000CB01B6010E941A2C4B015C0120E030E08B
:10114000A9010E944E2E18168CF5C501B4010E940B
:10115000182E8B01B98020E030E0A901C701B6014B
:101160000E944E2E60E018160CF061E08B2D0E945C
:1011700075030F3F110509F0ECF41127C88161E0F8
:101180008C2F0E94FD0301151105B9F460E08C2F2E
:10119000DF91CF911F910F91FF90EF90DF90CF9053
:1011A000BF90AF909F908F900C947503C501B401D0
:1011B0009058CDCF0FEF10E0E1CF0F3F110511F4A4
:1011C00061E0E5CFEC2FF0E0E75AFC4FE491E1500D
:1011D000E23108F0BCC0F0E08827EE50F74F8F4FA7
:1011E0000C94282D040915091A0924092E09A709A8
:1011F00038094009480952095C09660975097F09DF
:10120000A709890993099D0984B5806884BD07BD34
:10121000DF91CF911F910F91FF90EF90DF90CF90D2
:10122000BF90AF909F908F90089584B5806284BDE9
:1012300008BDEECF8091800080688093800010937D
:10124000890000938800E4CF8091800080628093C1
:10125000800010938B0000938A00DACF8091800089
:1012600088608093800010938D0000938C00D0CF15
:101270008091B00080688093B0000093B300C8CF25
:101280008091B00080628093B0000093B400C0CF22
:101290008091900080688093900010939900009353
:1012A0009800B6CF80919000806280939000109358
:1012B0009B0000939A00ACCF80919000886080934F
:1012C000900010939D0000939C00A2CF8091A000FD
:1012D00080688093A0008091A0008F7B8093A00005
:1012E0001093A9000093A80093CF8091A000806282
:1012F0008093A0001093AB000093AA0089CF809147
:10130000A00088608093A0001093AD000093AC0013
:101310007FCF809120018068809320011093290164
:101320000093280175CF8091200180628093200175
:1013300010932B0100932A016BCF809120018860CC
:101340008093200110932D0100932C0161CF003870
:1013500011050CF035CF1ACF8EBD00000DB407FE7D
:10136000FDCF8EB50895CF93DF93EC0160E08881C7
:101370000E94750388E90E94AC0980E00E94AC09D4
:1013800080E00E94AC0980E00E94AC0980E00E94ED
:10139000AC0961E088810E9475038BE891E00197B8
:1013A000F1F760E088810E94750380EE0E94AC092D
:1013B00061E08881DF91CF910C9475036F3FB1F0AC
:1013C000E62FE295EF7044E0E49F90011124DC01E8
:1013D000ED91FC91E20FF31F6F70B8E06B9FC001BD
:1013E000112462817381860F971F089590E080E039
:1013F0000895CF93DF93EC0188819981DC01ED9111
:10140000FC910190F081E02D19952A813B81820F9A
:10141000931F9B838A83DF91CF910895982F803308
:101420006CF08A3324F08F3524F08B3724F481E07C
:10143000089581341CF081E09B350CF080E0089524
:10144000CF93DF93EC0188819981DC01ED91FC91D0
:101450000280F381E02D19952A813B81820F931F31
:101460009B838A83DF91CF9108958F929F92AF9251
:10147000BF92CF92DF92EF92FF920F931F93CF9381
:10148000DF93CDB7DEB766970FB6F894DEBF0FBE19
:10149000CDBF6C018E01095E1F4F78018AE0882E56
:1014A000912CA12CB12CCB01BA01A50194010E9471
:1014B000E32C942F852F605DF80162938F01A901C1
:1014C000692F782F411551056105710561F7A70155
:1014D0004E1B5F0BBF01C6010E94200A66960FB625
:1014E000F894DEBF0FBECDBFDF91CF911F910F915A
:1014F000FF90EF90DF90CF90BF90AF909F908F9034
:101500000895FC018485811114C0A781B08581856F
:1015100092852FEF3FEFA817B90730F4CD01019660
:10152000908787832C9130E037FD20E0238781E08E
:101530008487838508951F93CF93DF93EC01162F43
:101540000E94810A811306C01C8681E0DF91CF9141
:101550001F91089580E0FACF0F931F93CF93DF93ED
:101560008C01EB018991882369F0C8010E94810AEE
:10157000882379F0FE013197908198130DC0F8010E
:101580001486F0CF90E080E0DF91CF911F910F9112
:10159000089582E090E0F8CF83E090E0F5CFCF931C
:1015A000DF93EC01CE010E94810A8B304CF489302C
:1015B0005CF4882359F081E08E8390E080E00BC0DA
:1015C0008D3011F08032B9F71C86ECCF8E818111FD
:1015D00005C081E090E0DF91CF91089582E090E036
:1015E000FACFDC01ED91FC91309731F094819F7737
:1015F00081E019F080E0089581E008950F931F9332
:10160000CF93DF93EC0180911003909111030C971D
:1016100041F4209709F476C0DF91CF911F910F918B
:101620000895CD30D10508F05BC0FE018827E45E47
:10163000F44F8F4F0C94282D820B370B820B820BAB
:10164000290B370B370B370B820B820B820B820B6C
:10165000820B8FEF9FEF9093020280930102109212
:1016600009031092080310920B0310920A03809151
:10167000110590911205892B99F180911305909194
:101680001405892B69F181E080931B050E946A078C
:101690000091210510912205209123053091240508
:1016A000DC01CB01800F911FA21FB31F809329057E
:1016B00090932A05A0932B05B0932C0510921C053E
:1016C0001092390510923A0510923B0510923C0594
:1016D00010923D0510923E0510923F051092400574
:1016E000D0931103C0931003259709F495CF0E945E
:1016F0006A0760930C0370930D0380930E0390931D
:101700000F038ACF10921B05EBCF4F925F926F921F
:101710007F928F929F92AF92BF92CF92DF92EF9281
:10172000FF920F931F93CF93DF93EB01DC012C917A
:101730002B32D9F12D32D1F50196FF24F394FC011F
:10174000208130ED320F3A3018F02E3209F042C1CC
:101750008C0160E070E0CB01F801219130ED832E27
:10176000820E39E0381520F16A3949E97407840797
:1017700049E1940738F5AAE0B0E09B01AC010E9472
:10178000D82C912CB12CA12C2401350140945094DB
:1017900060947094461657066806790698F0680DAE
:1017A000791D8A1D9B1D8F01D7CF0196F12CC7CFC4
:1017B000211108C0FF20E9F161307105810550E871
:1017C0009507A0F0E12CBAE08B2E912CA12CB12C26
:1017D0006115710530E883079105B0F1A501940109
:1017E0000E94E32CCA01B901E394F2CF2C81207846
:1017F0002A602C839B01AC0188279927DC01821B7E
:10180000930BA40BB50B88839983AA83BB838F2D7D
:10181000DF91CF911F910F91FF90EF90DF90CF90CC
:10182000BF90AF909F908F907F906F905F904F9000
:1018300008952C81207828602C83688379838A839B
:101840009B83FF24F394E3CFF801D8012D918D0100
:1018500030ED320F3A3010F4E394F6CF2E3201F52A
:101860008F010F5F1F4FF8010F5F1F4F2081A0ED09
:10187000DA2ED20EB9E0BD1598F06C3CECEC7E0788
:10188000ECE08E07910578F7AAE0B0E09B01AC018F
:101890000E94D82C6D0D711D811D911DEA94E3CF1E
:1018A00020812F7D10E000E0253409F05BC021810C
:1018B0002D32D1F53296CC24C394DF0110E000E044
:1018C0002E2D0E2C000C330B5AE0B52EFD01DD90B1
:1018D00040ED4D0D4A3008F040C0B09EA001B19ED1
:1018E000500D11240D2DDD0C110B00531109040FA7
:1018F000151FA801420F531F473251053CF38C813D
:10190000CC20C9F040E050E060E070E8F11003C086
:1019100040E050E0BA0180788C608C834883598322
:101920006A837B83FC2C73CF2B3219F03196C12C48
:10193000C4CF3296FCCF40E050E060E87FEFF1107A
:1019400004C040E050E060E87FE780788C608C83E2
:10195000488359836A837B8374CFCC2019F0119517
:10196000019511092081211135C00E0D111DE7FCD3
:101970001A950E94B92B36E6C32E32E0D32E1016EC
:1019800011063CF01195019511094EE4C42E42E078
:10199000D42EE12C0115110591F000FF0CC024E0BC
:1019A000E29EF0011124EC0DFD1D2591359145912C
:1019B00054910E941A2C15950795E394EBCFF110E2
:1019C00090582C8120782C602C83688379838A83BB
:1019D0009B8337CFF12C1BCFCF92DF92EF92FF92F8
:1019E000CF93DF9300D01F921F92CDB7DEB7FC01DB
:1019F00084818F778630D9F040F48430A9F1853026
:101A000009F43FC090E080E014C08A30F1F08C30DF
:101A100009F43FC08830B1F780819181A281B38100
:101A2000811520E89207A105B10560F702C0808109
:101A300090E00F900F900F900F900F90DF91CF914B
:101A4000FF90EF90DF90CF90089580819181A281E7
:101A5000B381AC01BD0150586F4F7F4F4115510507
:101A60006140710578F6E5CF808191811D82BE01CC
:101A70006F5F7F4F0E94850BCE0101960E94EC0C98
:101A8000D8CF808191811D82BE016F5F7F4F049608
:101A9000F1CFC080D180E280F38020E030E040E0F0
:101AA00057ECC701B6010E944E2E87FDABCF20E058
:101AB0003EEF4FEF56E4C701B6010E94B42B181653
:101AC0000CF4A0CFC701B6010E94182ECB01B1CFF4
:101AD000CF92DF92EF92FF92CF93DF9300D01F92CD
:101AE0001F92CDB7DEB7FC0184818F778630C1F0BD
:101AF00038F4843019F1853071F190E080E012C043
:101B00008A3021F08C3079F18830B9F78081918169
:101B1000A281B381009721E0A207B10518F0EDCFB3
:101B2000808190E00F900F900F900F900F90DF91B9
:101B3000CF91FF90EF90DF90CF90089580819181B9
:101B40001D82BE016F5F7F4F0E94850BCE01019603
:101B50000E94680DE7CF808191811D82BE016F5F79
:101B60007F4F0496F1CFC080D180E280F38020E0E7
:101B700030E0A901C701B6010E944E2E87FDBDCFFE
:101B800020E03FEF4FE757E4C701B6010E94B42BB6
:101B900018160CF4B2CFC701B6010E941F2ECB015C
:101BA000C1CFCF93DF9300D01F921F92CDB7DEB786
:101BB000FC0194819F77963091F030F4943020F5B9
:101BC00060E070E0CB0111C09A30B9F09C3051F167
:101BD0009830B1F7608171818281938104C0608106
:101BE00070E090E080E00E94B92B0F900F900F9072
:101BF0000F900F90DF91CF91089560817181828164
:101C000093810E94BB2BF1CF808191811D82BE0107
:101C10006F5F7F4F04960E94850BCE0101960E9454
:101C2000D10DE3CF6081718182819381DECFFC0190
:101C30009289915084E0989F90011124A089B189E4
:101C4000A20FB31F1296ED91FC9113973097E9F014
:101C500011962C9111978C912817B8F481E0820F7E
:101C600011968C9388E0289FA0011124E40FF51FA2
:101C7000309759F014828FEF858317821682BF0147
:101C8000892F8295807F820F089560E070E08FEF4A
:101C90000895DF92EF92FF920F931F93CF93DF93FC
:101CA000EC017B01D12C688979898A89D816E0F406
:101CB00084E0D89E80011124060F171FD8011296C8
:101CC0006D917C916115710541F0D701ED91FC9109
:101CD0000280F381E02DC7011995F8011382128269
:101CE00010821182D394DFCF1A8A8FEF8C8BC617A4
:101CF000D70761F0D701ED91FC910280F381E02DCF
:101D0000C7011995D98BC88B84E08B8BDF91CF915C
:101D10001F910F91FF90EF90DF900895DB01ED91FF
:101D2000FC9111970280F381E02DBC01CD01199443
:101D30000F931F93CF93DF93EC01088119818B815F
:101D40009C81009749F0FC01208131813C832B83E9
:101D5000B8010E948E0EF3CF68817981CE0105967D
:101D6000DF91CF911F910F910C94490ECF93DF9388
:101D7000EC01E881F981B0E0A0E03097F9F09F0133
:101D80002C5F3F4F62177307A1F4928191509283A9
:101D9000911114C080819181109741F08D939C9393
:101DA000BA01CF01DF91CF910C948E0E9983888375
:101DB000F7CFDF010190F081E02DDFCFDF91CF91F0
:101DC00008958F929F92AF92BF92CF92DF92EF923F
:101DD000FF920F931F93CF93DF938C01EB01FC01D4
:101DE000848180FF0AC048815981608171816C5F64
:101DF0007F4FCE0103960E94B60EF8018481807653
:101E000081F10115110569F1D0805E01F5E1AF0E98
:101E1000B11C4E0183E0880E911CEFEFDE16F1F04D
:101E20006D2DC5010E94DE097C01FC01C580848105
:101E300087FF07C04881598166817781C4010E946C
:101E4000B60EBE01C7010E94E10EF70184818078C1
:101E50008483898D8583D98EDC2CDFCFF801D082F5
:101E6000D182DF91CF911F910F91FF90EF90DF9082
:101E7000CF90BF90AF909F908F900895EF92FF9278
:101E80000F931F93CF93DF937C018B01EA016F3F88
:101E9000710509F0B0F4E881F9810480F581E02D45
:101EA000AB014B5F5F4FBC01CE011995009749F024
:101EB000FC010383DF91CF911F910F91FF90EF9071
:101EC0000895E881F9810280F381E02DB701CE0108
:101ED000199590E080E0EECFFF920F931F93CF9380
:101EE000DF93EC01F62E8A819B810097C9F06C810B
:101EF0007D81FC0123812617170691F40881198141
:101F0000F80140815181660F771F6F5F7F4F0E94FC
:101F10003E0F009719F421E0F80122839B838A8306
:101F20008A819B81009759F02C813D81A9014F5FE7
:101F30005F4F5D834C83820F931FFC01F482DF911E
:101F4000CF911F910F91FF9008959F92AF92BF92F2
:101F5000CF92DF92EF92FF920F931F93CF93DF9375
:101F600000D01F921F92CDB7DEB78C010E94810A6C
:101F7000D82EF8011486F12CE12C60EFC62EC80192
:101F80000E94810AF8011486D81609F4B3C08111A1
:101F900013C082E090E00F900F900F900F900F9081
:101FA000DF91CF911F910F91FF90EF90DF90CF9035
:101FB000BF90AF909F9008958C3509F099C0C801EB
:101FC0000E94810A882329F3EDE4F2E0853709F0C5
:101FD00083C0F801148654E0952EB12CA12CC801C1
:101FE0000E94810A8823A9F2813434F4805380311D
:101FF00030F083E090E0CFCF8F7D8753F8CF44E07F
:10200000AA0CBB1C4A95E1F7A82AF80114869A94F9
:102010009110E5CFC501985D8115944020F47501BC
:10202000F3E0FF22ACCFC5019C5D81159440A8F47C
:1020300083E0B822B701762F6627770F770F6A29DA
:102040007B2990E080E0019660387105810591055B
:1020500040F4C8010E946C0F92CFB50190E080E07F
:10206000F3CF1982262F2F7320682A8326E09695B6
:102070008795779567952A95D1F76032710580F439
:10208000606C6B835E01E4E0AE0EB11CF501629101
:102090005F01662309F473CFC8010E946C0FF6CF6D
:1020A000262F2F7320682B8386E0769567958A9577
:1020B000E1F76031710538F4606E6C835E01F5E024
:1020C000AF0EB11CE3CF60686C83CD825E0126E069
:1020D000A20EB11CDBCF32969081992309F489CFEF
:1020E0008913F9CF8181882309F483CFF8011486FD
:1020F000682FAFCF82819381892B19F484E090E01F
:102100004ACF90E080E047CFAF92BF92CF92DF926C
:10211000EF92FF920F931F93CF93DF93DC01129600
:10212000ED91FC91139714968D919C911597E80F62
:10213000F91F14820D911C91119714966D917C9149
:10214000159712968D919C9113979C012C5F3F4F90
:10215000E801EB81FC817B01E20EF31E3097B9F0C0
:1021600043814617170679F45901AF014C5F5F4F61
:10217000EA14FB0499F1E501C9905E01EA01D990E6
:10218000AE01CD14A9F30190F081E02DE7CFED0170
:10219000F801408151810E943E0FFC01892B21F4FE
:1021A00081E0D80112968C93A881B98113968D9104
:1021B0009C911497918380831496FC93EE931397CC
:1021C0001B821A82CF01DF91CF911F910F91FF9057
:1021D000EF90DF90CF90BF90AF90089582818F5F96
:1021E0008283F0CF2F923F924F925F926F927F92B5
:1021F0008F929F92AF92BF92CF92DF92EF92FF9217
:102200000F931F93CF93DF9300D000D0CDB7DEB7ED
:102210007C017C836B830B969E838D83D7011696FE
:102220009C91169717968C91179799838A836D9036
:102230007C9011976114710409F44CC119964C916A
:1022400050E0F3018481958184179507A8F080817F
:1022500091E09093B5038093D7031092B603109248
:10226000D80320E0BE016F5F7F4FC3010E947B0651
:10227000D12CC12C81111AC080E026960FB6F8949B
:10228000DEBF0FBECDBFDF91CF911F910F91FF90A9
:10229000EF90DF90CF90BF90AF909F908F907F9006
:1022A0006F905F904F903F902F900895D3011496B8
:1022B0008D919C9102E010E00C191D098017910787
:1022C00008F48C01F30150800E9466054B015C010B
:1022D0008091AF03811176C0B02EF0E2F01710F4B8
:1022E00040E2B42E81E08093AF0321E082E090E0F1
:1022F000801B910BC816D90608F420E02093AE038A
:102300009FEF9093AD031092AC038FEF8B0D8093F2
:10231000AB03A1E0A0938A0380918A03550C582A4D
:1023200050928A0380918903813009F093C0109202
:1023300089030E9466051B012C0180918A0380930A
:10234000BB008091B1039091B203A091B303B0910F
:10235000B403892B8A2B8B2BA1F00E946605209158
:10236000B1033091B2034091B3035091B4036219A9
:10237000730984099509261737074807590708F490
:1023800042C08091BC0083FDD8CFB5ECB093BC00B7
:102390000E9466051B012C018091AF03813009F476
:1023A0005DC08091AC038B1510F4B090AC03ABE82A
:1023B000B3E0E3E6F3E080E08B1551F19D9191935A
:1023C0008F5FFACF8091B1039091B203A091B303D4
:1023D000B091B403892B8A2B8B2B09F479CF0E94FF
:1023E00066052091B1033091B2034091B30350913F
:1023F000B403681979098A099B0926173707480722
:10240000590708F065CF8091B0030E94DC03B12C1E
:1024100010928803B0928703B016110609F02CCFF2
:102420008D809E808C0C9D1C5401C50188199909D2
:1024300080179107A8F5D30111968D919C91DC012D
:10244000ED91FC910284F385E02D1995F5018193BE
:102450005F01EBCFE5EEE093BC009ACF8091B10332
:102460009091B203A091B303B091B403892B8A2B4E
:102470008B2B09F491CF0E9466052091B103309116
:10248000B2034091B3035091B403621973098409F4
:102490009509261737074807590708F07DCFB3CFAE
:1024A000C00ED11EF2E0CF16D10408F4FFCEF70122
:1024B0008285811142C0848590E0982F8827AB8166
:1024C000BC8111969C938E932385822B8D939C9334
:1024D00081E0D3CE1296ED91FC911397309709F4D9
:1024E000CBCE14962D913C91159719964C9150E0B6
:1024F0002330310591F4816089839A834F5F5F4F68
:1025000002E010E02D813E81BE016F5F7F4FCF0161
:102510000E94EF048111CBCFB0CE2115310519F403
:1025200090689983EDCF2230310511F49F77F9CF70
:102530002130310529F7906CF4CF838590E0982FF6
:102540008827AB81BC8111969C938E932485BDCF47
:10255000AB01BC0170588EE595E00C948508FC0138
:1025600001900020E9F73197AF01481B590BBC01DE
:1025700085EE93E00C947F07DF92EF92FF920F932A
:102580001F93CF93DF936115710561F460E070E0F4
:102590008FEF9D2DDF91CF911F910F91FF90EF90C5
:1025A000DF9008958A01EB01DC01FC900B5E1F4F68
:1025B0006F2DC8010E94DE09009741F3FC01E58000
:1025C000009721F30680F781E02DDE010D900020B9
:1025D000E9F79D01215031092C1B3D0BB0E0A0E033
:1025E000309739F0DF010D900020E9F71197AE1B0D
:1025F000BF0B2A173B0751F4DE012C0F3D1FA2171A
:10260000B30769F05D9141915417C9F36E2DC8016C
:102610000E94DE09009709F4B9CFFE2CCFCFBC0190
:102620008F2DDE2CB6CFCF93DF93FC01C081D181FB
:1026300062817381CE014A9661F02E8D25FF09C01B
:10264000AE010E94BC129B01B901CE01DF91CF9176
:10265000089530E020E0F8CFFB0101900020E9F779
:102660003197AF01461B570B0C94200A1F93CF9351
:10267000DF93EDE4F2E01281112379F032962181AB
:102680006213F9CFEC016CE50E94F909612FCE01CC
:10269000DF91CF911F910C94F9096111F9CF6EE58B
:1026A00072E0DF91CF911F910C942C13CF92DF92A7
:1026B000EF92FF920F931F93CF93DF938C016B01E7
:1026C0007A0162E20E94F909E601EC0CFD1CCE15CC
:1026D000DF0529F06991C8010E943613F8CF62E244
:1026E000C801DF91CF911F910F91FF90EF90DF9084
:1026F000CF900C94F9092F923F924F925F926F9274
:102700007F928F929F92AF92BF92CF92DF92EF9281
:10271000FF920F931F93CF93DF93CDB7DEB76C97E4
:102720000FB6F894DEBF0FBECDBF8C011B01DC01DC
:1027300014968C9114978F77883009F4B2C2E8F41C
:10274000843009F469C248F4833009F49FC265E615
:1027500072E0C1010E942C131CC2853009F470C2C2
:102760008630A9F78C916AE672E0811102C06FE6AB
:1027700072E0C1010E942C136DC28C30F1F1C8F4DB
:102780008A3029F7CD90DD90ED90FC90B701A6013D
:10279000F7FE0BC06DE2C1010E94F90944275527DD
:1027A000BA014C195D096E097F09C1010E94350A01
:1027B00051C2803209F4F7C1803449F66BE5C1019A
:1027C0000E94F909F80110811F3F09F4E7C1D10106
:1027D00014968D919C91612F45960E94DE098C0183
:1027E000B1010E947B13F80115811F3F09F4D6C186
:1027F0006CE2C1010E94F909E7CFF801C080D180E5
:10280000E280F380A7019601C701B6010E94B42BB4
:1028100081119DCF20E030E0A901C701B6010E94DF
:10282000B42B882379F0A7019601C701B6010E9455
:102830003A2D9B01AC01C701B6010E94B42B88233D
:1028400009F485CF20E030E0A901C701B6010E945C
:10285000B42B87FF08C06DE2C1010E94F909F7FAA5
:10286000F094F7F8F09420E836E948E15BE4C7011A
:10287000B6010E944E2E87FD88C074E1A72EB12CB0
:1028800000E210E0188E1F8AF501EA59FD4F2591EC
:10289000359145915491C701B6010E944E2E87FD96
:1028A00013C0F501E25BFD4F25913591459154919F
:1028B000C701B6010E941A2C6B017C012F89388D4B
:1028C000200F311F388F2F8B1595079534E0A31AF1
:1028D000B1088CEFA8168FEFB806B1F655245A94BC
:1028E00020E030E0A901C701B6010E944E2E181663
:1028F0000CF052C02CEA35EC47E257E3C701B601B1
:102900000E94B42B18160CF447C0A52DB4E0AB02FE
:10291000C0011124B12CA12CFC01E25BFD4F3F0151
:102920009C012A593D4F49013FEF531609F434C029
:10293000F301EA0DFB1D659175918591949120E05D
:1029400030E040E251E40E941A2CA70196010E9457
:102950004E2E18169CF4F401EA0DFB1D25913591BD
:1029600045915491C701B6010E941A2C6B017C015C
:102970008F89988D801B910B988F8F8B159507955C
:102980005A9494E0A91AB108CFCF00E210E055E0C4
:10299000552E188E1F8AA4CFC701B6010E941F2E84
:1029A0004B015C012B013C0106E080E492E4AFE0C6
:1029B000B0E0898F9A8FAB8FBC8F102F01509AE0B7
:1029C0004916510461047104C8F0698D7A8D8B8DAC
:1029D0009C8D2AE030E040E050E00E94E32C298FFB
:1029E0003A8F4B8F5C8FC301B2012AE030E040E0A8
:1029F00050E00E94E32C29013A01DFCFC501B40168
:102A00000E94B92B9B01AC01C701B6010E94392D70
:102A10006B017C01698D7A8D8B8D9C8D0E94B92B09
:102A20009B01AC01C701B6010E941A2C2B013C018D
:102A30000E941F2E6B017C010E94B92B9B01AC01EF
:102A4000C301B2010E94392D9B01AC010E943A2DB5
:102A50000E941F2EC60ED71EE81EF91E898D9A8D64
:102A6000AB8DBC8DC816D906EA06FB06D8F09FEFE1
:102A7000891A990AA90AB90AAF89B88DAB2B39F11D
:102A8000BAE08B169104A104B10408F1EF89F88D26
:102A90003196F88FEF8BC12CD12C7601812C912CA3
:102AA000540183942AE0422E512C612C712CC701D1
:102AB000B601A30192010E94E32C672B682B692BBE
:102AC00051F4111644F469017A011150F0CFC12C70
:102AD000D12C7601E7CFB501A401C1010E94350ACE
:102AE000112371F14E01F1E18F0E911C012F540160
:102AF0009AE0492E512C612C712C015068F0C701CD
:102B0000B601A30192010E94E32C605DD4016E9393
:102B10004D0169017A01F1CF812F90E0BC016095F0
:102B20007095F501E81BF90B31978EE280834427FD
:102B30005527461B570B6A0D7B1DC1010E94200AB9
:102B4000EF89F88DEF2B29F165E6C1010E94F909A3
:102B50000F89188D17FF07C06DE2C1010E94F909A6
:102B6000119501951109FE0177969F018AE0E82EE3
:102B7000F12CC801B7010E94142D805D82938B0156
:102B8000672BB9F7A9014E1B5F0BBF01C1010E9462
:102B9000200AD10112968D919C915FC06DE5C10113
:102BA0000E94F909F6CF6BE7C1010E94F909F8010B
:102BB00010811F3F79F1D10114968D919C91612F65
:102BC00045960E94DE098C01FC01C680D78062E236
:102BD000C1010E94F9097601D7016D917D0166233B
:102BE00021F0C1010E943613F7CF62E2C1010E94B9
:102BF000F9096AE3C1010E94F909B101C8010E9403
:102C00007B13F80115811F3F29F06CE2C1010E947E
:102C1000F909CFCF6DE7C3CFF8016081718150E032
:102C200040E06115710541F0FB0101900020E9F7DA
:102C30003197AF01461B570BC1010E945613A9CF14
:102C4000ED91FC91438150E0BF016C5F7F4FC1016A
:102C50000E945613F101828193816C960FB6F8940D
:102C6000DEBF0FBECDBFDF91CF911F910F91FF90BF
:102C7000EF90DF90CF90BF90AF909F908F907F901C
:102C80006F905F904F903F902F900895ED91FC9141
:102C9000438150E0BF016C5F7F4FC1010E94200A59
:102CA000D9CF4D915D916D917C917FCDCB010C94ED
:102CB0007F2FCF93DF93EC018091BF049091C004EC
:102CC000009759F02091C1043091C2042C173D07A0
:102CD00020F081E0DF91CF910895BE016F5F7F4FBB
:102CE0000E940830009789F09093C0048093BF043D
:102CF000D093C204C093C1042091C3043091C40492
:102D0000232B39F7FC011082E4CF80E0E3CFCB0125
:102D1000BA010C94083085ED8093BC008091B1031A
:102D20009091B203A091B303B091B4030796A11D93
:102D3000B11D23E0B695A795979587952A95D1F76C
:102D40002091BC0024FD03C01092AF030895409170
:102D5000B1035091B2036091B3037091B403452B5A
:102D6000462B472B69F30097A105B10541F02AE2F4
:102D70002A95F1F700C00197A109B109E1CF80912F
:102D8000B0030C94DC03CB010C94E32E8F929F9242
:102D9000AF92BF92CF92DF92EF92FF920F931F9369
:102DA000CF93DF936C018B01DB015996FC90BFEF51
:102DB000FB1621F16F2DC80145960E94DE09EC013A
:102DC0008D81F801818F209709F496C01C828FEFC6
:102DD0008D831F821E82D60111966C916F3F09F47C
:102DE0009FC0C80145960E94DE09FC01F582D6010C
:102DF0001196FC92BE018F2D9D8084C05B01F5E091
:102E0000AF0EB11CDB01ED90FC90119757968C91A1
:102E1000882349F0C5010E94170EC62FD72F20978F
:102E200011F0F82ED8CFF801C789908DC91325C0AD
:102E3000C03109F461C0CC0F65897689D701ED9165
:102E4000FC91B4E0CB9FA0011124A616B70609F0AF
:102E50004BC00190F081E02DBA01C7011995009790
:102E600009F44AC020E1F501DC0101900D922A9598
:102E7000E1F7F801968B858BC08FD8015596CD91DF
:102E8000DC91569757968C91579721E0280F5796CB
:102E90002C93B4E08B9FC0011124C80FD91F90E17F
:102EA000892E203111F48FE0882EE8E08E9EB0014B
:102EB0001124D701ED91FC910190F081E02DC70123
:102EC00019959B838A83892B09F4812C8882198226
:102ED000CD2B91F0C5010E94170EC62FD72FF82ECB
:102EE000209709F078CF08C00480F581E02DC70154
:102EF0001995009709F0BDCF81E0F801828360E069
:102F000070E08FEF992DDF91CF911F910F91FF907E
:102F1000EF90DF90CF90BF90AF909F908F900895EB
:102F2000F601F082F18266CF8F929F92AF92BF92AC
:102F3000CF92DF92EF92FF920F931F93CF93DF9385
:102F4000EC018B01D42E0E94CF0A7C01892B09F061
:102F500047C0CE010E94810A863609F452C124F589
:102F6000873229F08B3561F1823209F053C11D821D
:102F70001C828A819B81892B31F4888199810E94EE
:102F800005029B838A83CE010E94A50F7C01892BB9
:102F900039F5CE010E948410F80124812078256043
:102FA0002483918380831CC0843709F412C18B373A
:102FB00009F45BC08E3609F02DC165E672E012C1DE
:102FC000F80184818078806484830115110519F0EB
:102FD0008FEF80838183D11011C025E0E22EF12C88
:102FE000C701DF91CF911F910F91FF90EF90DF907C
:102FF000CF90BF90AF909F908F9008951C86CE0188
:103000000E94CF0A009709F085C06DE5CE010E94AD
:103010009B0A8111E5CFDA946D857E85C8010E94F7
:10302000C6166115710521F484E0E82EF12CD8CF85
:103030004D2DCE010E949417009709F06BC0CE0170
:103040000E94CF0A009709F065C06DE5CE010E948D
:103050009B0A8111C5CF6CE2CE010E949B0A8111AF
:10306000DBCF93E0E92EF12CBBCFF801848180788F
:10307000806284830115110519F08FEF80838183AD
:10308000DD2009F4AACF1C86CE010E94CF0A00974A
:1030900009F040C06DE7CE010E949B0A8111A0CFCC
:1030A000BB24BA94BD0C1D821C828A819B81892B12
:1030B00031F4888199810E9405029B838A83CE0125
:1030C0000E94810A8732E1F08232D1F0CE010E9463
:1030D000810AD82E0E940E0A882319F21C866D2DB3
:1030E000CE010E946C0FCE010E94810AD82E0E9450
:1030F0000E0A8111F3CF8A819B81892B31F494CF01
:10310000CE010E94A50F009729F4CE010E94CF0A9C
:10311000009711F07C0164CF6AE3CE010E949B0A04
:10312000882309F49ECFEA81FB818C819D81E80F81
:10313000F91F14824D855E856A817B816C5F7F4FAC
:10314000C8010E94BC12CB016B01672BC9F5CE01EF
:103150000E9484104C016D857E85C8010E94C616B0
:103160006B016115710509F45FCFFB0184818068F3
:103170008483F4E08F0E911CF601978286824B2D9A
:10318000B601CE010E949417009721F6CE010E944D
:10319000CF0A009709F0BECF6DE7CE010E949B0ACF
:1031A00081111ECF6CE2CE010E949B0A882309F494
:1031B00058CFCE010E94CF0A009709F474CFAACF4E
:1031C0006D857E850E94E10EF6018481807884837E
:1031D000D6CFF801848180788660848381E0808303
:1031E0006AE672E0CE01DF91CF911F910F91FF90BF
:1031F000EF90DF90CF90BF90AF909F908F900C9406
:10320000AC0AF801848180788660848310826FE63E
:1032100072E0E8CFCE010E94810A5E01FFE0AF0EAE
:10322000B11CD12C9A2CCB2C803374F08A3374F4DB
:103230009FE3D91699F01C86D394F50181935F0121
:10324000CE010E94810AF0CF8B3291F393ED980F5B
:10325000923070F3982F9F7D953451F3CD0DD11D91
:103260001F86B801892D9C2D0E94850B8111B8CE37
:10327000F8CE2F923F924F925F926F927F928F92F1
:103280009F92AF92BF92CF92DF92EF92FF920F93F5
:103290001F93CF93DF93CDB7DEB7C357D1090FB6D6
:1032A000F894DEBF0FBECDBF8E01005B1F4F38010B
:1032B00025E0620E711C58018AE1A80EB11C2FE8AE
:1032C000222E22E0322E32E9432E32E0532E85EEBA
:1032D00093E00E94E007892B09F4F1C185EE93E0A9
:1032E0000E94BE07D82E89831A82E090C304F09012
:1032F000C4049FEFE91AF90AC7010E9459168823EE
:1033000099F02091BF043091C0048091C304909142
:10331000C404BE016F5F7F4F820F931F0E94F23083
:10332000F092C404E092C304EAE0DE12D0CF83E05E
:1033300092E0F80191838083128214821382768A4C
:10334000658A178A84E0808F8FEF818F168EE196D1
:103350001FAE1EAEE197E3961FAE1EAEE397C09080
:10336000C304D090C404E090BF04F090C00463E0B4
:1033700072E0C3010E94490EF801128280809180A0
:10338000F80183819481009751F0FC012081318103
:10339000F80134832383B4010E948E0EF1CF168E80
:1033A0001A8309831C821B821E821D821F82F9865A
:1033B000E886EC0CFD1CFB86EA861D861F870E87BF
:1033C0004AE0B501CE0101960E9494177C01892B39
:1033D00051F48C85882339F0F801868D83FF03C072
:1033E00093E0E92EF12C8B819C81009731F0E981EB
:1033F000FA81608171810E948E0E90E080E00E94CF
:1034000059162091BF043091C00481112CC02115A0
:10341000310519F0C9010E947F2F1092C00410924B
:10342000BF041092C4041092C3041092C2041092FC
:10343000C104E114F10409F185E792E00E94AF12A2
:10344000F701EE0FFF1FE35EFD4F80819181009732
:1034500011F00E94AF128CE892E00E94AF12C801F6
:103460000E94980E34CF1092C4041092C3046DE5EC
:1034700072E0C9010E94F230DCCF1A8309833C82DA
:103480002B82CE0101960E941313E3966CAF7DAFA1
:103490008EAF9FAFE397CE0181599F4F0E94F10AF3
:1034A000811111C0E1968EAD9FADE197009709F4AF
:1034B000C3C00E94D10D60930505709306058093EB
:1034C0000705909308051A8309835C824B82CE011D
:1034D00001960E941313E3966CAF7DAF8EAF9FAF42
:1034E000E397CE0181599F4F0E94F10A811111C0CB
:1034F000E1968EAD9FADE197009709F4A1C00E94BF
:10350000D10D6093090570930A0580930B05909384
:103510000C051A83098385E992E09C838B83CE0195
:1035200001960E941313E3966CAF7DAF8EAF9FAFF1
:10353000E397CE0181599F4F0E94F10A811111C07A
:10354000E1968EAD9FADE197009709F47DC00E9492
:10355000D10D60930D0570930E0580930F05909328
:1035600010051A83098388E992E09C838B83CE013E
:1035700001960E941313E3966CAF7DAF8EAF9FAFA1
:10358000E397CE0181599F4F0E94F10A811108C033
:10359000E1968EAD9FADE197009711F00E94680D06
:1035A0001A8309838AE992E09C838B83CE0101967A
:1035B0000E941313E3966CAF7DAF8EAF9FAFE3977E
:1035C000CE0181599F4F0E94F10A811158C0F12C00
:1035D000E12C6701E3968CAD9DADAEADBFADE39739
:1035E000FC01892B09F443C0248126FF40C04D0112
:1035F00025E1820E911C6081C4010E94DE090097C2
:10360000B1F1FC01F581E496FFAFE497009779F101
:10361000C114D10451F1E4966FADE497C4010E9446
:10362000DE09009729F0FC01F581E496FFAFE497ED
:1036300021E0C21AD108EACF60E070E0CB013BCFB5
:1036400060E070E0CB015DCF60E070E0CB0181CF46
:10365000A8016CE972E0C5010E94BC1261157105F8
:1036600049F1CB010E94EC0C27C00E94D10D8FEFD5
:10367000E81AF80A9AE0E916F10409F0AACF1A83C9
:1036800009838CE992E09C838B83CE0101960E9492
:103690001313E3966CAF7DAF8EAF9FAFE397CE0170
:1036A00081599F4F0E94F10A8111D9CEF801868D70
:1036B00085FDCECF90E080E00E94FE0AD0CECD58AE
:1036C000DF4F0FB6F894DEBF0FBECDBFDF91CF91B5
:1036D0001F910F91FF90EF90DF90CF90BF90AF9030
:1036E0009F908F907F906F905F904F903F902F9022
:1036F00008950E94EC0781110E94391980E090E042
:10370000892B49F080E090E0892B29F00E9400008D
:1037100081110E94000080E090E0892B49F080E058
:1037200090E0892B29F00E94000081110E94000086
:1037300080E090E0892B49F080E090E0892B29F02F
:103740000E94000081110C9400000895EF92FF92F6
:103750000F931F93CF93DF93FC01E080F1808701EB
:10376000065E1F4F21F1C281D381209751F1F701ED
:10377000868D982F9F7719F580788062868F8FEFDE
:10378000828F838FA701BE01C8010E94BC12FB017A
:10379000309761F4B701C8010E94C616FB0130974B
:1037A00029F084818F778483D783C6838F01C801F2
:1037B000DF91CF911F910F91FF90EF90089585FDBC
:1037C000E1CF10E000E0F3CFAF92BF92CF92DF9253
:1037D000EF92FF920F931F93CF93DF938C017B01A6
:1037E000DC01AD90BC900E94A61BEC01009781F01B
:1037F000F701C080D180E280F380B5010E94E10E24
:103800008C8180788C608C83C882D982EA82FB822A
:10381000D801ED91FC9180E0309719F0828191E020
:103820008927DF91CF911F910F91FF90EF90DF904B
:10383000CF90BF90AF9008951F920F920FB60F9246
:1038400011240BB60F922F933F934F935F936F9377
:103850007F938F939F93AF93BF93EF93FF93809149
:10386000B900887F803609F44DC008F040C0883226
:1038700009F4A9C028F5803109F49DC0C8F4882353
:1038800009F4FBC0883009F496C0FF91EF91BF9115
:10389000AF919F918F917F916F915F914F913F91E8
:1038A0002F910F900BBE0F900FBE0F901F90189589
:1038B000883109F488C0803241F78093AD0314C089
:1038C000803409F49DC040F48033B9F38833E9F6BD
:1038D0008093AD0385ECB0C0803509F485C0883590
:1038E00009F496C0883489F60E948B16CECF8839A9
:1038F00009F48CC038F5883729F050F4883611F077
:10390000803719F683E08093AF031092620357C0AB
:10391000883809F47BC0803919F0803809F0B5CFB8
:1039200080916203803208F071C0E091620381E00F
:103930008E0F809362038091BB00F0E0EE5BFC4F42
:1039400080833DC0803B39F0E0F4803A09F479C0CF
:10395000883A09F09ACF84E08093AF031092410334
:1039600010924003E0918303F091840319958091B4
:10397000400381110FC081E0809340031092200327
:1039800009C0803C09F4A6CF883C09F4A3CF883B4A
:1039900009F07BCFE091410381E08E0F80934103DA
:1039A000F0E0E05EFC4F80818093BB00909141038A
:1039B0008091400329C080918A038093BB0085ECED
:1039C0008093BC0062CF9091AC038091AB039817B9
:1039D00058F5E091AC0381E08E0F8093AC03F0E0EA
:1039E000E557FC4F8081E9CFE091AC0381E08E0F79
:1039F0008093AC038091BB00F0E0E557FC4F8083DF
:103A00009091AC038091AB039817C8F285E8D8CFAA
:103A1000E091AC0381E08E0F8093AC038091BB00FA
:103A2000F0E0E557FC4F80838091AE0381115CCFBD
:103A300081E08093890384EA8093BC001092AF03F5
:103A400024CF85EC8093BC001092AF038091620379
:103A5000803230F4E0916203F0E0EE5BFC4F1082C4
:103A60006091620370E0E0918503F091860382E447
:103A700093E019951092620308CF1092AD0334CFF2
:103A80001F920F920FB60F9211242F933F938F9393
:103A90009F93AF93BF938091170390911803A091C8
:103AA0001903B0911A033091160323E0230F2D3729
:103AB00058F50196A11DB11D20931603809317039D
:103AC00090931803A0931903B0931A0380911B03DA
:103AD00090911C03A0911D03B0911E030196A11D9E
:103AE000B11D80931B0390931C03A0931D03B093FF
:103AF0001E03BF91AF919F918F913F912F910F9096
:103B00000FBE0F901F90189526E8230F0296A11D57
:103B1000B11DD2CF1F920F920FB60F9211240BB688
:103B20000F922F933F934F935F936F937F938F9356
:103B30009F93AF93BF93EF93FF9380910303909173
:103B40000403A0910503B0910603892B8A2B8B2BCC
:103B5000D1F19091020380910000892780930000A9
:103B60008091030390910403A0910503B091060393
:103B7000181619061A061B069CF4809103039091EF
:103B80000403A0910503B09106030197A109B109AF
:103B90008093030390930403A0930503B09306035B
:103BA000FF91EF91BF91AF919F918F917F916F9115
:103BB0005F914F913F912F910F900BBE0F900FBED1
:103BC0000F901F90189580910002EEE7F2E0E491CB
:103BD0009FEF90930002E230E9F040F4EE2389F089
:103BE000E13091F060E00E947503DACFE43049F1F2
:103BF00010F1E530B9F7909173009D7F90937300B9
:103C0000F1CF10926E00EECF90916F009D7F909358
:103C10006F00E8CF909170009D7F9093700091E0CD
:103C20009093B0009091B100987F94609093B10010
:103C30001092B300D7CF909171009D7F9093710047
:103C4000D1CF909172009D7F90937200CBCF1F9245
:103C50000F920FB60F9211240BB60F922F933F9332
:103C60004F935F936F937F938F939F93AF93BF9384
:103C7000EF93FF9385EE93E00E94F607FF91EF919B
:103C8000BF91AF919F918F917F916F915F914F9174
:103C90003F912F910F900BBE0F900FBE0F901F9072
:103CA00018951F920F920FB60F9211240BB60F9218
:103CB0002F938F939F93EF93FF93E091F503F091F0
:103CC000F6038081E091FB03F091FC0382FD1DC0AF
:103CD00090818091FE038F5F8F732091FF03821785
:103CE00041F0E091FE03F0E0EB51FC4F958F8093A3
:103CF000FE03FF91EF919F918F912F910F900BBE3B
:103D00000F900FBE0F901F9018958081F2CF1F92D9
:103D10000F920FB60F9211240BB60F922F933F9371
:103D20004F935F936F937F938F939F93AF93BF93C3
:103D3000CF93DF93EF93FF9380910103C091BE0473
:103D4000D0E087FF23C010928500109284008091FC
:103D500001038F5F8093010380910103082E000C03
:103D6000990B8C179D0724F4809101038C3074F11A
:103D7000809184009091850084349C4908F465C04A
:103D80008091840090918500049661C08091010328
:103D9000082E000C990B8C179D07CCF6309101036F
:103DA00025E03203F0011124EE57FB4F808186FF9E
:103DB000CECF309101033203F0011124EE57FB4FB7
:103DC000808160E08F730E947503C1CF8091840071
:103DD000909185003091010325E03203F001112418
:103DE000EE57FB4F41815281840F951F90938900BC
:103DF00080938800309101033203F0011124EE57C3
:103E0000FB4F808186FF0CC0309101033203F0012B
:103E10001124EE57FB4F808161E08F730E94750380
:103E2000FF91EF91DF91CF91BF91AF919F918F91D2
:103E30007F916F915F914F913F912F910F900BBEAA
:103E40000F900FBE0F901F90189580E49CE99093FF
:103E50008900809388008FEF80930103E1CF109257
:103E6000DC031092DB0388EE93E0A0E0B0E08093E7
:103E7000DD039093DE03A093DF03B093E0032DE214
:103E800032E03093DA032093D9031092E8031092C2
:103E9000E7038093E9039093EA03A093EB03B093C5
:103EA000EC038FE392E09093E6038093E50385ECC7
:103EB00090E09093F2038093F10384EC90E0909370
:103EC000F4038093F30380EC90E09093F6038093E7
:103ED000F50381EC90E09093F8038093F70382EC74
:103EE00090E09093FA038093F90386EC90E090932E
:103EF000FC038093FB031092FE031092FF031092C9
:103F00000004109201048CE08093420584E28093C7
:103F1000430585E08093440596E0909345059EE136
:103F2000909346059FE19093470592E29093480550
:103F300093E29093490594E490934A0595E4909315
:103F40004B0510924D0510924C0590E490934F054F
:103F5000109254051092550510925605109257056F
:103F6000109258051092590510925A0510925B054F
:103F700098E0EBE0F2E0A4E6B5E001900D929A95AE
:103F8000E1F740E050E060EA70E440936C05509344
:103F90006D0560936E0570936F05E091BE04EC3083
:103FA00008F024C191E09E0F9093BE04E093410578
:103FB0008E9FF0011124EE57FB4F88EB9BE092831C
:103FC0008183109205051092060510920705109244
:103FD00008051092090510920A0510920B0510921F
:103FE0000C0510920D0510920E0510920F051092FF
:103FF00010051092120510921105109214051092DE
:1040000013051092160510921505109217051092BF
:1040100018051092190510921A0510921B0510929E
:104020001C051092290510922A0510922B0510925A
:104030002C0510922D0510922E0510922F0510922E
:10404000300580E090E0A0EAB0E4809331059093E1
:104050003205A0933305B093340580E090E0A8ECDE
:10406000B2E48093350590933605A0933705B0935D
:1040700038051092390510923A0510923B051092BE
:104080003C0510923D0510923E0510923F0510929E
:10409000400584EE9BECA6E1B0EC8093F104909394
:1040A000F204A093F304B093F40484EE9BECA6E135
:1040B000B0E48093F5049093F604A093F704B093D2
:1040C000F8041092FD041092FE041092FF04109266
:1040D000000510920105109202051092030510923E
:1040E00004058EE293EEADECB8E38093C5049093A3
:1040F000C604A093C704B093C8041092C9041092D8
:10410000CA041092CB041092CC041092CD041092E9
:10411000CE041092CF041092D0041092D1041092C9
:10412000D2041092D3041092D4041092D5041092A9
:10413000D6041092D7041092D8041092D904109289
:10414000DA041092DB041092DC041092DD04109269
:10415000DE041092DF041092E0041092E104109249
:10416000E2041092E3041092E4041092E504109229
:10417000E6041092E7041092E8041092E904109209
:10418000EA041092EB041092EC041092ED041092E9
:10419000EE041092EF041092F0041092C0041092FA
:1041A000BF041092C2041092C1041092C404109271
:1041B000C30490E080E00E9459162091BF04309122
:1041C000C004811117C02115310519F0C9010E94E1
:1041D0007F2F1092C0041092BF041092C40410925A
:1041E000C3041092C2041092C10408958FEF80930B
:1041F0004105E7CE1092C4041092C3046DE572E04D
:10420000C9010C94F230CF93DF93CDB7DEB7CF5412
:10421000D1090FB6F894DEBF0FBECDBF789484B538
:10422000826084BD84B5816084BD85B5826085BDB2
:1042300085B5816085BD80916E00816080936E0040
:104240001092810080918100826080938100809132
:1042500081008160809381008091800081608093E3
:1042600080008091B10084608093B1008091B000A3
:1042700081608093B0008091910082608093910072
:104280008091910081608093910080919000816085
:10429000809390008091A10082608093A100809122
:1042A000A10081608093A1008091A0008160809333
:1042B000A0008091210182608093210180912101E1
:1042C0008160809321018091200181608093200191
:1042D00080917A00846080937A0080917A00826075
:1042E00080937A0080917A00816080937A00809137
:1042F0007A00806880937A001092C100E091F50303
:10430000F091F60382E08083E091F103F091F203F3
:104310001082E091F303F091F40380E18083109226
:10432000FD03E091F903F091FA0386E08083E091C8
:10433000F703F091F803808180618083E091F703B7
:10434000F091F803808188608083E091F703F09119
:10435000F803808180688083E091F703F091F8038F
:1043600080818F7D808361E0809143050E94FD0301
:1043700060E0809143050E94750360E080914205F2
:104380000E94FD0380914C0590914D05892BA9F465
:1043900086E090E00E94E32EFC0180914F0580832F
:1043A00089ED93E092838183138280E290E095838C
:1043B0008483F0934D05E0934C05E0904C05F0901C
:1043C0004D0510928803109287031092B603109245
:1043D000D8030E94BE0386E392E090938403809307
:1043E000830387E392E0909386038093850311E033
:1043F000F7011383C7010E943107882309F45BC0CA
:1044000080E090E1A0E0B0E08093500590935105EA
:10441000A0935205B09353058AE090E0A0E0B0E08D
:104420008093540590935505A0935605B093570576
:1044300080E090E0A0E0B0E48093580590935905A7
:10444000A0935A05B0935B0580914C0590914D0562
:104450001FA618AA19AA1AAA99A388A31BA21AA26E
:1044600019A785E090E09FA38EA31AA702E008A7F2
:1044700040E050E160E070E0CE0180960E94990635
:1044800080914C0590914D05188A198A1A8A1B8AC9
:104490009A8389831C821B821A8718861F821B8736
:1044A00009874FE959E360E070E0CE0101960E9470
:1044B000990680934E0554E4E52E55E0F52E02E46E
:1044C00015E066E4A62E65E0B62E72E0472E73E096
:1044D000572EE8E46E2EE3E07E2EFBECCF2EF7E0C5
:1044E000DF2EF701928181917F01F801828F938FF6
:1044F00061E00E94FD0361E0F801838D0E94FD03ED
:104500004801FEE18F0E911CF70195818381F8012E
:10451000868F978F61E00E94FD0360E0F801878D30
:104520000E94FD0361E0F801868D0E9475033FB68D
:10453000F89480910703811125C0F2018491F30161
:104540009491E82FF0E0EE0FFF1FE158FD4FA59189
:10455000B4918C91982321F461E085E30E94750366
:1045600061E085E30E94FD038CB580618CBD8CB554
:1045700080648CBD61E084E30E94FD0361E083E31D
:104580000E94FD03809107038F5F809307033FBE66
:10459000C6010197F1F760E0F801868D0E9475036E
:1045A00088E80E94AC0983E00E94AC0961E0F80150
:1045B000868D0E947503C6010197F1F7C4010E9420
:1045C000B3090E5F1F4FA016B10609F08ACF60E055
:1045D0008DE30E94FD0360E080E10E94FD0360E046
:1045E0008EE00E94FD0360E081E10E94FD0360E037
:1045F0008FE00E94FD0361E080E20E94FD030E94C3
:1046000020028C01C090F104D090F204E090F304F9
:10461000F090F404A70196016091F5047091F604FE
:104620008091F7049091F8040E94392D4B015C01B0
:10463000B801110F880B990B0E94BB2B9B01AC0199
:10464000C501B4010E941A2C20E030EC4FE754E47D
:104650000E94A62DA70196010E943A2D0E94182EB5
:104660007093FA046093F9048DEC9CECACECBDE320
:104670008093050590930605A0930705B093080560
:1046800040E050E060E070E44093090550930A0573
:1046900060930B0570930C0580930D0590930E05A8
:1046A000A0930F05B09310051092310510923205BA
:1046B000109233051092340589E190E0A0E0B0E05B
:1046C0008093210590932205A0932305B0932405A0
:1046D0008DEC9CECACECBCE380931D0590931E0527
:1046E000A0931F05B093200586E797E090931205ED
:1046F0008093110588EA92E1909314058093130545
:10470000CE0141962A969FAF8EAF2A97FE01319631
:104710001F010E946A070091120310911303209158
:10472000140330911503601B710B820B930B0E94D5
:10473000B92B6B017C0120E030E048EC51E40E9491
:10474000B42B87FD1EC620E030E04AE754E4C701E1
:10475000B6010E94A62D2E966CAF7DAF8EAF9FAF97
:104760002E970E9420028C019093FC048093FB04FE
:104770008090FD049090FE04A090FF04B09000058E
:10478000C090F104D090F204E090F304F090F404AF
:10479000A70196016091F5047091F6048091F704E9
:1047A0009091F8040E94392D2B013C01B801110FA2
:1047B000880B990B0E94BB2B9B01AC01C301B2017A
:1047C0000E941A2C20E030EC4FE754E40E94A62D02
:1047D000A70196010E943A2D6B017C016091F904BA
:1047E0007091FA04072E000C880B990B0E94BB2BCA
:1047F0009B01AC01C701B6010E94392D9B01AC01A0
:104800002093FD043093FE044093FF045093000571
:10481000C501B4010E94392D2E962CAD3DAD4EAD93
:104820005FAD2E970E94A62D60930105709302053F
:10483000809303059093040560E0809162050E94D7
:10484000750380E60E94AC098E010F5F1F4F78014F
:1048500080E00E94AC0990E0B0E0A0E0F701819315
:104860009193A193B1937F012A968EAD9FAD2A9724
:104870008E179F0769F761E0809162050E947503BA
:10488000412C512C3201F80181919191A191B1916A
:104890008F01762C652C542C4424480E591E6A1E18
:1048A0007B1EEE16FF0679F7709460945094409446
:1048B000411C511C611C711CF091CD04E091CE048F
:1048C000A091CF04B091D0049090D1048090D204F4
:1048D0002091D3042F962FAF2F978091D404609608
:1048E0008FAF60972F2F3E2FAD01692D782D2F961A
:1048F0008FAD2F9760969FAD6097A090D504B09034
:10490000D604C090D704D090D804E090D904F09099
:10491000DA040091DB041091DC040E94302D209316
:10492000DD043093DE044093DF045093E004609391
:10493000E1047093E2048093E3049093E404F09321
:10494000D504E093D604A093D704B093D8049092F2
:10495000D9048092DA042F96EFAD2F97E093DB0411
:104960006096FFAD6097F093DC04D301C201BB0FEA
:10497000880B982FDC014092CD045092CE046092B7
:10498000CF047092D0048093D1048093D20480939A
:10499000D3048093D4048090E5049090E604A09022
:1049A000E704B090E804C090E904D090EA04E090F5
:1049B000EB04F090EC04C301B2010E94BB2B2091E8
:1049C000C5043091C6044091C7045091C8040E94A8
:1049D0001A2C2091C9043091CA044091CB04509103
:1049E000CC040E943A2D6093E5047093E604809312
:1049F000E7049093E804A50194010E94392D2E96B6
:104A00002CAD3DAD4EAD5FAD2E970E94A62D6093AF
:104A1000E9047093EA048093EB049093EC04A701FB
:104A200096010E94392D2E962CAD3DAD4EAD5FAD59
:104A30002E970E94A62D6093ED047093EE04809350
:104A4000EF049093F0048EE00E944C03892B21F038
:104A50008BE090E00E94FE0A80E10E944C03892BCB
:104A600021F08AE090E00E94FE0A81E10E944C035E
:104A7000892BF1F08CE090E00E94FE0AE091100397
:104A8000F09111033197EB30F10508F072C08827DF
:104A9000E35BFA4D8F4F0C94282D5E25DF252B26E6
:104AA00042266426D129E529092A3C2A5D2A522A70
:104AB0008FE00E944C03892BE9F6E0CFC0900105FE
:104AC000D0900205E0900305F090040520E030E06E
:104AD000A901C701B6010E944E2E18160CF52AE056
:104AE00037ED43EA5BE3C701B6010E94B42B87FDB3
:104AF00021C02DEC3CEC4CE45DE36091FD04709131
:104B0000FE048091FF04909100050E941A2C60938E
:104B10001705709318058093190590931A056EC1B7
:104B20002AE037ED43EA5BEBC701B6010E944E2E47
:104B30001816FCF6C090FD04D090FE04E090FF042F
:104B4000F090000520E030E0A901C701B6010E9405
:104B50004E2E18164CF52DEC3CEC4CE45DE3C701F1
:104B6000B6010E94B42B87FFC4CF88E090E00E947A
:104B7000FE0AE0911003F0911103ED30F10508F009
:104B80003DC18827E953FA4D8F4F0C94282DD72A21
:104B900079250D26682A8C268C268A2A972A372A78
:104BA000832A632A582ADC2A2DEC3CEC4CE45DEB8A
:104BB000C701B6010E944E2E1816BCF29ACF22E60B
:104BC00035E54AEB5EE36091E5047091E60480917F
:104BD000E7049091E8040E94392D6B017C0120E0EC
:104BE00030E0A9010E944E2E18166CF42AE037ED31
:104BF00043E25CE3C701B6010E94B42B87FF0DC0FE
:104C000090E080E0B4CF2AE037ED43E25CEBC701EF
:104C1000B6010E944E2E18169CF322E635E54AEBAB
:104C20005EE36091E5047091E6048091E704909161
:104C3000E8040E94B42B4DEC5CEC6CEC7DEB87FF40
:104C400004C04DEC5CEC6CEC7DE370588EE595E0B7
:104C50000E948508D3C00E946A0700910C0310913E
:104C60000D0320910E0330910F03601B710B820B1B
:104C7000930B693E73408105910508F429C484E0D3
:104C800090E075CF26E638E947EA5EE36091FD04DF
:104C90007091FE048091FF04909100050E944E2EB9
:104CA0001816D4F580910102909102020196A1F5A7
:104CB00080910803909109030296909302028093D9
:104CC000010285E090E053CF209108033091090361
:104CD000809101029091020228173907ECF0C090F0
:104CE000FD04D090FE04E090FF04F090000520E069
:104CF00030E0A901C701B6010E944E2E18160CF033
:104D000043C32DEC3CEC4CE45DE3C701B6010E94CB
:104D10004E2E18160CF442C30E946A0700910C0331
:104D200010910D0320910E0330910F03601B710B46
:104D3000820B930B0E94B92B20E030E04AE754E449
:104D40000E94A62D6B017C0128EB3EE145E850E472
:104D50000E941A2C0E94532E9B01AC01C701B60180
:104D60000E941A2C20E030E048EC52E40E94A62D6C
:104D70006B017C0120E030E0A9010E94B42B01E02E
:104D800010E087FF02C00FEF1FEF80910A039091A0
:104D90000B038017910769F010930B0300930A032C
:104DA00080910803909109030196909309038093E1
:104DB00008032CEF3EEE43ED5EE36091E504709155
:104DC000E6048091E7049091E8040E944E2E1816A4
:104DD0006CF40F3F1F4F51F42FE832EC45EF5CE3CA
:104DE000C701B6010E94392D6B017C01C0921705E5
:104DF000D0921805E0921905F0921A050E946A07F0
:104E00000091290510912A0520912B0530912C0540
:104E1000601771078207930708F45BC080911B0538
:104E2000882309F456C00E946A0700912105109159
:104E300022052091230530912405DC01CB01800F50
:104E4000911FA21FB31F8093290590932A05A09359
:104E50002B05B0932C05C0901705D0901805E09055
:104E60001905F0901A05E0911105F09112051995B8
:104E70009B01AC01C701B6010E94392D6B017C0179
:104E80009F77209131053091320540913305509143
:104E900034050E94B42B87FF9CC381E080931C05DE
:104EA00010921B05E0911505F0911605309709F059
:104EB00019958091290590912A05A0912B05B09113
:104EC0002C0580932D0590932E05A0932F05B0936C
:104ED000300583E092E09A8389831B821D821C82C5
:104EE000E6E0F0E0EC0FFD1FFF8BEE8B188E84E008
:104EF000898F8FEF8A8F1F8E0E946A076B017C015A
:104F000039A228A284ED92E09BA38AA3CE018096C9
:104F10000E94A61B8C01009761F0B1010E94E10E76
:104F2000F8018481807888608483C082D182E282A3
:104F3000F382E0901003F090110339A228A28CE9CB
:104F400092E09BA38AA3CE0180960E94A61B8C01AF
:104F5000009781F0B1010E94E10EF8018481807810
:104F60008A608483C701FF0CAA0BBB0B80839183EB
:104F7000A283B3838091050590910605A091070552
:104F8000B091080588A399A3AAA3BBA33CAA2BAA06
:104F90008FE892E09EAB8DABBE01605E7F4FCE018D
:104FA000C3960E94E41B8091090590910A05A09187
:104FB0000B05B0910C0588A399A3AAA3BBA33CAA97
:104FC0002BAA82E992E09EAB8DABBE01605E7F4F63
:104FD000CE01C3960E94E41B80910D0590910E05B1
:104FE000A0910F05B091100588A399A3AAA3BBA314
:104FF0003CAA2BAA85E992E09EAB8DABBE01605E18
:105000007F4FCE01C3960E94E41B809117059091BB
:105010001805A0911905B0911A0588A399A3AAA310
:10502000BBA33CAA2BAA8EE992E09EAB8DABBE013E
:10503000605E7F4FCE01C3960E94E41B8091E50421
:105040009091E604A091E704B091E80488A399A3A5
:10505000AAA3BBA33CAA2BAA82EA92E09EAB8DAB8B
:10506000BE01605E7F4FCE01C3960E94E41B80911B
:10507000E9049091EA04A091EB04B091EC0488A3B8
:1050800099A3AAA3BBA33CAA2BAA81EA92E09EAB58
:105090008DABBE01605E7F4FCE01C3960E94E41BC4
:1050A0008091ED049091EE04A091EF04B091F00492
:1050B00088A399A3AAA3BBA33CAA2BAA80EA92E047
:1050C0009EAB8DABBE01605E7F4FCE01C3960E944A
:1050D000E41B8091FD049091FE04A091FF04B09127
:1050E000000588A399A3AAA3BBA33CAA2BAA85EA7F
:1050F00092E09EAB8DABBE01605E7F4FCE01C3964A
:105100000E94E41B8091010590910205A091030586
:10511000B091040588A399A3AAA3BBA33CAA2BAA78
:1051200084EA92E09EAB8DABBE01605E7F4FCE0104
:10513000C3960E94E41BF0901C0539A228A28CEAB9
:1051400092E09BA38AA3CE0180960E94A61B8C01AD
:10515000009749F0B1010E94E10EF8018481807846
:1051600086608483F08280914C0590914D051FA646
:1051700018AA19AA1AAA99A388A31BA21AA211E015
:1051800019A782E090E09FA38EA31AA702E008A7C8
:10519000BE016D5C7F4FCE0180960E94F21080931D
:1051A0004E05EBA8FCA883E0F694E7948A95E1F716
:1051B000EE0CFF1CEE0CFF1C80914C0590914D05F0
:1051C0001FA618AA19AA1AAA99A388A31BA21AA2F1
:1051D00019A781E090E09FA38EA31AA708A7BE019C
:1051E0006D5C7F4FCE0180960E94F21080934E0539
:1051F0006BA97CA9072E000C880B990B0E94BB2B76
:105200002AE037ED43E25CE30E941A2C20E030E014
:105210004AE754E40E94A62D4B015C01B701FF0C44
:10522000880B990B0E94BB2B2FE632E143E85AE32F
:105230000E941A2C9B01AC01C501B4010E943A2DB9
:1052400068A379A38AA39BA33CAA2BAA87EA92E02E
:105250009EAB8DABBE01605E7F4FCE01C3960E94B8
:10526000E41B80914C0590914D0526961CAE1DAE19
:105270001EAE1FAE26979CAB8BAB1EAA1DAA1CAF01
:1052800085E090E09AAF89AF1DAF0BAF409150051C
:10529000509151056091520570915305CE01C3960E
:1052A0000E94990680914C0590914D051FA618AA61
:1052B00019AA1AAA99A388A31BA21AA219A784E063
:1052C00090E09FA38EA31AA708A7BE016A5B7F4F39
:1052D000CE0180960E94F21080934E0528966EAD06
:1052E0007FAD2897072E000C880B990B0E94BB2BD3
:1052F0006B017C01609154057091550580915605B4
:10530000909157050E94B92B9B01AC01C701B601D2
:105310000E94A62D20E030E04AE754E40E94A62D2A
:1053200068A379A38AA39BA33CAA2BAA89EA92E04B
:105330009EAB8DABBE01605E7F4FCE01C3960E94D7
:10534000E41B85EE93E099A388A31BA21AA23DA2B9
:105350002CA2BE01605E7F4FCE014B960E947B1354
:105360008CE892E00E94AF12C1010E94980E0E9448
:105370006A0760931203709313038093140390934E
:1053800015030E94791BC5C92DEC3CEC4CE45DEB88
:10539000C701B6010E94B42B87FFBECC86E090E027
:1053A000E6CB2AE939E949E15FE36091E5047091D0
:1053B000E6048091E7049091E8040E944E2E1816AE
:1053C0000CF0A8C087E090E0D2CB2CEA35EC47E2A5
:1053D00057E3609117057091180580911905909118
:1053E0001A050E94B42B18168CF42AE939E949E908
:1053F0005FE36091E5047091E6048091E704909189
:10540000E8040E944E2E18160CF091C081E090E046
:10541000AECB2AE939E949E95FE36091E50470918F
:10542000E6048091E7049091E8040E94392D6B0115
:105430007C0120E030E0A9010E944E2E18166CF489
:105440002AE037ED43E25CE3C701B6010E94B42BCA
:1054500087FF0DC089E090E08ACB2AE037ED43E278
:105460005CEBC701B6010E944E2E18169CF32AE988
:1054700039E949E95FE3D5CB0E946A0700910C0343
:1054800010910D0320910E0330910F03601B710BDF
:10549000820B930B693C710581059105A0F182E0B7
:1054A00090E065CB8EE00E944C03892B09F4A8CBD9
:1054B0004DEC5CEC6CEC7DE3C9CB80E10E944C03CD
:1054C000892B09F49DCB4DEC5CEC6CEC7DEBBECBF9
:1054D00040E050E060E070E88EE595E00E948508CD
:1054E0000E946A0700910C0310910D0320910E0396
:1054F00030910F03601B710B820B930B643F714063
:105500008105910510F460E001C061E080E20E9435
:10551000750374CC80E090E0A0E0B1E480931705BF
:1055200090931805A0931905B0931A0567CC0E94B3
:105530006A07C0900C03D0900D03E0900E03F0902A
:105540000F036C197D098E099F090E94B92B2FE664
:1055500032E143E05CE30E941A2C9B01AC0160E065
:1055600070E080E091E40E94392D20E030E0A90154
:105570000E944E2E1816BCF40E946A076C197D0911
:105580008E099F090E94B92B2FE632E143E05CE3CC
:105590000E941A2C9B01AC0160E070E080E091E475
:1055A0000E94392DB4CA60E070E0CB01B0CA40E07F
:1055B00050E060E070E84ACB40E050E060E070E826
:1055C0008EE595E00E94850882E695E00E94B30989
:1055D00015CC00911305109114050E946A07809064
:1055E0002D0590902E05A0902F05B09030056819DC
:1055F00079098A099B096093250570932605809394
:105600002705909328052091390530913A0540915E
:105610003B0550913C05C701B6010E943A2D6093AD
:10562000390570933A0580933B0590933C05809033
:10563000350590903605A0903705B0903805A50146
:1056400094010E944E2E181644F4809239059092CF
:105650003A05A0923B05B0923C05B7FAB094B7F872
:10566000B094A50194016091390570913A0580913B
:105670003B0590913C050E94B42B87FF08C08092A7
:10568000390590923A05A0923B05B0923C05809076
:105690001D0590901E05A0901F05B090200520913B
:1056A000390530913A0540913B0550913C05609198
:1056B000090570910A0580910B0590910C050E94D7
:1056C0001A2CA50194010E941A2C2B013C01209157
:1056D0000505309106054091070550910805C70161
:1056E000B6010E941A2C9B01AC01C301B2010E94B9
:1056F0003A2D2B013C0120913D0530913E05409112
:105700003F0550914005C701B6010E94392D2091F7
:105710000D0530910E0540910F05509110050E9426
:105720001A2CA50194010E94A62D9B01AC01C30176
:10573000B2010E943A2DC0923D05D0923E05E09202
:105740003F05F0924005F8011995B3CB8091BF0455
:105750009091C004009711F00E947F2F80914C051A
:1057600090914D050C947F2F0E94F62B08F481E058
:105770000895E89409C097FB3EF490958095709544
:1057800061957F4F8F4F9F4F9923A9F0F92F96E98D
:10579000BB279395F695879577956795B795F11102
:1057A000F8CFFAF4BB0F11F460FF1BC06F5F7F4F9F
:1057B0008F4F9F4F16C0882311F096E911C07723B1
:1057C00021F09EE8872F762F05C0662371F096E8BA
:1057D000862F70E060E02AF09A95660F771F881F89
:1057E000DAF7880F9695879597F90895990F00082D
:1057F000550FAA0BE0E8FEEF16161706E807F907A3
:10580000C0F012161306E407F50798F0621B730B3D
:10581000840B950B39F40A2661F0232B242B252BBE
:1058200021F408950A2609F4A140A6958FEF811D61
:10583000811D08950E942D2C0C949E2C0E94902C6A
:1058400038F00E94972C20F0952311F00C94872CAF
:105850000C948D2C11240C94D22C0E94AF2C70F33C
:10586000959FC1F3950F50E0551F629FF001729F05
:10587000BB27F00DB11D639FAA27F00DB11DAA1F14
:10588000649F6627B00DA11D661F829F2227B00D61
:10589000A11D621F739FB00DA11D621F839FA00DEC
:1058A000611D221F749F3327A00D611D231F849F3C
:1058B000600D211D822F762F6A2F11249F57504093
:1058C0009AF0F1F088234AF0EE0FFF1FBB1F661F0E
:1058D000771F881F91505040A9F79E3F510580F0D7
:1058E0000C94872C0C94D22C5F3FE4F3983ED4F3B5
:1058F000869577956795B795F795E7959F5FC1F77B
:10590000FE2B880F911D9695879597F9089597F925
:105910009F6780E870E060E008959FEF80EC089555
:1059200000240A941616170618060906089500247E
:105930000A9412161306140605060895092E0394F8
:10594000000C11F4882352F0BB0F40F4BF2B11F46C
:1059500060FF04C06F5F7F4F8F4F9F4F089557FDCB
:105960009058440F551F59F05F3F71F04795880FCD
:1059700097FB991F61F09F3F79F087950895121664
:1059800013061406551FF2CF4695F1DF08C0161610
:1059900017061806991FF1CF8695710561050894C1
:1059A0000895E894BB2766277727CB0197F90895D8
:1059B0000E94052DA59F900DB49F900DA49F800D72
:1059C000911D11240895A1E21A2EAA1BBB1BFD01F3
:1059D0000DC0AA1FBB1FEE1FFF1FA217B307E407CE
:1059E000F50720F0A21BB30BE40BF50B661F771F26
:1059F000881F991F1A9469F7609570958095909506
:105A00009B01AC01BD01CF010895A29FB001B39FDE
:105A1000C001A39F700D811D1124911DB29F700DB7
:105A2000811D1124911D0895AA1BBB1B51E107C0C4
:105A3000AA1FBB1FA617B70710F0A61BB70B881F1E
:105A4000991F5A95A9F780959095BC01CD010895AD
:105A5000EE0FFF1F881F8BBF0790F691E02D199462
:105A60002A193B094C095D096E097F09800B910BCE
:105A700008955058BB27AA270E94512D0C949E2CA4
:105A80000E94902C38F00E94972C20F039F49F3F10
:105A900019F426F40C948D2C0EF4E095E7FB0C948D
:105AA000872CE92F0E94AF2C58F3BA1762077307AF
:105AB0008407950720F079F4A6F50C94D12C0EF408
:105AC000E0950B2EBA2FA02D0B01B90190010C010E
:105AD000CA01A0011124FF27591B99F0593F50F426
