:100000000C94B1010C94E2010C94E2010C94E20115
:100010000C94E2010C94E2010C94E2010C94E201D4
:100020000C94E2010C94E2010C94E2010C94E201C4
:100030000C94E2010C949B1E0C94E2010C94E201DE
:100040000C94E2010C94981F0C94E2010C94E201D0
:100050000C94E2010C94E2010C94E2010C94511E08
:100060000C94E2010C94621F0C94381F0C94E20172
:100070000C94E2010C94E2010C94E2010C94E20174
:100080000C94E2010C94E2010C94E2010C94E20164
:100090000C94E2010C94E2010C94E2010C942D1DED
:1000A0000C94E2010C94E2010C94E2010C94E20144
:1000B0000C94E2010C94E2010C94E2010C94E20134
:1000C0000C94E2010C94E2010C94E2010C94E20124
:1000D0000C94E2010C94E2010C94E2010C94E20114
:1000E0000C94E2010C94D7090C9460260C94DA0865
:1000F0000C94E6090C94C3020C94C8250C941F259B
:100100000C94BD030C94C6090C9494080C94410AF9
:100110000C94AB030C94AF030C94550A0C94FE267C
:100120000C9496030C941E0A0C94B5030C947B2B30
:100130000C94E9120C9427090C94AA2B0C94160326
:100140000C94690A0C9409270C949E030C94EC02FD
:100150000C9480080C94C4020C94C3030C944303C5
:100160000C9471080C949A030C94C7030C94280AFD
:100170000C9441080C947C2C0C94020A0C94D5032A
:100180000C946E260C94D1030C94B9030C94A20326
:100190000C9435250C946E080C940E260C94D00308
:1001A0000C94950B0C946C170C945F0A0C94CB0375
:1001B0000C9449260C94DC090C94140A0C940F033B
:1001C0000C940A0A0C9490030C944B0A0C943B1761
:1001D0000C94F3260C94FA090C94A8170C94FC02C6
:1001E0000C94DC260C94370A0C94A2080C949D2BDA
:1001F0000C94F0090C9404270C94ED020C94A503C4
:100200000C9440200C94962B0C94F926CDCCCC3D2C
:100210000AD7233C17B7D13877CC2B329595E624F3
:100220001FB14F0A000020410000C84200401C4698
:1002300020BCBE4CCA1B0E5AAEC59D7402000021E4
:1002400000240027002A002D0030003300010100A7
:1002500000040107010A0100002200250028002BEC
:10026000002E003100340002010000050108010BDE
:1002700001000020002300260029002C002F00325E
:10028000000001000003010601090105050505073D
:100290000508080808020202020A0A080804040401
:1002A000040101010101010101030303030303032D
:1002B00003040707070C0C0C0C0C0C0C0C020202BC
:1002C0000206060606060606060B0B0B0B0B0B0BAF
:1002D0000B0102102020080810204010204080024E
:1002E000010201080402010102040810204080807C
:1002F0004020100804020180040201804020100800
:1003000004020108040201010204081020408001D7
:100310000204081020408000000A0B02090C0D0E98
:1003200008070304010000000000000000000000B6
:1003300000000000000000000000000000000000BD
:10034000000000121110000000000000000000007A
:10035000000000000000000000000000000040203D
:100360007C2C11241FBECFEFD1E2DEBFCDBF00E059
:100370000CBF12E0A0E0B2E0E8E2F4E600E00BBF60
:1003800002C007900D92A03FB107D9F725E0A0EF7A
:10039000B2E001C01D92AF3AB207E1F711E0C0EB45
:1003A000D1E000E006C021970109802FFE010E94E4
:1003B000FE2DCF3AD10780E00807A9F70E941B2243
:1003C0000C9402320C9400008F929F92AF92BF92D5
:1003D000CF92DF92EF92FF92CF93DF93C3E1D5E00C
:1003E000C880D980EA80FB80A70196016C817D815D
:1003F0008E819F810E940F2E4B015C016A857B8557
:10040000072E000C880B990B0E94912C9B01AC01CC
:10041000C501B4010E94F02C20E030EC4FE754E419
:100420000E94932EA70196010E94102E6B017C0161
:1004300068857985072E000C880B990B0E94912CFA
:100440009B01AC01C701B6010E940F2EDF91CF9135
:10045000FF90EF90DF90CF90BF90AF909F908F90E4
:1004600008954F925F926F927F928F929F92AF9278
:10047000BF92CF92DF92EF92FF92CF93DF93C3E1CF
:10048000D5E0C880D980EA80FB80A70196016C8105
:100490007D818E819F810E940F2E4B015C016A85B8
:1004A0007B85072E000C880B990B0E94912CA501CF
:1004B00094010E94F02C20E030EC4FE754E40E94BD
:1004C000932EA70196010E94102E2B013C016C85F2
:1004D0007D85072E000C880B990B0E94912CA5019D
:1004E00094010E94F02C20E030EC4FE754E40E948D
:1004F000932EA70196010E94102E9B01AC01C3010F
:10050000B2010E940F2EDF91CF91FF90EF90DF900C
:10051000CF90BF90AF909F908F907F906F905F90A3
:100520004F900895CF93DF93EC0188819981DC018E
:10053000ED91FC910190F081E02D64E270E019955D
:10054000009741F02FE1FC01238321E02283DF911A
:10055000CF91089521E02A83FACF80917B00877F95
:1005600080937B0087E480937C0080917A00806494
:1005700080937A0080917A0086FDFCCF809178008C
:100580009091790008950895089520916E03260FA3
:100590003327331F21323105ECF42091DD03FC01B8
:1005A00090E080E0243069F082E00895A0916E032D
:1005B0002191AC01425B5C4FA40FB52FB11D2C9370
:1005C0000196861798F380916E03680F60936E030F
:1005D00080E0089581E008950895E091B603809148
:1005E000B503E81730F4F0E0EF56FC4F808190E05F
:1005F00008958FEF9FEF08959091B6038091B50312
:100600002FEF3FEF981748F4E92FF0E0EF56FC4F3B
:10061000208130E09F5F9093B603C90108958091D7
:10062000B5039091B603891B990B0895CF92DF9281
:10063000EF92FF920F931F93CF93DF937C01CB0137
:100640008A012091E303222389F0EB016B01C40EA0
:10065000D51ECC15DD0569F06991D701ED91FC91AE
:100660000190F081E02DC7011995F3CF642F0E940E
:10067000C502C801DF91CF911F910F91FF90EF90BC
:10068000DF90CF900895CF93DF931F92CDB7DEB761
:1006900069832091E3032223F9F02091060420329C
:1006A00058F021E030E0FC013383228390E080E0C9
:1006B0000F90DF91CF9108958091E403E82FF0E04F
:1006C000EB51FC4F998190838F5F8093E40380937B
:1006D000060481E090E0ECCF61E0CE0101960E943B
:1006E000C502F7CF8150823108F05AC0E82FF0E000
:1006F0008827E258FC4F8F4F0C94FE2D9E03A203D7
:10070000900396039A03D003A503AB03AF03B5038D
:10071000B903BD03C303C703D003CB03D103D50380
:10072000809180008F778093800008958091800071
:100730008F7DF9CF80918000877FF5CF84B58F774B
:1007400084BD089584B58F7DFBCF8091B0008F77F5
:100750008093B00008958091B0008F7DF9CF809193
:1007600090008F77809390000895809190008F7D06
:10077000F9CF80919000877FF5CF8091A0008F778F
:100780008093A00008958091A0008F7DF9CF809183
:10079000A000877FF5CF809120018F778093200183
:1007A0000895809120018F7DF9CF80912001877F6E
:1007B000F5CFCF93DF93282F30E0F901E95EFC4FAE
:1007C0008491F901EF52FD4FD491F901E557FD4FA6
:1007D000C491CC23A1F081110E947203EC2FF0E0B0
:1007E000EE0FFF1FEF58FD4FA591B491EC91ED2353
:1007F00081E090E009F480E0DF91CF91089580E0FE
:1008000090E0FACF1F93CF93DF93282F30E0F901C8
:10081000E95EFC4F8491F901EF52FD4FD491F9014B
:10082000E557FD4FC491CC23A9F0162F81110E94EA
:100830007203EC2FF0E0EE0FFF1FE95AFD4FA59178
:10084000B4918FB7F894EC91111108C0D095DE23C4
:10085000DC938FBFDF91CF911F910895DE2BF8CFEE
:10086000FC0183858F3F19F061E00C940204089528
:10087000FC0180819181892B39F0A281B3819C9107
:1008800011968C919CBD8DBD83858F3F19F060E0E2
:100890000C94020408951092DD0381E08093DC0340
:1008A0001092B70361E084E10E94020461E085E1F7
:1008B0000E940204E9EBF0E080818E7F80838081DA
:1008C0008D7F808388E48093B80085E48093BC00AA
:1008D0000895CF93DF9391E090934D038823B9F06F
:1008E000C091B800D091BA008091BC008A7B8093FF
:1008F000BC0060E084E10E94020460E085E10E94A7
:1009000002040E944B04D093BA00C093B800DF9158
:10091000CF910895CF93DF9390E0FC01EF52FD4F0C
:10092000249185579D4FFC0184918823D1F090E05C
:10093000880F991FFC01E35CFD4FA591B491FC0168
:10094000E95AFD4FC591D49161110EC09FB7F8943B
:100950008C91E22FE0958E238C932881E223E8830B
:100960009FBFDF91CF9108958FB7F894EC91E22B60
:10097000EC938FBFF6CF8230910538F0880F991F26
:10098000880F991F05970197F1F70895AF92BF92CD
:10099000CF92DF92EF92FF920F931F93CF93DF934B
:1009A000EC0188819981892B89F06EBD0DB407FE19
:1009B000FDCFBEB48B2DDF91CF911F910F91FF9092
:1009C000EF90DF90CF90BF90AF9008958885998584
:1009D00011E0892B09F010E8AA24A394862F812323
:1009E00009F0A12C062F2C813D814E815F8160E2B0
:1009F00071EA87E090E00E94B92DF22EB02EE12C32
:100A0000C22ED12CFF2019F0C6010E94BB048A859A
:100A1000877F09F042C08D858F3F89F0902F912309
:100A200081E009F480E08A1551F0EF85F8898F891B
:100A3000992369F19081892B8083AA24A394E98961
:100A4000FA898081998D892B8083FF2019F0C60156
:100A50000E94BB048E858F3F39F0EB89FC89808131
:100A6000988D892309F0E12AE989FA899081898D95
:100A70008095892380838E858F3F09F0BE2C8885E1
:100A80009985892BB9F5110F1111BCCF93CF9081A6
:100A9000809589238083A12CD2CFE989FA8980812E
:100AA000998D892B8083FF2019F0C6010E94BB0419
:100AB0008D858F3F49F0EF85F8898F89902F91239D
:100AC000A9F09081892B8083E989FA899081898DA9
:100AD0008095892380838E858F3F69F2EB89FC891D
:100AE0008081988D892339F2E12AC5CF9081809544
:100AF0008923E9CF1695C8CF8F929F92AF92BF926C
:100B0000CF92DF92EF92FF920F931F93CF93DF93D9
:100B10007C014B016A01B22EA32E0E943804E4012D
:100B2000C80CD91CCC15DD0569F4CB2DDA2D0C0FC2
:100B30001D1FC017D10759F06FEFC7010E94C604EF
:100B40008993F7CF6991C7010E94C604EBCFC70113
:100B50000E94300481E0DF91CF911F910F91FF90AF
:100B6000EF90DF90CF90BF90AF909F908F900895BF
:100B70008F929F92AF92BF92CF92DF92EF92FF92AD
:100B80000F931F93CF93DF937C01B62EA72E6A019C
:100B900049010E943804E401080D191DC017D1074E
:100BA00061F4CB2DDA2DCC0EDD1ECC15DD0551F018
:100BB0006991C7010E94C604F8CF6991C7010E94DC
:100BC000C604ECCFC7010E94300481E0DF91CF91D1
:100BD0001F910F91FF90EF90DF90CF90BF90AF905B
:100BE0009F908F9008953FB7F8948091490390911A
:100BF0004A03A0914B03B0914C0326B5A89B05C0B6
:100C00002F3F19F00196A11DB11D3FBFBA2FA92F8B
:100C1000982F8827BC01CD01620F711D811D911D88
:100C200042E0660F771F881F991F4A95D1F70895F4
:100C30008F929F92AF92BF92CF92DF92EF92FF92EC
:100C40000F931F93CF93DF93D0910604D13208F016
:100C5000D7C0182FC09105040E94F3056B017C01D9
:100C60008091DD0381116BC082E08093DD031093DE
:100C7000DC038FEF8093DB031092DA03D093D90368
:100C8000A5EEB3E0E9EBF3E080E0D81391C0109259
:100C9000B8038091B803CC0FC82BC093B8038091E0
:100CA000B703813009F088C01092B7030E94F305A2
:100CB0006B017C018091B8038093BB008091DF03BE
:100CC0009091E003A091E103B091E203892B8A2B7C
:100CD0008B2BA1F00E94F3050091DF031091E0033C
:100CE0002091E1033091E2036C197D098E099F097F
:100CF000061717072807390708F442C08091BC007F
:100D000083FDD8CF85EC8093BC000E94F3056B0176
:100D10007C018091DD03823009F450C08091DB03B7
:100D20008F3F09F46FC08091DB03803209F46CC0FF
:100D30008091DB03803309F469C084E026C0809190
:100D4000DF039091E003A091E103B091E203892BCE
:100D50008A2B8B2B09F484CF0E94F3058090DF034C
:100D60009090E003A090E103B090E2036C197D093C
:100D70008E099F0986169706A806B90608F070CF57
:100D80008091DE030E94690485E01092E4031092D2
:100D900006041092E303DF91CF911F910F91FF9012
:100DA000EF90DF90CF90BF90AF909F908F9008957D
:100DB0009D9191938F5F69CF85EEA5CF8091DF03E1
:100DC0009091E003A091E103B091E203892B8A2B7B
:100DD0008B2B09F49ECF0E94F3050091DF03109145
:100DE000E0032091E1033091E2036C197D098E0943
:100DF0009F09061717072807390708F08ACFC0CFC1
:100E000081E0C3CF80E0C1CF82E0BFCF83E0BDCF20
:100E10001F93CF93DF93EA01122FDC0111968D917E
:100E20009C91DC01ED91FC910280F381E02D1995FC
:100E3000C817D90729F4812F0E94180691E0811163
:100E400090E0892FDF91CF911F910895CF92DF928B
:100E5000EF92FF920F931F93CF93DF931F921F92F6
:100E6000CDB7DEB7FC014787508B618B728B8285D3
:100E7000882371F14487452F562F672F77278823C2
:100E800049F143877F018BE0E80EF11C9681878151
:100E900099838A83C080D180C114D10409F443C0EE
:100EA000018510E098012E5F3F4FD60114968D9179
:100EB0009C918217930780F480E00F900F90DF9150
:100EC000CF911F910F91FF90EF90DF90CF900895F9
:100ED0004387D1CF4487D6CFF6018181928120818B
:100EE00031E03093E303209305041092E403109261
:100EF00006040115110541F421E042E050E0B7017C
:100F0000C6010E940807D9CFDC01ED91FC91028057
:100F1000F381E02DA801BE016F5F7F4F199508177F
:100F2000190751F6E9CFA281B381109729F22481E4
:100F30003581018510E02330310579F48E7F898376
:100F40009A830F5F1F4F9E012F5F3F4F42E050E09B
:100F5000B701CD010E94B805B0CF2115310519F4B4
:100F60009F779983F0CF2230310511F49068F9CF43
:100F70002130310541F79F779064F3CFCF93DF9312
:100F8000EC018B818823A1F0888191E09093E303A9
:100F9000809305041092E4031092060481E00E94FD
:100FA000180691E0811190E0892FDF91CF9108958B
:100FB0001092B6031092B5031092E4031092060447
:100FC0000E944B0483EC92E09093B2038093B103B0
:100FD00084EC92E09093B4038093B30381E08B831D
:100FE000CE010E94BE07982F8111CECFDDCF2FB743
:100FF000F894609145037091460380914703909166
:1010000048032FBF08950F931F9380912D05909152
:101010002E05892B99F180912F0590913005892B10
:1010200069F181E0809337050E94F70700913D0543
:1010300010913E0520913F0530914005DC01CB0128
:10104000800F911FA21FB31F809345059093460503
:10105000A0934705B09348051092380510925505A6
:101060001092560510925705109258051092590586
:1010700010925A0510925B0510925C051F910F911A
:101080000895AF92BF92CF92DF92EF92FF920F93AB
:101090001F93CF93DF936C017B018B01040F151F0E
:1010A000EB015E01AE18BF08C017D10759F0699176
:1010B000D601ED91FC910190F081E02DC6011995CA
:1010C000892B79F7C501DF91CF911F910F91FF9087
:1010D000EF90DF90CF90BF90AF90089590E080E0C8
:1010E0000895FC01538D448D252F30E0842F90E02E
:1010F000821B930B541710F0CF9608950197089513
:10110000FC01918D828D981761F0A28DAE0FBF2FDB
:10111000B11D5D968C91928D9F5F9F73928F90E031
:1011200008958FEF9FEF0895FC01918D828D9817A0
:1011300031F0828DE80FF11D858D90E008958FEFDD
:101140009FEF0895FC01918D228D892F90E0805CA6
:101150009F4F821B91098F739927089583E194E033
:101160000E94A20821E0892B09F420E0822F089533
:10117000FC01A48DA80FB92FB11DA35ABF4F2C910C
:10118000848D90E001968F739927848FA689B78903
:101190002C93A089B1898C91837080648C93938DFA
:1011A000848D981306C00288F389E02D80818F7D9D
:1011B00080830895EF92FF920F931F93CF93DF9355
:1011C000EC0181E0888F9B8D8C8D98131AC0E88983
:1011D000F989808185FF15C09FB7F894EE89FF8952
:1011E0006083E889F98980818370806480839FBFF0
:1011F00081E090E0DF91CF911F910F91FF90EF90F0
:101200000895F62E0B8D10E00F5F1F4F0F731127FF
:10121000E02E8C8D8E110CC00FB607FCFACFE8893A
:10122000F989808185FFF5CFCE010E94B808F1CF02
:10123000EB8DEC0FFD2FF11DE35AFF4FF0829FB7AE
:10124000F8940B8FEA89FB8980818062CFCFCF939E
:10125000DF93EC01888D8823B9F0AA89BB89E889DE
:10126000F9898C9185FD03C0808186FD0DC00FB684
:1012700007FCF7CF8C9185FFF2CF808185FFEDCF02
:10128000CE010E94B808E9CFDF91CF9108958F92E7
:101290009F92AF92BF92CF92DF92EF92FF920F9305
:1012A0001F93CF93DF93EC016A017B0120E030E0D4
:1012B0004FE753E4CB01B6010E94F02C4B015C01D7
:1012C00020E030E0A9010E94E72F18168CF5C50137
:1012D000B4010E94052F8B01B98020E030E0A90104
:1012E000C701B6010E94E72F60E018160CF061E01C
:1012F0008B2D0E9402040F3F110509F0ECF4112719
:10130000C88161E08C2F0E948A0401151105B9F48F
:1013100060E08C2FDF91CF911F910F91FF90EF90A4
:10132000DF90CF90BF90AF909F908F900C9402046D
:10133000C501B4019058CDCF0FEF10E0E1CF0F3FC2
:10134000110511F461E0E5CFEC2FF0E0E95EFC4F10
:10135000E491E150E23108F0BCC0F0E08827EC54A1
:10136000F64F8F4F0C94FE2DC609D709DC09E6090C
:10137000F009690AFA09020A0A0A140A1E0A280A66
:10138000370A410A690A4B0A550A5F0A84B5806820
:1013900084BD07BDDF91CF911F910F91FF90EF901A
:1013A000DF90CF90BF90AF909F908F90089584B5BD
:1013B000806284BD08BDEECF8091800080688093FC
:1013C00080001093890000938800E4CF8091800012
:1013D00080628093800010938B0000938A00DACFA4
:1013E0008091800088608093800010938D0000932E
:1013F0008C00D0CF8091B00080688093B0000093C3
:10140000B300C8CF8091B00080628093B000009399
:10141000B400C0CF809190008068809390001093BA
:10142000990000939800B6CF8091900080628093DD
:10143000900010939B0000939A00ACCF8091900095
:1014400088608093900010939D0000939C00A2CF31
:101450008091A00080688093A0008091A0008F7B85
:101460008093A0001093A9000093A80093CF8091CF
:10147000A00080628093A0001093AB000093AA00AC
:1014800089CF8091A00088608093A0001093AD0068
:101490000093AC007FCF8091200180688093200171
:1014A000109329010093280175CF8091200180625B
:1014B0008093200110932B0100932A016BCF809120
:1014C000200188608093200110932D0100932C014E
:1014D00061CF003811050CF035CF1ACF8EBD00005A
:1014E0000DB407FEFDCF8EB508956F3FB1F0E62F26
:1014F000E295EF7044E0E49F90011124DC01ED914E
:10150000FC91E20FF31F6F70B8E06B9FC0011124D4
:1015100062817381860F971F089590E080E008959F
:10152000CF93DF93EC0188819981DC01ED91FC91EF
:101530000190F081E02D19952A813B81820F931F44
:101540009B838A83DF91CF910895982F80336CF02D
:101550008A3324F08F3524F08B3724F481E008950A
:1015600081341CF081E09B350CF080E00895CF932E
:10157000DF93EC0188819981DC01ED91FC9102807F
:10158000F381E02D19952A813B81820F931F9B8364
:101590008A83DF91CF9108958F929F92AF92BF92ED
:1015A000CF92DF92EF92FF920F931F93CF93DF932F
:1015B000CDB7DEB766970FB6F894DEBF0FBECDBFCE
:1015C0006C018E01095E1F4F78018AE0882E912CF4
:1015D000A12CB12CCB01BA01A50194010E94B92D17
:1015E000942F852F605DF80162938F01A901692F07
:1015F000782F411551056105710561F7A7014E1B53
:101600005F0BBF01C6010E94B70A66960FB6F89439
:10161000DEBF0FBECDBFDF91CF911F910F91FF9025
:10162000EF90DF90CF90BF90AF909F908F900895F4
:10163000FC018485811114C0A781B08581859285C4
:101640002FEF3FEFA817B90730F4CD01019690872F
:1016500087832C9130E037FD20E0238781E0848769
:10166000838508951F93CF93DF93EC01162F0E947B
:10167000180B811306C01C8681E0DF91CF911F916A
:10168000089580E0FACF0F931F93CF93DF938C01DF
:10169000EB018991882369F0C8010E94180B882307
:1016A00079F0FE013197908198130DC0F8011486EE
:1016B000F0CF90E080E0DF91CF911F910F910895DE
:1016C00082E090E0F8CF83E090E0F5CFCF93DF9316
:1016D000EC01CE010E94180B8B304CF489305CF485
:1016E000882359F081E08E8390E080E00BC08D303C
:1016F00011F08032B9F71C86ECCF8E81811105C0C4
:1017000081E090E0DF91CF91089582E090E0FACF00
:10171000DC01ED91FC91309731F094819F7781E06D
:1017200019F080E0089581E00895AF92BF92CF92C2
:10173000DF92EF92FF920F931F93CF93DF93C3EF4C
:10174000D4E0288539854A855B856C857D858E85C5
:101750009F85A888B988CA88DB88EC88FD880E89AF
:101760001F890E94062E0E943B2F288139814A81C1
:101770005B810E94F02CDF91CF911F910F91FF9020
:10178000EF90DF90CF90BF90AF9008954F925F920F
:101790006F927F928F929F92AF92BF92CF92DF9281
:1017A000EF92FF920F931F93CF93DF93EB01DC0136
:1017B0002C912B32D9F12D32D1F50196FF24F394DF
:1017C000FC01208130ED320F3A3018F02E3209F052
:1017D00042C18C0160E070E0CB01F801219130ED55
:1017E000832E820E39E0381520F16A3949E97407F1
:1017F000840749E1940738F5AAE0B0E09B01AC0109
:101800000E94AE2D912CB12CA12C240135014094C5
:10181000509460947094461657066806790698F0BE
:10182000680D791D8A1D9B1D8F01D7CF0196F12C64
:10183000C7CF211108C0FF20E9F161307105810592
:1018400050E89507A0F0E12CBAE08B2E912CA12C4A
:10185000B12C6115710530E883079105B0F1A50140
:1018600094010E94B92DCA01B901E394F2CF2C81F1
:1018700020782A602C839B01AC0188279927DC0102
:10188000821B930BA40BB50B88839983AA83BB831C
:101890008F2DDF91CF911F910F91FF90EF90DF90EF
:1018A000CF90BF90AF909F908F907F906F905F9000
:1018B0004F9008952C81207828602C836883798349
:1018C0008A839B83FF24F394E3CFF801D8012D9101
:1018D0008D0130ED320F3A3010F4E394F6CF2E3212
:1018E00001F58F010F5F1F4FF8010F5F1F4F208120
:1018F000A0EDDA2ED20EB9E0BD1598F06C3CECEC00
:101900007E07ECE08E07910578F7AAE0B0E09B0136
:10191000AC010E94AE2D6D0D711D811D911DEA94CB
:10192000E3CF20812F7D10E000E0253409F05BC07B
:1019300021812D32D1F53296CC24C394DF0110E001
:1019400000E02E2D0E2C000C330B5AE0B52EFD01BD
:10195000DD9040ED4D0D4A3008F040C0B09EA00132
:10196000B19E500D11240D2DDD0C110B00531109EA
:10197000040F151FA801420F531F473251053CF3B6
:101980008C81CC20C9F040E050E060E070E8F110BC
:1019900003C040E050E0BA0180788C608C834883BB
:1019A00059836A837B83FC2C73CF2B3219F03196D9
:1019B000C12CC4CF3296FCCF40E050E060E87FEF0E
:1019C000F11004C040E050E060E87FE780788C6070
:1019D0008C83488359836A837B8374CFCC2019F02E
:1019E0001195019511092081211135C00E0D111D90
:1019F000E7FC1A950E948F2C34E2C32E32E0D32EDE
:101A0000101611063CF01195019511094CE0C42EF9
:101A100042E0D42EE12C0115110591F000FF0CC01D
:101A200024E0E29EF0011124EC0DFD1D259135917D
:101A3000459154910E94F02C15950795E394EBCFB6
:101A4000F11090582C8120782C602C836883798346
:101A50008A839B8337CFF12C1BCFCF92DF92EF92FB
:101A6000FF92CF93DF9300D01F921F92CDB7DEB7C6
:101A7000FC0184818F778630D9F040F48430A9F15D
:101A8000853009F43FC090E080E014C08A30F1F066
:101A90008C3009F43FC08830B1F780819181A281F8
:101AA000B381811520E89207A105B10560F702C056
:101AB000808190E00F900F900F900F900F90DF912A
:101AC000CF91FF90EF90DF90CF900895808191812A
:101AD000A281B381AC01BD0150586F4F7F4F4115BA
:101AE00051056140710578F6E5CF808191811D82B5
:101AF000BE016F5F7F4F0E94C60BCE0101960E9410
:101B00002D0DD8CF808191811D82BE016F5F7F4FE7
:101B10000496F1CFC080D180E280F38020E030E0F5
:101B200040E057ECC701B6010E94E72F87FDABCF1D
:101B300020E03EEF4FEF56E4C701B6010E948A2C29
:101B400018160CF4A0CFC701B6010E94052FCB01D7
:101B5000B1CFCF92DF92EF92FF92CF93DF9300D07D
:101B60001F921F92CDB7DEB7FC0184818F7786303C
:101B7000C1F038F4843019F1853071F190E080E0E3
:101B800012C08A3021F08C3079F18830B9F7808129
:101B90009181A281B381009721E0A207B10518F0DD
:101BA000EDCF808190E00F900F900F900F900F90ED
:101BB000DF91CF91FF90EF90DF90CF9008958081DB
:101BC00091811D82BE016F5F7F4F0E94C60BCE01C7
:101BD00001960E94A90DE7CF808191811D82BE01EF
:101BE0006F5F7F4F0496F1CFC080D180E280F38099
:101BF00020E030E0A901C701B6010E94E72F87FD70
:101C0000BDCF20E03FEF4FE757E4C701B6010E9488
:101C10008A2C18160CF4B2CFC701B6010E940C2F03
:101C2000CB01C1CFCF93DF9300D01F921F92CDB7CE
:101C3000DEB7FC0194819F77963091F030F49430B8
:101C400020F560E070E0CB0111C09A30B9F09C3013
:101C500051F19830B1F7608171818281938104C024
:101C6000608170E090E080E00E948F2C0F900F90D8
:101C70000F900F900F90DF91CF9108956081718147
:101C8000828193810E94912CF1CF808191811D826C
:101C9000BE016F5F7F4F04960E94C60BCE01019676
:101CA0000E94120EE3CF6081718182819381DECF29
:101CB000FC019289915084E0989F90011124A089A1
:101CC000B189A20FB31F1296ED91FC911397309733
:101CD000E9F011962C9111978C912817B8F481E0B6
:101CE000820F11968C9388E0289FA0011124E40FA5
:101CF000F51F309759F014828FEF85831782168273
:101D0000BF01892F8295807F820F089560E070E087
:101D10008FEF0895DF92EF92FF920F931F93CF936F
:101D2000DF93EC017B01D12C688979898A89D816E7
:101D3000E0F484E0D89E80011124060F171FD8011B
:101D400012966D917C916115710541F0D701ED916D
:101D5000FC910280F381E02DC7011995F8011382EF
:101D6000128210821182D394DFCF1A8A8FEF8C8B6C
:101D7000C617D70761F0D701ED91FC910280F3817E
:101D8000E02DC7011995D98BC88B84E08B8BDF912F
:101D9000CF911F910F91FF90EF90DF900895DB019D
:101DA000ED91FC9111970280F381E02DBC01CD01F2
:101DB00019940F931F93CF93DF93EC01088119813E
:101DC0008B819C81009749F0FC01208131813C830B
:101DD0002B83B8010E94CF0EF3CF68817981CE01A9
:101DE0000596DF91CF911F910F910C948A0ECF939E
:101DF000DF93EC01E881F981B0E0A0E03097F9F0E1
:101E00009F012C5F3F4F62177307A1F4928191509D
:101E10009283911114C080819181109741F08D932C
:101E20009C93BA01CF01DF91CF910C94CF0E99838F
:101E30008883F7CFDF010190F081E02DDFCFDF91C4
:101E4000CF9108958F929F92AF92BF92CF92DF92DF
:101E5000EF92FF920F931F93CF93DF938C01EB01CF
:101E6000FC01848180FF0AC04881598160817181B1
:101E70006C5F7F4FCE0103960E94F70EF8018481BC
:101E8000807681F10115110569F1D0805E01F5E1DF
:101E9000AF0EB11C4E0183E0880E911CEFEFDE16F1
:101EA000F1F06D2DC5010E94750A7C01FC01C58011
:101EB000848187FF07C04881598166817781C40189
:101EC0000E94F70EBE01C7010E94220FF701848114
:101ED00080788483898D8583D98EDC2CDFCFF801CF
:101EE000D082D182DF91CF911F910F91FF90EF901F
:101EF000DF90CF90BF90AF909F908F900895EF921A
:101F0000FF920F931F93CF93DF937C018B01EA0124
:101F10006F3F710509F0B0F4E881F9810480F58123
:101F2000E02DAB014B5F5F4FBC01CE0119950097CF
:101F300049F0FC010383DF91CF911F910F91FF9036
:101F4000EF900895E881F9810280F381E02DB701D7
:101F5000CE01199590E080E0EECFFF920F931F9392
:101F6000CF93DF93EC01F62E8A819B810097C9F015
:101F70006C817D81FC0123812617170691F408816D
:101F80001981F80140815181660F771F6F5F7F4F84
:101F90000E947F0F009719F421E0F80122839B83B0
:101FA0008A838A819B81009759F02C813D81A90108
:101FB0004F5F5F4F5D834C83820F931FFC01F48260
:101FC000DF91CF911F910F91FF9008959F92AF9253
:101FD000BF92CF92DF92EF92FF920F931F93CF9316
:101FE000DF9300D01F921F92CDB7DEB78C010E9405
:101FF000180BD82EF8011486F12CE12C60EFC62EB8
:10200000C8010E94180BF8011486D81609F4B3C051
:10201000811113C082E090E00F900F900F900F900D
:102020000F90DF91CF911F910F91FF90EF90DF9074
:10203000CF90BF90AF909F9008958C3509F099C0D4
:10204000C8010E94180B882329F3EBE4F2E08537DE
:1020500009F083C0F801148654E0952EB12CA12C10
:10206000C8010E94180B8823A9F2813434F48053EC
:10207000803130F083E090E0CFCF8F7D8753F8CF71
:1020800044E0AA0CBB1C4A95E1F7A82AF801148683
:102090009A949110E5CFC501985D8115944020F484
:1020A0007501F3E0FF22ACCFC5019C5D8115944022
:1020B000A8F483E0B822B701762F6627770F770F51
:1020C0006A297B2990E080E00196603871058105DE
:1020D000910540F4C8010E94AD0F92CFB50190E088
:1020E00080E0F3CF1982262F2F7320682A8326E001
:1020F00096958795779567952A95D1F76032710502
:1021000080F4606C6B835E01E4E0AE0EB11CF501FF
:1021100062915F01662309F473CFC8010E94AD0F7D
:10212000F6CF262F2F7320682B8386E07695679550
:102130008A95E1F76031710538F4606E6C835E0159
:10214000F5E0AF0EB11CE3CF60686C83CD825E0119
:1021500026E0A20EB11CDBCF32969081992309F4C0
:1021600089CF8913F9CF8181882309F483CFF801BE
:102170001486682FAFCF82819381892B19F484E074
:1021800090E04ACF90E080E047CFAF92BF92CF92ED
:10219000DF92EF92FF920F931F93CF93DF93DC01B7
:1021A0001296ED91FC91139714968D919C91159731
:1021B000E80FF91F14820D911C91119714966D91DF
:1021C0007C91159712968D919C9113979C012C5F91
:1021D0003F4FE801EB81FC817B01E20EF31E30975B
:1021E000B9F043814617170679F45901AF014C5FE6
:1021F0005F4FEA14FB0499F1E501C9905E01EA0121
:10220000D990AE01CD14A9F30190F081E02DE7CF74
:10221000ED01F801408151810E947F0FFC01892B63
:1022200021F481E0D80112968C93A881B98113968C
:102230008D919C911497918380831496FC93EE93D7
:1022400013971B821A82CF01DF91CF911F910F91BB
:10225000FF90EF90DF90CF90BF90AF900895828174
:102260008F5F8283F0CF2F923F924F925F926F9257
:102270007F928F929F92AF92BF92CF92DF92EF9216
:10228000FF920F931F93CF93DF9300D000D0CDB771
:10229000DEB77C017C836B830B969E838D83D70195
:1022A00016969C91169717968C91179799838A8307
:1022B0006D907C9011976114710409F44CC11996CA
:1022C0004C9150E0F3018481958184179507A8F023
:1022D000808191E09093E303809305041092E403DE
:1022E0001092060420E0BE016F5F7F4FC3010E9481
:1022F0000807D12CC12C81111AC080E026960FB698
:10230000F894DEBF0FBECDBFDF91CF911F910F912B
:10231000FF90EF90DF90CF90BF90AF909F908F9005
:102320007F906F905F904F903F902F900895D301D2
:1023300014968D919C9102E010E00C191D098017F4
:10234000910708F48C01F30150800E94F3054B01C2
:102350005C018091DD03811176C0B02EF0E2F017B0
:1023600010F440E2B42E81E08093DD0321E082E0AE
:1023700090E0801B910BC816D90608F420E020934A
:10238000DC039FEF9093DB031092DA038FEF8B0D4A
:102390008093D903A1E0A093B8038091B803550CB2
:1023A000582A5092B8038091B703813009F093C046
:1023B0001092B7030E94F3051B012C018091B80312
:1023C0008093BB008091DF039091E003A091E10333
:1023D000B091E203892B8A2B8B2BA1F00E94F3058D
:1023E0002091DF033091E0034091E1035091E2033B
:1023F0006219730984099509261737074807590791
:1024000008F442C08091BC0083FDD8CFB5ECB093F6
:10241000BC000E94F3051B012C018091DD0381307B
:1024200009F45DC08091DA038B1510F4B090DA03E3
:10243000A9EBB3E0E1E9F3E080E08B1551F19D9168
:1024400091938F5FFACF8091DF039091E003A09189
:10245000E103B091E203892B8A2B8B2B09F479CF0E
:102460000E94F3052091DF033091E0034091E103E6
:102470005091E203681979098A099B0926173707E1
:102480004807590708F065CF8091DE030E94690470
:10249000B12C1092B603B092B503B016110609F034
:1024A0002CCF8D809E808C0C9D1C5401C5018819F9
:1024B000990980179107A8F5D30111968D919C91E8
:1024C000DC01ED91FC910284F385E02D1995F50175
:1024D00081935F01EBCFE5EEE093BC009ACF809152
:1024E000DF039091E003A091E103B091E203892B17
:1024F0008A2B8B2B09F491CF0E94F3052091DF03E7
:102500003091E0034091E1035091E20362197309B5
:1025100084099509261737074807590708F07DCF22
:10252000B3CFC00ED11EF2E0CF16D10408F4FFCE17
:10253000F7018285811142C0848590E0982F882719
:10254000AB81BC8111969C938E932385822B8D93B6
:102550009C9381E0D3CE1296ED91FC911397309726
:1025600009F4CBCE14962D913C91159719964C9168
:1025700050E02330310591F4816089839A834F5F65
:102580005F4F02E010E02D813E81BE016F5F7F4F03
:10259000CF010E947C058111CBCFB0CE2115310532
:1025A00019F490689983EDCF2230310511F49F77AB
:1025B000F9CF2130310529F7906CF4CF838590E075
:1025C000982F8827AB81BC8111969C938E9324858C
:1025D000BDCFAB01BC01705889E895E00C94470968
:1025E000FC0101900020E9F73197AF01481B590B1E
:1025F000BC0183E194E00C944108AF92BF92CF926A
:10260000DF92EF92FF920F931F93CF93DF93CDB79B
:10261000DEB7A1970FB6F894DEBF0FBECDBF5C0149
:102620008CE592E00E94F01265010B2C000CEE0884
:10263000FF08F7FE48C06DE283E194E00E94DA08EB
:1026400022273327A9012C193D094E095F0919A238
:102650008E010F5D1F4F9AE0C92ED12CE12CF12C79
:10266000CA01B901A70196010E94B92D605DF80168
:1026700062938F01211531054105510589F7011537
:10268000110519F0C8010E94F01286E692E00E943E
:10269000F01280913E0390913F03099779F5A114C0
:1026A000B104B1F1A1960FB6F894DEBF0FBECDBF55
:1026B000DF91CF911F910F91FF90EF90DF90CF901E
:1026C000BF90AF900895A701960119A28E010F5DEA
:1026D0001F4F8AE0C82ED12CE12CF12CCA01B90180
:1026E000A70196010E94B92D605DF80162938F01E8
:1026F000211531054105510589F7C1CFF6E0AF1627
:10270000B1044CF484E0A816B104C4F4B7FC07C0CB
:102710001092370504C0EAE0AE16B104CCF3B092D3
:102720003F03A0923E030E94F7076093100370934B
:1027300011038093120390931303B4CF0E940308F4
:10274000EECFDF92EF92FF920F931F93CF93DF9321
:102750006115710561F460E070E08FEF9D2DDF91F0
:10276000CF911F910F91FF90EF90DF9008958A0114
:10277000EB01DC01FC900B5E1F4F6F2DC8010E9426
:10278000750A009741F3FC01E580009721F306806C
:10279000F781E02DDE010D900020E9F79D01215029
:1027A00031092C1B3D0BB0E0A0E0309739F0DF0180
:1027B0000D900020E9F71197AE1BBF0B2A173B07BE
:1027C00051F4DE012C0F3D1FA217B30769F05D9194
:1027D00041915417C9F36E2DC8010E94750A0097E4
:1027E00009F4B9CFFE2CCFCFBC018F2DDE2CB6CF94
:1027F000CF93DF93FC01C081D18162817381CE01CF
:102800004A9661F02E8D25FF09C0AE010E94A113EA
:102810009B01B901CE01DF91CF91089530E020E016
:10282000F8CFFB0101900020E9F73197AF01461B7B
:10283000570B0C94B70A1F93CF93DF93EBE4F2E0AE
:102840001281112379F0329621816213F9CFEC01C4
:102850006CE50E94900A612FCE01DF91CF911F910C
:102860000C94900A6111F9CF69E672E0DF91CF9183
:102870001F910C941114CF92DF92EF92FF920F935D
:102880001F93CF93DF938C016B017A0162E20E9468
:10289000900AE601EC0CFD1CCE15DF0529F06991CC
:1028A000C8010E941B14F8CF62E2C801DF91CF91EA
:1028B0001F910F91FF90EF90DF90CF900C94900AB2
:1028C0002F923F924F925F926F927F928F929F9240
:1028D000AF92BF92CF92DF92EF92FF920F931F932E
:1028E000CF93DF93CDB7DEB76C970FB6F894DEBF0A
:1028F0000FBECDBF8C011B01DC0114968C91149787
:102900008F77883009F4B2C2E8F4843009F469C2E0
:1029100048F4833009F49FC260E772E0C1010E946D
:1029200011141CC2853009F470C28630A9F78C914D
:1029300065E772E0811102C06AE772E0C1010E949E
:1029400011146DC28C30F1F1C8F48A3029F7CD90A2
:10295000DD90ED90FC90B701A601F7FE0BC06DE293
:10296000C1010E94900A44275527BA014C195D09FC
:102970006E097F09C1010E94CC0A51C2803209F45C
:10298000F7C1803449F66BE5C1010E94900AF80155
:1029900010811F3F09F4E7C1D10114968D919C91DC
:1029A000612F45960E94750A8C01B1010E94601446
:1029B000F80115811F3F09F4D6C16CE2C1010E94E4
:1029C000900AE7CFF801C080D180E280F380A701B0
:1029D0009601C701B6010E948A2C81119DCF20E08B
:1029E00030E0A901C701B6010E948A2C882379F042
:1029F000A7019601C701B6010E94102E9B01AC01F0
:102A0000C701B6010E948A2C882309F485CF20E0F3
:102A100030E0A901C701B6010E948A2C87FF08C0D7
:102A20006DE2C1010E94900AF7FAF094F7F8F09471
:102A300020E836E948E15BE4C701B6010E94E72FD0
:102A400087FD88C074E1A72EB12C00E210E0188E3B
:102A50001F8AF501EC5DFD4F25913591459154910B
:102A6000C701B6010E94E72F87FD13C0F501E45F9F
:102A7000FD4F2591359145915491C701B6010E94B2
:102A8000F02C6B017C012F89388D200F311F388F7E
:102A90002F8B1595079534E0A31AB1088CEFA81673
:102AA0008FEFB806B1F655245A9420E030E0A90122
:102AB000C701B6010E94E72F18160CF052C02CEA8D
:102AC00035EC47E257E3C701B6010E948A2C18167D
:102AD0000CF447C0A52DB4E0AB02C0011124B12C09
:102AE000A12CFC01E45FFD4F3F019C012C5D3D4F9B
:102AF00049013FEF531609F434C0F301EA0DFB1D01
:102B0000659175918591949120E030E040E251E427
:102B10000E94F02CA70196010E94E72F18169CF442
:102B2000F401EA0DFB1D2591359145915491C701A2
:102B3000B6010E94F02C6B017C018F89988D801B5F
:102B4000910B988F8F8B159507955A9494E0A91A3D
:102B5000B108CFCF00E210E055E0552E188E1F8A45
:102B6000A4CFC701B6010E940C2F4B015C012B01C1
:102B70003C0106E080E492E4AFE0B0E0898F9A8FF8
:102B8000AB8FBC8F102F01509AE04916510461049D
:102B90007104C8F0698D7A8D8B8D9C8D2AE030E0B0
:102BA00040E050E00E94B92D298F3A8F4B8F5C8F07
:102BB000C301B2012AE030E040E050E00E94B92DAC
:102BC00029013A01DFCFC501B4010E948F2C9B017E
:102BD000AC01C701B6010E940F2E6B017C01698D0B
:102BE0007A8D8B8D9C8D0E948F2C9B01AC01C7012F
:102BF000B6010E94F02C2B013C010E940C2F6B01AE
:102C00007C010E948F2C9B01AC01C301B2010E9488
:102C10000F2E9B01AC010E94102E0E940C2FC60E9D
:102C2000D71EE81EF91E898D9A8DAB8DBC8DC816F6
:102C3000D906EA06FB06D8F09FEF891A990AA90A75
:102C4000B90AAF89B88DAB2B39F1BAE08B16910474
:102C5000A104B10408F1EF89F88D3196F88FEF8B5C
:102C6000C12CD12C7601812C912C540183942AE023
:102C7000422E512C612C712CC701B601A301920187
:102C80000E94B92D672B682B692B51F4111644F45F
:102C900069017A011150F0CFC12CD12C7601E7CF18
:102CA000B501A401C1010E94CC0A112371F14E01AA
:102CB000F1E18F0E911C012F54019AE0492E512C05
:102CC000612C712C015068F0C701B601A30192017B
:102CD0000E94B92D605DD4016E934D0169017A01A6
:102CE000F1CF812F90E0BC0160957095F501E81B54
:102CF000F90B31978EE2808344275527461B570BEB
:102D00006A0D7B1DC1010E94B70AEF89F88DEF2B78
:102D100029F165E6C1010E94900A0F89188D17FFFD
:102D200007C06DE2C1010E94900A11950195110939
:102D3000FE0177969F018AE0E82EF12CC801B701C9
:102D40000E94EA2D805D82938B01672BB9F7A90160
:102D50004E1B5F0BBF01C1010E94B70AD101129641
:102D60008D919C915FC06DE5C1010E94900AF6CFE4
:102D70006BE7C1010E94900AF80110811F3F79F1B1
:102D8000D10114968D919C91612F45960E94750AF0
:102D90008C01FC01C680D78062E2C1010E94900ACA
:102DA0007601D7016D917D01662321F0C1010E945A
:102DB0001B14F7CF62E2C1010E94900A6AE3C101CD
:102DC0000E94900AB101C8010E946014F8011581A7
:102DD0001F3F29F06CE2C1010E94900ACFCF6DE73E
:102DE000C3CFF8016081718150E040E06115710549
:102DF00041F0FB0101900020E9F73197AF01461B3C
:102E0000570BC1010E943B14A9CFED91FC91438166
:102E100050E0BF016C5F7F4FC1010E943B14F10184
:102E2000828193816C960FB6F894DEBF0FBECDBF42
:102E3000DF91CF911F910F91FF90EF90DF90CF9096
:102E4000BF90AF909F908F907F906F905F904F90CA
:102E50003F902F900895ED91FC91438150E0BF0188
:102E60006C5F7F4FC1010E94B70AD9CF4D915D9130
:102E70006D917C917FCDCB010C948830CF93DF9303
:102E8000EC018091ED049091EE04009759F02091AF
:102E9000EF043091F0042C173D0720F081E0DF9122
:102EA000CF910895BE016F5F7F4F0E94113100974F
:102EB00089F09093EE048093ED04D093F004C093D6
:102EC000EF042091F1043091F204232B39F7FC0137
:102ED0001082E4CF80E0E3CFCB01BA010C94113132
:102EE00085ED8093BC008091DF039091E003A09179
:102EF000E103B091E2030796A11DB11D23E0B69551
:102F0000A795979587952A95D1F72091BC0024FD28
:102F100003C01092DD0308954091DF035091E00358
:102F20006091E1037091E203452B462B472B69F337
:102F30000097A105B10541F02AE22A95F1F700C0FA
:102F40000197A109B109E1CF8091DE030C946904D6
:102F5000CB010C94EC2F8F929F92AF92BF92CF92A5
:102F6000DF92EF92FF920F931F93CF93DF936C0149
:102F70008B01DB015996FC90BFEFFB1621F16F2D01
:102F8000C80145960E94750AEC018D81F801818F78
:102F9000209709F496C01C828FEF8D831F821E82BA
:102FA000D60111966C916F3F09F49FC0C8014596F8
:102FB0000E94750AFC01F582D6011196FC92BE01B1
:102FC0008F2D9D8084C05B01F5E0AF0EB11CDB014D
:102FD000ED90FC90119757968C91882349F0C5018C
:102FE0000E94580EC62FD72F209711F0F82ED8CF59
:102FF000F801C789908DC91325C0C03109F461C09B
:10300000CC0F65897689D701ED91FC91B4E0CB9F17
:10301000A0011124A616B70609F04BC00190F0815B
:10302000E02DBA01C7011995009709F44AC020E1C3
:10303000F501DC0101900D922A95E1F7F801968BDC
:10304000858BC08FD8015596CD91DC9156975796B8
:103050008C91579721E0280F57962C93B4E08B9FC3
:10306000C0011124C80FD91F90E1892E203111F41D
:103070008FE0882EE8E08E9EB0011124D701ED91FB
:10308000FC910190F081E02DC70119959B838A8303
:10309000892B09F4812C88821982CD2B91F0C501EE
:1030A0000E94580EC62FD72FF82E209709F078CF00
:1030B00008C00480F581E02DC7011995009709F03B
:1030C000BDCF81E0F801828360E070E08FEF992D41
:1030D000DF91CF911F910F91FF90EF90DF90CF90F4
:1030E000BF90AF909F908F900895F601F082F1828B
:1030F00066CF8F929F92AF92BF92CF92DF92EF9264
:10310000FF920F931F93CF93DF93EC018B01D42E8B
:103110000E94660B7C01892B09F047C0CE010E94FA
:10312000180B863609F452C124F5873229F08B3505
:1031300061F1823209F053C11D821C828A819B8118
:10314000892B31F4888199810E9492029B838A8322
:10315000CE010E94E60F7C01892B39F5CE010E9439
:10316000C510F80124812078256024839183808311
:103170001CC0843709F412C18B3709F45BC08E364A
:1031800009F02DC160E772E012C1F80184818078F6
:10319000806484830115110519F08FEF808381838A
:1031A000D11011C025E0E22EF12CC701DF91CF91A3
:1031B0001F910F91FF90EF90DF90CF90BF90AF9055
:1031C0009F908F9008951C86CE010E94660B0097F9
:1031D00009F085C06DE5CE010E94320B8111E5CF6B
:1031E000DA946D857E85C8010E94AB176115710563
:1031F00021F484E0E82EF12CD8CF4D2DCE010E9491
:103200007918009709F06BC0CE010E94660B0097F9
:1032100009F065C06DE5CE010E94320B8111C5CF6A
:103220006CE2CE010E94320B8111DBCF93E0E92EDC
:10323000F12CBBCFF80184818078806284830115F2
:10324000110519F08FEF80838183DD2009F4AACF67
:103250001C86CE010E94660B009709F040C06DE706
:10326000CE010E94320B8111A0CFBB24BA94BD0CB9
:103270001D821C828A819B81892B31F488819981EE
:103280000E9492029B838A83CE010E94180B873290
:10329000E1F08232D1F0CE010E94180BD82E0E94AC
:1032A000A50A882319F21C866D2DCE010E94AD0F50
:1032B000CE010E94180BD82E0E94A50A8111F3CFCF
:1032C0008A819B81892B31F494CFCE010E94E60F35
:1032D000009729F4CE010E94660B009711F07C0143
:1032E00064CF6AE3CE010E94320B882309F49ECF9B
:1032F000EA81FB818C819D81E80FF91F14824D8545
:103300005E856A817B816C5F7F4FC8010E94A1133B
:10331000CB016B01672BC9F5CE010E94C5104C0192
:103320006D857E85C8010E94AB176B016115710523
:1033300009F45FCFFB01848180688483F4E08F0E01
:10334000911CF601978286824B2DB601CE010E9418
:103350007918009721F6CE010E94660B009709F0BC
:10336000BECF6DE7CE010E94320B81111ECF6CE201
:10337000CE010E94320B882309F458CFCE010E945F
:10338000660B009709F474CFAACF6D857E850E94E5
:10339000220FF601848180788483D6CFF80184815E
:1033A00080788660848381E0808365E772E0CE0167
:1033B000DF91CF911F910F91FF90EF90DF90CF9011
:1033C000BF90AF909F908F900C94430BF801848135
:1033D00080788660848310826AE772E0E8CFCE014D
:1033E0000E94180B5E01FFE0AF0EB11CD12C9A2C8D
:1033F000CB2C803374F08A3374F49FE3D91699F0A0
:103400001C86D394F50181935F01CE010E94180BB5
:10341000F0CF8B3291F393ED980F923070F3982F99
:103420009F7D953451F3CD0DD11D1F86B801892D97
:103430009C2D0E94C60B8111B8CEF8CE2F923F92E0
:103440004F925F926F927F928F929F92AF92BF92B4
:10345000CF92DF92EF92FF920F931F93CF93DF9360
:10346000CDB7DEB7C557D1090FB6F894DEBF0FBE92
:10347000CDBF8E01005B1F4F21E0222E22E0322EB5
:10348000380125E0620E711C58018AE1A80EB11CBA
:1034900037E9432E32E0532E83E194E00E94A208E4
:1034A000892B09F41DC283E194E00E948008D82E84
:1034B00089831A82E090F104F090F2049FEFE91AF8
:1034C000F90AC7010E943E17882399F02091ED0464
:1034D0003091EE048091F1049091F204BE016F5F8F
:1034E0007F4F820F931F0E94FB31F092F204E09213
:1034F000F104EAE0DE12D0CFF8013182208212829C
:1035000014821382768A658A178A84E0808F8FEF0F
:10351000818F168EE1961FAE1EAEE197E3961FAE29
:103520001EAEE397C090F104D090F204E090ED0459
:10353000F090EE0461E072E0C3010E948A0EF8018F
:10354000128280809180F80183819481009751F0EC
:10355000FC0120813181F80134832383B4010E946E
:10356000CF0EF1CF168E1A8309831C821B821E8216
:103570001D821F82F986E886EC0CFD1CFB86EA861C
:103580001D861F870E874AE0B501CE0101960E9475
:1035900079187C01892B51F48C85882339F0F80146
:1035A000868D83FF03C093E0E92EF12C8B819C81F3
:1035B000009731F0E981FA81608171810E94CF0E1C
:1035C00090E080E00E943E172091ED043091EE04DF
:1035D00081112CC02115310519F0C9010E948830D4
:1035E0001092EE041092ED041092F2041092F10485
:1035F0001092F0041092EF04E114F10409F180E854
:1036000092E00E94F012F701EE0FFF1FE55EFD4F02
:1036100080819181009711F00E94F01286E692E07D
:103620000E94F012C8010E94D90E36CF1092F20407
:103630001092F1046BE572E0C9010E94FB31DCCF0E
:103640001A8309835C824B82CE0101960E94F81393
:10365000E3966CAF7DAF8EAF9FAFE397CE018159FC
:103660009F4F0E94880B811115C010923705E1967B
:103670008EAD9FADE197009709F4E8C00E94120E4D
:103680006093210570932205809323059093240570
:103690000E9403081A8309838AE992E09C838B8342
:1036A000CE0101960E94F813E3966CAF7DAF8EAF0A
:1036B0009FAFE397CE0181599F4F0E94880B8111E4
:1036C00015C010923705E1968EAD9FADE19700973A
:1036D00009F4C0C00E94120E609325057093260560
:1036E00080932705909328050E9403081A83098375
:1036F0008DE992E09C838B83CE0101960E94F813A2
:10370000E3966CAF7DAF8EAF9FAFE397CE0181594B
:103710009F4F0E94880B811115C010923705E196CA
:103720008EAD9FADE197009709F498C00E94120EEC
:103730006093290570932A0580932B0590932C059F
:103740000E9403081A83098380EA92E09C838B839A
:10375000CE0101960E94F813E3966CAF7DAF8EAF59
:103760009FAFE397CE0181599F4F0E94880B811133
:103770000DC0E1968EAD9FADE197009709F472C040
:103780000E94A90D90931503809314031A83098353
:1037900082EA92E09C838B83CE0101960E94F8130B
:1037A000E3966CAF7DAF8EAF9FAFE397CE018159AB
:1037B0009F4F0E94880B811129C086E193E0E69615
:1037C0009FAF8EAFE697F12CE12C6701E3968CADAD
:1037D0009DADAEADBFADE397FC01892B09F045C0AF
:1037E00060E070E0CB01E696EEADFFADE697619349
:1037F000719381939193E696FFAFEEAFE697FFEF5B
:10380000EF1AFF0A2AE0E216F104F9F61A83098397
:1038100084EA92E09C838B83CE0101960E94F81388
:10382000E3966CAF7DAF8EAF9FAFE397CE0181592A
:103830009F4F0E94880B8111F5CEF801868D85FD82
:103840003EC090E080E00E94FD12ECCE60E070E0AF
:10385000CB0116CF60E070E0CB013ECF60E070E0BE
:10386000CB0166CF90E080E08DCF248126FFB8CFDA
:103870004D0125E1820E911C6081C4010E94750AF0
:10388000009709F4ADCFFC01F581E496FFAFE49712
:10389000009709F4A5CFC114D104F9F0E4966FADF7
:1038A000E497C4010E94750A009729F0FC01F58194
:1038B000E496FFAFE49721E0C21AD108E9CFA8014E
:1038C00064EA72E0C5010E94A1136115710509F453
:1038D000B8CFCB010E942D0DB6CF0E94120E83CF20
:1038E000CB58DF4F0FB6F894DEBF0FBECDBFDF91D0
:1038F000CF911F910F91FF90EF90DF90CF90BF90ED
:10390000AF909F908F907F906F905F904F903F907F
:103910002F9008950E94AE0881110E941E1A80E027
:1039200090E0892B49F080E090E0892B29F00E94FB
:10393000000081110E94000080E090E0892B49F096
:1039400080E090E0892B29F00E94000081110E9404
:10395000000080E090E0892B49F080E090E0892B26
:1039600029F00E94000081110C9400000895EF924C
:10397000FF920F931F93CF93DF93FC01E080F180C0
:103980008701065E1F4F21F1C281D381209751F13B
:10399000F701868D982F9F7719F580788062868F42
:1039A0008FEF828F838FA701BE01C8010E94A113F0
:1039B000FB01309761F4B701C8010E94AB17FB010E
:1039C000309729F084818F778483D783C6838F01D2
:1039D000C801DF91CF911F910F91FF90EF90089553
:1039E00085FDE1CF10E000E0F3CFAF92BF92CF9220
:1039F000DF92EF92FF920F931F93CF93DF938C018F
:103A00007B01DC01AD90BC900E94B71CEC010097DB
:103A100081F0F701C080D180E280F380B5010E947F
:103A2000220F8C8180788C608C83C882D982EA8254
:103A3000FB82D801ED91FC9180E0309719F08281F2
:103A400091E08927DF91CF911F910F91FF90EF9027
:103A5000DF90CF90BF90AF9008951F920F920FB656
:103A60000F9211240BB60F922F933F934F935F93B6
:103A70006F937F938F939F93AF93BF93EF93FF9336
:103A80008091B900887F803609F44DC008F040C0AD
:103A9000883209F4A9C028F5803109F49DC0C8F422
:103AA000882309F4FBC0883009F496C0FF91EF9198
:103AB000BF91AF919F918F917F916F915F914F9146
:103AC0003F912F910F900BBE0F900FBE0F901F9044
:103AD0001895883109F488C0803241F78093DB0360
:103AE00014C0803409F49DC040F48033B9F38833A6
:103AF000E9F68093DB0385ECB0C0803509F485C01E
:103B0000883509F496C0883489F60E947017CECFA4
:103B1000883909F48CC038F5883729F050F4883694
:103B200011F0803719F683E08093DD031092900343
:103B300057C0883809F47BC0803919F0803809F003
:103B4000B5CF80919003803208F071C0E09190036E
:103B500081E08E0F809390038091BB00F0E0E059EC
:103B6000FC4F80833DC0803B39F0E0F4803A09F49B
:103B700079C0883A09F09ACF84E08093DD031092EF
:103B80006F0310926E03E091B103F091B2031995A7
:103B900080916E0381110FC081E080936E031092BB
:103BA0004E0309C0803C09F4A6CF883C09F4A3CF9A
:103BB000883B09F07BCFE0916F0381E08E0F80930B
:103BC0006F03F0E0E25BFC4F80818093BB0090913B
:103BD0006F0380916E0329C08091B8038093BB006E
:103BE00085EC8093BC0062CF9091DA038091D90379
:103BF000981758F5E091DA0381E08E0F8093DA038D
:103C0000F0E0E754FC4F8081E9CFE091DA0381E0F6
:103C10008E0F8093DA038091BB00F0E0E754FC4FF5
:103C200080839091DA038091D9039817C8F285E8D0
:103C3000D8CFE091DA0381E08E0F8093DA03809190
:103C4000BB00F0E0E754FC4F80838091DC038111DE
:103C50005CCF81E08093B70384EA8093BC0010922C
:103C6000DD0324CF85EC8093BC001092DD038091AE
:103C70009003803230F4E0919003F0E0E059FC4F83
:103C800010826091900370E0E091B303F091B4036F
:103C900080E793E019951092900308CF1092DB0310
:103CA00034CF1F920F920FB60F9211242F933F9390
:103CB0008F939F93AF93BF93809145039091460359
:103CC000A0914703B09148033091440323E0230FB0
:103CD0002D3758F50196A11DB11D20934403809303
:103CE000450390934603A0934703B0934803809104
:103CF000490390914A03A0914B03B0914C03019664
:103D0000A11DB11D8093490390934A03A0934B03D7
:103D1000B0934C03BF91AF919F918F913F912F91A1
:103D20000F900FBE0F901F90189526E8230F029654
:103D3000A11DB11DD2CF1F920F920FB60F92112469
:103D40000BB60F922F933F934F935F936F937F9395
:103D50008F939F93AF93BF93EF93FF9380910B0348
:103D600090910C03A0910D03B0910E03892B8A2B27
:103D70008B2BD1F190910A038091000089278093C9
:103D8000000080910B0390910C03A0910D03B09162
:103D90000E03181619061A061B069CF480910B03D5
:103DA00090910C03A0910D03B0910E030197A1090E
:103DB000B10980930B0390930C03A0930D03B09370
:103DC0000E03FF91EF91BF91AF919F918F917F91E2
:103DD0006F915F914F913F912F910F900BBE0F907C
:103DE0000FBE0F901F90189580910002ECE3F2E057
:103DF000E4919FEF90930002E230E9F040F4EE236B
:103E000089F0E13091F060E00E940204DACFE43002
:103E100049F110F1E530B9F7909173009D7F9093CF
:103E20007300F1CF10926E00EECF90916F009D7FE6
:103E300090936F00E8CF909170009D7F90937000F9
:103E400091E09093B0009091B100987F946090932E
:103E5000B1001092B300D7CF909171009D7F9093E5
:103E60007100D1CF909172009D7F90937200CBCF63
:103E70001F920F920FB60F9211240BB60F922F9331
:103E80003F934F935F936F937F938F939F93AF93E2
:103E9000BF93EF93FF9383E194E00E94B808FF91F2
:103EA000EF91BF91AF919F918F917F916F915F91B2
:103EB0004F913F912F910F900BBE0F900FBE0F901F
:103EC0001F9018951F920F920FB60F9211240BB6E8
:103ED0000F922F938F939F93EF93FF93E09123047F
:103EE000F09124048081E0912904F0912A0482FD5C
:103EF0001DC0908180912C048F5F8F7320912D04C1
:103F0000821741F0E0912C04F0E0ED5EFB4F958FBD
:103F100080932C04FF91EF919F918F912F910F909F
:103F20000BBE0F900FBE0F901F9018958081F2CF9F
:103F30001F920F920FB60F9211240BB60F922F9370
:103F40003F934F935F936F937F938F939F93AF9321
:103F5000BF93CF93DF93EF93FF9380910903C091B9
:103F6000EC04D0E087FF23C01092850010928400FB
:103F7000809109038F5F8093090380910903082EC4
:103F8000000C990B8C179D0724F4809109038C3049
:103F900074F1809184009091850084349C4908F4E8
:103FA00065C08091840090918500049661C08091E5
:103FB0000903082E000C990B8C179D07CCF6309145
:103FC000090325E03203F0011124E055FB4F808105
:103FD00086FFCECF309109033203F0011124E05562
:103FE000FB4F808160E08F730E940204C1CF8091FB
:103FF0008400909185003091090325E03203F0019F
:104000001124E055FB4F41815281840F951F9093FD
:10401000890080938800309109033203F001112454
:10402000E055FB4F808186FF0CC0309109033203BD
:10403000F0011124E055FB4F808161E08F730E94F5
:104040000204FF91EF91DF91CF91BF91AF919F91CA
:104050008F917F916F915F914F913F912F910F9031
:104060000BBE0F900FBE0F901F90189580E49CE937
:1040700090938900809388008FEF80930903E1CFAC
:1040800010920A041092090488EE93E0A0E0B0E0D8
:1040900080930B0490930C04A0930D04B0930E0432
:1040A0002BE232E0309308042093070410921604A8
:1040B000109215048093170490931804A093190488
:1040C000B0931A048DE392E0909314048093130448
:1040D00085EC90E09093200480931F0484EC90E0A2
:1040E000909322048093210480EC90E09093240428
:1040F0008093230481EC90E0909326048093250420
:1041000082EC90E0909328048093270486EC90E062
:1041100090932A048093290410922C0410922D0469
:1041200010922E0410922F0483E393E3A3E3BFE3E2
:1041300080939B0590939C05A0939D05B0939E054D
:104140008DEC9CECACE4BEE380939F059093A005BE
:10415000A093A105B093A20580E090E0A0E8BFE3A2
:104160008093A3059093A405A093A505B093A605FD
:104170001092A7051092A8051092A9051092AA0501
:104180008CE080936D0584E280936E0585E08093DA
:104190006F0596E0909370059EE1909371059FE105
:1041A0009093720592E29093730593E29093740555
:1041B00094E49093750595E49093760510927805B4
:1041C0001092770590E490937A0510927F051092F3
:1041D000800510928105109282051092830510923D
:1041E0008405109285051092860598E0E9E0F2E0DA
:1041F000AFE8B5E001900D929A95E1F740E050E00C
:1042000060EA70E440939705509398056093990590
:1042100070939A05E091EC04EC3008F0FFC091E057
:104220009E0F9093EC04E0936C058E9FF001112497
:10423000E055FB4F88EB9BE09283818388E6809377
:104240005D0510922105109222051092230510920F
:10425000240510922505109226051092270510922C
:1042600028051092290510922A0510922B0510920C
:104270002C0510922E0510922D05109230051092EB
:104280002F051092320510923105109233051092CD
:1042900034051092350510923605109237051092AC
:1042A0003805109245051092460510924705109268
:1042B00048051092490510924A0510924B0510923C
:1042C0004C0580E090E0A0EAB0E480934D05909327
:1042D0004E05A0934F05B093500580E090E0A8EC08
:1042E000B2E48093510590935205A0935305B09387
:1042F00054051092550510925605109257051092CC
:1043000058051092590510925A0510925B051092AB
:104310005C0584EE9BECA6E1B0EC809313059093D2
:104320001405A0931505B093160584EE9BECA6E149
:10433000B0E48093170590931805A0931905B093E6
:104340001A058EE293EEADECB8E38093F3049093FC
:10435000F404A093F504B093F6041092F7041092BD
:10436000F8041092F9041092FA041092FB041092CF
:10437000FC041092FD041092FE041092FF041092AF
:10438000000510920105109202051092030510928B
:10439000040510920505109206051092070510926B
:1043A00008051092090510920A0510920B0510924B
:1043B0000C0510920D0510920E0510920F0510922B
:1043C000100510921105109212051092EE04109231
:1043D000ED041092F0041092EF041092F204109287
:1043E000F10490E080E00E943E172091ED043091AE
:1043F000EE04811117C02115310519F0C9010E9481
:1044000088301092EE041092ED041092F204109293
:10441000F1041092F0041092EF0408958FEF80934E
:104420006C050CCF1092F2041092F1046BE572E06F
:10443000C9010C94FB31CF93DF93CDB7DEB7CE54D7
:10444000D1090FB6F894DEBF0FBECDBF789484B506
:10445000826084BD84B5816084BD85B5826085BD80
:1044600085B5816085BD80916E00816080936E000E
:104470001092810080918100826080938100809100
:1044800081008160809381008091800081608093B1
:1044900080008091B10084608093B1008091B00071
:1044A00081608093B0008091910082608093910040
:1044B0008091910081608093910080919000816053
:1044C000809390008091A10082608093A1008091F0
:1044D000A10081608093A1008091A0008160809301
:1044E000A0008091210182608093210180912101AF
:1044F000816080932101809120018160809320015F
:1045000080917A00846080937A0080917A00826042
:1045100080937A0080917A00816080937A00809104
:104520007A00806880937A001092C100E0912304A1
:10453000F091240482E08083E0911F04F091200434
:104540001082E0912104F091220480E18083109296
:104550002B04E0912704F091280486E08083E09109
:104560002504F0912604808180618083E0912504F8
:10457000F0912604808188608083E0912504F09189
:104580002604808180688083E0912504F0912604D0
:1045900080818F7D808361E080916E050E948A0416
:1045A00060E080916E050E94020460E080916D05DC
:1045B0000E948A048091770590917805892BA9F44F
:1045C00086E090E00E94EC2FFC0180917A058083C8
:1045D00087E094E092838183138280E290E0958368
:1045E0008483F0937805E0937705E0907705F09069
:1045F00078051092B6031092B5031092E40310925E
:1046000006040E944B0483EC92E09093B2038093E3
:10461000B10384EC92E09093B4038093B30311E070
:10462000D70113961C93C7010E94BE07882309F483
:104630005BC080E090E1A0E0B0E080937B059093C8
:104640007C05A0937D05B0937E058AE090E0A0E014
:10465000B0E080937F0590938005A0938105B0938F
:10466000820580E090E0A0E0B0E480938305909321
:104670008405A0938505B093860580917705909178
:1046800078051FA618AA19AA1AAA99A388A31BA27B
:104690001AA219A785E090E09FA38EA31AA702E0B3
:1046A00008A740E050E160E070E0CE0180960E94F3
:1046B00026078091770590917805188A198A1A8AB9
:1046C0001B8A9A8389831C821B821A8718861F8201
:1046D0001B8709874FE959E360E070E0CE0101963E
:1046E0000E942607809379057FE6E72E75E0F72E76
:1046F0000DE615E0E0EC6E2EE2E07E2EF6E08F2E69
:10470000F3E09F2EABECCA2EA7E0DA2EBBE8AB2E6F
:10471000BB24B394F7019281D7018D917D01F801FB
:10472000828F938F61E00E948A0461E0D8015B96DA
:104730008C910E948A04F70195818381D8015E964D
:104740008C935E975F969C9361E00E948A0460E080
:10475000F801878D0E948A0461E0D8015E968C91F1
:104760000E9402045FB6F89480910F03811125C066
:10477000F3018491F4019491E82FF0E0EE0FFF1F14
:10478000E35CFD4FA591B4918C91982321F461E0F5
:1047900085E30E94020461E085E30E948A048CB5EF
:1047A00080618CBD8CB580648CBD61E084E30E9427
:1047B0008A0461E083E30E948A0480910F038F5F83
:1047C00080930F035FBEC6010197F1F760E0D80147
:1047D0005E968C910E94020488E80E946E0A83E033
:1047E0000E946E0A61E0F801868D0E940204C601F3
:1047F0000197F1F760E0D8015E968C910E94020467
:1048000088E90E946E0A80E00E946E0A80E00E94A1
:104810006E0A80E00E946E0A80E00E946E0A61E0EB
:10482000F801868D0E940204C5010197F1F760E04E
:10483000D8015E968C910E94020480EE0E946E0A5E
:1048400061E0F801868D0E9402040E5F1F4FF5E0C3
:1048500001371F0709F05ECF60E08DE30E948A04F4
:1048600060E080E10E948A0460E08EE00E948A0499
:1048700060E081E10E948A0460E08FE00E948A0487
:1048800061E080E20E948A040E94AD028C01C09027
:104890001305D0901405E0901505F0901605A701BA
:1048A00096016091170570911805809119059091F6
:1048B0001A050E940F2E4B015C01B801110F880BE5
:1048C000990B0E94912C9B01AC01C501B4010E947F
:1048D000F02C20E030EC4FE754E40E94932EA70127
:1048E00096010E94102E0E94052F70931C05609364
:1048F0001B0580E090E0A0E7B1E480932105909350
:104900002205A0932305B093240580E090E0A0EA5F
:10491000B0E48093250590932605A0932705B093D6
:10492000280580E090E0A0E0B0E480932905909312
:104930002A05A0932B05B0932C058FE692E1A3E8FE
:10494000BAE380934D0590934E05A0934F05B09325
:1049500050058AE090E0A0E0B0E080933D059093A0
:104960003E05A0933F05B09340058AE097EDA3E292
:10497000BCE38093390590933A05A0933B05B0932F
:104980003C0585E99BE090932E0580932D0589EEEB
:1049900092E19093300580932F05CE0141962A969F
:1049A0009FAF8EAF2A970E94F707009140031091A6
:1049B00041032091420330914303601B710B820B32
:1049C000930B693171058105910508F48DC68EE060
:1049D0000E94D903892B21F088E090E00E94FD120B
:1049E00080E10E94D903892B21F087E090E00E94AA
:1049F000FD1281E10E94D903892BD9F089E090E072
:104A00000E94FD12E0913E03F0913F033197E830A0
:104A1000F10508F099C08827EF5EFA4D8F4F0C948E
:104A2000FE2D1F25C825492660266E26DC26FE267B
:104A3000F3268FE00E94D903892B01F7E3CF0E9470
:104A400031026B017C0120E030E0A9010E94E72FD8
:104A500018160CF055C02AE037ED43EA5BE3C701B6
:104A6000B6010E948A2C87FD56C0C0901305D090D5
:104A70001405E0901505F0901605A70196016091C8
:104A80001705709118058091190590911A050E94DB
:104A90000F2E4B015C0160911D0570911E05072EC4
:104AA000000C880B990B0E94912C9B01AC01C50155
:104AB000B4010E94F02C20E030EC4FE754E40E9457
:104AC000932EA70196010E94102E6B017C0160912C
:104AD0001B0570911C05072E000C880B990B0E947A
:104AE000912C9B01AC01C701B6010E940F2E2DEC49
:104AF0003CEC4CE45EE30E94F02CAB01BC01C3C073
:104B00002AE037ED43EA5BEBC701B6010E94E72FCD
:104B100018160CF0AACF0E94E4016B017C0120E082
:104B200030E0A9010E94E72F181634F52DEC3CEC7B
:104B30004CE45DE3C701B6010E948A2C87FF95CF44
:104B400082E090E00E94FD12E0913E03F0913F036D
:104B5000EA30F10508F0CBC18827EE54FA4D8F4FAB
:104B60000C94FE2DAA2B35250E267B2B09279D2B79
:104B7000962B0427F926AA2B2DEC3CEC4CE45DEB9C
:104B8000C701B6010E94E72F18160CF06ECFD8CFE0
:104B90002091FB043091FC044091FD045091FE04EF
:104BA0006091FF04709100058091010590910205CC
:104BB0000E943B2F2091F3043091F4044091F504BE
:104BC0005091F6040E94F02C2091F7043091F804E3
:104BD0004091F9045091FA040E94102E6B017C015F
:104BE00020E030E0A9010E94E72F18166CF42AE0BB
:104BF00037ED43E25CE3C701B6010E948A2C87FFD0
:104C00000DC090E080E09ECF2AE037ED43E25CEB00
:104C1000C701B6010E94E72F18169CF32091FB04F0
:104C20003091FC044091FD045091FE046091FF041A
:104C30007091000580910105909102050E943B2F23
:104C40002091F3043091F4044091F5045091F6045E
:104C50000E94F02C2091F7043091F8044091F9045F
:104C60005091FA040E94102E20E030E0A9010E9429
:104C70008A2C4DEC5CEC6CEC7DEB87FF04C04DECBA
:104C80005CEC6CEC7DE3705889E895E00E94470984
:104C90002EC10E94F707009110031091110320917B
:104CA000120330911303601B710B820B930B693E4F
:104CB00073408105910508F41EC584E090E042CF61
:104CC0000E94E40120E030E040E05FE30E94E72F33
:104CD00018160CF09EC085E090E034CF20E030E064
:104CE000A90160919B0570919C0580919D05909113
:104CF0009E050E948A2C87FF2DC020E030E0A9018C
:104D00006091A3057091A4058091A5059091A605D9
:104D10000E94E72F1816F4F420E030E0A90160911A
:104D20009F057091A0058091A1059091A2050E9418
:104D3000E72F18167CF420E030E0A9016091A70568
:104D40007091A8058091A9059091AA050E948A2CCE
:104D500087FD2FC02091FB043091FC044091FD049D
:104D60005091FE046091FF0470910005809101054F
:104D7000909102050E943B2F2091F3043091F4049E
:104D80004091F5045091F6040E94F02C2091F70414
:104D90003091F8044091F9045091FA040E94102EC9
:104DA00020E030E040E05FE30E94E72F18160CF0AF
:104DB000C4C486E090E0C6CE0E94F70700911003BD
:104DC000109111032091120330911303601B710B9A
:104DD000820B930B693C71058105910508F4A6C40B
:104DE00081E090E0AFCE8EE00E94D903892B09F4D8
:104DF00008CF4DEC5CEC6CEC7DE346CF80E10E948B
:104E0000D903892B09F4FDCE4DEC5CEC6CEC7DEB09
:104E10003BCF0E94F7072091140330911503A9019D
:104E20004C595F4F4617570708F461C4621B730B58
:104E300090E080E00E948F2C20E030E040E251E4DE
:104E40000E94932E4B015C010E947C2E2B013C01A1
:104E5000C501B4010E947F2F0E940C2F6B0190E0CE
:104E600080E00E948F2C9B01AC01C501B4010E941F
:104E70000F2E4B015C01CC0CDD1CCC0CDD1CF601B3
:104E8000EC5EFC4F6F01AC019B0160E070E080E8DC
:104E90009FE30E940F2ED60112962D913D914D91C8
:104EA0005C9115970E94F02C6B017C01C301B2014B
:104EB0000E940C2F660F771F660F771F6C5E7C4F6A
:104EC000FB012281338144815581C501B4010E94D7
:104ED000F02C9B01AC01C701B6010E94102E60931B
:104EE00033057093340580933505909336050E9401
:104EF000AD0220911D0530911E05309320052093B1
:104F00001F0590931E0580931D0560E080918D051F
:104F10000E94020480E60E946E0A8E010F5F1F4FFE
:104F20007801480180E00E946E0A90E0B0E0A0E0C5
:104F3000F70181939193A193B1937F012A968EAD4E
:104F40009FAD2A978E179F0769F761E080918D05C5
:104F50000E940204412C512C3201F801819191915F
:104F6000A191B1918F01762C652C542C4424480ECC
:104F7000591E6A1E7B1EEE16FF0679F72090FB0471
:104F80003090FC04B091FD04A091FE04F091FF0468
:104F9000E0910005209101052B962FAF2B97809172
:104FA00002052F968FAF2F9791014B2F5A2F6F2FFE
:104FB0007E2F2B968FAD2B972F969FAD2F97A0907E
:104FC0000305B0900405C0900505D0900605E0905B
:104FD0000705F09008050091090510910A050E9447
:104FE000062E20930B0530930C0540930D0550932E
:104FF0000E0560930F057093100580931105909333
:1050000012052092030530920405B0930505A09384
:105010000605F0930705E09308052B96AFAD2B9797
:10502000A09309052F96BFAD2F97B0930A057094F2
:10503000609450944094411C511C611C711CD3011C
:10504000C201BB0F880B982FDC014092FB045092E9
:10505000FC046092FD047092FE048093FF04809330
:10506000000580930105809302050E94F7070091D7
:105070004505109146052091470530914805601778
:1050800071078207930708F45BC080913705882376
:1050900009F456C00E94F70700913D0510913E05A6
:1050A00020913F0530914005DC01CB01800F911F1D
:1050B000A21FB31F8093450590934605A093470513
:1050C000B0934805C0903305D0903405E090350585
:1050D000F0903605E0912D05F0912E0519959B0174
:1050E000AC01C701B6010E940F2E6B017C019F77B6
:1050F00020914D0530914E0540914F05509150053E
:105100000E948A2C87FF2BC381E080933805109280
:105110003705E0913105F0913205309709F0199586
:105120008091450590914605A0914705B0914805AD
:105130008093490590934A05A0934B05B0934C0585
:1051400081E092E09A8389831B821D821C82A6E003
:10515000B0E0AC0FBD1FBF8BAE8B188E84E0898F83
:105160008FEF8A8F1F8E0E94F7076B017C0188A248
:1051700099A2ECEDF2E0FBA3EAA3CE0180960E9497
:10518000B71C8C01009781F0B4010E94220FD80156
:1051900014968C9114978078886014968C93F801FB
:1051A000C082D182E282F382E0903E03F0903F031E
:1051B00088A299A284EA92E09BA38AA3CE0180965A
:1051C0000E94B71C8C010097A1F0B4010E94220F2D
:1051D000D80114968C91149780788A6014968C93D9
:1051E000C701FF0CAA0BBB0BF80180839183A2833C
:1051F000B3838091210590912205A0912305B09160
:10520000240588A399A3AAA3BBA38BAA9CAA87E978
:1052100092E09EAB8DABBE01605E7F4FCE01C39628
:105220000E94F51C8091250590912605A0912705E7
:10523000B091280588A399A3AAA3BBA38BAA9CAA73
:105240008AE992E09EAB8DABBE01605E7F4FCE01DE
:10525000C3960E94F51C8091290590912A05A09182
:105260002B05B0912C0588A399A3AAA3BBA38BAA55
:105270009CAA8DE992E09EAB8DABBE01605E7F4F34
:10528000CE01C3960E94F51C8091330590913405A0
:10529000A0913505B091360588A399A3AAA3BBA315
:1052A0008BAA9CAA86EA92E09EAB8DABBE01605EA3
:1052B0007F4FCE01C3960E94F51C2091FB043091D4
:1052C000FC044091FD045091FE046091FF04709134
:1052D000000580910105909102050E943B2F2091CD
:1052E000F3043091F4044091F5045091F6040E94C7
:1052F000F02C2091F7043091F8044091F90450917A
:10530000FA040E94102E68A379A38AA39BA38BAAF8
:105310009CAA8AEA92E09EAB8DABBE01605E7F4F95
:10532000CE01C3960E94F51C2091FB043091FC0431
:105330004091FD045091FE046091FF0470910005BE
:105340008091010590910205A0900305B09004059D
:10535000C0900505D0900605E0900705F09008057F
:105360000091090510910A050E94062E0E943B2F0C
:105370002091F3043091F4044091F5045091F60427
:105380000E94F02C68A379A38AA39BA38BAA9CAA52
:1053900089EA92E09EAB8DABBE01605E7F4FCE018D
:1053A000C3960E94F51C2091FB043091FC044091AF
:1053B000FD045091FE046091FF04709100058091FE
:1053C000010590910205A0900305B0900405C090DE
:1053D0000505D0900605E0900705F09008050091BE
:1053E000090510910A050E94062EA0900B05B090A9
:1053F0000C05C0900D05D0900E05E0900F05F090C3
:10540000100500911105109112050E94062E0E94B0
:105410003B2F2091F3043091F4044091F504509116
:10542000F6040E94F02C68A379A38AA39BA38BAAFD
:105430009CAA88EA92E09EAB8DABBE01605E7F4F76
:10544000CE01C3960E94F51C0E94E40168A379A3D3
:105450008AA39BA38BAA9CAA8DEA92E09EAB8DABFC
:10546000BE01605E7F4FCE01C3960E94F51C0E9474
:10547000310268A379A38AA39BA38BAA9CAA8CEA76
:1054800092E09EAB8DABBE01605E7F4FCE01C396B6
:105490000E94F51CF090380588A299A284EB92E056
:1054A0009BA38AA3CE0180960E94B71C8C01009713
:1054B00069F0B4010E94220FD80114968C911497C0
:1054C0008078866014968C931497FC92809177056F
:1054D000909178051FA618AA19AA1AAA99A388A3B9
:1054E0001BA21AA211E019A782E090E09FA38EA34D
:1054F0001AA702E008A7BE016D5C7F4FCE0180961F
:105500000E94331180937905EBA8FCA883E0F69400
:10551000E7948A95E1F7EE0CFF1CEE0CFF1C8091DE
:105520007705909178051FA618AA19AA1AAA99A317
:1055300088A31BA21AA219A781E090E09FA38EA3C3
:105540001AA708A7BE016D5C7F4FCE0180960E940E
:105550003311809379056BA97CA9072E000C880B69
:10556000990B0E94912C2AE037ED43E25CE30E9404
:10557000F02C20E030E04AE754E40E94932E2B0107
:105580003C01B701FF0C880B990B0E94912C2FE670
:1055900032E143E85AE30E94F02C9B01AC01C301C5
:1055A000B2010E94102E68A379A38AA39BA38BAAA1
:1055B0009CAA8FEA92E09EAB8DABBE01605E7F4FEE
:1055C000CE01C3960E94F51C8091770590917805D5
:1055D00026961CAE1DAE1EAE1FAE26979CAB8BABA7
:1055E0001EAA1DAA1CAF85E090E09AAF89AF1DAF3F
:1055F0000BAF40917B0550917C0560917D057091CA
:105600007E05CE01C3960E94260780917705909172
:1056100078051FA618AA19AA1AAA99A388A31BA2DB
:105620001AA219A784E090E09FA38EA31AA708A747
:10563000BE016A5B7F4FCE0180960E94331180933A
:10564000790528966EAD7FAD2897072E000C880B44
:10565000990B0E94912C6B017C0160917F057091E8
:10566000800580918105909182050E948F2C9B017D
:10567000AC01C701B6010E94932E20E030E04AE75A
:1056800054E40E94932E68A379A38AA39BA38BAAB8
:105690009CAA81EB92E09EAB8DABBE01605E7F4F1A
:1056A000CE01C3960E94F51C83E194E099A388A3E0
:1056B0001BA21AA28CA29DA2BE01605E7F4FCE01EA
:1056C0004B960E94601486E692E00E94F012C4019C
:1056D0000E94D90E0E94F707609340037093410324
:1056E00080934203909343030E948A1C5CC960E04C
:1056F00070E0CB01F4CB40E050E060E070E889E876
:1057000095E00E9447090E94F7070091100310914D
:1057100011032091120330911303601B710B820B54
:10572000930B643F71408105910510F460E001C066
:1057300061E080E20E940204DACB80E090E0A0E029
:10574000B0E48093330590933405A0933505B0936E
:105750003605CDCB40E050E060E070E895CA00919E
:105760002F05109130050E94F70740904905509091
:105770004A0560904B0570904C05641975098609BF
:105780009709609341057093420580934305909378
:10579000440520915505309156054091570550918B
:1057A0005805C701B6010E94102E609355057093ED
:1057B0005605809357059093580540905105509099
:1057C00052056090530570905405A30192010E9408
:1057D000E72F181644F440925505509256056092F2
:1057E00057057092580577FA709477F87094A30172
:1057F00092016091550570915605809157059091E1
:1058000058050E948A2C87FF08C040925505509287
:105810005605609257057092580540903905509092
:105820003A0560903B0570903C05209155053091FC
:105830005605409157055091580560912505709186
:10584000260580912705909128050E94F02CA30140
:1058500092010E94F02C2E966CAF7DAF8EAF9FAF61
:105860002E972091210530912205409123055091DA
:105870002405C701B6010E94F02C9B01AC012E96B5
:105880006CAD7DAD8EAD9FAD2E970E94102E2E96E5
:105890006CAF7DAF8EAF9FAF2E97209159053091A1
:1058A0005A0540915B0550915C05C701B6010E9405
:1058B0000F2E2091290530912A0540912B055091FA
:1058C0002C050E94F02CA30192010E94932E9B01B3
:1058D000AC012E966CAD7DAD8EAD9FAD2E970E9426
:1058E000102EC0925905D0925A05E0925B05F092B5
:1058F0005C05F801199514CC8091ED049091EE04AB
:10590000009711F00E94883080917705909178057A
:105910000C9488300E94CC2C08F481E00895E8941F
:1059200009C097FB3EF490958095709561957F4FE7
:105930008F4F9F4F9923A9F0F92F96E9BB27939595
:10594000F695879577956795B795F111F8CFFAF4A5
:10595000BB0F11F460FF1BC06F5F7F4F8F4F9F4FD6
:1059600016C0882311F096E911C0772321F09EE834
:10597000872F762F05C0662371F096E8862F70E09A
:1059800060E02AF09A95660F771F881FDAF7880F74
:105990009695879597F90895990F0008550FAA0BCA
:1059A000E0E8FEEF16161706E807F907C0F0121632
:1059B0001306E407F50798F0621B730B840B950B35
:1059C00039F40A2661F0232B242B252B21F408958A
:1059D0000A2609F4A140A6958FEF811D811D089527
:1059E0000E94032D0C94742D0E94662D38F00E94A5
:1059F0006D2D20F0952311F00C945D2D0C94632DEA
:105A000011240C94A82D0E94852D70F3959FC1F34D
:105A1000950F50E0551F629FF001729FBB27F00D5C
:105A2000B11D639FAA27F00DB11DAA1F649F6627B1
:105A3000B00DA11D661F829F2227B00DA11D621F00
:105A4000739FB00DA11D621F839FA00D611D221FBA
:105A5000749F3327A00D611D231F849F600D211D9E
:105A6000822F762F6A2F11249F5750409AF0F1F021
:105A700088234AF0EE0FFF1FBB1F661F771F881F8A
:105A800091505040A9F79E3F510580F00C945D2D38
:105A90000C94A82D5F3FE4F3983ED4F38695779558
:105AA0006795B795F795E7959F5FC1F7FE2B880F30
:105AB000911D9695879597F9089597F99F6780E8C6
:105AC00070E060E008959FEF80EC089500240A9450
:105AD0001616170618060906089500240A941216C9
