:100000000C94B5010C94E6010C94E6010C94E60105
:100010000C94E6010C94E6010C94E6010C94E601C4
:100020000C94E6010C94E6010C94E6010C94E601B4
:100030000C94E6010C94B1200C94E6010C94E601BA
:100040000C94E6010C94AE210C94E6010C94E601AC
:100050000C94E6010C94E6010C94E6010C946720E4
:100060000C94E6010C9478210C944E210C94E6013A
:100070000C94E6010C94E6010C94E6010C94E60164
:100080000C94E6010C94E6010C94E6010C94E60154
:100090000C94E6010C94E6010C94E6010C94431FC9
:1000A0000C94E6010C94E6010C94E6010C94E60134
:1000B0000C94E6010C94E6010C94E6010C94E60124
:1000C0000C94E6010C94E6010C94E6010C94E60114
:1000D0000C94E6010C94E6010C94E6010C94E60104
:1000E0000C94E6010C94370A0C94BD030C945F2920
:1000F0000C9444280C9485280C9449170C94F8030C
:100100000C94E6030C9470030C941D0C0C943F1F8C
:100110000C94C1080C9460130C9407090C94CF083C
:100120000C9454090C94CB030C94F0270C94E20328
:100130000C9429030C94582A0C94550A0C94820AA6
:100140000C941A030C94FE030C94F1020C943C03DF
:100150000C944B0A0C9476290C9402040C94960A85
:100160000C9456220C94D8030C9446170C949E2899
:100170000C9421290C941A2B0C94A3280C948C0A0F
:100180000C94C7030C94EA030C94AF270C94A92891
:100190000C94270A0C940E0C0C949E080C94F309F2
:1001A0000C94090A0C942F0A0C94FD030C946E0A0B
:1001B0000C94D2030C94F0030C94F0020C949B0862
:1001C0000C94AE280C9443030C94C3030C94410A82
:1001D0000C94640A0C94F4030C94AD080C94CF03B3
:1001E0000C9498280C94040A0C94532A0C94200C18
:1001F0000C94780A0C941D0A0C9419030C94DC03DB
:100200000C946E080C9403280C9489270C945429A0
:100210000C94130ACDCCCC3D0AD7233C17B7D13868
:1002200077CC2B329595E6241FB14F0A0000204170
:100230000000C84200401C4620BCBE4CCA1B0E5ADF
:10024000AEC59D740200002100240027002A002D65
:10025000003000330001010000040107010A010021
:10026000002200250028002B002E0031003400025F
:10027000010000050108010B0100002000230026F9
:100280000029002C002F00320000010000030106AD
:10029000010901050505050705080808080202020D
:1002A000020A0A0808040404040101010101010111
:1002B000010303030303030303040707070C0C0CE8
:1002C0000C0C0C0C0C0202020206060606060606C0
:1002D000060B0B0B0B0B0B0B0B010210202008085D
:1002E0001020401020408002010201080402010198
:1002F0000204081020408080402010080402018081
:1003000004020180402010080402010804020101D7
:1003100002040810204080010204081020408000E0
:10032000000A0B02090C0D0E08070304010000006F
:1003300000000000000000000000000000000000BD
:10034000000000000000000000000012111000007A
:10035000000000000000000000000000000000009D
:1003600000000000000056221A2B11241FBECFEF00
:10037000D1E2DEBFCDBF00E00CBF12E0A0E0B2E0F2
:10038000E2EFF0E600E00BBF02C007900D92A83E3E
:10039000B107D9F725E0A8EEB2E001C01D92AE3A50
:1003A000B207E1F711E0C4EBD1E000E006C021970D
:1003B0000109802FFE010E94C72CC33BD10780E0BA
:1003C0000807A9F70E9451240C9467300C94000090
:1003D0004F925F926F927F928F929F92AF92BF9255
:1003E000CF92DF92EF92FF92CF93DF9300D01F92D4
:1003F000CDB7DEB7EFEEF4E0C080D180E280F380CD
:10040000A70196016091F3047091F4048091F504C2
:100410009091F6040E94CF2C4B015C014090F704B0
:100420005090F8046090F9047090FA046091FB0415
:100430007091FC04072E000C880B990B0E94272B4F
:10044000A50194010E94862B20E030EC4FE754E494
:100450000E94532DA70196010E94D02CA301920166
:100460000E94CF2C69837A838B839C836091FD04E7
:100470007091FE04072E000C880B990B0E94272B0D
:10048000A50194010E94862B20E030EC4FE754E454
:100490000E94532DA70196010E94D02CA301920126
:1004A0000E94CF2C9B01AC0169817A818B819C8158
:1004B0000E94CF2C0F900F900F900F90DF91CF9153
:1004C000FF90EF90DF90CF90BF90AF909F908F9074
:1004D0007F906F905F904F900895CF93DF93EC01E2
:1004E00088819981DC01ED91FC910190F081E02DF2
:1004F00064E270E01995009741F02FE1FC0123833D
:1005000021E02283DF91CF91089521E02A83FACF61
:1005100080917B00877F80937B0087E480937C00C1
:1005200080917A00806480937A0080917A0086FDC1
:10053000FCCF80917800909179000895CF92DF925E
:10054000EF92FF92CF93DF93C091FF04CC3008F07D
:1005500040C025E0C29FE0011124CC55DB4F2B8128
:1005600038E8C32ED12CC21AD10827FDD394CC0C65
:10057000DD1CCC0CDD1C0D2C000CEE08FF084C81A2
:1005800028E532E0241B310947FD3395220F331F44
:10059000220F331F032E000C440B550B2C193D0961
:1005A0004E095F09DC010E946E2C24EB30E040E034
:1005B00050E00E94442CC20ED31EE41EF51E8FB7DD
:1005C000F89496E0C91AD108CC0CDD1CDA82C982F5
:1005D0008FBFDF91CF91FF90EF90DF90CF90089584
:1005E0000895089520916203260F3327331F213287
:1005F0003105ECF42091D103FC0190E080E024303F
:1006000069F082E00895A09162032191AC014E5BF4
:100610005C4FA40FB52FB11D2C930196861798F34C
:1006200080916203680F6093620380E0089581E027
:1006300008950895E091AA038091A903E81730F482
:10064000F0E0EB57FC4F808190E008958FEF9FEF33
:1006500008959091AA038091A9032FEF3FEF981777
:1006600048F4E92FF0E0EB57FC4F208130E09F5F2A
:100670009093AA03C90108958091A9039091AA03B8
:10068000891B990B0895CF92DF92EF92FF920F93FF
:100690001F93CF93DF937C01CB018A012091D70375
:1006A000222389F0EB016B01C40ED51ECC15DD05AC
:1006B00069F06991D701ED91FC910190F081E02DF5
:1006C000C7011995F3CF642F0E94F202C801DF9190
:1006D000CF911F910F91FF90EF90DF90CF900895F1
:1006E000CF93DF931F92CDB7DEB769832091D703F5
:1006F0002223F9F02091FA03203258F021E030E073
:10070000FC013383228390E080E00F90DF91CF9152
:1007100008958091D803E82FF0E0E752FC4F9981CB
:1007200090838F5F8093D8038093FA0381E090E0F9
:10073000ECCF61E0CE0101960E94F202F7CF81502A
:10074000823108F05AC0E82FF0E08827E555FC4FC9
:100750008F4F0C94C72CCB03CF03BD03C303C70338
:10076000FD03D203D803DC03E203E603EA03F0034C
:10077000F403FD03F803FE030204809180008F77E9
:10078000809380000895809180008F7DF9CF8091C3
:100790008000877FF5CF84B58F7784BD089584B5B9
:1007A0008F7DFBCF8091B0008F778093B00008954C
:1007B0008091B0008F7DF9CF809190008F778093EA
:1007C00090000895809190008F7DF9CF80919000E6
:1007D000877FF5CF8091A0008F778093A000089548
:1007E0008091A0008F7DF9CF8091A000877FF5CF09
:1007F000809120018F7780932001089580912001BE
:100800008F7DF9CF80912001877FF5CFCF93DF9344
:10081000282F30E0F901E15EFC4F8491F901E752A5
:10082000FD4FD491F901ED56FD4FC491CC23A1F0B9
:1008300081110E949F03EC2FF0E0EE0FFF1FE7589D
:10084000FD4FA591B491EC91ED2381E090E009F486
:1008500080E0DF91CF91089580E090E0FACF1F9380
:10086000CF93DF93282F30E0F901E15EFC4F8491B4
:10087000F901E752FD4FD491F901ED56FD4FC491B6
:10088000CC23A9F0162F81110E949F03EC2FF0E0DA
:10089000EE0FFF1FE15AFD4FA591B4918FB7F89469
:1008A000EC91111108C0D095DE23DC938FBFDF914E
:1008B000CF911F910895DE2BF8CFFC0183858F3FE8
:1008C00019F061E00C942F040895FC01808191815E
:1008D000892B39F0A281B3819C9111968C919CBD9A
:1008E0008DBD83858F3F19F060E00C942F0408952F
:1008F0001092D10381E08093D0031092AB0361E0AA
:1009000084E10E942F0461E085E10E942F04E9EB5D
:10091000F0E080818E7F808380818D7F808388E47A
:100920008093B80085E48093BC000895CF93DF9353
:1009300091E0909341038823B9F0C091B800D09121
:10094000BA008091BC008A7B8093BC0060E084E1A7
:100950000E942F0460E085E10E942F040E94780429
:10096000D093BA00C093B800DF91CF910895CF9390
:10097000DF9390E0FC01E752FD4F24918D569D4F8F
:10098000FC0184918823D1F090E0880F991FFC012D
:10099000EB5BFD4FA591B491FC01E15AFD4FC59170
:1009A000D49161110EC09FB7F8948C91E22FE0951D
:1009B0008E238C932881E223E8839FBFDF91CF9120
:1009C00008958FB7F894EC91E22BEC938FBFF6CF9C
:1009D0008230910538F0880F991F880F991F05976D
:1009E0000197F1F70895AF92BF92CF92DF92EF9205
:1009F000FF920F931F93CF93DF93EC01888199812E
:100A0000892B89F06EBD0DB407FEFDCFBEB48B2DD2
:100A1000DF91CF911F910F91FF90EF90DF90CF90DA
:100A2000BF90AF9008958885998511E0892B09F0D2
:100A300010E8AA24A394862F812309F0A12C062F65
:100A40002C813D814E815F8160E271EA87E090E018
:100A50000E94762CF22EB02EE12CC22ED12CFF203B
:100A600019F0C6010E94E8048A85877F09F042C018
:100A70008D858F3F89F0902F912381E009F480E0EC
:100A80008A1551F0EF85F8898F89992369F1908152
:100A9000892B8083AA24A394E989FA898081998D7E
:100AA000892B8083FF2019F0C6010E94E8048E85FF
:100AB0008F3F39F0EB89FC898081988D892309F07B
:100AC000E12AE989FA899081898D8095892380833B
:100AD0008E858F3F09F0BE2C88859985892BB9F5C5
:100AE000110F1111BCCF93CF908180958923808302
:100AF000A12CD2CFE989FA898081998D892B8083B5
:100B0000FF2019F0C6010E94E8048D858F3F49F04F
:100B1000EF85F8898F89902F9123A9F09081892BF7
:100B20008083E989FA899081898D809589238083E2
:100B30008E858F3F69F2EB89FC898081988D8923AE
:100B400039F2E12AC5CF908180958923E9CF1695A6
:100B5000C8CF8F929F92AF92BF92CF92DF92EF92C7
:100B6000FF920F931F93CF93DF937C014B016A0198
:100B7000B22EA32E0E946504E401C80CD91CCC152A
:100B8000DD0569F4CB2DDA2D0C0F1D1FC017D10721
:100B900059F06FEFC7010E94F3048993F7CF699171
:100BA000C7010E94F304EBCFC7010E945D0481E0FE
:100BB000DF91CF911F910F91FF90EF90DF90CF9039
:100BC000BF90AF909F908F9008958F929F92AF9219
:100BD000BF92CF92DF92EF92FF920F931F93CF932A
:100BE000DF937C01B62EA72E6A0149010E9465049D
:100BF000E401080D191DC017D10761F4CB2DDA2DC2
:100C0000CC0EDD1ECC15DD0551F06991C7010E94A7
:100C1000F304F8CF6991C7010E94F304ECCFC70138
:100C20000E945D0481E0DF91CF911F910F91FF90B1
:100C3000EF90DF90CF90BF90AF909F908F900895EE
:100C40003FB7F89480913D0390913E03A0913F03FC
:100C5000B091400326B5A89B05C02F3F19F001961F
:100C6000A11DB11D3FBFBA2FA92F982F8827BC0106
:100C7000CD01620F711D811D911D42E0660F771F2E
:100C8000881F991F4A95D1F708958F929F92AF922E
:100C9000BF92CF92DF92EF92FF920F931F93CF9369
:100CA000DF93D091FA03D13208F0D7C0182FC0914A
:100CB000F9030E9420066B017C018091D103811110
:100CC0006BC082E08093D1031093D0038FEF8093A9
:100CD000CF031092CE03D093CD03A9EDB3E0EDEA9C
:100CE000F3E080E0D81391C01092AC038091AC0384
:100CF000CC0FC82BC093AC038091AB03813009F0BB
:100D000088C01092AB030E9420066B017C01809189
:100D1000AC038093BB008091D3039091D403A09146
:100D2000D503B091D603892B8A2B8B2BA1F00E947F
:100D300020060091D3031091D4032091D503309164
:100D4000D6036C197D098E099F0906171707280716
:100D5000390708F442C08091BC0083FDD8CF85ECF0
:100D60008093BC000E9420066B017C018091D1031E
:100D7000823009F450C08091CF038F3F09F46FC0D7
:100D80008091CF03803209F46CC08091CF0380330F
:100D900009F469C084E026C08091D3039091D40304
:100DA000A091D503B091D603892B8A2B8B2B09F404
:100DB00084CF0E9420068090D3039090D403A0900B
:100DC000D503B090D6036C197D098E099F0986164C
:100DD0009706A806B90608F070CF8091D2030E944A
:100DE000960485E01092D8031092FA031092D7036C
:100DF000DF91CF911F910F91FF90EF90DF90CF90F7
:100E0000BF90AF909F908F9008959D9191938F5F29
:100E100069CF85EEA5CF8091D3039091D403A091A3
:100E2000D503B091D603892B8A2B8B2B09F49ECF47
:100E30000E9420060091D3031091D4032091D50382
:100E40003091D6036C197D098E099F090617170783
:100E50002807390708F08ACFC0CF81E0C3CF80E0F0
:100E6000C1CF82E0BFCF83E0BDCF1F93CF93DF938D
:100E7000EA01122FDC0111968D919C91DC01ED911C
:100E8000FC910280F381E02D1995C817D90729F448
:100E9000812F0E94450691E0811190E0892FDF911A
:100EA000CF911F910895CF92DF92EF92FF920F930F
:100EB0001F93CF93DF931F921F92CDB7DEB7FC0134
:100EC0004787508B618B728B8285882371F14487B1
:100ED000452F562F672F7727882349F143877F01B6
:100EE0008BE0E80EF11C9681878199838A83C0800C
:100EF000D180C114D10409F443C0018510E09801E8
:100F00002E5F3F4FD60114968D919C9182179307C7
:100F100080F480E00F900F90DF91CF911F910F919F
:100F2000FF90EF90DF90CF9008954387D1CF448713
:100F3000D6CFF60181819281208131E03093D703B1
:100F40002093F9031092D8031092FA0301151105AA
:100F500041F421E042E050E0B701C6010E943507AC
:100F6000D9CFDC01ED91FC910280F381E02DA80145
:100F7000BE016F5F7F4F19950817190751F6E9CF2A
:100F8000A281B381109729F224813581018510E077
:100F90002330310579F48E7F89839A830F5F1F4F49
:100FA0009E012F5F3F4F42E050E0B701CD010E940C
:100FB000E505B0CF2115310519F49F779983F0CF5E
:100FC0002230310511F49068F9CF2130310541F715
:100FD0009F779064F3CFCF93DF93EC018B818823CD
:100FE000A1F0888191E09093D7038093F903109248
:100FF000D8031092FA0381E00E94450691E0811126
:1010000090E0892FDF91CF9108951092AA0310925A
:10101000A9031092D8031092FA030E94780480EF7B
:1010200092E09093A6038093A50381EF92E09093C2
:10103000A8038093A70381E08B83CE010E94EB0776
:10104000982F8111CECFDDCF2FB7F894609139035F
:1010500070913A0380913B0390913C032FBF089518
:101060000F931F9380910C0590910D05892B99F199
:1010700080910E0590910F05892B69F181E0809395
:1010800016050E94240800911C0510911D05209151
:101090001E0530911F05DC01CB01800F911FA21F9F
:1010A000B31F8093240590932505A0932605B09344
:1010B00027051092170510923405109235051092ED
:1010C00036051092370510923805109239051092A6
:1010D0003A0510923B051F910F910895AF92BF9270
:1010E000CF92DF92EF92FF920F931F93CF93DF93F4
:1010F0006C017B018B01040F151FEB015E01AE1823
:10110000BF08C017D10759F06991D601ED91FC9144
:101110000190F081E02DC6011995892B79F7C50161
:10112000DF91CF911F910F91FF90EF90DF90CF90C3
:10113000BF90AF90089590E080E00895FC01538D3A
:10114000448D252F30E0842F90E0821B930B5417A1
:1011500010F0CF96089501970895FC01918D828D2E
:10116000981761F0A28DAE0FBF2FB11D5D968C91C7
:10117000928D9F5F9F73928F90E008958FEF9FEF06
:101180000895FC01918D828D981731F0828DE80FC2
:10119000F11D858D90E008958FEF9FEF0895FC017C
:1011A000918D228D892F90E0805C9F4F821B910949
:1011B0008F739927089587E094E00E94CF0821E07B
:1011C000892B09F420E0822F0895FC01A48DA80F3B
:1011D000B92FB11DA35ABF4F2C91848D90E0019679
:1011E0008F739927848FA689B7892C93A089B18999
:1011F0008C91837080648C93938D848D981306C03A
:101200000288F389E02D80818F7D80830895EF929D
:10121000FF920F931F93CF93DF93EC0181E0888FB0
:101220009B8D8C8D98131AC0E889F989808185FF80
:1012300015C09FB7F894EE89FF896083E889F98922
:1012400080818370806480839FBF81E090E0DF9124
:10125000CF911F910F91FF90EF900895F62E0B8D77
:1012600010E00F5F1F4F0F731127E02E8C8D8E1132
:101270000CC00FB607FCFACFE889F989808185FF99
:10128000F5CFCE010E94E508F1CFEB8DEC0FFD2FDD
:10129000F11DE35AFF4FF0829FB7F8940B8FEA8954
:1012A000FB8980818062CFCFCF93DF93EC01888D63
:1012B0008823B9F0AA89BB89E889F9898C9185FDD1
:1012C00003C0808186FD0DC00FB607FCF7CF8C915F
:1012D00085FFF2CF808185FFEDCFCE010E94E5082A
:1012E000E9CFDF91CF9108958F929F92AF92BF92F5
:1012F000CF92DF92EF92FF920F931F93CF93DF93E2
:10130000EC016A017B0120E030E04FE753E4CB01C0
:10131000B6010E94862B4B015C0120E030E0A90160
:101320000E94532E18168CF5C501B4010E94C52DDC
:101330008B01B98020E030E0A901C701B6010E940D
:10134000532E60E018160CF061E08B2D0E942F04E4
:101350000F3F110509F0ECF41127C88161E08C2FD3
:101360000E94B70401151105B9F460E08C2FDF91DC
:10137000CF911F910F91FF90EF90DF90CF90BF9092
:10138000AF909F908F900C942F04C501B40190589A
:10139000CDCF0FEF10E0E1CF0F3F110511F461E069
:1013A000E5CFEC2FF0E0E15EFC4FE491E150E2315B
:1013B00008F0BCC0F0E08827EF51F64F8F4F0C9437
:1013C000C72CF309040A090A130A1D0A960A270AF8
:1013D0002F0A370A410A4B0A550A640A6E0A960A0E
:1013E000780A820A8C0A84B5806884BD07BDDF91C3
:1013F000CF911F910F91FF90EF90DF90CF90BF9012
:10140000AF909F908F90089584B5806284BD08BD91
:10141000EECF8091800080688093800010938900D7
:1014200000938800E4CF80918000806280938000E8
:1014300010938B0000938A00DACF8091800088603F
:101440008093800010938D0000938C00D0CF80910A
:10145000B00080688093B0000093B300C8CF809143
:10146000B00080628093B0000093B400C0CF809140
:1014700090008068809390001093990000939800EA
:10148000B6CF8091900080628093900010939B0073
:1014900000939A00ACCF8091900088608093900078
:1014A00010939D0000939C00A2CF8091A0008068C3
:1014B0008093A0008091A0008F7B8093A000109368
:1014C000A9000093A80093CF8091A0008062809330
:1014D000A0001093AB000093AA0089CF8091A000D8
:1014E00088608093A0001093AD000093AC007FCF84
:1014F000809120018068809320011093290100933E
:10150000280175CF80912001806280932001109383
:101510002B0100932A016BCF80912001886080937A
:10152000200110932D0100932C0161CF003811058B
:101530000CF035CF1ACF8EBD00000DB407FEFDCFE5
:101540008EB508956F3FB1F0E62FE295EF7044E05D
:10155000E49F90011124DC01ED91FC91E20FF31F57
:101560006F70B8E06B9FC001112462817381860F98
:10157000971F089590E080E00895CF93DF93EC01EA
:1015800088819981DC01ED91FC910190F081E02D41
:1015900019952A813B81820F931F9B838A83DF9158
:1015A000CF910895982F80336CF08A3324F08F35D3
:1015B00024F08B3724F481E0089581341CF081E01D
:1015C0009B350CF080E00895CF93DF93EC01888188
:1015D0009981DC01ED91FC910280F381E02D199558
:1015E0002A813B81820F931F9B838A83DF91CF9156
:1015F00008958F929F92AF92BF92CF92DF92EF9217
:10160000FF920F931F93CF93DF93CDB7DEB766970B
:101610000FB6F894DEBF0FBECDBF6C018E01095E20
:101620001F4F78018AE0882E912CA12CB12CCB0180
:10163000BA01A50194010E94762C942F852F605D3C
:10164000F80162938F01A901692F782F4115510587
:101650006105710561F7A7014E1B5F0BBF01C60154
:101660000E94E40A66960FB6F894DEBF0FBECDBFA7
:10167000DF91CF911F910F91FF90EF90DF90CF906E
:10168000BF90AF909F908F900895CF92DF92EF928E
:10169000FF920F931F93CF93DF93EC018A85811103
:1016A00030C00F8118850E942408D80118966D93C8
:1016B0007D938D939C931B97D801ED91FC910284AF
:1016C000F385E02DC801199597FF25C00E942408D5
:1016D000F801C084D184E284F3846C197D098E09F9
:1016E0009F09C480D580E680F7806C157D058E0546
:1016F0009F0510F38FEF9FEF97FD80E0898781E0D2
:101700008A878985DF91CF911F910F91FF90EF908C
:10171000DF90CF9008959927EFCF1F93CF93DF935A
:10172000EC01162F0E94450B811306C01A8681E03A
:10173000DF91CF911F91089580E0FACF0F931F930F
:10174000CF93DF938C01EB018991882369F0C80165
:101750000E94450B882379F0FE0131979081981300
:101760000DC0F8011286F0CF90E080E0DF91CF91BC
:101770001F910F91089582E090E0F8CF83E090E010
:10178000F5CFCF93DF93EC01CE010E94450B8B3058
:101790004CF489305CF4882359F081E08E8390E02A
:1017A00080E00BC08D3011F08032B9F71A86ECCF93
:1017B0008E81811105C081E090E0DF91CF91089585
:1017C00082E090E0FACFDC01ED91FC91309731F0AE
:1017D00094819F7781E019F080E0089581E0089579
:1017E000CF93DF93209134033091350329303105B5
:1017F00009F1EC018A30910598F4FC018827EC5F2F
:10180000F34F8F4F0C94C72C0E0C0E0C1D0C0E0CAE
:101810000E0C0E0C0E0C1D0C1D0C1D0C0E94300825
:10182000D0933503C09334030E94240870930903B6
:1018300060930803DF91CF91089510921605F0CFC1
:10184000CF93DF93C1EED4E0688579858A859B8547
:10185000681B790B8C859D85681B790B072E000C06
:10186000880B990B0E94272B288139814A815B8143
:101870000E94862BDF91CF9108954F925F926F92D5
:101880007F928F929F92AF92BF92CF92DF92EF9210
:10189000FF920F931F93CF93DF93EB01DC012C9109
:1018A0002B32D9F12D32D1F50196FF24F394FC01AE
:1018B000208130ED320F3A3018F02E3209F042C15B
:1018C0008C0160E070E0CB01F801219130ED832EB6
:1018D000820E39E0381520F16A3949E97407840726
:1018E00049E1940738F5AAE0B0E09B01AC010E9401
:1018F000632C912CB12CA12C2401350140945094DF
:1019000060947094461657066806790698F0680D3C
:10191000791D8A1D9B1D8F01D7CF0196F12CC7CF52
:10192000211108C0FF20E9F161307105810550E8FF
:101930009507A0F0E12CBAE08B2E912CA12CB12CB4
:101940006115710530E883079105B0F1A501940197
:101950000E94762CCA01B901E394F2CF2C81207841
:101960002A602C839B01AC0188279927DC01821B0C
:10197000930BA40BB50B88839983AA83BB838F2D0C
:10198000DF91CF911F910F91FF90EF90DF90CF905B
:10199000BF90AF909F908F907F906F905F904F908F
:1019A00008952C81207828602C83688379838A832A
:1019B0009B83FF24F394E3CFF801D8012D918D018F
:1019C00030ED320F3A3010F4E394F6CF2E3201F5B9
:1019D0008F010F5F1F4FF8010F5F1F4F2081A0ED98
:1019E000DA2ED20EB9E0BD1598F06C3CECEC7E0717
:1019F000ECE08E07910578F7AAE0B0E09B01AC011E
:101A00000E94632C6D0D711D811D911DEA94E3CF21
:101A100020812F7D10E000E0253409F05BC021819A
:101A20002D32D1F53296CC24C394DF0110E000E0D2
:101A30002E2D0E2C000C330B5AE0B52EFD01DD903F
:101A400040ED4D0D4A3008F040C0B09EA001B19E5F
:101A5000500D11240D2DDD0C110B00531109040F35
:101A6000151FA801420F531F473251053CF38C81CB
:101A7000CC20C9F040E050E060E070E8F11003C015
:101A800040E050E0BA0180788C608C8348835983B1
:101A90006A837B83FC2C73CF2B3219F03196C12CD7
:101AA000C4CF3296FCCF40E050E060E87FEFF11009
:101AB00004C040E050E060E87FE780788C608C8371
:101AC000488359836A837B8374CFCC2019F01195A6
:101AD000019511092081211135C00E0D111DE7FC62
:101AE0001A950E94252B3CE2C32E32E0D32E10160D
:101AF00011063CF011950195110944E1C42E42E014
:101B0000D42EE12C0115110591F000FF0CC024E04A
:101B1000E29EF0011124EC0DFD1D259135914591BA
:101B200054910E94862B15950795E394EBCFF11005
:101B300090582C8120782C602C83688379838A8349
:101B40009B8337CFF12C1BCFCF92DF92EF92FF9286
:101B5000CF93DF9300D01F921F92CDB7DEB7FC0169
:101B600084818F778630D9F040F48430A9F18530B4
:101B700009F43FC090E080E014C08A30F1F08C306E
:101B800009F43FC08830B1F780819181A281B3818F
:101B9000811520E89207A105B10560F702C0808198
:101BA00090E00F900F900F900F900F90DF91CF91DA
:101BB000FF90EF90DF90CF90089580819181A28176
:101BC000B381AC01BD0150586F4F7F4F4115510596
:101BD0006140710578F6E5CF808191811D82BE015B
:101BE0006F5F7F4F0E943D0CCE0101960E94A40DB5
:101BF000D8CF808191811D82BE016F5F7F4F049697
:101C0000F1CFC080D180E280F38020E030E040E07E
:101C100057ECC701B6010E94532E87FDABCF20E0E1
:101C20003EEF4FEF56E4C701B6010E94202B181675
:101C30000CF4A0CFC701B6010E94C52DCB01B1CFD6
:101C4000CF92DF92EF92FF92CF93DF9300D01F925B
:101C50001F92CDB7DEB7FC0184818F778630C1F04B
:101C600038F4843019F1853071F190E080E012C0D1
:101C70008A3021F08C3079F18830B9F780819181F8
:101C8000A281B381009721E0A207B10518F0EDCF42
:101C9000808190E00F900F900F900F900F90DF9148
:101CA000CF91FF90EF90DF90CF9008958081918148
:101CB0001D82BE016F5F7F4F0E943D0CCE010196D9
:101CC0000E94200EE7CF808191811D82BE016F5F4F
:101CD0007F4F0496F1CFC080D180E280F38020E076
:101CE00030E0A901C701B6010E94532E87FDBDCF88
:101CF00020E03FEF4FE757E4C701B6010E94202BD9
:101D000018160CF4B2CFC701B6010E94CC2DCB013E
:101D1000C1CFCF93DF9300D01F921F92CDB7DEB714
:101D2000FC0194819F77963091F030F4943020F547
:101D300060E070E0CB0111C09A30B9F09C3051F1F5
:101D40009830B1F7608171818281938104C0608194
:101D500070E090E080E00E94252B0F900F900F9094
:101D60000F900F90DF91CF910895608171818281F2
:101D700093810E94272BF1CF808191811D82BE012A
:101D80006F5F7F4F04960E943D0CCE0101960E942A
:101D9000890EE3CF6081718182819381DECFFC0166
:101DA0009289915084E0989F90011124A089B18973
:101DB000A20FB31F1296ED91FC9113973097E9F0A3
:101DC00011962C9111978C912817B8F481E0820F0D
:101DD00011968C9388E0289FA0011124E40FF51F31
:101DE000309759F014828FEF858317821682BF01D6
:101DF000892F8295807F820F089560E070E08FEFD9
:101E00000895DF92EF92FF920F931F93CF93DF938A
:101E1000EC017B01D12C688979898A89D816E0F494
:101E200084E0D89E80011124060F171FD801129656
:101E30006D917C916115710541F0D701ED91FC9197
:101E40000280F381E02DC7011995F80113821282F7
:101E500010821182D394DFCF1A8A8FEF8C8BC61732
:101E6000D70761F0D701ED91FC910280F381E02D5D
:101E7000C7011995D98BC88B84E08B8BDF91CF91EB
:101E80001F910F91FF90EF90DF900895DB01ED918E
:101E9000FC9111970280F381E02DBC01CD011994D2
:101EA0000F931F93CF93DF93EC01088119818B81EE
:101EB0009C81009749F0FC01208131813C832B8378
:101EC000B8010E94460FF3CF68817981CE01059653
:101ED000DF91CF911F910F910C94010FCF93DF935E
:101EE000EC01E881F981B0E0A0E03097F9F09F01C2
:101EF0002C5F3F4F62177307A1F492819150928338
:101F0000911114C080819181109741F08D939C9321
:101F1000BA01CF01DF91CF910C94460F998388834A
:101F2000F7CFDF010190F081E02DDFCFDF91CF917E
:101F300008958F929F92AF92BF92CF92DF92EF92CD
:101F4000FF920F931F93CF93DF938C01EB01FC0162
:101F5000848180FF0AC048815981608171816C5FF2
:101F60007F4FCE0103960E946E0FF8018481807628
:101F700081F10115110569F1D0805E01F5E1AF0E27
:101F8000B11C4E0183E0880E911CEFEFDE16F1F0DC
:101F90006D2DC5010E94A20A7C01FC01C5808481CF
:101FA00087FF07C04881598166817781C4010E94FB
:101FB0006E0FBE01C7010E94990FF70184818078DE
:101FC0008483898D8583D98EDC2CDFCFF801D08284
:101FD000D182DF91CF911F910F91FF90EF90DF9011
:101FE000CF90BF90AF909F908F900895EF92FF9207
:101FF0000F931F93CF93DF937C018B01EA016F3F17
:10200000710509F0B0F4E881F9810480F581E02DD3
:10201000AB014B5F5F4FBC01CE011995009749F0B2
:10202000FC010383DF91CF911F910F91FF90EF90FF
:102030000895E881F9810280F381E02DB701CE0196
:10204000199590E080E0EECFFF920F931F93CF930E
:10205000DF93EC01F62E8A819B810097C9F06C8199
:102060007D81FC0123812617170691F408811981CF
:10207000F80140815181660F771F6F5F7F4F0E948B
:10208000F60F009719F421E0F80122839B838A83DD
:102090008A819B81009759F02C813D81A9014F5F76
:1020A0005F4F5D834C83820F931FFC01F482DF91AD
:1020B000CF911F910F91FF9008959F92AF92BF9281
:1020C000CF92DF92EF92FF920F931F93CF93DF9304
:1020D00000D01F921F92CDB7DEB78C010E94450B36
:1020E000D82EF8011286F12CE12C60EFC62EC80123
:1020F0000E94450BF8011286D81609F4B3C081116D
:1021000013C082E090E00F900F900F900F900F900F
:10211000DF91CF911F910F91FF90EF90DF90CF90C3
:10212000BF90AF909F9008958C3509F099C0C80179
:102130000E94450B882329F3EDE4F2E0853709F08E
:1021400083C0F801128654E0952EB12CA12CC80151
:102150000E94450B8823A9F2813434F480538031E6
:1021600030F083E090E0CFCF8F7D8753F8CF44E00D
:10217000AA0CBB1C4A95E1F7A82AF80112869A948A
:102180009110E5CFC501985D8115944020F475014B
:10219000F3E0FF22ACCFC5019C5D81159440A8F40B
:1021A00083E0B822B701762F6627770F770F6A2969
:1021B0007B2990E080E001966038710581059105EA
:1021C00040F4C8010E94241092CFB50190E080E055
:1021D000F3CF1982262F2F7320682A8326E0969545
:1021E0008795779567952A95D1F76032710580F4C8
:1021F000606C6B835E01E4E0AE0EB11CF501629190
:102200005F01662309F473CFC8010E942410F6CF42
:10221000262F2F7320682B8386E0769567958A9505
:10222000E1F76031710538F4606E6C835E01F5E0B2
:10223000AF0EB11CE3CF60686C83CD825E0126E0F7
:10224000A20EB11CDBCF32969081992309F489CF7D
:102250008913F9CF8181882309F483CFF80112868D
:10226000682FAFCF82819381892B19F484E090E0AD
:102270004ACF90E080E047CFAF92BF92CF92DF92FB
:10228000EF92FF920F931F93CF93DF93DC0112968F
:10229000ED91FC91139714968D919C911597E80FF1
:1022A000F91F14820D911C91119714966D917C91D8
:1022B000159712968D919C9113979C012C5F3F4F1F
:1022C000E801EB81FC817B01E20EF31E3097B9F04F
:1022D00043814617170679F45901AF014C5F5F4FF0
:1022E000EA14FB0499F1E501C9905E01EA01D99075
:1022F000AE01CD14A9F30190F081E02DE7CFED01FF
:10230000F801408151810E94F60FFC01892B21F4D4
:1023100081E0D80112968C93A881B98113968D9192
:102320009C911497918380831496FC93EE9313975A
:102330001B821A82CF01DF91CF911F910F91FF90E5
:10234000EF90DF90CF90BF90AF90089582818F5F24
:102350008283F0CF2F923F924F925F926F927F9243
:102360008F929F92AF92BF92CF92DF92EF92FF92A5
:102370000F931F93CF93DF9300D000D0CDB7DEB77C
:102380007C017C836B830B969E838D83D70116968D
:102390009C91169717968C91179799838A836D90C5
:1023A0007C9011976114710409F44CC119964C91F9
:1023B00050E0F3018481958184179507A8F080810E
:1023C00091E09093D7038093F9031092D803109271
:1023D000FA0320E0BE016F5F7F4FC3010E94350703
:1023E000D12CC12C81111AC080E026960FB6F8942A
:1023F000DEBF0FBECDBFDF91CF911F910F91FF9038
:10240000EF90DF90CF90BF90AF909F908F907F9094
:102410006F905F904F903F902F900895D301149646
:102420008D919C9102E010E00C191D098017910715
:1024300008F48C01F30150800E9420064B015C01DE
:102440008091D103811176C0B02EF0E2F01710F424
:1024500040E2B42E81E08093D10321E082E090E05D
:10246000801B910BC816D90608F420E02093D003F6
:102470009FEF9093CF031092CE038FEF8B0D80933D
:10248000CD03A1E0A093AC038091AC03550C582A76
:102490005092AC038091AB03813009F093C010924D
:1024A000AB030E9420061B012C018091AC0380939A
:1024B000BB008091D3039091D403A091D503B09138
:1024C000D603892B8A2B8B2BA1F00E94200620910A
:1024D000D3033091D4034091D5035091D6036219B0
:1024E000730984099509261737074807590708F41F
:1024F00042C08091BC0083FDD8CFB5ECB093BC0046
:102500000E9420061B012C018091D103813009F427
:102510005DC08091CE038B1510F4B090CE03ADEA70
:10252000B3E0E5E8F3E080E08B1551F19D919193E4
:102530008F5FFACF8091D3039091D403A091D503FC
:10254000B091D603892B8A2B8B2B09F479CF0E946B
:1025500020062091D3033091D4034091D5035091AC
:10256000D603681979098A099B092617370748078E
:10257000590708F065CF8091D2030E949604B12CD0
:102580001092AA03B092A903B016110609F02CCF3D
:102590008D809E808C0C9D1C5401C5018819990961
:1025A00080179107A8F5D30111968D919C91DC01BC
:1025B000ED91FC910284F385E02D1995F50181934D
:1025C0005F01EBCFE5EEE093BC009ACF8091D3039F
:1025D0009091D403A091D503B091D603892B8A2B77
:1025E0008B2B09F491CF0E9420062091D3033091C8
:1025F000D4034091D5035091D6036219730984091D
:102600009509261737074807590708F07DCFB3CF3C
:10261000C00ED11EF2E0CF16D10408F4FFCEF701B0
:102620008285811142C0848590E0982F8827AB81F4
:10263000BC8111969C938E932385822B8D939C93C2
:1026400081E0D3CE1296ED91FC911397309709F467
:10265000CBCE14962D913C91159719964C9150E044
:102660002330310591F4816089839A834F5F5F4FF6
:1026700002E010E02D813E81BE016F5F7F4FCF01F0
:102680000E94A9058111CBCFB0CE2115310519F4D7
:1026900090689983EDCF2230310511F49F77F9CFFF
:1026A0002130310529F7906CF4CF838590E0982F85
:1026B0008827AB81BC8111969C938E932485BDCFD6
:1026C000AB01BC01705888E695E00C947409FC01DC
:1026D00001900020E9F73197AF01481B590BBC016D
:1026E00087E094E00C946E08DF92EF92FF920F93D4
:1026F0001F93CF93DF936115710561F460E070E083
:102700008FEF9D2DDF91CF911F910F91FF90EF9053
:10271000DF9008958A01EB01DC01FC900B5E1F4FF6
:102720006F2DC8010E94A20A009741F3FC01E580C9
:10273000009721F30680F781E02DDE010D90002047
:10274000E9F79D01215031092C1B3D0BB0E0A0E0C1
:10275000309739F0DF010D900020E9F71197AE1B9B
:10276000BF0B2A173B0751F4DE012C0F3D1FA217A8
:10277000B30769F05D9141915417C9F36E2DC801FB
:102780000E94A20A009709F4B9CFFE2CCFCFBC015A
:102790008F2DDE2CB6CFCF93DF93FC01C081D1818A
:1027A00062817381CE014A9661F02E8D25FF09C0AA
:1027B000AE010E9474139B01B901CE01DF91CF914C
:1027C000089530E020E0F8CFFB0101900020E9F708
:1027D0003197AF01461B570B0C94E40A1F93CF931C
:1027E000DF93EDE4F2E01281112379F0329621813A
:1027F0006213F9CFEC016CE50E94BD0A612FCE0196
:10280000DF91CF911F910C94BD0A6111F9CF6EE554
:1028100072E0DF91CF911F910C94E413CF92DF927D
:10282000EF92FF920F931F93CF93DF938C016B0175
:102830007A0162E20E94BD0AE601EC0CFD1CCE1595
:10284000DF0529F06991C8010E94EE13F8CF62E21A
:10285000C801DF91CF911F910F91FF90EF90DF9012
:10286000CF900C94BD0A2F923F924F925F926F923D
:102870007F928F929F92AF92BF92CF92DF92EF9210
:10288000FF920F931F93CF93DF93CDB7DEB76C9773
:102890000FB6F894DEBF0FBECDBF8C011B01DC016B
:1028A00014968C9114978F77883009F4B2C2E8F4AB
:1028B000843009F469C248F4833009F49FC265E6A4
:1028C00072E0C1010E94E4131CC2853009F470C299
:1028D0008630A9F78C916AE672E0811102C06FE63A
:1028E00072E0C1010E94E4136DC28C30F1F1C8F4B2
:1028F0008A3029F7CD90DD90ED90FC90B701A601CC
:10290000F7FE0BC06DE2C1010E94BD0A44275527A6
:10291000BA014C195D096E097F09C1010E94F90ACB
:1029200051C2803209F4F7C1803449F66BE5C10128
:102930000E94BD0AF80110811F3F09F4E7C1D101CF
:1029400014968D919C91612F45960E94A20A8C014C
:10295000B1010E943314F80115811F3F09F4D6C15B
:102960006CE2C1010E94BD0AE7CFF801C080D180AE
:10297000E280F380A7019601C701B6010E94202BD7
:1029800081119DCF20E030E0A901C701B6010E946E
:10299000202B882379F0A7019601C701B6010E9478
:1029A000D02C9B01AC01C701B6010E94202B8823CB
:1029B00009F485CF20E030E0A901C701B6010E94EB
:1029C000202B87FF08C06DE2C1010E94BD0AF7FA03
:1029D000F094F7F8F09420E836E948E15BE4C701A9
:1029E000B6010E94532E87FD88C074E1A72EB12C3A
:1029F00000E210E0188E1F8AF501E45DFD4F25917D
:102A0000359145915491C701B6010E94532E87FD1F
:102A100013C0F501EC5EFD4F259135914591549120
:102A2000C701B6010E94862B6B017C012F89388D6E
:102A3000200F311F388F2F8B1595079534E0A31A7F
:102A4000B1088CEFA8168FEFB806B1F655245A944A
:102A500020E030E0A901C701B6010E94532E1816EC
:102A60000CF052C02CEA35EC47E257E3C701B6013F
:102A70000E94202B18160CF447C0A52DB4E0AB0221
:102A8000C0011124B12CA12CFC01EC5EFD4F3F01D3
:102A90009C01245D3D4F49013FEF531609F434C0BA
:102AA000F301EA0DFB1D659175918591949120E0EC
:102AB00030E040E251E40E94862BA70196010E947B
:102AC000532E18169CF4F401EA0DFB1D2591359147
:102AD00045915491C701B6010E94862B6B017C0180
:102AE0008F89988D801B910B988F8F8B15950795EB
:102AF0005A9494E0A91AB108CFCF00E210E055E053
:102B0000552E188E1F8AA4CFC701B6010E94CC2D66
:102B10004B015C012B013C0106E080E492E4AFE054
:102B2000B0E0898F9A8FAB8FBC8F102F01509AE045
:102B30004916510461047104C8F0698D7A8D8B8D3A
:102B40009C8D2AE030E040E050E00E94762C298FF6
:102B50003A8F4B8F5C8FC301B2012AE030E040E036
:102B600050E00E94762C29013A01DFCFC501B40163
:102B70000E94252B9B01AC01C701B6010E94CF2CFE
:102B80006B017C01698D7A8D8B8D9C8D0E94252B2C
:102B90009B01AC01C701B6010E94862B2B013C01B1
:102BA0000E94CC2D6B017C010E94252B9B01AC0166
:102BB000C301B2010E94CF2C9B01AC010E94D02C1A
:102BC0000E94CC2DC60ED71EE81EF91E898D9A8D47
:102BD000AB8DBC8DC816D906EA06FB06D8F09FEF70
:102BE000891A990AA90AB90AAF89B88DAB2B39F1AC
:102BF000BAE08B169104A104B10408F1EF89F88DB5
:102C00003196F88FEF8BC12CD12C7601812C912C31
:102C1000540183942AE0422E512C612C712CC7015F
:102C2000B601A30192010E94762C672B682B692BB9
:102C300051F4111644F469017A011150F0CFC12CFE
:102C4000D12C7601E7CFB501A401C1010E94F90A98
:102C5000112371F14E01F1E18F0E911C012F5401EE
:102C60009AE0492E512C612C712C015068F0C7015B
:102C7000B601A30192010E94762C605DD4016E938F
:102C80004D0169017A01F1CF812F90E0BC0160957F
:102C90007095F501E81BF90B31978EE2808344278C
:102CA0005527461B570B6A0D7B1DC1010E94E40A84
:102CB000EF89F88DEF2B29F165E6C1010E94BD0A6D
:102CC0000F89188D17FF07C06DE2C1010E94BD0A70
:102CD000119501951109FE0177969F018AE0E82E72
:102CE000F12CC801B7010E94B32C805D82938B0147
:102CF000672BB9F7A9014E1B5F0BBF01C1010E94F1
:102D0000E40AD10112968D919C915FC06DE5C101DD
:102D10000E94BD0AF6CF6BE7C1010E94BD0AF8010F
:102D200010811F3F79F1D10114968D919C91612FF3
:102D300045960E94A20A8C01FC01C680D78062E2FF
:102D4000C1010E94BD0A7601D7016D917D01662304
:102D500021F0C1010E94EE13F7CF62E2C1010E948F
:102D6000BD0A6AE3C1010E94BD0AB101C8010E9407
:102D70003314F80115811F3F29F06CE2C1010E9454
:102D8000BD0ACFCF6DE7C3CFF8016081718150E0FC
:102D900040E06115710541F0FB0101900020E9F769
:102DA0003197AF01461B570BC1010E940E14A9CFEA
:102DB000ED91FC91438150E0BF016C5F7F4FC101F9
:102DC0000E940E14F101828193816C960FB6F894E3
:102DD000DEBF0FBECDBFDF91CF911F910F91FF904E
:102DE000EF90DF90CF90BF90AF909F908F907F90AB
:102DF0006F905F904F903F902F900895ED91FC91D0
:102E0000438150E0BF016C5F7F4FC1010E94E40A23
:102E1000D9CF4D915D916D917C917FCD85ED809362
:102E2000BC008091D3039091D403A091D503B091BD
:102E3000D6030796A11DB11D23E0B695A7959795DA
:102E400087952A95D1F72091BC0024FD03C01092EC
:102E5000D10308954091D3035091D4036091D503D9
:102E60007091D603452B462B472B69F30097A1059C
:102E7000B10541F02AE22A95F1F700C00197A109B6
:102E8000B109E1CF8091D2030C949604CB010C944C
:102E9000582ECB010C94F42E8F929F92AF92BF923A
:102EA000CF92DF92EF92FF920F931F93CF93DF9316
:102EB0006C018B01DB015996FC90BFEFFB1621F1F1
:102EC0006F2DC80145960E94A20AEC018D81F80180
:102ED000818F209709F496C01C828FEF8D831F820B
:102EE0001E82D60111966C916F3F09F49FC0C801F4
:102EF00045960E94A20AFC01F582D6011196FC9229
:102F0000BE018F2D9D8084C05B01F5E0AF0EB11C2A
:102F1000DB01ED90FC90119757968C91882349F036
:102F2000C5010E94CF0EC62FD72F209711F0F82E83
:102F3000D8CFF801C789908DC91325C0C03109F4D5
:102F400061C0CC0F65897689D701ED91FC91B4E021
:102F5000CB9FA0011124A616B70609F04BC0019023
:102F6000F081E02DBA01C7011995009709F44AC014
:102F700020E1F501DC0101900D922A95E1F7F801BD
:102F8000968B858BC08FD8015596CD91DC91569745
:102F900057968C91579721E0280F57962C93B4E0C1
:102FA0008B9FC0011124C80FD91F90E1892E2031B9
:102FB00011F48FE0882EE8E08E9EB0011124D70135
:102FC000ED91FC910190F081E02DC70119959B8353
:102FD0008A83892B09F4812C88821982CD2B91F068
:102FE000C5010E94CF0EC62FD72FF82E209709F0CB
:102FF00078CF08C00480F581E02DC70119950097AE
:1030000009F0BDCF81E0F801828360E070E08FEFCE
:10301000992DDF91CF911F910F91FF90EF90DF904D
:10302000CF90BF90AF909F908F900895F601F0825F
:10303000F18266CF8F929F92AF92BF92CF92DF9232
:10304000EF92FF920F931F93CF93DF93EC018B01CD
:10305000D42E0E94C10B7C01892B09F047C0CE0100
:103060000E94450B863609F452C124F5873229F0B7
:103070008B3561F1823209F053C11D821C828A8135
:103080009B81892B31F4888199810E946D029B83F9
:103090008A83CE010E945D107C01892B39F5CE0117
:1030A0000E943C11F80124812078256024839183BB
:1030B00080831CC0843709F412C18B3709F45BC0CC
:1030C0008E3609F02DC165E672E012C1F8018481E7
:1030D0008078806484830115110519F08FEF808357
:1030E0008183D11011C025E0E22EF12CC701DF91C0
:1030F000CF911F910F91FF90EF90DF90CF90BF90F5
:10310000AF909F908F9008951A86CE010E94C10BB8
:10311000009709F085C06DE5CE010E948D0B8111ED
:10312000E5CFDA946B857C85C8010E944C17611548
:10313000710521F484E0E82EF12CD8CF4D2DCE017D
:103140000E941A18009709F06BC0CE010E94C10BB3
:10315000009709F065C06DE5CE010E948D0B8111CD
:10316000C5CF6CE2CE010E948D0B8111DBCF93E0C5
:10317000E92EF12CBBCFF8018481807880628483B2
:103180000115110519F08FEF80838183DD2009F48B
:10319000AACF1A86CE010E94C10B009709F040C049
:1031A0006DE7CE010E948D0B8111A0CFBB24BA9494
:1031B000BD0C1D821C828A819B81892B31F4888100
:1031C00099810E946D029B838A83CE010E94450BE8
:1031D0008732E1F08232D1F0CE010E94450BD82E29
:1031E0000E94D20A882319F21A866D2DCE010E9400
:1031F0002410CE010E94450BD82E0E94D20A8111C4
:10320000F3CF8A819B81892B31F494CFCE010E9428
:103210005D10009729F4CE010E94C10B009711F0B8
:103220007C0164CF6AE3CE010E948D0B882309F4F0
:103230009ECFEA81FB818C819D81E80FF91F14826A
:103240004B855C856A817B816C5F7F4FC8010E94E2
:103250007413CB016B01672BC9F5CE010E943C11A1
:103260004C016B857C85C8010E944C176B01611570
:10327000710509F45FCFFB01848180688483F4E0E9
:103280008F0E911CF601978286824B2DB601CE01DE
:103290000E941A18009721F6CE010E94C10B0097D8
:1032A00009F0BECF6DE7CE010E948D0B81111ECFBC
:1032B0006CE2CE010E948D0B882309F458CFCE0119
:1032C0000E94C10B009709F474CFAACF6B857C854F
:1032D0000E94990FF601848180788483D6CFF8010B
:1032E000848180788660848381E080836AE672E0EE
:1032F000CE01DF91CF911F910F91FF90EF90DF9062
:10330000CF90BF90AF909F908F900C949E0BF80140
:10331000848180788660848310826FE672E0E8CFD3
:10332000CE010E94450B5E01FDE0AF0EB11CD12C19
:103330009A2CCB2C803374F08A3374F49FE3D91623
:1033400099F01A86D394F50181935F01CE010E9412
:10335000450BF0CF8B3291F393ED980F923070F3D1
:10336000982F9F7D953451F3CD0DD11D1D86B80149
:10337000892D9C2D0E943D0C8111B8CEF8CE7F92F4
:103380008F929F92AF92BF92CF92DF92EF92FF9275
:103390000F931F93CF93DF93CDB7DEB7C057D109FB
:1033A0000FB6F894DEBF0FBECDBF8E01025B1F4F7C
:1033B00080E092E0F801918380831282148213826C
:1033C000C8010596968B858B178A24E0208F2FEFF6
:1033D000218F168EAF961FAE1EAEAF97E1961FAE31
:1033E0001EAEE19760E072E00E94010FF8011282C8
:1033F000E080F180F80183819481009751F0FC0115
:1034000020813181F80134832383B7010E94460F64
:10341000F1CF168E1A8309831C821B821E821D82A5
:103420001F8287E094E0998788871B861D870C8719
:103430004AE0B801665E7F4FCE0101960E941A18DD
:103440007C01892B51F48A85882339F0F801868D17
:1034500083FF03C023E0E22EF12C8B819C81009737
:1034600031F0E981FA81608171810E94460FE11497
:10347000F10459F185E792E00E946713F701EE0F1E
:10348000FF1FE35EFD4F80819181009711F00E9444
:1034900067138CE892E00E946713C8010E94500FE6
:1034A000C059DF4F0FB6F894DEBF0FBECDBFDF911E
:1034B000CF911F910F91FF90EF90DF90CF90BF9031
:1034C000AF909F908F907F9008951A8309838FE823
:1034D00092E09C838B83CE0101960E94CB13E196F0
:1034E0006CAF7DAF8EAF9FAFE197CE0183599F4FF9
:1034F0000E94E30B811115C010921605AF968EAD98
:103500009FADAF97009709F4E0C00E94890E6093C9
:1035100000057093010580930205909303050E94B6
:1035200030081A83098382E992E09C838B83CE0161
:1035300001960E94CB13E1966CAF7DAF8EAF9FAF2B
:10354000E197CE0183599F4F0E94E30B811115C073
:1035500010921605AF968EAD9FADAF97009709F408
:10356000B8C00E94890E609304057093050580938E
:103570000605909307050E9430081A83098385E9A0
:1035800092E09C838B83CE0101960E94CB13E1963F
:103590006CAF7DAF8EAF9FAFE197CE0183599F4F48
:1035A0000E94E30B811115C010921605AF968EADE7
:1035B0009FADAF97009709F490C00E94890E609369
:1035C00008057093090580930A0590930B050E94E6
:1035D00030081A83098388E992E09C838B83CE01AB
:1035E00001960E94CB13E1966CAF7DAF8EAF9FAF7B
:1035F000E197CE0183599F4F0E94E30B81110DC0CB
:10360000AF968EAD9FADAF97009709F46AC00E9448
:10361000200E90930B0380930A031A8309838AE98F
:1036200092E09C838B83CE0101960E94CB13E1969E
:103630006CAF7DAF8EAF9FAFE197CE0183599F4FA7
:103640000E94E30B811121C08CE0A82E83E0B82EEC
:10365000F12CE12C6701E1968CAD9DADAEADBFAD17
:10366000E197FC01892B09F03FC060E070E0CB01DD
:10367000F50161937193819391935F01FFEFEF1ACD
:10368000FF0A2AE0E216F10429F71A8309838CE97C
:1036900092E09C838B83CE0101960E94CB13E1962E
:1036A0006CAF7DAF8EAF9FAFE197CE0183599F4F37
:1036B0000E94E30B8111F1CEF801868D85FD36C0A5
:1036C00090E080E00E94F00BE8CE60E070E0CB017B
:1036D0001ECF60E070E0CB0146CF60E070E0CB0130
:1036E0006ECF90E080E095CF248126FFBECF4D01C4
:1036F00025E1820E911C6081C4010E94A20A0097FC
:1037000009F4B3CFFC017580009709F4AECFC11462
:10371000D104D9F0672DC4010E94A20A009711F0CC
:10372000FC017580F1E0CF1AD108EECFA8016CE959
:1037300072E0C8014A960E9474136115710509F47C
:10374000BFCFCB010E94A40DBDCF0E94890E90CFA8
:103750000E94DB0881110E94BF1980E090E0892B54
:1037600049F080E090E0892B29F00E94000081114F
:103770000E94000080E090E0892B49F080E090E01A
:10378000892B29F00E94000081110E94000080E036
:1037900090E0892B49F080E090E0892B29F00E948D
:1037A000000081110C9400000895EF92FF920F9396
:1037B0001F93CF93DF93FC01E080F1808701065EC9
:1037C0001F4F21F1C281D381209751F1F701868DDE
:1037D000982F9F7719F580788062868F8FEF828F80
:1037E000838FA701BE01C8010E947413FB013097AB
:1037F00061F4B701C8010E944C17FB01309729F012
:1038000084818F778483D783C6838F01C801DF913A
:10381000CF911F910F91FF90EF90089585FDE1CF1B
:1038200010E000E0F3CFAF92BF92CF92DF92EF9221
:10383000FF920F931F93CF93DF938C017B01DC01E9
:10384000AD90BC900E94D51BEC01009781F0F70170
:10385000C080D180E280F380B5010E94990F8C81F5
:1038600080788C608C83C882D982EA82FB82D801FE
:10387000ED91FC9180E0309719F0828191E08927E9
:10388000DF91CF911F910F91FF90EF90DF90CF903C
:10389000BF90AF9008958F929F92AF92BF92CF92B8
:1038A000DF92EF92FF920F931F93CF93DF93CDB7E9
:1038B000DEB7C754D1090FB6F894DEBF0FBECDBF37
:1038C00080E092E09A8389831B821D821C82CE0154
:1038D00006969F8B8E8B188E84E0898F8FEF8A8F50
:1038E0001F8E0E9424084B015C018E010F5F1F4F49
:1038F00019A308A384ED92E09BA38AA3CE0180962E
:103900000E94D51B7C01009761F0B8010E94990FBD
:10391000F701848180788860848380829182A2828A
:10392000B38280910302882319F1C0903403D090B0
:10393000350319A308A38CE992E09BA38AA3CE01C7
:1039400080960E94D51B7C01009781F0B8010E94EF
:10395000990FF701848180788A608483C601DD0C29
:10396000AA0BBB0B80839183A283B38310920302C3
:1039700080910202882309F44DC080910005909146
:103980000105A0910205B09103058BAB9CABADABDB
:10399000BEAB19A308A38FE892E09BA38AA3BE0144
:1039A0006D5C7F4FCE0180960E94131C80910405B0
:1039B00090910505A0910605B09107058BAB9CABD6
:1039C000ADABBEAB19A308A382E992E09BA38AA387
:1039D000BE016D5C7F4FCE0180960E94131C8091CA
:1039E000080590910905A0910A05B0910B058BABD4
:1039F0009CABADABBEAB19A308A385E992E09BA33A
:103A00008AA3BE016D5C7F4FCE0180960E94131C7D
:103A1000109202028091120590911305A091140555
:103A2000B09115058BAB9CABADABBEAB19A308A396
:103A30008EE992E09BA38AA3BE016D5C7F4FCE010D
:103A400080960E94131C6091E9047091EA04072E8D
:103A5000000C880B990B0E94272B2091E1043091D8
:103A6000E2044091E3045091E4040E94862B2091EB
:103A7000E5043091E6044091E7045091E8040E9487
:103A8000D02C6BAB7CAB8DAB9EAB19A308A382EAA9
:103A900092E09BA38AA3BE016D5C7F4FCE0180960E
:103AA0000E94131C6091E9047091EA048091EB0478
:103AB0009091EC04681B790B072E000C880B990B76
:103AC0000E94272B2091E1043091E2044091E3040D
:103AD0005091E4040E94862B6BAB7CAB8DAB9EAB0C
:103AE00019A308A381EA92E09BA38AA3BE016D5C9F
:103AF0007F4FCE0180960E94131C6091E904709163
:103B0000EA048091EB049091EC04681B790B80919E
:103B1000ED049091EE04681B790B072E000C880BC6
:103B2000990B0E94272B2091E1043091E2044091EF
:103B3000E3045091E4040E94862B6BAB7CAB8DAB0D
:103B40009EAB19A308A380EA92E09BA38AA3BE01BF
:103B50006D5C7F4FCE0180960E94131CC090EF04D5
:103B6000D090F004E090F104F090F204A7019601E7
:103B70006091F3047091F4048091F5049091F6043F
:103B80000E94CF2C4B015C016091FB047091FC04FE
:103B9000072E000C880B990B0E94272B9B01AC0170
:103BA000C501B4010E94862B20E030EC4FE754E4BD
:103BB0000E94532DA70196010E94D02C2091F7045A
:103BC0003091F8044091F9045091FA040E94CF2CEE
:103BD0006BAB7CAB8DAB9EAB19A308A385EA92E0DF
:103BE0009BA38AA3BE016D5C7F4FCE0180960E948D
:103BF000131C0E94E8016BAB7CAB8DAB9EAB19A391
:103C000008A384EA92E09BA38AA3BE016D5C7F4F68
:103C1000CE0180960E94131CD090170519A308A30B
:103C20008CEA92E09BA38AA3CE0180960E94D51BCA
:103C30007C01009749F0B8010E94990FF701848137
:103C4000807886608483D082809156059091570554
:103C50001FA618AA19AA1AAA99A388A31BA21AA276
:103C6000FF24F394F9A682E090E09FA38EA3FAA626
:103C700082E0E82EE8A6BE016D5C7F4FCE01809603
:103C80000E94AA11809358056BA97CA993E07695B0
:103C900067959A95E1F76B01CC0CDD1CCC0CDD1C13
:103CA00080915605909157051FA618AA19AA1AAA1D
:103CB00099A388A31BA21AA2F9A681E090E09FA372
:103CC0008EA3FAA6E8A6BE016D5C7F4FCE0180965A
:103CD0000E94AA11809358056BA97CA9072E000C9D
:103CE000880B990B0E94272B2AE037ED43E25CE317
:103CF0000E94862B20E030E04AE754E40E94532DD6
:103D00004B015C01B601DD0C880B990B0E94272B3F
:103D10002FE632E143E85AE30E94862B9B01AC0177
:103D2000C501B4010E94D02C6BAB7CAB8DAB9EABBC
:103D300019A308A387EA92E09BA38AA3BE016D5C46
:103D40007F4FCE0180960E94131C80915605909162
:103D5000570526961CAE1DAE1EAE1FAE26979CAB19
:103D60008BAB1EAA1DAAFCAE85E090E09AAF89AF8E
:103D7000FDAEEBAE40915A0550915B0560915C053C
:103D800070915D05CE01C3960E9453078091560540
:103D9000909157051FA618AA19AA1AAA99A388A331
:103DA0001BA21AA2F9A684E090E09FA38EA3FAA614
:103DB000E8A6BE016A5B7F4FCE0180960E94AA11E1
:103DC0008093580528966EAD7FAD2897072E000C7E
:103DD000880B990B0E94272B6B017C0160915E057B
:103DE00070915F0580916005909161050E94252B7F
:103DF0009B01AC01C701B6010E94532D20E030E0C9
:103E00004AE754E40E94532D6BAB7CAB8DAB9EAB69
:103E100019A308A389EA92E09BA38AA3BE016D5C63
:103E20007F4FCE0180960E94131C87E094E099A3F7
:103E300088A31BA21AA21DA30CA3BE01605E7F4F24
:103E4000CE014B960E9433148CE892E00E946713D7
:103E5000C8010E94500FC95BDF4F0FB6F894DEBF58
:103E60000FBECDBFDF91CF911F910F91FF90EF90CB
:103E7000DF90CF90BF90AF909F908F900895CB012F
:103E8000BA010C947D2F1F920F920FB60F9211243E
:103E90000BB60F922F933F934F935F936F937F9344
:103EA0008F939F93AF93BF93EF93FF938091B9004C
:103EB000887F803609F44DC008F040C0883209F48C
:103EC000A9C028F5803109F49DC0C8F4882309F4FD
:103ED000FBC0883009F496C0FF91EF91BF91AF917C
:103EE0009F918F917F916F915F914F913F912F9112
:103EF0000F900BBE0F900FBE0F901F90189588313A
:103F000009F488C0803241F78093CF0314C0803415
:103F100009F49DC040F48033B9F38833E9F6809307
:103F2000CF0385ECB0C0803509F485C0883509F42D
:103F300096C0883489F60E940E17CECF883909F4CE
:103F40008CC038F5883729F050F4883611F0803766
:103F500019F683E08093D1031092840357C0883808
:103F600009F47BC0803919F0803809F0B5CF809111
:103F70008403803208F071C0E091840381E08E0FE9
:103F8000809384038091BB00F0E0EC59FC4F808368
:103F90003DC0803B39F0E0F4803A09F479C0883ABA
:103FA00009F09ACF84E08093D103109263031092BA
:103FB0006203E091A503F091A60319958091620335
:103FC00081110FC081E0809362031092420309C007
:103FD000803C09F4A6CF883C09F4A3CF883B09F0C4
:103FE0007BCFE091630381E08E0F80936303F0E069
:103FF000EE5BFC4F80818093BB00909163038091C6
:10400000620329C08091AC038093BB0085EC809350
:10401000BC0062CF9091CE038091CD03981758F5E4
:10402000E091CE0381E08E0F8093CE03F0E0E35564
:10403000FC4F8081E9CFE091CE0381E08E0F809329
:10404000CE038091BB00F0E0E355FC4F808390915C
:10405000CE038091CD039817C8F285E8D8CFE091C0
:10406000CE0381E08E0F8093CE038091BB00F0E001
:10407000E355FC4F80838091D00381115CCF81E0B8
:104080008093AB0384EA8093BC001092D10324CFC9
:1040900085EC8093BC001092D10380918403803220
:1040A00030F4E0918403F0E0EC59FC4F1082609111
:1040B000840370E0E091A703F091A80384E693E005
:1040C00019951092840308CF1092CF0334CF1F921A
:1040D0000F920FB60F9211242F933F938F939F93BC
:1040E000AF93BF938091390390913A03A0913B0322
:1040F000B0913C033091380323E0230F2D3758F55E
:104100000196A11DB11D209338038093390390932C
:104110003A03A0933B03B0933C0380913D039091FD
:104120003E03A0913F03B09140030196A11DB11D34
:1041300080933D0390933E03A0933F03B0934003CD
:10414000BF91AF919F918F913F912F910F900FBE93
:104150000F901F90189526E8230F0296A11DB11D00
:10416000D2CF1F920F920FB60F9211240BB60F925F
:104170002F933F934F935F936F937F938F939F936F
:10418000AF93BF93EF93FF93809103039091040348
:10419000A0910503B0910603892B8A2B8B2BD1F1BB
:1041A0009091020380910000892780930000809104
:1041B000030390910403A0910503B0910603181620
:1041C00019061A061B069CF48091030390910403C0
:1041D000A0910503B09106030197A109B10980934D
:1041E000030390930403A0930503B0930603FF9188
:1041F000EF91BF91AF919F918F917F916F915F915F
:104200004F913F912F910F900BBE0F900FBE0F90CB
:104210001F90189580910402E4E4F2E0E4919FEF8E
:1042200090930402E230E9F040F4EE2389F0E130AB
:1042300091F060E00E942F04DACFE43049F110F1F0
:10424000E530B9F7909173009D7F90937300F1CFA3
:1042500010926E00EECF90916F009D7F90936F0053
:10426000E8CF909170009D7F9093700091E09093C3
:10427000B0009091B100987F94609093B10010923B
:10428000B300D7CF909171009D7F90937100D1CFF3
:10429000909172009D7F90937200CBCF1F920F92EE
:1042A0000FB60F9211240BB60F922F933F934F939B
:1042B0005F936F937F938F939F93AF93BF93EF938E
:1042C000FF9387E094E00E94E508FF91EF91BF9192
:1042D000AF919F918F917F916F915F914F913F919E
:1042E0002F910F900BBE0F900FBE0F901F9018953F
:1042F0001F920F920FB60F9211240BB60F922F93AD
:104300008F939F93EF93FF93E0911704F09118041C
:104310008081E0911D04F0911E0482FD1DC09081FA
:10432000809120048F5F8F7320912104821741F0C8
:10433000E0912004F0E0E95FFB4F958F809320042B
:10434000FF91EF919F918F912F910F900BBE0F9046
:104350000FBE0F901F9018958081F2CF1F920F9281
:104360000FB60F9211240BB60F922F933F934F93DA
:104370005F936F937F938F939F93AF93BF93CF93ED
:10438000DF93EF93FF9380910103C091E004D0E0AD
:1043900087FF23C010928500109284008091010352
:1043A0008F5F8093010380910103082E000C990B0D
:1043B0008C179D0724F4809101038C3074F1809157
:1043C00084009091850084349C4908F465C08091F4
:1043D000840090918500049661C080910103082EAD
:1043E000000C990B8C179D07CCF63091010325E04A
:1043F0003203F0011124EC55FB4F808186FFCECFB4
:10440000309101033203F0011124EC55FB4F808100
:1044100060E08F730E942F04C1CF8091840090913F
:1044200085003091010325E03203F0011124EC55A1
:10443000FB4F41815281840F951F90938900809397
:104440008800309101033203F0011124EC55FB4F39
:10445000808186FF0CC0309101033203F0011124EA
:10446000EC55FB4F808161E08F730E942F04FF9118
:10447000EF91DF91CF91BF91AF919F918F917F91FC
:104480006F915F914F913F912F910F900BBE0F90C5
:104490000FBE0F901F90189580E49CE990938900BF
:1044A000809388008FEF80930103E1CF0F931F93D8
:1044B0001092FE031092FD0388EE93E0A0E0B0E0BE
:1044C0008093FF0390930004A0930104B09302042F
:1044D0002DE232E03093FC032093FB0310920A0498
:1044E0001092090480930B0490930C04A0930D0484
:1044F000B0930E048FE392E0909308048093070436
:1045000085EC90E0909314048093130484EC90E085
:10451000909316048093150480EC90E09093180417
:104520008093170481EC90E090931A04809319040F
:1045300082EC90E090931C0480931B0486EC90E046
:1045400090931E0480931D04109220041092210465
:1045500010922204109223048DEC9CECACECBEE390
:1045600080939A0590939B05A0939C05B0939D051D
:104570008DEC9CECACE4BEE380939E0590939F058C
:10458000A093A005B093A10543E353E363E37FE366
:104590004093A2055093A3056093A4057093A505CD
:1045A0000DEC1CEC2CEC3DE30093A6051093A70545
:1045B0002093A8053093A90540938A0550938B0555
:1045C00060938C0570938D0580938E0590938F0575
:1045D000A0939005B093910540E050E060E87FE340
:1045E00040939205509393056093940570939505BD
:1045F00010929605109297051092980510929905C1
:104600004DEC5CEC6CE47DEB40937A0550937B05BC
:1046100060937C0570937D0580937E0590937F0564
:10462000A0938005B09381058DEC9CECACE4BDE3D8
:104630008093820590938305A0938405B0938505AC
:1046400010928605109287051092880510928905B0
:104650008CE080934C0584E280934D0585E0809347
:104660004E0596E090934F059EE1909350059FE193
:104670009093510592E29093520593E290935305E3
:1046800094E49093540595E4909355051092570542
:104690001092560590E49093590510925E05109281
:1046A0005F051092600510926105109262051092EC
:1046B0006305109264051092650598E0EBE0F2E066
:1046C000AEE6B5E001900D929A95E1F740E050E03A
:1046D00060EA70E44093760550937705609378051F
:1046E00070937905E091E004EC3008F0D2C091E0DD
:1046F0009E0F9093E004E0934B058E9FF0011124F0
:10470000EC55FB4F88EB9BE09283818388E6809396
:104710003C051092000510920105109202051092BE
:1047200003051092040510920505109206051092DB
:104730000705109208051092090510920A051092BB
:104740000B0510920D0510920C0510920F0510929A
:104750000E0510921105109210051092120510927C
:10476000130510921405109215051092160510925B
:104770001705109224051092250510922605109217
:104780002705109228051092290510922A051092EB
:104790002B0580E090E0A0EAB0E480932C05909394
:1047A0002D05A0932E05B0932F0580E090E0A8EC96
:1047B000B2E48093300590933105A0933205B09315
:1047C000330510923405109235051092360510927B
:1047D0003705109238051092390510923A0510925B
:1047E0003B05E091E004EC3008F057C081E08E0F0B
:1047F0008093E004E093FF0485E0E89FF00111243A
:10480000EC55FB4F88EB9BE09283818384EE9BEC1D
:10481000A6E1B0EC8093EF049093F004A093F10430
:10482000B093F20484EE9BECA6E1B0E48093F30431
:104830009093F404A093F504B093F6041092F70457
:104840001092F8041092F9041092FA048EE293EE9A
:10485000ADE4B8E38093E1049093E204A093E30411
:10486000B093E4041092E5041092E6041092E70479
:104870001092E8041092EA041092E9041092EC04F9
:104880001092EB041092EE041092ED041F910F9120
:1048900008958FEF80934B0539CF8FEF8093FF04FE
:1048A000B5CFCF93DF93CDB7DEB7A6970FB6F89409
:1048B000DEBF0FBECDBF789484B5826084BD84B561
:1048C000816084BD85B5826085BD85B5816085BD0B
:1048D00080916E00816080936E00109281008091C3
:1048E000810082608093810080918100816080934B
:1048F0008100809180008160809380008091B10070
:1049000084608093B1008091B00081608093B0009A
:1049100080919100826080939100809191008160EC
:1049200080939100809190008160809390008091AD
:10493000A10082608093A1008091A100816080939A
:10494000A1008091A00081608093A000809121014E
:1049500082608093210180912101816080932101F7
:104960008091200181608093200180917A00846091
:1049700080937A0080917A00826080937A0080919F
:104980007A00816080937A0080917A0080688093B9
:104990007A001092C100E0911704F091180482E0AF
:1049A0008083E0911304F09114041082E0911504C7
:1049B000F091160480E1808310921F04E0911B04A3
:1049C000F0911C0486E08083E0911904F0911A04B0
:1049D000808180618083E0911904F0911A048081C4
:1049E00088608083E0911904F0911A0480818068C6
:1049F0008083E0911904F0911A0480818F7D808377
:104A000061E080914D050E94B70460E080914D0502
:104A10000E942F0460E080914C050E94B7048091B1
:104A2000560590915705892BA9F486E090E00E94E5
:104A3000582EFC018091590580838BEF93E092837F
:104A40008183138280E290E095838483F0935705FD
:104A5000E0935605E0905605F09057051092AA0392
:104A60001092A9031092D8031092FA030E947804BE
:104A700080EF92E09093A6038093A50381EF92E0EC
:104A80009093A8038093A70311E0D70113961C937A
:104A9000C7010E94EB07882309F45BC080E090E126
:104AA000A0E0B0E080935A0590935B05A0935C056D
:104AB000B0935D058AE090E0A0E0B0E080935E05F1
:104AC00090935F05A0936005B093610580E090E04E
:104AD000A0E0B0E48093620590936305A093640521
:104AE000B093650580915605909157051BA21CA2B5
:104AF0001DA21EA29D8B8C8B1F8A1E8A1D8F85E096
:104B000090E09B8F8A8F1E8F02E00C8F40E050E177
:104B100060E070E0CE0144960E94530780915605F4
:104B200090915705188A198A1A8A1B8A9A83898351
:104B30001C821B821A8718861F821B8709874FE9F0
:104B400059E360E070E0CE0101960E945307809324
:104B500058056EE4E62E65E0F62E0CE415E070E5EF
:104B6000A72E75E0B72EE8EC4E2EE2E05E2EFEE0BA
:104B70006F2EF3E07F2EABECCA2EA7E0DA2EBBE857
:104B80008B2E99249394F7019281D7018D917D0109
:104B9000F801828F938F61E00E94B70461E0D80131
:104BA0005B968C910E94B704F70195818381D801AF
:104BB0005E968C935E975F969C9361E00E94B7042B
:104BC00060E0F801878D0E94B70461E0D8015E962D
:104BD0008C910E942F043FB6F894809107038111B5
:104BE00025C0F2018491F3019491E82FF0E0EE0FDB
:104BF000FF1FEB5BFD4FA591B4918C91982321F49D
:104C000061E085E30E942F0461E085E30E94B70420
:104C10008CB580618CBD8CB580648CBD61E084E313
:104C20000E94B70461E083E30E94B7048091070308
:104C30008F5F809307033FBEC6010197F1F760E0E5
:104C4000D8015E968C910E942F0488E80E949B0AEE
:104C500083E00E949B0A61E0F801868D0E942F0488
:104C6000C6010197F1F760E0D8015E968C910E9431
:104C70002F0488E90E949B0A80E00E949B0A80E042
:104C80000E949B0A80E00E949B0A80E00E949B0A8F
:104C900061E0F801868D0E942F04C4010197F1F7AD
:104CA00060E0D8015E968C910E942F0480EE0E94F5
:104CB0009B0A61E0F801868D0E942F040E5F1F4F52
:104CC000A016B10609F05FCF60E08DE30E94B70443
:104CD00060E081E10E94B70460E08FE00E94B704C9
:104CE00060E08EE00E94B70460E080E10E94B704BB
:104CF0008091FF048C3008F047C061E088E00E949A
:104D0000B7048091FF0425E0829FF0011124EC5547
:104D1000FB4F9081907C98609083138214822CE0EA
:104D2000622F0E94A72C829FB001112430E020E066
:104D300095E0AB01420F531F949FF001959FF00D3A
:104D40001124EC55FB4F408146FD13C02F5F3F4FB0
:104D50002C30310571F781110CC01092800082E077
:104D600080938100109285001092840086BB80930E
:104D70006F00E091FF0465E0E69FF0011124EC551F
:104D8000FB4F8081806480830E9488028C01C090E8
:104D9000EF04D090F004E090F104F090F204A70149
:104DA00096016091F3047091F4048091F504909160
:104DB000F6040E94CF2C4B015C01B801110F880B47
:104DC000990B0E94272B9B01AC01C501B4010E94E5
:104DD000862B20E030EC4FE754E40E94532DA701CE
:104DE00096010E94D02C6093F7047093F80480938E
:104DF000F9049093FA0480E090E0A0E8BEE3809389
:104E0000000590930105A0930205B09303058DEC76
:104E10009CECACECBDE38093040590930505A09356
:104E20000605B09307051092080510920905109227
:104E30000A0510920B058FE692E1A3E8BAE380938E
:104E40002C0590932D05A0932E05B0932F0588EC8B
:104E500090E0A0E0B0E080931C0590931D05A09326
:104E60001E05B0931F058DEC9CECACE4BEE3809373
:104E7000180590931905A0931A05B0931B0580E2BD
:104E80009CE090930D0580930C0580E693E1909350
:104E90000F0580930E050E944B1C1E0171E1270E29
:104EA000311C0E9424082091360330913703621B85
:104EB000730B81099109693171058105910508F428
:104EC000EFC28FE00E940604892B21F088E090E079
:104ED0000E94F00B81E10E940604892B21F087E0FB
:104EE00090E00E94F00BE0913403F091350331978C
:104EF000E830F105E0F48827EF57F84D8F4F0C9418
:104F0000C72C8927AF27F027032844288528A32802
:104F100098280E94E8012AE037ED43EA5CE30E940A
:104F2000202B87FFC1C182E090E00E94F00BE0914E
:104F30003403F0913503EA30F10508F0DEC188272B
:104F4000EB55F84D8F4F0C94C72C582A5429212922
:104F50005F29AE28532A7629A9289E28582A20E0BE
:104F600030E0A90160917A0570917B0580917C0504
:104F700090917D050E94202B87FF63C120E030E0E7
:104F8000A9016091820570918305809184059091BB
:104F900085050E94532E18160CF053C120E030E016
:104FA000A90160917E0570917F05809180059091A7
:104FB00081050E94532E18160CF043C120E030E00A
:104FC000A90160918605709187058091880590916F
:104FD00089050E94202B87FF34C190E080E0A5CF97
:104FE0000E9424082091080330910903621B730B6F
:104FF00081099109693E73408105910508F45FC1FB
:1050000084E090E092CF20E030E0A90160919A0521
:1050100070919B0580919C0590919D050E94202B8D
:1050200087FF9CC020E030E0A9016091A20570914B
:10503000A3058091A4059091A5050E94532E1816F2
:105040000CF08CC020E030E0A90160919E057091C9
:105050009F058091A0059091A1050E94532E1816DE
:105060000CF07CC020E030E0A9016091A6057091B1
:10507000A7058091A8059091A9050E94202B87FF84
:105080006DC085E090E051CF20E030E0A901609153
:105090008A0570918B0580918C0590918D050E94F9
:1050A000202B87FF00C220E030E0A901609192052B
:1050B0007091930580919405909195050E94532ECF
:1050C00018160CF0F0C120E030E0A90160918E05C7
:1050D00070918F0580919005909191050E94532EBB
:1050E00018160CF0E0C120E030E0A90160919605AF
:1050F0007091970580919805909199050E94202BB9
:1051000087FFD1C186E090E010CF0E942408209153
:10511000080330910903621B730B81099109693CF3
:1051200071058105910508F4E1C081E090E0FDCEB4
:105130008FE00E940604892B09F44FCF4DEC5CEC04
:105140006CE47FE3ACC081E10E940604892B09F482
:1051500044CF4DEC5CEC6CE47FEBA1C00E942408D2
:1051600020910A0330910B03A9014C595F4F461758
:10517000570708F462C0621B730B90E080E00E9446
:10518000252B20E030E040E251E40E94532D4B01FA
:105190005C010E943C2D2B013C01C501B4010E9421
:1051A000FB2D0E94CC2D6B0190E080E00E94252B0E
:1051B0009B01AC01C501B4010E94CF2C4B015C01E5
:1051C000CC0CDD1CCC0CDD1CF601E65FFC4F6F0146
:1051D000AC019B0160E070E080E89FE30E94CF2C6F
:1051E000D60112962D913D914D915C9115970E949B
:1051F000862B6B017C01C301B2010E94CC2D660F8E
:10520000771F660F771F665F7C4FFB01228133811A
:1052100044815581C501B4010E94862B9B01AC01DC
:10522000C701B6010E94D02C60931205709313053C
:10523000809314059093150560C060E070E0CB0189
:10524000F3CF6091E9047091EA04072E000C880BFB
:10525000990B0E94272B2091E1043091E2044091A8
:10526000E3045091E4040E94862B2091E5043091E0
:10527000E6044091E7045091E8040E94D02C20E01D
:1052800030E0A9010E94202B4DEC5CEC6CEC7DEB36
:1052900087FF04C04DEC5CEC6CEC7DE3705888E655
:1052A00095E00E94740929C00E94E8012DEC3CECB5
:1052B0004CE45EEB0E94862BAB01BC01EFCF40E0DB
:1052C00050E060E070E888E695E00E9474090E9472
:1052D00024082091080330910903621B730B810994
:1052E0009109643F71408105910518F490E080E0D8
:1052F00002C084EB90E00E949E020E9488022091EE
:10530000FB043091FC043093FE042093FD04909341
:10531000FC048093FB0460E080916C050E942F04E4
:1053200080E60E949B0A8E010F5F1F4F780180E08C
:105330000E949B0A90E0B0E0A0E0F7018193919376
:10534000A193B1937F012E163F0689F761E080910A
:105350006C050E942F0480E090E0DC01F80141918F
:105360005191619171918F01BA2FA92F982F8827A0
:10537000840F951FA61FB71FEE16FF0679F7209121
:10538000E9043091EA044091EB045091EC04B90136
:10539000641B750B7093EE046093ED043093EC0482
:1053A0002093EB04B095A095909581959F4FAF4FBA
:1053B000BF4F9093EA048093E9040E94240800916F
:1053C00024051091250520912605309127056017A9
:1053D00071078207930708F45BC080911605882344
:1053E00009F456C00E94240800911C0510911D0567
:1053F00020911E0530911F05DC01CB01800F911F0C
:10540000A21FB31F8093240590932505A093260522
:10541000B0932705C0901205D0901305E0901405B5
:10542000F0901505E0910C05F0910D0519959B0183
:10543000AC01C701B6010E94CF2C6B017C019F77A4
:1054400020912C0530912D0540912E0550912F056E
:105450000E94202B87FF31C081E0809317051092B6
:105460001605E0911005F0911105309709F0199596
:105470008091240590912505A0912605B0912705DE
:105480008093280590932905A0932A05B0932B05B6
:105490000E944B1C0E9424087093370360933603CC
:1054A0000E94A81BFECC60E070E080E090E4BCCEDF
:1054B00040E050E060E070E8F2CE00910E051091FF
:1054C0000F050E9424088090280590902905A0903F
:1054D0002A05B0902B05681979098A099B09609300
:1054E0002005709321058093220590932305209138
:1054F0003405309135054091360550913705C70187
:10550000B6010E94D02C60933405709335058093CA
:105510003605909337058090300590903105A09026
:105520003205B0903305A50194010E94532E181640
:1055300044F48092340590923505A0923605B092DD
:105540003705B7FAB094B7F8B094A501940160910B
:1055500034057091350580913605909137050E948C
:10556000202B87FF08C08092340590923505A092C9
:105570003605B09237058090180590901905A090D7
:105580001A05B0901B0520913405309135054091E6
:10559000360550913705609104057091050580919D
:1055A0000605909107050E94862BA50194010E9493
:1055B000862B2B013C012091000530910105409183
:1055C000020550910305C701B6010E94862B9B017D
:1055D000AC01C301B2010E94D02C2B013C012091EF
:1055E00038053091390540913A0550913B05C70186
:1055F000B6010E94CF2C20910805309109054091F9
:105600000A0550910B050E94862BA50194010E946A
:10561000532D9B01AC01C301B2010E94D02CC0925A
:105620003805D0923905E0923A05F0923B05F80131
:1056300019951ECF80915605909157050C94F42E24
:105640000E94622B08F481E00895E89409C097FB5A
:105650003EF490958095709561957F4F8F4F9F4F49
:105660009923A9F0F92F96E9BB279395F69587958D
:1056700077956795B795F111F8CFFAF4BB0F11F450
:1056800060FF1BC06F5F7F4F8F4F9F4F16C08823F7
:1056900011F096E911C0772321F09EE8872F762F2D
:1056A00005C0662371F096E8862F70E060E02AF06E
:1056B0009A95660F771F881FDAF7880F969587955A
:1056C00097F90895990F0008550FAA0BE0E8FEEF2F
:1056D00016161706E807F907C0F012161306E407B6
:1056E000F50798F0621B730B840B950B39F40A26AF
:1056F00061F0232B242B252B21F408950A2609F48D
:10570000A140A6958FEF811D811D08950E94992BC0
:105710000C940A2C0E94FC2B38F00E94032C20F0E1
:10572000952311F00C94F32B0C94F92B11240C9469
:105730003E2C0E941B2C70F3959FC1F3950F50E0F7
:10574000551F629FF001729FBB27F00DB11D639F33
:10575000AA27F00DB11DAA1F649F6627B00DA11DD9
:10576000661F829F2227B00DA11D621F739FB00D7F
:10577000A11D621F839FA00D611D221F749F3327EF
:10578000A00D611D231F849F600D211D822F762F88
:105790006A2F11249F5750409AF0F1F088234AF065
:1057A000EE0FFF1FBB1F661F771F881F91505040D1
:1057B000A9F79E3F510580F00C94F32B0C943E2CDE
:1057C0005F3FE4F3983ED4F3869577956795B79558
:1057D000F795E7959F5FC1F7FE2B880F911D969572
:1057E000879597F9089597F99F6780E870E060E0E2
:1057F00008959FEF80EC089500240A94161617066A
:1058000018060906089500240A94121613061406B1
:1058100005060895092E0394000C11F4882352F014
:10582000BB0F40F4BF2B11F460FF04C06F5F7F4FCC
:105830008F4F9F4F089557FD9058440F551F59F0B3
:105840005F3F71F04795880F97FB991F61F09F3F6D
:1058500079F087950895121613061406551FF2CF96
:105860004695F1DF08C0161617061806991FF1CFE6
:1058700086957105610508940895E894BB2766270D
:105880007727CB0197F90895052E97FB1EF4009416
:105890000E945B2C57FD07D00E94762C07FC03D09A
:1058A0004EF40C945B2C50954095309521953F4FCC
:1058B0004F4F5F4F089590958095709561957F4FFC
:1058C0008F4F9F4F08950E94982CA59F900DB49FD5
:1058D000900DA49F800D911D11240895B7FF0C9485
:1058E000632C0E94632C821B930B0895A1E21A2E55
:1058F000AA1BBB1BFD010DC0AA1FBB1FEE1FFF1F74
:10590000A217B307E407F50720F0A21BB30BE40BC3
:10591000F50B661F771F881F991F1A9469F760950A
:105920007095809590959B01AC01BD01CF010895C4
:10593000A29FB001B39FC001A39F700D811D1124D0
:10594000911DB29F700D811D1124911D0895991B09
:1059500079E004C0991F961708F0961B881F7A9566
:10596000C9F780950895AA1BBB1B51E107C0AA1F68
:10597000BB1FA617B70710F0A61BB70B881F991FF0
:105980005A95A9F780959095BC01CD010895EE0F29
:10599000FF1F881F8BBF0790F691E02D1994505878
:1059A000BB27AA270E94E72C0C940A2C0E94FC2BF0
:1059B00038F00E94032C20F039F49F3F19F426F4AC
:1059C0000C94F92B0EF4E095E7FB0C94F32BE92FE4
:1059D0000E941B2C58F3BA176207730784079507B8
:1059E00020F079F4A6F50C943D2C0EF4E0950B2EE6
:1059F000BA2FA02D0B01B90190010C01CA01A00121
:105A00001124FF27591B99F0593F50F4503E68F17B
:105A10001A16F040A22F232F342F4427585FF3CFBC
:105A2000469537952795A795F0405395C9F77EF48D
:105A30001F16BA0B620B730B840BBAF09150A1F0D6
:105A4000FF0FBB1F661F771F881FC2F70EC0BA0F5C
:105A5000621F731F841F48F4879577956795B795E4
:105A6000F7959E3F08F0B0CF9395880F08F09927DF
:105A7000EE0F9795879508950E943B2E90F09F37E3
:105A800048F4911116F40C943E2C60E070E080E82C
:105A90009FE3089526F01B16611D711D811D0C9456
:105AA000122E0C942D2E0E94672D0C940A2C0E940D
:105AB000032C58F00E94FC2B40F029F45F3F29F0A2
:105AC0000C94F32B51110C943E2C0C94F92B0E9446
:105AD0001B2C68F39923B1F3552391F3951B550BB8
