:100000000C9482010C94B3010C94B3010C94B301D1
:100010000C94B3010C94B3010C94B3010C94B30190
:100020000C94B3010C94B3010C94B3010C94B30180
:100030000C94B3010C94531E0C94B3010C94B301B3
:100040000C94B3010C94501F0C94B3010C94B301A5
:100050000C94B3010C94B3010C94B3010C94091EDD
:100060000C94B3010C941A1F0C94F01E0C94B30161
:100070000C94B3010C94B3010C94B3010C94B30130
:100080000C94B3010C94B3010C94B3010C94B30120
:100090000C94B3010C94B3010C94B3010C94E51CC3
:1000A0000C94B3010C94B3010C94B3010C94B30100
:1000B0000C94B3010C94B3010C94B3010C94B301F0
:1000C0000C94B3010C94B3010C94B3010C94B301E0
:1000D0000C94B3010C94B3010C94B3010C94B301D0
:1000E0000C94B3010C94FC090C94A9020C948003A9
:1000F0000C94700A0C9496020C94EB090C943C033B
:100100000C947A030C94B0020C94660A0C94FF08C9
:100110000C94430A0C948E030C94E11C0C944C092F
:100120000C9487020C9468030C9484030C9472035F
:100130000C945C0A0C94840A0C9413180C945E02C0
:100140000C942F0A0C94270A0C9492030C944D0AD9
:100150000C947A0A0C946C030C9496080C94760315
:100160000C9488030C9486020C9441030C945D0259
:100170000C94B9080C942C280C9462080C94DD02A1
:100180000C9493080C94FE130C94010A0C94A5088B
:100190000C945F030C94390A0C9410180C946203AD
:1001A0000C941F0A0C940B0A0C9453030C94150A1C
:1001B0000C94F81F0C948E0A0C94C7080C945B03E3
:1001C0000C9457030C946608CDCCCC3D0AD7233C45
:1001D00017B7D13877CC2B329595E6241FB14F0A4B
:1001E000000020410000C84200401C4620BCBE4C1C
:1001F000CA1B0E5AAEC59D740200002100240027C0
:10020000002A002D00300033000101000004010726
:10021000010A0100002200250028002B002E0031D9
:1002200000340002010000050108010B010505056D
:1002300005070508080808020202020A0A0808045D
:10024000040404010101010101010103030303038B
:10025000030303040707070C0C0C0C0C0C0C0C021A
:1002600002020206060606060606060B0B0B0B0B21
:100270000B0B0B010210202008081020401020401A
:10028000800201020108040201010204081020405A
:100290008080402010080402018004020180402078
:1002A00010080402010804020101020408102040A1
:1002B00080010204081020408000000A0B02090C93
:1002C0000D0E0807030401000000000000000000FC
:1002D000000000000000000000000000000000001E
:1002E00000000000001211100000000000000000DB
:1002F00000000000000000000000000000000000FE
:10030000F81F2C2811241FBECFEFD1E2DEBFCDBFD6
:1003100000E00CBF13E0A0E0B2E0E8E3FAE500E0A3
:100320000BBF02C007900D92A634B107D9F725E0A4
:10033000A6E4B3E001C01D92A43DB207E1F711E0CD
:10034000C1E8D1E000E006C021970109802FFE013D
:100350000E94D929C038D10780E00807A9F70E9478
:100360006F210C940A2D0C940000CF92DF92EF9233
:10037000FF920F931F93CF93DF93EC0109E415E0F5
:10038000F80160817181828193810E94C02A6B0192
:100390007C01F80164817581868197810E94C02A61
:1003A0009B01AC012C193D094E095F09DE010E9439
:1003B00080292FEF33E040E050E00E945629CA0127
:1003C000B9016C0D7D1D8E1D9F1D0E943928DF9186
:1003D000CF911F910F91FF90EF90DF90CF900895F4
:1003E000CF93DF93EC0188819981DC01ED91FC9141
:1003F0000190F081E02D64E270E01995009741F0E2
:100400002FE1FC01238321E02283DF91CF91089526
:1004100021E02A83FACFCF92DF92EF92FF92CF931F
:10042000DF93C0915505CC3008F040C025E0C29F55
:10043000E0011124C250DB4F2B8138E8C32ED12CB0
:10044000C21AD10827FDD394CC0CDD1CCC0CDD1CCA
:100450000D2C000CEE08FF084C8128E532E0241B2F
:10046000310947FD3395220F331F220F331F032E0F
:10047000000C440B550B2C193D094E095F09DC019A
:100480000E94802924EB30E040E050E00E94562991
:10049000C20ED31EE41EF51E8FB7F89496E0C91A5B
:1004A000D108CC0CDD1CDA82C9828FBFDF91CF91DD
:1004B000FF90EF90DF90CF900895089508952091D8
:1004C000BC03260F3327331F21323105ECF4209172
:1004D0002B04FC0190E080E0243069F082E0089574
:1004E000A091BC032191AC0144565C4FA40FB52FE1
:1004F000B11D2C930196861798F38091BC03680F69
:100500006093BC0380E0089581E008950895E09130
:10051000E4038091E303E81730F4F0E0EB51FC4F83
:10052000808190E008958FEF9FEF08959091E4030C
:100530008091E3032FEF3FEF981748F4E92FF0E0A5
:10054000EB51FC4F208130E09F5F9093E403C901A1
:1005500008958091E3039091E403891B990B08951A
:10056000CF92DF92EF92FF920F931F93CF93DF937F
:100570007C01CB018A0120913104222389F0EB0117
:100580006B01C40ED51ECC15DD0569F06991D7014C
:10059000ED91FC910190F081E02DC7011995F3CF09
:1005A000642F0E945F02C801DF91CF911F910F91CC
:1005B000FF90EF90DF90CF900895CF93DF931F923D
:1005C000CDB7DEB76983209131042223F9F0209161
:1005D0005404203258F021E030E0FC0133832283C0
:1005E00090E080E00F90DF91CF91089580913204E8
:1005F000E82FF0E0ED5CFB4F998190838F5F809353
:1006000032048093540481E090E0ECCF61E0CE01AD
:1006100001960E945F02F7CF282F30E0F901E754DE
:10062000FD4F9491F901ED58FD4F4491235D3D4FED
:10063000F9012491222309F435C0992311F1915035
:100640009231F8F4E92FF0E08827E65DFC4F8F4FF8
:100650000C94D9295B035F033C0353035703410305
:10066000620368036C03720376037A0380038403D6
:10067000410388038E039203809180008F778093DB
:100680008000E22FF0E0EE0FFF1FED5EFD4FA59121
:10069000B4918FB7F894EC91611148C040954E2306
:1006A0004C938FBF0895809180008F7DE8CF80911B
:1006B0008000877FE4CF84B58F7784BDE2CF84B597
:1006C0008F7DFBCF8091B0008F778093B000D9CF22
:1006D0008091B0008F7DF9CF809190008F778093CB
:1006E0009000CFCF809190008F7DF9CF80919000C6
:1006F000877FF5CF8091A0008F778093A000C1CF36
:100700008091A0008F7DF9CF8091A000877FF5CFE9
:10071000809120018F7780932001B3CF80912001B9
:100720008F7DF9CF80912001877FF5CF4E2BB8CFF9
:10073000FC0183858F3F19F061E00C940C03089550
:10074000FC0180819181892B39F0A281B3819C9138
:1007500011968C919CBD8DBD83858F3F19F060E013
:100760000C940C03089510922B0481E080932A04CA
:100770001092050461E084E10E940C0361E085E1D0
:100780000E940C03E9EBF0E080818E7F8083808102
:100790008D7F808388E48093B80085E48093BC00DB
:1007A0000895CF93DF9391E090939B038823B9F052
:1007B000C091B800D091BA008091BC008A7B809330
:1007C000BC0060E084E10E940C0360E085E10E94CF
:1007D0000C030E94B303D093BA00C093B800DF911A
:1007E000CF910895CF93DF9390E0FC01ED58FD4F3A
:1007F0002491835D9D4FFC0184918823D1F090E08A
:10080000880F991FFC01E750FE4FA591B491FC01A0
:10081000ED5EFD4FC591D49161110EC09FB7F89464
:100820008C91E22FE0958E238C932881E223E8833C
:100830009FBFDF91CF9108958FB7F894EC91E22B91
:10084000EC938FBFF6CF8230910538F0880F991F57
:10085000880F991F05970197F1F70895AF92BF92FE
:10086000CF92DF92EF92FF920F931F93CF93DF937C
:10087000EC0188819981892B89F06EBD0DB407FE4A
:10088000FDCFBEB48B2DDF91CF911F910F91FF90C3
:10089000EF90DF90CF90BF90AF90089588859985B5
:1008A00011E0892B09F010E8AA24A394862F812354
:1008B00009F0A12C062F2C813D814E815F8160E2E1
:1008C00071EA87E090E00E948829F22EB02EE12C98
:1008D000C22ED12CFF2019F0C6010E9423048A8564
:1008E000877F09F042C08D858F3F89F0902F91233B
:1008F00081E009F480E08A1551F0EF85F8898F894D
:10090000992369F19081892B8083AA24A394E98992
:10091000FA898081998D892B8083FF2019F0C60187
:100920000E9423048E858F3F39F0EB89FC898081FA
:10093000988D892309F0E12AE989FA899081898DC6
:100940008095892380838E858F3F09F0BE2C888512
:100950009985892BB9F5110F1111BCCF93CF9081D7
:10096000809589238083A12CD2CFE989FA8980815F
:10097000998D892B8083FF2019F0C6010E942304E2
:100980008D858F3F49F0EF85F8898F89902F9123CE
:10099000A9F09081892B8083E989FA899081898DDA
:1009A0008095892380838E858F3F69F2EB89FC894E
:1009B0008081988D892339F2E12AC5CF9081809575
:1009C0008923E9CF1695C8CF8F929F92AF92BF929D
:1009D000CF92DF92EF92FF920F931F93CF93DF930B
:1009E0007C014B016A01B22EA32E0E94A003E401F8
:1009F000C80CD91CCC15DD0569F4CB2DDA2D0C0FF4
:100A00001D1FC017D10759F06FEFC7010E942E04B8
:100A10008993F7CF6991C7010E942E04EBCFC701DC
:100A20000E94980381E0DF91CF911F910F91FF9079
:100A3000EF90DF90CF90BF90AF909F908F900895F0
:100A40008F929F92AF92BF92CF92DF92EF92FF92DE
:100A50000F931F93CF93DF937C01B62EA72E6A01CD
:100A600049010E94A003E401080D191DC017D10718
:100A700061F4CB2DDA2DCC0EDD1ECC15DD0551F049
:100A80006991C7010E942E04F8CF6991C7010E94A5
:100A90002E04ECCFC7010E94980381E0DF91CF9133
:100AA0001F910F91FF90EF90DF90CF90BF90AF908C
:100AB0009F908F9008953FB7F894809197039091FD
:100AC0009803A0919903B0919A0326B5A89B05C0FD
:100AD0002F3F19F00196A11DB11D3FBFBA2FA92FBD
:100AE000982F8827BC01CD01620F711D811D911DBA
:100AF00042E0660F771F881F991F4A95D1F7089526
:100B00008F929F92AF92BF92CF92DF92EF92FF921D
:100B10000F931F93CF93DF93D0915404D13208F0F9
:100B2000D7C0182FC09153040E945B056B017C0154
:100B300080912B0481116BC082E080932B04109371
:100B40002A048FEF8093290410922804D09327045D
:100B5000A3E3B4E0E7E0F4E080E0D81391C01092A2
:100B6000060480910604CC0FC82BC0930604809124
:100B70000504813009F088C0109205040E945B05CD
:100B80006B017C01809106048093BB0080912D0451
:100B900090912E04A0912F04B0913004892B8A2BC0
:100BA0008B2BA1F00E945B0500912D0410912E0467
:100BB00020912F04309130046C197D098E099F0912
:100BC000061717072807390708F442C08091BC00B0
:100BD00083FDD8CF85EC8093BC000E945B056B0140
:100BE0007C0180912B04823009F450C0809129044B
:100BF0008F3F09F46FC080912904803209F46CC0E2
:100C000080912904803309F469C084E026C0809172
:100C10002D0490912E04A0912F04B0913004892BC3
:100C20008A2B8B2B09F484CF0E945B0580902D04C6
:100C300090902E04A0902F04B09030046C197D0980
:100C40008E099F0986169706A806B90608F070CF88
:100C500080912C040E94D10385E0109232041092FE
:100C6000540410923104DF91CF911F910F91FF90A6
:100C7000EF90DF90CF90BF90AF909F908F900895AE
:100C80009D9191938F5F69CF85EEA5CF80912D04C3
:100C900090912E04A0912F04B0913004892B8A2BBF
:100CA0008B2B09F49ECF0E945B0500912D041091BF
:100CB0002E0420912F04309130046C197D098E0987
:100CC0009F09061717072807390708F08ACFC0CFF2
:100CD00081E0C3CF80E0C1CF82E0BFCF83E0BDCF52
:100CE000CF93DF93EC018B818823A1F0888191E081
:100CF0009093310480935304109232041092540460
:100D000081E00E94800591E0811190E0892FDF91C0
:100D1000CF9108951092E4031092E30310923204ED
:100D2000109254040E94B3038DE592E09093E00387
:100D30008093DF038EE592E09093E2038093E103DA
:100D400081E08B83CE010E947006982F8111CECF57
:100D5000DDCFCF93DF93EA0191E09093310480934C
:100D60005304109232041092540485E594E00E94DA
:100D7000DD02688185E594E00E94DD0281E00E9449
:100D8000800591E0811190E0892FDF91CF91089546
:100D90001F93CF93DF93EA01122FDC0111968D91FF
:100DA0009C91DC01ED91FC910280F381E02D19957D
:100DB000C817D90729F4812F0E94800591E081117D
:100DC00090E0892FDF91CF911F910895CF92DF920C
:100DD000EF92FF920F931F93CF93DF931F921F9277
:100DE000CDB7DEB7FC014787508B618B728B828554
:100DF000882371F14487452F562F672F7727882343
:100E000049F143877F018BE0E80EF11C96818781D1
:100E100099838A83C080D180C114D10409F443C06E
:100E2000018510E098012E5F3F4FD60114968D91F9
:100E30009C918217930780F480E00F900F90DF91D0
:100E4000CF911F910F91FF90EF90DF90CF90089579
:100E50004387D1CF4487D6CFF6018181928120810B
:100E600031E03093310420935304109232041092F5
:100E700054040115110541F421E042E050E0B701AE
:100E8000C6010E94C806D9CFDC01ED91FC91028019
:100E9000F381E02DA801BE016F5F7F4F1995081700
:100EA000190751F6E9CFA281B381109729F2248165
:100EB0003581018510E02330310579F48E7F8983F7
:100EC0009A830F5F1F4F9E012F5F3F4F42E050E01C
:100ED000B701CD010E942005B0CF2115310519F4CD
:100EE0009F779983F0CF2230310511F49068F9CFC4
:100EF0002130310541F79F779064F3CF8F929F9215
:100F0000AF92BF92CF92DF92EF92FF920F931F9317
:100F1000CF93DF93D82FC62F142F613208F09CC0D7
:100F20000E945B056B017C0180912B0481116FC0D5
:100F300081E080932B0410932A049FEF909329045F
:100F4000109228049C0F90932704809306048091AC
:100F50000604DD0FD82BD093060480910504813060
:100F600009F07CC0109205040E945B056B017C01B6
:100F7000809106048093BB0080912D0490912E04F3
:100F8000A0912F04B0913004892B8A2B8B2BA1F0D8
:100F90000E945B0500912D0410912E0420912F04D6
:100FA000309130046C197D098E099F0906171707C7
:100FB0002807390708F44CC08091BC0083FDD8CFC6
:100FC00085EC8093BC000E945B056B017C018091E5
:100FD0002B04813009F444C0809128048C1710F44C
:100FE000C0912804E7E0F4E0A5EEB3E080E08C13C4
:100FF00059C08C2FDF91CF911F910F91FF90EF90EF
:10100000DF90CF90BF90AF909F908F900895809188
:101010002D0490912E04A0912F04B0913004892BBF
:101020008A2B8B2B09F480CF0E945B0580902D04C6
:1010300090902E04A0902F04B09030046C197D097C
:101040008E099F0986169706A806B90608F06CCF88
:1010500080912C040E94D103C0E0CBCF85EEB1CFAC
:1010600080912D0490912E04A0912F04B091300412
:10107000892B8A2B8B2B09F4AACF0E945B05009148
:101080002D0410912E0420912F04309130046C19FE
:101090007D098E099F09061717072807390708F0E9
:1010A00096CFD6CF91919D938F5FA1CF2FB7F89414
:1010B00060919303709194038091950390919603AE
:1010C0002FBF089560E070E0CB010895AF92BF920A
:1010D000CF92DF92EF92FF920F931F93CF93DF9304
:1010E0006C017B018B01040F151FEB015E01AE1833
:1010F000BF08C017D10759F06991D601ED91FC9155
:101100000190F081E02DC6011995892B79F7C50171
:10111000DF91CF911F910F91FF90EF90DF90CF90D3
:10112000BF90AF90089590E080E00895FC01538D4A
:10113000448D252F30E0842F90E0821B930B5417B1
:1011400010F0CF96089501970895FC01918D828D3E
:10115000981761F0A28DAE0FBF2FB11D5D968C91D7
:10116000928D9F5F9F73928F90E008958FEF9FEF16
:101170000895FC01918D828D981731F0828DE80FD2
:10118000F11D858D90E008958FEF9FEF0895FC018C
:10119000918D228D892F90E0805C9F4F821B910959
:1011A0008F739927089581E694E00E94C70821E093
:1011B000892B09F420E0822F0895FC01A48DA80F4B
:1011C000B92FB11DA35ABF4F2C91848D90E0019689
:1011D0008F739927848FA689B7892C93A089B189A9
:1011E0008C91837080648C93938D848D981306C04A
:1011F0000288F389E02D80818F7D80830895EF92AE
:10120000FF920F931F93CF93DF93EC0181E0888FC0
:101210009B8D8C8D98131AC0E889F989808185FF90
:1012200015C09FB7F894EE89FF896083E889F98932
:1012300080818370806480839FBF81E090E0DF9134
:10124000CF911F910F91FF90EF900895F62E0B8D87
:1012500010E00F5F1F4F0F731127E02E8C8D8E1142
:101260000CC00FB607FCFACFE889F989808185FFA9
:10127000F5CFCE010E94DD08F1CFEB8DEC0FFD2FF5
:10128000F11DE35AFF4FF0829FB7F8940B8FEA8964
:10129000FB8980818062CFCFCF93DF93EC01888D73
:1012A0008823B9F0AA89BB89E889F9898C9185FDE1
:1012B00003C0808186FD0DC00FB607FCF7CF8C916F
:1012C00085FFF2CF808185FFEDCFCE010E94DD0842
:1012D000E9CFDF91CF9108958F929F92AF92BF9205
:1012E000CF92DF92EF92FF920F931F93CF93DF93F2
:1012F000EC016A017B0120E030E04FE753E4CB01D1
:10130000B6010E9498284B015C0120E030E0A90161
:101310000E94F62A18168CF5C501B4010E94C02A55
:101320008B01B98020E030E0A901C701B6010E941D
:10133000F62A60E018160CF061E08B2D0E940C0379
:101340000F3F110509F0ECF41127C88161E08C2FE3
:101350000E94F20301151105B9F460E08C2FDF91B2
:10136000CF911F910F91FF90EF90DF90CF90BF90A2
:10137000AF909F908F900C940C03C501B4019058CE
:10138000CDCF0FEF10E0E1CF0F3F110511F461E079
:10139000E5CFEC2FF0E0E754FD4FE491E150E2316E
:1013A00008F0BCC0F0E08827E752F64F8F4F0C944E
:1013B000D929EB09FC09010A0B0A150A8E0A1F0A32
:1013C000270A2F0A390A430A4D0A5C0A660A8E0A5E
:1013D000700A7A0A840A84B5806884BD07BDDF91EB
:1013E000CF911F910F91FF90EF90DF90CF90BF9022
:1013F000AF909F908F90089584B5806284BD08BDA2
:10140000EECF8091800080688093800010938900E7
:1014100000938800E4CF80918000806280938000F8
:1014200010938B0000938A00DACF8091800088604F
:101430008093800010938D0000938C00D0CF80911A
:10144000B00080688093B0000093B300C8CF809153
:10145000B00080628093B0000093B400C0CF809150
:1014600090008068809390001093990000939800FA
:10147000B6CF8091900080628093900010939B0083
:1014800000939A00ACCF8091900088608093900088
:1014900010939D0000939C00A2CF8091A0008068D3
:1014A0008093A0008091A0008F7B8093A000109378
:1014B000A9000093A80093CF8091A0008062809340
:1014C000A0001093AB000093AA0089CF8091A000E8
:1014D00088608093A0001093AD000093AC007FCF94
:1014E000809120018068809320011093290100934E
:1014F000280175CF80912001806280932001109394
:101500002B0100932A016BCF80912001886080938A
:10151000200110932D0100932C0161CF003811059B
:101520000CF035CF1ACF8EBD00000DB407FEFDCFF5
:101530008EB508956F3FB1F0E62FE295EF7044E06D
:10154000E49F90011124DC01ED91FC91E20FF31F67
:101550006F70B8E06B9FC001112462817381860FA8
:10156000971F089590E080E00895CF93DF93EC01FA
:1015700088819981DC01ED91FC910190F081E02D51
:1015800019952A813B81820F931F9B838A83DF9168
:10159000CF910895982F80336CF08A3324F08F35E3
:1015A00024F08B3724F481E0089581341CF081E02D
:1015B0009B350CF080E00895CF93DF93EC01888198
:1015C0009981DC01ED91FC910280F381E02D199568
:1015D0002A813B81820F931F9B838A83DF91CF9166
:1015E00008958F929F92AF92BF92CF92DF92EF9227
:1015F000FF920F931F93CF93DF93CDB7DEB766971C
:101600000FB6F894DEBF0FBECDBF6C018E01095E30
:101610001F4F78018AE0882E912CA12CB12CCB0190
:10162000BA01A50194010E948829942F852F605D3D
:10163000F80162938F01A901692F782F4115510597
:101640006105710561F7A7014E1B5F0BBF01C60164
:101650000E94DC0A66960FB6F894DEBF0FBECDBFBF
:10166000DF91CF911F910F91FF90EF90DF90CF907E
:10167000BF90AF909F908F900895CF92DF92EF929E
:10168000FF920F931F93CF93DF93EC018A85811113
:1016900030C00F8118850E945608D80118966D93A6
:1016A0007D938D939C931B97D801ED91FC910284BF
:1016B000F385E02DC801199597FF25C00E945608B3
:1016C000F801C084D184E284F3846C197D098E0909
:1016D0009F09C480D580E680F7806C157D058E0556
:1016E0009F0510F38FEF9FEF97FD80E0898781E0E2
:1016F0008A878985DF91CF911F910F91FF90EF909D
:10170000DF90CF9008959927EFCF1F93CF93DF936A
:10171000EC01162F0E943D0B811306C01A8681E052
:10172000DF91CF911F91089580E0FACF0F931F931F
:10173000CF93DF938C01EB018991882369F0C80175
:101740000E943D0B882379F0FE0131979081981318
:101750000DC0F8011286F0CF90E080E0DF91CF91CC
:101760001F910F91089582E090E0F8CF83E090E020
:10177000F5CFCF93DF93EC01CE010E943D0B8B3070
:101780004CF489305CF4882359F081E08E8390E03A
:1017900080E00BC08D3011F08032B9F71A86ECCFA3
:1017A0008E81811105C081E090E0DF91CF91089595
:1017B00082E090E0FACF4F925F926F927F928F9289
:1017C0009F92AF92BF92CF92DF92EF92FF920F93D0
:1017D0001F93CF93DF93EB01DC012C912B32D9F1D6
:1017E0002D32D1F50196FF24F394FC01208130EDD8
:1017F000320F3A3018F02E3209F042C18C0160E00D
:1018000070E0CB01F801219130ED832E820E39E09A
:10181000381520F16A3949E97407840749E19407CA
:1018200038F5AAE0B0E09B01AC010E947529912C2B
:10183000B12CA12C240135014094509460947094F3
:10184000461657066806790698F0680D791D8A1DB8
:101850009B1D8F01D7CF0196F12CC7CF211108C056
:10186000FF20E9F161307105810550E89507A0F08E
:10187000E12CBAE08B2E912CA12CB12C61157105B5
:1018800030E883079105B0F1A50194010E948829F1
:10189000CA01B901E394F2CF2C8120782A602C830D
:1018A0009B01AC0188279927DC01821B930BA40BB9
:1018B000B50B88839983AA83BB838F2DDF91CF914A
:1018C0001F910F91FF90EF90DF90CF90BF90AF905E
:1018D0009F908F907F906F905F904F9008952C8194
:1018E000207828602C83688379838A839B83FF24F4
:1018F000F394E3CFF801D8012D918D0130ED320F33
:101900003A3010F4E394F6CF2E3201F58F010F5FD9
:101910001F4FF8010F5F1F4F2081A0EDDA2ED20E6E
:10192000B9E0BD1598F06C3CECEC7E07ECE08E075E
:10193000910578F7AAE0B0E09B01AC010E947529FF
:101940006D0D711D811D911DEA94E3CF20812F7DC6
:1019500010E000E0253409F05BC021812D32D1F583
:101960003296CC24C394DF0110E000E02E2D0E2C23
:10197000000C330B5AE0B52EFD01DD9040ED4D0D0E
:101980004A3008F040C0B09EA001B19E500D112415
:101990000D2DDD0C110B00531109040F151FA801AB
:1019A000420F531F473251053CF38C81CC20C9F0C4
:1019B00040E050E060E070E8F11003C040E050E02B
:1019C000BA0180788C608C83488359836A837B83D7
:1019D000FC2C73CF2B3219F03196C12CC4CF329628
:1019E000FCCF40E050E060E87FEFF11004C040E041
:1019F00050E060E87FE780788C608C83488359836F
:101A00006A837B8374CFCC2019F01195019511095D
:101A10002081211135C00E0D111DE7FC1A950E9481
:101A2000372830EEC32E31E0D32E101611063CF0CD
:101A300011950195110948ECC42E41E0D42EE12CFA
:101A40000115110591F000FF0CC024E0E29EF001A9
:101A50001124EC0DFD1D25913591459154910E9465
:101A6000982815950795E394EBCFF11090582C81A9
:101A700020782C602C83688379838A839B8337CF7B
:101A8000F12C1BCFCF93DF9300D01F921F92CDB7C5
:101A9000DEB7FC0194819F77963091F030F494305A
:101AA00020F560E070E0CB0111C09A30B9F09C30B5
:101AB00051F19830B1F7608171818281938104C0C6
:101AC000608170E090E080E00E9437280F900F90D6
:101AD0000F900F900F90DF91CF91089560817181E9
:101AE000828193810E943928F1CF808191811D826A
:101AF000BE016F5F7F4F04960E94DB0BCE01019603
:101B00000E94420DE3CF6081718182819381DECF9B
:101B1000FF920F931F93CF93DF93FC01C381D48176
:101B2000058116810180F281E02D3097D9F0848102
:101B300086FF18C065966081CE010E949A0A0097C0
:101B400089F0FC01F58001151105A9F06F2DCE017A
:101B50000E949A0A009711F0FC01F58001501109CA
:101B6000009789F760E070E0CB01DF91CF911F9182
:101B70000F91FF900895DF91CF911F910F91FF90EA
:101B80000C94420DCF92DF92EF92FF92CF93DF93AE
:101B900000D01F921F92CDB7DEB7FC0184818F77F2
:101BA0008630C1F038F4843019F1853071F190E05D
:101BB00080E012C08A3021F08C3079F18830B9F79A
:101BC00080819181A281B381009721E0A207B105B4
:101BD00018F0EDCF808190E00F900F900F900F9054
:101BE0000F90DF91CF91FF90EF90DF90CF9008950D
:101BF000808191811D82BE016F5F7F4F0E94DB0B50
:101C0000CE0101960E94C20DE7CF808191811D8295
:101C1000BE016F5F7F4F0496F1CFC080D180E2801C
:101C2000F38020E030E0A901C701B6010E94F62A46
:101C300087FDBDCF20E03FEF4FE757E4C701B60176
:101C40000E94322818160CF4B2CFC701B6010E94C8
:101C5000C72ACB01C1CFFC019289915084E0989FA3
:101C600090011124A089B189A20FB31F1296ED91A2
:101C7000FC9113973097E9F011962C9111978C9164
:101C80002817B8F481E0820F11968C9388E0289F82
:101C9000A0011124E40FF51F309759F014828FEF43
:101CA000858317821682BF01892F8295807F820FDC
:101CB000089560E070E08FEF0895DF92EF92FF9259
:101CC0000F931F93CF93DF93EC017B01D12C688995
:101CD00079898A89D816E0F484E0D89E800111249D
:101CE000060F171FD80112966D917C916115710531
:101CF00041F0D701ED91FC910280F381E02DC70105
:101D00001995F8011382128210821182D394DFCFC9
:101D10001A8A8FEF8C8BC617D70761F0D701ED9128
:101D2000FC910280F381E02DC7011995D98BC88BF6
:101D300084E08B8BDF91CF911F910F91FF90EF90FB
:101D4000DF900895DB01ED91FC9111970280F38102
:101D5000E02DBC01CD0119940F931F93CF93DF9316
:101D6000EC01088119818B819C81009749F0FC016D
:101D7000208131813C832B83B8010E94A20EF3CFD6
:101D800068817981CE010596DF91CF911F910F91E6
:101D90000C945D0ECF93DF93EC01E881F981B0E004
:101DA000A0E03097F9F09F012C5F3F4F6217730757
:101DB000A1F4928191509283911114C080819181FC
:101DC000109741F08D939C93BA01CF01DF91CF9191
:101DD0000C94A20E99838883F7CFDF010190F081E4
:101DE000E02DDFCFDF91CF9108958F929F92AF9238
:101DF000BF92CF92DF92EF92FF920F931F93CF93F8
:101E0000DF938C01EB01FC01848180FF0AC04881D3
:101E10005981608171816C5F7F4FCE0103960E9472
:101E2000CA0EF8018481807681F10115110569F1EE
:101E3000D0805E01F5E1AF0EB11C4E0183E0880E4B
:101E4000911CEFEFDE16F1F06D2DC5010E949A0A8C
:101E50007C01FC01C580848187FF07C048815981CE
:101E600066817781C4010E94CA0EBE01C7010E942B
:101E7000F50EF701848180788483898D8583D98EDE
:101E8000DC2CDFCFF801D082D182DF91CF911F917E
:101E90000F91FF90EF90DF90CF90BF90AF909F9009
:101EA0008F900895EF92FF920F931F93CF93DF933C
:101EB0007C018B01EA016F3F710509F0B0F4E88104
:101EC000F9810480F581E02DAB014B5F5F4FBC01D0
:101ED000CE011995009749F0FC010383DF91CF9162
:101EE0001F910F91FF90EF900895E881F981028092
:101EF000F381E02DB701CE01199590E080E0EECF9F
:101F0000FF920F931F93CF93DF93EC01F62E8A81FC
:101F10009B810097C9F06C817D81FC01238126178C
:101F2000170691F408811981F80140815181660FEB
:101F3000771F6F5F7F4F0E94520F009719F421E0C7
:101F4000F80122839B838A838A819B81009759F0C1
:101F50002C813D81A9014F5F5F4F5D834C83820FD0
:101F6000931FFC01F482DF91CF911F910F91FF909D
:101F700008959F92AF92BF92CF92DF92EF92FF921D
:101F80000F931F93CF93DF9300D01F921F92CDB773
:101F9000DEB78C010E943D0BD82EF8011286F12C81
:101FA000E12C60EFC62EC8010E943D0BF80112869D
:101FB000D81609F4B3C0811113C082E090E00F90ED
:101FC0000F900F900F900F90DF91CF911F910F9175
:101FD000FF90EF90DF90CF90BF90AF909F900895CB
:101FE0008C3509F099C0C8010E943D0B882329F364
:101FF000EBE4F2E0853709F083C0F801128654E083
:10200000952EB12CA12CC8010E943D0B8823A9F26A
:10201000813434F48053803130F083E090E0CFCFCE
:102020008F7D8753F8CF44E0AA0CBB1C4A95E1F79B
:10203000A82AF80112869A949110E5CFC501985DFF
:102040008115944020F47501F3E0FF22ACCFC50167
:102050009C5D81159440A8F483E0B822B701762FE7
:102060006627770F770F6A297B2990E080E0019639
:10207000603871058105910540F4C8010E94800F08
:1020800092CFB50190E080E0F3CF1982262F2F7315
:1020900020682A8326E096958795779567952A95F7
:1020A000D1F76032710580F4606C6B835E01E4E00F
:1020B000AE0EB11CF50162915F01662309F473CF86
:1020C000C8010E94800FF6CF262F2F7320682B8324
:1020D00086E0769567958A95E1F76031710538F469
:1020E000606E6C835E01F5E0AF0EB11CE3CF6068FB
:1020F0006C83CD825E0126E0A20EB11CDBCF32964E
:102100009081992309F489CF8913F9CF818188239C
:1021100009F483CFF8011286682FAFCF82819381B3
:10212000892B19F484E090E04ACF90E080E047CF1B
:10213000AF92BF92CF92DF92EF92FF920F931F93D5
:10214000CF93DF93DC011296ED91FC9113971496D7
:102150008D919C911597E80FF91F14820D911C9198
:10216000119714966D917C91159712968D919C9173
:1021700013979C012C5F3F4FE801EB81FC817B01B1
:10218000E20EF31E3097B9F043814617170679F433
:102190005901AF014C5F5F4FEA14FB0499F1E5016F
:1021A000C9905E01EA01D990AE01CD14A9F3019066
:1021B000F081E02DE7CFED01F801408151810E94CF
:1021C000520FFC01892B21F481E0D80112968C93E7
:1021D000A881B98113968D919C91149791838083E6
:1021E0001496FC93EE9313971B821A82CF01DF9112
:1021F000CF911F910F91FF90EF90DF90CF90BF9004
:10220000AF90089582818F5F8283F0CF2F923F92AB
:102210004F925F926F927F928F929F92AF92BF92F6
:10222000CF92DF92EF92FF920F931F93CF93DF93A2
:1022300000D01F921F92CDB7DEB7B82E962E4D83D9
:1022400019010E9456086B017C018D8019821C8245
:10225000282D30E03B832A832801712C612C81E0FA
:1022600080933104B09253041092320410925404BB
:10227000692D85E594E00E94DD0281E00E948005E1
:1022800091E090933104109232041092540441E092
:10229000682D8B2D0E947E07A82E1092E403809358
:1022A000E3038091E403A816E1F00115110571F430
:1022B00085E594E00E949602F1012C81E20FF11D68
:1022C00027FDFA9580832F5F2C83EBCF0E94560861
:1022D0006C197D098E099F0964157505860597059A
:1022E00038F381E00E94800589813D81830F831A44
:1022F00091E09983831708F4B2CF01151105C1F05D
:102300000E9456086C197D098E099F0930E020E073
:10231000601771078207930758F02C81822F220FD4
:10232000990B2A813B818217930714F43FEF3C837A
:102330008C810F900F900F900F900F90DF91CF91A5
:102340001F910F91FF90EF90DF90CF90BF90AF90D3
:102350009F908F907F906F905F904F903F902F90C5
:102360000895BF92CF92DF92EF92FF920F931F9347
:10237000CF93DF931F921F92CDB7DEB7F82EE62ED4
:10238000C42EB22ED02E08EE13E09E012E5F3F4FDA
:1023900041E00E940611882399F18C2D8B19990B2D
:1023A000AC014F5F5F4F81E090E002C0880F991F42
:1023B000BA94E2F70197042E01C0880F0A94EAF755
:1023C0000D2D01C0000F4A95EAF7982F90952A81AC
:1023D00092238023892B8A838983AE014F5F5F4FCD
:1023E0006E2D8F2D0E94A9060F900F90DF91CF9137
:1023F0001F910F91FF90EF90DF90CF90BF900895C5
:1024000080E0F2CF2F923F924F925F926F927F9235
:102410008F929F92AF92BF92CF92DF92EF92FF92F4
:102420000F931F93CF93DF931F921F92CDB7DEB709
:102430007C013B014C018BE0880E911CD701169664
:102440009C91169717968C91179799838A83CD90B4
:10245000DC901197C114D10409F487C019964C91EE
:1024600050E0F6018481958184179507A8F080815A
:1024700091E09093310480935304109232041092AF
:10248000540420E0BE016F5F7F4FC6010E94C80662
:10249000B12CA12C811116C080E00F900F90DF911C
:1024A000CF911F910F91FF90EF90DF90CF90BF9051
:1024B000AF909F908F907F906F905F904F903F90E4
:1024C0002F900895D60114968D919C9102E010E012
:1024D0000A191B098017910708F48C0141E082E07A
:1024E00090E0801B910BA816B90608F440E0602F1D
:1024F000F60180810E947E071092E4038093E3033B
:102500008017110649F624014A0C5B1C1201C10117
:10251000841995098017910778F4D60111968D9149
:102520009C91DC01ED91FC910284F385E02D1995DD
:10253000F10181931F01EBCFA00EB11EF2E0AF16A7
:10254000B10408F4BFCFF7018285811140C08485B2
:1025500090E0982F8827D30111969C938E93238522
:10256000822B8D939C9381E098CF1296ED91FC91F4
:102570001397309709F490CF14962D913C911597AD
:1025800019964C9150E02330310589F4816089839C
:102590009A834F5F5F4F02E010E09401BE016F5FCE
:1025A0007F4FCF010E94E4048111CDCF76CF21155A
:1025B000310519F490689983EECF2230310511F47A
:1025C0009F77F9CF2130310531F7906CF4CF8385B7
:1025D00090E0982F8827D30111969C938E932485A1
:1025E000BFCFCF92DF92EF92FF920F931F93CF93C3
:1025F000DF93CDB7DEB7A8970FB6F894DEBF0FBE56
:10260000CDBF02EA15E0F801828593851BA21CA2CA
:102610001DA21EA29D8B8C8B1F8A1E8AFF24F39401
:10262000FD8E85E090E09B8F8A8FFE8E82E0E82E03
:10263000EC8E4685578560897189CE0144960E944B
:10264000E606F80182859385188A198A1A8A1B8AF8
:102650009A8389831C821B82FA8684E090E09887A3
:102660008F83FB86E986BE01695D7F4FCE010196AF
:102670000E940212F80184876FA178A5072E000C32
:10268000880B990B0E9439286B017C01F801628943
:102690007389848995890E9437289B01AC01C70101
:1026A000B6010E944E2A20E030E04AE754E40E943E
:1026B0004E2AA8960FB6F894DEBF0FBECDBFDF91AD
:1026C000CF911F910F91FF90EF90DF90CF900895E1
:1026D0008F929F92AF92BF92CF92DF92EF92FF9232
:1026E0000F931F93CF93DF93CDB7DEB765970FB6E8
:1026F000F894DEBF0FBECDBF02EA15E0F801828577
:102700009385188A198A1A8A1B8A9A8389831C825C
:102710001B82FF24F394FA8682E090E098878F83EF
:10272000FB8682E0E82EE986BE016C5E7F4FCE011B
:1027300001960E940212F80184876C897D8993E0DA
:10274000769567959A95E1F76B01CC0CDD1CCC0C66
:10275000DD1C82859385188A198A1A8A1B8A9A83B6
:1027600089831C821B82FA8681E090E098878F83A0
:10277000FB86E986BE016C5E7F4FCE0101960E940A
:102780000212F80184876C897D89072E000C880B62
:10279000990B0E9439282AE037ED43E25CE30E945E
:1027A000982820E030E04AE754E40E944E2A4B018A
:1027B0005C01B601DD0C880B990B0E9439282FE6CD
:1027C00032E143E85AE30E9498289B01AC01C5011D
:1027D000B4010E94E22965960FB6F894DEBF0FBEE1
:1027E000CDBFDF91CF911F910F91FF90EF90DF90C0
:1027F000CF90BF90AF909F908F900895AB01BC0198
:102800008CEB95E00C946C09FC0101900020E9F739
:102810003197AF01481B590BBC0181E694E00C9441
:102820006608DF92EF92FF920F931F93CF93DF938F
:102830006115710561F460E070E08FEF9D2DDF910F
:10284000CF911F910F91FF90EF90DF9008958A0133
:10285000EB01DC01FC900B5E1F4F6F2DC8010E9445
:102860009A0A009741F3FC01E580009721F3068066
:10287000F781E02DDE010D900020E9F79D01215048
:1028800031092C1B3D0BB0E0A0E0309739F0DF019F
:102890000D900020E9F71197AE1BBF0B2A173B07DD
:1028A00051F4DE012C0F3D1FA217B30769F05D91B3
:1028B00041915417C9F36E2DC8010E949A0A0097DE
:1028C00009F4B9CFFE2CCFCFBC018F2DDE2CB6CFB3
:1028D000FC01248125FF06C0009721F00E941114FD
:1028E000CB01089590E080E008950F931F93CF935C
:1028F000DF93FC01C181D28105811681CE014A9608
:1029000063817481009749F430E020E0B901CE0181
:10291000DF91CF911F910F910895AE010E9468142D
:10292000009791F3AE01B8010E9468149C01EECFAC
:10293000CF93DF93FC01C081D181CE014A966281A1
:10294000738130E020E0009721F0AE010E9468140E
:102950009C01B901CE01DF91CF910895FB01019057
:102960000020E9F73197AF01461B570B0C94DC0AA6
:102970001F93CF93DF93EBE4F2E01281112379F000
:10298000329621816213F9CFEC016CE50E94B50A01
:10299000612FCE01DF91CF911F910C94B50A611187
:1029A000F9CF6CE572E0DF91CF911F910C94AE14DA
:1029B000CF92DF92EF92FF920F931F93CF93DF930B
:1029C0008C016B017A0162E20E94B50AE601EC0C0F
:1029D000FD1CCE15DF0529F06991C8010E94B814CD
:1029E000F8CF62E2C801DF91CF911F910F91FF9064
:1029F000EF90DF90CF900C94B50A2F923F924F92B8
:102A00005F926F927F928F929F92AF92BF92CF927E
:102A1000DF92EF92FF920F931F93CF93DF93CDB787
:102A2000DEB76C970FB6F894DEBF0FBECDBF8C013A
:102A30001B01DC0114968C9114978F77883009F470
:102A4000B2C2E8F4843009F469C248F4833009F46E
:102A50009FC263E672E0C1010E94AE141CC28530C1
:102A600009F470C28630A9F78C9168E672E0811192
:102A700002C06DE672E0C1010E94AE146DC28C30DE
:102A8000F1F1C8F48A3029F7CD90DD90ED90FC90FB
:102A9000B701A601F7FE0BC06DE2C1010E94B50AA5
:102AA00044275527BA014C195D096E097F09C101F8
:102AB0000E94F10A51C2803209F4F7C1803449F60C
:102AC0006BE5C1010E94B50AF80110811F3F09F4AE
:102AD000E7C1D10114968D919C91612F45960E947A
:102AE0009A0A8C01B1010E94FD14F80115811F3F63
:102AF00009F4D6C16CE2C1010E94B50AE7CFF80122
:102B0000C080D180E280F380A7019601C701B601A1
:102B10000E94322881119DCF20E030E0A901C70139
:102B2000B6010E943228882379F0A7019601C701D7
:102B3000B6010E94E2299B01AC01C701B6010E94C7
:102B40003228882309F485CF20E030E0A901C701AD
:102B5000B6010E94322887FF08C06DE2C1010E94C1
:102B6000B50AF7FAF094F7F8F09420E836E948E16E
:102B70005BE4C701B6010E94F62A87FD88C074E1B4
:102B8000A72EB12C00E210E0188E1F8AF501E0524A
:102B9000FE4F2591359145915491C701B6010E9490
:102BA000F62A87FD13C0F501E853FE4F25913591B4
:102BB00045915491C701B6010E9498286B017C0190
:102BC0002F89388D200F311F388F2F8B1595079542
:102BD00034E0A31AB1088CEFA8168FEFB806B1F64F
:102BE00055245A9420E030E0A901C701B6010E94A3
:102BF000F62A18160CF052C02CEA35EC47E257E3DF
:102C0000C701B6010E94322818160CF447C0A52D42
:102C1000B4E0AB02C0011124B12CA12CFC01E8539B
:102C2000FE4F3F019C0120523E4F49013FEF53169A
:102C300009F434C0F301EA0DFB1D6591759185918E
:102C4000949120E030E040E251E40E949828A701EE
:102C500096010E94F62A18169CF4F401EA0DFB1D59
:102C60002591359145915491C701B6010E9498284C
:102C70006B017C018F89988D801B910B988F8F8BB6
:102C8000159507955A9494E0A91AB108CFCF00E2A0
:102C900010E055E0552E188E1F8AA4CFC701B6014B
:102CA0000E94C72A4B015C012B013C0106E080E435
:102CB00092E4AFE0B0E0898F9A8FAB8FBC8F102F7A
:102CC00001509AE04916510461047104C8F0698DFD
:102CD0007A8D8B8D9C8D2AE030E040E050E00E94A0
:102CE0008829298F3A8F4B8F5C8FC301B2012AE06C
:102CF00030E040E050E00E94882929013A01DFCF0E
:102D0000C501B4010E9437289B01AC01C701B6017F
:102D10000E94E1296B017C01698D7A8D8B8D9C8DE0
:102D20000E9437289B01AC01C701B6010E94982878
:102D30002B013C010E94C72A6B017C010E943728AD
:102D40009B01AC01C301B2010E94E1299B01AC01CE
:102D50000E94E2290E94C72AC60ED71EE81EF91E4D
:102D6000898D9A8DAB8DBC8DC816D906EA06FB06F7
:102D7000D8F09FEF891A990AA90AB90AAF89B88DC4
:102D8000AB2B39F1BAE08B169104A104B10408F120
:102D9000EF89F88D3196F88FEF8BC12CD12C76010D
:102DA000812C912C540183942AE0422E512C612CC9
:102DB000712CC701B601A30192010E948829672BDB
:102DC000682B692B51F4111644F469017A011150F2
:102DD000F0CFC12CD12C7601E7CFB501A401C10100
:102DE0000E94F10A112371F14E01F1E18F0E911C45
:102DF000012F54019AE0492E512C612C712C015065
:102E000068F0C701B601A30192010E948829605DA4
:102E1000D4016E934D0169017A01F1CF812F90E0C9
:102E2000BC0160957095F501E81BF90B31978EE2B6
:102E3000808344275527461B570B6A0D7B1DC10114
:102E40000E94DC0AEF89F88DEF2B29F165E6C101BC
:102E50000E94B50A0F89188D17FF07C06DE2C101E6
:102E60000E94B50A119501951109FE0177969F01FF
:102E70008AE0E82EF12CC801B7010E94C529805DC7
:102E800082938B01672BB9F7A9014E1B5F0BBF0122
:102E9000C1010E94DC0AD10112968D919C915FC004
:102EA0006DE5C1010E94B50AF6CF6BE7C1010E9432
:102EB000B50AF80110811F3F79F1D10114968D9167
:102EC0009C91612F45960E949A0A8C01FC01C68054
:102ED000D78062E2C1010E94B50A7601D7016D91E7
:102EE0007D01662321F0C1010E94B814F7CF62E290
:102EF000C1010E94B50A6AE3C1010E94B50AB1018D
:102F0000C8010E94FD14F80115811F3F29F06CE2F1
:102F1000C1010E94B50ACFCF6DE7C3CFF801608130
:102F2000718150E040E06115710541F0FB010190B5
:102F30000020E9F73197AF01461B570BC1010E94F2
:102F4000D814A9CFED91FC91438150E0BF016C5F93
:102F50007F4FC1010E94D814F101828193816C9648
:102F60000FB6F894DEBF0FBECDBFDF91CF911F919A
:102F70000F91FF90EF90DF90CF90BF90AF909F9018
:102F80008F907F906F905F904F903F902F9008951B
:102F9000ED91FC91438150E0BF016C5F7F4FC10117
:102FA0000E94DC0AD9CF4D915D916D917C917FCDCE
:102FB00085ED8093BC0080912D0490912E04A0910A
:102FC0002F04B09130040796A11DB11D23E0B695E2
:102FD000A795979587952A95D1F72091BC0024FD58
:102FE00003C010922B04089540912D0450912E049B
:102FF00060912F0470913004452B462B472B69F3C9
:103000000097A105B10541F02AE22A95F1F700C029
:103010000197A109B109E1CF80912C040C94D1034F
:10302000CB010C94FB2ACB010C94972B8F929F928F
:10303000AF92BF92CF92DF92EF92FF920F931F93C6
:10304000CF93DF936C018B01DB015996FC90BFEFAE
:10305000FB1621F16F2DC80145960E949A0AEC01DA
:103060008D81F801818F209709F496C01C828FEF23
:103070008D831F821E82D60111966C916F3F09F4D9
:103080009FC0C80145960E949A0AFC01F582D601AC
:103090001196FC92BE018F2D9D8084C05B01F5E0EE
:1030A000AF0EB11CDB01ED90FC90119757968C91FF
:1030B000882349F0C5010E942B0EC62FD72F2097D9
:1030C00011F0F82ED8CFF801C789908DC91325C00B
:1030D000C03109F461C0CC0F65897689D701ED91C3
:1030E000FC91B4E0CB9FA0011124A616B70609F00D
:1030F0004BC00190F081E02DBA01C70119950097EE
:1031000009F44AC020E1F501DC0101900D922A95F5
:10311000E1F7F801968B858BC08FD8015596CD913C
:10312000DC91569757968C91579721E0280F579628
:103130002C93B4E08B9FC0011124C80FD91F90E1DC
:10314000892E203111F48FE0882EE8E08E9EB001A8
:103150001124D701ED91FC910190F081E02DC70180
:1031600019959B838A83892B09F4812C8882198283
:10317000CD2B91F0C5010E942B0EC62FD72FF82E14
:10318000209709F078CF08C00480F581E02DC701B1
:103190001995009709F0BDCF81E0F801828360E0C6
:1031A00070E08FEF992DDF91CF911F910F91FF90DC
:1031B000EF90DF90CF90BF90AF909F908F90089549
:1031C000F601F082F18266CF8F929F92AF92BF920A
:1031D000CF92DF92EF92FF920F931F93CF93DF93E3
:1031E000EC018B01D42E0E94B90B7C01892B09F0D4
:1031F00047C0CE010E943D0B863609F452C124F52A
:10320000873229F08B3561F1823209F053C11D827A
:103210001C828A819B81892B31F4888199810E944B
:10322000F0019B838A83CE010E94B90F7C01892B18
:1032300039F5CE010E949810F8012481207825608C
:103240002483918380831CC0843709F412C18B3797
:1032500009F45BC08E3609F02DC163E672E012C13D
:10326000F80184818078806484830115110519F048
:103270008FEF80838183D11011C025E0E22EF12CE5
:10328000C701DF91CF911F910F91FF90EF90DF90D9
:10329000CF90BF90AF909F908F9008951A86CE01E7
:1032A0000E94B90B009709F085C06DE5CE010E9420
:1032B000850B8111E5CFDA946B857C85C8010E946E
:1032C00016186115710521F484E0E82EF12CD8CF91
:1032D0004D2DCE010E94E418009709F06BC0CE017D
:1032E0000E94B90B009709F065C06DE5CE010E9400
:1032F000850B8111C5CF6CE2CE010E94850B811137
:10330000DBCF93E0E92EF12CBBCFF80184818078EC
:10331000806284830115110519F08FEF808381830A
:10332000DD2009F4AACF1A86CE010E94B90B0097BE
:1033300009F040C06DE7CE010E94850B8111A0CF3E
:10334000BB24BA94BD0C1D821C828A819B81892B6F
:1033500031F4888199810E94F0019B838A83CE0198
:103360000E943D0B8732E1F08232D1F0CE010E9403
:103370003D0BD82E0E94CA0A882319F21A866D2D99
:10338000CE010E94800FCE010E943D0BD82E0E94DC
:10339000CA0A8111F3CF8A819B81892B31F494CFA2
:1033A000CE010E94B90F009729F4CE010E94B90BFB
:1033B000009711F07C0164CF6AE3CE010E94850B77
:1033C000882309F49ECFEA81FB818C819D81E80FDF
:1033D000F91F14824B855C856A817B816C5F7F4F0E
:1033E000C8010E941114CB016B01672BC9F5CE01F6
:1033F0000E9498104C016B857C85C8010E941618AC
:103400006B016115710509F45FCFFB018481806850
:103410008483F4E08F0E911CF601978286824B2DF7
:10342000B601CE010E94E418009721F6CE010E9459
:10343000B90B009709F0BECF6DE7CE010E94850B56
:1034400081111ECF6CE2CE010E94850B882309F406
:1034500058CFCE010E94B90B009709F474CFAACFC0
:103460006B857C850E94F50EF601848180788483CB
:10347000D6CFF801848180788660848381E0808360
:1034800068E672E0CE01DF91CF911F910F91FF901E
:10349000EF90DF90CF90BF90AF909F908F900C9463
:1034A000960BF801848180788660848310826DE6B3
:1034B00072E0E8CFCE010E943D0B5E01FDE0AF0E51
:1034C000B11CD12C9A2CCB2C803374F08A3374F439
:1034D0009FE3D91699F01A86D394F50181935F0181
:1034E000CE010E943D0BF0CF8B3291F393ED980FFC
:1034F000923070F3982F9F7D953451F3CD0DD11DEF
:103500001D86B801892D9C2D0E94DB0B8111B8CE40
:10351000F8CE4F925F926F927F928F929F92AF926E
:10352000BF92CF92DF92EF92FF920F931F93CF93B0
:10353000DF93CDB7DEB7CA57D1090FB6F894DEBF17
:103540000FBECDBF8E01025B1F4F81E092E0F801FC
:1035500091838083128214821382C8010596968B10
:10356000858B178A24E0208F2FEF218F168E61E044
:1035700072E00E945D0EF8011282E080F180F80195
:1035800083819481009751F0FC0120813181F80101
:1035900034832383B7010E94A20EF1CF168E1A83C3
:1035A00009831C821B821E821D821F8281E694E099
:1035B000998788871B861D870C874AE0B801665E5D
:1035C0007F4FCE0101960E94E4187C01892B51F4B3
:1035D0008A85882339F0F801868D83FF03C033E0A4
:1035E000E32EF12C8B819C81009731F0E981FA81E7
:1035F000608171810E94A20EE114F10471F183E7F0
:1036000092E00E940414F701EE0FFF1FE55EFD4FEC
:1036100080819181009711F00E9404148AE892E061
:103620000E940414C8010E94AC0EC658DF4F0FB6AA
:10363000F894DEBF0FBECDBFDF91CF911F910F91E8
:10364000FF90EF90DF90CF90BF90AF909F908F90C2
:103650007F906F905F904F9008951A8309838DE853
:1036600092E09C838B83CE0101960E9498146B019B
:103670007C01FB01309709F49BC084818F7709F4AA
:1036800097C010926C05E996CCAEDDAEEEAEFFAE03
:10369000E99782E090E0EB969FAF8EAFEB97CE017B
:1036A0008C589F4F0E94880D4B015C01E296CCAE76
:1036B000DDAEEEAEFFAEE29781E090E0E4969FAF24
:1036C0008EAFE497CE0183599F4F0E94880D2B0146
:1036D0003C01CA82DB82EC82FD821F821E82CE0107
:1036E00001960E94880D609356057093570580934C
:1036F00058059093590540925A0550925B05609287
:103700005C0570925D0580925E0590925F05A092C7
:103710006005B0926105CA82DB82EC82FD8283E0A3
:1037200090E09F838E83CE0101960E94880D609366
:10373000820570938305809384059093850580911D
:10374000620590916305892B99F1809164059091B0
:103750006505892B69F181E080936C050E9456080C
:10376000C0907205D0907305E0907405F0907505D7
:10377000DC01CB018C0D9D1DAE1DBF1D80937A0514
:1037800090937B05A0937C05B0937D0510926D0509
:1037900010928A0510928B0510928C0510928D055F
:1037A00010928E0510928F0510929005109291053F
:1037B0001A83098394E9E92E92E0F92EFC82EB82C8
:1037C000CE0101960E9498146115710509F42ACF63
:1037D000FB0184818F7709F425CF1B830A83FD8247
:1037E000EC828CE992E09F838E83CE0101960E9449
:1037F0007514FB01309709F415CF24812F7709F454
:1038000011CFCB010E94C20D909367038093660392
:103810001B830A83FD82EC8286EA92E09F838E837B
:10382000CE0101960E9475142B013C016B01672BA0
:1038300009F4F8CEF20184818F7709F4F3CE88E69B
:10384000A82E83E0B82EF12CE12C26014A825B825F
:103850006C827D82FF82EE82CE0101960E94880DED
:10386000F50161937193819391935F01FFEFEF1ADB
:10387000FF0A8AE0E816F10441F7D4CE0E94D3088B
:1038800081110E94891A80E090E0892B49F080E044
:1038900090E0892B29F00E94000081110E94000015
:1038A00080E090E0892B49F080E090E0892B29F0BE
:1038B0000E94000081110E94000080E090E0892BAE
:1038C00049F080E090E0892B29F00E9400008111EE
:1038D0000C9400000895EF92FF920F931F93CF93E3
:1038E000DF93FC01E080F1808701065E1F4F21F12C
:1038F000C281D381209751F1F701868D982F9F7750
:1039000019F580788062868F8FEF828F838FA70171
:10391000BE01C8010E941114FB01309761F4B70188
:10392000C8010E941618FB01309729F084818F7717
:103930008483D783C6838F01C801DF91CF911F9104
:103940000F91FF90EF90089585FDE1CF10E000E02A
:10395000F3CFAF92BF92CF92DF92EF92FF920F938D
:103960001F93CF93DF938C017B01DC01AD90BC9062
:103970000E946B1CEC01009781F0F701C080D180A0
:10398000E280F380B5010E94F50E8C8180788C6016
:103990008C83C882D982EA82FB82D801ED91FC91A6
:1039A00080E0309719F0828191E08927DF91CF91F3
:1039B0001F910F91FF90EF90DF90CF90BF90AF904D
:1039C0000895CB01BA010C94202C1F920F920FB6D0
:1039D0000F9211240BB60F922F933F934F935F9347
:1039E0006F937F938F939F93AF93BF93EF93FF93C7
:1039F0008091B900887F803609F44DC008F040C03E
:103A0000883209F4A9C028F5803109F49DC0C8F4B2
:103A1000882309F4FBC0883009F496C0FF91EF9128
:103A2000BF91AF919F918F917F916F915F914F91D6
:103A30003F912F910F900BBE0F900FBE0F901F90D4
:103A40001895883109F488C0803241F780932904A1
:103A500014C0803409F49DC040F48033B9F3883336
:103A6000E9F68093290485ECB0C0803509F485C05F
:103A7000883509F496C0883489F60E94D817CECFCD
:103A8000883909F48CC038F5883729F050F4883625
:103A900011F0803719F683E080932B041092DE0337
:103AA00057C0883809F47BC0803919F0803809F094
:103AB000B5CF8091DE03803208F071C0E091DE0363
:103AC00081E08E0F8093DE038091BB00F0E0E25432
:103AD000FC4F80833DC0803B39F0E0F4803A09F42C
:103AE00079C0883A09F09ACF84E080932B04109231
:103AF000BD031092BC03E091DF03F091E003199540
:103B00008091BC0381110FC081E08093BC031092AF
:103B10009C0309C0803C09F4A6CF883C09F4A3CFDC
:103B2000883B09F07BCFE091BD0381E08E0F80934D
:103B3000BD03F0E0E456FC4F80818093BB00909180
:103B4000BD038091BC0329C0809106048093BB0013
:103B500085EC8093BC0062CF90912804809127046B
:103B6000981758F5E091280481E08E0F809328047F
:103B7000F0E0E95FFB4F8081E9CFE091280481E02C
:103B80008E0F809328048091BB00F0E0E95FFB4F2B
:103B9000808390912804809127049817C8F285E8C3
:103BA000D8CFE091280481E08E0F80932804809183
:103BB000BB00F0E0E95FFB4F808380912A04811114
:103BC0005CCF81E08093050484EA8093BC0010926E
:103BD0002B0424CF85EC8093BC0010922B048091A1
:103BE000DE03803230F4E091DE03F0E0E254FC4F7B
:103BF00010826091DE0370E0E091E103F091E20356
:103C00008EEB93E019951092DE0308CF10922904F1
:103C100034CF1F920F920FB60F9211242F933F9320
:103C20008F939F93AF93BF9380919303909194034D
:103C3000A0919503B09196033091920323E0230F56
:103C40002D3758F50196A11DB11D20939203809345
:103C5000930390939403A0939503B093960380915C
:103C6000970390919803A0919903B0919A030196BC
:103C7000A11DB11D8093970390939803A09399037E
:103C8000B0939A03BF91AF919F918F913F912F91E4
:103C90000F900FBE0F901F90189526E8230F0296E5
:103CA000A11DB11DD2CF1F920F920FB60F921124FA
:103CB0000BB60F922F933F934F935F936F937F9326
:103CC0008F939F93AF93BF93EF93FF938091610383
:103CD00090916203A0916303B0916403892B8A2BB6
:103CE0008B2BD1F190916003809100008927809304
:103CF00000008091610390916203A0916303B091F1
:103D00006403181619061A061B069CF480916103B9
:103D100090916203A0916303B09164030197A1099C
:103D2000B1098093610390936203A0936303B093FE
:103D30006403FF91EF91BF91AF919F918F917F911C
:103D40006F915F914F913F912F910F900BBE0F900C
:103D50000FBE0F901F90189580910002E8EFF1E0E0
:103D6000E4919FEF90930002E230E9F040F4EE23FB
:103D700089F0E13091F060E00E940C03DACFE4308A
:103D800049F110F1E530B9F7909173009D7F909360
:103D90007300F1CF10926E00EECF90916F009D7F77
:103DA00090936F00E8CF909170009D7F909370008A
:103DB00091E09093B0009091B100987F94609093BF
:103DC000B1001092B300D7CF909171009D7F909376
:103DD0007100D1CF909172009D7F90937200CBCFF4
:103DE0001F920F920FB60F9211240BB60F922F93C2
:103DF0003F934F935F936F937F938F939F93AF9373
:103E0000BF93EF93FF9381E694E00E94DD08FF915A
:103E1000EF91BF91AF919F918F917F916F915F9142
:103E20004F913F912F910F900BBE0F900FBE0F90AF
:103E30001F9018951F920F920FB60F9211240BB678
:103E40000F922F938F939F93EF93FF93E0917104C1
:103E5000F09172048081E0917704F091780482FD02
:103E60001DC0908180917A048F5F8F7320917B04B5
:103E7000821741F0E0917A04F0E0EF59FB4F958F03
:103E800080937A04FF91EF919F918F912F910F90E2
:103E90000BBE0F900FBE0F901F9018958081F2CF30
:103EA0001F920F920FB60F9211240BB60F922F9301
:103EB0003F934F935F936F937F938F939F93AF93B2
:103EC000BF93CF93DF93EF93FF9380915F03C091F4
:103ED0003A05D0E087FF23C010928500109284003D
:103EE00080915F038F5F80935F0380915F03082E53
:103EF000000C990B8C179D0724F480915F038C3084
:103F000074F1809184009091850084349C4908F478
:103F100065C08091840090918500049661C0809175
:103F20005F03082E000C990B8C179D07CCF630917F
:103F30005F0325E03203F0011124E250FB4F808142
:103F400086FFCECF30915F033203F0011124E2509F
:103F5000FB4F808160E08F730E940C03C1CF809182
:103F600084009091850030915F0325E03203F001D9
:103F70001124E250FB4F41815281840F951F909391
:103F800089008093880030915F033203F00111248F
:103F9000E250FB4F808186FF0CC030915F033203FB
:103FA000F0011124E250FB4F808161E08F730E9489
:103FB0000C03FF91EF91DF91CF91BF91AF919F9152
:103FC0008F917F916F915F914F913F912F910F90C2
:103FD0000BBE0F900FBE0F901F90189580E49CE9C8
:103FE00090938900809388008FEF80935F03E1CFE7
:103FF000109258041092570488EE93E0A0E0B0E0CD
:104000008093590490935A04A0935B04B0935C048A
:104010002BE232E03093560420935504109264044E
:10402000109263048093650490936604A0936704E0
:10403000B09368048DE392E09093620480936104EE
:1040400085EC90E090936E0480936D0484EC90E096
:104050009093700480936F0480EC90E090937204CE
:104060008093710481EC90E09093740480937304C6
:1040700082EC90E0909376048093750486EC90E057
:10408000909378048093770410927A0410927B04C2
:1040900010927C0410927D048CE08093A20584E24F
:1040A0008093A30585E08093A40596E09093A505F1
:1040B0009EE19093A6059FE19093A70592E29093CD
:1040C000A80593E29093A90594E49093AA0595E43A
:1040D0009093AB051092AD051092AC0590E49093CF
:1040E000AF051092B4051092B5051092B605109266
:1040F000B7051092B8051092B9051092BA05109242
:10410000BB0598E0E9E0F2E0A4ECB5E001900D9287
:104110009A95E1F740E050E060EA70E44093CC0506
:104120005093CD056093CE057093CF05E0913A058D
:10413000EC3008F0CCC091E09E0F90933A05E093EC
:10414000A1058E9FF0011124E250FB4F88EB9BE00C
:104150009283818388E6809392051092560510928F
:104160005705109258051092590510925A05109251
:104170005B0510925C0510925D0510925E05109231
:104180005F05109260051092610510926305109210
:1041900062051092650510926405109267051092F1
:1041A0006605109268051092690510926A051092D2
:1041B0006B0510926C0510926D0510927A051092A5
:1041C0007B0510927C0510927D0510927E05109261
:1041D0007F05109280051092810580E090E0A0EAB2
:1041E000B0E48093820590938305A0938405B093F7
:1041F000850580E090E0A8ECB2E48093860590937A
:104200008705A0938805B093890510928A051092BE
:104210008B0510928C0510928D0510928E051092D0
:104220008F051092900510929105E0913A05EC30BF
:1042300008F051C081E08E0F80933A05E093550558
:1042400085E0E89FF0011124E250FB4F88EB9BE0F2
:104250009283818384EE9BECA6E1B0EC80934905C8
:1042600090934A05A0934B05B0934C0584EE9BECCC
:10427000A6E1B0E480934D0590934E05A0934F05C1
:10428000B093500588E994ECA3E8B6E380933B052E
:1042900090933C05A0933D05B0933E0580E090E0EF
:1042A000A0E0BFE380933F0590934005A0934105B4
:1042B000B0934205109244051092430510924605B2
:1042C00010924505109248051092470508958FEF0A
:1042D0008093A1053FCF8FEF80935505BBCFCF9340
:1042E000DF93CDB7DEB7ED970FB6F894DEBF0FBE04
:1042F000CDBF789484B5826084BD84B5816084BD6F
:1043000085B5826085BD85B5816085BD80916E0073
:10431000816080936E0010928100809181008260A4
:1043200080938100809181008160809381008091E1
:1043300080008160809380008091B10084608093D0
:10434000B1008091B00081608093B00080919100B5
:1043500082608093910080919100816080939100B0
:10436000809190008160809390008091A100826094
:104370008093A1008091A10081608093A100809131
:10438000A00081608093A0008091210182608093D1
:104390002101809121018160809321018091200180
:1043A00081608093200180917A00846080937A00FC
:1043B00080917A00826080937A0080917A00816097
:1043C00080937A0080917A00806880937A001092BE
:1043D000C100E0917104F091720482E08083E09169
:1043E0006D04F0916E041082E0916F04F0917004FE
:1043F00080E1808310927904E0917504F091760455
:1044000086E08083E0917304F09174048081806180
:104410008083E0917304F0917404808188608083CC
:10442000E0917304F0917404808180688083E0914E
:104430007304F091740480818F7D808361E08091AA
:10444000A3050E94F20360E08091A3050E940C0383
:1044500060E08091A2050E94F2038091AC059091EA
:10446000AD05892BA9F486E090E00E94FB2AFC01AF
:104470008091AF05808385E594E0928381831382E8
:1044800080E290E095838483F093AD05E093AC05E2
:10449000E090AC05F090AD051092E4031092E303B8
:1044A00010923204109254040E94B3038DE592E0FE
:1044B0009093E0038093DF038EE592E09093E20314
:1044C0008093E10311E0D70113961C93C7010E946A
:1044D0007006882309F45BC080E090E1A0E0B0E0C2
:1044E0008093B0059093B105A093B205B093B30546
:1044F0008AE090E0A0E0B0E08093B4059093B50529
:10450000A093B605B093B70580E090E0A0E0B0E4DA
:104510008093B8059093B905A093BA05B093BB05F5
:104520008091AC059091AD051FA618AA19AA1AAAE8
:1045300099A388A31BA21AA219A785E090E09FA3C4
:104540008EA31AA702E008A740E050E160E070E007
:10455000CE0180960E94E6068091AC059091AD0553
:10456000188A198A1A8A1B8A9A8389831C821B8259
:104570001A8718861F821B8709874FE959E360E075
:1045800070E0CE0101960E94E6068093AE0544EAF3
:10459000E42E45E0F42E02EA15E056EAA52E55E099
:1045A000B52E62E6462E62E0562E78EA672E72E05D
:1045B000772EEBECCE2EE7E0DE2EFBE88F2E992453
:1045C0009394F7019281D7018D917D01F801828F3B
:1045D000938F61E00E94F20361E0D8015B968C91B9
:1045E0000E94F203F70195818381D8015E968C9336
:1045F0005E975F969C9361E00E94F20360E0F80191
:10460000878D0E94F20361E0D8015E968C910E9432
:104610000C033FB6F89480916503811125C0F20127
:104620008491F3019491E82FF0E0EE0FFF1FE75023
:10463000FE4FA591B4918C91982321F461E085E31C
:104640000E940C0361E085E30E94F2038CB5806157
:104650008CBD8CB580648CBD61E084E30E94F20364
:1046600061E083E30E94F203809165038F5F809392
:1046700065033FBEC6010197F1F760E0D8015E9681
:104680008C910E940C0388E80E94930A83E00E94A8
:10469000930A61E0F801868D0E940C03C601019720
:1046A000F1F760E0D8015E968C910E940C0388E9D6
:1046B0000E94930A80E00E94930A80E00E94930A7D
:1046C00080E00E94930A80E00E94930A61E0F80172
:1046D000868D0E940C03C4010197F1F760E0D801B8
:1046E0005E968C910E940C0380EE0E94930A61E01A
:1046F000F801868D0E940C030E5F1F4FA016B106B5
:1047000009F05FCF01E023E042E06BE68091920583
:104710000E94B11100E022E044E06BE1809192053B
:104720000E94B11122E044E06CE1809192050E9468
:10473000B111D090920508EE13E0BE016F5F7F4F7C
:104740007B019B0141E06BE68D2D0E940611898162
:104750008F7B89838FABAE01495C5F4F6BE68D2DFC
:104760000E94A90660E084E00E94F2038091550552
:104770008C3008F047C061E088E00E94F20380912D
:10478000550575E0879FF0011124E250FB4F9081A1
:10479000907C98609083138214822CE0622F0E9498
:1047A000B929829FB001112430E020E095E0AB01EF
:1047B000420F531F949FF001959FF00D1124E2507A
:1047C000FB4F408146FD13C02F5F3F4F2C3031051A
:1047D00071F781110CC01092800082E080938100FB
:1047E000109285001092840086BB80936F00E09148
:1047F000550585E0E89FF0011124E250FB4F8081D0
:104800008064808380E090E0A0E8BEE3809356055A
:1048100090935705A0935805B09359058DEC9CECE7
:10482000ACECBDE380935A0590935B05A0935C05C7
:10483000B0935D0510925E0510925F0510926005C1
:10484000109261058FE692E1A3E8BAE380938205B6
:1048500090938305A0938405B093850588EC90E040
:10486000A0E0B0E08093720590937305A093740567
:10487000B09375058DEC9CECACE4BEE380936E05C3
:1048800090936F05A0937005B093710582E698E050
:1048900090936305809362058EEF93E19093650595
:1048A000809364051E0196E0290E311CDE015196AD
:1048B000B9AFA8AF0E9456082091900330919103A0
:1048C000621B730B810991096333710581059105A1
:1048D00008F4F2C1E1E0F2E0FA83E9831B821D8271
:1048E0001C823F8A2E8A188E84E0898F8FEF8A8FF0
:1048F0001F8E0E9456084B015C01F9A2E8A26EEAE5
:1049000072E07BA36AA3CE0180960E946B1C8C018F
:10491000009781F0B7010E94F50ED80114968C9192
:1049200014978078886014968C93F8018082918225
:10493000A282B38280915105909152050E94B501E7
:1049400068A379A38AA39BA3FCAAEBAA64EB72E0F9
:104950007EAB6DABBE01605E7F4FCE01C3960E9401
:10496000A91C80915105909152050E94B5014B01FF
:104970005C0180915305909154050E94B5019B0103
:10498000AC01C501B4010E94E12968A379A38AA3FF
:104990009BA3FCAAEBAA83EB92E09EAB8DABBE017E
:1049A000605E7F4FCE01C3960E94A91C809168056E
:1049B00090916905A0916A05B0916B0588A399A3B0
:1049C000AAA3BBA3FCAAEBAA80EC92E09EAB8DABA2
:1049D000BE01605E7F4FCE01C3960E94A91C0E945B
:1049E000681368A379A38AA39BA3FCAAEBAA85EC0E
:1049F00092E09EAB8DABBE01605E7F4FCE01C39651
:104A00000E94A91C0E94F11268A379A38AA39BA308
:104A1000FCAAEBAA8DEC92E09EAB8DABBE01605E72
:104A20007F4FCE01C3960E94A91C08EE13E023E934
:104A300035E042E06BE3809192050E94061160919F
:104A4000930570919405762767277627072E000C2B
:104A5000880B990B0E94392820E030E040E858E3A9
:104A60000E94982868A379A38AA39BA3FCAAEBAA17
:104A700085ED92E09EAB8DABBE01605E7F4FCE01B7
:104A8000C3960E94A91C23E935E042E06DE38091C2
:104A900092050E9406116091930570919405762706
:104AA00067277627072E000C880B990B0E94392860
:104AB00020E030E040E858E30E94982868A379A3FA
:104AC0008AA39BA3FCAAEBAA8CED92E09EAB8DABD4
:104AD000BE01605E7F4FCE01C3960E94A91C23E9F0
:104AE00035E042E06FE3809192050E9406116091EB
:104AF000930570919405762767277627072E000C7B
:104B0000880B990B0E94392820E030E040E858E3F8
:104B10000E94982868A379A38AA39BA3FCAAEBAA66
:104B200083EE92E09EAB8DABBE01605E7F4FCE0107
:104B3000C3960E94A91C6091430570914405809121
:104B4000450590914605681B790B072E000C880BD4
:104B5000990B0E94392820913B0530913C054091EA
:104B60003D0550913E050E94982868A379A38AA329
:104B70009BA3FCAAEBAA8AEE92E09EAB8DABBE0192
:104B8000605E7F4FCE01C3960E94A91CD0906D0538
:104B9000F9A2E8A281EF92E09BA38AA3CE018096BE
:104BA0000E946B1C8C01009769F0B7010E94F50E02
:104BB000D80114968C9114978078866014968C9303
:104BC0001497DC9260917605709177058091780555
:104BD000909179050E94372868A379A38AA39BA3A3
:104BE000FCAAEBAA88EF92E09EAB8DABBE01605EA3
:104BF0007F4FCE01C3960E94A91CF9A2E8A283E0D0
:104C000093E09BA38AA3CE0180960E946B1C8C012B
:104C1000009781F0B7010E94F50EF8018481807839
:104C20008A60848362E070E080E090E0608371835A
:104C3000828393830E94681368A379A38AA39BA3AA
:104C4000FCAAEBAA85EC92E09EAB8DABBE01605E48
:104C50007F4FCE01C3960E94A91C0E94F11268A347
:104C600079A38AA39BA3FCAAEBAA8DEC92E09EAB4E
:104C70008DABBE01605E7F4FCE01C3960E94A91C22
:104C800081E694E099A388A31BA21AA2FDA2ECA23C
:104C9000BE01605E7F4FCE014B960E94FD148AE8F4
:104CA00092E00E940414C7010E94AC0E0E945608B4
:104CB0007093910360939003609143057091440554
:104CC000072E000C880B990B0E94392820913B0578
:104CD00030913C0540913D0550913E050E94982839
:104CE00020913F053091400540914105509142058A
:104CF0000E94E22920E030E0A9010E9432284DEC18
:104D00005CEC6CEC7DE387FD04C04DEC5CEC6CEC82
:104D10007DEB8CEB95E00E946C0980917B00877F96
:104D200080937B0084E480937C0080917A0080648F
:104D300080937A0080917A0086FDFCCF8091780084
:104D4000909179002091510530915205309354058E
:104D500020935305909352058093510560E0809114
:104D6000C0050E940C0380E60E94930A6701870138
:104D700080E00E94930A90E0B0E0A0E0F801819307
:104D80009193A193B1938F0168AD79AD6E177F07B1
:104D900079F761E08091C0050E940C0380E090E00B
:104DA000DC01F60141915191619171916F01BA2F2E
:104DB000A92F982F8827840F951FA61FB71FE017CC
:104DC000F10779F72091430530914405409145055D
:104DD00050914605B901641B750B709348056093AB
:104DE00047053093460520934505909344058093ED
:104DF00043050E94560800917A0510917B05209189
:104E00007C0530917D05601771078207930708F4D0
:104E10005BC080916C05882309F456C00E94560837
:104E200000917205109173052091740530917505FC
:104E3000DC01CB01800F911FA21FB31F80937A0565
:104E400090937B05A0937C05B0937D0580906805C9
:104E500090906905A0906A05B0906B05E09162059D
:104E6000F091630519959B01AC01C501B4010E9445
:104E7000E1294B015C019F772091820530918305E8
:104E800040918405509185050E94322887FF1FC0FC
:104E900081E080936D0510926C05E0916605F091BC
:104EA0006705309709F0199580917A0590917B05F7
:104EB000A0917C05B0917D0580937E0590937F0540
:104EC000A0938005B09381050E943E1CF3CC009115
:104ED0006405109165050E94560840907E0550902B
:104EE0007F056090800570908105641975098609B9
:104EF0009709609376057093770580937805909372
:104F0000790520918A0530918B0540918C0550914F
:104F10008D05C501B4010E94E22960938A05709352
:104F20008B0580938C0590938D054090860550905D
:104F300087056090880570908905A30192010E9401
:104F4000F62A181644F440928A0550928B05609216
:104F50008C0570928D0577FA709477F87094A301A0
:104F6000920160918A0570918B0580918C059091DA
:104F70008D050E94322887FF08C040928A05509212
:104F80008B0560928C0570928D0540906E05509057
:104F90006F05609070057090710520918A053091C1
:104FA0008B0540918C0550918D0560915A0570914B
:104FB0005B0580915C0590915D050E949828A30196
:104FC00092010E9498286AAF7BAF8CAF9DAF209171
:104FD0005605309157054091580550915905C50126
:104FE000B4010E9498289B01AC016AAD7BAD8CADE9
:104FF0009DAD0E94E2296AAF7BAF8CAF9DAF20913F
:105000008E0530918F054091900550919105C50115
:10501000B4010E94E12920915E0530915F05409125
:105020006005509161050E949828A30192010E9499
:105030004E2A9B01AC016AAD7BAD8CAD9DAD0E944B
:10504000E22980928E0590928F05A0929005B092F1
:105050009105F801199528CF8091AC059091AD0587
:105060000C94972B0E94742808F481E00895E8942A
:1050700009C097FB3EF490958095709561957F4FA0
:105080008F4F9F4F9923A9F0F92F96E9BB2793954E
:10509000F695879577956795B795F111F8CFFAF45E
:1050A000BB0F11F460FF1BC06F5F7F4F8F4F9F4F8F
:1050B00016C0882311F096E911C0772321F09EE8ED
:1050C000872F762F05C0662371F096E8862F70E053
:1050D00060E02AF09A95660F771F881FDAF7880F2D
:1050E0009695879597F90895990F0008550FAA0B83
:1050F000E0E8FEEF16161706E807F907C0F01216EB
:105100001306E407F50798F0621B730B840B950BED
:1051100039F40A2661F0232B242B252B21F4089542
:105120000A2609F4A140A6958FEF811D811D0895DF
:105130000E94AB280C941C290E940E2938F00E9472
:10514000152920F0952311F00C9405290C940B29B6
:1051500011240C9450290E942D2970F3959FC1F3BE
:10516000950F50E0551F629FF001729FBB27F00D15
:10517000B11D639FAA27F00DB11DAA1F649F66276A
:10518000B00DA11D661F829F2227B00DA11D621FB9
:10519000739FB00DA11D621F839FA00D611D221F73
:1051A000749F3327A00D611D231F849F600D211D57
:1051B000822F762F6A2F11249F5750409AF0F1F0DA
:1051C00088234AF0EE0FFF1FBB1F661F771F881F43
:1051D00091505040A9F79E3F510580F00C9405294D
:1051E0000C9450295F3FE4F3983ED4F3869577956D
:1051F0006795B795F795E7959F5FC1F7FE2B880FE9
:10520000911D9695879597F9089597F99F6780E87E
:1052100070E060E008959FEF80EC089500240A9408
:105220001616170618060906089500240A94121681
:105230001306140605060895092E0394000C11F4B4
:10524000882352F0BB0F40F4BF2B11F460FF04C061
:105250006F5F7F4F8F4F9F4F089557FD9058440FBA
:10526000551F59F05F3F71F04795880F97FB991FC5
:1052700061F09F3F79F08795089512161306140682
:10528000551FF2CF4695F1DF08C01616170618060F
:10529000991FF1CF86957105610508940895E894EA
:1052A000BB2766277727CB0197F90895052E97FB33
:1052B0001EF400940E946D2957FD07D00E94882992
:1052C00007FC03D04EF40C946D2950954095309511
:1052D00021953F4F4F4F5F4F089590958095709562
:1052E00061957F4F8F4F9F4F08950E94AA29A59FD8
:1052F000900DB49F900DA49F800D911D11240895D1
:10530000B7FF0C9475290E947529821B930B089591
:10531000A1E21A2EAA1BBB1BFD010DC0AA1FBB1FB9
:10532000EE1FFF1FA217B307E407F50720F0A21B2B
:10533000B30BE40BF50B661F771F881F991F1A9498
:1053400069F760957095809590959B01AC01BD01C2
:10535000CF010895A29FB001B39FC001A39F700D1C
:10536000811D1124911DB29F700D811D1124911D6D
:105370000895991B79E004C0991F961708F0961BB1
:10538000881F7A95C9F780950895AA1BBB1B51E128
:1053900007C0AA1FBB1FA617B70710F0A61BB70BA5
:1053A000881F991F5A95A9F780959095BC01CD014A
:1053B0000895EE0FFF1F881F8BBF0790F691E02D19
:1053C00019945058BB27AA270E94F9290C941C292C
:1053D0000E940E2938F00E94152920F039F49F3FD1
:1053E00019F426F40C940B290EF4E095E7FB0C94C9
:1053F0000529E92F0E942D2958F3BA176207730770
:105400008407950720F079F4A6F50C944F290EF443
:10541000E0950B2EBA2FA02D0B01B90190010C01C4
:10542000CA01A0011124FF27591B99F0593F50F4DC
:10543000503E68F11A16F040A22F232F342F442734
:10544000585FF3CF469537952795A795F04053952C
:10545000C9F77EF41F16BA0B620B730B840BBAF0FC
:105460009150A1F0FF0FBB1F661F771F881FC2F767
:105470000EC0BA0F621F731F841F48F4879577957B
:105480006795B795F7959E3F08F0B0CF9395880F35
:1054900008F09927EE0F9795879508950E94622A44
:1054A0000C941C290E94152958F00E940E2940F0E6
:1054B00029F45F3F29F00C94052951110C945029CF
:1054C0000C940B290E942D2968F39923B1F35523DD
:1054D00091F3951B550BBB27AA2762177307840707
:1054E00038F09F5F5F4F220F331F441FAA1FA9F39D
:1054F00035D00E2E3AF0E0E832D091505040E6958B
:10550000001CCAF72BD0FE2F29D0660F771F881FEB
:10551000BB1F261737074807AB07B0E809F0BB0BDE
:10552000802DBF01FF2793585F4F3AF09E3F5105F2
:1055300078F00C9405290C9450295F3FE4F3983ED1
:10554000D4F3869577956795B795F7959F5FC9F7DB
:10555000880F911D9695879597F90895E1E0660F5C
:10556000771F881FBB1F621773078407BA0720F0D5
:10557000621B730B840BBA0BEE1F88F7E09508953E
:105580000E94C72A6894B1110C94502908950E9472
:10559000352988F09F5798F0B92F9927B751B0F067
:1055A000E1F0660F771F881F991F1AF0BA95C9F7A7
:1055B00014C0B13091F00E944F29B1E008950C94CD
:1055C0004F29672F782F8827B85F39F0B93FCCF380
:1055D000869577956795B395D9F73EF49095809524
:1055E000709561957F4F8F4F9F4F08950E9474284B
:1055F00008F48FEF08950F931F93CF93DF938230BA
:10560000910510F482E090E0E091D205F091D3058D
:1056100030E020E0B0E0A0E0309799F421153105AA
:1056200009F44AC0281B390B24303105D8F58A818A
:105630009B816115710589F1FB0193838283FE01D2
:1056400011C0408151810281138148175907E0F050
:105650004817590799F4109761F012960C93129716
:1056600013961C933296CF01DF91CF911F910F912A
:1056700008950093D2051093D305F4CF2115310579
:1056800051F04217530738F0A901DB019A01BD011F
:10569000DF01F801C1CFEF01F9CF9093D3058093DB
:1056A000D205CDCFFE01E20FF31F819391932250DB
:1056B000310939832883D7CF2091D0053091D10586
:1056C000232B41F420910502309106023093D1053D
:1056D0002093D00520910302309104022115310559
:1056E00041F42DB73EB74091070250910802241BA8
:1056F000350BE091D005F091D105E217F307A0F446
:105700002E1B3F0B2817390778F0AC014E5F5F4F17
:105710002417350748F04E0F5F1F5093D105409373
:10572000D005819391939FCFF0E0E0E09CCFCF93A1
:10573000DF930097E9F0FC01329713821282A09167
:10574000D205B091D305ED0130E020E01097A1F42F
:1057500020813181820F931F2091D0053091D10596
:105760002817390709F061C0F093D105E093D005FF
:10577000DF91CF910895EA01CE17DF07E8F54A815E
:105780005B819E0141155105B1F7E901FB83EA8375
:1057900049915991C40FD51FEC17FD0761F4808121
:1057A00091810296840F951FE901998388838281F4
:1057B00093819B838A83F0E0E0E012968D919C9127
:1057C00013970097B9F52D913C911197CD01029651
:1057D000820F931F2091D0053091D10528173907EA
:1057E00039F6309751F51092D3051092D205B09347
:1057F000D105A093D005BCCFD383C2834081518112
:10580000840F951FC817D90761F44E5F5F4F8881D9
:105810009981480F591F518340838A819B819383CB
:1058200082832115310509F0B0CFF093D305E093C1
:10583000D2059ECFFD01DC01C0CF13821282D7CFEB
:105840004F925F926F927F928F929F92AF92BF9290
:10585000CF92DF92EF92FF920F931F93CF93DF933C
:105860008C01009799F4CB01DF91CF911F910F919B
:10587000FF90EF90DF90CF90BF90AF909F908F9070
:105880007F906F905F904F900C94FB2AFC01E60F85
:10589000F71F9C0122503109E217F30708F4AEC04C
:1058A000D901CD91DC911197C617D70720F1C530EA
:1058B000D10578F0CE0104978617970750F0C61BE4
:1058C000D70B2297C193D1936D937C93CF010E9404
:1058D000972BC801DF91CF911F910F91FF90EF900F
:1058E000DF90CF90BF90AF909F908F907F906F9000
:1058F0005F904F9008955B01AC1ABD0A4C018C0E6D
:105900009D1EA091D205B091D305512C412CF12CB4
:10591000E12C109731F58091D0059091D105881533
:10592000990509F05CC04616570608F058C08091EA
:10593000030290910402009741F48DB79EB7409105
:10594000070250910802841B950BE817F90708F02D
:1059500055C0F093D105E093D005F90171836083C0
:10596000B8CF8D919C91119712966C9012971396C7
:105970007C901397A815B90559F56C0142E0C40E47
:10598000D11CCA14DB0420F1AC014A195B09DA010D
:105990001296159780F06282738251834083D901F9
:1059A0006D937C93E114F10471F0D7011396FC938D
:1059B000EE9312978ECF22968C0F9D1FF901918343
:1059C0008083F301EFCFF093D305E093D20581CF2D
:1059D0004816590608F42C017D01D3019ACFCB015A
:1059E0000E94FB2A7C01009749F0AE01B8010E9499
:1059F000012DC8010E94972B87016BCF10E000E0BA
:105A000068CFFB01DC0102C001900D924150504073
:105A1000D8F7089511E0C1E8D1E000E006C0802F7A
:105A2000FE010E94D9292196011DC238D10780E0CC
:085A30000807A9F7F894FFCF65
:105A3800FF15020000D40580003000310032003329
:105A4800000000000010181318E11C09030C0317CC
:105A580003270334033D0300000000DD02B0029376
:105A6800088602A9029602870200000000FF086665
:105A78000896084C09C708A508B9082F2F22225CE8
:105A88005C6208660C6E0A720D7409005C75303031
:105A98003030006E756C6C00747275650066616CF0
:105AA800736500646573657269616C697A65282934
:105AB800206661696C65643A20000D0A007365749C
:105AC80050494400636F6D6D616E64007374617258
