:100000000C94D8010C9409020C9409020C94090276
:100010000C9409020C9409020C9409020C94090234
:100020000C9409020C9409020C9409020C94090224
:100030000C9409020C94371F0C9409020C940902C9
:100040000C9409020C9434200C9409020C940902BB
:100050000C9409020C9409020C9409020C94ED1EF4
:100060000C9409020C94FE1F0C94D41F0C940902EA
:100070000C9409020C9409020C9409020C940902D4
:100080000C9409020C9409020C9409020C940902C4
:100090000C9409020C9409020C9409020C94C91DD9
:1000A0000C9409020C9409020C9409020C940902A4
:1000B0000C9409020C9409020C9409020C94090294
:1000C0000C9409020C9409020C9409020C94090284
:1000D0000C9409020C9409020C9409020C94090274
:1000E0000C94090205A84CCDB2D44EB93836A902F9
:1000F0000C50B9918688083CA6AAAA2ABE00000026
:10010000803F0C94EE0A0C941C0B0C94152D0C944F
:100110009C030C948E020C94F7280C94530B0C94B3
:1001200092030C94A0030C94B9280C94DC200C943A
:10013000E90A0C94E0070C94260B0C949C2D0C946B
:100140002C2D0C9463290C9465030C945B030C9484
:1001500069030C947A030C9417290C94F80A0C94F4
:1001600033080C941F080C94020B0C94F80C0C949C
:10017000AE2D0C9438280C94CE070C94C6080C9421
:1001800034180C940C0B0C94670B0C9479080C9499
:10019000490B0C9470030C94D80A0C9476030C94BD
:1001A00096030C946D030C9461030C941A2D0C941B
:1001B000B8020C94B7020C940F2D0C94DA020C9434
:1001C00041080C94882C0C945D0B0C9480030C94C7
:1001D000280D0C940E030C94D7070C943A0B0C9436
:1001E00088030C94C7020C948F020C945C2D0C9421
:1001F000710B0C94140B0C9410080C9453280C9451
:1002000033290C94A12D0C941D0D0C9403180C94FF
:100210007B0B0C94F82C0C94AC2C0C943B290C9478
:10022000E1020C944D2C0C940D080C948E030C944C
:10023000DA2C0C9404290C940F0D0C94742C0C944F
:10024000202D0C949B030C9484030C9455140C9453
:100250004E140C9470180C94300BCDCCCC3D0AD7B6
:10026000233C17B7D13877CC2B329595E6241FB1B4
:100270004F0A000020410000C84200401C4620BC3C
:10028000BE4CCA1B0E5AAEC59D740200002100244C
:100290000027002A002D0030003300010100000477
:1002A0000107010A0100002200250028002B002E72
:1002B000003100340002010000050108010B0100BB
:1002C0000020002300260029002C002F003200000F
:1002D00001000003010601090105050505070508E0
:1002E000080808020202020A0A08080404040401B9
:1002F00001010101010101030303030303030304DB
:100300000707070C0C0C0C0C0C0C0C02020202066A
:10031000060606060606060B0B0B0B0B0B0B0B015A
:100320000210202008081020401020408002010206
:1003300001080402010102040810204080804020CE
:100340001008040201800402018040201008040209
:100350000108040201010204081020408001020487
:10036000081020408000000A0B02090C0D0E08073F
:100370000304010000000000000000000000000075
:10038000000000000000000000000000000000006D
:10039000001211100000000000000000000000002A
:1003A000000000000000000000000000DC20AE2D76
:1003B00011241FBECFEFD1E2DEBFCDBF00E00CBFE6
:1003C00012E0A0E0B2E0E0EBF6E600E00BBF02C016
:1003D00007900D92A63EB107D9F725E0A6EEB2E050
:1003E00001C01D92A13DB207E1F711E0C7EDD1E0D8
:1003F00000E006C021970109802FFE010E94632FB3
:10040000C63DD10780E00807A9F70E9432230C946B
:1004100046330C940000CF92DF92EF92FF92CF937D
:10042000DF93C0919E05CC3008F040C025E0C29F0C
:10043000E0011124CE57DB4F2B8138E8C32ED12C9D
:10044000C21AD10827FDD394CC0CDD1CCC0CDD1CCA
:100450000D2C000CEE08FF084C8128E532E0241B2F
:10046000310947FD3395220F331F220F331F032E0F
:10047000000C440B550B2C193D094E095F09DC019A
:100480000E940A2F24EB30E040E050E00E94E02E72
:10049000C20ED31EE41EF51E8FB7F89496E0C91A5B
:1004A000D108CC0CDD1CDA82C9828FBFDF91CF91DD
:1004B000FF90EF90DF90CF900895CF93DF93EC0102
:1004C00088819981DC01ED91FC910190F081E02D12
:1004D00064E270E01995009741F02FE1FC0123835D
:1004E00021E02283DF91CF91089521E02A83FACF82
:1004F00080917B00877F80937B0087E480937C00E2
:1005000080917A00806480937A0080917A0086FDE1
:10051000FCCF809178009091790008950895089516
:1005200020914003260F3327331F21323105ECF48D
:100530002091AF03FC0190E080E0243069F082E07C
:100540000895A09140032191AC01405E5C4FA40F3F
:10055000B52FB11D2C930196861798F38091400317
:10056000680F6093400380E0089581E00895089546
:10057000E091880380918703E81730F4F0E0ED59AB
:10058000FC4F808190E008958FEF9FEF0895909148
:100590008803809187032FEF3FEF981748F4E92FE6
:1005A000F0E0ED59FC4F208130E09F5F909388038D
:1005B000C90108958091870390918803891B990B45
:1005C0000895CF92DF92EF92FF920F931F93CF93F4
:1005D000DF937C01CB018A012091B503222389F0AE
:1005E000EB016B01C40ED51ECC15DD0569F06991D8
:1005F000D701ED91FC910190F081E02DC701199593
:10060000F3CF642F0E949002C801DF91CF911F9118
:100610000F91FF90EF90DF90CF900895CF93DF93ED
:100620001F92CDB7DEB769832091B5032223F9F07D
:100630002091D803203258F021E030E0FC013383D0
:10064000228390E080E00F90DF91CF910895809118
:10065000B603E82FF0E0E954FC4F998190838F5F57
:100660008093B6038093D80381E090E0ECCF61E003
:10067000CE0101960E949002F7CF8150823108F09E
:100680005AC0E82FF0E08827E75BFC4F8F4F0C94AF
:10069000632F69036D035B03610365039B037003B1
:1006A00076037A038003840388038E0392039B03FB
:1006B00096039C03A003809180008F778093800035
:1006C0000895809180008F7DF9CF80918000877F91
:1006D000F5CF84B58F7784BD089584B58F7DFBCF2A
:1006E0008091B0008F778093B00008958091B00022
:1006F0008F7DF9CF809190008F778093900008953F
:10070000809190008F7DF9CF80919000877FF5CF09
:100710008091A0008F778093A00008958091A00021
:100720008F7DF9CF8091A000877FF5CF8091200148
:100730008F77809320010895809120018F7DF9CFDC
:1007400080912001877FF5CFCF93DF93282F30E072
:10075000F901EB59FC4F8491F901E15EFC4FD49112
:10076000F901E752FD4FC491CC23A1F081110E9401
:100770003D03EC2FF0E0EE0FFF1FE154FD4FA5917C
:10078000B491EC91ED2381E090E009F480E0DF91F9
:10079000CF91089580E090E0FACF1F93CF93DF933D
:1007A000282F30E0F901EB59FC4F8491F901E15E0B
:1007B000FC4FD491F901E752FD4FC491CC23A9F02D
:1007C000162F81110E943D03EC2FF0E0EE0FFF1F6A
:1007D000EB55FD4FA591B4918FB7F894EC911111A1
:1007E00008C0D095DE23DC938FBFDF91CF911F919E
:1007F0000895DE2BF8CFFC0183858F3F19F061E06F
:100800000C94CD030895FC0180819181892B39F0EE
:10081000A281B3819C9111968C919CBD8DBD8385E5
:100820008F3F19F060E00C94CD0308951092AF0350
:1008300081E08093AE031092890361E084E10E941D
:10084000CD0361E085E10E94CD03E9EBF0E080811A
:100850008E7F808380818D7F808388E48093B80041
:1008600085E48093BC000895CF93DF9391E090934B
:100870001F038823B9F0C091B800D091BA008091CD
:10088000BC008A7B8093BC0060E084E10E94CD03C1
:1008900060E085E10E94CD030E941604D093BA0067
:1008A000C093B800DF91CF910895CF93DF9390E08C
:1008B000FC01E15EFC4F249187529D4FFC01849125
:1008C0008823D1F090E0880F991FFC01E557FD4F78
:1008D000A591B491FC01EB55FD4FC591D4916111E7
:1008E0000EC09FB7F8948C91E22FE0958E238C93E5
:1008F0002881E223E8839FBFDF91CF9108958FB7CE
:10090000F894EC91E22BEC938FBFF6CF82309105F7
:1009100038F0880F991F880F991F05970197F1F7F5
:100920000895AF92BF92CF92DF92EF92FF920F9312
:100930001F93CF93DF93EC0188819981892B89F0F4
:100940006EBD0DB407FEFDCFBEB48B2DDF91CF91F0
:100950001F910F91FF90EF90DF90CF90BF90AF90DD
:1009600008958885998511E0892B09F010E8AA245B
:10097000A394862F812309F0A12C062F2C813D8181
:100980004E815F8160E271EA87E090E00E94122F61
:10099000F22EB02EE12CC22ED12CFF2019F0C60170
:1009A0000E9486048A85877F09F042C08D858F3F2B
:1009B00089F0902F912381E009F480E08A1551F0AD
:1009C000EF85F8898F89992369F19081892B80833C
:1009D000AA24A394E989FA898081998D892B80833F
:1009E000FF2019F0C6010E9486048E858F3F39F0E2
:1009F000EB89FC898081988D892309F0E12AE989B6
:100A0000FA899081898D8095892380838E858F3F97
:100A100009F0BE2C88859985892BB9F5110F111124
:100A2000BCCF93CF9081809589238083A12CD2CF96
:100A3000E989FA898081998D892B8083FF2019F0BB
:100A4000C6010E9486048D858F3F49F0EF85F889A5
:100A50008F89902F9123A9F09081892B8083E98938
:100A6000FA899081898D8095892380838E858F3F37
:100A700069F2EB89FC898081988D892339F2E12A1A
:100A8000C5CF908180958923E9CF1695C8CF8F92E5
:100A90009F92AF92BF92CF92DF92EF92FF920F930D
:100AA0001F93CF93DF937C014B016A01B22EA32EDB
:100AB0000E940304E401C80CD91CCC15DD0569F4BF
:100AC000CB2DDA2D0C0F1D1FC017D10759F06FEF7A
:100AD000C7010E9491048993F7CF6991C7010E94D1
:100AE0009104EBCFC7010E94FB0381E0DF91CF911E
:100AF0001F910F91FF90EF90DF90CF90BF90AF903C
:100B00009F908F9008958F929F92AF92BF92CF92B5
:100B1000DF92EF92FF920F931F93CF93DF937C01AD
:100B2000B62EA72E6A0149010E940304E401080DB4
:100B3000191DC017D10761F4CB2DDA2DCC0EDD1EA7
:100B4000CC15DD0551F06991C7010E949104F8CFE1
:100B50006991C7010E949104ECCFC7010E94FB0379
:100B600081E0DF91CF911F910F91FF90EF90DF9087
:100B7000CF90BF90AF909F908F9008953FB7F8941B
:100B800080911B0390911C03A0911D03B0911E0343
:100B900026B5A89B05C02F3F19F00196A11DB11DD8
:100BA0003FBFBA2FA92F982F8827BC01CD01620F14
:100BB000711D811D911D42E0660F771F881F991FCF
:100BC0004A95D1F708958F929F92AF92BF92CF929C
:100BD000DF92EF92FF920F931F93CF93DF93D09109
:100BE000D803D13208F0D7C0182FC091D7030E9484
:100BF000BE056B017C018091AF0381116BC082E067
:100C00008093AF031093AE038FEF8093AD031092E8
:100C1000AC03D093AB03A7EBB3E0EBE8F3E080E0E9
:100C2000D81391C010928A0380918A03CC0FC82BED
:100C3000C0938A0380918903813009F088C01092A3
:100C400089030E94BE056B017C0180918A03809319
:100C5000BB008091B1039091B203A091B303B09116
:100C6000B403892B8A2B8B2BA1F00E94BE05009127
:100C7000B1031091B2032091B3033091B4036C1906
:100C80007D098E099F09061717072807390708F4F9
:100C900042C08091BC0083FDD8CF85EC8093BC001E
:100CA0000E94BE056B017C018091AF03823009F484
:100CB00050C08091AD038F3F09F46FC08091AD03A8
:100CC000803209F46CC08091AD03803309F469C0AF
:100CD00084E026C08091B1039091B203A091B30348
:100CE000B091B403892B8A2B8B2B09F484CF0E94FB
:100CF000BE058090B1039090B203A090B303B09072
:100D0000B4036C197D098E099F0986169706A806FB
:100D1000B90608F070CF8091B0030E94340485E0DA
:100D20001092B6031092D8031092B503DF91CF91C1
:100D30001F910F91FF90EF90DF90CF90BF90AF90F9
:100D40009F908F9008959D9191938F5F69CF85EECD
:100D5000A5CF8091B1039091B203A091B303B0915C
:100D6000B403892B8A2B8B2B09F49ECF0E94BE05DE
:100D70000091B1031091B2032091B3033091B403F9
:100D80006C197D098E099F0906171707280739076F
:100D900008F08ACFC0CF81E0C3CF80E0C1CF82E02E
:100DA000BFCF83E0BDCF1F93CF93DF93EA01122F14
:100DB000DC0111968D919C91DC01ED91FC910280FA
:100DC000F381E02D1995C817D90729F4812F0E94C6
:100DD000E30591E0811190E0892FDF91CF911F9180
:100DE0000895CF92DF92EF92FF920F931F93CF93CC
:100DF000DF931F921F92CDB7DEB7FC014787508B60
:100E0000618B728B8285882371F14487452F562F21
:100E1000672F7727882349F143877F018BE0E80E0E
:100E2000F11C9681878199838A83C080D180C11407
:100E3000D10409F443C0018510E098012E5F3F4FB3
:100E4000D60114968D919C918217930780F480E0CF
:100E50000F900F90DF91CF911F910F91FF90EF9026
:100E6000DF90CF9008954387D1CF4487D6CFF60146
:100E700081819281208131E03093B5032093D703A3
:100E80001092B6031092D8030115110541F421E028
:100E900042E050E0B701C6010E94D306D9CFDC0181
:100EA000ED91FC910280F381E02DA801BE016F5FFE
:100EB0007F4F19950817190751F6E9CFA281B38121
:100EC000109729F224813581018510E02330310506
:100ED00079F48E7F89839A830F5F1F4F9E012F5F66
:100EE0003F4F42E050E0B701CD010E948305B0CFF3
:100EF0002115310519F49F779983F0CF2230310500
:100F000011F49068F9CF2130310541F79F77906453
:100F1000F3CFCF93DF93EC018B818823A1F08881FD
:100F200091E09093B5038093D7031092B60310928B
:100F3000D80381E00E94E30591E0811190E0892FC0
:100F4000DF91CF9108951092880310928703109239
:100F5000B6031092D8030E9416048EE892E0909394
:100F60008403809383038FE892E0909386038093B9
:100F7000850381E08B83CE010E948907982F811120
:100F8000CECFDDCF2FB7F89460911703709118037F
:100F90008091190390911A032FBF08956091E9047D
:100FA0007091EA048091EB049091EC0408956091B3
:100FB000E5047091E6048091E7049091E8040895B7
:100FC000AF92BF92CF92DF92EF92FF920F931F9357
:100FD000CF93DF936C017B018B01040F151FEB0195
:100FE0005E01AE18BF08C017D10759F06991D6014C
:100FF000ED91FC910190F081E02DC6011995892BAE
:1010000079F7C501DF91CF911F910F91FF90EF907C
:10101000DF90CF90BF90AF90089590E080E008956A
:10102000FC01538D448D252F30E0842F90E0821BEE
:10103000930B541710F0CF96089501970895FC0173
:10104000918D828D981761F0A28DAE0FBF2FB11DCB
:101050005D968C91928D9F5F9F73928F90E0089523
:101060008FEF9FEF0895FC01918D828D981731F0DD
:10107000828DE80FF11D858D90E008958FEF9FEF31
:101080000895FC01918D228D892F90E0805C9F4F07
:10109000821B91098F739927089585EE93E00E9432
:1010A000410821E0892B09F420E0822F0895FC01FA
:1010B000A48DA80FB92FB11DA35ABF4F2C91848DB9
:1010C00090E001968F739927848FA689B7892C9316
:1010D000A089B1898C91837080648C93938D848D69
:1010E000981306C00288F389E02D80818F7D80836C
:1010F0000895EF92FF920F931F93CF93DF93EC012C
:1011000081E0888F9B8D8C8D98131AC0E889F989AE
:10111000808185FF15C09FB7F894EE89FF896083B1
:10112000E889F98980818370806480839FBF81E032
:1011300090E0DF91CF911F910F91FF90EF90089574
:10114000F62E0B8D10E00F5F1F4F0F731127E02E4F
:101150008C8D8E110CC00FB607FCFACFE889F98987
:10116000808185FFF5CFCE010E945708F1CFEB8D2E
:10117000EC0FFD2FF11DE35AFF4FF0829FB7F8945B
:101180000B8FEA89FB8980818062CFCFCF93DF9379
:10119000EC01888D8823B9F0AA89BB89E889F9898F
:1011A0008C9185FD03C0808186FD0DC00FB607FCC4
:1011B000F7CF8C9185FFF2CF808185FFEDCFCE01F7
:1011C0000E945708E9CFDF91CF9108952F923F9267
:1011D0004F925F926F927F928F929F92AF92BF9247
:1011E000CF92DF92EF92FF920F931F93CF93DF93F3
:1011F000EC010E94C2076CA47DA4BEA5AFA5F8A90E
:10120000E9A90AA91BA99B01AC0160E070E080E09C
:1012100090E05301CB2EDA2EEF2EFE2E0E947D2F72
:1012200008F44EC08E89882309F44AC00E94C20780
:101230009B01AC0160E070E080E090E0AC8CBD8C84
:10124000CE8CDF8CE8A0F9A00AA11BA10E946B2F15
:101250002CA73DA74EA75FA768AB79AB8AAB9BAB2A
:10126000CA88DB88EC88FD88EC85FD8519959B0193
:10127000AC01C701B6010E94862F2B013C019F776C
:101280002CAD3DAD4EAD5FAD0E94BC2D87FF2BC098
:1012900081E08F8B1E8AE889F989309709F01995CA
:1012A0008CA58CAB8DA58DAB8EA58EAB8FA58FAB92
:1012B00088A988AF89A989AF8AA98AAF8BA98BAF82
:1012C000DF91CF911F910F91FF90EF90DF90CF9022
:1012D000BF90AF909F908F907F906F905F904F9056
:1012E0003F902F9008952E843F840E94C2079B0157
:1012F000AC0160E070E080E090E0ACA8BDA8CEA8B2
:10130000DFA8E8ACF9AC0AAD1BAD0E94742F2CA38A
:101310003DA34EA35FA368A779A78AA79BA78E01C9
:101320000C5B1F4FF8012081318142815381C30141
:10133000B2010E94872FF8016083718382839383B7
:101340003497C080D180E280F380A70196010E948B
:101350009B3018162CF4F801C082D182E282F3820D
:10136000F7FAF094F7F8F094A7019601F80160817C
:101370007181828193810E94BC2D87FF05C0F80195
:10138000C082D182E282F382C88CD98CEA8CFB8C39
:10139000F80120813181428153816C817D818E8170
:1013A0009F810E94222EA70196010E94222E4B01AE
:1013B0005C01288139814A815B81C301B2010E94AD
:1013C000222E9B01AC01C501B4010E94872F4B0165
:1013D0005C018E01085B1F4FF80120813181428141
:1013E0005381C301B2010E94862F288539854A8521
:1013F0005B850E94222EA70196010E94F32F9B017C
:10140000AC01C501B4010E94872FF80140825182CE
:1014100062827382F101199543CF8F929F92AF92AE
:10142000BF92CF92DF92EF92FF920F931F93CF93D1
:10143000DF93EC018C859D85892B71F18E859F85CD
:10144000892B51F181E08E8B0E94C2079B01AC0178
:1014500060E070E080E090E0AC8CBD8CCE8CDF8CE6
:10146000E8A0F9A00AA11BA10E946B2F2CA73DA701
:101470004EA75FA768AB79AB8AAB9BAB1F8AFE0117
:10148000EC5BFF4F1082118212821382C85BDF4F28
:10149000188219821A821B82DF91CF911F910F91BE
:1014A000FF90EF90DF90CF90BF90AF909F908F9084
:1014B00008958F929F92AF92BF92CF92DF92EF9258
:1014C000FF920F931F93CF93DF93EC016A017B018F
:1014D00020E030E04FE753E4CB01B6010E94222E1A
:1014E0004B015C0120E030E0A9010E949B301816FE
:1014F0008CF5C501B4010E9465308B01B98020E0F4
:1015000030E0A901C701B6010E949B3060E01816C7
:101510000CF061E08B2D0E94CD030F3F110509F007
:10152000ECF41127C88161E08C2F0E94550401154D
:101530001105B9F460E08C2FDF91CF911F910F91CD
:10154000FF90EF90DF90CF90BF90AF909F908F90E3
:101550000C94CD03C501B4019058CDCF0FEF10E02E
:10156000E1CF0F3F110511F461E0E5CFEC2FF0E082
:10157000EB59FC4FE491E150E23108F0BCC0F0E0DF
:101580008827EA53F54F8F4F0C94632FD80AE90A46
:10159000EE0AF80A020B7B0B0C0B140B1C0B260B30
:1015A000300B3A0B490B530B7B0B5D0B670B710B2D
:1015B00084B5806884BD07BDDF91CF911F910F91E5
:1015C000FF90EF90DF90CF90BF90AF909F908F9063
:1015D000089584B5806284BD08BDEECF80918000FF
:1015E0008068809380001093890000938800E4CF86
:1015F0008091800080628093800010938B00009324
:101600008A00DACF809180008860809380001093F8
:101610008D0000938C00D0CF8091B00080688093C3
:10162000B0000093B300C8CF8091B0008062809377
:10163000B0000093B400C0CF809190008068809388
:1016400090001093990000939800B6CF809190007D
:1016500080628093900010939B0000939A00ACCF1F
:101660008091900088608093900010939D0000937B
:101670009C00A2CF8091A00080688093A000809100
:10168000A0008F7B8093A0001093A9000093A80076
:1016900093CF8091A00080628093A0001093AB0054
:1016A0000093AA0089CF8091A00088608093A00059
:1016B0001093AD000093AC007FCF80912001806833
:1016C00080932001109329010093280175CF809108
:1016D000200180628093200110932B0100932A0146
:1016E0006BCF8091200188608093200110932D01A1
:1016F00000932C0161CF003811050CF035CF1ACFC3
:101700008EBD00000DB407FEFDCF8EB50895CF93BA
:10171000DF93EC0160E088810E94CD0388E90E949C
:10172000800B80E00E94800B80E00E94800B80E0B4
:101730000E94800B80E00E94800B61E088810E9403
:10174000CD038BE891E00197F1F760E088810E947A
:10175000CD0380EE0E94800B61E08881DF91CF9104
:101760000C94CD036F3FB1F0E62FE295EF7044E0AB
:10177000E49F90011124DC01ED91FC91E20FF31F35
:101780006F70B8E06B9FC001112462817381860F76
:10179000971F089590E080E00895CF93DF93EC01C8
:1017A00088819981DC01ED91FC910190F081E02D1F
:1017B00019952A813B81820F931F9B838A83DF9136
:1017C000CF910895982F80336CF08A3324F08F35B1
:1017D00024F08B3724F481E0089581341CF081E0FB
:1017E0009B350CF080E00895CF93DF93EC01888166
:1017F0009981DC01ED91FC910280F381E02D199536
:101800002A813B81820F931F9B838A83DF91CF9133
:1018100008958F929F92AF92BF92CF92DF92EF92F4
:10182000FF920F931F93CF93DF93CDB7DEB76697E9
:101830000FB6F894DEBF0FBECDBF6C018E01095EFE
:101840001F4F78018AE0882E912CA12CB12CCB015E
:10185000BA01A50194010E94122F942F852F605D7B
:10186000F80162938F01A901692F782F4115510565
:101870006105710561F7A7014E1B5F0BBF01C60132
:101880000E94F40B66960FB6F894DEBF0FBECDBF74
:10189000DF91CF911F910F91FF90EF90DF90CF904C
:1018A000BF90AF909F908F900895FC018485811127
:1018B00014C0A781B085818592852FEF3FEFA817CF
:1018C000B90730F4CD010196908787832C9130E0E1
:1018D00037FD20E0238781E08487838508951F9367
:1018E000CF93DF93EC01162F0E94550C811306C095
:1018F0001C8681E0DF91CF911F91089580E0FACF9F
:101900000F931F93CF93DF938C01EB018991882371
:1019100069F0C8010E94550C882379F0FE013197C7
:10192000908198130DC0F8011486F0CF90E080E00C
:10193000DF91CF911F910F91089582E090E0F8CF51
:1019400083E090E0F5CFCF93DF93EC01CE010E94CE
:10195000550C8B304CF489305CF4882359F081E0CD
:101960008E8390E080E00BC08D3011F08032B9F7AB
:101970001C86ECCF8E81811105C081E090E0DF9163
:10198000CF91089582E090E0FACFDC01ED91FC91D7
:10199000309731F094819F7781E019F080E00895CD
:1019A00081E00895CF93DF93EC0180911003909133
:1019B00011030C9731F4209709F44AC0DF91CF91BD
:1019C0000895CD30D105D0F4FE018827E551F34FBD
:1019D0008F4F0C94632F280D1D0DF80C280D0F0D43
:1019E0001D0D1D0D1D0D280D280D280D280D280D70
:1019F0001092670585E095E00E940D0AD0931103CF
:101A0000C09310032597D1F20E94C20760930C0384
:101A100070930D0380930E0390930F03CFCF86E056
:101A200090E09093070380930603109209031092AD
:101A3000080310920B0310920A038091670581112D
:101A4000DDCF81E595E00E940D0A10921B05D6CFEF
:101A500010926705FACF4F925F926F927F928F92AA
:101A60009F92AF92BF92CF92DF92EF92FF920F932D
:101A70001F93CF93DF93EB01DC012C912B32D9F133
:101A80002D32D1F50196FF24F394FC01208130ED35
:101A9000320F3A3018F02E3209F042C18C0160E06A
:101AA00070E0CB01F801219130ED832E820E39E0F8
:101AB000381520F16A3949E97407840749E1940728
:101AC00038F5AAE0B0E09B01AC010E94FF2E912CFA
:101AD000B12CA12C24013501409450946094709451
:101AE000461657066806790698F0680D791D8A1D16
:101AF0009B1D8F01D7CF0196F12CC7CF211108C0B4
:101B0000FF20E9F161307105810550E89507A0F0EB
:101B1000E12CBAE08B2E912CA12CB12C6115710512
:101B200030E883079105B0F1A50194010E94122FBE
:101B3000CA01B901E394F2CF2C8120782A602C836A
:101B40009B01AC0188279927DC01821B930BA40B16
:101B5000B50B88839983AA83BB838F2DDF91CF91A7
:101B60001F910F91FF90EF90DF90CF90BF90AF90BB
:101B70009F908F907F906F905F904F9008952C81F1
:101B8000207828602C83688379838A839B83FF2451
:101B9000F394E3CFF801D8012D918D0130ED320F90
:101BA0003A3010F4E394F6CF2E3201F58F010F5F37
:101BB0001F4FF8010F5F1F4F2081A0EDDA2ED20ECC
:101BC000B9E0BD1598F06C3CECEC7E07ECE08E07BC
:101BD000910578F7AAE0B0E09B01AC010E94FF2ECE
:101BE0006D0D711D811D911DEA94E3CF20812F7D24
:101BF00010E000E0253409F05BC021812D32D1F5E1
:101C00003296CC24C394DF0110E000E02E2D0E2C80
:101C1000000C330B5AE0B52EFD01DD9040ED4D0D6B
:101C20004A3008F040C0B09EA001B19E500D112472
:101C30000D2DDD0C110B00531109040F151FA80108
:101C4000420F531F473251053CF38C81CC20C9F021
:101C500040E050E060E070E8F11003C040E050E088
:101C6000BA0180788C608C83488359836A837B8334
:101C7000FC2C73CF2B3219F03196C12CC4CF329685
:101C8000FCCF40E050E060E87FEFF11004C040E09E
:101C900050E060E87FE780788C608C8348835983CC
:101CA0006A837B8374CFCC2019F0119501951109BB
:101CB0002081211135C00E0D111DE7FC1A950E94DF
:101CC000C12D32E7C32E32E0D32E101611063CF0A0
:101CD0001195019511094AE5C42E42E0D42EE12C5C
:101CE0000115110591F000FF0CC024E0E29EF00107
:101CF0001124EC0DFD1D25913591459154910E94C3
:101D0000222E15950795E394EBCFF11090582C8176
:101D100020782C602C83688379838A839B8337CFD8
:101D2000F12C1BCFCF92DF92EF92FF92CF93DF93F4
:101D300000D01F921F92CDB7DEB7FC0184818F7750
:101D40008630D9F040F48430A9F1853009F43FC0E1
:101D500090E080E014C08A30F1F08C3009F43FC08C
:101D60008830B1F780819181A281B381811520E80B
:101D70009207A105B10560F702C0808190E00F9045
:101D80000F900F900F900F90DF91CF91FF90EF90F9
:101D9000DF90CF90089580819181A281B381AC01C1
:101DA000BD0150586F4F7F4F41155105614071057E
:101DB00078F6E5CF808191811D82BE016F5F7F4FF4
:101DC0000E942B0DCE0101960E94920ED8CF8081E9
:101DD00091811D82BE016F5F7F4F0496F1CFC0805D
:101DE000D180E280F38020E030E040E057ECC70192
:101DF000B6010E949B3087FDABCF20E03EEF4FEF56
:101E000056E4C701B6010E94BC2D18160CF4A0CFF1
:101E1000C701B6010E946530CB01B1CFCF92DF92EE
:101E2000EF92FF92CF93DF9300D01F921F92CDB716
:101E3000DEB7FC0184818F778630C1F038F48430BE
:101E400019F1853071F190E080E012C08A3021F004
:101E50008C3079F18830B9F780819181A281B3818A
:101E6000009721E0A207B10518F0EDCF808190E046
:101E70000F900F900F900F900F90DF91CF91FF90E8
:101E8000EF90DF90CF900895808191811D82BE01F7
:101E90006F5F7F4F0E942B0DCE0101960E940E0FA7
:101EA000E7CF808191811D82BE016F5F7F4F0496D5
:101EB000F1CFC080D180E280F38020E030E0A90142
:101EC000C701B6010E949B3087FDBDCF20E03FEFE8
:101ED0004FE757E4C701B6010E94BC2D18160CF459
:101EE000B2CFC701B6010E946C30CB01C1CFCF93F6
:101EF000DF9300D01F921F92CDB7DEB7FC01948113
:101F00009F77963091F030F4943020F560E070E0E7
:101F1000CB0111C09A30B9F09C3051F19830B1F733
:101F2000608171818281938104C0608170E090E062
:101F300080E00E94C12D0F900F900F900F900F9096
:101F4000DF91CF91089560817181828193810E9498
:101F5000C32DF1CF808191811D82BE016F5F7F4FC4
:101F600004960E942B0DCE0101960E94770FE3CFBD
:101F70006081718182819381DECFFC0192899150D1
:101F800084E0989F90011124A089B189A20FB31F0A
:101F90001296ED91FC9113973097E9F011962C91E0
:101FA00011978C912817B8F481E0820F11968C93C9
:101FB00088E0289FA0011124E40FF51F309759F005
:101FC00014828FEF858317821682BF01892F829535
:101FD000807F820F089560E070E08FEF0895DF92B8
:101FE000EF92FF920F931F93CF93DF93EC017B014E
:101FF000D12C688979898A89D816E0F484E0D89E42
:1020000080011124060F171FD80112966D917C9143
:102010006115710541F0D701ED91FC910280F381CA
:10202000E02DC7011995F8011382128210821182E6
:10203000D394DFCF1A8A8FEF8C8BC617D70761F046
:10204000D701ED91FC910280F381E02DC701199534
:10205000D98BC88B84E08B8BDF91CF911F910F912F
:10206000FF90EF90DF900895DB01ED91FC911197C7
:102070000280F381E02DBC01CD0119940F931F93D1
:10208000CF93DF93EC01088119818B819C810097AC
:1020900049F0FC01208131813C832B83B8010E94EF
:1020A0003410F3CF68817981CE010596DF91CF910D
:1020B0001F910F910C94EF0FCF93DF93EC01E88108
:1020C000F981B0E0A0E03097F9F09F012C5F3F4F1D
:1020D00062177307A1F4928191509283911114C0F9
:1020E00080819181109741F08D939C93BA01CF012B
:1020F000DF91CF910C94341099838883F7CFDF015F
:102100000190F081E02DDFCFDF91CF9108958F9284
:102110009F92AF92BF92CF92DF92EF92FF920F9376
:102120001F93CF93DF938C01EB01FC01848180FF2F
:102130000AC048815981608171816C5F7F4FCE01F7
:1021400003960E945C10F8018481807681F101156C
:10215000110569F1D0805E01F5E1AF0EB11C4E01B1
:1021600083E0880E911CEFEFDE16F1F06D2DC501B6
:102170000E94B20B7C01FC01C580848187FF07C0EF
:102180004881598166817781C4010E945C10BE013B
:10219000C7010E948710F701848180788483898D2C
:1021A0008583D98EDC2CDFCFF801D082D182DF91FC
:1021B000CF911F910F91FF90EF90DF90CF90BF9044
:1021C000AF909F908F900895EF92FF920F931F937F
:1021D000CF93DF937C018B01EA016F3F710509F01A
:1021E000B0F4E881F9810480F581E02DAB014B5F0B
:1021F0005F4FBC01CE011995009749F0FC010383A4
:10220000DF91CF911F910F91FF90EF900895E8819A
:10221000F9810280F381E02DB701CE01199590E09C
:1022200080E0EECFFF920F931F93CF93DF93EC01EB
:10223000F62E8A819B810097C9F06C817D81FC011B
:1022400023812617170691F408811981F80140812E
:102250005181660F771F6F5F7F4F0E94E4100097D8
:1022600019F421E0F80122839B838A838A819B8170
:10227000009759F02C813D81A9014F5F5F4F5D832D
:102280004C83820F931FFC01F482DF91CF911F9149
:102290000F91FF9008959F92AF92BF92CF92DF92DD
:1022A000EF92FF920F931F93CF93DF9300D01F9273
:1022B0001F92CDB7DEB78C010E94550CD82EF801C5
:1022C0001486F12CE12C60EFC62EC8010E94550C3B
:1022D000F8011486D81609F4B3C0811113C082E046
:1022E00090E00F900F900F900F900F90DF91CF9193
:1022F0001F910F91FF90EF90DF90CF90BF90AF9024
:102300009F9008958C3509F099C0C8010E94550C22
:10231000882329F3EBE4F2E0853709F083C0F80164
:10232000148654E0952EB12CA12CC8010E94550CA6
:102330008823A9F2813434F48053803130F083E073
:1023400090E0CFCF8F7D8753F8CF44E0AA0CBB1C21
:102350004A95E1F7A82AF80114869A949110E5CFDE
:10236000C501985D8115944020F47501F3E0FF22CA
:10237000ACCFC5019C5D81159440A8F483E0B822E0
:10238000B701762F6627770F770F6A297B2990E0B0
:1023900080E00196603871058105910540F4C8011F
:1023A0000E94121192CFB50190E080E0F3CF198224
:1023B000262F2F7320682A8326E096958795779598
:1023C00067952A95D1F76032710580F4606C6B8354
:1023D0005E01E4E0AE0EB11CF50162915F0166237F
:1023E00009F473CFC8010E941211F6CF262F2F7364
:1023F00020682B8386E0769567958A95E1F76031B2
:10240000710538F4606E6C835E01F5E0AF0EB11CAF
:10241000E3CF60686C83CD825E0126E0A20EB11C22
:10242000DBCF32969081992309F489CF8913F9CFB4
:102430008181882309F483CFF8011486682FAFCFF8
:1024400082819381892B19F484E090E04ACF90E057
:1024500080E047CFAF92BF92CF92DF92EF92FF9290
:102460000F931F93CF93DF93DC011296ED91FC91B4
:10247000139714968D919C911597E80FF91F14826C
:102480000D911C91119714966D917C911597129650
:102490008D919C9113979C012C5F3F4FE801EB813C
:1024A000FC817B01E20EF31E3097B9F043814617A1
:1024B000170679F45901AF014C5F5F4FEA14FB0432
:1024C00099F1E501C9905E01EA01D990AE01CD1400
:1024D000A9F30190F081E02DE7CFED01F8014081F3
:1024E00051810E94E410FC01892B21F481E0D80184
:1024F00012968C93A881B98113968D919C91149713
:10250000918380831496FC93EE9313971B821A8217
:10251000CF01DF91CF911F910F91FF90EF90DF904E
:10252000CF90BF90AF90089582818F5F8283F0CF6C
:102530002F923F924F925F926F927F928F929F92D3
:10254000AF92BF92CF92DF92EF92FF920F931F93C1
:10255000CF93DF9300D000D0CDB7DEB77C017C8372
:102560006B830B969E838D83D70116969C9116974D
:1025700017968C91179799838A836D907C90119709
:102580006114710409F44CC119964C9150E0F301A7
:102590008481958184179507A8F0808191E09093BC
:1025A000B5038093D7031092B6031092D80320E0AE
:1025B000BE016F5F7F4FC3010E94D306D12CC12C97
:1025C00081111AC080E026960FB6F894DEBF0FBEC8
:1025D000CDBFDF91CF911F910F91FF90EF90DF90D2
:1025E000CF90BF90AF909F908F907F906F905F90B3
:1025F0004F903F902F900895D30114968D919C9108
:1026000002E010E00C191D098017910708F48C01F5
:10261000F30150800E94BE054B015C018091AF0325
:10262000811176C0B02EF0E2F01710F440E2B42E23
:1026300081E08093AF0321E082E090E0801B910B6A
:10264000C816D90608F420E02093AE039FEF9093BC
:10265000AD031092AC038FEF8B0D8093AB03A1E021
:10266000A0938A0380918A03550C582A50928A03BA
:1026700080918903813009F093C0109289030E94F0
:10268000BE051B012C0180918A038093BB008091C1
:10269000B1039091B203A091B303B091B403892B1D
:1026A0008A2B8B2BA1F00E94BE052091B1033091A3
:1026B000B2034091B3035091B403621973098409C2
:1026C0009509261737074807590708F442C0809133
:1026D000BC0083FDD8CFB5ECB093BC000E94BE0512
:1026E0001B012C018091AF03813009F45DC0809102
:1026F000AC038B1510F4B090AC03ABE8B3E0E3E6A9
:10270000F3E080E08B1551F19D9191938F5FFACFAB
:102710008091B1039091B203A091B303B091B4033F
:10272000892B8A2B8B2B09F479CF0E94BE0520912F
:10273000B1033091B2034091B3035091B4036819CF
:1027400079098A099B09261737074807590708F0AE
:1027500065CF8091B0030E943404B12C109288039D
:10276000B0928703B016110609F02CCF8D809E80A1
:102770008C0C9D1C5401C50188199909801791077B
:10278000A8F5D30111968D919C91DC01ED91FC91FE
:102790000284F385E02D1995F50181935F01EBCF5C
:1027A000E5EEE093BC009ACF8091B1039091B20323
:1027B000A091B303B091B403892B8A2B8B2B09F41E
:1027C00091CF0E94BE052091B1033091B203409198
:1027D000B3035091B403621973098409950926174C
:1027E00037074807590708F07DCFB3CFC00ED11E79
:1027F000F2E0CF16D10408F4FFCEF70182858111F3
:1028000042C0848590E0982F8827AB81BC811196C7
:102810009C938E932385822B8D939C9381E0D3CEC2
:102820001296ED91FC911397309709F4CBCE149644
:102830002D913C91159719964C9150E0233031051C
:1028400091F4816089839A834F5F5F4F02E010E0CB
:102850002D813E81BE016F5F7F4FCF010E944705F2
:102860008111CBCFB0CE2115310519F49068998331
:10287000EDCF2230310511F49F77F9CF21303105AA
:1028800029F7906CF4CF838590E0982F8827AB814F
:10289000BC8111969C938E932485BDCFAB01BC0166
:1028A00070588BEB95E00C94590AAB01BC01705841
:1028B0008BEB95E00C94590AFC0101900020E9F79C
:1028C0003197AF01481B590BBC0185EE93E00C9486
:1028D000E007DF92EF92FF920F931F93CF93DF9366
:1028E0006115710561F460E070E08FEF9D2DDF915F
:1028F000CF911F910F91FF90EF90DF9008958A0183
:10290000EB01DC01FC900B5E1F4F6F2DC8010E9494
:10291000B20B009741F3FC01E580009721F306809C
:10292000F781E02DDE010D900020E9F79D01215097
:1029300031092C1B3D0BB0E0A0E0309739F0DF01EE
:102940000D900020E9F71197AE1BBF0B2A173B072C
:1029500051F4DE012C0F3D1FA217B30769F05D9102
:1029600041915417C9F36E2DC8010E94B20B009714
:1029700009F4B9CFFE2CCFCFBC018F2DDE2CB6CF02
:10298000CF93DF93FC01C081D18162817381CE013D
:102990004A9661F02E8D25FF09C0AE010E94691490
:1029A0009B01B901CE01DF91CF91089530E020E085
:1029B000F8CFFB0101900020E9F73197AF01461BEA
:1029C000570B0C94F40B1F93CF93DF93EBE4F2E0DF
:1029D0001281112379F0329621816213F9CFEC0133
:1029E0006CE50E94CD0B612FCE01DF91CF911F913D
:1029F0000C94CD0B6111F9CF6CE572E0DF91CF91B2
:102A00001F910C94D914CF92DF92EF92FF920F9303
:102A10001F93CF93DF938C016B017A0162E20E94D6
:102A2000CD0BE601EC0CFD1CCE15DF0529F06991FC
:102A3000C8010E94E314F8CF62E2C801DF91CF9190
:102A40001F910F91FF90EF90DF90CF900C94CD0BE2
:102A50002F923F924F925F926F927F928F929F92AE
:102A6000AF92BF92CF92DF92EF92FF920F931F939C
:102A7000CF93DF93CDB7DEB76C970FB6F894DEBF78
:102A80000FBECDBF8C011B01DC0114968C911497F5
:102A90008F77883009F4B2C2E8F4843009F469C24F
:102AA00048F4833009F49FC263E672E0C1010E94DA
:102AB000D9141CC2853009F470C28630A9F78C91F4
:102AC00068E672E0811102C06DE672E0C1010E9409
:102AD000D9146DC28C30F1F1C8F48A3029F7CD9049
:102AE000DD90ED90FC90B701A601F7FE0BC06DE202
:102AF000C1010E94CD0B44275527BA014C195D092D
:102B00006E097F09C1010E94090C51C2803209F48B
:102B1000F7C1803449F66BE5C1010E94CD0BF80185
:102B200010811F3F09F4E7C1D10114968D919C914A
:102B3000612F45960E94B20B8C01B1010E942815AD
:102B4000F80115811F3F09F4D6C16CE2C1010E9452
:102B5000CD0BE7CFF801C080D180E280F380A701E0
:102B60009601C701B6010E94BC2D81119DCF20E0C6
:102B700030E0A901C701B6010E94BC2D882379F07D
:102B8000A7019601C701B6010E94872F9B01AC01E6
:102B9000C701B6010E94BC2D882309F485CF20E02F
:102BA00030E0A901C701B6010E94BC2D87FF08C013
:102BB0006DE2C1010E94CD0BF7FAF094F7F8F094A2
:102BC00020E836E948E15BE4C701B6010E949B308A
:102BD00087FD88C074E1A72EB12C00E210E0188EAA
:102BE0001F8AF501EE58FD4F25913591459154917D
:102BF000C701B6010E949B3087FD13C0F501E65A5C
:102C0000FD4F2591359145915491C701B6010E9420
:102C1000222E6B017C012F89388D200F311F388FB8
:102C20002F8B1595079534E0A31AB1088CEFA816E1
:102C30008FEFB806B1F655245A9420E030E0A90190
:102C4000C701B6010E949B3018160CF052C02CEA46
:102C500035EC47E257E3C701B6010E94BC2D1816B8
:102C60000CF447C0A52DB4E0AB02C0011124B12C77
:102C7000A12CFC01E65AFD4F3F019C012E583D4F0F
:102C800049013FEF531609F434C0F301EA0DFB1D6F
:102C9000659175918591949120E030E040E251E496
:102CA0000E94222EA70196010E949B3018169CF4C8
:102CB000F401EA0DFB1D2591359145915491C70111
:102CC000B6010E94222E6B017C018F89988D801B9A
:102CD000910B988F8F8B159507955A9494E0A91AAC
:102CE000B108CFCF00E210E055E0552E188E1F8AB4
:102CF000A4CFC701B6010E946C304B015C012B01CF
:102D00003C0106E080E492E4AFE0B0E0898F9A8F66
:102D1000AB8FBC8F102F01509AE04916510461040B
:102D20007104C8F0698D7A8D8B8D9C8D2AE030E01E
:102D300040E050E00E94122F298F3A8F4B8F5C8F1A
:102D4000C301B2012AE030E040E050E00E94122FBF
:102D500029013A01DFCFC501B4010E94C12D9B01B9
:102D6000AC01C701B6010E94862F6B017C01698D01
:102D70007A8D8B8D9C8D0E94C12D9B01AC01C7016A
:102D8000B6010E94222E2B013C010E946C306B0187
:102D90007C010E94C12D9B01AC01C301B2010E94C4
:102DA000862F9B01AC010E94872F0E946C30C60EBB
:102DB000D71EE81EF91E898D9A8DAB8DBC8DC81665
:102DC000D906EA06FB06D8F09FEF891A990AA90AE4
:102DD000B90AAF89B88DAB2B39F1BAE08B169104E3
:102DE000A104B10408F1EF89F88D3196F88FEF8BCB
:102DF000C12CD12C7601812C912C540183942AE092
:102E0000422E512C612C712CC701B601A3019201F5
:102E10000E94122F672B682B692B51F4111644F472
:102E200069017A011150F0CFC12CD12C7601E7CF86
:102E3000B501A401C1010E94090C112371F14E01D9
:102E4000F1E18F0E911C012F54019AE0492E512C73
:102E5000612C712C015068F0C701B601A3019201E9
:102E60000E94122F605DD4016E934D0169017A01B9
:102E7000F1CF812F90E0BC0160957095F501E81BC2
:102E8000F90B31978EE2808344275527461B570B59
:102E90006A0D7B1DC1010E94F40BEF89F88DEF2BA9
:102EA00029F165E6C1010E94CD0B0F89188D17FF2E
:102EB00007C06DE2C1010E94CD0B1195019511096A
:102EC000FE0177969F018AE0E82EF12CC801B70138
:102ED0000E944F2F805D82938B01672BB9F7A90168
:102EE0004E1B5F0BBF01C1010E94F40BD101129672
:102EF0008D919C915FC06DE5C1010E94CD0BF6CF15
:102F00006BE7C1010E94CD0BF80110811F3F79F1E1
:102F1000D10114968D919C91612F45960E94B20B20
:102F20008C01FC01C680D78062E2C1010E94CD0BFA
:102F30007601D7016D917D01662321F0C1010E94C8
:102F4000E314F7CF62E2C1010E94CD0B6AE3C10135
:102F50000E94CD0BB101C8010E942815F80115810E
:102F60001F3F29F06CE2C1010E94CD0BCFCF6DE76E
:102F7000C3CFF8016081718150E040E061157105B7
:102F800041F0FB0101900020E9F73197AF01461BAA
:102F9000570BC1010E940315A9CFED91FC9143810C
:102FA00050E0BF016C5F7F4FC1010E940315F1012A
:102FB000828193816C960FB6F894DEBF0FBECDBFB1
:102FC000DF91CF911F910F91FF90EF90DF90CF9005
:102FD000BF90AF909F908F907F906F905F904F9039
:102FE0003F902F900895ED91FC91438150E0BF01F7
:102FF0006C5F7F4FC1010E94F40BD9CF4D915D9161
:103000006D917C917FCDCB010C94CC31CF93DF932C
:10301000EC018091BF049091C004009759F0209179
:10302000C1043091C2042C173D0720F081E0DF91EC
:10303000CF910895BE016F5F7F4F0E945532009778
:1030400089F09093C0048093BF04D093C204C093CE
:10305000C1042091C3043091C404232B39F7FC012F
:103060001082E4CF80E0E3CFCB01BA010C9455325B
:1030700085ED8093BC008091B1039091B203A09143
:10308000B303B091B4030796A11DB11D23E0B6951B
:10309000A795979587952A95D1F72091BC0024FD97
:1030A00003C01092AF0308954091B1035091B20351
:1030B0006091B3037091B403452B462B472B69F302
:1030C0000097A105B10541F02AE22A95F1F700C069
:1030D0000197A109B109E1CF8091B0030C943404A8
:1030E000CB010C9430318F929F92AF92BF92CF92CE
:1030F000DF92EF92FF920F931F93CF93DF936C01B8
:103100008B01DB015996FC90BFEFFB1621F16F2D6F
:10311000C80145960E94B20BEC018D81F801818FA8
:10312000209709F496C01C828FEF8D831F821E8228
:10313000D60111966C916F3F09F49FC0C801459666
:103140000E94B20BFC01F582D6011196FC92BE01E1
:103150008F2D9D8084C05B01F5E0AF0EB11CDB01BB
:10316000ED90FC90119757968C91882349F0C501FA
:103170000E94BD0FC62FD72F209711F0F82ED8CF61
:10318000F801C789908DC91325C0C03109F461C009
:10319000CC0F65897689D701ED91FC91B4E0CB9F86
:1031A000A0011124A616B70609F04BC00190F081CA
:1031B000E02DBA01C7011995009709F44AC020E132
:1031C000F501DC0101900D922A95E1F7F801968B4B
:1031D000858BC08FD8015596CD91DC915697579627
:1031E0008C91579721E0280F57962C93B4E08B9F32
:1031F000C0011124C80FD91F90E1892E203111F48C
:103200008FE0882EE8E08E9EB0011124D701ED9169
:10321000FC910190F081E02DC70119959B838A8371
:10322000892B09F4812C88821982CD2B91F0C5015C
:103230000E94BD0FC62FD72FF82E209709F078CF08
:1032400008C00480F581E02DC7011995009709F0A9
:10325000BDCF81E0F801828360E070E08FEF992DAF
:10326000DF91CF911F910F91FF90EF90DF90CF9062
:10327000BF90AF909F908F900895F601F082F182F9
:1032800066CF8F929F92AF92BF92CF92DF92EF92D2
:10329000FF920F931F93CF93DF93EC018B01D42EFA
:1032A0000E94A30C7C01892B09F047C0CE010E942B
:1032B000550C863609F452C124F5873229F08B3536
:1032C00061F1823209F053C11D821C828A819B8187
:1032D000892B31F4888199810E945D029B838A83C6
:1032E000CE010E944B117C01892B39F5CE010E9441
:1032F0002A12F80124812078256024839183808319
:103300001CC0843709F412C18B3709F45BC08E36B8
:1033100009F02DC163E672E012C1F8018481807862
:10332000806484830115110519F08FEF80838183F8
:10333000D11011C025E0E22EF12CC701DF91CF9111
:103340001F910F91FF90EF90DF90CF90BF90AF90C3
:103350009F908F9008951C86CE010E94A30C009729
:1033600009F085C06DE5CE010E946F0C8111E5CF9B
:10337000DA946D857E85C8010E9473186115710508
:1033800021F484E0E82EF12CD8CF4D2DCE010E94FF
:103390004119009709F06BC0CE010E94A30C009761
:1033A00009F065C06DE5CE010E946F0C8111C5CF9B
:1033B0006CE2CE010E946F0C8111DBCF93E0E92E0D
:1033C000F12CBBCFF8018481807880628483011561
:1033D000110519F08FEF80838183DD2009F4AACFD6
:1033E0001C86CE010E94A30C009709F040C06DE737
:1033F000CE010E946F0C8111A0CFBB24BA94BD0CEA
:103400001D821C828A819B81892B31F4888199815C
:103410000E945D029B838A83CE010E94550C8732F5
:10342000E1F08232D1F0CE010E94550CD82E0E94DC
:10343000E20B882319F21C866D2DCE010E94121119
:10344000CE010E94550CD82E0E94E20B8111F3CFC1
:103450008A819B81892B31F494CFCE010E944B113C
:10346000009729F4CE010E94A30C009711F07C0173
:1034700064CF6AE3CE010E946F0C882309F49ECFCB
:10348000EA81FB818C819D81E80FF91F14824D85B3
:103490005E856A817B816C5F7F4FC8010E946914E1
:1034A000CB016B01672BC9F5CE010E942A124C019A
:1034B0006D857E85C8010E9473186B0161157105C9
:1034C00009F45FCFFB01848180688483F4E08F0E70
:1034D000911CF601978286824B2DB601CE010E9487
:1034E0004119009721F6CE010E94A30C009709F024
:1034F000BECF6DE7CE010E946F0C81111ECF6CE232
:10350000CE010E946F0C882309F458CFCE010E948F
:10351000A30C009709F474CFAACF6D857E850E9415
:103520008710F601848180788483D6CFF801848166
:1035300080788660848381E0808368E672E0CE01D3
:10354000DF91CF911F910F91FF90EF90DF90CF907F
:10355000BF90AF909F908F900C94800CF801848165
:1035600080788660848310826DE672E0E8CFCE01B9
:103570000E94550C5E01FFE0AF0EB11CD12C9A2CBD
:10358000CB2C803374F08A3374F49FE3D91699F00E
:103590001C86D394F50181935F01CE010E94550CE6
:1035A000F0CF8B3291F393ED980F923070F3982F08
:1035B0009F7D953451F3CD0DD11D1F86B801892D06
:1035C0009C2D0E942B0D8111B8CEF8CE2F923F92E8
:1035D0004F925F926F927F928F929F92AF92BF9223
:1035E000CF92DF92EF92FF920F931F93CF93DF93CF
:1035F000CDB7DEB7C357D1090FB6F894DEBF0FBE03
:10360000CDBF8E01005B1F4F380125E0620E711C9B
:1036100058018AE1A80EB11C2DE8222E22E0322E9C
:1036200030E9432E32E0532E85EE93E00E944108AC
:10363000892B09F4F1C185EE93E00E941F08D82E72
:1036400089831A82E090C304F090C4049FEFE91AC2
:10365000F90AC7010E940618882399F02091BF0437
:103660003091C0048091C3049091C404BE016F5F87
:103670007F4F820F931F0E943F33F092C404E09269
:10368000C304EAE0DE12D0CF81E092E0F80191833A
:103690008083128214821382768A658A178A84E074
:1036A000808F8FEF818F168EE1961FAE1EAEE19751
:1036B000E3961FAE1EAEE397C090C304D090C4043F
:1036C000E090BF04F090C00461E072E0C3010E948A
:1036D000EF0FF801128280809180F801838194813C
:1036E000009751F0FC0120813181F801348323835C
:1036F000B4010E943410F1CF168E1A8309831C8204
:103700001B821E821D821F82F986E886EC0CFD1C3E
:10371000FB86EA861D861F870E874AE0B501CE012B
:1037200001960E9441197C01892B51F48C858823D4
:1037300039F0F801868D83FF03C093E0E92EF12C68
:103740008B819C81009731F0E981FA8160817181E0
:103750000E94341090E080E00E9406182091BF047F
:103760003091C00481112CC02115310519F0C90117
:103770000E94CC311092C0041092BF041092C40475
:103780001092C3041092C2041092C104E114F10417
:1037900009F183E792E00E945C14F701EE0FFF1F2E
:1037A000E55EFD4F80819181009711F00E945C14CD
:1037B0008AE892E00E945C14C8010E943E1034CF57
:1037C0001092C4041092C3046BE572E0C9010E9418
:1037D0003F33DCCF1A8309833C822B82CE010196D2
:1037E0000E94C014E3966CAF7DAF8EAF9FAFE3979E
:1037F000CE0181599F4F0E94C50C811111C0E196E5
:103800008EAD9FADE197009709F4C3C00E94770F7A
:10381000609351057093520580935305909354051E
:103820001A8309835C824B82CE0101960E94C014E8
:10383000E3966CAF7DAF8EAF9FAFE397CE0181591A
:103840009F4F0E94C50C811111C0E1968EAD9FADB6
:10385000E197009709F4A1C00E94770F6093550586
:103860007093560580935705909358051A830983E2
:1038700083E992E09C838B83CE0101960E94C01461
:10388000E3966CAF7DAF8EAF9FAFE397CE018159CA
:103890009F4F0E94C50C811111C0E1968EAD9FAD66
:1038A000E197009709F47DC00E94770F6093590556
:1038B00070935A0580935B0590935C051A83098386
:1038C00086E992E09C838B83CE0101960E94C0140E
:1038D000E3966CAF7DAF8EAF9FAFE397CE0181597A
:1038E0009F4F0E94C50C811108C0E1968EAD9FAD1F
:1038F000E197009711F00E940E0F1A83098388E95F
:1039000092E09C838B83CE0101960E94C014E396C3
:103910006CAF7DAF8EAF9FAFE397CE0181599F4FC4
:103920000E94C50C811158C0F12CE12C6701E3966F
:103930008CAD9DADAEADBFADE397FC01892B09F415
:1039400043C0248126FF40C04D0125E1820E911C19
:103950006081C4010E94B20B0097B1F1FC01F581B6
:10396000E496FFAFE497009779F1C114D10451F1C7
:10397000E4966FADE497C4010E94B20B009729F062
:10398000FC01F581E496FFAFE49721E0C21AD1086B
:10399000EACF60E070E0CB013BCF60E070E0CB01AC
:1039A0005DCF60E070E0CB0181CFA8016AE972E0F1
:1039B000C5010E9469146115710549F1CB010E948E
:1039C000920E27C00E94770F8FEFE81AF80A9AE04C
:1039D000E916F10409F0AACF1A8309838AE992E073
:1039E0009C838B83CE0101960E94C014E3966CAF3A
:1039F0007DAF8EAF9FAFE397CE0181599F4F0E945D
:103A0000C50C8111D9CEF801868D85FDCECF90E011
:103A100080E00E94D20CD0CECD58DF4F0FB6F89484
:103A2000DEBF0FBECDBFDF91CF911F910F91FF90F1
:103A3000EF90DF90CF90BF90AF909F908F907F904E
:103A40006F905F904F903F902F9008950E944D0887
:103A500081110E94E61A80E090E0892B49F080E015
:103A600090E0892B29F00E94000081110E94000043
:103A700080E090E0892B49F080E090E0892B29F0EC
:103A80000E94000081110E94000080E090E0892BDC
:103A900049F080E090E0892B29F00E94000081111C
:103AA0000C9400000895EF92FF920F931F93CF9311
:103AB000DF93FC01E080F1808701065E1F4F21F15A
:103AC000C281D381209751F1F701868D982F9F777E
:103AD00019F580788062868F8FEF828F838FA701A0
:103AE000BE01C8010E946914FB01309761F4B7015F
:103AF000C8010E947318FB01309729F084818F77E9
:103B00008483D783C6838F01C801DF91CF911F9132
:103B10000F91FF90EF90089585FDE1CF10E000E058
:103B2000F3CFAF92BF92CF92DF92EF92FF920F93BB
:103B30001F93CF93DF938C017B01DC01AD90BC9090
:103B40000E94531DEC01009781F0F701C080D180E5
:103B5000E280F380B5010E9487108C8180788C60B0
:103B60008C83C882D982EA82FB82D801ED91FC91D4
:103B700080E0309719F0828191E08927DF91CF9121
:103B80001F910F91FF90EF90DF90CF90BF90AF907B
:103B900008951F920F920FB60F9211240BB60F9239
:103BA0002F933F934F935F936F937F938F939F9345
:103BB000AF93BF93EF93FF938091B900887F8036D6
:103BC00009F44DC008F040C0883209F4A9C028F5B6
:103BD000803109F49DC0C8F4882309F4FBC0883003
:103BE00009F496C0FF91EF91BF91AF919F918F9192
:103BF0007F916F915F914F913F912F910F900BBEED
:103C00000F900FBE0F901F901895883109F488C04F
:103C1000803241F78093AD0314C0803409F49DC015
:103C200040F48033B9F38833E9F68093AD0385EC33
:103C3000B0C0803509F485C0883509F496C0883451
:103C400089F60E943818CECF883909F48CC038F52F
:103C5000883729F050F4883611F0803719F683E060
:103C60008093AF031092620357C0883809F47BC079
:103C7000803919F0803809F0B5CF80916203803225
:103C800008F071C0E091620381E08E0F80936203BF
:103C90008091BB00F0E0EE5BFC4F80833DC0803B39
:103CA00039F0E0F4803A09F479C0883A09F09ACF03
:103CB00084E08093AF031092410310924003E0919F
:103CC0008303F091840319958091400381110FC003
:103CD00081E0809340031092200309C0803C09F4E6
:103CE000A6CF883C09F4A3CF883B09F07BCFE091B5
:103CF000410381E08E0F80934103F0E0E05EFC4FD2
:103D000080818093BB00909141038091400329C042
:103D100080918A038093BB0085EC8093BC0062CFC6
:103D20009091AC038091AB03981758F5E091AC03E8
:103D300081E08E0F8093AC03F0E0E557FC4F80816B
:103D4000E9CFE091AC0381E08E0F8093AC038091CA
:103D5000BB00F0E0E557FC4F80839091AC0380916D
:103D6000AB039817C8F285E8D8CFE091AC0381E0A7
:103D70008E0F8093AC038091BB00F0E0E557FC4FC1
:103D800080838091AE0381115CCF81E080938903B1
:103D900084EA8093BC001092AF0324CF85EC80931B
:103DA000BC001092AF0380916203803230F4E09146
:103DB0006203F0E0EE5BFC4F10826091620370E002
:103DC000E0918503F091860382E493E019951092C7
:103DD000620308CF1092AD0334CF1F920F920FB63B
:103DE0000F9211242F933F938F939F93AF93BF9381
:103DF0008091170390911803A0911903B0911A03B1
:103E00003091160323E0230F2D3758F50196A11D9D
:103E1000B11D209316038093170390931803A0936A
:103E20001903B0931A0380911B0390911C03A09176
:103E30001D03B0911E030196A11DB11D80931B03AC
:103E400090931C03A0931D03B0931E03BF91AF91E9
:103E50009F918F913F912F910F900FBE0F901F90C8
:103E6000189526E8230F0296A11DB11DD2CF1F92EF
:103E70000F920FB60F9211240BB60F922F933F9310
:103E80004F935F936F937F938F939F93AF93BF9362
:103E9000EF93FF938091010390910203A09103039C
:103EA000B0910403892B8A2B8B2BD1F190910003C5
:103EB00080910000892780930000809101039091F8
:103EC0000203A0910303B0910403181619061A0601
:103ED0001B069CF48091010390910203A0910303BF
:103EE000B09104030197A109B10980930103909354
:103EF0000203A0930303B0930403FF91EF91BF91DA
:103F0000AF919F918F917F916F915F914F913F9171
:103F10002F910F900BBE0F900FBE0F901F90189512
:103F200080910002EAE8F2E0E4919FEF90930002B2
:103F3000E230E9F040F4EE2389F0E13091F060E006
:103F40000E94CD03DACFE43049F110F1E530B9F742
:103F5000909173009D7F90937300F1CF10926E004B
:103F6000EECF90916F009D7F90936F00E8CF90917E
:103F700070009D7F9093700091E09093B0009091BD
:103F8000B100987F94609093B1001092B300D7CFA6
:103F9000909171009D7F90937100D1CF90917200AC
:103FA0009D7F90937200CBCF1F920F920FB60F920E
:103FB00011240BB60F922F933F934F935F936F9300
:103FC0007F938F939F93AF93BF93EF93FF9385EE70
:103FD00093E00E945708FF91EF91BF91AF919F919D
:103FE0008F917F916F915F914F913F912F910F90A2
:103FF0000BBE0F900FBE0F901F9018951F920F923F
:104000000FB60F9211240BB60F922F938F939F939D
:10401000EF93FF93E091F503F091F6038081E09137
:10402000FB03F091FC0382FD1DC090818091FE0393
:104030008F5F8F732091FF03821741F0E091FE03A1
:10404000F0E0EB51FC4F958F8093FE03FF91EF91D1
:104050009F918F912F910F900BBE0F900FBE0F90DD
:104060001F9018958081F2CF1F920F920FB60F927A
:1040700011240BB60F922F933F934F935F936F933F
:104080007F938F939F93AF93BF93CF93DF93EF93E0
:10409000FF938091FF02C091BE04D0E087FF23C050
:1040A00010928500109284008091FF028F5F8093B0
:1040B000FF028091FF02082E000C990B8C179D07C0
:1040C00024F48091FF028C3074F1809184009091EF
:1040D000850084349C4908F465C0809184009091E7
:1040E0008500049661C08091FF02082E000C990B98
:1040F0008C179D07CCF63091FF0225E03203F001CA
:104100001124EE57FB4F808186FFCECF3091FF0206
:104110003203F0011124EE57FB4F808160E08F7372
:104120000E94CD03C1CF8091840090918500309191
:10413000FF0225E03203F0011124EE57FB4F4181CD
:104140005281840F951F909389008093880030914D
:10415000FF023203F0011124EE57FB4F808186FFEE
:104160000CC03091FF023203F0011124EE57FB4FD7
:10417000808161E08F730E94CD03FF91EF91DF9109
:10418000CF91BF91AF919F918F917F916F915F91EF
:104190004F913F912F910F900BBE0F900FBE0F903C
:1041A0001F90189580E49CE9909389008093880083
:1041B0008FEF8093FF02E1CF1092DC031092DB03BC
:1041C00088EE93E0A0E0B0E08093DD039093DE03FF
:1041D000A093DF03B093E0032BE232E03093DA03E5
:1041E0002093D9031092E8031092E7038093E90328
:1041F0009093EA03A093EB03B093EC038DE392E07A
:104200009093E6038093E50385EC90E09093F203AE
:104210008093F10384EC90E09093F4038093F30394
:1042200080EC90E09093F6038093F50381EC90E0AE
:104230009093F8038093F70382EC90E09093FA0355
:104240008093F90386EC90E09093FC038093FB034A
:104250001092FE031092FF031092000410920104CA
:104260008CE080939F0584E28093A00585E0809395
:10427000A10596E09093A2059EE19093A3059FE18E
:104280009093A40592E29093A50593E29093A605DE
:1042900094E49093A70595E49093A8051092AA053D
:1042A0001092A90590E49093AC051092B10510927C
:1042B000B2051092B3051092B4051092B505109294
:1042C000B6051092B7051092B80598E0E9E0F2E063
:1042D000A1ECB5E001900D929A95E1F740E050E035
:1042E00060EA70E44093C9055093CA056093CB051A
:1042F0007093CC0591E090939D05E091BE04EC3065
:1043000008F0A3C19E0F9093BE04E0939E058E9F7C
:10431000F0011124EE57FB4F88EB9BE092838183E1
:1043200010925105109252051092530510925405A7
:104330001092550510925605109257051092580587
:104340001092590510925A0510925B0510925C0567
:1043500010925E0510925D051092600510925F0547
:104360001092620510926105109263051092640527
:104370001092650510926605109267051092680507
:1043800010927D0510927E0510927F051092800597
:104390001092810510928205109283051092840577
:1043A0001092850510928605109287051092880557
:1043B0001092890510928A0510928B0510928C0537
:1043C00040E050E060EA70E440938D0550938E0524
:1043D00060938F057093900580E090E0A8ECB2E4C4
:1043E0008093910590939205A0939305B0939405C3
:1043F00010929505109296051092970510929805C7
:104400001092990510929A0510929B0510929C05A6
:1044100010920505109206051092070510920805E6
:104420001092090510920A0510920B0510920C05C6
:1044300010920D0510920E0510920F0510921005A6
:104440001092120510921105109214051092130586
:104450001092160510921505109217051092180566
:104460001092190510921A0510921B0510921C0546
:1044700010923105109232051092330510923405D6
:1044800010923505109236051092370510923805B6
:104490001092390510923A0510923B0510923C0596
:1044A00010923D0510923E0510923F051092400576
:1044B0004093410550934205609343057093440532
:1044C0008093450590934605A0934705B093480512
:1044D0001092490510924A0510924B0510924C0516
:1044E00010924D0510924E0510924F0510925005F6
:1044F00084EE9BECA6E1B0EC8093F1049093F2047F
:10450000A093F304B093F40484EE9BECA6E1B0E432
:104510008093F5049093F604A093F704B093F80405
:104520001092FD041092FE041092FF0410920005F8
:1045300010920105109202051092030510920405D5
:1045400081E492EFAFECB8E38093C5049093C60486
:10455000A093C704B093C8041092C9041092CA046F
:104560001092CB041092CC041092CD041092CE0481
:104570001092CF041092D0041092D1041092D20461
:104580001092D3041092D4041092D5041092D60441
:104590001092D7041092D8041092D9041092DA0421
:1045A0001092DB041092DC041092DD041092DE0401
:1045B0001092DF041092E0041092E1041092E204E1
:1045C0001092E3041092E4041092E5041092E604C1
:1045D0001092E7041092E8041092E9041092EA04A1
:1045E0001092EB041092EC041092ED041092EE0481
:1045F0001092EF041092F0041092C0041092BF04C5
:104600001092C2041092C1041092C4041092C30408
:1046100090E080E00E9406182091BF043091C00411
:10462000811117C02115310519F0C9010E94CC3143
:104630001092C0041092BF041092C4041092C304DC
:104640001092C2041092C10408958FEF80939E05CA
:1046500067CE1092C4041092C3046BE572E0C901E6
:104660000C943F33CF93DF93CDB7DEB7CF54D1094E
:104670000FB6F894DEBF0FBECDBF789484B58260CC
:1046800084BD84B5816084BD85B5826085BD85B5F6
:10469000816085BD80916E00816080936E00109274
:1046A00081008091810082608093810080918100EF
:1046B0008160809381008091800081608093800080
:1046C0008091B10084608093B1008091B0008160DE
:1046D0008093B000809191008260809391008091DE
:1046E000910081608093910080919000816080931F
:1046F00090008091A10082608093A1008091A10030
:1047000081608093A1008091A00081608093A000CF
:10471000809121018260809321018091210181603B
:1047200080932101809120018160809320018091FC
:104730007A00846080937A0080917A00826080930E
:104740007A0080917A00816080937A0080917A006B
:10475000806880937A001092C100E091F503F09197
:10476000F60382E08083E091F103F091F20310827E
:10477000E091F303F091F40380E180831092FD0354
:10478000E091F903F091FA0386E08083E091F7036A
:10479000F091F803808180618083E091F703F091CC
:1047A000F803808188608083E091F703F091F8033B
:1047B000808180688083E091F703F091F803808125
:1047C0008F7D808361E08091A0050E94550460E0A8
:1047D0008091A0050E94CD0360E080919F050E941A
:1047E00055048091A9059091AA05892BA9F486E02A
:1047F00090E00E943031FC018091AC05808389ED0E
:1048000093E092838183138280E290E09583848396
:10481000F093AA05E093A905E090A905F090AA05F8
:1048200010928803109287031092B6031092D80357
:104830000E9416048EE892E0909384038093830391
:104840008FE892E0909386038093850311E0D7016F
:1048500013961C93C7010E948907882309F45BC043
:1048600080E090E1A0E0B0E08093AD059093AE05CC
:10487000A093AF05B093B0058AE090E0A0E0B0E06F
:104880008093B1059093B205A093B305B093B4059E
:1048900080E090E0A0E0B0E48093B5059093B60589
:1048A000A093B705B093B8058091A9059091AA058A
:1048B0001FA618AA19AA1AAA99A388A31BA21AA20A
:1048C00019A785E090E09FA38EA31AA702E008A78E
:1048D00040E050E160E070E0CE0180960E94F10679
:1048E0008091A9059091AA05188A198A1A8A1B8AAB
:1048F0009A8389831C821B821A8718861F821B87D2
:1049000009874FE959E360E070E0CE0101960E940B
:10491000F1068093AB0551EAE52E55E0F52E0FE93F
:1049200015E06EE0662E63E0762E74E5872E73E068
:10493000972EEBECCE2EE7E0DE2EF7019281D70129
:104940008D917D01F801828F938F61E00E94550463
:1049500061E0D8015B968C910E9455045801BEE13C
:10496000AB0EB11CF70195818381D8015E968C93C3
:104970005E975F969C9361E00E94550460E0F801A9
:10498000878D0E94550461E0D8015E968C910E944B
:10499000CD035FB6F89480910503811125C0F30122
:1049A0008491F4019491E82FF0E0EE0FFF1FE5579A
:1049B000FD4FA591B4918C91982321F461E085E39A
:1049C0000E94CD0361E085E30E9455048CB58061AF
:1049D0008CBD8CB580648CBD61E084E30E9455047D
:1049E00061E083E30E945504809105038F5F80930B
:1049F00005035FBEC6010197F1F760E0D8015E963E
:104A00008C910E94CD0388E80E94800B83E00E9475
:104A1000800B61E0F801868D0E94CD03C6010197ED
:104A2000F1F7C5010E94870B0E5F1F4FF5E0033AB7
:104A30001F0709F082CF80919E058C3008F047C097
:104A400061E08DE00E94550480919E0525E0829FE3
:104A5000F0011124EE57FB4F9081907C9D60908374
:104A6000138214822CE0622F0E94432F829FB00198
:104A7000112430E020E095E0AB01420F531F949FDA
:104A8000F001959FF00D1124EE57FB4F408146FD3C
:104A900013C02F5F3F4F2C30310571F781110CC0CF
:104AA0001092800082E08093810010928500109225
:104AB000840086BB80936F00E0919E0585E0E89FAF
:104AC000F0011124EE57FB4F80818064808360E009
:104AD0008DE30E94550460E080E10E94550460E08F
:104AE0008EE00E94550460E081E10E94550460E080
:104AF0008FE00E94550461E080E20E9455040E940C
:104B000078028C01C090F104D090F204E090F3049C
:104B1000F090F404A70196016091F5047091F604F9
:104B20008091F7049091F8040E94862F4B015C015C
:104B3000B801110F880B990B0E94C32D9B01AC018A
:104B4000C501B4010E94222E20E030EC4FE754E46E
:104B50000E94F32FA70196010E94872F0E946530C3
:104B60007093FA046093F9048DEC9CECACE4BFE321
:104B70008093510590935205A0935305B09354052B
:104B80008DEC9CECACECBDE3809355059093560501
:104B9000A0935705B09358058AE097EDA3E2BCE3D4
:104BA0008093590590935A05A0935B05B0935C05DB
:104BB00010928D0510928E0510928F05109290051F
:104BC00029E120936D0510926E0510926F051092E9
:104BD0007005109271051092720510927305109273
:104BE00074058DEC9CECACECBCE380936905909370
:104BF0006A05A0936B05B0936C054EEC57E050939B
:104C00005E0540935D0545E554E150936005409392
:104C10005F054AE959E969E17FE34093050550934F
:104C2000060560930705709308054DEC5CEC6CE499
:104C30007EE34093090550930A0560930B0570933A
:104C40000C0546EA5BE964EC7BE340930D05509369
:104C50000E0560930F057093100510924105109298
:104C600042051092430510924405209321051092AD
:104C7000220510922305109224051092250510920A
:104C80002605109227051092280580931D05909304
:104C90001E05A0931F05B093200587ED97E0909324
:104CA0001205809311058EE494E19093140580938E
:104CB0001305DE0151962A96BFAFAEAF2A97FE01CB
:104CC00031961F010E94C207009112031091130335
:104CD0002091140330911503601B710B820B930B11
:104CE0000E94C12D6B017C0120E030E048EC51E4D2
:104CF0000E94BC2D87FDC1C520E030E04AE754E4A6
:104D0000C701B6010E94F32F2E966CAF7DAF8EAF18
:104D10009FAF2E970E9478028C019093FC048093A1
:104D2000FB048090FD049090FE04A090FF04B090DE
:104D30000005C090F104D090F204E090F304F090EC
:104D4000F404A70196016091F5047091F604809136
:104D5000F7049091F8040E94862F2B013C01B801C2
:104D6000110F880B990B0E94C32D9B01AC01C3014D
:104D7000B2010E94222E20E030EC4FE754E40E9462
:104D8000F32FA70196010E94872F6B017C01609190
:104D9000F9047091FA04072E000C880B990B0E94FD
:104DA000C32D9B01AC01C701B6010E94862F9B0158
:104DB000AC012093FD043093FE044093FF04509314
:104DC0000005C501B4010E94862F2E962CAD3DAD85
:104DD0004EAD5FAD2E970E94F32F60930105709347
:104DE0000205809303059093040560E08091BF0560
:104DF0000E94CD0380E60E94800B8E010F5F1F4F43
:104E0000780180E00E94800B90E0B0E0A0E0F70124
:104E100081939193A193B1937F012A968EAD9FAD1B
:104E20002A978E179F0769F761E08091BF050E945E
:104E3000CD03412C512C3201F80181919191A19126
:104E4000B1918F01762C652C542C4424480E591EA8
:104E50006A1E7B1EEE16FF0679F7709460945094DC
:104E60004094411C511C611C711CF091CD04A09117
:104E7000CE04B091CF049090D0048090D104E09102
:104E8000D2042F96EFAF2F97E091D3046096EFAF47
:104E90006097E091D4042F2F3A2F4B2F592D682D76
:104EA0002F967FAD2F9760968FAD60979E2FA09025
:104EB000D504B090D604C090D704D090D804E09028
:104EC000D904F090DA040091DB041091DC040E9414
:104ED000742F2093DD043093DE044093DF0450935D
:104EE000E0046093E1047093E2048093E304909300
:104EF000E404F093D504A093D604B093D704909221
:104F0000D8048092D9042F96FFAD2F97F093DA043E
:104F10006096AFAD6097A093DB04E093DC04D3010F
:104F2000C201BB0F880B982FDC014092CD04509238
:104F3000CE046092CF047092D0048093D104809309
:104F4000D2048093D3048093D4048090E50490909D
:104F5000E604A090E704B090E804C090E904D09083
:104F6000EA04E090EB04F090EC04C301B2010E946B
:104F7000C32D2091C5043091C6044091C7045091BF
:104F8000C8040E94222E2091C9043091CA04409185
:104F9000CB045091CC040E94872F6093E50470935A
:104FA000E6048093E7049093E804A50194010E942D
:104FB000862F2E962CAD3DAD4EAD5FAD2E970E9447
:104FC000F32F6093E9047093EA048093EB049093C9
:104FD000EC04A70196010E94862F2E962CAD3DADC4
:104FE0004EAD5FAD2E970E94F32F6093ED0470934A
:104FF000EE048093EF049093F0048EE00E94A403EB
:10500000892B21F08BE090E00E94D20C80E10E947D
:10501000A403892B21F08AE090E00E94D20C81E168
:105020000E94A403892BF1F08CE090E00E94D20C46
:10503000E0911003F09111033197EB30F10508F086
:1050400072C08827E95DF74D8F4F0C94632F382885
:10505000B92804293B294D2C742C882CAC2CF82C15
:105060001A2D0F2D8FE00E94A403892BE9F6E0CFC3
:10507000C0900105D0900205E0900305F090040572
:1050800020E030E0A901C701B6010E949B3018164C
:105090000CF52DEC3CEC4CEC5DE3C701B6010E9435
:1050A000BC2D87FD21C020E030E040E05FE360914F
:1050B000FD047091FE048091FF04909100050E9410
:1050C000222E609363057093640580936505909329
:1050D00066056BC12DEC3CEC4CEC5DEBC701B601F9
:1050E0000E949B301816FCF6C090FD04D090FE0480
:1050F000E090FF04F090000520E030E0A901C70136
:10510000B6010E949B3018164CF52DEC3CEC4CE49B
:105110005DE3C701B6010E94BC2D87FFC4CF88E0C4
:1051200090E00E94D20CE0911003F0911103ED3059
:10513000F10508F03AC18827EF55F74D8F4F0C94D1
:10514000632F9C2D5328F7281729632963292C2DB9
:105150005C2DDA2C3329202D152DA12D2DEC3CECC6
:105160004CE45DEBC701B6010E949B301816BCF2FF
:105170009ACF25E333E343E35EE36091E504709166
:10518000E6048091E7049091E8040E94862F6B0169
:105190007C0120E030E0A9010E949B301816ECF45D
:1051A0002AE037ED43EA5CE3C701B6010E94BC2D5B
:1051B00087FF1DC02FE632E143E85AE36091E9041E
:1051C0007091EA048091EB049091EC040E94BC2D54
:1051D00087FF0DC090E080E0A4CF2AE037ED43EADE
:1051E0005CEBC701B6010E949B3018161CF385E3E7
:1051F00093E3A3E3BEE38093170590931805A09370
:105200001905B0931A05D1C00E94C20700910C0382
:1052100010910D0320910E0330910F03601B710B51
:10522000820B930B613A7F408105910598F640E02F
:1052300050E060E070E88BEB95E00E94590A0E9414
:10524000C20700910C0310910D0320910E033091C1
:105250000F03601B710B820B930B603D7740810540
:10526000910508F0F2C390E080E00E940B0281E01B
:1052700080939D059AC02091080330910903809185
:1052800006039091070328173907ECF0C090FD043E
:10529000D090FE04E090FF04F090000520E030E0A4
:1052A000A901C701B6010E949B3018160CF0E8C294
:1052B0002AE037ED43E25CE3C701B6010E949B3070
:1052C00018160CF4E7C20E94C20700910C0310915B
:1052D0000D0320910E0330910F03601B710B820BA5
:1052E000930B0E94C12D20E030E04AE754E40E9475
:1052F000F32F6B017C012FEF3BE742E850E40E9463
:10530000222E0E94A0309B01AC01C701B6010E9471
:10531000222E20E030E040E05FE30E94222E6B016D
:105320007C0120E030E0A9010E94BC2D01E010E0EA
:1053300087FF02C00FEF1FEF80910A0390910B03CC
:105340008017910769F010930B0300930A03809173
:105350000803909109030196909309038093080331
:1053600026E13EEA47E45EE36091E5047091E604DD
:105370008091E7049091E8040E949B3018166CF429
:105380000F3F1F4F51F420E030E040E05FE3C701E2
:10539000B6010E94862F6B017C01C0926305D092FA
:1053A0006405E0926505F092660581E595E00E944E
:1053B000E60885E095E00E94E608E1E0F2E0FA8385
:1053C000E9831B821D821C8286E090E08C0F9D1F6A
:1053D0009F8B8E8B188E84E0898F8FEF8A8F1F8E24
:1053E0000E94C2076B017C0139A228A2A2EDB2E0A3
:1053F000BBA3AAA3CE0180960E94531D8C010097E7
:1054000061F0B1010E948710F80184818078886082
:105410008483C082D182E282F382E0901003F09014
:10542000110339A228A2EAE9F2E0FBA3EAA3CE0124
:1054300080960E94531D8C010097A1F0B1010E943B
:105440008710D80114968C91149780788A601496EE
:105450008C93C701FF0CAA0BBB0BF80180839183CF
:10546000A283B3838091510590915205A091530579
:10547000B091540588A399A3AAA3BBA33CAA2BAAC5
:105480008DE892E09EAB8DABBE01605E7F4FCE019A
:10549000C3960E94911D8091550590915605A0914B
:1054A0005705B091580588A399A3AAA3BBA33CAA0A
:1054B0002BAA80E992E09EAB8DABBE01605E7F4F70
:1054C000CE01C3960E94911D8091590590915A0575
:1054D000A0915B05B0915C0588A399A3AAA3BBA387
:1054E0003CAA2BAA83E992E09EAB8DABBE01605E25
:1054F0007F4FCE01C3960E94911D809163059091CC
:105500006405A0916505B091660588A399A3AAA337
:10551000BBA33CAA2BAA8CE992E09EAB8DABBE014B
:10552000605E7F4FCE01C3960E94911D8091E5047D
:105530009091E604A091E704B091E80488A399A3B0
:10554000AAA3BBA33CAA2BAA80EA92E09EAB8DAB98
:10555000BE01605E7F4FCE01C3960E94911D809177
:10556000E9049091EA04A091EB04B091EC0488A3C3
:1055700099A3AAA3BBA33CAA2BAA8FE992E09EAB56
:105580008DABBE01605E7F4FCE01C3960E94911D20
:105590008091ED049091EE04A091EF04B091F0049D
:1055A00088A399A3AAA3BBA33CAA2BAA8EE992E045
:1055B0009EAB8DABBE01605E7F4FCE01C3960E9455
:1055C000911D8091FD049091FE04A091FF04B09183
:1055D000000588A399A3AAA3BBA33CAA2BAA83EA8C
:1055E00092E09EAB8DABBE01605E7F4FCE01C39655
:1055F0000E94911D8091010590910205A0910305E3
:10560000B091040588A399A3AAA3BBA33CAA2BAA83
:1056100082EA92E09EAB8DABBE01605E7F4FCE0111
:10562000C3960E94911DF090680539A228A28AEACB
:1056300092E09BA38AA3CE0180960E94531D8C0109
:10564000009769F0B1010E948710D80114968C91DF
:1056500014978078866014968C931497FC928091AE
:10566000A9059091AA051FA618AA19AA1AAA99A372
:1056700088A31BA21AA211E019A782E090E09FA3C1
:105680008EA31AA702E008A7BE016D5C7F4FCE0172
:1056900080960E9498128093AB05EBA8FCA883E04B
:1056A000F694E7948A95E1F7EE0CFF1CEE0CFF1CD4
:1056B0008091A9059091AA051FA618AA19AA1AAA4D
:1056C00099A388A31BA21AA219A781E090E09FA327
:1056D0008EA31AA708A7BE016D5C7F4FCE018096EE
:1056E0000E9498128093AB056BA97CA9072E000C31
:1056F000880B990B0E94C32D2AE037ED43E25CE34F
:105700000E94222E20E030E04AE754E40E94F32F6A
:105710004B015C01B701FF0C880B990B0E94C32D54
:105720002FE632E143E85AE30E94222E9B01AC01AE
:10573000C501B4010E94872F68A379A38AA39BA304
:105740003CAA2BAA85EA92E09EAB8DABBE01605EBF
:105750007F4FCE01C3960E94911D8091A905909123
:10576000AA0526961CAE1DAE1EAE1FAE26979CAB9C
:105770008BAB1EAA1DAA1CAF85E090E09AAF89AF43
:105780001DAF0BAF4091AD055091AE056091AF05D7
:105790007091B005CE01C3960E94F1068091A905D3
:1057A0009091AA051FA618AA19AA1AAA99A388A3B4
:1057B0001BA21AA219A784E090E09FA38EA31AA7A8
:1057C00008A7BE016A5B7F4FCE0180960E949812A7
:1057D0008093AB0528966EAD7FAD2897072E000C01
:1057E000880B990B0E94C32D6B017C016091B10560
:1057F0007091B2058091B3059091B4050E94C12DBE
:105800009B01AC01C701B6010E94F32F20E030E0FC
:105810004AE754E40E94F32F68A379A38AA39BA3C9
:105820003CAA2BAA87EA92E09EAB8DABBE01605EDC
:105830007F4FCE01C3960E94911D85EE93E099A300
:1058400088A31BA21AA23DA22CA2BE01605E7F4FBC
:10585000CE014B960E9428158AE892E00E945C14C3
:10586000C1010E943E100E94C20760931203709310
:10587000130380931403909315030E94261D22CADC
:105880002AE037ED43E25CEBC701B6010E94BC2D74
:1058900087FF19CD86E090E044CC20910803309139
:1058A00009038091060390910703281739070CF428
:1058B0000ACD20E030E0A9016091FD047091FE0462
:1058C0008091FF04909100050E94BC2D87FFFBCCC6
:1058D00020E030E0A90160910105709102058091FE
:1058E000030590910405D2CF2DEC3CEC4CE45FE332
:1058F0006091E5047091E6048091E7049091E804DA
:105900000E949B3018160CF0A7C087E090E009CCED
:105910002CEA35EC47E257E360916305709164052A
:1059200080916505909166050E94BC2D18168CF437
:105930002AE939E949E95FE36091E5047091E604F9
:105940008091E7049091E8040E949B3018160CF0B7
:10595000B3C081E090E0E5CB24EA30E74DE85FE3B7
:105960006091E5047091E6048091E7049091E80469
:105970000E94862F6B017C0120E030E0A9010E948B
:105980009B3018166CF42AE037ED43EA5CE3C7015C
:10599000B6010E94BC2D87FF0DC089E090E0C1CB0D
:1059A0002AE037ED43EA5CEBC701B6010E949B3069
:1059B00018169CF324EA30E74DE85FE36091E504B4
:1059C0007091E6048091E7049091E8040E94BC2D58
:1059D0004DEC5CEC6CEC7DEB87FF04C04DEC5CECBB
:1059E0006CEC7DE370588BEB95E00E94590ADDCC9E
:1059F0000E94C20700910C0310910D0320910E0329
:105A000030910F03601B710B820B930B693E734047
:105A10008105910508F427CC82E090E082CB8EE0EE
:105A20000E94A403892B09F4D5CB4DEC5CEC6CEC03
:105A30007DE3D9CF80E10E94A403892B09F4CACB6E
:105A40004DEC5CEC6CEC7DEBCECF8CE390E00E94F7
:105A50000B0210929D05A9CC0E94C207C0900C03B6
:105A6000D0900D03E0900E03F0900F036C197D09A8
:105A70008E099F090E94C12D22E430E645EE5BE3CA
:105A80000E94222E26E636E646E250E40E949B3033
:105A900018166CF00E94C2076C197D098E099F09C7
:105AA0000E94C12D22E430E645EE5BE308CB66E6BA
:105AB00076E686E290E405CB0E94C207C0900C0314
:105AC000D0900D03E0900E03F0900F036C197D0948
:105AD0008E099F090E94C12D22E539E44DE15AE368
